{
  "_format": "hh-sol-artifact-1",
  "contractName": "FifthDimension",
  "sourceName": "contracts/FifthDimension.sol",
  "abi": [
    {
      "inputs": [
        {
          "internalType": "uint64",
          "name": "_whitelistStart",
          "type": "uint64"
        },
        {
          "internalType": "uint64",
          "name": "_whitelistEnd",
          "type": "uint64"
        },
        {
          "internalType": "uint64",
          "name": "_publicStart",
          "type": "uint64"
        },
        {
          "internalType": "uint64",
          "name": "_publicEnd",
          "type": "uint64"
        },
        {
          "internalType": "bytes32",
          "name": "whitelistMerkleRoot",
          "type": "bytes32"
        },
        {
          "internalType": "string",
          "name": "name",
          "type": "string"
        },
        {
          "internalType": "string",
          "name": "symbol",
          "type": "string"
        },
        {
          "internalType": "string",
          "name": "tempUri",
          "type": "string"
        }
      ],
      "stateMutability": "nonpayable",
      "type": "constructor"
    },
    {
      "anonymous": false,
      "inputs": [
        {
          "indexed": true,
          "internalType": "address",
          "name": "owner",
          "type": "address"
        },
        {
          "indexed": true,
          "internalType": "address",
          "name": "approved",
          "type": "address"
        },
        {
          "indexed": true,
          "internalType": "uint256",
          "name": "tokenId",
          "type": "uint256"
        }
      ],
      "name": "Approval",
      "type": "event"
    },
    {
      "anonymous": false,
      "inputs": [
        {
          "indexed": true,
          "internalType": "address",
          "name": "owner",
          "type": "address"
        },
        {
          "indexed": true,
          "internalType": "address",
          "name": "operator",
          "type": "address"
        },
        {
          "indexed": false,
          "internalType": "bool",
          "name": "approved",
          "type": "bool"
        }
      ],
      "name": "ApprovalForAll",
      "type": "event"
    },
    {
      "anonymous": false,
      "inputs": [
        {
          "indexed": true,
          "internalType": "bytes32",
          "name": "role",
          "type": "bytes32"
        },
        {
          "indexed": true,
          "internalType": "bytes32",
          "name": "previousAdminRole",
          "type": "bytes32"
        },
        {
          "indexed": true,
          "internalType": "bytes32",
          "name": "newAdminRole",
          "type": "bytes32"
        }
      ],
      "name": "RoleAdminChanged",
      "type": "event"
    },
    {
      "anonymous": false,
      "inputs": [
        {
          "indexed": true,
          "internalType": "bytes32",
          "name": "role",
          "type": "bytes32"
        },
        {
          "indexed": true,
          "internalType": "address",
          "name": "account",
          "type": "address"
        },
        {
          "indexed": true,
          "internalType": "address",
          "name": "sender",
          "type": "address"
        }
      ],
      "name": "RoleGranted",
      "type": "event"
    },
    {
      "anonymous": false,
      "inputs": [
        {
          "indexed": true,
          "internalType": "bytes32",
          "name": "role",
          "type": "bytes32"
        },
        {
          "indexed": true,
          "internalType": "address",
          "name": "account",
          "type": "address"
        },
        {
          "indexed": true,
          "internalType": "address",
          "name": "sender",
          "type": "address"
        }
      ],
      "name": "RoleRevoked",
      "type": "event"
    },
    {
      "anonymous": false,
      "inputs": [
        {
          "indexed": true,
          "internalType": "address",
          "name": "from",
          "type": "address"
        },
        {
          "indexed": true,
          "internalType": "address",
          "name": "to",
          "type": "address"
        },
        {
          "indexed": true,
          "internalType": "uint256",
          "name": "tokenId",
          "type": "uint256"
        }
      ],
      "name": "Transfer",
      "type": "event"
    },
    {
      "inputs": [],
      "name": "ADMIN_ROLE",
      "outputs": [
        {
          "internalType": "bytes32",
          "name": "",
          "type": "bytes32"
        }
      ],
      "stateMutability": "view",
      "type": "function"
    },
    {
      "inputs": [],
      "name": "DEFAULT_ADMIN_ROLE",
      "outputs": [
        {
          "internalType": "bytes32",
          "name": "",
          "type": "bytes32"
        }
      ],
      "stateMutability": "view",
      "type": "function"
    },
    {
      "inputs": [],
      "name": "MOD_ROLE",
      "outputs": [
        {
          "internalType": "bytes32",
          "name": "",
          "type": "bytes32"
        }
      ],
      "stateMutability": "view",
      "type": "function"
    },
    {
      "inputs": [
        {
          "internalType": "address",
          "name": "to",
          "type": "address"
        },
        {
          "internalType": "uint16",
          "name": "quantity",
          "type": "uint16"
        }
      ],
      "name": "airdrop",
      "outputs": [],
      "stateMutability": "nonpayable",
      "type": "function"
    },
    {
      "inputs": [
        {
          "internalType": "address",
          "name": "to",
          "type": "address"
        },
        {
          "internalType": "uint256",
          "name": "tokenId",
          "type": "uint256"
        }
      ],
      "name": "approve",
      "outputs": [],
      "stateMutability": "nonpayable",
      "type": "function"
    },
    {
      "inputs": [
        {
          "internalType": "address",
          "name": "owner",
          "type": "address"
        }
      ],
      "name": "balanceOf",
      "outputs": [
        {
          "internalType": "uint256",
          "name": "",
          "type": "uint256"
        }
      ],
      "stateMutability": "view",
      "type": "function"
    },
    {
      "inputs": [
        {
          "internalType": "uint256",
          "name": "tokenId",
          "type": "uint256"
        }
      ],
      "name": "getApproved",
      "outputs": [
        {
          "internalType": "address",
          "name": "",
          "type": "address"
        }
      ],
      "stateMutability": "view",
      "type": "function"
    },
    {
      "inputs": [
        {
          "internalType": "bytes32",
          "name": "role",
          "type": "bytes32"
        }
      ],
      "name": "getRoleAdmin",
      "outputs": [
        {
          "internalType": "bytes32",
          "name": "",
          "type": "bytes32"
        }
      ],
      "stateMutability": "view",
      "type": "function"
    },
    {
      "inputs": [
        {
          "internalType": "bytes32",
          "name": "role",
          "type": "bytes32"
        },
        {
          "internalType": "address",
          "name": "account",
          "type": "address"
        }
      ],
      "name": "grantRole",
      "outputs": [],
      "stateMutability": "nonpayable",
      "type": "function"
    },
    {
      "inputs": [
        {
          "internalType": "bytes32",
          "name": "role",
          "type": "bytes32"
        },
        {
          "internalType": "address",
          "name": "account",
          "type": "address"
        }
      ],
      "name": "hasRole",
      "outputs": [
        {
          "internalType": "bool",
          "name": "",
          "type": "bool"
        }
      ],
      "stateMutability": "view",
      "type": "function"
    },
    {
      "inputs": [
        {
          "internalType": "address",
          "name": "owner",
          "type": "address"
        },
        {
          "internalType": "address",
          "name": "operator",
          "type": "address"
        }
      ],
      "name": "isApprovedForAll",
      "outputs": [
        {
          "internalType": "bool",
          "name": "",
          "type": "bool"
        }
      ],
      "stateMutability": "view",
      "type": "function"
    },
    {
      "inputs": [],
      "name": "isPublicSaleActive",
      "outputs": [
        {
          "internalType": "bool",
          "name": "",
          "type": "bool"
        }
      ],
      "stateMutability": "view",
      "type": "function"
    },
    {
      "inputs": [],
      "name": "isWhitelistSaleActive",
      "outputs": [
        {
          "internalType": "bool",
          "name": "",
          "type": "bool"
        }
      ],
      "stateMutability": "view",
      "type": "function"
    },
    {
      "inputs": [],
      "name": "mint",
      "outputs": [],
      "stateMutability": "nonpayable",
      "type": "function"
    },
    {
      "inputs": [],
      "name": "name",
      "outputs": [
        {
          "internalType": "string",
          "name": "",
          "type": "string"
        }
      ],
      "stateMutability": "view",
      "type": "function"
    },
    {
      "inputs": [
        {
          "internalType": "uint256",
          "name": "tokenId",
          "type": "uint256"
        }
      ],
      "name": "ownerOf",
      "outputs": [
        {
          "internalType": "address",
          "name": "",
          "type": "address"
        }
      ],
      "stateMutability": "view",
      "type": "function"
    },
    {
      "inputs": [],
      "name": "publicEnd",
      "outputs": [
        {
          "internalType": "uint64",
          "name": "",
          "type": "uint64"
        }
      ],
      "stateMutability": "view",
      "type": "function"
    },
    {
      "inputs": [],
      "name": "publicStart",
      "outputs": [
        {
          "internalType": "uint64",
          "name": "",
          "type": "uint64"
        }
      ],
      "stateMutability": "view",
      "type": "function"
    },
    {
      "inputs": [
        {
          "internalType": "bytes32",
          "name": "role",
          "type": "bytes32"
        },
        {
          "internalType": "address",
          "name": "account",
          "type": "address"
        }
      ],
      "name": "renounceRole",
      "outputs": [],
      "stateMutability": "nonpayable",
      "type": "function"
    },
    {
      "inputs": [],
      "name": "revealed",
      "outputs": [
        {
          "internalType": "bool",
          "name": "",
          "type": "bool"
        }
      ],
      "stateMutability": "view",
      "type": "function"
    },
    {
      "inputs": [
        {
          "internalType": "bytes32",
          "name": "role",
          "type": "bytes32"
        },
        {
          "internalType": "address",
          "name": "account",
          "type": "address"
        }
      ],
      "name": "revokeRole",
      "outputs": [],
      "stateMutability": "nonpayable",
      "type": "function"
    },
    {
      "inputs": [
        {
          "internalType": "address",
          "name": "from",
          "type": "address"
        },
        {
          "internalType": "address",
          "name": "to",
          "type": "address"
        },
        {
          "internalType": "uint256",
          "name": "tokenId",
          "type": "uint256"
        }
      ],
      "name": "safeTransferFrom",
      "outputs": [],
      "stateMutability": "nonpayable",
      "type": "function"
    },
    {
      "inputs": [
        {
          "internalType": "address",
          "name": "from",
          "type": "address"
        },
        {
          "internalType": "address",
          "name": "to",
          "type": "address"
        },
        {
          "internalType": "uint256",
          "name": "tokenId",
          "type": "uint256"
        },
        {
          "internalType": "bytes",
          "name": "_data",
          "type": "bytes"
        }
      ],
      "name": "safeTransferFrom",
      "outputs": [],
      "stateMutability": "nonpayable",
      "type": "function"
    },
    {
      "inputs": [
        {
          "internalType": "address",
          "name": "operator",
          "type": "address"
        },
        {
          "internalType": "bool",
          "name": "approved",
          "type": "bool"
        }
      ],
      "name": "setApprovalForAll",
      "outputs": [],
      "stateMutability": "nonpayable",
      "type": "function"
    },
    {
      "inputs": [
        {
          "internalType": "string",
          "name": "baseUri",
          "type": "string"
        }
      ],
      "name": "setBaseURI",
      "outputs": [],
      "stateMutability": "nonpayable",
      "type": "function"
    },
    {
      "inputs": [
        {
          "internalType": "string",
          "name": "tempUri",
          "type": "string"
        }
      ],
      "name": "setPlaceholderURI",
      "outputs": [],
      "stateMutability": "nonpayable",
      "type": "function"
    },
    {
      "inputs": [
        {
          "internalType": "bytes4",
          "name": "interfaceId",
          "type": "bytes4"
        }
      ],
      "name": "supportsInterface",
      "outputs": [
        {
          "internalType": "bool",
          "name": "",
          "type": "bool"
        }
      ],
      "stateMutability": "view",
      "type": "function"
    },
    {
      "inputs": [],
      "name": "symbol",
      "outputs": [
        {
          "internalType": "string",
          "name": "",
          "type": "string"
        }
      ],
      "stateMutability": "view",
      "type": "function"
    },
    {
      "inputs": [],
      "name": "toggleReveal",
      "outputs": [],
      "stateMutability": "nonpayable",
      "type": "function"
    },
    {
      "inputs": [
        {
          "internalType": "uint256",
          "name": "id",
          "type": "uint256"
        }
      ],
      "name": "tokenURI",
      "outputs": [
        {
          "internalType": "string",
          "name": "",
          "type": "string"
        }
      ],
      "stateMutability": "view",
      "type": "function"
    },
    {
      "inputs": [],
      "name": "totalSupply",
      "outputs": [
        {
          "internalType": "uint16",
          "name": "",
          "type": "uint16"
        }
      ],
      "stateMutability": "view",
      "type": "function"
    },
    {
      "inputs": [
        {
          "internalType": "address",
          "name": "from",
          "type": "address"
        },
        {
          "internalType": "address",
          "name": "to",
          "type": "address"
        },
        {
          "internalType": "uint256",
          "name": "tokenId",
          "type": "uint256"
        }
      ],
      "name": "transferFrom",
      "outputs": [],
      "stateMutability": "nonpayable",
      "type": "function"
    },
    {
      "inputs": [],
      "name": "whitelistEnd",
      "outputs": [
        {
          "internalType": "uint64",
          "name": "",
          "type": "uint64"
        }
      ],
      "stateMutability": "view",
      "type": "function"
    },
    {
      "inputs": [
        {
          "internalType": "bytes32[]",
          "name": "_merkleProof",
          "type": "bytes32[]"
        }
      ],
      "name": "whitelistMint",
      "outputs": [],
      "stateMutability": "nonpayable",
      "type": "function"
    },
    {
      "inputs": [],
      "name": "whitelistStart",
      "outputs": [
        {
          "internalType": "uint64",
          "name": "",
          "type": "uint64"
        }
      ],
      "stateMutability": "view",
      "type": "function"
    }
  ],
  "bytecode": "0x60806040527fa49807205ce4d355092ef5a8a18f56e8913cf4a201fbe287825b095693c217756007557f950b8f2d7415defaee398bb4898e8e094a64c725873b81952b7ab9f08d70efb36008553480156200005957600080fd5b50604051620059293803806200592983398181016040528101906200007f9190620007c6565b8282816000908051906020019062000099929190620004f9565b508060019080519060200190620000b2929190620004f9565b5050508360098190555080600d9080519060200190620000d4929190620004f9565b506000429050808967ffffffffffffffff161162000129576040517f08c379a000000000000000000000000000000000000000000000000000000000815260040162000120906200094d565b60405180910390fd5b808867ffffffffffffffff161180156200016c5750603360089054906101000a900467ffffffffffffffff1667ffffffffffffffff168867ffffffffffffffff16115b620001ae576040517f08c379a0000000000000000000000000000000000000000000000000000000008152600401620001a590620009bf565b60405180910390fd5b88603360086101000a81548167ffffffffffffffff021916908367ffffffffffffffff16021790555087603360106101000a81548167ffffffffffffffff021916908367ffffffffffffffff160217905550808767ffffffffffffffff161180156200022e57508767ffffffffffffffff168767ffffffffffffffff1610155b62000270576040517f08c379a0000000000000000000000000000000000000000000000000000000008152600401620002679062000a31565b60405180910390fd5b808667ffffffffffffffff161180156200029d57508667ffffffffffffffff168667ffffffffffffffff16115b620002df576040517f08c379a0000000000000000000000000000000000000000000000000000000008152600401620002d69062000aa3565b60405180910390fd5b86603360186101000a81548167ffffffffffffffff021916908367ffffffffffffffff16021790555085603460006101000a81548167ffffffffffffffff021916908367ffffffffffffffff1602179055506000620003436200037e60201b60201c565b90506200035a6000801b826200038660201b60201c565b6200036e600754826200038660201b60201c565b5050505050505050505062000b29565b600033905090565b6200039882826200039c60201b60201c565b5050565b620003ae82826200048e60201b60201c565b6200048a5760016006600084815260200190815260200160002060000160008373ffffffffffffffffffffffffffffffffffffffff1673ffffffffffffffffffffffffffffffffffffffff16815260200190815260200160002060006101000a81548160ff0219169083151502179055506200042f6200037e60201b60201c565b73ffffffffffffffffffffffffffffffffffffffff168173ffffffffffffffffffffffffffffffffffffffff16837f2f8788117e7eff1d82e926ec794901d17c78024a50270940304540a733656f0d60405160405180910390a45b5050565b60006006600084815260200190815260200160002060000160008373ffffffffffffffffffffffffffffffffffffffff1673ffffffffffffffffffffffffffffffffffffffff16815260200190815260200160002060009054906101000a900460ff16905092915050565b828054620005079062000af4565b90600052602060002090601f0160209004810192826200052b576000855562000577565b82601f106200054657805160ff191683800117855562000577565b8280016001018555821562000577579182015b828111156200057657825182559160200191906001019062000559565b5b5090506200058691906200058a565b5090565b5b80821115620005a55760008160009055506001016200058b565b5090565b6000604051905090565b600080fd5b600080fd5b600067ffffffffffffffff82169050919050565b620005dc81620005bd565b8114620005e857600080fd5b50565b600081519050620005fc81620005d1565b92915050565b6000819050919050565b620006178162000602565b81146200062357600080fd5b50565b60008151905062000637816200060c565b92915050565b600080fd5b600080fd5b6000601f19601f8301169050919050565b7f4e487b7100000000000000000000000000000000000000000000000000000000600052604160045260246000fd5b620006928262000647565b810181811067ffffffffffffffff82111715620006b457620006b362000658565b5b80604052505050565b6000620006c9620005a9565b9050620006d7828262000687565b919050565b600067ffffffffffffffff821115620006fa57620006f962000658565b5b620007058262000647565b9050602081019050919050565b60005b838110156200073257808201518184015260208101905062000715565b8381111562000742576000848401525b50505050565b60006200075f6200075984620006dc565b620006bd565b9050828152602081018484840111156200077e576200077d62000642565b5b6200078b84828562000712565b509392505050565b600082601f830112620007ab57620007aa6200063d565b5b8151620007bd84826020860162000748565b91505092915050565b600080600080600080600080610100898b031215620007ea57620007e9620005b3565b5b6000620007fa8b828c01620005eb565b98505060206200080d8b828c01620005eb565b9750506040620008208b828c01620005eb565b9650506060620008338b828c01620005eb565b9550506080620008468b828c0162000626565b94505060a089015167ffffffffffffffff8111156200086a5762000869620005b8565b5b620008788b828c0162000793565b93505060c089015167ffffffffffffffff8111156200089c576200089b620005b8565b5b620008aa8b828c0162000793565b92505060e089015167ffffffffffffffff811115620008ce57620008cd620005b8565b5b620008dc8b828c0162000793565b9150509295985092959890939650565b600082825260208201905092915050565b7f57726f6e672077686974656c6973742073746172740000000000000000000000600082015250565b600062000935601583620008ec565b91506200094282620008fd565b602082019050919050565b60006020820190508181036000830152620009688162000926565b9050919050565b7f57726f6e672077686974656c69737420656e6400000000000000000000000000600082015250565b6000620009a7601383620008ec565b9150620009b4826200096f565b602082019050919050565b60006020820190508181036000830152620009da8162000998565b9050919050565b7f57726f6e67207075626c69632073746172740000000000000000000000000000600082015250565b600062000a19601283620008ec565b915062000a2682620009e1565b602082019050919050565b6000602082019050818103600083015262000a4c8162000a0a565b9050919050565b7f57726f6e67207075626c696320656e6400000000000000000000000000000000600082015250565b600062000a8b601083620008ec565b915062000a988262000a53565b602082019050919050565b6000602082019050818103600083015262000abe8162000a7c565b9050919050565b7f4e487b7100000000000000000000000000000000000000000000000000000000600052602260045260246000fd5b6000600282049050600182168062000b0d57607f821691505b60208210810362000b235762000b2262000ac5565b5b50919050565b614df08062000b396000396000f3fe608060405234801561001057600080fd5b50600436106102115760003560e01c80635b8ad42911610125578063a5f4c6ff116100ad578063c87b56dd1161007c578063c87b56dd146105ca578063d547741f146105fa578063e932406f14610616578063e985e9c514610634578063ec8d130b1461066457610211565b8063a5f4c6ff14610554578063b88d4fde14610572578063b98451cf1461058e578063bfb6e0e7146105ac57610211565b806391d14854116100f457806391d14854146104ae57806395d89b41146104de578063994d3969146104fc578063a217fddf1461051a578063a22cb4651461053857610211565b80635b8ad429146104265780636352211e1461043057806370a082311461046057806375b238fc1461049057610211565b806323b872dd116101a857806336568abe1161017757806336568abe14610398578063372f657c146103b457806342842e0e146103d057806351830227146103ec57806355f804b31461040a57610211565b806323b872dd14610314578063248a9ca3146103305780632f2ff15d146103605780633574a2dd1461037c57610211565b80630acae9a7116101e45780630acae9a7146102b05780631249c58b146102ce57806318160ddd146102d85780631e84c413146102f657610211565b806301ffc9a71461021657806306fdde0314610246578063081812fc14610264578063095ea7b314610294575b600080fd5b610230600480360381019061022b9190613178565b610680565b60405161023d91906131c0565b60405180910390f35b61024e610692565b60405161025b9190613274565b60405180910390f35b61027e600480360381019061027991906132cc565b610724565b60405161028b919061333a565b60405180910390f35b6102ae60048036038101906102a99190613381565b6107a9565b005b6102b86108c0565b6040516102c591906133e4565b60405180910390f35b6102d66108da565b005b6102e0610af6565b6040516102ed919061341c565b60405180910390f35b6102fe610b29565b60405161030b91906131c0565b60405180910390f35b61032e60048036038101906103299190613437565b610b7e565b005b61034a600480360381019061034591906134c0565b610bde565b60405161035791906134fc565b60405180910390f35b61037a60048036038101906103759190613517565b610bfe565b005b6103966004803603810190610391919061368c565b610c27565b005b6103b260048036038101906103ad9190613517565b610cad565b005b6103ce60048036038101906103c99190613735565b610d30565b005b6103ea60048036038101906103e59190613437565b610f6a565b005b6103f4610f8a565b60405161040191906131c0565b60405180910390f35b610424600480360381019061041f919061368c565b610f9d565b005b61042e611023565b005b61044a600480360381019061044591906132cc565b6110bb565b604051610457919061333a565b60405180910390f35b61047a60048036038101906104759190613782565b61116c565b60405161048791906137be565b60405180910390f35b610498611223565b6040516104a591906134fc565b60405180910390f35b6104c860048036038101906104c39190613517565b611229565b6040516104d591906131c0565b60405180910390f35b6104e6611294565b6040516104f39190613274565b60405180910390f35b610504611326565b60405161051191906133e4565b60405180910390f35b610522611340565b60405161052f91906134fc565b60405180910390f35b610552600480360381019061054d9190613805565b611347565b005b61055c61135d565b60405161056991906133e4565b60405180910390f35b61058c600480360381019061058791906138e6565b611377565b005b6105966113d9565b6040516105a391906131c0565b60405180910390f35b6105b461142e565b6040516105c191906133e4565b60405180910390f35b6105e460048036038101906105df91906132cc565b611448565b6040516105f19190613274565b60405180910390f35b610614600480360381019061060f9190613517565b61156f565b005b61061e611598565b60405161062b91906134fc565b60405180910390f35b61064e60048036038101906106499190613969565b61159e565b60405161065b91906131c0565b60405180910390f35b61067e600480360381019061067991906139d5565b611632565b005b600061068b82611735565b9050919050565b6060600080546106a190613a44565b80601f01602080910402602001604051908101604052809291908181526020018280546106cd90613a44565b801561071a5780601f106106ef5761010080835404028352916020019161071a565b820191906000526020600020905b8154815290600101906020018083116106fd57829003601f168201915b5050505050905090565b600061072f826117af565b61076e576040517f08c379a000000000000000000000000000000000000000000000000000000000815260040161076590613ae7565b60405180910390fd5b6004600083815260200190815260200160002060009054906101000a900473ffffffffffffffffffffffffffffffffffffffff169050919050565b60006107b4826110bb565b90508073ffffffffffffffffffffffffffffffffffffffff168373ffffffffffffffffffffffffffffffffffffffff1603610824576040517f08c379a000000000000000000000000000000000000000000000000000000000815260040161081b90613b79565b60405180910390fd5b8073ffffffffffffffffffffffffffffffffffffffff1661084361181b565b73ffffffffffffffffffffffffffffffffffffffff16148061087257506108718161086c61181b565b61159e565b5b6108b1576040517f08c379a00000000000000000000000000000000000000000000000000000000081526004016108a890613c0b565b60405180910390fd5b6108bb8383611823565b505050565b603460009054906101000a900467ffffffffffffffff1681565b6108e2610b29565b610921576040517f08c379a000000000000000000000000000000000000000000000000000000000815260040161091890613c77565b60405180910390fd5b600061092b61181b565b90506001600b60008373ffffffffffffffffffffffffffffffffffffffff1673ffffffffffffffffffffffffffffffffffffffff16815260200190815260200160002060008282829054906101000a900460ff166109899190613cd3565b92506101000a81548160ff021916908360ff160217905550600261ffff16600b60008373ffffffffffffffffffffffffffffffffffffffff1673ffffffffffffffffffffffffffffffffffffffff16815260200190815260200160002060009054906101000a900460ff1660ff161115610a38576040517f08c379a0000000000000000000000000000000000000000000000000000000008152600401610a2f90613d56565b60405180910390fd5b6001603360068282829054906101000a900461ffff16610a589190613d76565b92506101000a81548161ffff021916908361ffff16021790555061022b61ffff166001603360069054906101000a900461ffff16610a969190613d76565b61ffff161115610adb576040517f08c379a0000000000000000000000000000000000000000000000000000000008152600401610ad290613dfa565b60405180910390fd5b610af3610ae661181b565b610aee6118dc565b611b9e565b50565b6000603360069054906101000a900461ffff16603360049054906101000a900461ffff16610b249190613d76565b905090565b6000603360189054906101000a900467ffffffffffffffff1667ffffffffffffffff1642118015610b795750603460009054906101000a900467ffffffffffffffff1667ffffffffffffffff1642105b905090565b610b8f610b8961181b565b82611bbc565b610bce576040517f08c379a0000000000000000000000000000000000000000000000000000000008152600401610bc590613e8c565b60405180910390fd5b610bd9838383611c9a565b505050565b600060066000838152602001908152602001600020600101549050919050565b610c0782610bde565b610c1881610c1361181b565b611ef5565b610c228383611f92565b505050565b6000610c3161181b565b9050610c406000801b82611229565b80610c535750610c5260075482611229565b5b610c92576040517f08c379a0000000000000000000000000000000000000000000000000000000008152600401610c8990613ef8565b60405180910390fd5b81600d9080519060200190610ca8929190613069565b505050565b610cb561181b565b73ffffffffffffffffffffffffffffffffffffffff168173ffffffffffffffffffffffffffffffffffffffff1614610d22576040517f08c379a0000000000000000000000000000000000000000000000000000000008152600401610d1990613f8a565b60405180910390fd5b610d2c8282612073565b5050565b6000610d3a61181b565b9050610d446113d9565b610d83576040517f08c379a0000000000000000000000000000000000000000000000000000000008152600401610d7a90613ff6565b60405180910390fd5b610d8e838383612155565b610dcd576040517f08c379a0000000000000000000000000000000000000000000000000000000008152600401610dc490614062565b60405180910390fd5b6001600a60008373ffffffffffffffffffffffffffffffffffffffff1673ffffffffffffffffffffffffffffffffffffffff16815260200190815260200160002060006101000a81548160ff021916908315150217905550600a60008273ffffffffffffffffffffffffffffffffffffffff1673ffffffffffffffffffffffffffffffffffffffff16815260200190815260200160002060009054906101000a900460ff16610eb1576040517f08c379a0000000000000000000000000000000000000000000000000000000008152600401610ea8906140ce565b60405180910390fd5b6001603360068282829054906101000a900461ffff16610ed19190613d76565b92506101000a81548161ffff021916908361ffff16021790555061022b61ffff166001603360069054906101000a900461ffff16610f0f9190613d76565b61ffff161115610f54576040517f08c379a0000000000000000000000000000000000000000000000000000000008152600401610f4b90613dfa565b60405180910390fd5b610f6581610f606118dc565b611b9e565b505050565b610f8583838360405180602001604052806000815250611377565b505050565b600e60009054906101000a900460ff1681565b6000610fa761181b565b9050610fb66000801b82611229565b80610fc95750610fc860075482611229565b5b611008576040517f08c379a0000000000000000000000000000000000000000000000000000000008152600401610fff90613ef8565b60405180910390fd5b81600c908051906020019061101e929190613069565b505050565b600061102d61181b565b905061103c6000801b82611229565b8061104f575061104e60075482611229565b5b61108e576040517f08c379a000000000000000000000000000000000000000000000000000000000815260040161108590613ef8565b60405180910390fd5b600e60009054906101000a900460ff1615600e60006101000a81548160ff02191690831515021790555050565b6000806002600084815260200190815260200160002060009054906101000a900473ffffffffffffffffffffffffffffffffffffffff169050600073ffffffffffffffffffffffffffffffffffffffff168173ffffffffffffffffffffffffffffffffffffffff1603611163576040517f08c379a000000000000000000000000000000000000000000000000000000000815260040161115a90614160565b60405180910390fd5b80915050919050565b60008073ffffffffffffffffffffffffffffffffffffffff168273ffffffffffffffffffffffffffffffffffffffff16036111dc576040517f08c379a00000000000000000000000000000000000000000000000000000000081526004016111d3906141f2565b60405180910390fd5b600360008373ffffffffffffffffffffffffffffffffffffffff1673ffffffffffffffffffffffffffffffffffffffff168152602001908152602001600020549050919050565b60075481565b60006006600084815260200190815260200160002060000160008373ffffffffffffffffffffffffffffffffffffffff1673ffffffffffffffffffffffffffffffffffffffff16815260200190815260200160002060009054906101000a900460ff16905092915050565b6060600180546112a390613a44565b80601f01602080910402602001604051908101604052809291908181526020018280546112cf90613a44565b801561131c5780601f106112f15761010080835404028352916020019161131c565b820191906000526020600020905b8154815290600101906020018083116112ff57829003601f168201915b5050505050905090565b603360089054906101000a900467ffffffffffffffff1681565b6000801b81565b61135961135261181b565b83836121db565b5050565b603360189054906101000a900467ffffffffffffffff1681565b61138861138261181b565b83611bbc565b6113c7576040517f08c379a00000000000000000000000000000000000000000000000000000000081526004016113be90613e8c565b60405180910390fd5b6113d384848484612347565b50505050565b6000603360089054906101000a900467ffffffffffffffff1667ffffffffffffffff16421180156114295750603360109054906101000a900467ffffffffffffffff1667ffffffffffffffff1642105b905090565b603360109054906101000a900467ffffffffffffffff1681565b6060611453826117af565b611492576040517f08c379a00000000000000000000000000000000000000000000000000000000081526004016114899061425e565b60405180910390fd5b600e60009054906101000a900460ff1661153657600d80546114b390613a44565b80601f01602080910402602001604051908101604052809291908181526020018280546114df90613a44565b801561152c5780601f106115015761010080835404028352916020019161152c565b820191906000526020600020905b81548152906001019060200180831161150f57829003601f168201915b5050505050611568565b61153e6123a3565b61154783612435565b604051602001611558929190614306565b6040516020818303038152906040525b9050919050565b61157882610bde565b6115898161158461181b565b611ef5565b6115938383612073565b505050565b60085481565b6000600560008473ffffffffffffffffffffffffffffffffffffffff1673ffffffffffffffffffffffffffffffffffffffff16815260200190815260200160002060008373ffffffffffffffffffffffffffffffffffffffff1673ffffffffffffffffffffffffffffffffffffffff16815260200190815260200160002060009054906101000a900460ff16905092915050565b600061163c61181b565b905061164b6000801b82611229565b8061165e575061165d60075482611229565b5b61169d576040517f08c379a000000000000000000000000000000000000000000000000000000000815260040161169490613ef8565b60405180910390fd5b603761ffff16603360049054906101000a900461ffff1661ffff16106116f8576040517f08c379a00000000000000000000000000000000000000000000000000000000081526004016116ef90614381565b60405180910390fd5b60005b8261ffff168161ffff16101561172f5761171c84611717612595565b611b9e565b8080611727906143a1565b9150506116fb565b50505050565b60007f7965db0b000000000000000000000000000000000000000000000000000000007bffffffffffffffffffffffffffffffffffffffffffffffffffffffff1916827bffffffffffffffffffffffffffffffffffffffffffffffffffffffff191614806117a857506117a782612850565b5b9050919050565b60008073ffffffffffffffffffffffffffffffffffffffff166002600084815260200190815260200160002060009054906101000a900473ffffffffffffffffffffffffffffffffffffffff1673ffffffffffffffffffffffffffffffffffffffff1614159050919050565b600033905090565b816004600083815260200190815260200160002060006101000a81548173ffffffffffffffffffffffffffffffffffffffff021916908373ffffffffffffffffffffffffffffffffffffffff160217905550808273ffffffffffffffffffffffffffffffffffffffff16611896836110bb565b73ffffffffffffffffffffffffffffffffffffffff167f8c5be1e5ebec7d5bd14f71427d1e84f3dd0314c0f7b2291e5b200ac8c7c3b92560405160405180910390a45050565b6000806033600081819054906101000a900461ffff16809291906118ff906143a1565b91906101000a81548161ffff021916908361ffff160217905550334260014361192891906143cb565b4060405160200161193c94939291906144bf565b6040516020818303038152906040528051906020012060001c905060006033600081819054906101000a900461ffff1680929190611979906143a1565b91906101000a81548161ffff021916908361ffff16021790555061ffff166101f46119a491906143cb565b9050600081116119e9576040517f08c379a00000000000000000000000000000000000000000000000000000000081526004016119e090614559565b60405180910390fd5b600081836119f791906145a8565b90506000600f826101f48110611a1057611a0f6145d9565b5b601091828204019190066002029054906101000a900461ffff1661ffff1603611a395780611a6d565b600f816101f48110611a4e57611a4d6145d9565b5b601091828204019190066002029054906101000a900461ffff1661ffff165b9350603884611a7c9190614608565b93506000600f600184611a8f91906143cb565b6101f48110611aa157611aa06145d9565b5b601091828204019190066002029054906101000a900461ffff1661ffff1614611b0857600f600183611ad391906143cb565b6101f48110611ae557611ae46145d9565b5b601091828204019190066002029054906101000a900461ffff1661ffff16611b16565b600182611b1591906143cb565b5b600f826101f48110611b2b57611b2a6145d9565b5b601091828204019190066002026101000a81548161ffff021916908361ffff1602179055506000600f600184611b6191906143cb565b6101f48110611b7357611b726145d9565b5b601091828204019190066002026101000a81548161ffff021916908361ffff16021790555050505090565b611bb8828260405180602001604052806000815250612932565b5050565b6000611bc7826117af565b611c06576040517f08c379a0000000000000000000000000000000000000000000000000000000008152600401611bfd906146d0565b60405180910390fd5b6000611c11836110bb565b90508073ffffffffffffffffffffffffffffffffffffffff168473ffffffffffffffffffffffffffffffffffffffff161480611c8057508373ffffffffffffffffffffffffffffffffffffffff16611c6884610724565b73ffffffffffffffffffffffffffffffffffffffff16145b80611c915750611c90818561159e565b5b91505092915050565b8273ffffffffffffffffffffffffffffffffffffffff16611cba826110bb565b73ffffffffffffffffffffffffffffffffffffffff1614611d10576040517f08c379a0000000000000000000000000000000000000000000000000000000008152600401611d0790614762565b60405180910390fd5b600073ffffffffffffffffffffffffffffffffffffffff168273ffffffffffffffffffffffffffffffffffffffff1603611d7f576040517f08c379a0000000000000000000000000000000000000000000000000000000008152600401611d76906147f4565b60405180910390fd5b611d8a83838361298d565b611d95600082611823565b6001600360008573ffffffffffffffffffffffffffffffffffffffff1673ffffffffffffffffffffffffffffffffffffffff1681526020019081526020016000206000828254611de591906143cb565b925050819055506001600360008473ffffffffffffffffffffffffffffffffffffffff1673ffffffffffffffffffffffffffffffffffffffff1681526020019081526020016000206000828254611e3c9190614608565b92505081905550816002600083815260200190815260200160002060006101000a81548173ffffffffffffffffffffffffffffffffffffffff021916908373ffffffffffffffffffffffffffffffffffffffff160217905550808273ffffffffffffffffffffffffffffffffffffffff168473ffffffffffffffffffffffffffffffffffffffff167fddf252ad1be2c89b69c2b068fc378daa952ba7f163c4a11628f55a4df523b3ef60405160405180910390a4505050565b611eff8282611229565b611f8e57611f248173ffffffffffffffffffffffffffffffffffffffff166014612992565b611f328360001c6020612992565b604051602001611f439291906148ac565b6040516020818303038152906040526040517f08c379a0000000000000000000000000000000000000000000000000000000008152600401611f859190613274565b60405180910390fd5b5050565b611f9c8282611229565b61206f5760016006600084815260200190815260200160002060000160008373ffffffffffffffffffffffffffffffffffffffff1673ffffffffffffffffffffffffffffffffffffffff16815260200190815260200160002060006101000a81548160ff02191690831515021790555061201461181b565b73ffffffffffffffffffffffffffffffffffffffff168173ffffffffffffffffffffffffffffffffffffffff16837f2f8788117e7eff1d82e926ec794901d17c78024a50270940304540a733656f0d60405160405180910390a45b5050565b61207d8282611229565b156121515760006006600084815260200190815260200160002060000160008373ffffffffffffffffffffffffffffffffffffffff1673ffffffffffffffffffffffffffffffffffffffff16815260200190815260200160002060006101000a81548160ff0219169083151502179055506120f661181b565b73ffffffffffffffffffffffffffffffffffffffff168173ffffffffffffffffffffffffffffffffffffffff16837ff6391f5c32d9c69d2a47ea670b442974b53935d1edc7fd64eb21e047a839171b60405160405180910390a45b5050565b6000600115156121cf858580806020026020016040519081016040528093929190818152602001838360200280828437600081840152601f19601f82011690508083019250505050505050600954856040516020016121b491906148e6565b60405160208183030381529060405280519060200120612bce565b15151490509392505050565b8173ffffffffffffffffffffffffffffffffffffffff168373ffffffffffffffffffffffffffffffffffffffff1603612249576040517f08c379a00000000000000000000000000000000000000000000000000000000081526004016122409061494d565b60405180910390fd5b80600560008573ffffffffffffffffffffffffffffffffffffffff1673ffffffffffffffffffffffffffffffffffffffff16815260200190815260200160002060008473ffffffffffffffffffffffffffffffffffffffff1673ffffffffffffffffffffffffffffffffffffffff16815260200190815260200160002060006101000a81548160ff0219169083151502179055508173ffffffffffffffffffffffffffffffffffffffff168373ffffffffffffffffffffffffffffffffffffffff167f17307eab39ab6107e8899845ad3d59bd9653f200f220920489ca2b5937696c318360405161233a91906131c0565b60405180910390a3505050565b612352848484611c9a565b61235e84848484612be5565b61239d576040517f08c379a0000000000000000000000000000000000000000000000000000000008152600401612394906149df565b60405180910390fd5b50505050565b6060600c80546123b290613a44565b80601f01602080910402602001604051908101604052809291908181526020018280546123de90613a44565b801561242b5780601f106124005761010080835404028352916020019161242b565b820191906000526020600020905b81548152906001019060200180831161240e57829003601f168201915b5050505050905090565b60606000820361247c576040518060400160405280600181526020017f30000000000000000000000000000000000000000000000000000000000000008152509050612590565b600082905060005b600082146124ae578080612497906149ff565b915050600a826124a79190614a47565b9150612484565b60008167ffffffffffffffff8111156124ca576124c9613561565b5b6040519080825280601f01601f1916602001820160405280156124fc5781602001600182028036833780820191505090505b5090505b600085146125895760018261251591906143cb565b9150600a8561252491906145a8565b60306125309190614608565b60f81b818381518110612546576125456145d9565b5b60200101907effffffffffffffffffffffffffffffffffffffffffffffffffffffffffffff1916908160001a905350600a856125829190614a47565b9450612500565b8093505050505b919050565b6000806033600281819054906101000a900461ffff16809291906125b8906143a1565b91906101000a81548161ffff021916908361ffff16021790555033426001436125e191906143cb565b406040516020016125f594939291906144bf565b6040516020818303038152906040528051906020012060001c905060006033600281819054906101000a900461ffff1680929190612632906143a1565b91906101000a81548161ffff021916908361ffff16021790555061ffff16603761265c91906143cb565b9050600081116126a1576040517f08c379a000000000000000000000000000000000000000000000000000000000815260040161269890614ac4565b60405180910390fd5b600081836126af91906145a8565b90506000602f82603781106126c7576126c66145d9565b5b601091828204019190066002029054906101000a900461ffff1661ffff16036126f05780612723565b602f8160378110612704576127036145d9565b5b601091828204019190066002029054906101000a900461ffff1661ffff165b93506001846127329190614608565b93506000602f60018461274591906143cb565b60378110612756576127556145d9565b5b601091828204019190066002029054906101000a900461ffff1661ffff16146127bc57602f60018361278891906143cb565b60378110612799576127986145d9565b5b601091828204019190066002029054906101000a900461ffff1661ffff166127ca565b6001826127c991906143cb565b5b602f82603781106127de576127dd6145d9565b5b601091828204019190066002026101000a81548161ffff021916908361ffff1602179055506000602f60018461281491906143cb565b60378110612825576128246145d9565b5b601091828204019190066002026101000a81548161ffff021916908361ffff16021790555050505090565b60007f80ac58cd000000000000000000000000000000000000000000000000000000007bffffffffffffffffffffffffffffffffffffffffffffffffffffffff1916827bffffffffffffffffffffffffffffffffffffffffffffffffffffffff1916148061291b57507f5b5e139f000000000000000000000000000000000000000000000000000000007bffffffffffffffffffffffffffffffffffffffffffffffffffffffff1916827bffffffffffffffffffffffffffffffffffffffffffffffffffffffff1916145b8061292b575061292a82612d6c565b5b9050919050565b61293c8383612dd6565b6129496000848484612be5565b612988576040517f08c379a000000000000000000000000000000000000000000000000000000000815260040161297f906149df565b60405180910390fd5b505050565b505050565b6060600060028360026129a59190614ae4565b6129af9190614608565b67ffffffffffffffff8111156129c8576129c7613561565b5b6040519080825280601f01601f1916602001820160405280156129fa5781602001600182028036833780820191505090505b5090507f300000000000000000000000000000000000000000000000000000000000000081600081518110612a3257612a316145d9565b5b60200101907effffffffffffffffffffffffffffffffffffffffffffffffffffffffffffff1916908160001a9053507f780000000000000000000000000000000000000000000000000000000000000081600181518110612a9657612a956145d9565b5b60200101907effffffffffffffffffffffffffffffffffffffffffffffffffffffffffffff1916908160001a90535060006001846002612ad69190614ae4565b612ae09190614608565b90505b6001811115612b80577f3031323334353637383961626364656600000000000000000000000000000000600f861660108110612b2257612b216145d9565b5b1a60f81b828281518110612b3957612b386145d9565b5b60200101907effffffffffffffffffffffffffffffffffffffffffffffffffffffffffffff1916908160001a905350600485901c945080612b7990614b3e565b9050612ae3565b5060008414612bc4576040517f08c379a0000000000000000000000000000000000000000000000000000000008152600401612bbb90614bb3565b60405180910390fd5b8091505092915050565b600082612bdb8584612fa3565b1490509392505050565b6000612c068473ffffffffffffffffffffffffffffffffffffffff16613056565b15612d5f578373ffffffffffffffffffffffffffffffffffffffff1663150b7a02612c2f61181b565b8786866040518563ffffffff1660e01b8152600401612c519493929190614c28565b6020604051808303816000875af1925050508015612c8d57506040513d601f19601f82011682018060405250810190612c8a9190614c89565b60015b612d0f573d8060008114612cbd576040519150601f19603f3d011682016040523d82523d6000602084013e612cc2565b606091505b506000815103612d07576040517f08c379a0000000000000000000000000000000000000000000000000000000008152600401612cfe906149df565b60405180910390fd5b805181602001fd5b63150b7a0260e01b7bffffffffffffffffffffffffffffffffffffffffffffffffffffffff1916817bffffffffffffffffffffffffffffffffffffffffffffffffffffffff191614915050612d64565b600190505b949350505050565b60007f01ffc9a7000000000000000000000000000000000000000000000000000000007bffffffffffffffffffffffffffffffffffffffffffffffffffffffff1916827bffffffffffffffffffffffffffffffffffffffffffffffffffffffff1916149050919050565b600073ffffffffffffffffffffffffffffffffffffffff168273ffffffffffffffffffffffffffffffffffffffff1603612e45576040517f08c379a0000000000000000000000000000000000000000000000000000000008152600401612e3c90614d02565b60405180910390fd5b612e4e816117af565b15612e8e576040517f08c379a0000000000000000000000000000000000000000000000000000000008152600401612e8590614d6e565b60405180910390fd5b612e9a6000838361298d565b6001600360008473ffffffffffffffffffffffffffffffffffffffff1673ffffffffffffffffffffffffffffffffffffffff1681526020019081526020016000206000828254612eea9190614608565b92505081905550816002600083815260200190815260200160002060006101000a81548173ffffffffffffffffffffffffffffffffffffffff021916908373ffffffffffffffffffffffffffffffffffffffff160217905550808273ffffffffffffffffffffffffffffffffffffffff16600073ffffffffffffffffffffffffffffffffffffffff167fddf252ad1be2c89b69c2b068fc378daa952ba7f163c4a11628f55a4df523b3ef60405160405180910390a45050565b60008082905060005b845181101561304b576000858281518110612fca57612fc96145d9565b5b6020026020010151905080831161300b578281604051602001612fee929190614d8e565b604051602081830303815290604052805190602001209250613037565b808360405160200161301e929190614d8e565b6040516020818303038152906040528051906020012092505b508080613043906149ff565b915050612fac565b508091505092915050565b600080823b905060008111915050919050565b82805461307590613a44565b90600052602060002090601f01602090048101928261309757600085556130de565b82601f106130b057805160ff19168380011785556130de565b828001600101855582156130de579182015b828111156130dd5782518255916020019190600101906130c2565b5b5090506130eb91906130ef565b5090565b5b808211156131085760008160009055506001016130f0565b5090565b6000604051905090565b600080fd5b600080fd5b60007fffffffff0000000000000000000000000000000000000000000000000000000082169050919050565b61315581613120565b811461316057600080fd5b50565b6000813590506131728161314c565b92915050565b60006020828403121561318e5761318d613116565b5b600061319c84828501613163565b91505092915050565b60008115159050919050565b6131ba816131a5565b82525050565b60006020820190506131d560008301846131b1565b92915050565b600081519050919050565b600082825260208201905092915050565b60005b838110156132155780820151818401526020810190506131fa565b83811115613224576000848401525b50505050565b6000601f19601f8301169050919050565b6000613246826131db565b61325081856131e6565b93506132608185602086016131f7565b6132698161322a565b840191505092915050565b6000602082019050818103600083015261328e818461323b565b905092915050565b6000819050919050565b6132a981613296565b81146132b457600080fd5b50565b6000813590506132c6816132a0565b92915050565b6000602082840312156132e2576132e1613116565b5b60006132f0848285016132b7565b91505092915050565b600073ffffffffffffffffffffffffffffffffffffffff82169050919050565b6000613324826132f9565b9050919050565b61333481613319565b82525050565b600060208201905061334f600083018461332b565b92915050565b61335e81613319565b811461336957600080fd5b50565b60008135905061337b81613355565b92915050565b6000806040838503121561339857613397613116565b5b60006133a68582860161336c565b92505060206133b7858286016132b7565b9150509250929050565b600067ffffffffffffffff82169050919050565b6133de816133c1565b82525050565b60006020820190506133f960008301846133d5565b92915050565b600061ffff82169050919050565b613416816133ff565b82525050565b6000602082019050613431600083018461340d565b92915050565b6000806000606084860312156134505761344f613116565b5b600061345e8682870161336c565b935050602061346f8682870161336c565b9250506040613480868287016132b7565b9150509250925092565b6000819050919050565b61349d8161348a565b81146134a857600080fd5b50565b6000813590506134ba81613494565b92915050565b6000602082840312156134d6576134d5613116565b5b60006134e4848285016134ab565b91505092915050565b6134f68161348a565b82525050565b600060208201905061351160008301846134ed565b92915050565b6000806040838503121561352e5761352d613116565b5b600061353c858286016134ab565b925050602061354d8582860161336c565b9150509250929050565b600080fd5b600080fd5b7f4e487b7100000000000000000000000000000000000000000000000000000000600052604160045260246000fd5b6135998261322a565b810181811067ffffffffffffffff821117156135b8576135b7613561565b5b80604052505050565b60006135cb61310c565b90506135d78282613590565b919050565b600067ffffffffffffffff8211156135f7576135f6613561565b5b6136008261322a565b9050602081019050919050565b82818337600083830152505050565b600061362f61362a846135dc565b6135c1565b90508281526020810184848401111561364b5761364a61355c565b5b61365684828561360d565b509392505050565b600082601f83011261367357613672613557565b5b813561368384826020860161361c565b91505092915050565b6000602082840312156136a2576136a1613116565b5b600082013567ffffffffffffffff8111156136c0576136bf61311b565b5b6136cc8482850161365e565b91505092915050565b600080fd5b600080fd5b60008083601f8401126136f5576136f4613557565b5b8235905067ffffffffffffffff811115613712576137116136d5565b5b60208301915083602082028301111561372e5761372d6136da565b5b9250929050565b6000806020838503121561374c5761374b613116565b5b600083013567ffffffffffffffff81111561376a5761376961311b565b5b613776858286016136df565b92509250509250929050565b60006020828403121561379857613797613116565b5b60006137a68482850161336c565b91505092915050565b6137b881613296565b82525050565b60006020820190506137d360008301846137af565b92915050565b6137e2816131a5565b81146137ed57600080fd5b50565b6000813590506137ff816137d9565b92915050565b6000806040838503121561381c5761381b613116565b5b600061382a8582860161336c565b925050602061383b858286016137f0565b9150509250929050565b600067ffffffffffffffff8211156138605761385f613561565b5b6138698261322a565b9050602081019050919050565b600061388961388484613845565b6135c1565b9050828152602081018484840111156138a5576138a461355c565b5b6138b084828561360d565b509392505050565b600082601f8301126138cd576138cc613557565b5b81356138dd848260208601613876565b91505092915050565b60008060008060808587031215613900576138ff613116565b5b600061390e8782880161336c565b945050602061391f8782880161336c565b9350506040613930878288016132b7565b925050606085013567ffffffffffffffff8111156139515761395061311b565b5b61395d878288016138b8565b91505092959194509250565b600080604083850312156139805761397f613116565b5b600061398e8582860161336c565b925050602061399f8582860161336c565b9150509250929050565b6139b2816133ff565b81146139bd57600080fd5b50565b6000813590506139cf816139a9565b92915050565b600080604083850312156139ec576139eb613116565b5b60006139fa8582860161336c565b9250506020613a0b858286016139c0565b9150509250929050565b7f4e487b7100000000000000000000000000000000000000000000000000000000600052602260045260246000fd5b60006002820490506001821680613a5c57607f821691505b602082108103613a6f57613a6e613a15565b5b50919050565b7f4552433732313a20617070726f76656420717565727920666f72206e6f6e657860008201527f697374656e7420746f6b656e0000000000000000000000000000000000000000602082015250565b6000613ad1602c836131e6565b9150613adc82613a75565b604082019050919050565b60006020820190508181036000830152613b0081613ac4565b9050919050565b7f4552433732313a20617070726f76616c20746f2063757272656e74206f776e6560008201527f7200000000000000000000000000000000000000000000000000000000000000602082015250565b6000613b636021836131e6565b9150613b6e82613b07565b604082019050919050565b60006020820190508181036000830152613b9281613b56565b9050919050565b7f4552433732313a20617070726f76652063616c6c6572206973206e6f74206f7760008201527f6e6572206e6f7220617070726f76656420666f7220616c6c0000000000000000602082015250565b6000613bf56038836131e6565b9150613c0082613b99565b604082019050919050565b60006020820190508181036000830152613c2481613be8565b9050919050565b7f5055424c49435f53414c455f494e414354495645000000000000000000000000600082015250565b6000613c616014836131e6565b9150613c6c82613c2b565b602082019050919050565b60006020820190508181036000830152613c9081613c54565b9050919050565b600060ff82169050919050565b7f4e487b7100000000000000000000000000000000000000000000000000000000600052601160045260246000fd5b6000613cde82613c97565b9150613ce983613c97565b92508260ff03821115613cff57613cfe613ca4565b5b828201905092915050565b7f5055424c49435f544f4b454e5f4c494d49540000000000000000000000000000600082015250565b6000613d406012836131e6565b9150613d4b82613d0a565b602082019050919050565b60006020820190508181036000830152613d6f81613d33565b9050919050565b6000613d81826133ff565b9150613d8c836133ff565b92508261ffff03821115613da357613da2613ca4565b5b828201905092915050565b7f455843454544535f434f4c4c454354494f4e5f53495a45000000000000000000600082015250565b6000613de46017836131e6565b9150613def82613dae565b602082019050919050565b60006020820190508181036000830152613e1381613dd7565b9050919050565b7f4552433732313a207472616e736665722063616c6c6572206973206e6f74206f60008201527f776e6572206e6f7220617070726f766564000000000000000000000000000000602082015250565b6000613e766031836131e6565b9150613e8182613e1a565b604082019050919050565b60006020820190508181036000830152613ea581613e69565b9050919050565b7f4d75737420626520616e2061646d696e00000000000000000000000000000000600082015250565b6000613ee26010836131e6565b9150613eed82613eac565b602082019050919050565b60006020820190508181036000830152613f1181613ed5565b9050919050565b7f416363657373436f6e74726f6c3a2063616e206f6e6c792072656e6f756e636560008201527f20726f6c657320666f722073656c660000000000000000000000000000000000602082015250565b6000613f74602f836131e6565b9150613f7f82613f18565b604082019050919050565b60006020820190508181036000830152613fa381613f67565b9050919050565b7f50524553414c455f494e41435449564500000000000000000000000000000000600082015250565b6000613fe06010836131e6565b9150613feb82613faa565b602082019050919050565b6000602082019050818103600083015261400f81613fd3565b9050919050565b7f50524553414c455f4e4f545f5645524946494544000000000000000000000000600082015250565b600061404c6014836131e6565b915061405782614016565b602082019050919050565b6000602082019050818103600083015261407b8161403f565b9050919050565b7f57484954454c4953545f544f4b454e5f434c41494d4544000000000000000000600082015250565b60006140b86017836131e6565b91506140c382614082565b602082019050919050565b600060208201905081810360008301526140e7816140ab565b9050919050565b7f4552433732313a206f776e657220717565727920666f72206e6f6e657869737460008201527f656e7420746f6b656e0000000000000000000000000000000000000000000000602082015250565b600061414a6029836131e6565b9150614155826140ee565b604082019050919050565b600060208201905081810360008301526141798161413d565b9050919050565b7f4552433732313a2062616c616e636520717565727920666f7220746865207a6560008201527f726f206164647265737300000000000000000000000000000000000000000000602082015250565b60006141dc602a836131e6565b91506141e782614180565b604082019050919050565b6000602082019050818103600083015261420b816141cf565b9050919050565b7f494e56414c49445f494400000000000000000000000000000000000000000000600082015250565b6000614248600a836131e6565b915061425382614212565b602082019050919050565b600060208201905081810360008301526142778161423b565b9050919050565b600081905092915050565b6000614294826131db565b61429e818561427e565b93506142ae8185602086016131f7565b80840191505092915050565b7f2e6a736f6e000000000000000000000000000000000000000000000000000000600082015250565b60006142f060058361427e565b91506142fb826142ba565b600582019050919050565b60006143128285614289565b915061431e8284614289565b9150614329826142e3565b91508190509392505050565b7f41697264726f70206c696d697420726561636865640000000000000000000000600082015250565b600061436b6015836131e6565b915061437682614335565b602082019050919050565b6000602082019050818103600083015261439a8161435e565b9050919050565b60006143ac826133ff565b915061ffff82036143c0576143bf613ca4565b5b600182019050919050565b60006143d682613296565b91506143e183613296565b9250828210156143f4576143f3613ca4565b5b828203905092915050565b60008160f01b9050919050565b6000614417826143ff565b9050919050565b61442f61442a826133ff565b61440c565b82525050565b60008160601b9050919050565b600061444d82614435565b9050919050565b600061445f82614442565b9050919050565b61447761447282613319565b614454565b82525050565b6000819050919050565b61449861449382613296565b61447d565b82525050565b6000819050919050565b6144b96144b48261348a565b61449e565b82525050565b60006144cb828761441e565b6002820191506144db8286614466565b6014820191506144eb8285614487565b6020820191506144fb82846144a8565b60208201915081905095945050505050565b7f6e6f205f636f6d6d756e697479496473206c6566740000000000000000000000600082015250565b60006145436015836131e6565b915061454e8261450d565b602082019050919050565b6000602082019050818103600083015261457281614536565b9050919050565b7f4e487b7100000000000000000000000000000000000000000000000000000000600052601260045260246000fd5b60006145b382613296565b91506145be83613296565b9250826145ce576145cd614579565b5b828206905092915050565b7f4e487b7100000000000000000000000000000000000000000000000000000000600052603260045260246000fd5b600061461382613296565b915061461e83613296565b9250827fffffffffffffffffffffffffffffffffffffffffffffffffffffffffffffffff0382111561465357614652613ca4565b5b828201905092915050565b7f4552433732313a206f70657261746f7220717565727920666f72206e6f6e657860008201527f697374656e7420746f6b656e0000000000000000000000000000000000000000602082015250565b60006146ba602c836131e6565b91506146c58261465e565b604082019050919050565b600060208201905081810360008301526146e9816146ad565b9050919050565b7f4552433732313a207472616e73666572206f6620746f6b656e2074686174206960008201527f73206e6f74206f776e0000000000000000000000000000000000000000000000602082015250565b600061474c6029836131e6565b9150614757826146f0565b604082019050919050565b6000602082019050818103600083015261477b8161473f565b9050919050565b7f4552433732313a207472616e7366657220746f20746865207a65726f2061646460008201527f7265737300000000000000000000000000000000000000000000000000000000602082015250565b60006147de6024836131e6565b91506147e982614782565b604082019050919050565b6000602082019050818103600083015261480d816147d1565b9050919050565b7f416363657373436f6e74726f6c3a206163636f756e7420000000000000000000600082015250565b600061484a60178361427e565b915061485582614814565b601782019050919050565b7f206973206d697373696e6720726f6c6520000000000000000000000000000000600082015250565b600061489660118361427e565b91506148a182614860565b601182019050919050565b60006148b78261483d565b91506148c38285614289565b91506148ce82614889565b91506148da8284614289565b91508190509392505050565b60006148f28284614466565b60148201915081905092915050565b7f4552433732313a20617070726f766520746f2063616c6c657200000000000000600082015250565b60006149376019836131e6565b915061494282614901565b602082019050919050565b600060208201905081810360008301526149668161492a565b9050919050565b7f4552433732313a207472616e7366657220746f206e6f6e20455243373231526560008201527f63656976657220696d706c656d656e7465720000000000000000000000000000602082015250565b60006149c96032836131e6565b91506149d48261496d565b604082019050919050565b600060208201905081810360008301526149f8816149bc565b9050919050565b6000614a0a82613296565b91507fffffffffffffffffffffffffffffffffffffffffffffffffffffffffffffffff8203614a3c57614a3b613ca4565b5b600182019050919050565b6000614a5282613296565b9150614a5d83613296565b925082614a6d57614a6c614579565b5b828204905092915050565b7f6e6f205f7465616d496473206c65667400000000000000000000000000000000600082015250565b6000614aae6010836131e6565b9150614ab982614a78565b602082019050919050565b60006020820190508181036000830152614add81614aa1565b9050919050565b6000614aef82613296565b9150614afa83613296565b9250817fffffffffffffffffffffffffffffffffffffffffffffffffffffffffffffffff0483118215151615614b3357614b32613ca4565b5b828202905092915050565b6000614b4982613296565b915060008203614b5c57614b5b613ca4565b5b600182039050919050565b7f537472696e67733a20686578206c656e67746820696e73756666696369656e74600082015250565b6000614b9d6020836131e6565b9150614ba882614b67565b602082019050919050565b60006020820190508181036000830152614bcc81614b90565b9050919050565b600081519050919050565b600082825260208201905092915050565b6000614bfa82614bd3565b614c048185614bde565b9350614c148185602086016131f7565b614c1d8161322a565b840191505092915050565b6000608082019050614c3d600083018761332b565b614c4a602083018661332b565b614c5760408301856137af565b8181036060830152614c698184614bef565b905095945050505050565b600081519050614c838161314c565b92915050565b600060208284031215614c9f57614c9e613116565b5b6000614cad84828501614c74565b91505092915050565b7f4552433732313a206d696e7420746f20746865207a65726f2061646472657373600082015250565b6000614cec6020836131e6565b9150614cf782614cb6565b602082019050919050565b60006020820190508181036000830152614d1b81614cdf565b9050919050565b7f4552433732313a20746f6b656e20616c7265616479206d696e74656400000000600082015250565b6000614d58601c836131e6565b9150614d6382614d22565b602082019050919050565b60006020820190508181036000830152614d8781614d4b565b9050919050565b6000614d9a82856144a8565b602082019150614daa82846144a8565b602082019150819050939250505056fea2646970667358221220f4a42e07caef657ca88dbdf4cf6e8a95e05b967c78a78311b444dc63c0a0c0de64736f6c634300080d0033",
  "linkReferences": {},
  "deployedLinkReferences": {}
}