{
  "_format": "hh-sol-artifact-1",
  "contractName": "FifthDimension",
  "sourceName": "contracts/FifthDimension.sol",
  "abi": [
    {
      "inputs": [
        {
          "internalType": "uint64",
          "name": "_whitelistStart",
          "type": "uint64"
        },
        {
          "internalType": "uint64",
          "name": "_whitelistEnd",
          "type": "uint64"
        },
        {
          "internalType": "uint64",
          "name": "_publicStart",
          "type": "uint64"
        },
        {
          "internalType": "uint64",
          "name": "_publicEnd",
          "type": "uint64"
        },
        {
          "internalType": "bytes32",
          "name": "_whitelistMerkleRoot",
          "type": "bytes32"
        },
        {
          "internalType": "string",
          "name": "name",
          "type": "string"
        },
        {
          "internalType": "string",
          "name": "symbol",
          "type": "string"
        },
        {
          "internalType": "string",
          "name": "tempUri",
          "type": "string"
        }
      ],
      "stateMutability": "nonpayable",
      "type": "constructor"
    },
    {
      "inputs": [],
      "name": "ApprovalCallerNotOwnerNorApproved",
      "type": "error"
    },
    {
      "inputs": [],
      "name": "ApprovalQueryForNonexistentToken",
      "type": "error"
    },
    {
      "inputs": [],
      "name": "ApprovalToCurrentOwner",
      "type": "error"
    },
    {
      "inputs": [],
      "name": "ApproveToCaller",
      "type": "error"
    },
    {
      "inputs": [],
      "name": "BalanceQueryForZeroAddress",
      "type": "error"
    },
    {
      "inputs": [],
      "name": "MintToZeroAddress",
      "type": "error"
    },
    {
      "inputs": [],
      "name": "MintZeroQuantity",
      "type": "error"
    },
    {
      "inputs": [],
      "name": "OwnerQueryForNonexistentToken",
      "type": "error"
    },
    {
      "inputs": [],
      "name": "TransferCallerNotOwnerNorApproved",
      "type": "error"
    },
    {
      "inputs": [],
      "name": "TransferFromIncorrectOwner",
      "type": "error"
    },
    {
      "inputs": [],
      "name": "TransferToNonERC721ReceiverImplementer",
      "type": "error"
    },
    {
      "inputs": [],
      "name": "TransferToZeroAddress",
      "type": "error"
    },
    {
      "anonymous": false,
      "inputs": [
        {
          "indexed": true,
          "internalType": "address",
          "name": "owner",
          "type": "address"
        },
        {
          "indexed": true,
          "internalType": "address",
          "name": "approved",
          "type": "address"
        },
        {
          "indexed": true,
          "internalType": "uint256",
          "name": "tokenId",
          "type": "uint256"
        }
      ],
      "name": "Approval",
      "type": "event"
    },
    {
      "anonymous": false,
      "inputs": [
        {
          "indexed": true,
          "internalType": "address",
          "name": "owner",
          "type": "address"
        },
        {
          "indexed": true,
          "internalType": "address",
          "name": "operator",
          "type": "address"
        },
        {
          "indexed": false,
          "internalType": "bool",
          "name": "approved",
          "type": "bool"
        }
      ],
      "name": "ApprovalForAll",
      "type": "event"
    },
    {
      "anonymous": false,
      "inputs": [
        {
          "indexed": true,
          "internalType": "bytes32",
          "name": "role",
          "type": "bytes32"
        },
        {
          "indexed": true,
          "internalType": "bytes32",
          "name": "previousAdminRole",
          "type": "bytes32"
        },
        {
          "indexed": true,
          "internalType": "bytes32",
          "name": "newAdminRole",
          "type": "bytes32"
        }
      ],
      "name": "RoleAdminChanged",
      "type": "event"
    },
    {
      "anonymous": false,
      "inputs": [
        {
          "indexed": true,
          "internalType": "bytes32",
          "name": "role",
          "type": "bytes32"
        },
        {
          "indexed": true,
          "internalType": "address",
          "name": "account",
          "type": "address"
        },
        {
          "indexed": true,
          "internalType": "address",
          "name": "sender",
          "type": "address"
        }
      ],
      "name": "RoleGranted",
      "type": "event"
    },
    {
      "anonymous": false,
      "inputs": [
        {
          "indexed": true,
          "internalType": "bytes32",
          "name": "role",
          "type": "bytes32"
        },
        {
          "indexed": true,
          "internalType": "address",
          "name": "account",
          "type": "address"
        },
        {
          "indexed": true,
          "internalType": "address",
          "name": "sender",
          "type": "address"
        }
      ],
      "name": "RoleRevoked",
      "type": "event"
    },
    {
      "anonymous": false,
      "inputs": [
        {
          "indexed": true,
          "internalType": "address",
          "name": "from",
          "type": "address"
        },
        {
          "indexed": true,
          "internalType": "address",
          "name": "to",
          "type": "address"
        },
        {
          "indexed": true,
          "internalType": "uint256",
          "name": "tokenId",
          "type": "uint256"
        }
      ],
      "name": "Transfer",
      "type": "event"
    },
    {
      "inputs": [],
      "name": "ADMIN_ROLE",
      "outputs": [
        {
          "internalType": "bytes32",
          "name": "",
          "type": "bytes32"
        }
      ],
      "stateMutability": "view",
      "type": "function"
    },
    {
      "inputs": [],
      "name": "AIRDROP_LIMIT",
      "outputs": [
        {
          "internalType": "uint256",
          "name": "",
          "type": "uint256"
        }
      ],
      "stateMutability": "view",
      "type": "function"
    },
    {
      "inputs": [],
      "name": "DEFAULT_ADMIN_ROLE",
      "outputs": [
        {
          "internalType": "bytes32",
          "name": "",
          "type": "bytes32"
        }
      ],
      "stateMutability": "view",
      "type": "function"
    },
    {
      "inputs": [],
      "name": "MOD_ROLE",
      "outputs": [
        {
          "internalType": "bytes32",
          "name": "",
          "type": "bytes32"
        }
      ],
      "stateMutability": "view",
      "type": "function"
    },
    {
      "inputs": [
        {
          "internalType": "address",
          "name": "to",
          "type": "address"
        }
      ],
      "name": "airdrop",
      "outputs": [],
      "stateMutability": "nonpayable",
      "type": "function"
    },
    {
      "inputs": [
        {
          "internalType": "address",
          "name": "to",
          "type": "address"
        },
        {
          "internalType": "uint256",
          "name": "tokenId",
          "type": "uint256"
        }
      ],
      "name": "approve",
      "outputs": [],
      "stateMutability": "nonpayable",
      "type": "function"
    },
    {
      "inputs": [
        {
          "internalType": "address",
          "name": "owner",
          "type": "address"
        }
      ],
      "name": "balanceOf",
      "outputs": [
        {
          "internalType": "uint256",
          "name": "",
          "type": "uint256"
        }
      ],
      "stateMutability": "view",
      "type": "function"
    },
    {
      "inputs": [],
      "name": "finalizeLists",
      "outputs": [],
      "stateMutability": "nonpayable",
      "type": "function"
    },
    {
      "inputs": [],
      "name": "finalizeMetadata",
      "outputs": [],
      "stateMutability": "nonpayable",
      "type": "function"
    },
    {
      "inputs": [],
      "name": "finalizeTimes",
      "outputs": [],
      "stateMutability": "nonpayable",
      "type": "function"
    },
    {
      "inputs": [
        {
          "internalType": "uint256",
          "name": "tokenId",
          "type": "uint256"
        }
      ],
      "name": "getApproved",
      "outputs": [
        {
          "internalType": "address",
          "name": "",
          "type": "address"
        }
      ],
      "stateMutability": "view",
      "type": "function"
    },
    {
      "inputs": [
        {
          "internalType": "bytes32",
          "name": "role",
          "type": "bytes32"
        }
      ],
      "name": "getRoleAdmin",
      "outputs": [
        {
          "internalType": "bytes32",
          "name": "",
          "type": "bytes32"
        }
      ],
      "stateMutability": "view",
      "type": "function"
    },
    {
      "inputs": [
        {
          "internalType": "bytes32",
          "name": "role",
          "type": "bytes32"
        },
        {
          "internalType": "address",
          "name": "account",
          "type": "address"
        }
      ],
      "name": "grantRole",
      "outputs": [],
      "stateMutability": "nonpayable",
      "type": "function"
    },
    {
      "inputs": [
        {
          "internalType": "bytes32",
          "name": "role",
          "type": "bytes32"
        },
        {
          "internalType": "address",
          "name": "account",
          "type": "address"
        }
      ],
      "name": "hasRole",
      "outputs": [
        {
          "internalType": "bool",
          "name": "",
          "type": "bool"
        }
      ],
      "stateMutability": "view",
      "type": "function"
    },
    {
      "inputs": [
        {
          "internalType": "address",
          "name": "owner",
          "type": "address"
        },
        {
          "internalType": "address",
          "name": "operator",
          "type": "address"
        }
      ],
      "name": "isApprovedForAll",
      "outputs": [
        {
          "internalType": "bool",
          "name": "",
          "type": "bool"
        }
      ],
      "stateMutability": "view",
      "type": "function"
    },
    {
      "inputs": [],
      "name": "isPublicSaleActive",
      "outputs": [
        {
          "internalType": "bool",
          "name": "",
          "type": "bool"
        }
      ],
      "stateMutability": "view",
      "type": "function"
    },
    {
      "inputs": [],
      "name": "isWhitelistSaleActive",
      "outputs": [
        {
          "internalType": "bool",
          "name": "",
          "type": "bool"
        }
      ],
      "stateMutability": "view",
      "type": "function"
    },
    {
      "inputs": [],
      "name": "listsFinalized",
      "outputs": [
        {
          "internalType": "bool",
          "name": "",
          "type": "bool"
        }
      ],
      "stateMutability": "view",
      "type": "function"
    },
    {
      "inputs": [],
      "name": "metadataFinalized",
      "outputs": [
        {
          "internalType": "bool",
          "name": "",
          "type": "bool"
        }
      ],
      "stateMutability": "view",
      "type": "function"
    },
    {
      "inputs": [
        {
          "internalType": "uint256",
          "name": "quantity",
          "type": "uint256"
        }
      ],
      "name": "mint",
      "outputs": [],
      "stateMutability": "payable",
      "type": "function"
    },
    {
      "inputs": [],
      "name": "name",
      "outputs": [
        {
          "internalType": "string",
          "name": "",
          "type": "string"
        }
      ],
      "stateMutability": "view",
      "type": "function"
    },
    {
      "inputs": [
        {
          "internalType": "uint256",
          "name": "tokenId",
          "type": "uint256"
        }
      ],
      "name": "ownerOf",
      "outputs": [
        {
          "internalType": "address",
          "name": "",
          "type": "address"
        }
      ],
      "stateMutability": "view",
      "type": "function"
    },
    {
      "inputs": [],
      "name": "publicEnd",
      "outputs": [
        {
          "internalType": "uint64",
          "name": "",
          "type": "uint64"
        }
      ],
      "stateMutability": "view",
      "type": "function"
    },
    {
      "inputs": [],
      "name": "publicStart",
      "outputs": [
        {
          "internalType": "uint64",
          "name": "",
          "type": "uint64"
        }
      ],
      "stateMutability": "view",
      "type": "function"
    },
    {
      "inputs": [
        {
          "internalType": "bytes32",
          "name": "role",
          "type": "bytes32"
        },
        {
          "internalType": "address",
          "name": "account",
          "type": "address"
        }
      ],
      "name": "renounceRole",
      "outputs": [],
      "stateMutability": "nonpayable",
      "type": "function"
    },
    {
      "inputs": [],
      "name": "revealed",
      "outputs": [
        {
          "internalType": "bool",
          "name": "",
          "type": "bool"
        }
      ],
      "stateMutability": "view",
      "type": "function"
    },
    {
      "inputs": [
        {
          "internalType": "bytes32",
          "name": "role",
          "type": "bytes32"
        },
        {
          "internalType": "address",
          "name": "account",
          "type": "address"
        }
      ],
      "name": "revokeRole",
      "outputs": [],
      "stateMutability": "nonpayable",
      "type": "function"
    },
    {
      "inputs": [
        {
          "internalType": "address",
          "name": "from",
          "type": "address"
        },
        {
          "internalType": "address",
          "name": "to",
          "type": "address"
        },
        {
          "internalType": "uint256",
          "name": "tokenId",
          "type": "uint256"
        }
      ],
      "name": "safeTransferFrom",
      "outputs": [],
      "stateMutability": "nonpayable",
      "type": "function"
    },
    {
      "inputs": [
        {
          "internalType": "address",
          "name": "from",
          "type": "address"
        },
        {
          "internalType": "address",
          "name": "to",
          "type": "address"
        },
        {
          "internalType": "uint256",
          "name": "tokenId",
          "type": "uint256"
        },
        {
          "internalType": "bytes",
          "name": "_data",
          "type": "bytes"
        }
      ],
      "name": "safeTransferFrom",
      "outputs": [],
      "stateMutability": "nonpayable",
      "type": "function"
    },
    {
      "inputs": [],
      "name": "senderIsAdmin",
      "outputs": [
        {
          "internalType": "bool",
          "name": "",
          "type": "bool"
        }
      ],
      "stateMutability": "view",
      "type": "function"
    },
    {
      "inputs": [],
      "name": "senderIsMod",
      "outputs": [
        {
          "internalType": "bool",
          "name": "",
          "type": "bool"
        }
      ],
      "stateMutability": "view",
      "type": "function"
    },
    {
      "inputs": [
        {
          "internalType": "address",
          "name": "operator",
          "type": "address"
        },
        {
          "internalType": "bool",
          "name": "approved",
          "type": "bool"
        }
      ],
      "name": "setApprovalForAll",
      "outputs": [],
      "stateMutability": "nonpayable",
      "type": "function"
    },
    {
      "inputs": [
        {
          "internalType": "string",
          "name": "baseUri",
          "type": "string"
        }
      ],
      "name": "setBaseURI",
      "outputs": [],
      "stateMutability": "nonpayable",
      "type": "function"
    },
    {
      "inputs": [
        {
          "internalType": "string",
          "name": "tempUri",
          "type": "string"
        }
      ],
      "name": "setPlaceholderURI",
      "outputs": [],
      "stateMutability": "nonpayable",
      "type": "function"
    },
    {
      "inputs": [
        {
          "internalType": "uint64",
          "name": "_publicStartTime",
          "type": "uint64"
        },
        {
          "internalType": "uint64",
          "name": "_publicEndTime",
          "type": "uint64"
        }
      ],
      "name": "setPublicSaleTimes",
      "outputs": [],
      "stateMutability": "nonpayable",
      "type": "function"
    },
    {
      "inputs": [
        {
          "internalType": "bytes32",
          "name": "root",
          "type": "bytes32"
        }
      ],
      "name": "setWhitelistMerkleRoot",
      "outputs": [],
      "stateMutability": "nonpayable",
      "type": "function"
    },
    {
      "inputs": [
        {
          "internalType": "uint64",
          "name": "_whitelistStartTime",
          "type": "uint64"
        },
        {
          "internalType": "uint64",
          "name": "_whitelistEndTime",
          "type": "uint64"
        }
      ],
      "name": "setWhitelistTimes",
      "outputs": [],
      "stateMutability": "nonpayable",
      "type": "function"
    },
    {
      "inputs": [
        {
          "internalType": "bytes4",
          "name": "interfaceId",
          "type": "bytes4"
        }
      ],
      "name": "supportsInterface",
      "outputs": [
        {
          "internalType": "bool",
          "name": "",
          "type": "bool"
        }
      ],
      "stateMutability": "view",
      "type": "function"
    },
    {
      "inputs": [],
      "name": "symbol",
      "outputs": [
        {
          "internalType": "string",
          "name": "",
          "type": "string"
        }
      ],
      "stateMutability": "view",
      "type": "function"
    },
    {
      "inputs": [],
      "name": "timesFinalized",
      "outputs": [
        {
          "internalType": "bool",
          "name": "",
          "type": "bool"
        }
      ],
      "stateMutability": "view",
      "type": "function"
    },
    {
      "inputs": [],
      "name": "togglePublic",
      "outputs": [],
      "stateMutability": "nonpayable",
      "type": "function"
    },
    {
      "inputs": [],
      "name": "toggleReveal",
      "outputs": [],
      "stateMutability": "nonpayable",
      "type": "function"
    },
    {
      "inputs": [],
      "name": "toggleWhitelistSale",
      "outputs": [],
      "stateMutability": "nonpayable",
      "type": "function"
    },
    {
      "inputs": [
        {
          "internalType": "uint256",
          "name": "id",
          "type": "uint256"
        }
      ],
      "name": "tokenURI",
      "outputs": [
        {
          "internalType": "string",
          "name": "",
          "type": "string"
        }
      ],
      "stateMutability": "view",
      "type": "function"
    },
    {
      "inputs": [],
      "name": "totalSupply",
      "outputs": [
        {
          "internalType": "uint256",
          "name": "",
          "type": "uint256"
        }
      ],
      "stateMutability": "view",
      "type": "function"
    },
    {
      "inputs": [
        {
          "internalType": "address",
          "name": "from",
          "type": "address"
        },
        {
          "internalType": "address",
          "name": "to",
          "type": "address"
        },
        {
          "internalType": "uint256",
          "name": "tokenId",
          "type": "uint256"
        }
      ],
      "name": "transferFrom",
      "outputs": [],
      "stateMutability": "nonpayable",
      "type": "function"
    },
    {
      "inputs": [
        {
          "internalType": "bytes32[]",
          "name": "_merkleProof",
          "type": "bytes32[]"
        },
        {
          "internalType": "address",
          "name": "addr",
          "type": "address"
        }
      ],
      "name": "verifyWhitelist",
      "outputs": [
        {
          "internalType": "bool",
          "name": "",
          "type": "bool"
        }
      ],
      "stateMutability": "view",
      "type": "function"
    },
    {
      "inputs": [],
      "name": "whitelistEnd",
      "outputs": [
        {
          "internalType": "uint64",
          "name": "",
          "type": "uint64"
        }
      ],
      "stateMutability": "view",
      "type": "function"
    },
    {
      "inputs": [],
      "name": "whitelistMerkleRoot",
      "outputs": [
        {
          "internalType": "bytes32",
          "name": "",
          "type": "bytes32"
        }
      ],
      "stateMutability": "view",
      "type": "function"
    },
    {
      "inputs": [
        {
          "internalType": "bytes32[]",
          "name": "_merkleProof",
          "type": "bytes32[]"
        }
      ],
      "name": "whitelistMint",
      "outputs": [],
      "stateMutability": "nonpayable",
      "type": "function"
    },
    {
      "inputs": [],
      "name": "whitelistStart",
      "outputs": [
        {
          "internalType": "uint64",
          "name": "",
          "type": "uint64"
        }
      ],
      "stateMutability": "view",
      "type": "function"
    }
  ],
  "bytecode": "0x60806040527fa49807205ce4d355092ef5a8a18f56e8913cf4a201fbe287825b095693c217756009557f950b8f2d7415defaee398bb4898e8e094a64c725873b81952b7ab9f08d70efb3600a553480156200005957600080fd5b5060405162005c9238038062005c9283398181016040528101906200007f9190620007c5565b8282816002908051906020019062000099929190620004f8565b508060039080519060200190620000b2929190620004f8565b50505083600b8190555080600e9080519060200190620000d4929190620004f8565b506000429050808967ffffffffffffffff161162000129576040517f08c379a000000000000000000000000000000000000000000000000000000000815260040162000120906200094c565b60405180910390fd5b808867ffffffffffffffff161180156200016c5750600f60079054906101000a900467ffffffffffffffff1667ffffffffffffffff168867ffffffffffffffff16115b620001ae576040517f08c379a0000000000000000000000000000000000000000000000000000000008152600401620001a590620009be565b60405180910390fd5b88600f60076101000a81548167ffffffffffffffff021916908367ffffffffffffffff16021790555087600f806101000a81548167ffffffffffffffff021916908367ffffffffffffffff160217905550808767ffffffffffffffff161180156200022d57508767ffffffffffffffff168767ffffffffffffffff1610155b6200026f576040517f08c379a0000000000000000000000000000000000000000000000000000000008152600401620002669062000a30565b60405180910390fd5b808667ffffffffffffffff161180156200029c57508667ffffffffffffffff168667ffffffffffffffff16115b620002de576040517f08c379a0000000000000000000000000000000000000000000000000000000008152600401620002d59062000aa2565b60405180910390fd5b86600f60176101000a81548167ffffffffffffffff021916908367ffffffffffffffff16021790555085601060006101000a81548167ffffffffffffffff021916908367ffffffffffffffff1602179055506000620003426200037d60201b60201c565b9050620003596000801b826200038560201b60201c565b6200036d600954826200038560201b60201c565b5050505050505050505062000b28565b600033905090565b6200039782826200039b60201b60201c565b5050565b620003ad82826200048d60201b60201c565b620004895760016008600084815260200190815260200160002060000160008373ffffffffffffffffffffffffffffffffffffffff1673ffffffffffffffffffffffffffffffffffffffff16815260200190815260200160002060006101000a81548160ff0219169083151502179055506200042e6200037d60201b60201c565b73ffffffffffffffffffffffffffffffffffffffff168173ffffffffffffffffffffffffffffffffffffffff16837f2f8788117e7eff1d82e926ec794901d17c78024a50270940304540a733656f0d60405160405180910390a45b5050565b60006008600084815260200190815260200160002060000160008373ffffffffffffffffffffffffffffffffffffffff1673ffffffffffffffffffffffffffffffffffffffff16815260200190815260200160002060009054906101000a900460ff16905092915050565b828054620005069062000af3565b90600052602060002090601f0160209004810192826200052a576000855562000576565b82601f106200054557805160ff191683800117855562000576565b8280016001018555821562000576579182015b828111156200057557825182559160200191906001019062000558565b5b50905062000585919062000589565b5090565b5b80821115620005a45760008160009055506001016200058a565b5090565b6000604051905090565b600080fd5b600080fd5b600067ffffffffffffffff82169050919050565b620005db81620005bc565b8114620005e757600080fd5b50565b600081519050620005fb81620005d0565b92915050565b6000819050919050565b620006168162000601565b81146200062257600080fd5b50565b60008151905062000636816200060b565b92915050565b600080fd5b600080fd5b6000601f19601f8301169050919050565b7f4e487b7100000000000000000000000000000000000000000000000000000000600052604160045260246000fd5b620006918262000646565b810181811067ffffffffffffffff82111715620006b357620006b262000657565b5b80604052505050565b6000620006c8620005a8565b9050620006d6828262000686565b919050565b600067ffffffffffffffff821115620006f957620006f862000657565b5b620007048262000646565b9050602081019050919050565b60005b838110156200073157808201518184015260208101905062000714565b8381111562000741576000848401525b50505050565b60006200075e6200075884620006db565b620006bc565b9050828152602081018484840111156200077d576200077c62000641565b5b6200078a84828562000711565b509392505050565b600082601f830112620007aa57620007a96200063c565b5b8151620007bc84826020860162000747565b91505092915050565b600080600080600080600080610100898b031215620007e957620007e8620005b2565b5b6000620007f98b828c01620005ea565b98505060206200080c8b828c01620005ea565b97505060406200081f8b828c01620005ea565b9650506060620008328b828c01620005ea565b9550506080620008458b828c0162000625565b94505060a089015167ffffffffffffffff811115620008695762000868620005b7565b5b620008778b828c0162000792565b93505060c089015167ffffffffffffffff8111156200089b576200089a620005b7565b5b620008a98b828c0162000792565b92505060e089015167ffffffffffffffff811115620008cd57620008cc620005b7565b5b620008db8b828c0162000792565b9150509295985092959890939650565b600082825260208201905092915050565b7f57726f6e672077686974656c6973742073746172740000000000000000000000600082015250565b600062000934601583620008eb565b91506200094182620008fc565b602082019050919050565b60006020820190508181036000830152620009678162000925565b9050919050565b7f57726f6e672077686974656c69737420656e6400000000000000000000000000600082015250565b6000620009a6601383620008eb565b9150620009b3826200096e565b602082019050919050565b60006020820190508181036000830152620009d98162000997565b9050919050565b7f57726f6e67207075626c69632073746172740000000000000000000000000000600082015250565b600062000a18601283620008eb565b915062000a2582620009e0565b602082019050919050565b6000602082019050818103600083015262000a4b8162000a09565b9050919050565b7f57726f6e67207075626c696320656e6400000000000000000000000000000000600082015250565b600062000a8a601083620008eb565b915062000a978262000a52565b602082019050919050565b6000602082019050818103600083015262000abd8162000a7b565b9050919050565b7f4e487b7100000000000000000000000000000000000000000000000000000000600052602260045260246000fd5b6000600282049050600182168062000b0c57607f821691505b60208210810362000b225762000b2162000ac4565b5b50919050565b61515a8062000b386000396000f3fe6080604052600436106102e45760003560e01c806366add14411610190578063a7844762116100dc578063c87b56dd11610095578063d547741f1161006f578063d547741f14610acf578063e932406f14610af8578063e985e9c514610b23578063f4a560a514610b60576102e4565b8063c87b56dd14610a50578063cf9f8e2114610a8d578063d4dd7b8114610ab8576102e4565b8063a784476214610952578063aa98e0c61461097d578063b88d4fde146109a8578063b98451cf146109d1578063bd32fb66146109fc578063bfb6e0e714610a25576102e4565b8063981d877111610149578063a0712d6811610123578063a0712d68146108b7578063a217fddf146108d3578063a22cb465146108fe578063a5f4c6ff14610927576102e4565b8063981d87711461084a578063994d39691461086157806399c9c36d1461088c576102e4565b806366add1441461072657806370a082311461074f57806375b238fc1461078c57806391943708146107b757806391d14854146107e257806395d89b411461081f576102e4565b8063305ac3671161024f578063518302271161020857806359eda1b5116101e257806359eda1b5146106905780635b8ad429146106a7578063621d388c146106be5780636352211e146106e9576102e4565b8063518302271461062557806355f804b31461065057806356f07a3e14610679576102e4565b8063305ac3671461052d5780633574a2dd1461055857806336568abe14610581578063372f657c146105aa57806342842e0e146105d357806343b71f61146105fc576102e4565b806318ff357e116102a157806318ff357e1461040d5780631e84c4131461044a57806321860a051461047557806323b872dd1461049e578063248a9ca3146104c75780632f2ff15d14610504576102e4565b806301ffc9a7146102e957806306fdde0314610326578063081812fc14610351578063095ea7b31461038e5780630acae9a7146103b757806318160ddd146103e2575b600080fd5b3480156102f557600080fd5b50610310600480360381019061030b9190613c91565b610b77565b60405161031d9190613cd9565b60405180910390f35b34801561033257600080fd5b5061033b610b89565b6040516103489190613d8d565b60405180910390f35b34801561035d57600080fd5b5061037860048036038101906103739190613de5565b610c1b565b6040516103859190613e53565b60405180910390f35b34801561039a57600080fd5b506103b560048036038101906103b09190613e9a565b610c97565b005b3480156103c357600080fd5b506103cc610da1565b6040516103d99190613efd565b60405180910390f35b3480156103ee57600080fd5b506103f7610dbb565b6040516104049190613f27565b60405180910390f35b34801561041957600080fd5b50610434600480360381019061042f9190613fa7565b610dc9565b6040516104419190613cd9565b60405180910390f35b34801561045657600080fd5b5061045f610de2565b60405161046c9190613cd9565b60405180910390f35b34801561048157600080fd5b5061049c60048036038101906104979190614007565b610e56565b005b3480156104aa57600080fd5b506104c560048036038101906104c09190614034565b610f41565b005b3480156104d357600080fd5b506104ee60048036038101906104e991906140bd565b610f51565b6040516104fb91906140f9565b60405180910390f35b34801561051057600080fd5b5061052b60048036038101906105269190614114565b610f71565b005b34801561053957600080fd5b50610542610f9a565b60405161054f9190613cd9565b60405180910390f35b34801561056457600080fd5b5061057f600480360381019061057a9190614284565b610fad565b005b34801561058d57600080fd5b506105a860048036038101906105a39190614114565b611089565b005b3480156105b657600080fd5b506105d160048036038101906105cc91906142cd565b61110c565b005b3480156105df57600080fd5b506105fa60048036038101906105f59190614034565b6112f5565b005b34801561060857600080fd5b50610623600480360381019061061e9190614346565b611315565b005b34801561063157600080fd5b5061063a61142d565b6040516106479190613cd9565b60405180910390f35b34801561065c57600080fd5b5061067760048036038101906106729190614284565b611440565b005b34801561068557600080fd5b5061068e61151c565b005b34801561069c57600080fd5b506106a56115fb565b005b3480156106b357600080fd5b506106bc6116e9565b005b3480156106ca57600080fd5b506106d36117d7565b6040516106e09190613cd9565b60405180910390f35b3480156106f557600080fd5b50610710600480360381019061070b9190613de5565b61180a565b60405161071d9190613e53565b60405180910390f35b34801561073257600080fd5b5061074d60048036038101906107489190614346565b611820565b005b34801561075b57600080fd5b5061077660048036038101906107719190614007565b611937565b6040516107839190613f27565b60405180910390f35b34801561079857600080fd5b506107a1611a06565b6040516107ae91906140f9565b60405180910390f35b3480156107c357600080fd5b506107cc611a0c565b6040516107d99190613cd9565b60405180910390f35b3480156107ee57600080fd5b5061080960048036038101906108049190614114565b611a1f565b6040516108169190613cd9565b60405180910390f35b34801561082b57600080fd5b50610834611a8a565b6040516108419190613d8d565b60405180910390f35b34801561085657600080fd5b5061085f611b1c565b005b34801561086d57600080fd5b50610876611c0a565b6040516108839190613efd565b60405180910390f35b34801561089857600080fd5b506108a1611c24565b6040516108ae9190613f27565b60405180910390f35b6108d160048036038101906108cc9190613de5565b611c29565b005b3480156108df57600080fd5b506108e8611d1f565b6040516108f591906140f9565b60405180910390f35b34801561090a57600080fd5b50610925600480360381019061092091906143b2565b611d26565b005b34801561093357600080fd5b5061093c611e9d565b6040516109499190613efd565b60405180910390f35b34801561095e57600080fd5b50610967611eb7565b6040516109749190613cd9565b60405180910390f35b34801561098957600080fd5b50610992611ed1565b60405161099f91906140f9565b60405180910390f35b3480156109b457600080fd5b506109cf60048036038101906109ca9190614493565b611ed7565b005b3480156109dd57600080fd5b506109e6611f2a565b6040516109f39190613cd9565b60405180910390f35b348015610a0857600080fd5b50610a236004803603810190610a1e91906140bd565b611f9c565b005b348015610a3157600080fd5b50610a3a612068565b604051610a479190613efd565b60405180910390f35b348015610a5c57600080fd5b50610a776004803603810190610a729190613de5565b612080565b604051610a849190613d8d565b60405180910390f35b348015610a9957600080fd5b50610aa26121a7565b604051610aaf9190613cd9565b60405180910390f35b348015610ac457600080fd5b50610acd6121ba565b005b348015610adb57600080fd5b50610af66004803603810190610af19190614114565b612299565b005b348015610b0457600080fd5b50610b0d6122c2565b604051610b1a91906140f9565b60405180910390f35b348015610b2f57600080fd5b50610b4a6004803603810190610b459190614516565b6122c8565b604051610b579190613cd9565b60405180910390f35b348015610b6c57600080fd5b50610b7561235c565b005b6000610b828261243b565b9050919050565b606060028054610b9890614585565b80601f0160208091040260200160405190810160405280929190818152602001828054610bc490614585565b8015610c115780601f10610be657610100808354040283529160200191610c11565b820191906000526020600020905b815481529060010190602001808311610bf457829003601f168201915b5050505050905090565b6000610c26826124b5565b610c5c576040517fcf4700e400000000000000000000000000000000000000000000000000000000815260040160405180910390fd5b6006600083815260200190815260200160002060009054906101000a900473ffffffffffffffffffffffffffffffffffffffff169050919050565b6000610ca28261180a565b90508073ffffffffffffffffffffffffffffffffffffffff168373ffffffffffffffffffffffffffffffffffffffff1603610d09576040517f943f7b8c00000000000000000000000000000000000000000000000000000000815260040160405180910390fd5b8073ffffffffffffffffffffffffffffffffffffffff16610d286124ef565b73ffffffffffffffffffffffffffffffffffffffff1614158015610d5a5750610d5881610d536124ef565b6122c8565b155b15610d91576040517fcfb3b94200000000000000000000000000000000000000000000000000000000815260040160405180910390fd5b610d9c8383836124f7565b505050565b601060009054906101000a900467ffffffffffffffff1681565b600060015460005403905090565b6000610dd98484600b54856125a9565b90509392505050565b6000600f60069054906101000a900460ff1615610e025760019050610e53565b600f60179054906101000a900467ffffffffffffffff1667ffffffffffffffff1642118015610e505750601060009054906101000a900467ffffffffffffffff1667ffffffffffffffff1642105b90505b90565b6000610e606124ef565b9050610e6f6000801b82611a1f565b80610e825750610e8160095482611a1f565b5b610ec1576040517f08c379a0000000000000000000000000000000000000000000000000000000008152600401610eb890614602565b60405180910390fd5b60001515600f60049054906101000a900460ff16151514610f17576040517f08c379a0000000000000000000000000000000000000000000000000000000008152600401610f0e9061466e565b60405180910390fd5b6001600f60046101000a81548160ff021916908315150217905550610f3d82603761262e565b5050565b610f4c83838361264c565b505050565b600060086000838152602001908152602001600020600101549050919050565b610f7a82610f51565b610f8b81610f866124ef565b612b3b565b610f958383612bd8565b505050565b600f60009054906101000a900460ff1681565b6000610fb76124ef565b9050610fc66000801b82611a1f565b80610fd95750610fd860095482611a1f565b5b611018576040517f08c379a000000000000000000000000000000000000000000000000000000000815260040161100f90614602565b60405180910390fd5b60001515600f60019054906101000a900460ff1615151461106e576040517f08c379a0000000000000000000000000000000000000000000000000000000008152600401611065906146da565b60405180910390fd5b81600e9080519060200190611084929190613b3f565b505050565b6110916124ef565b73ffffffffffffffffffffffffffffffffffffffff168173ffffffffffffffffffffffffffffffffffffffff16146110fe576040517f08c379a00000000000000000000000000000000000000000000000000000000081526004016110f59061476c565b60405180910390fd5b6111088282612cb9565b5050565b60006111166124ef565b9050611120611f2a565b61115f576040517f08c379a0000000000000000000000000000000000000000000000000000000008152600401611156906147d8565b60405180910390fd5b61116a838383610dc9565b6111a9576040517f08c379a00000000000000000000000000000000000000000000000000000000081526004016111a090614844565b60405180910390fd5b61022b60016111b6610dbb565b6111c09190614893565b1115611201576040517f08c379a00000000000000000000000000000000000000000000000000000000081526004016111f890614935565b60405180910390fd5b600c60008273ffffffffffffffffffffffffffffffffffffffff1673ffffffffffffffffffffffffffffffffffffffff16815260200190815260200160002060009054906101000a900460ff1661128d576040517f08c379a0000000000000000000000000000000000000000000000000000000008152600401611284906149a1565b60405180910390fd5b6001600c60008373ffffffffffffffffffffffffffffffffffffffff1673ffffffffffffffffffffffffffffffffffffffff16815260200190815260200160002060006101000a81548160ff0219169083151502179055506112f081600161262e565b505050565b61131083838360405180602001604052806000815250611ed7565b505050565b600061131f6124ef565b905061132e6000801b82611a1f565b80611341575061134060095482611a1f565b5b611380576040517f08c379a000000000000000000000000000000000000000000000000000000000815260040161137790614602565b60405180910390fd5b60001515600f60029054906101000a900460ff161515146113d6576040517f08c379a00000000000000000000000000000000000000000000000000000000081526004016113cd90614a0d565b60405180910390fd5b82600f60176101000a81548167ffffffffffffffff021916908367ffffffffffffffff16021790555081601060006101000a81548167ffffffffffffffff021916908367ffffffffffffffff160217905550505050565b600f60039054906101000a900460ff1681565b600061144a6124ef565b90506114596000801b82611a1f565b8061146c575061146b60095482611a1f565b5b6114ab576040517f08c379a00000000000000000000000000000000000000000000000000000000081526004016114a290614602565b60405180910390fd5b60001515600f60019054906101000a900460ff16151514611501576040517f08c379a00000000000000000000000000000000000000000000000000000000081526004016114f8906146da565b60405180910390fd5b81600d9080519060200190611517929190613b3f565b505050565b60006115266124ef565b90506115356000801b82611a1f565b80611548575061154760095482611a1f565b5b611587576040517f08c379a000000000000000000000000000000000000000000000000000000000815260040161157e90614602565b60405180910390fd5b60001515600f60029054906101000a900460ff161515146115dd576040517f08c379a00000000000000000000000000000000000000000000000000000000081526004016115d490614a0d565b60405180910390fd5b6001600f60026101000a81548160ff02191690831515021790555050565b60006116056124ef565b90506116146000801b82611a1f565b80611627575061162660095482611a1f565b5b611666576040517f08c379a000000000000000000000000000000000000000000000000000000000815260040161165d90614602565b60405180910390fd5b60001515600f60029054906101000a900460ff161515146116bc576040517f08c379a00000000000000000000000000000000000000000000000000000000081526004016116b390614a0d565b60405180910390fd5b600f60059054906101000a900460ff1615600f60056101000a81548160ff02191690831515021790555050565b60006116f36124ef565b90506117026000801b82611a1f565b80611715575061171460095482611a1f565b5b611754576040517f08c379a000000000000000000000000000000000000000000000000000000000815260040161174b90614602565b60405180910390fd5b60001515600f60019054906101000a900460ff161515146117aa576040517f08c379a00000000000000000000000000000000000000000000000000000000081526004016117a1906146da565b60405180910390fd5b600f60039054906101000a900460ff1615600f60036101000a81548160ff02191690831515021790555050565b6000806117e26124ef565b90506117f060095482611a1f565b8061180457506118036000801b82611a1f565b5b91505090565b600061181582612d9b565b600001519050919050565b600061182a6124ef565b90506118396000801b82611a1f565b8061184c575061184b60095482611a1f565b5b61188b576040517f08c379a000000000000000000000000000000000000000000000000000000000815260040161188290614602565b60405180910390fd5b60001515600f60029054906101000a900460ff161515146118e1576040517f08c379a00000000000000000000000000000000000000000000000000000000081526004016118d890614a0d565b60405180910390fd5b82600f60076101000a81548167ffffffffffffffff021916908367ffffffffffffffff16021790555081600f806101000a81548167ffffffffffffffff021916908367ffffffffffffffff160217905550505050565b60008073ffffffffffffffffffffffffffffffffffffffff168273ffffffffffffffffffffffffffffffffffffffff160361199e576040517f8f4eb60400000000000000000000000000000000000000000000000000000000815260040160405180910390fd5b600560008373ffffffffffffffffffffffffffffffffffffffff1673ffffffffffffffffffffffffffffffffffffffff16815260200190815260200160002060000160009054906101000a900467ffffffffffffffff1667ffffffffffffffff169050919050565b60095481565b600f60019054906101000a900460ff1681565b60006008600084815260200190815260200160002060000160008373ffffffffffffffffffffffffffffffffffffffff1673ffffffffffffffffffffffffffffffffffffffff16815260200190815260200160002060009054906101000a900460ff16905092915050565b606060038054611a9990614585565b80601f0160208091040260200160405190810160405280929190818152602001828054611ac590614585565b8015611b125780601f10611ae757610100808354040283529160200191611b12565b820191906000526020600020905b815481529060010190602001808311611af557829003601f168201915b5050505050905090565b6000611b266124ef565b9050611b356000801b82611a1f565b80611b485750611b4760095482611a1f565b5b611b87576040517f08c379a0000000000000000000000000000000000000000000000000000000008152600401611b7e90614602565b60405180910390fd5b60001515600f60029054906101000a900460ff16151514611bdd576040517f08c379a0000000000000000000000000000000000000000000000000000000008152600401611bd490614a0d565b60405180910390fd5b600f60069054906101000a900460ff1615600f60066101000a81548160ff02191690831515021790555050565b600f60079054906101000a900467ffffffffffffffff1681565b603781565b611c31610de2565b611c70576040517f08c379a0000000000000000000000000000000000000000000000000000000008152600401611c6790614a79565b60405180910390fd5b6002811115611cb4576040517f08c379a0000000000000000000000000000000000000000000000000000000008152600401611cab90614ae5565b60405180910390fd5b61022b81611cc0610dbb565b611cca9190614893565b1115611d0b576040517f08c379a0000000000000000000000000000000000000000000000000000000008152600401611d0290614935565b60405180910390fd5b611d1c611d166124ef565b8261262e565b50565b6000801b81565b611d2e6124ef565b73ffffffffffffffffffffffffffffffffffffffff168273ffffffffffffffffffffffffffffffffffffffff1603611d92576040517fb06307db00000000000000000000000000000000000000000000000000000000815260040160405180910390fd5b8060076000611d9f6124ef565b73ffffffffffffffffffffffffffffffffffffffff1673ffffffffffffffffffffffffffffffffffffffff16815260200190815260200160002060008473ffffffffffffffffffffffffffffffffffffffff1673ffffffffffffffffffffffffffffffffffffffff16815260200190815260200160002060006101000a81548160ff0219169083151502179055508173ffffffffffffffffffffffffffffffffffffffff16611e4c6124ef565b73ffffffffffffffffffffffffffffffffffffffff167f17307eab39ab6107e8899845ad3d59bd9653f200f220920489ca2b5937696c3183604051611e919190613cd9565b60405180910390a35050565b600f60179054906101000a900467ffffffffffffffff1681565b6000611ecc600a54611ec76124ef565b611a1f565b905090565b600b5481565b611ee284848461264c565b611eee84848484613017565b611f24576040517fd1a57ed600000000000000000000000000000000000000000000000000000000815260040160405180910390fd5b50505050565b6000600f60059054906101000a900460ff1615611f4a5760019050611f99565b600f60079054906101000a900467ffffffffffffffff1667ffffffffffffffff1642118015611f965750600f8054906101000a900467ffffffffffffffff1667ffffffffffffffff1642105b90505b90565b6000611fa66124ef565b9050611fb56000801b82611a1f565b80611fc85750611fc760095482611a1f565b5b612007576040517f08c379a0000000000000000000000000000000000000000000000000000000008152600401611ffe90614602565b60405180910390fd5b60001515600f60009054906101000a900460ff1615151461205d576040517f08c379a000000000000000000000000000000000000000000000000000000000815260040161205490614b51565b60405180910390fd5b81600b819055505050565b600f8054906101000a900467ffffffffffffffff1681565b606061208b826124b5565b6120ca576040517f08c379a00000000000000000000000000000000000000000000000000000000081526004016120c190614bbd565b60405180910390fd5b600f60039054906101000a900460ff1661216e57600e80546120eb90614585565b80601f016020809104026020016040519081016040528092919081815260200182805461211790614585565b80156121645780601f1061213957610100808354040283529160200191612164565b820191906000526020600020905b81548152906001019060200180831161214757829003601f168201915b50505050506121a0565b612176613195565b61217f83613227565b604051602001612190929190614c65565b6040516020818303038152906040525b9050919050565b600f60029054906101000a900460ff1681565b60006121c46124ef565b90506121d36000801b82611a1f565b806121e657506121e560095482611a1f565b5b612225576040517f08c379a000000000000000000000000000000000000000000000000000000000815260040161221c90614602565b60405180910390fd5b60001515600f60009054906101000a900460ff1615151461227b576040517f08c379a000000000000000000000000000000000000000000000000000000000815260040161227290614b51565b60405180910390fd5b6001600f60006101000a81548160ff02191690831515021790555050565b6122a282610f51565b6122b3816122ae6124ef565b612b3b565b6122bd8383612cb9565b505050565b600a5481565b6000600760008473ffffffffffffffffffffffffffffffffffffffff1673ffffffffffffffffffffffffffffffffffffffff16815260200190815260200160002060008373ffffffffffffffffffffffffffffffffffffffff1673ffffffffffffffffffffffffffffffffffffffff16815260200190815260200160002060009054906101000a900460ff16905092915050565b60006123666124ef565b90506123756000801b82611a1f565b80612388575061238760095482611a1f565b5b6123c7576040517f08c379a00000000000000000000000000000000000000000000000000000000081526004016123be90614602565b60405180910390fd5b60001515600f60019054906101000a900460ff1615151461241d576040517f08c379a0000000000000000000000000000000000000000000000000000000008152600401612414906146da565b60405180910390fd5b6001600f60016101000a81548160ff02191690831515021790555050565b60007f7965db0b000000000000000000000000000000000000000000000000000000007bffffffffffffffffffffffffffffffffffffffffffffffffffffffff1916827bffffffffffffffffffffffffffffffffffffffffffffffffffffffff191614806124ae57506124ad82613387565b5b9050919050565b60008054821080156124e8575060046000838152602001908152602001600020600001601c9054906101000a900460ff16155b9050919050565b600033905090565b826006600084815260200190815260200160002060006101000a81548173ffffffffffffffffffffffffffffffffffffffff021916908373ffffffffffffffffffffffffffffffffffffffff160217905550818373ffffffffffffffffffffffffffffffffffffffff168273ffffffffffffffffffffffffffffffffffffffff167f8c5be1e5ebec7d5bd14f71427d1e84f3dd0314c0f7b2291e5b200ac8c7c3b92560405160405180910390a4505050565b600060011515612621868680806020026020016040519081016040528093929190818152602001838360200280828437600081840152601f19601f8201169050808301925050505050505085856040516020016126069190614cdc565b60405160208183030381529060405280519060200120613469565b1515149050949350505050565b612648828260405180602001604052806000815250613480565b5050565b600061265782612d9b565b90506000816000015173ffffffffffffffffffffffffffffffffffffffff1661267e6124ef565b73ffffffffffffffffffffffffffffffffffffffff1614806126b157506126b082600001516126ab6124ef565b6122c8565b5b806126f657506126bf6124ef565b73ffffffffffffffffffffffffffffffffffffffff166126de84610c1b565b73ffffffffffffffffffffffffffffffffffffffff16145b90508061272f576040517f59c896be00000000000000000000000000000000000000000000000000000000815260040160405180910390fd5b8473ffffffffffffffffffffffffffffffffffffffff16826000015173ffffffffffffffffffffffffffffffffffffffff1614612798576040517fa114810000000000000000000000000000000000000000000000000000000000815260040160405180910390fd5b600073ffffffffffffffffffffffffffffffffffffffff168473ffffffffffffffffffffffffffffffffffffffff16036127fe576040517fea553b3400000000000000000000000000000000000000000000000000000000815260040160405180910390fd5b61280b8585856001613492565b61281b60008484600001516124f7565b6001600560008773ffffffffffffffffffffffffffffffffffffffff1673ffffffffffffffffffffffffffffffffffffffff16815260200190815260200160002060000160008282829054906101000a900467ffffffffffffffff160392506101000a81548167ffffffffffffffff021916908367ffffffffffffffff1602179055506001600560008673ffffffffffffffffffffffffffffffffffffffff1673ffffffffffffffffffffffffffffffffffffffff16815260200190815260200160002060000160008282829054906101000a900467ffffffffffffffff160192506101000a81548167ffffffffffffffff021916908367ffffffffffffffff160217905550836004600085815260200190815260200160002060000160006101000a81548173ffffffffffffffffffffffffffffffffffffffff021916908373ffffffffffffffffffffffffffffffffffffffff160217905550426004600085815260200190815260200160002060000160146101000a81548167ffffffffffffffff021916908367ffffffffffffffff1602179055506000600184019050600073ffffffffffffffffffffffffffffffffffffffff166004600083815260200190815260200160002060000160009054906101000a900473ffffffffffffffffffffffffffffffffffffffff1673ffffffffffffffffffffffffffffffffffffffff1603612acb57600054811015612aca5782600001516004600083815260200190815260200160002060000160006101000a81548173ffffffffffffffffffffffffffffffffffffffff021916908373ffffffffffffffffffffffffffffffffffffffff16021790555082602001516004600083815260200190815260200160002060000160146101000a81548167ffffffffffffffff021916908367ffffffffffffffff1602179055505b5b50828473ffffffffffffffffffffffffffffffffffffffff168673ffffffffffffffffffffffffffffffffffffffff167fddf252ad1be2c89b69c2b068fc378daa952ba7f163c4a11628f55a4df523b3ef60405160405180910390a4612b348585856001613498565b5050505050565b612b458282611a1f565b612bd457612b6a8173ffffffffffffffffffffffffffffffffffffffff16601461349e565b612b788360001c602061349e565b604051602001612b89929190614d8f565b6040516020818303038152906040526040517f08c379a0000000000000000000000000000000000000000000000000000000008152600401612bcb9190613d8d565b60405180910390fd5b5050565b612be28282611a1f565b612cb55760016008600084815260200190815260200160002060000160008373ffffffffffffffffffffffffffffffffffffffff1673ffffffffffffffffffffffffffffffffffffffff16815260200190815260200160002060006101000a81548160ff021916908315150217905550612c5a6124ef565b73ffffffffffffffffffffffffffffffffffffffff168173ffffffffffffffffffffffffffffffffffffffff16837f2f8788117e7eff1d82e926ec794901d17c78024a50270940304540a733656f0d60405160405180910390a45b5050565b612cc38282611a1f565b15612d975760006008600084815260200190815260200160002060000160008373ffffffffffffffffffffffffffffffffffffffff1673ffffffffffffffffffffffffffffffffffffffff16815260200190815260200160002060006101000a81548160ff021916908315150217905550612d3c6124ef565b73ffffffffffffffffffffffffffffffffffffffff168173ffffffffffffffffffffffffffffffffffffffff16837ff6391f5c32d9c69d2a47ea670b442974b53935d1edc7fd64eb21e047a839171b60405160405180910390a45b5050565b612da3613bc5565b6000829050600054811015612fe0576000600460008381526020019081526020016000206040518060600160405290816000820160009054906101000a900473ffffffffffffffffffffffffffffffffffffffff1673ffffffffffffffffffffffffffffffffffffffff1673ffffffffffffffffffffffffffffffffffffffff1681526020016000820160149054906101000a900467ffffffffffffffff1667ffffffffffffffff1667ffffffffffffffff16815260200160008201601c9054906101000a900460ff16151515158152505090508060400151612fde57600073ffffffffffffffffffffffffffffffffffffffff16816000015173ffffffffffffffffffffffffffffffffffffffff1614612ec2578092505050613012565b5b600115612fdd57818060019003925050600460008381526020019081526020016000206040518060600160405290816000820160009054906101000a900473ffffffffffffffffffffffffffffffffffffffff1673ffffffffffffffffffffffffffffffffffffffff1673ffffffffffffffffffffffffffffffffffffffff1681526020016000820160149054906101000a900467ffffffffffffffff1667ffffffffffffffff1667ffffffffffffffff16815260200160008201601c9054906101000a900460ff1615151515815250509050600073ffffffffffffffffffffffffffffffffffffffff16816000015173ffffffffffffffffffffffffffffffffffffffff1614612fd8578092505050613012565b612ec3565b5b505b6040517fdf2d9b4200000000000000000000000000000000000000000000000000000000815260040160405180910390fd5b919050565b60006130388473ffffffffffffffffffffffffffffffffffffffff166136da565b15613188578373ffffffffffffffffffffffffffffffffffffffff1663150b7a026130616124ef565b8786866040518563ffffffff1660e01b81526004016130839493929190614e1e565b6020604051808303816000875af19250505080156130bf57506040513d601f19601f820116820180604052508101906130bc9190614e7f565b60015b613138573d80600081146130ef576040519150601f19603f3d011682016040523d82523d6000602084013e6130f4565b606091505b506000815103613130576040517fd1a57ed600000000000000000000000000000000000000000000000000000000815260040160405180910390fd5b805181602001fd5b63150b7a0260e01b7bffffffffffffffffffffffffffffffffffffffffffffffffffffffff1916817bffffffffffffffffffffffffffffffffffffffffffffffffffffffff19161491505061318d565b600190505b949350505050565b6060600d80546131a490614585565b80601f01602080910402602001604051908101604052809291908181526020018280546131d090614585565b801561321d5780601f106131f25761010080835404028352916020019161321d565b820191906000526020600020905b81548152906001019060200180831161320057829003601f168201915b5050505050905090565b60606000820361326e576040518060400160405280600181526020017f30000000000000000000000000000000000000000000000000000000000000008152509050613382565b600082905060005b600082146132a057808061328990614eac565b915050600a826132999190614f23565b9150613276565b60008167ffffffffffffffff8111156132bc576132bb614159565b5b6040519080825280601f01601f1916602001820160405280156132ee5781602001600182028036833780820191505090505b5090505b6000851461337b576001826133079190614f54565b9150600a856133169190614f88565b60306133229190614893565b60f81b81838151811061333857613337614fb9565b5b60200101907effffffffffffffffffffffffffffffffffffffffffffffffffffffffffffff1916908160001a905350600a856133749190614f23565b94506132f2565b8093505050505b919050565b60007f80ac58cd000000000000000000000000000000000000000000000000000000007bffffffffffffffffffffffffffffffffffffffffffffffffffffffff1916827bffffffffffffffffffffffffffffffffffffffffffffffffffffffff1916148061345257507f5b5e139f000000000000000000000000000000000000000000000000000000007bffffffffffffffffffffffffffffffffffffffffffffffffffffffff1916827bffffffffffffffffffffffffffffffffffffffffffffffffffffffff1916145b806134625750613461826136ed565b5b9050919050565b6000826134768584613757565b1490509392505050565b61348d838383600161380a565b505050565b50505050565b50505050565b6060600060028360026134b19190614fe8565b6134bb9190614893565b67ffffffffffffffff8111156134d4576134d3614159565b5b6040519080825280601f01601f1916602001820160405280156135065781602001600182028036833780820191505090505b5090507f30000000000000000000000000000000000000000000000000000000000000008160008151811061353e5761353d614fb9565b5b60200101907effffffffffffffffffffffffffffffffffffffffffffffffffffffffffffff1916908160001a9053507f7800000000000000000000000000000000000000000000000000000000000000816001815181106135a2576135a1614fb9565b5b60200101907effffffffffffffffffffffffffffffffffffffffffffffffffffffffffffff1916908160001a905350600060018460026135e29190614fe8565b6135ec9190614893565b90505b600181111561368c577f3031323334353637383961626364656600000000000000000000000000000000600f86166010811061362e5761362d614fb9565b5b1a60f81b82828151811061364557613644614fb9565b5b60200101907effffffffffffffffffffffffffffffffffffffffffffffffffffffffffffff1916908160001a905350600485901c94508061368590615042565b90506135ef565b50600084146136d0576040517f08c379a00000000000000000000000000000000000000000000000000000000081526004016136c7906150b7565b60405180910390fd5b8091505092915050565b600080823b905060008111915050919050565b60007f01ffc9a7000000000000000000000000000000000000000000000000000000007bffffffffffffffffffffffffffffffffffffffffffffffffffffffff1916827bffffffffffffffffffffffffffffffffffffffffffffffffffffffff1916149050919050565b60008082905060005b84518110156137ff57600085828151811061377e5761377d614fb9565b5b602002602001015190508083116137bf5782816040516020016137a29291906150f8565b6040516020818303038152906040528051906020012092506137eb565b80836040516020016137d29291906150f8565b6040516020818303038152906040528051906020012092505b5080806137f790614eac565b915050613760565b508091505092915050565b600080549050600073ffffffffffffffffffffffffffffffffffffffff168573ffffffffffffffffffffffffffffffffffffffff1603613876576040517f2e07630000000000000000000000000000000000000000000000000000000000815260040160405180910390fd5b600084036138b0576040517fb562e8dd00000000000000000000000000000000000000000000000000000000815260040160405180910390fd5b6138bd6000868387613492565b83600560008773ffffffffffffffffffffffffffffffffffffffff1673ffffffffffffffffffffffffffffffffffffffff16815260200190815260200160002060000160008282829054906101000a900467ffffffffffffffff160192506101000a81548167ffffffffffffffff021916908367ffffffffffffffff16021790555083600560008773ffffffffffffffffffffffffffffffffffffffff1673ffffffffffffffffffffffffffffffffffffffff16815260200190815260200160002060000160088282829054906101000a900467ffffffffffffffff160192506101000a81548167ffffffffffffffff021916908367ffffffffffffffff160217905550846004600083815260200190815260200160002060000160006101000a81548173ffffffffffffffffffffffffffffffffffffffff021916908373ffffffffffffffffffffffffffffffffffffffff160217905550426004600083815260200190815260200160002060000160146101000a81548167ffffffffffffffff021916908367ffffffffffffffff160217905550600081905060005b85811015613b2257818773ffffffffffffffffffffffffffffffffffffffff16600073ffffffffffffffffffffffffffffffffffffffff167fddf252ad1be2c89b69c2b068fc378daa952ba7f163c4a11628f55a4df523b3ef60405160405180910390a4838015613ad65750613ad46000888488613017565b155b15613b0d576040517fd1a57ed600000000000000000000000000000000000000000000000000000000815260040160405180910390fd5b81806001019250508080600101915050613a5b565b508060008190555050613b386000868387613498565b5050505050565b828054613b4b90614585565b90600052602060002090601f016020900481019282613b6d5760008555613bb4565b82601f10613b8657805160ff1916838001178555613bb4565b82800160010185558215613bb4579182015b82811115613bb3578251825591602001919060010190613b98565b5b509050613bc19190613c08565b5090565b6040518060600160405280600073ffffffffffffffffffffffffffffffffffffffff168152602001600067ffffffffffffffff1681526020016000151581525090565b5b80821115613c21576000816000905550600101613c09565b5090565b6000604051905090565b600080fd5b600080fd5b60007fffffffff0000000000000000000000000000000000000000000000000000000082169050919050565b613c6e81613c39565b8114613c7957600080fd5b50565b600081359050613c8b81613c65565b92915050565b600060208284031215613ca757613ca6613c2f565b5b6000613cb584828501613c7c565b91505092915050565b60008115159050919050565b613cd381613cbe565b82525050565b6000602082019050613cee6000830184613cca565b92915050565b600081519050919050565b600082825260208201905092915050565b60005b83811015613d2e578082015181840152602081019050613d13565b83811115613d3d576000848401525b50505050565b6000601f19601f8301169050919050565b6000613d5f82613cf4565b613d698185613cff565b9350613d79818560208601613d10565b613d8281613d43565b840191505092915050565b60006020820190508181036000830152613da78184613d54565b905092915050565b6000819050919050565b613dc281613daf565b8114613dcd57600080fd5b50565b600081359050613ddf81613db9565b92915050565b600060208284031215613dfb57613dfa613c2f565b5b6000613e0984828501613dd0565b91505092915050565b600073ffffffffffffffffffffffffffffffffffffffff82169050919050565b6000613e3d82613e12565b9050919050565b613e4d81613e32565b82525050565b6000602082019050613e686000830184613e44565b92915050565b613e7781613e32565b8114613e8257600080fd5b50565b600081359050613e9481613e6e565b92915050565b60008060408385031215613eb157613eb0613c2f565b5b6000613ebf85828601613e85565b9250506020613ed085828601613dd0565b9150509250929050565b600067ffffffffffffffff82169050919050565b613ef781613eda565b82525050565b6000602082019050613f126000830184613eee565b92915050565b613f2181613daf565b82525050565b6000602082019050613f3c6000830184613f18565b92915050565b600080fd5b600080fd5b600080fd5b60008083601f840112613f6757613f66613f42565b5b8235905067ffffffffffffffff811115613f8457613f83613f47565b5b602083019150836020820283011115613fa057613f9f613f4c565b5b9250929050565b600080600060408486031215613fc057613fbf613c2f565b5b600084013567ffffffffffffffff811115613fde57613fdd613c34565b5b613fea86828701613f51565b93509350506020613ffd86828701613e85565b9150509250925092565b60006020828403121561401d5761401c613c2f565b5b600061402b84828501613e85565b91505092915050565b60008060006060848603121561404d5761404c613c2f565b5b600061405b86828701613e85565b935050602061406c86828701613e85565b925050604061407d86828701613dd0565b9150509250925092565b6000819050919050565b61409a81614087565b81146140a557600080fd5b50565b6000813590506140b781614091565b92915050565b6000602082840312156140d3576140d2613c2f565b5b60006140e1848285016140a8565b91505092915050565b6140f381614087565b82525050565b600060208201905061410e60008301846140ea565b92915050565b6000806040838503121561412b5761412a613c2f565b5b6000614139858286016140a8565b925050602061414a85828601613e85565b9150509250929050565b600080fd5b7f4e487b7100000000000000000000000000000000000000000000000000000000600052604160045260246000fd5b61419182613d43565b810181811067ffffffffffffffff821117156141b0576141af614159565b5b80604052505050565b60006141c3613c25565b90506141cf8282614188565b919050565b600067ffffffffffffffff8211156141ef576141ee614159565b5b6141f882613d43565b9050602081019050919050565b82818337600083830152505050565b6000614227614222846141d4565b6141b9565b90508281526020810184848401111561424357614242614154565b5b61424e848285614205565b509392505050565b600082601f83011261426b5761426a613f42565b5b813561427b848260208601614214565b91505092915050565b60006020828403121561429a57614299613c2f565b5b600082013567ffffffffffffffff8111156142b8576142b7613c34565b5b6142c484828501614256565b91505092915050565b600080602083850312156142e4576142e3613c2f565b5b600083013567ffffffffffffffff81111561430257614301613c34565b5b61430e85828601613f51565b92509250509250929050565b61432381613eda565b811461432e57600080fd5b50565b6000813590506143408161431a565b92915050565b6000806040838503121561435d5761435c613c2f565b5b600061436b85828601614331565b925050602061437c85828601614331565b9150509250929050565b61438f81613cbe565b811461439a57600080fd5b50565b6000813590506143ac81614386565b92915050565b600080604083850312156143c9576143c8613c2f565b5b60006143d785828601613e85565b92505060206143e88582860161439d565b9150509250929050565b600067ffffffffffffffff82111561440d5761440c614159565b5b61441682613d43565b9050602081019050919050565b6000614436614431846143f2565b6141b9565b90508281526020810184848401111561445257614451614154565b5b61445d848285614205565b509392505050565b600082601f83011261447a57614479613f42565b5b813561448a848260208601614423565b91505092915050565b600080600080608085870312156144ad576144ac613c2f565b5b60006144bb87828801613e85565b94505060206144cc87828801613e85565b93505060406144dd87828801613dd0565b925050606085013567ffffffffffffffff8111156144fe576144fd613c34565b5b61450a87828801614465565b91505092959194509250565b6000806040838503121561452d5761452c613c2f565b5b600061453b85828601613e85565b925050602061454c85828601613e85565b9150509250929050565b7f4e487b7100000000000000000000000000000000000000000000000000000000600052602260045260246000fd5b6000600282049050600182168061459d57607f821691505b6020821081036145b0576145af614556565b5b50919050565b7f4d75737420626520616e2061646d696e00000000000000000000000000000000600082015250565b60006145ec601083613cff565b91506145f7826145b6565b602082019050919050565b6000602082019050818103600083015261461b816145df565b9050919050565b7f414c52454144595f41495244524f505045440000000000000000000000000000600082015250565b6000614658601283613cff565b915061466382614622565b602082019050919050565b600060208201905081810360008301526146878161464b565b9050919050565b7f4d455441444154415f46494e414c495a45440000000000000000000000000000600082015250565b60006146c4601283613cff565b91506146cf8261468e565b602082019050919050565b600060208201905081810360008301526146f3816146b7565b9050919050565b7f416363657373436f6e74726f6c3a2063616e206f6e6c792072656e6f756e636560008201527f20726f6c657320666f722073656c660000000000000000000000000000000000602082015250565b6000614756602f83613cff565b9150614761826146fa565b604082019050919050565b6000602082019050818103600083015261478581614749565b9050919050565b7f50524553414c455f494e41435449564500000000000000000000000000000000600082015250565b60006147c2601083613cff565b91506147cd8261478c565b602082019050919050565b600060208201905081810360008301526147f1816147b5565b9050919050565b7f50524553414c455f4e4f545f5645524946494544000000000000000000000000600082015250565b600061482e601483613cff565b9150614839826147f8565b602082019050919050565b6000602082019050818103600083015261485d81614821565b9050919050565b7f4e487b7100000000000000000000000000000000000000000000000000000000600052601160045260246000fd5b600061489e82613daf565b91506148a983613daf565b9250827fffffffffffffffffffffffffffffffffffffffffffffffffffffffffffffffff038211156148de576148dd614864565b5b828201905092915050565b7f455843454544535f434f4c4c454354494f4e5f53495a45000000000000000000600082015250565b600061491f601783613cff565b915061492a826148e9565b602082019050919050565b6000602082019050818103600083015261494e81614912565b9050919050565b7f57484954454c4953545f544f4b454e5f4c494d49540000000000000000000000600082015250565b600061498b601583613cff565b915061499682614955565b602082019050919050565b600060208201905081810360008301526149ba8161497e565b9050919050565b7f54494d45535f46494e414c495a45440000000000000000000000000000000000600082015250565b60006149f7600f83613cff565b9150614a02826149c1565b602082019050919050565b60006020820190508181036000830152614a26816149ea565b9050919050565b7f5055424c49435f53414c455f494e414354495645000000000000000000000000600082015250565b6000614a63601483613cff565b9150614a6e82614a2d565b602082019050919050565b60006020820190508181036000830152614a9281614a56565b9050919050565b7f5055424c49435f544f4b454e5f4c494d49540000000000000000000000000000600082015250565b6000614acf601283613cff565b9150614ada82614a99565b602082019050919050565b60006020820190508181036000830152614afe81614ac2565b9050919050565b7f4c4953545f46494e414c495a4544000000000000000000000000000000000000600082015250565b6000614b3b600e83613cff565b9150614b4682614b05565b602082019050919050565b60006020820190508181036000830152614b6a81614b2e565b9050919050565b7f494e56414c49445f494400000000000000000000000000000000000000000000600082015250565b6000614ba7600a83613cff565b9150614bb282614b71565b602082019050919050565b60006020820190508181036000830152614bd681614b9a565b9050919050565b600081905092915050565b6000614bf382613cf4565b614bfd8185614bdd565b9350614c0d818560208601613d10565b80840191505092915050565b7f2e6a736f6e000000000000000000000000000000000000000000000000000000600082015250565b6000614c4f600583614bdd565b9150614c5a82614c19565b600582019050919050565b6000614c718285614be8565b9150614c7d8284614be8565b9150614c8882614c42565b91508190509392505050565b60008160601b9050919050565b6000614cac82614c94565b9050919050565b6000614cbe82614ca1565b9050919050565b614cd6614cd182613e32565b614cb3565b82525050565b6000614ce88284614cc5565b60148201915081905092915050565b7f416363657373436f6e74726f6c3a206163636f756e7420000000000000000000600082015250565b6000614d2d601783614bdd565b9150614d3882614cf7565b601782019050919050565b7f206973206d697373696e6720726f6c6520000000000000000000000000000000600082015250565b6000614d79601183614bdd565b9150614d8482614d43565b601182019050919050565b6000614d9a82614d20565b9150614da68285614be8565b9150614db182614d6c565b9150614dbd8284614be8565b91508190509392505050565b600081519050919050565b600082825260208201905092915050565b6000614df082614dc9565b614dfa8185614dd4565b9350614e0a818560208601613d10565b614e1381613d43565b840191505092915050565b6000608082019050614e336000830187613e44565b614e406020830186613e44565b614e4d6040830185613f18565b8181036060830152614e5f8184614de5565b905095945050505050565b600081519050614e7981613c65565b92915050565b600060208284031215614e9557614e94613c2f565b5b6000614ea384828501614e6a565b91505092915050565b6000614eb782613daf565b91507fffffffffffffffffffffffffffffffffffffffffffffffffffffffffffffffff8203614ee957614ee8614864565b5b600182019050919050565b7f4e487b7100000000000000000000000000000000000000000000000000000000600052601260045260246000fd5b6000614f2e82613daf565b9150614f3983613daf565b925082614f4957614f48614ef4565b5b828204905092915050565b6000614f5f82613daf565b9150614f6a83613daf565b925082821015614f7d57614f7c614864565b5b828203905092915050565b6000614f9382613daf565b9150614f9e83613daf565b925082614fae57614fad614ef4565b5b828206905092915050565b7f4e487b7100000000000000000000000000000000000000000000000000000000600052603260045260246000fd5b6000614ff382613daf565b9150614ffe83613daf565b9250817fffffffffffffffffffffffffffffffffffffffffffffffffffffffffffffffff048311821515161561503757615036614864565b5b828202905092915050565b600061504d82613daf565b9150600082036150605761505f614864565b5b600182039050919050565b7f537472696e67733a20686578206c656e67746820696e73756666696369656e74600082015250565b60006150a1602083613cff565b91506150ac8261506b565b602082019050919050565b600060208201905081810360008301526150d081615094565b9050919050565b6000819050919050565b6150f26150ed82614087565b6150d7565b82525050565b600061510482856150e1565b60208201915061511482846150e1565b602082019150819050939250505056fea2646970667358221220565e182e9f27a344161900f98c32c9ae6dd7b2128f5283c7dccf3938ca182dbe64736f6c634300080d0033",
  "linkReferences": {},
  "deployedLinkReferences": {}
}