{
  "_format": "hh-sol-artifact-1",
  "contractName": "FifthDimension",
  "sourceName": "contracts/FifthDimension.sol",
  "abi": [
    {
      "inputs": [
        {
          "internalType": "bytes32",
          "name": "_whitelistMerkleRoot",
          "type": "bytes32"
        },
        {
          "internalType": "string",
          "name": "tempUri",
          "type": "string"
        }
      ],
      "stateMutability": "nonpayable",
      "type": "constructor"
    },
    {
      "inputs": [],
      "name": "ApprovalCallerNotOwnerNorApproved",
      "type": "error"
    },
    {
      "inputs": [],
      "name": "ApprovalQueryForNonexistentToken",
      "type": "error"
    },
    {
      "inputs": [],
      "name": "ApprovalToCurrentOwner",
      "type": "error"
    },
    {
      "inputs": [],
      "name": "ApproveToCaller",
      "type": "error"
    },
    {
      "inputs": [],
      "name": "BalanceQueryForZeroAddress",
      "type": "error"
    },
    {
      "inputs": [],
      "name": "MintToZeroAddress",
      "type": "error"
    },
    {
      "inputs": [],
      "name": "MintZeroQuantity",
      "type": "error"
    },
    {
      "inputs": [],
      "name": "OwnerQueryForNonexistentToken",
      "type": "error"
    },
    {
      "inputs": [],
      "name": "TransferCallerNotOwnerNorApproved",
      "type": "error"
    },
    {
      "inputs": [],
      "name": "TransferFromIncorrectOwner",
      "type": "error"
    },
    {
      "inputs": [],
      "name": "TransferToNonERC721ReceiverImplementer",
      "type": "error"
    },
    {
      "inputs": [],
      "name": "TransferToZeroAddress",
      "type": "error"
    },
    {
      "anonymous": false,
      "inputs": [
        {
          "indexed": true,
          "internalType": "address",
          "name": "owner",
          "type": "address"
        },
        {
          "indexed": true,
          "internalType": "address",
          "name": "approved",
          "type": "address"
        },
        {
          "indexed": true,
          "internalType": "uint256",
          "name": "tokenId",
          "type": "uint256"
        }
      ],
      "name": "Approval",
      "type": "event"
    },
    {
      "anonymous": false,
      "inputs": [
        {
          "indexed": true,
          "internalType": "address",
          "name": "owner",
          "type": "address"
        },
        {
          "indexed": true,
          "internalType": "address",
          "name": "operator",
          "type": "address"
        },
        {
          "indexed": false,
          "internalType": "bool",
          "name": "approved",
          "type": "bool"
        }
      ],
      "name": "ApprovalForAll",
      "type": "event"
    },
    {
      "anonymous": false,
      "inputs": [
        {
          "indexed": true,
          "internalType": "address",
          "name": "previousOwner",
          "type": "address"
        },
        {
          "indexed": true,
          "internalType": "address",
          "name": "newOwner",
          "type": "address"
        }
      ],
      "name": "OwnershipTransferred",
      "type": "event"
    },
    {
      "anonymous": false,
      "inputs": [
        {
          "indexed": true,
          "internalType": "bytes32",
          "name": "role",
          "type": "bytes32"
        },
        {
          "indexed": true,
          "internalType": "bytes32",
          "name": "previousAdminRole",
          "type": "bytes32"
        },
        {
          "indexed": true,
          "internalType": "bytes32",
          "name": "newAdminRole",
          "type": "bytes32"
        }
      ],
      "name": "RoleAdminChanged",
      "type": "event"
    },
    {
      "anonymous": false,
      "inputs": [
        {
          "indexed": true,
          "internalType": "bytes32",
          "name": "role",
          "type": "bytes32"
        },
        {
          "indexed": true,
          "internalType": "address",
          "name": "account",
          "type": "address"
        },
        {
          "indexed": true,
          "internalType": "address",
          "name": "sender",
          "type": "address"
        }
      ],
      "name": "RoleGranted",
      "type": "event"
    },
    {
      "anonymous": false,
      "inputs": [
        {
          "indexed": true,
          "internalType": "bytes32",
          "name": "role",
          "type": "bytes32"
        },
        {
          "indexed": true,
          "internalType": "address",
          "name": "account",
          "type": "address"
        },
        {
          "indexed": true,
          "internalType": "address",
          "name": "sender",
          "type": "address"
        }
      ],
      "name": "RoleRevoked",
      "type": "event"
    },
    {
      "anonymous": false,
      "inputs": [
        {
          "indexed": true,
          "internalType": "address",
          "name": "from",
          "type": "address"
        },
        {
          "indexed": true,
          "internalType": "address",
          "name": "to",
          "type": "address"
        },
        {
          "indexed": true,
          "internalType": "uint256",
          "name": "tokenId",
          "type": "uint256"
        }
      ],
      "name": "Transfer",
      "type": "event"
    },
    {
      "inputs": [],
      "name": "ADMIN_ROLE",
      "outputs": [
        {
          "internalType": "bytes32",
          "name": "",
          "type": "bytes32"
        }
      ],
      "stateMutability": "view",
      "type": "function"
    },
    {
      "inputs": [],
      "name": "AIRDROP_LIMIT",
      "outputs": [
        {
          "internalType": "uint256",
          "name": "",
          "type": "uint256"
        }
      ],
      "stateMutability": "view",
      "type": "function"
    },
    {
      "inputs": [],
      "name": "DEFAULT_ADMIN_ROLE",
      "outputs": [
        {
          "internalType": "bytes32",
          "name": "",
          "type": "bytes32"
        }
      ],
      "stateMutability": "view",
      "type": "function"
    },
    {
      "inputs": [],
      "name": "MOD_ROLE",
      "outputs": [
        {
          "internalType": "bytes32",
          "name": "",
          "type": "bytes32"
        }
      ],
      "stateMutability": "view",
      "type": "function"
    },
    {
      "inputs": [
        {
          "internalType": "address",
          "name": "to",
          "type": "address"
        }
      ],
      "name": "airdrop",
      "outputs": [],
      "stateMutability": "nonpayable",
      "type": "function"
    },
    {
      "inputs": [
        {
          "internalType": "address",
          "name": "to",
          "type": "address"
        },
        {
          "internalType": "uint256",
          "name": "tokenId",
          "type": "uint256"
        }
      ],
      "name": "approve",
      "outputs": [],
      "stateMutability": "nonpayable",
      "type": "function"
    },
    {
      "inputs": [
        {
          "internalType": "address",
          "name": "owner",
          "type": "address"
        }
      ],
      "name": "balanceOf",
      "outputs": [
        {
          "internalType": "uint256",
          "name": "",
          "type": "uint256"
        }
      ],
      "stateMutability": "view",
      "type": "function"
    },
    {
      "inputs": [],
      "name": "finalizeLists",
      "outputs": [],
      "stateMutability": "nonpayable",
      "type": "function"
    },
    {
      "inputs": [],
      "name": "finalizeMetadata",
      "outputs": [],
      "stateMutability": "nonpayable",
      "type": "function"
    },
    {
      "inputs": [],
      "name": "finalizeTimes",
      "outputs": [],
      "stateMutability": "nonpayable",
      "type": "function"
    },
    {
      "inputs": [
        {
          "internalType": "uint256",
          "name": "tokenId",
          "type": "uint256"
        }
      ],
      "name": "getApproved",
      "outputs": [
        {
          "internalType": "address",
          "name": "",
          "type": "address"
        }
      ],
      "stateMutability": "view",
      "type": "function"
    },
    {
      "inputs": [
        {
          "internalType": "bytes32",
          "name": "role",
          "type": "bytes32"
        }
      ],
      "name": "getRoleAdmin",
      "outputs": [
        {
          "internalType": "bytes32",
          "name": "",
          "type": "bytes32"
        }
      ],
      "stateMutability": "view",
      "type": "function"
    },
    {
      "inputs": [
        {
          "internalType": "bytes32",
          "name": "role",
          "type": "bytes32"
        },
        {
          "internalType": "address",
          "name": "account",
          "type": "address"
        }
      ],
      "name": "grantRole",
      "outputs": [],
      "stateMutability": "nonpayable",
      "type": "function"
    },
    {
      "inputs": [
        {
          "internalType": "bytes32",
          "name": "role",
          "type": "bytes32"
        },
        {
          "internalType": "address",
          "name": "account",
          "type": "address"
        }
      ],
      "name": "hasRole",
      "outputs": [
        {
          "internalType": "bool",
          "name": "",
          "type": "bool"
        }
      ],
      "stateMutability": "view",
      "type": "function"
    },
    {
      "inputs": [
        {
          "internalType": "address",
          "name": "owner",
          "type": "address"
        },
        {
          "internalType": "address",
          "name": "operator",
          "type": "address"
        }
      ],
      "name": "isApprovedForAll",
      "outputs": [
        {
          "internalType": "bool",
          "name": "",
          "type": "bool"
        }
      ],
      "stateMutability": "view",
      "type": "function"
    },
    {
      "inputs": [],
      "name": "isPublicSaleActive",
      "outputs": [
        {
          "internalType": "bool",
          "name": "",
          "type": "bool"
        }
      ],
      "stateMutability": "view",
      "type": "function"
    },
    {
      "inputs": [],
      "name": "isWhitelistSaleActive",
      "outputs": [
        {
          "internalType": "bool",
          "name": "",
          "type": "bool"
        }
      ],
      "stateMutability": "view",
      "type": "function"
    },
    {
      "inputs": [],
      "name": "listsFinalized",
      "outputs": [
        {
          "internalType": "bool",
          "name": "",
          "type": "bool"
        }
      ],
      "stateMutability": "view",
      "type": "function"
    },
    {
      "inputs": [],
      "name": "metadataFinalized",
      "outputs": [
        {
          "internalType": "bool",
          "name": "",
          "type": "bool"
        }
      ],
      "stateMutability": "view",
      "type": "function"
    },
    {
      "inputs": [
        {
          "internalType": "uint256",
          "name": "quantity",
          "type": "uint256"
        }
      ],
      "name": "mint",
      "outputs": [],
      "stateMutability": "payable",
      "type": "function"
    },
    {
      "inputs": [],
      "name": "name",
      "outputs": [
        {
          "internalType": "string",
          "name": "",
          "type": "string"
        }
      ],
      "stateMutability": "view",
      "type": "function"
    },
    {
      "inputs": [],
      "name": "owner",
      "outputs": [
        {
          "internalType": "address",
          "name": "",
          "type": "address"
        }
      ],
      "stateMutability": "view",
      "type": "function"
    },
    {
      "inputs": [
        {
          "internalType": "uint256",
          "name": "tokenId",
          "type": "uint256"
        }
      ],
      "name": "ownerOf",
      "outputs": [
        {
          "internalType": "address",
          "name": "",
          "type": "address"
        }
      ],
      "stateMutability": "view",
      "type": "function"
    },
    {
      "inputs": [],
      "name": "publicEnd",
      "outputs": [
        {
          "internalType": "uint256",
          "name": "",
          "type": "uint256"
        }
      ],
      "stateMutability": "view",
      "type": "function"
    },
    {
      "inputs": [],
      "name": "publicStart",
      "outputs": [
        {
          "internalType": "uint256",
          "name": "",
          "type": "uint256"
        }
      ],
      "stateMutability": "view",
      "type": "function"
    },
    {
      "inputs": [],
      "name": "renounceOwnership",
      "outputs": [],
      "stateMutability": "nonpayable",
      "type": "function"
    },
    {
      "inputs": [
        {
          "internalType": "bytes32",
          "name": "role",
          "type": "bytes32"
        },
        {
          "internalType": "address",
          "name": "account",
          "type": "address"
        }
      ],
      "name": "renounceRole",
      "outputs": [],
      "stateMutability": "nonpayable",
      "type": "function"
    },
    {
      "inputs": [],
      "name": "revealed",
      "outputs": [
        {
          "internalType": "bool",
          "name": "",
          "type": "bool"
        }
      ],
      "stateMutability": "view",
      "type": "function"
    },
    {
      "inputs": [
        {
          "internalType": "bytes32",
          "name": "role",
          "type": "bytes32"
        },
        {
          "internalType": "address",
          "name": "account",
          "type": "address"
        }
      ],
      "name": "revokeRole",
      "outputs": [],
      "stateMutability": "nonpayable",
      "type": "function"
    },
    {
      "inputs": [
        {
          "internalType": "address",
          "name": "from",
          "type": "address"
        },
        {
          "internalType": "address",
          "name": "to",
          "type": "address"
        },
        {
          "internalType": "uint256",
          "name": "tokenId",
          "type": "uint256"
        }
      ],
      "name": "safeTransferFrom",
      "outputs": [],
      "stateMutability": "nonpayable",
      "type": "function"
    },
    {
      "inputs": [
        {
          "internalType": "address",
          "name": "from",
          "type": "address"
        },
        {
          "internalType": "address",
          "name": "to",
          "type": "address"
        },
        {
          "internalType": "uint256",
          "name": "tokenId",
          "type": "uint256"
        },
        {
          "internalType": "bytes",
          "name": "_data",
          "type": "bytes"
        }
      ],
      "name": "safeTransferFrom",
      "outputs": [],
      "stateMutability": "nonpayable",
      "type": "function"
    },
    {
      "inputs": [],
      "name": "senderIsAdmin",
      "outputs": [
        {
          "internalType": "bool",
          "name": "",
          "type": "bool"
        }
      ],
      "stateMutability": "view",
      "type": "function"
    },
    {
      "inputs": [],
      "name": "senderIsMod",
      "outputs": [
        {
          "internalType": "bool",
          "name": "",
          "type": "bool"
        }
      ],
      "stateMutability": "view",
      "type": "function"
    },
    {
      "inputs": [
        {
          "internalType": "address",
          "name": "operator",
          "type": "address"
        },
        {
          "internalType": "bool",
          "name": "approved",
          "type": "bool"
        }
      ],
      "name": "setApprovalForAll",
      "outputs": [],
      "stateMutability": "nonpayable",
      "type": "function"
    },
    {
      "inputs": [
        {
          "internalType": "string",
          "name": "baseUri",
          "type": "string"
        }
      ],
      "name": "setBaseURI",
      "outputs": [],
      "stateMutability": "nonpayable",
      "type": "function"
    },
    {
      "inputs": [
        {
          "internalType": "string",
          "name": "tempUri",
          "type": "string"
        }
      ],
      "name": "setPlaceholderURI",
      "outputs": [],
      "stateMutability": "nonpayable",
      "type": "function"
    },
    {
      "inputs": [
        {
          "internalType": "uint256",
          "name": "_publicStartTime",
          "type": "uint256"
        },
        {
          "internalType": "uint256",
          "name": "_publicEndTime",
          "type": "uint256"
        }
      ],
      "name": "setPublicSaleTimes",
      "outputs": [],
      "stateMutability": "nonpayable",
      "type": "function"
    },
    {
      "inputs": [
        {
          "internalType": "bytes32",
          "name": "root",
          "type": "bytes32"
        }
      ],
      "name": "setWhitelistMerkleRoot",
      "outputs": [],
      "stateMutability": "nonpayable",
      "type": "function"
    },
    {
      "inputs": [
        {
          "internalType": "uint256",
          "name": "_whitelistStartTime",
          "type": "uint256"
        },
        {
          "internalType": "uint256",
          "name": "_whitelistEndTime",
          "type": "uint256"
        }
      ],
      "name": "setWhitelistTimes",
      "outputs": [],
      "stateMutability": "nonpayable",
      "type": "function"
    },
    {
      "inputs": [
        {
          "internalType": "bytes4",
          "name": "interfaceId",
          "type": "bytes4"
        }
      ],
      "name": "supportsInterface",
      "outputs": [
        {
          "internalType": "bool",
          "name": "",
          "type": "bool"
        }
      ],
      "stateMutability": "view",
      "type": "function"
    },
    {
      "inputs": [],
      "name": "symbol",
      "outputs": [
        {
          "internalType": "string",
          "name": "",
          "type": "string"
        }
      ],
      "stateMutability": "view",
      "type": "function"
    },
    {
      "inputs": [],
      "name": "timesFinalized",
      "outputs": [
        {
          "internalType": "bool",
          "name": "",
          "type": "bool"
        }
      ],
      "stateMutability": "view",
      "type": "function"
    },
    {
      "inputs": [],
      "name": "togglePublic",
      "outputs": [],
      "stateMutability": "nonpayable",
      "type": "function"
    },
    {
      "inputs": [],
      "name": "toggleReveal",
      "outputs": [],
      "stateMutability": "nonpayable",
      "type": "function"
    },
    {
      "inputs": [],
      "name": "toggleWhitelistSale",
      "outputs": [],
      "stateMutability": "nonpayable",
      "type": "function"
    },
    {
      "inputs": [
        {
          "internalType": "uint256",
          "name": "id",
          "type": "uint256"
        }
      ],
      "name": "tokenURI",
      "outputs": [
        {
          "internalType": "string",
          "name": "",
          "type": "string"
        }
      ],
      "stateMutability": "view",
      "type": "function"
    },
    {
      "inputs": [],
      "name": "totalSupply",
      "outputs": [
        {
          "internalType": "uint256",
          "name": "",
          "type": "uint256"
        }
      ],
      "stateMutability": "view",
      "type": "function"
    },
    {
      "inputs": [
        {
          "internalType": "address",
          "name": "from",
          "type": "address"
        },
        {
          "internalType": "address",
          "name": "to",
          "type": "address"
        },
        {
          "internalType": "uint256",
          "name": "tokenId",
          "type": "uint256"
        }
      ],
      "name": "transferFrom",
      "outputs": [],
      "stateMutability": "nonpayable",
      "type": "function"
    },
    {
      "inputs": [
        {
          "internalType": "address",
          "name": "newOwner",
          "type": "address"
        }
      ],
      "name": "transferOwnership",
      "outputs": [],
      "stateMutability": "nonpayable",
      "type": "function"
    },
    {
      "inputs": [
        {
          "internalType": "bytes32[]",
          "name": "_merkleProof",
          "type": "bytes32[]"
        },
        {
          "internalType": "address",
          "name": "addr",
          "type": "address"
        }
      ],
      "name": "verifyWhitelist",
      "outputs": [
        {
          "internalType": "bool",
          "name": "",
          "type": "bool"
        }
      ],
      "stateMutability": "view",
      "type": "function"
    },
    {
      "inputs": [],
      "name": "whitelistEnd",
      "outputs": [
        {
          "internalType": "uint256",
          "name": "",
          "type": "uint256"
        }
      ],
      "stateMutability": "view",
      "type": "function"
    },
    {
      "inputs": [],
      "name": "whitelistMerkleRoot",
      "outputs": [
        {
          "internalType": "bytes32",
          "name": "",
          "type": "bytes32"
        }
      ],
      "stateMutability": "view",
      "type": "function"
    },
    {
      "inputs": [
        {
          "internalType": "bytes32[]",
          "name": "_merkleProof",
          "type": "bytes32[]"
        }
      ],
      "name": "whitelistMint",
      "outputs": [],
      "stateMutability": "nonpayable",
      "type": "function"
    },
    {
      "inputs": [],
      "name": "whitelistStart",
      "outputs": [
        {
          "internalType": "uint256",
          "name": "",
          "type": "uint256"
        }
      ],
      "stateMutability": "view",
      "type": "function"
    }
  ],
  "bytecode": "0x60806040527fa49807205ce4d355092ef5a8a18f56e8913cf4a201fbe287825b095693c217756009557f950b8f2d7415defaee398bb4898e8e094a64c725873b81952b7ab9f08d70efb3600a553480156200005957600080fd5b5060405162005bff38038062005bff83398181016040528101906200007f9190620006c1565b81816040518060400160405280600b81526020017f54656d706c6174654e46540000000000000000000000000000000000000000008152506040518060400160405280600381526020017f544654000000000000000000000000000000000000000000000000000000000081525081600290805190602001906200010592919062000439565b5080600390805190602001906200011e92919062000439565b50505081600b8190555080600e90805190602001906200014092919062000439565b506107084262000151919062000760565b60108190555061384060105462000169919062000760565b6011819055506011546012819055506138406012546200018a919062000760565b6013819055506000620001a2620001f860201b60201c565b9050620001b96000801b826200020060201b60201c565b620001cd600954826200020060201b60201c565b505050620001f0620001e4620001f860201b60201c565b6200021660201b60201c565b505062000821565b600033905090565b620002128282620002dc60201b60201c565b5050565b6000601460009054906101000a900473ffffffffffffffffffffffffffffffffffffffff16905081601460006101000a81548173ffffffffffffffffffffffffffffffffffffffff021916908373ffffffffffffffffffffffffffffffffffffffff1602179055508173ffffffffffffffffffffffffffffffffffffffff168173ffffffffffffffffffffffffffffffffffffffff167f8be0079c531659141344cd1fd0a4f28419497f9722a3daafe3b4186f6b6457e060405160405180910390a35050565b620002ee8282620003ce60201b60201c565b620003ca5760016008600084815260200190815260200160002060000160008373ffffffffffffffffffffffffffffffffffffffff1673ffffffffffffffffffffffffffffffffffffffff16815260200190815260200160002060006101000a81548160ff0219169083151502179055506200036f620001f860201b60201c565b73ffffffffffffffffffffffffffffffffffffffff168173ffffffffffffffffffffffffffffffffffffffff16837f2f8788117e7eff1d82e926ec794901d17c78024a50270940304540a733656f0d60405160405180910390a45b5050565b60006008600084815260200190815260200160002060000160008373ffffffffffffffffffffffffffffffffffffffff1673ffffffffffffffffffffffffffffffffffffffff16815260200190815260200160002060009054906101000a900460ff16905092915050565b8280546200044790620007ec565b90600052602060002090601f0160209004810192826200046b5760008555620004b7565b82601f106200048657805160ff1916838001178555620004b7565b82800160010185558215620004b7579182015b82811115620004b657825182559160200191906001019062000499565b5b509050620004c69190620004ca565b5090565b5b80821115620004e5576000816000905550600101620004cb565b5090565b6000604051905090565b600080fd5b600080fd5b6000819050919050565b6200051281620004fd565b81146200051e57600080fd5b50565b600081519050620005328162000507565b92915050565b600080fd5b600080fd5b6000601f19601f8301169050919050565b7f4e487b7100000000000000000000000000000000000000000000000000000000600052604160045260246000fd5b6200058d8262000542565b810181811067ffffffffffffffff82111715620005af57620005ae62000553565b5b80604052505050565b6000620005c4620004e9565b9050620005d2828262000582565b919050565b600067ffffffffffffffff821115620005f557620005f462000553565b5b620006008262000542565b9050602081019050919050565b60005b838110156200062d57808201518184015260208101905062000610565b838111156200063d576000848401525b50505050565b60006200065a6200065484620005d7565b620005b8565b9050828152602081018484840111156200067957620006786200053d565b5b620006868482856200060d565b509392505050565b600082601f830112620006a657620006a562000538565b5b8151620006b884826020860162000643565b91505092915050565b60008060408385031215620006db57620006da620004f3565b5b6000620006eb8582860162000521565b925050602083015167ffffffffffffffff8111156200070f576200070e620004f8565b5b6200071d858286016200068e565b9150509250929050565b6000819050919050565b7f4e487b7100000000000000000000000000000000000000000000000000000000600052601160045260246000fd5b60006200076d8262000727565b91506200077a8362000727565b9250827fffffffffffffffffffffffffffffffffffffffffffffffffffffffffffffffff03821115620007b257620007b162000731565b5b828201905092915050565b7f4e487b7100000000000000000000000000000000000000000000000000000000600052602260045260246000fd5b600060028204905060018216806200080557607f821691505b6020821081036200081b576200081a620007bd565b5b50919050565b6153ce80620008316000396000f3fe6080604052600436106103355760003560e01c80638da5cb5b116101ab578063a7844762116100f7578063cf9f8e2111610095578063e932406f1161006f578063e932406f14610b8b578063e985e9c514610bb6578063f2fde38b14610bf3578063f4a560a514610c1c57610335565b8063cf9f8e2114610b20578063d4dd7b8114610b4b578063d547741f14610b6257610335565b8063b98451cf116100d1578063b98451cf14610a64578063bd32fb6614610a8f578063bfb6e0e714610ab8578063c87b56dd14610ae357610335565b8063a7844762146109e5578063aa98e0c614610a10578063b88d4fde14610a3b57610335565b8063994d396911610164578063a1afe1681161013e578063a1afe1681461093d578063a217fddf14610966578063a22cb46514610991578063a5f4c6ff146109ba57610335565b8063994d3969146108cb57806399c9c36d146108f6578063a0712d681461092157610335565b80638da5cb5b146107cd57806391943708146107f857806391d1485414610823578063955e16af1461086057806395d89b4114610889578063981d8771146108b457610335565b80633574a2dd1161028557806359eda1b5116102235780636352211e116101fd5780636352211e1461071157806370a082311461074e578063715018a61461078b57806375b238fc146107a257610335565b806359eda1b5146106b85780635b8ad429146106cf578063621d388c146106e657610335565b806342842e0e1161025f57806342842e0e14610624578063518302271461064d57806355f804b31461067857806356f07a3e146106a157610335565b80633574a2dd146105a957806336568abe146105d2578063372f657c146105fb57610335565b806318ff357e116102f257806323b872dd116102cc57806323b872dd146104ef578063248a9ca3146105185780632f2ff15d14610555578063305ac3671461057e57610335565b806318ff357e1461045e5780631e84c4131461049b57806321860a05146104c657610335565b806301ffc9a71461033a57806306fdde0314610377578063081812fc146103a2578063095ea7b3146103df5780630acae9a71461040857806318160ddd14610433575b600080fd5b34801561034657600080fd5b50610361600480360381019061035c9190613e71565b610c33565b60405161036e9190613eb9565b60405180910390f35b34801561038357600080fd5b5061038c610c45565b6040516103999190613f6d565b60405180910390f35b3480156103ae57600080fd5b506103c960048036038101906103c49190613fc5565b610cd7565b6040516103d69190614033565b60405180910390f35b3480156103eb57600080fd5b506104066004803603810190610401919061407a565b610d53565b005b34801561041457600080fd5b5061041d610e5d565b60405161042a91906140c9565b60405180910390f35b34801561043f57600080fd5b50610448610e63565b60405161045591906140c9565b60405180910390f35b34801561046a57600080fd5b5061048560048036038101906104809190614149565b610e71565b6040516104929190613eb9565b60405180910390f35b3480156104a757600080fd5b506104b0610e8a565b6040516104bd9190613eb9565b60405180910390f35b3480156104d257600080fd5b506104ed60048036038101906104e891906141a9565b610ec2565b005b3480156104fb57600080fd5b50610516600480360381019061051191906141d6565b610fad565b005b34801561052457600080fd5b5061053f600480360381019061053a919061425f565b610fbd565b60405161054c919061429b565b60405180910390f35b34801561056157600080fd5b5061057c600480360381019061057791906142b6565b610fdd565b005b34801561058a57600080fd5b50610593611006565b6040516105a09190613eb9565b60405180910390f35b3480156105b557600080fd5b506105d060048036038101906105cb9190614426565b611019565b005b3480156105de57600080fd5b506105f960048036038101906105f491906142b6565b6110f5565b005b34801561060757600080fd5b50610622600480360381019061061d919061446f565b611178565b005b34801561063057600080fd5b5061064b600480360381019061064691906141d6565b611361565b005b34801561065957600080fd5b50610662611381565b60405161066f9190613eb9565b60405180910390f35b34801561068457600080fd5b5061069f600480360381019061069a9190614426565b611394565b005b3480156106ad57600080fd5b506106b6611470565b005b3480156106c457600080fd5b506106cd61154f565b005b3480156106db57600080fd5b506106e461163d565b005b3480156106f257600080fd5b506106fb61172b565b6040516107089190613eb9565b60405180910390f35b34801561071d57600080fd5b5061073860048036038101906107339190613fc5565b61175e565b6040516107459190614033565b60405180910390f35b34801561075a57600080fd5b50610775600480360381019061077091906141a9565b611774565b60405161078291906140c9565b60405180910390f35b34801561079757600080fd5b506107a0611843565b005b3480156107ae57600080fd5b506107b76118cb565b6040516107c4919061429b565b60405180910390f35b3480156107d957600080fd5b506107e26118d1565b6040516107ef9190614033565b60405180910390f35b34801561080457600080fd5b5061080d6118fb565b60405161081a9190613eb9565b60405180910390f35b34801561082f57600080fd5b5061084a600480360381019061084591906142b6565b61190e565b6040516108579190613eb9565b60405180910390f35b34801561086c57600080fd5b50610887600480360381019061088291906144bc565b611979565b005b34801561089557600080fd5b5061089e611a4d565b6040516108ab9190613f6d565b60405180910390f35b3480156108c057600080fd5b506108c9611adf565b005b3480156108d757600080fd5b506108e0611bcd565b6040516108ed91906140c9565b60405180910390f35b34801561090257600080fd5b5061090b611bd3565b60405161091891906140c9565b60405180910390f35b61093b60048036038101906109369190613fc5565b611bd8565b005b34801561094957600080fd5b50610964600480360381019061095f91906144bc565b611cce565b005b34801561097257600080fd5b5061097b611da2565b604051610988919061429b565b60405180910390f35b34801561099d57600080fd5b506109b860048036038101906109b39190614528565b611da9565b005b3480156109c657600080fd5b506109cf611f20565b6040516109dc91906140c9565b60405180910390f35b3480156109f157600080fd5b506109fa611f26565b604051610a079190613eb9565b60405180910390f35b348015610a1c57600080fd5b50610a25611f40565b604051610a32919061429b565b60405180910390f35b348015610a4757600080fd5b50610a626004803603810190610a5d9190614609565b611f46565b005b348015610a7057600080fd5b50610a79611f99565b604051610a869190613eb9565b60405180910390f35b348015610a9b57600080fd5b50610ab66004803603810190610ab1919061425f565b611fd1565b005b348015610ac457600080fd5b50610acd61209d565b604051610ada91906140c9565b60405180910390f35b348015610aef57600080fd5b50610b0a6004803603810190610b059190613fc5565b6120a3565b604051610b179190613f6d565b60405180910390f35b348015610b2c57600080fd5b50610b356121ca565b604051610b429190613eb9565b60405180910390f35b348015610b5757600080fd5b50610b606121dd565b005b348015610b6e57600080fd5b50610b896004803603810190610b8491906142b6565b6122bc565b005b348015610b9757600080fd5b50610ba06122e5565b604051610bad919061429b565b60405180910390f35b348015610bc257600080fd5b50610bdd6004803603810190610bd8919061468c565b6122eb565b604051610bea9190613eb9565b60405180910390f35b348015610bff57600080fd5b50610c1a6004803603810190610c1591906141a9565b61237f565b005b348015610c2857600080fd5b50610c31612476565b005b6000610c3e82612555565b9050919050565b606060028054610c54906146fb565b80601f0160208091040260200160405190810160405280929190818152602001828054610c80906146fb565b8015610ccd5780601f10610ca257610100808354040283529160200191610ccd565b820191906000526020600020905b815481529060010190602001808311610cb057829003601f168201915b5050505050905090565b6000610ce2826125cf565b610d18576040517fcf4700e400000000000000000000000000000000000000000000000000000000815260040160405180910390fd5b6006600083815260200190815260200160002060009054906101000a900473ffffffffffffffffffffffffffffffffffffffff169050919050565b6000610d5e8261175e565b90508073ffffffffffffffffffffffffffffffffffffffff168373ffffffffffffffffffffffffffffffffffffffff1603610dc5576040517f943f7b8c00000000000000000000000000000000000000000000000000000000815260040160405180910390fd5b8073ffffffffffffffffffffffffffffffffffffffff16610de4612609565b73ffffffffffffffffffffffffffffffffffffffff1614158015610e165750610e1481610e0f612609565b6122eb565b155b15610e4d576040517fcfb3b94200000000000000000000000000000000000000000000000000000000815260040160405180910390fd5b610e58838383612611565b505050565b60135481565b600060015460005403905090565b6000610e818484600b54856126c3565b90509392505050565b6000600f60069054906101000a900460ff1615610eaa5760019050610ebf565b60125442118015610ebc575060135442105b90505b90565b6000610ecc612609565b9050610edb6000801b8261190e565b80610eee5750610eed6009548261190e565b5b610f2d576040517f08c379a0000000000000000000000000000000000000000000000000000000008152600401610f2490614778565b60405180910390fd5b60001515600f60049054906101000a900460ff16151514610f83576040517f08c379a0000000000000000000000000000000000000000000000000000000008152600401610f7a906147e4565b60405180910390fd5b6001600f60046101000a81548160ff021916908315150217905550610fa9826037612748565b5050565b610fb8838383612766565b505050565b600060086000838152602001908152602001600020600101549050919050565b610fe682610fbd565b610ff781610ff2612609565b612c55565b6110018383612cf2565b505050565b600f60009054906101000a900460ff1681565b6000611023612609565b90506110326000801b8261190e565b8061104557506110446009548261190e565b5b611084576040517f08c379a000000000000000000000000000000000000000000000000000000000815260040161107b90614778565b60405180910390fd5b60001515600f60019054906101000a900460ff161515146110da576040517f08c379a00000000000000000000000000000000000000000000000000000000081526004016110d190614850565b60405180910390fd5b81600e90805190602001906110f0929190613d1f565b505050565b6110fd612609565b73ffffffffffffffffffffffffffffffffffffffff168173ffffffffffffffffffffffffffffffffffffffff161461116a576040517f08c379a0000000000000000000000000000000000000000000000000000000008152600401611161906148e2565b60405180910390fd5b6111748282612dd3565b5050565b6000611182612609565b905061118c611f99565b6111cb576040517f08c379a00000000000000000000000000000000000000000000000000000000081526004016111c29061494e565b60405180910390fd5b6111d6838383610e71565b611215576040517f08c379a000000000000000000000000000000000000000000000000000000000815260040161120c906149ba565b60405180910390fd5b61022b6001611222610e63565b61122c9190614a09565b111561126d576040517f08c379a000000000000000000000000000000000000000000000000000000000815260040161126490614aab565b60405180910390fd5b600c60008273ffffffffffffffffffffffffffffffffffffffff1673ffffffffffffffffffffffffffffffffffffffff16815260200190815260200160002060009054906101000a900460ff166112f9576040517f08c379a00000000000000000000000000000000000000000000000000000000081526004016112f090614b17565b60405180910390fd5b6001600c60008373ffffffffffffffffffffffffffffffffffffffff1673ffffffffffffffffffffffffffffffffffffffff16815260200190815260200160002060006101000a81548160ff02191690831515021790555061135c816001612748565b505050565b61137c83838360405180602001604052806000815250611f46565b505050565b600f60039054906101000a900460ff1681565b600061139e612609565b90506113ad6000801b8261190e565b806113c057506113bf6009548261190e565b5b6113ff576040517f08c379a00000000000000000000000000000000000000000000000000000000081526004016113f690614778565b60405180910390fd5b60001515600f60019054906101000a900460ff16151514611455576040517f08c379a000000000000000000000000000000000000000000000000000000000815260040161144c90614850565b60405180910390fd5b81600d908051906020019061146b929190613d1f565b505050565b600061147a612609565b90506114896000801b8261190e565b8061149c575061149b6009548261190e565b5b6114db576040517f08c379a00000000000000000000000000000000000000000000000000000000081526004016114d290614778565b60405180910390fd5b60001515600f60029054906101000a900460ff16151514611531576040517f08c379a000000000000000000000000000000000000000000000000000000000815260040161152890614b83565b60405180910390fd5b6001600f60026101000a81548160ff02191690831515021790555050565b6000611559612609565b90506115686000801b8261190e565b8061157b575061157a6009548261190e565b5b6115ba576040517f08c379a00000000000000000000000000000000000000000000000000000000081526004016115b190614778565b60405180910390fd5b60001515600f60029054906101000a900460ff16151514611610576040517f08c379a000000000000000000000000000000000000000000000000000000000815260040161160790614b83565b60405180910390fd5b600f60059054906101000a900460ff1615600f60056101000a81548160ff02191690831515021790555050565b6000611647612609565b90506116566000801b8261190e565b8061166957506116686009548261190e565b5b6116a8576040517f08c379a000000000000000000000000000000000000000000000000000000000815260040161169f90614778565b60405180910390fd5b60001515600f60019054906101000a900460ff161515146116fe576040517f08c379a00000000000000000000000000000000000000000000000000000000081526004016116f590614850565b60405180910390fd5b600f60039054906101000a900460ff1615600f60036101000a81548160ff02191690831515021790555050565b600080611736612609565b90506117446009548261190e565b8061175857506117576000801b8261190e565b5b91505090565b600061176982612eb5565b600001519050919050565b60008073ffffffffffffffffffffffffffffffffffffffff168273ffffffffffffffffffffffffffffffffffffffff16036117db576040517f8f4eb60400000000000000000000000000000000000000000000000000000000815260040160405180910390fd5b600560008373ffffffffffffffffffffffffffffffffffffffff1673ffffffffffffffffffffffffffffffffffffffff16815260200190815260200160002060000160009054906101000a900467ffffffffffffffff1667ffffffffffffffff169050919050565b61184b612609565b73ffffffffffffffffffffffffffffffffffffffff166118696118d1565b73ffffffffffffffffffffffffffffffffffffffff16146118bf576040517f08c379a00000000000000000000000000000000000000000000000000000000081526004016118b690614bef565b60405180910390fd5b6118c96000613131565b565b60095481565b6000601460009054906101000a900473ffffffffffffffffffffffffffffffffffffffff16905090565b600f60019054906101000a900460ff1681565b60006008600084815260200190815260200160002060000160008373ffffffffffffffffffffffffffffffffffffffff1673ffffffffffffffffffffffffffffffffffffffff16815260200190815260200160002060009054906101000a900460ff16905092915050565b6000611983612609565b90506119926000801b8261190e565b806119a557506119a46009548261190e565b5b6119e4576040517f08c379a00000000000000000000000000000000000000000000000000000000081526004016119db90614778565b60405180910390fd5b60001515600f60029054906101000a900460ff16151514611a3a576040517f08c379a0000000000000000000000000000000000000000000000000000000008152600401611a3190614b83565b60405180910390fd5b8260128190555081601381905550505050565b606060038054611a5c906146fb565b80601f0160208091040260200160405190810160405280929190818152602001828054611a88906146fb565b8015611ad55780601f10611aaa57610100808354040283529160200191611ad5565b820191906000526020600020905b815481529060010190602001808311611ab857829003601f168201915b5050505050905090565b6000611ae9612609565b9050611af86000801b8261190e565b80611b0b5750611b0a6009548261190e565b5b611b4a576040517f08c379a0000000000000000000000000000000000000000000000000000000008152600401611b4190614778565b60405180910390fd5b60001515600f60029054906101000a900460ff16151514611ba0576040517f08c379a0000000000000000000000000000000000000000000000000000000008152600401611b9790614b83565b60405180910390fd5b600f60069054906101000a900460ff1615600f60066101000a81548160ff02191690831515021790555050565b60105481565b603781565b611be0610e8a565b611c1f576040517f08c379a0000000000000000000000000000000000000000000000000000000008152600401611c1690614c5b565b60405180910390fd5b6002811115611c63576040517f08c379a0000000000000000000000000000000000000000000000000000000008152600401611c5a90614cc7565b60405180910390fd5b61022b81611c6f610e63565b611c799190614a09565b1115611cba576040517f08c379a0000000000000000000000000000000000000000000000000000000008152600401611cb190614aab565b60405180910390fd5b611ccb611cc5612609565b82612748565b50565b6000611cd8612609565b9050611ce76000801b8261190e565b80611cfa5750611cf96009548261190e565b5b611d39576040517f08c379a0000000000000000000000000000000000000000000000000000000008152600401611d3090614778565b60405180910390fd5b60001515600f60029054906101000a900460ff16151514611d8f576040517f08c379a0000000000000000000000000000000000000000000000000000000008152600401611d8690614b83565b60405180910390fd5b8260108190555081601181905550505050565b6000801b81565b611db1612609565b73ffffffffffffffffffffffffffffffffffffffff168273ffffffffffffffffffffffffffffffffffffffff1603611e15576040517fb06307db00000000000000000000000000000000000000000000000000000000815260040160405180910390fd5b8060076000611e22612609565b73ffffffffffffffffffffffffffffffffffffffff1673ffffffffffffffffffffffffffffffffffffffff16815260200190815260200160002060008473ffffffffffffffffffffffffffffffffffffffff1673ffffffffffffffffffffffffffffffffffffffff16815260200190815260200160002060006101000a81548160ff0219169083151502179055508173ffffffffffffffffffffffffffffffffffffffff16611ecf612609565b73ffffffffffffffffffffffffffffffffffffffff167f17307eab39ab6107e8899845ad3d59bd9653f200f220920489ca2b5937696c3183604051611f149190613eb9565b60405180910390a35050565b60125481565b6000611f3b600a54611f36612609565b61190e565b905090565b600b5481565b611f51848484612766565b611f5d848484846131f7565b611f93576040517fd1a57ed600000000000000000000000000000000000000000000000000000000815260040160405180910390fd5b50505050565b6000600f60059054906101000a900460ff1615611fb95760019050611fce565b60105442118015611fcb575060115442105b90505b90565b6000611fdb612609565b9050611fea6000801b8261190e565b80611ffd5750611ffc6009548261190e565b5b61203c576040517f08c379a000000000000000000000000000000000000000000000000000000000815260040161203390614778565b60405180910390fd5b60001515600f60009054906101000a900460ff16151514612092576040517f08c379a000000000000000000000000000000000000000000000000000000000815260040161208990614d33565b60405180910390fd5b81600b819055505050565b60115481565b60606120ae826125cf565b6120ed576040517f08c379a00000000000000000000000000000000000000000000000000000000081526004016120e490614d9f565b60405180910390fd5b600f60039054906101000a900460ff1661219157600e805461210e906146fb565b80601f016020809104026020016040519081016040528092919081815260200182805461213a906146fb565b80156121875780601f1061215c57610100808354040283529160200191612187565b820191906000526020600020905b81548152906001019060200180831161216a57829003601f168201915b50505050506121c3565b612199613375565b6121a283613407565b6040516020016121b3929190614e47565b6040516020818303038152906040525b9050919050565b600f60029054906101000a900460ff1681565b60006121e7612609565b90506121f66000801b8261190e565b8061220957506122086009548261190e565b5b612248576040517f08c379a000000000000000000000000000000000000000000000000000000000815260040161223f90614778565b60405180910390fd5b60001515600f60009054906101000a900460ff1615151461229e576040517f08c379a000000000000000000000000000000000000000000000000000000000815260040161229590614d33565b60405180910390fd5b6001600f60006101000a81548160ff02191690831515021790555050565b6122c582610fbd565b6122d6816122d1612609565b612c55565b6122e08383612dd3565b505050565b600a5481565b6000600760008473ffffffffffffffffffffffffffffffffffffffff1673ffffffffffffffffffffffffffffffffffffffff16815260200190815260200160002060008373ffffffffffffffffffffffffffffffffffffffff1673ffffffffffffffffffffffffffffffffffffffff16815260200190815260200160002060009054906101000a900460ff16905092915050565b612387612609565b73ffffffffffffffffffffffffffffffffffffffff166123a56118d1565b73ffffffffffffffffffffffffffffffffffffffff16146123fb576040517f08c379a00000000000000000000000000000000000000000000000000000000081526004016123f290614bef565b60405180910390fd5b600073ffffffffffffffffffffffffffffffffffffffff168173ffffffffffffffffffffffffffffffffffffffff160361246a576040517f08c379a000000000000000000000000000000000000000000000000000000000815260040161246190614ee8565b60405180910390fd5b61247381613131565b50565b6000612480612609565b905061248f6000801b8261190e565b806124a257506124a16009548261190e565b5b6124e1576040517f08c379a00000000000000000000000000000000000000000000000000000000081526004016124d890614778565b60405180910390fd5b60001515600f60019054906101000a900460ff16151514612537576040517f08c379a000000000000000000000000000000000000000000000000000000000815260040161252e90614850565b60405180910390fd5b6001600f60016101000a81548160ff02191690831515021790555050565b60007f7965db0b000000000000000000000000000000000000000000000000000000007bffffffffffffffffffffffffffffffffffffffffffffffffffffffff1916827bffffffffffffffffffffffffffffffffffffffffffffffffffffffff191614806125c857506125c782613567565b5b9050919050565b6000805482108015612602575060046000838152602001908152602001600020600001601c9054906101000a900460ff16155b9050919050565b600033905090565b826006600084815260200190815260200160002060006101000a81548173ffffffffffffffffffffffffffffffffffffffff021916908373ffffffffffffffffffffffffffffffffffffffff160217905550818373ffffffffffffffffffffffffffffffffffffffff168273ffffffffffffffffffffffffffffffffffffffff167f8c5be1e5ebec7d5bd14f71427d1e84f3dd0314c0f7b2291e5b200ac8c7c3b92560405160405180910390a4505050565b60006001151561273b868680806020026020016040519081016040528093929190818152602001838360200280828437600081840152601f19601f8201169050808301925050505050505085856040516020016127209190614f50565b60405160208183030381529060405280519060200120613649565b1515149050949350505050565b612762828260405180602001604052806000815250613660565b5050565b600061277182612eb5565b90506000816000015173ffffffffffffffffffffffffffffffffffffffff16612798612609565b73ffffffffffffffffffffffffffffffffffffffff1614806127cb57506127ca82600001516127c5612609565b6122eb565b5b8061281057506127d9612609565b73ffffffffffffffffffffffffffffffffffffffff166127f884610cd7565b73ffffffffffffffffffffffffffffffffffffffff16145b905080612849576040517f59c896be00000000000000000000000000000000000000000000000000000000815260040160405180910390fd5b8473ffffffffffffffffffffffffffffffffffffffff16826000015173ffffffffffffffffffffffffffffffffffffffff16146128b2576040517fa114810000000000000000000000000000000000000000000000000000000000815260040160405180910390fd5b600073ffffffffffffffffffffffffffffffffffffffff168473ffffffffffffffffffffffffffffffffffffffff1603612918576040517fea553b3400000000000000000000000000000000000000000000000000000000815260040160405180910390fd5b6129258585856001613672565b6129356000848460000151612611565b6001600560008773ffffffffffffffffffffffffffffffffffffffff1673ffffffffffffffffffffffffffffffffffffffff16815260200190815260200160002060000160008282829054906101000a900467ffffffffffffffff160392506101000a81548167ffffffffffffffff021916908367ffffffffffffffff1602179055506001600560008673ffffffffffffffffffffffffffffffffffffffff1673ffffffffffffffffffffffffffffffffffffffff16815260200190815260200160002060000160008282829054906101000a900467ffffffffffffffff160192506101000a81548167ffffffffffffffff021916908367ffffffffffffffff160217905550836004600085815260200190815260200160002060000160006101000a81548173ffffffffffffffffffffffffffffffffffffffff021916908373ffffffffffffffffffffffffffffffffffffffff160217905550426004600085815260200190815260200160002060000160146101000a81548167ffffffffffffffff021916908367ffffffffffffffff1602179055506000600184019050600073ffffffffffffffffffffffffffffffffffffffff166004600083815260200190815260200160002060000160009054906101000a900473ffffffffffffffffffffffffffffffffffffffff1673ffffffffffffffffffffffffffffffffffffffff1603612be557600054811015612be45782600001516004600083815260200190815260200160002060000160006101000a81548173ffffffffffffffffffffffffffffffffffffffff021916908373ffffffffffffffffffffffffffffffffffffffff16021790555082602001516004600083815260200190815260200160002060000160146101000a81548167ffffffffffffffff021916908367ffffffffffffffff1602179055505b5b50828473ffffffffffffffffffffffffffffffffffffffff168673ffffffffffffffffffffffffffffffffffffffff167fddf252ad1be2c89b69c2b068fc378daa952ba7f163c4a11628f55a4df523b3ef60405160405180910390a4612c4e8585856001613678565b5050505050565b612c5f828261190e565b612cee57612c848173ffffffffffffffffffffffffffffffffffffffff16601461367e565b612c928360001c602061367e565b604051602001612ca3929190615003565b6040516020818303038152906040526040517f08c379a0000000000000000000000000000000000000000000000000000000008152600401612ce59190613f6d565b60405180910390fd5b5050565b612cfc828261190e565b612dcf5760016008600084815260200190815260200160002060000160008373ffffffffffffffffffffffffffffffffffffffff1673ffffffffffffffffffffffffffffffffffffffff16815260200190815260200160002060006101000a81548160ff021916908315150217905550612d74612609565b73ffffffffffffffffffffffffffffffffffffffff168173ffffffffffffffffffffffffffffffffffffffff16837f2f8788117e7eff1d82e926ec794901d17c78024a50270940304540a733656f0d60405160405180910390a45b5050565b612ddd828261190e565b15612eb15760006008600084815260200190815260200160002060000160008373ffffffffffffffffffffffffffffffffffffffff1673ffffffffffffffffffffffffffffffffffffffff16815260200190815260200160002060006101000a81548160ff021916908315150217905550612e56612609565b73ffffffffffffffffffffffffffffffffffffffff168173ffffffffffffffffffffffffffffffffffffffff16837ff6391f5c32d9c69d2a47ea670b442974b53935d1edc7fd64eb21e047a839171b60405160405180910390a45b5050565b612ebd613da5565b60008290506000548110156130fa576000600460008381526020019081526020016000206040518060600160405290816000820160009054906101000a900473ffffffffffffffffffffffffffffffffffffffff1673ffffffffffffffffffffffffffffffffffffffff1673ffffffffffffffffffffffffffffffffffffffff1681526020016000820160149054906101000a900467ffffffffffffffff1667ffffffffffffffff1667ffffffffffffffff16815260200160008201601c9054906101000a900460ff161515151581525050905080604001516130f857600073ffffffffffffffffffffffffffffffffffffffff16816000015173ffffffffffffffffffffffffffffffffffffffff1614612fdc57809250505061312c565b5b6001156130f757818060019003925050600460008381526020019081526020016000206040518060600160405290816000820160009054906101000a900473ffffffffffffffffffffffffffffffffffffffff1673ffffffffffffffffffffffffffffffffffffffff1673ffffffffffffffffffffffffffffffffffffffff1681526020016000820160149054906101000a900467ffffffffffffffff1667ffffffffffffffff1667ffffffffffffffff16815260200160008201601c9054906101000a900460ff1615151515815250509050600073ffffffffffffffffffffffffffffffffffffffff16816000015173ffffffffffffffffffffffffffffffffffffffff16146130f257809250505061312c565b612fdd565b5b505b6040517fdf2d9b4200000000000000000000000000000000000000000000000000000000815260040160405180910390fd5b919050565b6000601460009054906101000a900473ffffffffffffffffffffffffffffffffffffffff16905081601460006101000a81548173ffffffffffffffffffffffffffffffffffffffff021916908373ffffffffffffffffffffffffffffffffffffffff1602179055508173ffffffffffffffffffffffffffffffffffffffff168173ffffffffffffffffffffffffffffffffffffffff167f8be0079c531659141344cd1fd0a4f28419497f9722a3daafe3b4186f6b6457e060405160405180910390a35050565b60006132188473ffffffffffffffffffffffffffffffffffffffff166138ba565b15613368578373ffffffffffffffffffffffffffffffffffffffff1663150b7a02613241612609565b8786866040518563ffffffff1660e01b81526004016132639493929190615092565b6020604051808303816000875af192505050801561329f57506040513d601f19601f8201168201806040525081019061329c91906150f3565b60015b613318573d80600081146132cf576040519150601f19603f3d011682016040523d82523d6000602084013e6132d4565b606091505b506000815103613310576040517fd1a57ed600000000000000000000000000000000000000000000000000000000815260040160405180910390fd5b805181602001fd5b63150b7a0260e01b7bffffffffffffffffffffffffffffffffffffffffffffffffffffffff1916817bffffffffffffffffffffffffffffffffffffffffffffffffffffffff19161491505061336d565b600190505b949350505050565b6060600d8054613384906146fb565b80601f01602080910402602001604051908101604052809291908181526020018280546133b0906146fb565b80156133fd5780601f106133d2576101008083540402835291602001916133fd565b820191906000526020600020905b8154815290600101906020018083116133e057829003601f168201915b5050505050905090565b60606000820361344e576040518060400160405280600181526020017f30000000000000000000000000000000000000000000000000000000000000008152509050613562565b600082905060005b6000821461348057808061346990615120565b915050600a826134799190615197565b9150613456565b60008167ffffffffffffffff81111561349c5761349b6142fb565b5b6040519080825280601f01601f1916602001820160405280156134ce5781602001600182028036833780820191505090505b5090505b6000851461355b576001826134e791906151c8565b9150600a856134f691906151fc565b60306135029190614a09565b60f81b8183815181106135185761351761522d565b5b60200101907effffffffffffffffffffffffffffffffffffffffffffffffffffffffffffff1916908160001a905350600a856135549190615197565b94506134d2565b8093505050505b919050565b60007f80ac58cd000000000000000000000000000000000000000000000000000000007bffffffffffffffffffffffffffffffffffffffffffffffffffffffff1916827bffffffffffffffffffffffffffffffffffffffffffffffffffffffff1916148061363257507f5b5e139f000000000000000000000000000000000000000000000000000000007bffffffffffffffffffffffffffffffffffffffffffffffffffffffff1916827bffffffffffffffffffffffffffffffffffffffffffffffffffffffff1916145b806136425750613641826138cd565b5b9050919050565b6000826136568584613937565b1490509392505050565b61366d83838360016139ea565b505050565b50505050565b50505050565b606060006002836002613691919061525c565b61369b9190614a09565b67ffffffffffffffff8111156136b4576136b36142fb565b5b6040519080825280601f01601f1916602001820160405280156136e65781602001600182028036833780820191505090505b5090507f30000000000000000000000000000000000000000000000000000000000000008160008151811061371e5761371d61522d565b5b60200101907effffffffffffffffffffffffffffffffffffffffffffffffffffffffffffff1916908160001a9053507f7800000000000000000000000000000000000000000000000000000000000000816001815181106137825761378161522d565b5b60200101907effffffffffffffffffffffffffffffffffffffffffffffffffffffffffffff1916908160001a905350600060018460026137c2919061525c565b6137cc9190614a09565b90505b600181111561386c577f3031323334353637383961626364656600000000000000000000000000000000600f86166010811061380e5761380d61522d565b5b1a60f81b8282815181106138255761382461522d565b5b60200101907effffffffffffffffffffffffffffffffffffffffffffffffffffffffffffff1916908160001a905350600485901c945080613865906152b6565b90506137cf565b50600084146138b0576040517f08c379a00000000000000000000000000000000000000000000000000000000081526004016138a79061532b565b60405180910390fd5b8091505092915050565b600080823b905060008111915050919050565b60007f01ffc9a7000000000000000000000000000000000000000000000000000000007bffffffffffffffffffffffffffffffffffffffffffffffffffffffff1916827bffffffffffffffffffffffffffffffffffffffffffffffffffffffff1916149050919050565b60008082905060005b84518110156139df57600085828151811061395e5761395d61522d565b5b6020026020010151905080831161399f57828160405160200161398292919061536c565b6040516020818303038152906040528051906020012092506139cb565b80836040516020016139b292919061536c565b6040516020818303038152906040528051906020012092505b5080806139d790615120565b915050613940565b508091505092915050565b600080549050600073ffffffffffffffffffffffffffffffffffffffff168573ffffffffffffffffffffffffffffffffffffffff1603613a56576040517f2e07630000000000000000000000000000000000000000000000000000000000815260040160405180910390fd5b60008403613a90576040517fb562e8dd00000000000000000000000000000000000000000000000000000000815260040160405180910390fd5b613a9d6000868387613672565b83600560008773ffffffffffffffffffffffffffffffffffffffff1673ffffffffffffffffffffffffffffffffffffffff16815260200190815260200160002060000160008282829054906101000a900467ffffffffffffffff160192506101000a81548167ffffffffffffffff021916908367ffffffffffffffff16021790555083600560008773ffffffffffffffffffffffffffffffffffffffff1673ffffffffffffffffffffffffffffffffffffffff16815260200190815260200160002060000160088282829054906101000a900467ffffffffffffffff160192506101000a81548167ffffffffffffffff021916908367ffffffffffffffff160217905550846004600083815260200190815260200160002060000160006101000a81548173ffffffffffffffffffffffffffffffffffffffff021916908373ffffffffffffffffffffffffffffffffffffffff160217905550426004600083815260200190815260200160002060000160146101000a81548167ffffffffffffffff021916908367ffffffffffffffff160217905550600081905060005b85811015613d0257818773ffffffffffffffffffffffffffffffffffffffff16600073ffffffffffffffffffffffffffffffffffffffff167fddf252ad1be2c89b69c2b068fc378daa952ba7f163c4a11628f55a4df523b3ef60405160405180910390a4838015613cb65750613cb460008884886131f7565b155b15613ced576040517fd1a57ed600000000000000000000000000000000000000000000000000000000815260040160405180910390fd5b81806001019250508080600101915050613c3b565b508060008190555050613d186000868387613678565b5050505050565b828054613d2b906146fb565b90600052602060002090601f016020900481019282613d4d5760008555613d94565b82601f10613d6657805160ff1916838001178555613d94565b82800160010185558215613d94579182015b82811115613d93578251825591602001919060010190613d78565b5b509050613da19190613de8565b5090565b6040518060600160405280600073ffffffffffffffffffffffffffffffffffffffff168152602001600067ffffffffffffffff1681526020016000151581525090565b5b80821115613e01576000816000905550600101613de9565b5090565b6000604051905090565b600080fd5b600080fd5b60007fffffffff0000000000000000000000000000000000000000000000000000000082169050919050565b613e4e81613e19565b8114613e5957600080fd5b50565b600081359050613e6b81613e45565b92915050565b600060208284031215613e8757613e86613e0f565b5b6000613e9584828501613e5c565b91505092915050565b60008115159050919050565b613eb381613e9e565b82525050565b6000602082019050613ece6000830184613eaa565b92915050565b600081519050919050565b600082825260208201905092915050565b60005b83811015613f0e578082015181840152602081019050613ef3565b83811115613f1d576000848401525b50505050565b6000601f19601f8301169050919050565b6000613f3f82613ed4565b613f498185613edf565b9350613f59818560208601613ef0565b613f6281613f23565b840191505092915050565b60006020820190508181036000830152613f878184613f34565b905092915050565b6000819050919050565b613fa281613f8f565b8114613fad57600080fd5b50565b600081359050613fbf81613f99565b92915050565b600060208284031215613fdb57613fda613e0f565b5b6000613fe984828501613fb0565b91505092915050565b600073ffffffffffffffffffffffffffffffffffffffff82169050919050565b600061401d82613ff2565b9050919050565b61402d81614012565b82525050565b60006020820190506140486000830184614024565b92915050565b61405781614012565b811461406257600080fd5b50565b6000813590506140748161404e565b92915050565b6000806040838503121561409157614090613e0f565b5b600061409f85828601614065565b92505060206140b085828601613fb0565b9150509250929050565b6140c381613f8f565b82525050565b60006020820190506140de60008301846140ba565b92915050565b600080fd5b600080fd5b600080fd5b60008083601f840112614109576141086140e4565b5b8235905067ffffffffffffffff811115614126576141256140e9565b5b602083019150836020820283011115614142576141416140ee565b5b9250929050565b60008060006040848603121561416257614161613e0f565b5b600084013567ffffffffffffffff8111156141805761417f613e14565b5b61418c868287016140f3565b9350935050602061419f86828701614065565b9150509250925092565b6000602082840312156141bf576141be613e0f565b5b60006141cd84828501614065565b91505092915050565b6000806000606084860312156141ef576141ee613e0f565b5b60006141fd86828701614065565b935050602061420e86828701614065565b925050604061421f86828701613fb0565b9150509250925092565b6000819050919050565b61423c81614229565b811461424757600080fd5b50565b60008135905061425981614233565b92915050565b60006020828403121561427557614274613e0f565b5b60006142838482850161424a565b91505092915050565b61429581614229565b82525050565b60006020820190506142b0600083018461428c565b92915050565b600080604083850312156142cd576142cc613e0f565b5b60006142db8582860161424a565b92505060206142ec85828601614065565b9150509250929050565b600080fd5b7f4e487b7100000000000000000000000000000000000000000000000000000000600052604160045260246000fd5b61433382613f23565b810181811067ffffffffffffffff82111715614352576143516142fb565b5b80604052505050565b6000614365613e05565b9050614371828261432a565b919050565b600067ffffffffffffffff821115614391576143906142fb565b5b61439a82613f23565b9050602081019050919050565b82818337600083830152505050565b60006143c96143c484614376565b61435b565b9050828152602081018484840111156143e5576143e46142f6565b5b6143f08482856143a7565b509392505050565b600082601f83011261440d5761440c6140e4565b5b813561441d8482602086016143b6565b91505092915050565b60006020828403121561443c5761443b613e0f565b5b600082013567ffffffffffffffff81111561445a57614459613e14565b5b614466848285016143f8565b91505092915050565b6000806020838503121561448657614485613e0f565b5b600083013567ffffffffffffffff8111156144a4576144a3613e14565b5b6144b0858286016140f3565b92509250509250929050565b600080604083850312156144d3576144d2613e0f565b5b60006144e185828601613fb0565b92505060206144f285828601613fb0565b9150509250929050565b61450581613e9e565b811461451057600080fd5b50565b600081359050614522816144fc565b92915050565b6000806040838503121561453f5761453e613e0f565b5b600061454d85828601614065565b925050602061455e85828601614513565b9150509250929050565b600067ffffffffffffffff821115614583576145826142fb565b5b61458c82613f23565b9050602081019050919050565b60006145ac6145a784614568565b61435b565b9050828152602081018484840111156145c8576145c76142f6565b5b6145d38482856143a7565b509392505050565b600082601f8301126145f0576145ef6140e4565b5b8135614600848260208601614599565b91505092915050565b6000806000806080858703121561462357614622613e0f565b5b600061463187828801614065565b945050602061464287828801614065565b935050604061465387828801613fb0565b925050606085013567ffffffffffffffff81111561467457614673613e14565b5b614680878288016145db565b91505092959194509250565b600080604083850312156146a3576146a2613e0f565b5b60006146b185828601614065565b92505060206146c285828601614065565b9150509250929050565b7f4e487b7100000000000000000000000000000000000000000000000000000000600052602260045260246000fd5b6000600282049050600182168061471357607f821691505b602082108103614726576147256146cc565b5b50919050565b7f4d75737420626520616e2061646d696e00000000000000000000000000000000600082015250565b6000614762601083613edf565b915061476d8261472c565b602082019050919050565b6000602082019050818103600083015261479181614755565b9050919050565b7f414c52454144595f41495244524f505045440000000000000000000000000000600082015250565b60006147ce601283613edf565b91506147d982614798565b602082019050919050565b600060208201905081810360008301526147fd816147c1565b9050919050565b7f4d455441444154415f46494e414c495a45440000000000000000000000000000600082015250565b600061483a601283613edf565b915061484582614804565b602082019050919050565b600060208201905081810360008301526148698161482d565b9050919050565b7f416363657373436f6e74726f6c3a2063616e206f6e6c792072656e6f756e636560008201527f20726f6c657320666f722073656c660000000000000000000000000000000000602082015250565b60006148cc602f83613edf565b91506148d782614870565b604082019050919050565b600060208201905081810360008301526148fb816148bf565b9050919050565b7f50524553414c455f494e41435449564500000000000000000000000000000000600082015250565b6000614938601083613edf565b915061494382614902565b602082019050919050565b600060208201905081810360008301526149678161492b565b9050919050565b7f50524553414c455f4e4f545f5645524946494544000000000000000000000000600082015250565b60006149a4601483613edf565b91506149af8261496e565b602082019050919050565b600060208201905081810360008301526149d381614997565b9050919050565b7f4e487b7100000000000000000000000000000000000000000000000000000000600052601160045260246000fd5b6000614a1482613f8f565b9150614a1f83613f8f565b9250827fffffffffffffffffffffffffffffffffffffffffffffffffffffffffffffffff03821115614a5457614a536149da565b5b828201905092915050565b7f455843454544535f434f4c4c454354494f4e5f53495a45000000000000000000600082015250565b6000614a95601783613edf565b9150614aa082614a5f565b602082019050919050565b60006020820190508181036000830152614ac481614a88565b9050919050565b7f57484954454c4953545f544f4b454e5f4c494d49540000000000000000000000600082015250565b6000614b01601583613edf565b9150614b0c82614acb565b602082019050919050565b60006020820190508181036000830152614b3081614af4565b9050919050565b7f54494d45535f46494e414c495a45440000000000000000000000000000000000600082015250565b6000614b6d600f83613edf565b9150614b7882614b37565b602082019050919050565b60006020820190508181036000830152614b9c81614b60565b9050919050565b7f4f776e61626c653a2063616c6c6572206973206e6f7420746865206f776e6572600082015250565b6000614bd9602083613edf565b9150614be482614ba3565b602082019050919050565b60006020820190508181036000830152614c0881614bcc565b9050919050565b7f5055424c49435f53414c455f494e414354495645000000000000000000000000600082015250565b6000614c45601483613edf565b9150614c5082614c0f565b602082019050919050565b60006020820190508181036000830152614c7481614c38565b9050919050565b7f5055424c49435f544f4b454e5f4c494d49540000000000000000000000000000600082015250565b6000614cb1601283613edf565b9150614cbc82614c7b565b602082019050919050565b60006020820190508181036000830152614ce081614ca4565b9050919050565b7f4c4953545f46494e414c495a4544000000000000000000000000000000000000600082015250565b6000614d1d600e83613edf565b9150614d2882614ce7565b602082019050919050565b60006020820190508181036000830152614d4c81614d10565b9050919050565b7f494e56414c49445f494400000000000000000000000000000000000000000000600082015250565b6000614d89600a83613edf565b9150614d9482614d53565b602082019050919050565b60006020820190508181036000830152614db881614d7c565b9050919050565b600081905092915050565b6000614dd582613ed4565b614ddf8185614dbf565b9350614def818560208601613ef0565b80840191505092915050565b7f2e6a736f6e000000000000000000000000000000000000000000000000000000600082015250565b6000614e31600583614dbf565b9150614e3c82614dfb565b600582019050919050565b6000614e538285614dca565b9150614e5f8284614dca565b9150614e6a82614e24565b91508190509392505050565b7f4f776e61626c653a206e6577206f776e657220697320746865207a65726f206160008201527f6464726573730000000000000000000000000000000000000000000000000000602082015250565b6000614ed2602683613edf565b9150614edd82614e76565b604082019050919050565b60006020820190508181036000830152614f0181614ec5565b9050919050565b60008160601b9050919050565b6000614f2082614f08565b9050919050565b6000614f3282614f15565b9050919050565b614f4a614f4582614012565b614f27565b82525050565b6000614f5c8284614f39565b60148201915081905092915050565b7f416363657373436f6e74726f6c3a206163636f756e7420000000000000000000600082015250565b6000614fa1601783614dbf565b9150614fac82614f6b565b601782019050919050565b7f206973206d697373696e6720726f6c6520000000000000000000000000000000600082015250565b6000614fed601183614dbf565b9150614ff882614fb7565b601182019050919050565b600061500e82614f94565b915061501a8285614dca565b915061502582614fe0565b91506150318284614dca565b91508190509392505050565b600081519050919050565b600082825260208201905092915050565b60006150648261503d565b61506e8185615048565b935061507e818560208601613ef0565b61508781613f23565b840191505092915050565b60006080820190506150a76000830187614024565b6150b46020830186614024565b6150c160408301856140ba565b81810360608301526150d38184615059565b905095945050505050565b6000815190506150ed81613e45565b92915050565b60006020828403121561510957615108613e0f565b5b6000615117848285016150de565b91505092915050565b600061512b82613f8f565b91507fffffffffffffffffffffffffffffffffffffffffffffffffffffffffffffffff820361515d5761515c6149da565b5b600182019050919050565b7f4e487b7100000000000000000000000000000000000000000000000000000000600052601260045260246000fd5b60006151a282613f8f565b91506151ad83613f8f565b9250826151bd576151bc615168565b5b828204905092915050565b60006151d382613f8f565b91506151de83613f8f565b9250828210156151f1576151f06149da565b5b828203905092915050565b600061520782613f8f565b915061521283613f8f565b92508261522257615221615168565b5b828206905092915050565b7f4e487b7100000000000000000000000000000000000000000000000000000000600052603260045260246000fd5b600061526782613f8f565b915061527283613f8f565b9250817fffffffffffffffffffffffffffffffffffffffffffffffffffffffffffffffff04831182151516156152ab576152aa6149da565b5b828202905092915050565b60006152c182613f8f565b9150600082036152d4576152d36149da565b5b600182039050919050565b7f537472696e67733a20686578206c656e67746820696e73756666696369656e74600082015250565b6000615315602083613edf565b9150615320826152df565b602082019050919050565b6000602082019050818103600083015261534481615308565b9050919050565b6000819050919050565b61536661536182614229565b61534b565b82525050565b60006153788285615355565b6020820191506153888284615355565b602082019150819050939250505056fea26469706673582212207a6001999bb0e7f9748d472d5a64590202ccb5b8d79575cf2ce7bd2335795b1f64736f6c634300080d0033",
  "linkReferences": {},
  "deployedLinkReferences": {}
}