{
  "_format": "hh-sol-artifact-1",
  "contractName": "FifthDimension",
  "sourceName": "contracts/FifthDimension.sol",
  "abi": [
    {
      "inputs": [
        {
          "internalType": "uint64",
          "name": "_whitelistStart",
          "type": "uint64"
        },
        {
          "internalType": "uint64",
          "name": "_whitelistEnd",
          "type": "uint64"
        },
        {
          "internalType": "uint64",
          "name": "_publicStart",
          "type": "uint64"
        },
        {
          "internalType": "uint64",
          "name": "_publicEnd",
          "type": "uint64"
        },
        {
          "internalType": "bytes32",
          "name": "whitelistMerkleRoot",
          "type": "bytes32"
        },
        {
          "internalType": "string",
          "name": "name",
          "type": "string"
        },
        {
          "internalType": "string",
          "name": "symbol",
          "type": "string"
        },
        {
          "internalType": "string",
          "name": "tempUri",
          "type": "string"
        }
      ],
      "stateMutability": "nonpayable",
      "type": "constructor"
    },
    {
      "anonymous": false,
      "inputs": [
        {
          "indexed": true,
          "internalType": "address",
          "name": "owner",
          "type": "address"
        },
        {
          "indexed": true,
          "internalType": "address",
          "name": "approved",
          "type": "address"
        },
        {
          "indexed": true,
          "internalType": "uint256",
          "name": "tokenId",
          "type": "uint256"
        }
      ],
      "name": "Approval",
      "type": "event"
    },
    {
      "anonymous": false,
      "inputs": [
        {
          "indexed": true,
          "internalType": "address",
          "name": "owner",
          "type": "address"
        },
        {
          "indexed": true,
          "internalType": "address",
          "name": "operator",
          "type": "address"
        },
        {
          "indexed": false,
          "internalType": "bool",
          "name": "approved",
          "type": "bool"
        }
      ],
      "name": "ApprovalForAll",
      "type": "event"
    },
    {
      "anonymous": false,
      "inputs": [
        {
          "indexed": true,
          "internalType": "bytes32",
          "name": "role",
          "type": "bytes32"
        },
        {
          "indexed": true,
          "internalType": "bytes32",
          "name": "previousAdminRole",
          "type": "bytes32"
        },
        {
          "indexed": true,
          "internalType": "bytes32",
          "name": "newAdminRole",
          "type": "bytes32"
        }
      ],
      "name": "RoleAdminChanged",
      "type": "event"
    },
    {
      "anonymous": false,
      "inputs": [
        {
          "indexed": true,
          "internalType": "bytes32",
          "name": "role",
          "type": "bytes32"
        },
        {
          "indexed": true,
          "internalType": "address",
          "name": "account",
          "type": "address"
        },
        {
          "indexed": true,
          "internalType": "address",
          "name": "sender",
          "type": "address"
        }
      ],
      "name": "RoleGranted",
      "type": "event"
    },
    {
      "anonymous": false,
      "inputs": [
        {
          "indexed": true,
          "internalType": "bytes32",
          "name": "role",
          "type": "bytes32"
        },
        {
          "indexed": true,
          "internalType": "address",
          "name": "account",
          "type": "address"
        },
        {
          "indexed": true,
          "internalType": "address",
          "name": "sender",
          "type": "address"
        }
      ],
      "name": "RoleRevoked",
      "type": "event"
    },
    {
      "anonymous": false,
      "inputs": [
        {
          "indexed": true,
          "internalType": "address",
          "name": "from",
          "type": "address"
        },
        {
          "indexed": true,
          "internalType": "address",
          "name": "to",
          "type": "address"
        },
        {
          "indexed": true,
          "internalType": "uint256",
          "name": "tokenId",
          "type": "uint256"
        }
      ],
      "name": "Transfer",
      "type": "event"
    },
    {
      "inputs": [],
      "name": "ADMIN_ROLE",
      "outputs": [
        {
          "internalType": "bytes32",
          "name": "",
          "type": "bytes32"
        }
      ],
      "stateMutability": "view",
      "type": "function"
    },
    {
      "inputs": [],
      "name": "DEFAULT_ADMIN_ROLE",
      "outputs": [
        {
          "internalType": "bytes32",
          "name": "",
          "type": "bytes32"
        }
      ],
      "stateMutability": "view",
      "type": "function"
    },
    {
      "inputs": [],
      "name": "MOD_ROLE",
      "outputs": [
        {
          "internalType": "bytes32",
          "name": "",
          "type": "bytes32"
        }
      ],
      "stateMutability": "view",
      "type": "function"
    },
    {
      "inputs": [
        {
          "internalType": "address",
          "name": "to",
          "type": "address"
        },
        {
          "internalType": "uint16",
          "name": "quantity",
          "type": "uint16"
        }
      ],
      "name": "airdrop",
      "outputs": [],
      "stateMutability": "nonpayable",
      "type": "function"
    },
    {
      "inputs": [
        {
          "internalType": "address",
          "name": "to",
          "type": "address"
        },
        {
          "internalType": "uint256",
          "name": "tokenId",
          "type": "uint256"
        }
      ],
      "name": "approve",
      "outputs": [],
      "stateMutability": "nonpayable",
      "type": "function"
    },
    {
      "inputs": [
        {
          "internalType": "address",
          "name": "owner",
          "type": "address"
        }
      ],
      "name": "balanceOf",
      "outputs": [
        {
          "internalType": "uint256",
          "name": "",
          "type": "uint256"
        }
      ],
      "stateMutability": "view",
      "type": "function"
    },
    {
      "inputs": [],
      "name": "finalizeLists",
      "outputs": [],
      "stateMutability": "nonpayable",
      "type": "function"
    },
    {
      "inputs": [],
      "name": "finalizeMetadata",
      "outputs": [],
      "stateMutability": "nonpayable",
      "type": "function"
    },
    {
      "inputs": [],
      "name": "finalizeTimes",
      "outputs": [],
      "stateMutability": "nonpayable",
      "type": "function"
    },
    {
      "inputs": [
        {
          "internalType": "uint256",
          "name": "tokenId",
          "type": "uint256"
        }
      ],
      "name": "getApproved",
      "outputs": [
        {
          "internalType": "address",
          "name": "",
          "type": "address"
        }
      ],
      "stateMutability": "view",
      "type": "function"
    },
    {
      "inputs": [
        {
          "internalType": "bytes32",
          "name": "role",
          "type": "bytes32"
        }
      ],
      "name": "getRoleAdmin",
      "outputs": [
        {
          "internalType": "bytes32",
          "name": "",
          "type": "bytes32"
        }
      ],
      "stateMutability": "view",
      "type": "function"
    },
    {
      "inputs": [
        {
          "internalType": "bytes32",
          "name": "role",
          "type": "bytes32"
        },
        {
          "internalType": "address",
          "name": "account",
          "type": "address"
        }
      ],
      "name": "grantRole",
      "outputs": [],
      "stateMutability": "nonpayable",
      "type": "function"
    },
    {
      "inputs": [
        {
          "internalType": "bytes32",
          "name": "role",
          "type": "bytes32"
        },
        {
          "internalType": "address",
          "name": "account",
          "type": "address"
        }
      ],
      "name": "hasRole",
      "outputs": [
        {
          "internalType": "bool",
          "name": "",
          "type": "bool"
        }
      ],
      "stateMutability": "view",
      "type": "function"
    },
    {
      "inputs": [
        {
          "internalType": "address",
          "name": "owner",
          "type": "address"
        },
        {
          "internalType": "address",
          "name": "operator",
          "type": "address"
        }
      ],
      "name": "isApprovedForAll",
      "outputs": [
        {
          "internalType": "bool",
          "name": "",
          "type": "bool"
        }
      ],
      "stateMutability": "view",
      "type": "function"
    },
    {
      "inputs": [],
      "name": "isPublicSaleActive",
      "outputs": [
        {
          "internalType": "bool",
          "name": "",
          "type": "bool"
        }
      ],
      "stateMutability": "view",
      "type": "function"
    },
    {
      "inputs": [],
      "name": "isWhitelistSaleActive",
      "outputs": [
        {
          "internalType": "bool",
          "name": "",
          "type": "bool"
        }
      ],
      "stateMutability": "view",
      "type": "function"
    },
    {
      "inputs": [],
      "name": "listsFinalized",
      "outputs": [
        {
          "internalType": "bool",
          "name": "",
          "type": "bool"
        }
      ],
      "stateMutability": "view",
      "type": "function"
    },
    {
      "inputs": [],
      "name": "metadataFinalized",
      "outputs": [
        {
          "internalType": "bool",
          "name": "",
          "type": "bool"
        }
      ],
      "stateMutability": "view",
      "type": "function"
    },
    {
      "inputs": [],
      "name": "mint",
      "outputs": [],
      "stateMutability": "nonpayable",
      "type": "function"
    },
    {
      "inputs": [],
      "name": "name",
      "outputs": [
        {
          "internalType": "string",
          "name": "",
          "type": "string"
        }
      ],
      "stateMutability": "view",
      "type": "function"
    },
    {
      "inputs": [
        {
          "internalType": "uint256",
          "name": "tokenId",
          "type": "uint256"
        }
      ],
      "name": "ownerOf",
      "outputs": [
        {
          "internalType": "address",
          "name": "",
          "type": "address"
        }
      ],
      "stateMutability": "view",
      "type": "function"
    },
    {
      "inputs": [],
      "name": "publicEnd",
      "outputs": [
        {
          "internalType": "uint64",
          "name": "",
          "type": "uint64"
        }
      ],
      "stateMutability": "view",
      "type": "function"
    },
    {
      "inputs": [],
      "name": "publicStart",
      "outputs": [
        {
          "internalType": "uint64",
          "name": "",
          "type": "uint64"
        }
      ],
      "stateMutability": "view",
      "type": "function"
    },
    {
      "inputs": [
        {
          "internalType": "bytes32",
          "name": "role",
          "type": "bytes32"
        },
        {
          "internalType": "address",
          "name": "account",
          "type": "address"
        }
      ],
      "name": "renounceRole",
      "outputs": [],
      "stateMutability": "nonpayable",
      "type": "function"
    },
    {
      "inputs": [],
      "name": "revealed",
      "outputs": [
        {
          "internalType": "bool",
          "name": "",
          "type": "bool"
        }
      ],
      "stateMutability": "view",
      "type": "function"
    },
    {
      "inputs": [
        {
          "internalType": "bytes32",
          "name": "role",
          "type": "bytes32"
        },
        {
          "internalType": "address",
          "name": "account",
          "type": "address"
        }
      ],
      "name": "revokeRole",
      "outputs": [],
      "stateMutability": "nonpayable",
      "type": "function"
    },
    {
      "inputs": [
        {
          "internalType": "address",
          "name": "from",
          "type": "address"
        },
        {
          "internalType": "address",
          "name": "to",
          "type": "address"
        },
        {
          "internalType": "uint256",
          "name": "tokenId",
          "type": "uint256"
        }
      ],
      "name": "safeTransferFrom",
      "outputs": [],
      "stateMutability": "nonpayable",
      "type": "function"
    },
    {
      "inputs": [
        {
          "internalType": "address",
          "name": "from",
          "type": "address"
        },
        {
          "internalType": "address",
          "name": "to",
          "type": "address"
        },
        {
          "internalType": "uint256",
          "name": "tokenId",
          "type": "uint256"
        },
        {
          "internalType": "bytes",
          "name": "_data",
          "type": "bytes"
        }
      ],
      "name": "safeTransferFrom",
      "outputs": [],
      "stateMutability": "nonpayable",
      "type": "function"
    },
    {
      "inputs": [
        {
          "internalType": "address",
          "name": "operator",
          "type": "address"
        },
        {
          "internalType": "bool",
          "name": "approved",
          "type": "bool"
        }
      ],
      "name": "setApprovalForAll",
      "outputs": [],
      "stateMutability": "nonpayable",
      "type": "function"
    },
    {
      "inputs": [
        {
          "internalType": "string",
          "name": "baseUri",
          "type": "string"
        }
      ],
      "name": "setBaseURI",
      "outputs": [],
      "stateMutability": "nonpayable",
      "type": "function"
    },
    {
      "inputs": [
        {
          "internalType": "string",
          "name": "tempUri",
          "type": "string"
        }
      ],
      "name": "setPlaceholderURI",
      "outputs": [],
      "stateMutability": "nonpayable",
      "type": "function"
    },
    {
      "inputs": [
        {
          "internalType": "bytes4",
          "name": "interfaceId",
          "type": "bytes4"
        }
      ],
      "name": "supportsInterface",
      "outputs": [
        {
          "internalType": "bool",
          "name": "",
          "type": "bool"
        }
      ],
      "stateMutability": "view",
      "type": "function"
    },
    {
      "inputs": [],
      "name": "symbol",
      "outputs": [
        {
          "internalType": "string",
          "name": "",
          "type": "string"
        }
      ],
      "stateMutability": "view",
      "type": "function"
    },
    {
      "inputs": [],
      "name": "timesFinalized",
      "outputs": [
        {
          "internalType": "bool",
          "name": "",
          "type": "bool"
        }
      ],
      "stateMutability": "view",
      "type": "function"
    },
    {
      "inputs": [],
      "name": "toggleReveal",
      "outputs": [],
      "stateMutability": "nonpayable",
      "type": "function"
    },
    {
      "inputs": [
        {
          "internalType": "uint256",
          "name": "id",
          "type": "uint256"
        }
      ],
      "name": "tokenURI",
      "outputs": [
        {
          "internalType": "string",
          "name": "",
          "type": "string"
        }
      ],
      "stateMutability": "view",
      "type": "function"
    },
    {
      "inputs": [],
      "name": "totalSupply",
      "outputs": [
        {
          "internalType": "uint16",
          "name": "",
          "type": "uint16"
        }
      ],
      "stateMutability": "view",
      "type": "function"
    },
    {
      "inputs": [
        {
          "internalType": "address",
          "name": "from",
          "type": "address"
        },
        {
          "internalType": "address",
          "name": "to",
          "type": "address"
        },
        {
          "internalType": "uint256",
          "name": "tokenId",
          "type": "uint256"
        }
      ],
      "name": "transferFrom",
      "outputs": [],
      "stateMutability": "nonpayable",
      "type": "function"
    },
    {
      "inputs": [],
      "name": "whitelistEnd",
      "outputs": [
        {
          "internalType": "uint64",
          "name": "",
          "type": "uint64"
        }
      ],
      "stateMutability": "view",
      "type": "function"
    },
    {
      "inputs": [
        {
          "internalType": "bytes32[]",
          "name": "_merkleProof",
          "type": "bytes32[]"
        }
      ],
      "name": "whitelistMint",
      "outputs": [],
      "stateMutability": "nonpayable",
      "type": "function"
    },
    {
      "inputs": [],
      "name": "whitelistStart",
      "outputs": [
        {
          "internalType": "uint64",
          "name": "",
          "type": "uint64"
        }
      ],
      "stateMutability": "view",
      "type": "function"
    }
  ],
  "bytecode": "0x60806040527fa49807205ce4d355092ef5a8a18f56e8913cf4a201fbe287825b095693c217756007557f950b8f2d7415defaee398bb4898e8e094a64c725873b81952b7ab9f08d70efb36008553480156200005957600080fd5b5060405162005eff38038062005eff83398181016040528101906200007f9190620007c6565b8282816000908051906020019062000099929190620004f9565b508060019080519060200190620000b2929190620004f9565b5050508360098190555080600d9080519060200190620000d4929190620004f9565b506000429050808967ffffffffffffffff161162000129576040517f08c379a000000000000000000000000000000000000000000000000000000000815260040162000120906200094d565b60405180910390fd5b808867ffffffffffffffff161180156200016c5750603360089054906101000a900467ffffffffffffffff1667ffffffffffffffff168867ffffffffffffffff16115b620001ae576040517f08c379a0000000000000000000000000000000000000000000000000000000008152600401620001a590620009bf565b60405180910390fd5b88603360086101000a81548167ffffffffffffffff021916908367ffffffffffffffff16021790555087603360106101000a81548167ffffffffffffffff021916908367ffffffffffffffff160217905550808767ffffffffffffffff161180156200022e57508767ffffffffffffffff168767ffffffffffffffff1610155b62000270576040517f08c379a0000000000000000000000000000000000000000000000000000000008152600401620002679062000a31565b60405180910390fd5b808667ffffffffffffffff161180156200029d57508667ffffffffffffffff168667ffffffffffffffff16115b620002df576040517f08c379a0000000000000000000000000000000000000000000000000000000008152600401620002d69062000aa3565b60405180910390fd5b86603360186101000a81548167ffffffffffffffff021916908367ffffffffffffffff16021790555085603460006101000a81548167ffffffffffffffff021916908367ffffffffffffffff1602179055506000620003436200037e60201b60201c565b90506200035a6000801b826200038660201b60201c565b6200036e600754826200038660201b60201c565b5050505050505050505062000b29565b600033905090565b6200039882826200039c60201b60201c565b5050565b620003ae82826200048e60201b60201c565b6200048a5760016006600084815260200190815260200160002060000160008373ffffffffffffffffffffffffffffffffffffffff1673ffffffffffffffffffffffffffffffffffffffff16815260200190815260200160002060006101000a81548160ff0219169083151502179055506200042f6200037e60201b60201c565b73ffffffffffffffffffffffffffffffffffffffff168173ffffffffffffffffffffffffffffffffffffffff16837f2f8788117e7eff1d82e926ec794901d17c78024a50270940304540a733656f0d60405160405180910390a45b5050565b60006006600084815260200190815260200160002060000160008373ffffffffffffffffffffffffffffffffffffffff1673ffffffffffffffffffffffffffffffffffffffff16815260200190815260200160002060009054906101000a900460ff16905092915050565b828054620005079062000af4565b90600052602060002090601f0160209004810192826200052b576000855562000577565b82601f106200054657805160ff191683800117855562000577565b8280016001018555821562000577579182015b828111156200057657825182559160200191906001019062000559565b5b5090506200058691906200058a565b5090565b5b80821115620005a55760008160009055506001016200058b565b5090565b6000604051905090565b600080fd5b600080fd5b600067ffffffffffffffff82169050919050565b620005dc81620005bd565b8114620005e857600080fd5b50565b600081519050620005fc81620005d1565b92915050565b6000819050919050565b620006178162000602565b81146200062357600080fd5b50565b60008151905062000637816200060c565b92915050565b600080fd5b600080fd5b6000601f19601f8301169050919050565b7f4e487b7100000000000000000000000000000000000000000000000000000000600052604160045260246000fd5b620006928262000647565b810181811067ffffffffffffffff82111715620006b457620006b362000658565b5b80604052505050565b6000620006c9620005a9565b9050620006d7828262000687565b919050565b600067ffffffffffffffff821115620006fa57620006f962000658565b5b620007058262000647565b9050602081019050919050565b60005b838110156200073257808201518184015260208101905062000715565b8381111562000742576000848401525b50505050565b60006200075f6200075984620006dc565b620006bd565b9050828152602081018484840111156200077e576200077d62000642565b5b6200078b84828562000712565b509392505050565b600082601f830112620007ab57620007aa6200063d565b5b8151620007bd84826020860162000748565b91505092915050565b600080600080600080600080610100898b031215620007ea57620007e9620005b3565b5b6000620007fa8b828c01620005eb565b98505060206200080d8b828c01620005eb565b9750506040620008208b828c01620005eb565b9650506060620008338b828c01620005eb565b9550506080620008468b828c0162000626565b94505060a089015167ffffffffffffffff8111156200086a5762000869620005b8565b5b620008788b828c0162000793565b93505060c089015167ffffffffffffffff8111156200089c576200089b620005b8565b5b620008aa8b828c0162000793565b92505060e089015167ffffffffffffffff811115620008ce57620008cd620005b8565b5b620008dc8b828c0162000793565b9150509295985092959890939650565b600082825260208201905092915050565b7f57726f6e672077686974656c6973742073746172740000000000000000000000600082015250565b600062000935601583620008ec565b91506200094282620008fd565b602082019050919050565b60006020820190508181036000830152620009688162000926565b9050919050565b7f57726f6e672077686974656c69737420656e6400000000000000000000000000600082015250565b6000620009a7601383620008ec565b9150620009b4826200096f565b602082019050919050565b60006020820190508181036000830152620009da8162000998565b9050919050565b7f57726f6e67207075626c69632073746172740000000000000000000000000000600082015250565b600062000a19601283620008ec565b915062000a2682620009e1565b602082019050919050565b6000602082019050818103600083015262000a4c8162000a0a565b9050919050565b7f57726f6e67207075626c696320656e6400000000000000000000000000000000600082015250565b600062000a8b601083620008ec565b915062000a988262000a53565b602082019050919050565b6000602082019050818103600083015262000abe8162000a7c565b9050919050565b7f4e487b7100000000000000000000000000000000000000000000000000000000600052602260045260246000fd5b6000600282049050600182168062000b0d57607f821691505b60208210810362000b235762000b2262000ac5565b5b50919050565b6153c68062000b396000396000f3fe608060405234801561001057600080fd5b50600436106102535760003560e01c80636352211e11610146578063b88d4fde116100c3578063d4dd7b8111610087578063d4dd7b81146106a0578063d547741f146106aa578063e932406f146106c6578063e985e9c5146106e4578063ec8d130b14610714578063f4a560a51461073057610253565b8063b88d4fde146105fa578063b98451cf14610616578063bfb6e0e714610634578063c87b56dd14610652578063cf9f8e211461068257610253565b806395d89b411161010a57806395d89b4114610566578063994d396914610584578063a217fddf146105a2578063a22cb465146105c0578063a5f4c6ff146105dc57610253565b80636352211e1461049a57806370a08231146104ca57806375b238fc146104fa578063919437081461051857806391d148541461053657610253565b80632f2ff15d116101d457806342842e0e1161019857806342842e0e14610430578063518302271461044c57806355f804b31461046a57806356f07a3e146104865780635b8ad4291461049057610253565b80632f2ff15d146103a2578063305ac367146103be5780633574a2dd146103dc57806336568abe146103f8578063372f657c1461041457610253565b80631249c58b1161021b5780631249c58b1461031057806318160ddd1461031a5780631e84c4131461033857806323b872dd14610356578063248a9ca31461037257610253565b806301ffc9a71461025857806306fdde0314610288578063081812fc146102a6578063095ea7b3146102d65780630acae9a7146102f2575b600080fd5b610272600480360381019061026d919061360a565b61073a565b60405161027f9190613652565b60405180910390f35b61029061074c565b60405161029d9190613706565b60405180910390f35b6102c060048036038101906102bb919061375e565b6107de565b6040516102cd91906137cc565b60405180910390f35b6102f060048036038101906102eb9190613813565b610863565b005b6102fa61097a565b6040516103079190613876565b60405180910390f35b610318610994565b005b610322610bb0565b60405161032f91906138ae565b60405180910390f35b610340610be3565b60405161034d9190613652565b60405180910390f35b610370600480360381019061036b91906138c9565b610c38565b005b61038c60048036038101906103879190613952565b610c98565b604051610399919061398e565b60405180910390f35b6103bc60048036038101906103b791906139a9565b610cb8565b005b6103c6610ce1565b6040516103d39190613652565b60405180910390f35b6103f660048036038101906103f19190613b1e565b610cf4565b005b610412600480360381019061040d91906139a9565b610dd0565b005b61042e60048036038101906104299190613bc7565b610e53565b005b61044a600480360381019061044591906138c9565b61108d565b005b6104546110ad565b6040516104619190613652565b60405180910390f35b610484600480360381019061047f9190613b1e565b6110c0565b005b61048e61119c565b005b61049861127b565b005b6104b460048036038101906104af919061375e565b611369565b6040516104c191906137cc565b60405180910390f35b6104e460048036038101906104df9190613c14565b61141a565b6040516104f19190613c50565b60405180910390f35b6105026114d1565b60405161050f919061398e565b60405180910390f35b6105206114d7565b60405161052d9190613652565b60405180910390f35b610550600480360381019061054b91906139a9565b6114ea565b60405161055d9190613652565b60405180910390f35b61056e611555565b60405161057b9190613706565b60405180910390f35b61058c6115e7565b6040516105999190613876565b60405180910390f35b6105aa611601565b6040516105b7919061398e565b60405180910390f35b6105da60048036038101906105d59190613c97565b611608565b005b6105e461161e565b6040516105f19190613876565b60405180910390f35b610614600480360381019061060f9190613d78565b611638565b005b61061e61169a565b60405161062b9190613652565b60405180910390f35b61063c6116ef565b6040516106499190613876565b60405180910390f35b61066c6004803603810190610667919061375e565b611709565b6040516106799190613706565b60405180910390f35b61068a611830565b6040516106979190613652565b60405180910390f35b6106a8611843565b005b6106c460048036038101906106bf91906139a9565b611922565b005b6106ce61194b565b6040516106db919061398e565b60405180910390f35b6106fe60048036038101906106f99190613dfb565b611951565b60405161070b9190613652565b60405180910390f35b61072e60048036038101906107299190613e67565b6119e5565b005b610738611ae8565b005b600061074582611bc7565b9050919050565b60606000805461075b90613ed6565b80601f016020809104026020016040519081016040528092919081815260200182805461078790613ed6565b80156107d45780601f106107a9576101008083540402835291602001916107d4565b820191906000526020600020905b8154815290600101906020018083116107b757829003601f168201915b5050505050905090565b60006107e982611c41565b610828576040517f08c379a000000000000000000000000000000000000000000000000000000000815260040161081f90613f79565b60405180910390fd5b6004600083815260200190815260200160002060009054906101000a900473ffffffffffffffffffffffffffffffffffffffff169050919050565b600061086e82611369565b90508073ffffffffffffffffffffffffffffffffffffffff168373ffffffffffffffffffffffffffffffffffffffff16036108de576040517f08c379a00000000000000000000000000000000000000000000000000000000081526004016108d59061400b565b60405180910390fd5b8073ffffffffffffffffffffffffffffffffffffffff166108fd611cad565b73ffffffffffffffffffffffffffffffffffffffff16148061092c575061092b81610926611cad565b611951565b5b61096b576040517f08c379a00000000000000000000000000000000000000000000000000000000081526004016109629061409d565b60405180910390fd5b6109758383611cb5565b505050565b603460009054906101000a900467ffffffffffffffff1681565b61099c610be3565b6109db576040517f08c379a00000000000000000000000000000000000000000000000000000000081526004016109d290614109565b60405180910390fd5b60006109e5611cad565b90506001600b60008373ffffffffffffffffffffffffffffffffffffffff1673ffffffffffffffffffffffffffffffffffffffff16815260200190815260200160002060008282829054906101000a900460ff16610a439190614165565b92506101000a81548160ff021916908360ff160217905550600261ffff16600b60008373ffffffffffffffffffffffffffffffffffffffff1673ffffffffffffffffffffffffffffffffffffffff16815260200190815260200160002060009054906101000a900460ff1660ff161115610af2576040517f08c379a0000000000000000000000000000000000000000000000000000000008152600401610ae9906141e8565b60405180910390fd5b6001603360068282829054906101000a900461ffff16610b129190614208565b92506101000a81548161ffff021916908361ffff16021790555061022b61ffff166001603360069054906101000a900461ffff16610b509190614208565b61ffff161115610b95576040517f08c379a0000000000000000000000000000000000000000000000000000000008152600401610b8c9061428c565b60405180910390fd5b610bad610ba0611cad565b610ba8611d6e565b612030565b50565b6000603360069054906101000a900461ffff16603360049054906101000a900461ffff16610bde9190614208565b905090565b6000603360189054906101000a900467ffffffffffffffff1667ffffffffffffffff1642118015610c335750603460009054906101000a900467ffffffffffffffff1667ffffffffffffffff1642105b905090565b610c49610c43611cad565b8261204e565b610c88576040517f08c379a0000000000000000000000000000000000000000000000000000000008152600401610c7f9061431e565b60405180910390fd5b610c9383838361212c565b505050565b600060066000838152602001908152602001600020600101549050919050565b610cc182610c98565b610cd281610ccd611cad565b612387565b610cdc8383612424565b505050565b600e60009054906101000a900460ff1681565b6000610cfe611cad565b9050610d0d6000801b826114ea565b80610d205750610d1f600754826114ea565b5b610d5f576040517f08c379a0000000000000000000000000000000000000000000000000000000008152600401610d569061438a565b60405180910390fd5b60001515600e60019054906101000a900460ff16151514610db5576040517f08c379a0000000000000000000000000000000000000000000000000000000008152600401610dac906143f6565b60405180910390fd5b81600d9080519060200190610dcb9291906134fb565b505050565b610dd8611cad565b73ffffffffffffffffffffffffffffffffffffffff168173ffffffffffffffffffffffffffffffffffffffff1614610e45576040517f08c379a0000000000000000000000000000000000000000000000000000000008152600401610e3c90614488565b60405180910390fd5b610e4f8282612505565b5050565b6000610e5d611cad565b9050610e6761169a565b610ea6576040517f08c379a0000000000000000000000000000000000000000000000000000000008152600401610e9d906144f4565b60405180910390fd5b610eb18383836125e7565b610ef0576040517f08c379a0000000000000000000000000000000000000000000000000000000008152600401610ee790614560565b60405180910390fd5b6001600a60008373ffffffffffffffffffffffffffffffffffffffff1673ffffffffffffffffffffffffffffffffffffffff16815260200190815260200160002060006101000a81548160ff021916908315150217905550600a60008273ffffffffffffffffffffffffffffffffffffffff1673ffffffffffffffffffffffffffffffffffffffff16815260200190815260200160002060009054906101000a900460ff16610fd4576040517f08c379a0000000000000000000000000000000000000000000000000000000008152600401610fcb906145cc565b60405180910390fd5b6001603360068282829054906101000a900461ffff16610ff49190614208565b92506101000a81548161ffff021916908361ffff16021790555061022b61ffff166001603360069054906101000a900461ffff166110329190614208565b61ffff161115611077576040517f08c379a000000000000000000000000000000000000000000000000000000000815260040161106e9061428c565b60405180910390fd5b61108881611083611d6e565b612030565b505050565b6110a883838360405180602001604052806000815250611638565b505050565b600e60039054906101000a900460ff1681565b60006110ca611cad565b90506110d96000801b826114ea565b806110ec57506110eb600754826114ea565b5b61112b576040517f08c379a00000000000000000000000000000000000000000000000000000000081526004016111229061438a565b60405180910390fd5b60001515600e60019054906101000a900460ff16151514611181576040517f08c379a0000000000000000000000000000000000000000000000000000000008152600401611178906143f6565b60405180910390fd5b81600c90805190602001906111979291906134fb565b505050565b60006111a6611cad565b90506111b56000801b826114ea565b806111c857506111c7600754826114ea565b5b611207576040517f08c379a00000000000000000000000000000000000000000000000000000000081526004016111fe9061438a565b60405180910390fd5b60001515600e60029054906101000a900460ff1615151461125d576040517f08c379a000000000000000000000000000000000000000000000000000000000815260040161125490614638565b60405180910390fd5b6001600e60026101000a81548160ff02191690831515021790555050565b6000611285611cad565b90506112946000801b826114ea565b806112a757506112a6600754826114ea565b5b6112e6576040517f08c379a00000000000000000000000000000000000000000000000000000000081526004016112dd9061438a565b60405180910390fd5b60001515600e60019054906101000a900460ff1615151461133c576040517f08c379a0000000000000000000000000000000000000000000000000000000008152600401611333906143f6565b60405180910390fd5b600e60039054906101000a900460ff1615600e60036101000a81548160ff02191690831515021790555050565b6000806002600084815260200190815260200160002060009054906101000a900473ffffffffffffffffffffffffffffffffffffffff169050600073ffffffffffffffffffffffffffffffffffffffff168173ffffffffffffffffffffffffffffffffffffffff1603611411576040517f08c379a0000000000000000000000000000000000000000000000000000000008152600401611408906146ca565b60405180910390fd5b80915050919050565b60008073ffffffffffffffffffffffffffffffffffffffff168273ffffffffffffffffffffffffffffffffffffffff160361148a576040517f08c379a00000000000000000000000000000000000000000000000000000000081526004016114819061475c565b60405180910390fd5b600360008373ffffffffffffffffffffffffffffffffffffffff1673ffffffffffffffffffffffffffffffffffffffff168152602001908152602001600020549050919050565b60075481565b600e60019054906101000a900460ff1681565b60006006600084815260200190815260200160002060000160008373ffffffffffffffffffffffffffffffffffffffff1673ffffffffffffffffffffffffffffffffffffffff16815260200190815260200160002060009054906101000a900460ff16905092915050565b60606001805461156490613ed6565b80601f016020809104026020016040519081016040528092919081815260200182805461159090613ed6565b80156115dd5780601f106115b2576101008083540402835291602001916115dd565b820191906000526020600020905b8154815290600101906020018083116115c057829003601f168201915b5050505050905090565b603360089054906101000a900467ffffffffffffffff1681565b6000801b81565b61161a611613611cad565b838361266d565b5050565b603360189054906101000a900467ffffffffffffffff1681565b611649611643611cad565b8361204e565b611688576040517f08c379a000000000000000000000000000000000000000000000000000000000815260040161167f9061431e565b60405180910390fd5b611694848484846127d9565b50505050565b6000603360089054906101000a900467ffffffffffffffff1667ffffffffffffffff16421180156116ea5750603360109054906101000a900467ffffffffffffffff1667ffffffffffffffff1642105b905090565b603360109054906101000a900467ffffffffffffffff1681565b606061171482611c41565b611753576040517f08c379a000000000000000000000000000000000000000000000000000000000815260040161174a906147c8565b60405180910390fd5b600e60039054906101000a900460ff166117f757600d805461177490613ed6565b80601f01602080910402602001604051908101604052809291908181526020018280546117a090613ed6565b80156117ed5780601f106117c2576101008083540402835291602001916117ed565b820191906000526020600020905b8154815290600101906020018083116117d057829003601f168201915b5050505050611829565b6117ff612835565b611808836128c7565b604051602001611819929190614870565b6040516020818303038152906040525b9050919050565b600e60029054906101000a900460ff1681565b600061184d611cad565b905061185c6000801b826114ea565b8061186f575061186e600754826114ea565b5b6118ae576040517f08c379a00000000000000000000000000000000000000000000000000000000081526004016118a59061438a565b60405180910390fd5b60001515600e60009054906101000a900460ff16151514611904576040517f08c379a00000000000000000000000000000000000000000000000000000000081526004016118fb906148eb565b60405180910390fd5b6001600e60006101000a81548160ff02191690831515021790555050565b61192b82610c98565b61193c81611937611cad565b612387565b6119468383612505565b505050565b60085481565b6000600560008473ffffffffffffffffffffffffffffffffffffffff1673ffffffffffffffffffffffffffffffffffffffff16815260200190815260200160002060008373ffffffffffffffffffffffffffffffffffffffff1673ffffffffffffffffffffffffffffffffffffffff16815260200190815260200160002060009054906101000a900460ff16905092915050565b60006119ef611cad565b90506119fe6000801b826114ea565b80611a115750611a10600754826114ea565b5b611a50576040517f08c379a0000000000000000000000000000000000000000000000000000000008152600401611a479061438a565b60405180910390fd5b603761ffff16603360049054906101000a900461ffff1661ffff1610611aab576040517f08c379a0000000000000000000000000000000000000000000000000000000008152600401611aa290614957565b60405180910390fd5b60005b8261ffff168161ffff161015611ae257611acf84611aca612a27565b612030565b8080611ada90614977565b915050611aae565b50505050565b6000611af2611cad565b9050611b016000801b826114ea565b80611b145750611b13600754826114ea565b5b611b53576040517f08c379a0000000000000000000000000000000000000000000000000000000008152600401611b4a9061438a565b60405180910390fd5b60001515600e60019054906101000a900460ff16151514611ba9576040517f08c379a0000000000000000000000000000000000000000000000000000000008152600401611ba0906143f6565b60405180910390fd5b6001600e60016101000a81548160ff02191690831515021790555050565b60007f7965db0b000000000000000000000000000000000000000000000000000000007bffffffffffffffffffffffffffffffffffffffffffffffffffffffff1916827bffffffffffffffffffffffffffffffffffffffffffffffffffffffff19161480611c3a5750611c3982612ce2565b5b9050919050565b60008073ffffffffffffffffffffffffffffffffffffffff166002600084815260200190815260200160002060009054906101000a900473ffffffffffffffffffffffffffffffffffffffff1673ffffffffffffffffffffffffffffffffffffffff1614159050919050565b600033905090565b816004600083815260200190815260200160002060006101000a81548173ffffffffffffffffffffffffffffffffffffffff021916908373ffffffffffffffffffffffffffffffffffffffff160217905550808273ffffffffffffffffffffffffffffffffffffffff16611d2883611369565b73ffffffffffffffffffffffffffffffffffffffff167f8c5be1e5ebec7d5bd14f71427d1e84f3dd0314c0f7b2291e5b200ac8c7c3b92560405160405180910390a45050565b6000806033600081819054906101000a900461ffff1680929190611d9190614977565b91906101000a81548161ffff021916908361ffff1602179055503342600143611dba91906149a1565b40604051602001611dce9493929190614a95565b6040516020818303038152906040528051906020012060001c905060006033600081819054906101000a900461ffff1680929190611e0b90614977565b91906101000a81548161ffff021916908361ffff16021790555061ffff166101f4611e3691906149a1565b905060008111611e7b576040517f08c379a0000000000000000000000000000000000000000000000000000000008152600401611e7290614b2f565b60405180910390fd5b60008183611e899190614b7e565b90506000600f826101f48110611ea257611ea1614baf565b5b601091828204019190066002029054906101000a900461ffff1661ffff1603611ecb5780611eff565b600f816101f48110611ee057611edf614baf565b5b601091828204019190066002029054906101000a900461ffff1661ffff165b9350603884611f0e9190614bde565b93506000600f600184611f2191906149a1565b6101f48110611f3357611f32614baf565b5b601091828204019190066002029054906101000a900461ffff1661ffff1614611f9a57600f600183611f6591906149a1565b6101f48110611f7757611f76614baf565b5b601091828204019190066002029054906101000a900461ffff1661ffff16611fa8565b600182611fa791906149a1565b5b600f826101f48110611fbd57611fbc614baf565b5b601091828204019190066002026101000a81548161ffff021916908361ffff1602179055506000600f600184611ff391906149a1565b6101f4811061200557612004614baf565b5b601091828204019190066002026101000a81548161ffff021916908361ffff16021790555050505090565b61204a828260405180602001604052806000815250612dc4565b5050565b600061205982611c41565b612098576040517f08c379a000000000000000000000000000000000000000000000000000000000815260040161208f90614ca6565b60405180910390fd5b60006120a383611369565b90508073ffffffffffffffffffffffffffffffffffffffff168473ffffffffffffffffffffffffffffffffffffffff16148061211257508373ffffffffffffffffffffffffffffffffffffffff166120fa846107de565b73ffffffffffffffffffffffffffffffffffffffff16145b8061212357506121228185611951565b5b91505092915050565b8273ffffffffffffffffffffffffffffffffffffffff1661214c82611369565b73ffffffffffffffffffffffffffffffffffffffff16146121a2576040517f08c379a000000000000000000000000000000000000000000000000000000000815260040161219990614d38565b60405180910390fd5b600073ffffffffffffffffffffffffffffffffffffffff168273ffffffffffffffffffffffffffffffffffffffff1603612211576040517f08c379a000000000000000000000000000000000000000000000000000000000815260040161220890614dca565b60405180910390fd5b61221c838383612e1f565b612227600082611cb5565b6001600360008573ffffffffffffffffffffffffffffffffffffffff1673ffffffffffffffffffffffffffffffffffffffff168152602001908152602001600020600082825461227791906149a1565b925050819055506001600360008473ffffffffffffffffffffffffffffffffffffffff1673ffffffffffffffffffffffffffffffffffffffff16815260200190815260200160002060008282546122ce9190614bde565b92505081905550816002600083815260200190815260200160002060006101000a81548173ffffffffffffffffffffffffffffffffffffffff021916908373ffffffffffffffffffffffffffffffffffffffff160217905550808273ffffffffffffffffffffffffffffffffffffffff168473ffffffffffffffffffffffffffffffffffffffff167fddf252ad1be2c89b69c2b068fc378daa952ba7f163c4a11628f55a4df523b3ef60405160405180910390a4505050565b61239182826114ea565b612420576123b68173ffffffffffffffffffffffffffffffffffffffff166014612e24565b6123c48360001c6020612e24565b6040516020016123d5929190614e82565b6040516020818303038152906040526040517f08c379a00000000000000000000000000000000000000000000000000000000081526004016124179190613706565b60405180910390fd5b5050565b61242e82826114ea565b6125015760016006600084815260200190815260200160002060000160008373ffffffffffffffffffffffffffffffffffffffff1673ffffffffffffffffffffffffffffffffffffffff16815260200190815260200160002060006101000a81548160ff0219169083151502179055506124a6611cad565b73ffffffffffffffffffffffffffffffffffffffff168173ffffffffffffffffffffffffffffffffffffffff16837f2f8788117e7eff1d82e926ec794901d17c78024a50270940304540a733656f0d60405160405180910390a45b5050565b61250f82826114ea565b156125e35760006006600084815260200190815260200160002060000160008373ffffffffffffffffffffffffffffffffffffffff1673ffffffffffffffffffffffffffffffffffffffff16815260200190815260200160002060006101000a81548160ff021916908315150217905550612588611cad565b73ffffffffffffffffffffffffffffffffffffffff168173ffffffffffffffffffffffffffffffffffffffff16837ff6391f5c32d9c69d2a47ea670b442974b53935d1edc7fd64eb21e047a839171b60405160405180910390a45b5050565b600060011515612661858580806020026020016040519081016040528093929190818152602001838360200280828437600081840152601f19601f82011690508083019250505050505050600954856040516020016126469190614ebc565b60405160208183030381529060405280519060200120613060565b15151490509392505050565b8173ffffffffffffffffffffffffffffffffffffffff168373ffffffffffffffffffffffffffffffffffffffff16036126db576040517f08c379a00000000000000000000000000000000000000000000000000000000081526004016126d290614f23565b60405180910390fd5b80600560008573ffffffffffffffffffffffffffffffffffffffff1673ffffffffffffffffffffffffffffffffffffffff16815260200190815260200160002060008473ffffffffffffffffffffffffffffffffffffffff1673ffffffffffffffffffffffffffffffffffffffff16815260200190815260200160002060006101000a81548160ff0219169083151502179055508173ffffffffffffffffffffffffffffffffffffffff168373ffffffffffffffffffffffffffffffffffffffff167f17307eab39ab6107e8899845ad3d59bd9653f200f220920489ca2b5937696c31836040516127cc9190613652565b60405180910390a3505050565b6127e484848461212c565b6127f084848484613077565b61282f576040517f08c379a000000000000000000000000000000000000000000000000000000000815260040161282690614fb5565b60405180910390fd5b50505050565b6060600c805461284490613ed6565b80601f016020809104026020016040519081016040528092919081815260200182805461287090613ed6565b80156128bd5780601f10612892576101008083540402835291602001916128bd565b820191906000526020600020905b8154815290600101906020018083116128a057829003601f168201915b5050505050905090565b60606000820361290e576040518060400160405280600181526020017f30000000000000000000000000000000000000000000000000000000000000008152509050612a22565b600082905060005b6000821461294057808061292990614fd5565b915050600a82612939919061501d565b9150612916565b60008167ffffffffffffffff81111561295c5761295b6139f3565b5b6040519080825280601f01601f19166020018201604052801561298e5781602001600182028036833780820191505090505b5090505b60008514612a1b576001826129a791906149a1565b9150600a856129b69190614b7e565b60306129c29190614bde565b60f81b8183815181106129d8576129d7614baf565b5b60200101907effffffffffffffffffffffffffffffffffffffffffffffffffffffffffffff1916908160001a905350600a85612a14919061501d565b9450612992565b8093505050505b919050565b6000806033600281819054906101000a900461ffff1680929190612a4a90614977565b91906101000a81548161ffff021916908361ffff1602179055503342600143612a7391906149a1565b40604051602001612a879493929190614a95565b6040516020818303038152906040528051906020012060001c905060006033600281819054906101000a900461ffff1680929190612ac490614977565b91906101000a81548161ffff021916908361ffff16021790555061ffff166037612aee91906149a1565b905060008111612b33576040517f08c379a0000000000000000000000000000000000000000000000000000000008152600401612b2a9061509a565b60405180910390fd5b60008183612b419190614b7e565b90506000602f8260378110612b5957612b58614baf565b5b601091828204019190066002029054906101000a900461ffff1661ffff1603612b825780612bb5565b602f8160378110612b9657612b95614baf565b5b601091828204019190066002029054906101000a900461ffff1661ffff165b9350600184612bc49190614bde565b93506000602f600184612bd791906149a1565b60378110612be857612be7614baf565b5b601091828204019190066002029054906101000a900461ffff1661ffff1614612c4e57602f600183612c1a91906149a1565b60378110612c2b57612c2a614baf565b5b601091828204019190066002029054906101000a900461ffff1661ffff16612c5c565b600182612c5b91906149a1565b5b602f8260378110612c7057612c6f614baf565b5b601091828204019190066002026101000a81548161ffff021916908361ffff1602179055506000602f600184612ca691906149a1565b60378110612cb757612cb6614baf565b5b601091828204019190066002026101000a81548161ffff021916908361ffff16021790555050505090565b60007f80ac58cd000000000000000000000000000000000000000000000000000000007bffffffffffffffffffffffffffffffffffffffffffffffffffffffff1916827bffffffffffffffffffffffffffffffffffffffffffffffffffffffff19161480612dad57507f5b5e139f000000000000000000000000000000000000000000000000000000007bffffffffffffffffffffffffffffffffffffffffffffffffffffffff1916827bffffffffffffffffffffffffffffffffffffffffffffffffffffffff1916145b80612dbd5750612dbc826131fe565b5b9050919050565b612dce8383613268565b612ddb6000848484613077565b612e1a576040517f08c379a0000000000000000000000000000000000000000000000000000000008152600401612e1190614fb5565b60405180910390fd5b505050565b505050565b606060006002836002612e3791906150ba565b612e419190614bde565b67ffffffffffffffff811115612e5a57612e596139f3565b5b6040519080825280601f01601f191660200182016040528015612e8c5781602001600182028036833780820191505090505b5090507f300000000000000000000000000000000000000000000000000000000000000081600081518110612ec457612ec3614baf565b5b60200101907effffffffffffffffffffffffffffffffffffffffffffffffffffffffffffff1916908160001a9053507f780000000000000000000000000000000000000000000000000000000000000081600181518110612f2857612f27614baf565b5b60200101907effffffffffffffffffffffffffffffffffffffffffffffffffffffffffffff1916908160001a90535060006001846002612f6891906150ba565b612f729190614bde565b90505b6001811115613012577f3031323334353637383961626364656600000000000000000000000000000000600f861660108110612fb457612fb3614baf565b5b1a60f81b828281518110612fcb57612fca614baf565b5b60200101907effffffffffffffffffffffffffffffffffffffffffffffffffffffffffffff1916908160001a905350600485901c94508061300b90615114565b9050612f75565b5060008414613056576040517f08c379a000000000000000000000000000000000000000000000000000000000815260040161304d90615189565b60405180910390fd5b8091505092915050565b60008261306d8584613435565b1490509392505050565b60006130988473ffffffffffffffffffffffffffffffffffffffff166134e8565b156131f1578373ffffffffffffffffffffffffffffffffffffffff1663150b7a026130c1611cad565b8786866040518563ffffffff1660e01b81526004016130e394939291906151fe565b6020604051808303816000875af192505050801561311f57506040513d601f19601f8201168201806040525081019061311c919061525f565b60015b6131a1573d806000811461314f576040519150601f19603f3d011682016040523d82523d6000602084013e613154565b606091505b506000815103613199576040517f08c379a000000000000000000000000000000000000000000000000000000000815260040161319090614fb5565b60405180910390fd5b805181602001fd5b63150b7a0260e01b7bffffffffffffffffffffffffffffffffffffffffffffffffffffffff1916817bffffffffffffffffffffffffffffffffffffffffffffffffffffffff1916149150506131f6565b600190505b949350505050565b60007f01ffc9a7000000000000000000000000000000000000000000000000000000007bffffffffffffffffffffffffffffffffffffffffffffffffffffffff1916827bffffffffffffffffffffffffffffffffffffffffffffffffffffffff1916149050919050565b600073ffffffffffffffffffffffffffffffffffffffff168273ffffffffffffffffffffffffffffffffffffffff16036132d7576040517f08c379a00000000000000000000000000000000000000000000000000000000081526004016132ce906152d8565b60405180910390fd5b6132e081611c41565b15613320576040517f08c379a000000000000000000000000000000000000000000000000000000000815260040161331790615344565b60405180910390fd5b61332c60008383612e1f565b6001600360008473ffffffffffffffffffffffffffffffffffffffff1673ffffffffffffffffffffffffffffffffffffffff168152602001908152602001600020600082825461337c9190614bde565b92505081905550816002600083815260200190815260200160002060006101000a81548173ffffffffffffffffffffffffffffffffffffffff021916908373ffffffffffffffffffffffffffffffffffffffff160217905550808273ffffffffffffffffffffffffffffffffffffffff16600073ffffffffffffffffffffffffffffffffffffffff167fddf252ad1be2c89b69c2b068fc378daa952ba7f163c4a11628f55a4df523b3ef60405160405180910390a45050565b60008082905060005b84518110156134dd57600085828151811061345c5761345b614baf565b5b6020026020010151905080831161349d578281604051602001613480929190615364565b6040516020818303038152906040528051906020012092506134c9565b80836040516020016134b0929190615364565b6040516020818303038152906040528051906020012092505b5080806134d590614fd5565b91505061343e565b508091505092915050565b600080823b905060008111915050919050565b82805461350790613ed6565b90600052602060002090601f0160209004810192826135295760008555613570565b82601f1061354257805160ff1916838001178555613570565b82800160010185558215613570579182015b8281111561356f578251825591602001919060010190613554565b5b50905061357d9190613581565b5090565b5b8082111561359a576000816000905550600101613582565b5090565b6000604051905090565b600080fd5b600080fd5b60007fffffffff0000000000000000000000000000000000000000000000000000000082169050919050565b6135e7816135b2565b81146135f257600080fd5b50565b600081359050613604816135de565b92915050565b6000602082840312156136205761361f6135a8565b5b600061362e848285016135f5565b91505092915050565b60008115159050919050565b61364c81613637565b82525050565b60006020820190506136676000830184613643565b92915050565b600081519050919050565b600082825260208201905092915050565b60005b838110156136a757808201518184015260208101905061368c565b838111156136b6576000848401525b50505050565b6000601f19601f8301169050919050565b60006136d88261366d565b6136e28185613678565b93506136f2818560208601613689565b6136fb816136bc565b840191505092915050565b6000602082019050818103600083015261372081846136cd565b905092915050565b6000819050919050565b61373b81613728565b811461374657600080fd5b50565b60008135905061375881613732565b92915050565b600060208284031215613774576137736135a8565b5b600061378284828501613749565b91505092915050565b600073ffffffffffffffffffffffffffffffffffffffff82169050919050565b60006137b68261378b565b9050919050565b6137c6816137ab565b82525050565b60006020820190506137e160008301846137bd565b92915050565b6137f0816137ab565b81146137fb57600080fd5b50565b60008135905061380d816137e7565b92915050565b6000806040838503121561382a576138296135a8565b5b6000613838858286016137fe565b925050602061384985828601613749565b9150509250929050565b600067ffffffffffffffff82169050919050565b61387081613853565b82525050565b600060208201905061388b6000830184613867565b92915050565b600061ffff82169050919050565b6138a881613891565b82525050565b60006020820190506138c3600083018461389f565b92915050565b6000806000606084860312156138e2576138e16135a8565b5b60006138f0868287016137fe565b9350506020613901868287016137fe565b925050604061391286828701613749565b9150509250925092565b6000819050919050565b61392f8161391c565b811461393a57600080fd5b50565b60008135905061394c81613926565b92915050565b600060208284031215613968576139676135a8565b5b60006139768482850161393d565b91505092915050565b6139888161391c565b82525050565b60006020820190506139a3600083018461397f565b92915050565b600080604083850312156139c0576139bf6135a8565b5b60006139ce8582860161393d565b92505060206139df858286016137fe565b9150509250929050565b600080fd5b600080fd5b7f4e487b7100000000000000000000000000000000000000000000000000000000600052604160045260246000fd5b613a2b826136bc565b810181811067ffffffffffffffff82111715613a4a57613a496139f3565b5b80604052505050565b6000613a5d61359e565b9050613a698282613a22565b919050565b600067ffffffffffffffff821115613a8957613a886139f3565b5b613a92826136bc565b9050602081019050919050565b82818337600083830152505050565b6000613ac1613abc84613a6e565b613a53565b905082815260208101848484011115613add57613adc6139ee565b5b613ae8848285613a9f565b509392505050565b600082601f830112613b0557613b046139e9565b5b8135613b15848260208601613aae565b91505092915050565b600060208284031215613b3457613b336135a8565b5b600082013567ffffffffffffffff811115613b5257613b516135ad565b5b613b5e84828501613af0565b91505092915050565b600080fd5b600080fd5b60008083601f840112613b8757613b866139e9565b5b8235905067ffffffffffffffff811115613ba457613ba3613b67565b5b602083019150836020820283011115613bc057613bbf613b6c565b5b9250929050565b60008060208385031215613bde57613bdd6135a8565b5b600083013567ffffffffffffffff811115613bfc57613bfb6135ad565b5b613c0885828601613b71565b92509250509250929050565b600060208284031215613c2a57613c296135a8565b5b6000613c38848285016137fe565b91505092915050565b613c4a81613728565b82525050565b6000602082019050613c656000830184613c41565b92915050565b613c7481613637565b8114613c7f57600080fd5b50565b600081359050613c9181613c6b565b92915050565b60008060408385031215613cae57613cad6135a8565b5b6000613cbc858286016137fe565b9250506020613ccd85828601613c82565b9150509250929050565b600067ffffffffffffffff821115613cf257613cf16139f3565b5b613cfb826136bc565b9050602081019050919050565b6000613d1b613d1684613cd7565b613a53565b905082815260208101848484011115613d3757613d366139ee565b5b613d42848285613a9f565b509392505050565b600082601f830112613d5f57613d5e6139e9565b5b8135613d6f848260208601613d08565b91505092915050565b60008060008060808587031215613d9257613d916135a8565b5b6000613da0878288016137fe565b9450506020613db1878288016137fe565b9350506040613dc287828801613749565b925050606085013567ffffffffffffffff811115613de357613de26135ad565b5b613def87828801613d4a565b91505092959194509250565b60008060408385031215613e1257613e116135a8565b5b6000613e20858286016137fe565b9250506020613e31858286016137fe565b9150509250929050565b613e4481613891565b8114613e4f57600080fd5b50565b600081359050613e6181613e3b565b92915050565b60008060408385031215613e7e57613e7d6135a8565b5b6000613e8c858286016137fe565b9250506020613e9d85828601613e52565b9150509250929050565b7f4e487b7100000000000000000000000000000000000000000000000000000000600052602260045260246000fd5b60006002820490506001821680613eee57607f821691505b602082108103613f0157613f00613ea7565b5b50919050565b7f4552433732313a20617070726f76656420717565727920666f72206e6f6e657860008201527f697374656e7420746f6b656e0000000000000000000000000000000000000000602082015250565b6000613f63602c83613678565b9150613f6e82613f07565b604082019050919050565b60006020820190508181036000830152613f9281613f56565b9050919050565b7f4552433732313a20617070726f76616c20746f2063757272656e74206f776e6560008201527f7200000000000000000000000000000000000000000000000000000000000000602082015250565b6000613ff5602183613678565b915061400082613f99565b604082019050919050565b6000602082019050818103600083015261402481613fe8565b9050919050565b7f4552433732313a20617070726f76652063616c6c6572206973206e6f74206f7760008201527f6e6572206e6f7220617070726f76656420666f7220616c6c0000000000000000602082015250565b6000614087603883613678565b91506140928261402b565b604082019050919050565b600060208201905081810360008301526140b68161407a565b9050919050565b7f5055424c49435f53414c455f494e414354495645000000000000000000000000600082015250565b60006140f3601483613678565b91506140fe826140bd565b602082019050919050565b60006020820190508181036000830152614122816140e6565b9050919050565b600060ff82169050919050565b7f4e487b7100000000000000000000000000000000000000000000000000000000600052601160045260246000fd5b600061417082614129565b915061417b83614129565b92508260ff0382111561419157614190614136565b5b828201905092915050565b7f5055424c49435f544f4b454e5f4c494d49540000000000000000000000000000600082015250565b60006141d2601283613678565b91506141dd8261419c565b602082019050919050565b60006020820190508181036000830152614201816141c5565b9050919050565b600061421382613891565b915061421e83613891565b92508261ffff0382111561423557614234614136565b5b828201905092915050565b7f455843454544535f434f4c4c454354494f4e5f53495a45000000000000000000600082015250565b6000614276601783613678565b915061428182614240565b602082019050919050565b600060208201905081810360008301526142a581614269565b9050919050565b7f4552433732313a207472616e736665722063616c6c6572206973206e6f74206f60008201527f776e6572206e6f7220617070726f766564000000000000000000000000000000602082015250565b6000614308603183613678565b9150614313826142ac565b604082019050919050565b60006020820190508181036000830152614337816142fb565b9050919050565b7f4d75737420626520616e2061646d696e00000000000000000000000000000000600082015250565b6000614374601083613678565b915061437f8261433e565b602082019050919050565b600060208201905081810360008301526143a381614367565b9050919050565b7f4d455441444154415f46494e414c495a45440000000000000000000000000000600082015250565b60006143e0601283613678565b91506143eb826143aa565b602082019050919050565b6000602082019050818103600083015261440f816143d3565b9050919050565b7f416363657373436f6e74726f6c3a2063616e206f6e6c792072656e6f756e636560008201527f20726f6c657320666f722073656c660000000000000000000000000000000000602082015250565b6000614472602f83613678565b915061447d82614416565b604082019050919050565b600060208201905081810360008301526144a181614465565b9050919050565b7f50524553414c455f494e41435449564500000000000000000000000000000000600082015250565b60006144de601083613678565b91506144e9826144a8565b602082019050919050565b6000602082019050818103600083015261450d816144d1565b9050919050565b7f50524553414c455f4e4f545f5645524946494544000000000000000000000000600082015250565b600061454a601483613678565b915061455582614514565b602082019050919050565b600060208201905081810360008301526145798161453d565b9050919050565b7f57484954454c4953545f544f4b454e5f434c41494d4544000000000000000000600082015250565b60006145b6601783613678565b91506145c182614580565b602082019050919050565b600060208201905081810360008301526145e5816145a9565b9050919050565b7f54494d45535f46494e414c495a45440000000000000000000000000000000000600082015250565b6000614622600f83613678565b915061462d826145ec565b602082019050919050565b6000602082019050818103600083015261465181614615565b9050919050565b7f4552433732313a206f776e657220717565727920666f72206e6f6e657869737460008201527f656e7420746f6b656e0000000000000000000000000000000000000000000000602082015250565b60006146b4602983613678565b91506146bf82614658565b604082019050919050565b600060208201905081810360008301526146e3816146a7565b9050919050565b7f4552433732313a2062616c616e636520717565727920666f7220746865207a6560008201527f726f206164647265737300000000000000000000000000000000000000000000602082015250565b6000614746602a83613678565b9150614751826146ea565b604082019050919050565b6000602082019050818103600083015261477581614739565b9050919050565b7f494e56414c49445f494400000000000000000000000000000000000000000000600082015250565b60006147b2600a83613678565b91506147bd8261477c565b602082019050919050565b600060208201905081810360008301526147e1816147a5565b9050919050565b600081905092915050565b60006147fe8261366d565b61480881856147e8565b9350614818818560208601613689565b80840191505092915050565b7f2e6a736f6e000000000000000000000000000000000000000000000000000000600082015250565b600061485a6005836147e8565b915061486582614824565b600582019050919050565b600061487c82856147f3565b915061488882846147f3565b91506148938261484d565b91508190509392505050565b7f4c4953545f46494e414c495a4544000000000000000000000000000000000000600082015250565b60006148d5600e83613678565b91506148e08261489f565b602082019050919050565b60006020820190508181036000830152614904816148c8565b9050919050565b7f41697264726f70206c696d697420726561636865640000000000000000000000600082015250565b6000614941601583613678565b915061494c8261490b565b602082019050919050565b6000602082019050818103600083015261497081614934565b9050919050565b600061498282613891565b915061ffff820361499657614995614136565b5b600182019050919050565b60006149ac82613728565b91506149b783613728565b9250828210156149ca576149c9614136565b5b828203905092915050565b60008160f01b9050919050565b60006149ed826149d5565b9050919050565b614a05614a0082613891565b6149e2565b82525050565b60008160601b9050919050565b6000614a2382614a0b565b9050919050565b6000614a3582614a18565b9050919050565b614a4d614a48826137ab565b614a2a565b82525050565b6000819050919050565b614a6e614a6982613728565b614a53565b82525050565b6000819050919050565b614a8f614a8a8261391c565b614a74565b82525050565b6000614aa182876149f4565b600282019150614ab18286614a3c565b601482019150614ac18285614a5d565b602082019150614ad18284614a7e565b60208201915081905095945050505050565b7f6e6f205f636f6d6d756e697479496473206c6566740000000000000000000000600082015250565b6000614b19601583613678565b9150614b2482614ae3565b602082019050919050565b60006020820190508181036000830152614b4881614b0c565b9050919050565b7f4e487b7100000000000000000000000000000000000000000000000000000000600052601260045260246000fd5b6000614b8982613728565b9150614b9483613728565b925082614ba457614ba3614b4f565b5b828206905092915050565b7f4e487b7100000000000000000000000000000000000000000000000000000000600052603260045260246000fd5b6000614be982613728565b9150614bf483613728565b9250827fffffffffffffffffffffffffffffffffffffffffffffffffffffffffffffffff03821115614c2957614c28614136565b5b828201905092915050565b7f4552433732313a206f70657261746f7220717565727920666f72206e6f6e657860008201527f697374656e7420746f6b656e0000000000000000000000000000000000000000602082015250565b6000614c90602c83613678565b9150614c9b82614c34565b604082019050919050565b60006020820190508181036000830152614cbf81614c83565b9050919050565b7f4552433732313a207472616e73666572206f6620746f6b656e2074686174206960008201527f73206e6f74206f776e0000000000000000000000000000000000000000000000602082015250565b6000614d22602983613678565b9150614d2d82614cc6565b604082019050919050565b60006020820190508181036000830152614d5181614d15565b9050919050565b7f4552433732313a207472616e7366657220746f20746865207a65726f2061646460008201527f7265737300000000000000000000000000000000000000000000000000000000602082015250565b6000614db4602483613678565b9150614dbf82614d58565b604082019050919050565b60006020820190508181036000830152614de381614da7565b9050919050565b7f416363657373436f6e74726f6c3a206163636f756e7420000000000000000000600082015250565b6000614e206017836147e8565b9150614e2b82614dea565b601782019050919050565b7f206973206d697373696e6720726f6c6520000000000000000000000000000000600082015250565b6000614e6c6011836147e8565b9150614e7782614e36565b601182019050919050565b6000614e8d82614e13565b9150614e9982856147f3565b9150614ea482614e5f565b9150614eb082846147f3565b91508190509392505050565b6000614ec88284614a3c565b60148201915081905092915050565b7f4552433732313a20617070726f766520746f2063616c6c657200000000000000600082015250565b6000614f0d601983613678565b9150614f1882614ed7565b602082019050919050565b60006020820190508181036000830152614f3c81614f00565b9050919050565b7f4552433732313a207472616e7366657220746f206e6f6e20455243373231526560008201527f63656976657220696d706c656d656e7465720000000000000000000000000000602082015250565b6000614f9f603283613678565b9150614faa82614f43565b604082019050919050565b60006020820190508181036000830152614fce81614f92565b9050919050565b6000614fe082613728565b91507fffffffffffffffffffffffffffffffffffffffffffffffffffffffffffffffff820361501257615011614136565b5b600182019050919050565b600061502882613728565b915061503383613728565b92508261504357615042614b4f565b5b828204905092915050565b7f6e6f205f7465616d496473206c65667400000000000000000000000000000000600082015250565b6000615084601083613678565b915061508f8261504e565b602082019050919050565b600060208201905081810360008301526150b381615077565b9050919050565b60006150c582613728565b91506150d083613728565b9250817fffffffffffffffffffffffffffffffffffffffffffffffffffffffffffffffff048311821515161561510957615108614136565b5b828202905092915050565b600061511f82613728565b91506000820361513257615131614136565b5b600182039050919050565b7f537472696e67733a20686578206c656e67746820696e73756666696369656e74600082015250565b6000615173602083613678565b915061517e8261513d565b602082019050919050565b600060208201905081810360008301526151a281615166565b9050919050565b600081519050919050565b600082825260208201905092915050565b60006151d0826151a9565b6151da81856151b4565b93506151ea818560208601613689565b6151f3816136bc565b840191505092915050565b600060808201905061521360008301876137bd565b61522060208301866137bd565b61522d6040830185613c41565b818103606083015261523f81846151c5565b905095945050505050565b600081519050615259816135de565b92915050565b600060208284031215615275576152746135a8565b5b60006152838482850161524a565b91505092915050565b7f4552433732313a206d696e7420746f20746865207a65726f2061646472657373600082015250565b60006152c2602083613678565b91506152cd8261528c565b602082019050919050565b600060208201905081810360008301526152f1816152b5565b9050919050565b7f4552433732313a20746f6b656e20616c7265616479206d696e74656400000000600082015250565b600061532e601c83613678565b9150615339826152f8565b602082019050919050565b6000602082019050818103600083015261535d81615321565b9050919050565b60006153708285614a7e565b6020820191506153808284614a7e565b602082019150819050939250505056fea26469706673582212201371cfdd9721462adafe28c964187f7cbf514208546686c9a2efe1d53fd4158764736f6c634300080d0033",
  "linkReferences": {},
  "deployedLinkReferences": {}
}