{
  "_format": "hh-sol-artifact-1",
  "contractName": "FifthDimension",
  "sourceName": "contracts/FifthDimension.sol",
  "abi": [
    {
      "inputs": [
        {
          "internalType": "uint256",
          "name": "_whitelistStart",
          "type": "uint256"
        },
        {
          "internalType": "uint256",
          "name": "_whitelistEnd",
          "type": "uint256"
        },
        {
          "internalType": "uint256",
          "name": "_publicStart",
          "type": "uint256"
        },
        {
          "internalType": "uint256",
          "name": "_publicEnd",
          "type": "uint256"
        },
        {
          "internalType": "bytes32",
          "name": "whitelistMerkleRoot",
          "type": "bytes32"
        },
        {
          "internalType": "string",
          "name": "name",
          "type": "string"
        },
        {
          "internalType": "string",
          "name": "symbol",
          "type": "string"
        },
        {
          "internalType": "string",
          "name": "tempUri",
          "type": "string"
        }
      ],
      "stateMutability": "nonpayable",
      "type": "constructor"
    },
    {
      "anonymous": false,
      "inputs": [
        {
          "indexed": true,
          "internalType": "address",
          "name": "owner",
          "type": "address"
        },
        {
          "indexed": true,
          "internalType": "address",
          "name": "approved",
          "type": "address"
        },
        {
          "indexed": true,
          "internalType": "uint256",
          "name": "tokenId",
          "type": "uint256"
        }
      ],
      "name": "Approval",
      "type": "event"
    },
    {
      "anonymous": false,
      "inputs": [
        {
          "indexed": true,
          "internalType": "address",
          "name": "owner",
          "type": "address"
        },
        {
          "indexed": true,
          "internalType": "address",
          "name": "operator",
          "type": "address"
        },
        {
          "indexed": false,
          "internalType": "bool",
          "name": "approved",
          "type": "bool"
        }
      ],
      "name": "ApprovalForAll",
      "type": "event"
    },
    {
      "anonymous": false,
      "inputs": [
        {
          "indexed": true,
          "internalType": "address",
          "name": "previousOwner",
          "type": "address"
        },
        {
          "indexed": true,
          "internalType": "address",
          "name": "newOwner",
          "type": "address"
        }
      ],
      "name": "OwnershipTransferred",
      "type": "event"
    },
    {
      "anonymous": false,
      "inputs": [
        {
          "indexed": true,
          "internalType": "address",
          "name": "from",
          "type": "address"
        },
        {
          "indexed": true,
          "internalType": "address",
          "name": "to",
          "type": "address"
        },
        {
          "indexed": true,
          "internalType": "uint256",
          "name": "tokenId",
          "type": "uint256"
        }
      ],
      "name": "Transfer",
      "type": "event"
    },
    {
      "inputs": [
        {
          "internalType": "address",
          "name": "to",
          "type": "address"
        },
        {
          "internalType": "uint16",
          "name": "quantity",
          "type": "uint16"
        }
      ],
      "name": "airdrop",
      "outputs": [],
      "stateMutability": "nonpayable",
      "type": "function"
    },
    {
      "inputs": [
        {
          "internalType": "address",
          "name": "to",
          "type": "address"
        },
        {
          "internalType": "uint256",
          "name": "tokenId",
          "type": "uint256"
        }
      ],
      "name": "approve",
      "outputs": [],
      "stateMutability": "nonpayable",
      "type": "function"
    },
    {
      "inputs": [
        {
          "internalType": "address",
          "name": "owner",
          "type": "address"
        }
      ],
      "name": "balanceOf",
      "outputs": [
        {
          "internalType": "uint256",
          "name": "",
          "type": "uint256"
        }
      ],
      "stateMutability": "view",
      "type": "function"
    },
    {
      "inputs": [
        {
          "internalType": "uint256",
          "name": "tokenId",
          "type": "uint256"
        }
      ],
      "name": "getApproved",
      "outputs": [
        {
          "internalType": "address",
          "name": "",
          "type": "address"
        }
      ],
      "stateMutability": "view",
      "type": "function"
    },
    {
      "inputs": [
        {
          "internalType": "address",
          "name": "owner",
          "type": "address"
        },
        {
          "internalType": "address",
          "name": "operator",
          "type": "address"
        }
      ],
      "name": "isApprovedForAll",
      "outputs": [
        {
          "internalType": "bool",
          "name": "",
          "type": "bool"
        }
      ],
      "stateMutability": "view",
      "type": "function"
    },
    {
      "inputs": [],
      "name": "isPublicSaleActive",
      "outputs": [
        {
          "internalType": "bool",
          "name": "",
          "type": "bool"
        }
      ],
      "stateMutability": "view",
      "type": "function"
    },
    {
      "inputs": [],
      "name": "isWhitelistSaleActive",
      "outputs": [
        {
          "internalType": "bool",
          "name": "",
          "type": "bool"
        }
      ],
      "stateMutability": "view",
      "type": "function"
    },
    {
      "inputs": [],
      "name": "mint",
      "outputs": [],
      "stateMutability": "nonpayable",
      "type": "function"
    },
    {
      "inputs": [],
      "name": "name",
      "outputs": [
        {
          "internalType": "string",
          "name": "",
          "type": "string"
        }
      ],
      "stateMutability": "view",
      "type": "function"
    },
    {
      "inputs": [
        {
          "internalType": "bool",
          "name": "publicSale",
          "type": "bool"
        },
        {
          "internalType": "bool",
          "name": "privateSale",
          "type": "bool"
        }
      ],
      "name": "overrideSales",
      "outputs": [],
      "stateMutability": "nonpayable",
      "type": "function"
    },
    {
      "inputs": [],
      "name": "owner",
      "outputs": [
        {
          "internalType": "address",
          "name": "",
          "type": "address"
        }
      ],
      "stateMutability": "view",
      "type": "function"
    },
    {
      "inputs": [
        {
          "internalType": "uint256",
          "name": "tokenId",
          "type": "uint256"
        }
      ],
      "name": "ownerOf",
      "outputs": [
        {
          "internalType": "address",
          "name": "",
          "type": "address"
        }
      ],
      "stateMutability": "view",
      "type": "function"
    },
    {
      "inputs": [],
      "name": "publicEnd",
      "outputs": [
        {
          "internalType": "uint256",
          "name": "",
          "type": "uint256"
        }
      ],
      "stateMutability": "view",
      "type": "function"
    },
    {
      "inputs": [],
      "name": "publicStart",
      "outputs": [
        {
          "internalType": "uint256",
          "name": "",
          "type": "uint256"
        }
      ],
      "stateMutability": "view",
      "type": "function"
    },
    {
      "inputs": [],
      "name": "renounceOwnership",
      "outputs": [],
      "stateMutability": "nonpayable",
      "type": "function"
    },
    {
      "inputs": [],
      "name": "revealed",
      "outputs": [
        {
          "internalType": "uint256",
          "name": "",
          "type": "uint256"
        }
      ],
      "stateMutability": "view",
      "type": "function"
    },
    {
      "inputs": [
        {
          "internalType": "address",
          "name": "from",
          "type": "address"
        },
        {
          "internalType": "address",
          "name": "to",
          "type": "address"
        },
        {
          "internalType": "uint256",
          "name": "tokenId",
          "type": "uint256"
        }
      ],
      "name": "safeTransferFrom",
      "outputs": [],
      "stateMutability": "nonpayable",
      "type": "function"
    },
    {
      "inputs": [
        {
          "internalType": "address",
          "name": "from",
          "type": "address"
        },
        {
          "internalType": "address",
          "name": "to",
          "type": "address"
        },
        {
          "internalType": "uint256",
          "name": "tokenId",
          "type": "uint256"
        },
        {
          "internalType": "bytes",
          "name": "_data",
          "type": "bytes"
        }
      ],
      "name": "safeTransferFrom",
      "outputs": [],
      "stateMutability": "nonpayable",
      "type": "function"
    },
    {
      "inputs": [
        {
          "internalType": "address",
          "name": "operator",
          "type": "address"
        },
        {
          "internalType": "bool",
          "name": "approved",
          "type": "bool"
        }
      ],
      "name": "setApprovalForAll",
      "outputs": [],
      "stateMutability": "nonpayable",
      "type": "function"
    },
    {
      "inputs": [
        {
          "internalType": "string",
          "name": "baseUri",
          "type": "string"
        }
      ],
      "name": "setBaseURI",
      "outputs": [],
      "stateMutability": "nonpayable",
      "type": "function"
    },
    {
      "inputs": [
        {
          "internalType": "string",
          "name": "tempUri",
          "type": "string"
        }
      ],
      "name": "setPlaceholderURI",
      "outputs": [],
      "stateMutability": "nonpayable",
      "type": "function"
    },
    {
      "inputs": [
        {
          "internalType": "bytes4",
          "name": "interfaceId",
          "type": "bytes4"
        }
      ],
      "name": "supportsInterface",
      "outputs": [
        {
          "internalType": "bool",
          "name": "",
          "type": "bool"
        }
      ],
      "stateMutability": "view",
      "type": "function"
    },
    {
      "inputs": [],
      "name": "symbol",
      "outputs": [
        {
          "internalType": "string",
          "name": "",
          "type": "string"
        }
      ],
      "stateMutability": "view",
      "type": "function"
    },
    {
      "inputs": [],
      "name": "toggleReveal",
      "outputs": [],
      "stateMutability": "nonpayable",
      "type": "function"
    },
    {
      "inputs": [
        {
          "internalType": "uint256",
          "name": "id",
          "type": "uint256"
        }
      ],
      "name": "tokenURI",
      "outputs": [
        {
          "internalType": "string",
          "name": "",
          "type": "string"
        }
      ],
      "stateMutability": "view",
      "type": "function"
    },
    {
      "inputs": [],
      "name": "totalSupply",
      "outputs": [
        {
          "internalType": "uint256",
          "name": "",
          "type": "uint256"
        }
      ],
      "stateMutability": "view",
      "type": "function"
    },
    {
      "inputs": [
        {
          "internalType": "address",
          "name": "from",
          "type": "address"
        },
        {
          "internalType": "address",
          "name": "to",
          "type": "address"
        },
        {
          "internalType": "uint256",
          "name": "tokenId",
          "type": "uint256"
        }
      ],
      "name": "transferFrom",
      "outputs": [],
      "stateMutability": "nonpayable",
      "type": "function"
    },
    {
      "inputs": [
        {
          "internalType": "address",
          "name": "newOwner",
          "type": "address"
        }
      ],
      "name": "transferOwnership",
      "outputs": [],
      "stateMutability": "nonpayable",
      "type": "function"
    },
    {
      "inputs": [],
      "name": "whitelistEnd",
      "outputs": [
        {
          "internalType": "uint256",
          "name": "",
          "type": "uint256"
        }
      ],
      "stateMutability": "view",
      "type": "function"
    },
    {
      "inputs": [
        {
          "internalType": "bytes32[]",
          "name": "_merkleProof",
          "type": "bytes32[]"
        }
      ],
      "name": "whitelistMint",
      "outputs": [],
      "stateMutability": "nonpayable",
      "type": "function"
    },
    {
      "inputs": [],
      "name": "whitelistStart",
      "outputs": [
        {
          "internalType": "uint256",
          "name": "",
          "type": "uint256"
        }
      ],
      "stateMutability": "view",
      "type": "function"
    }
  ],
  "bytecode": "0x60806040523480156200001157600080fd5b5060405162004790380380620047908339818101604052810190620000379190620005a9565b8282816000908051906020019062000051929190620002e6565b5080600190805190602001906200006a929190620002e6565b5050506200008d620000816200021860201b60201c565b6200022060201b60201c565b836012819055508060119080519060200190620000ac929190620002e6565b506000429050808911620000f7576040517f08c379a0000000000000000000000000000000000000000000000000000000008152600401620000ee9062000730565b60405180910390fd5b8088118015620001085750600c5488115b6200014a576040517f08c379a00000000000000000000000000000000000000000000000000000000081526004016200014190620007a2565b60405180910390fd5b88600c8190555087600d819055508087118015620001685750878710155b620001aa576040517f08c379a0000000000000000000000000000000000000000000000000000000008152600401620001a19062000814565b60405180910390fd5b8086118015620001b957508686115b620001fb576040517f08c379a0000000000000000000000000000000000000000000000000000000008152600401620001f29062000886565b60405180910390fd5b86600e8190555085600f819055505050505050505050506200090c565b600033905090565b6000600660009054906101000a900473ffffffffffffffffffffffffffffffffffffffff16905081600660006101000a81548173ffffffffffffffffffffffffffffffffffffffff021916908373ffffffffffffffffffffffffffffffffffffffff1602179055508173ffffffffffffffffffffffffffffffffffffffff168173ffffffffffffffffffffffffffffffffffffffff167f8be0079c531659141344cd1fd0a4f28419497f9722a3daafe3b4186f6b6457e060405160405180910390a35050565b828054620002f490620008d7565b90600052602060002090601f01602090048101928262000318576000855562000364565b82601f106200033357805160ff191683800117855562000364565b8280016001018555821562000364579182015b828111156200036357825182559160200191906001019062000346565b5b50905062000373919062000377565b5090565b5b808211156200039257600081600090555060010162000378565b5090565b6000604051905090565b600080fd5b600080fd5b6000819050919050565b620003bf81620003aa565b8114620003cb57600080fd5b50565b600081519050620003df81620003b4565b92915050565b6000819050919050565b620003fa81620003e5565b81146200040657600080fd5b50565b6000815190506200041a81620003ef565b92915050565b600080fd5b600080fd5b6000601f19601f8301169050919050565b7f4e487b7100000000000000000000000000000000000000000000000000000000600052604160045260246000fd5b62000475826200042a565b810181811067ffffffffffffffff821117156200049757620004966200043b565b5b80604052505050565b6000620004ac62000396565b9050620004ba82826200046a565b919050565b600067ffffffffffffffff821115620004dd57620004dc6200043b565b5b620004e8826200042a565b9050602081019050919050565b60005b8381101562000515578082015181840152602081019050620004f8565b8381111562000525576000848401525b50505050565b6000620005426200053c84620004bf565b620004a0565b90508281526020810184848401111562000561576200056062000425565b5b6200056e848285620004f5565b509392505050565b600082601f8301126200058e576200058d62000420565b5b8151620005a08482602086016200052b565b91505092915050565b600080600080600080600080610100898b031215620005cd57620005cc620003a0565b5b6000620005dd8b828c01620003ce565b9850506020620005f08b828c01620003ce565b9750506040620006038b828c01620003ce565b9650506060620006168b828c01620003ce565b9550506080620006298b828c0162000409565b94505060a089015167ffffffffffffffff8111156200064d576200064c620003a5565b5b6200065b8b828c0162000576565b93505060c089015167ffffffffffffffff8111156200067f576200067e620003a5565b5b6200068d8b828c0162000576565b92505060e089015167ffffffffffffffff811115620006b157620006b0620003a5565b5b620006bf8b828c0162000576565b9150509295985092959890939650565b600082825260208201905092915050565b7f57726f6e672077686974656c6973742073746172740000000000000000000000600082015250565b600062000718601583620006cf565b91506200072582620006e0565b602082019050919050565b600060208201905081810360008301526200074b8162000709565b9050919050565b7f57726f6e672077686974656c69737420656e6400000000000000000000000000600082015250565b60006200078a601383620006cf565b9150620007978262000752565b602082019050919050565b60006020820190508181036000830152620007bd816200077b565b9050919050565b7f57726f6e67207075626c69632073746172740000000000000000000000000000600082015250565b6000620007fc601283620006cf565b91506200080982620007c4565b602082019050919050565b600060208201905081810360008301526200082f81620007ed565b9050919050565b7f57726f6e67207075626c696320656e6400000000000000000000000000000000600082015250565b60006200086e601083620006cf565b91506200087b8262000836565b602082019050919050565b60006020820190508181036000830152620008a1816200085f565b9050919050565b7f4e487b7100000000000000000000000000000000000000000000000000000000600052602260045260246000fd5b60006002820490506001821680620008f057607f821691505b602082108103620009065762000905620008a8565b5b50919050565b613e74806200091c6000396000f3fe608060405234801561001057600080fd5b50600436106101e55760003560e01c80635b8ad4291161010f578063a5f4c6ff116100a2578063c87b56dd11610071578063c87b56dd1461050e578063e985e9c51461053e578063ec8d130b1461056e578063f2fde38b1461058a576101e5565b8063a5f4c6ff14610498578063b88d4fde146104b6578063b98451cf146104d2578063bfb6e0e7146104f0576101e5565b80638da5cb5b116100de5780638da5cb5b1461042257806395d89b4114610440578063994d39691461045e578063a22cb4651461047c576101e5565b80635b8ad429146103ae5780636352211e146103b857806370a08231146103e8578063715018a614610418576101e5565b80631e84c4131161018757806342842e0e1161015657806342842e0e1461033c578063518302271461035857806355f804b3146103765780635b010e4314610392576101e5565b80631e84c413146102ca57806323b872dd146102e85780633574a2dd14610304578063372f657c14610320576101e5565b8063095ea7b3116101c3578063095ea7b3146102685780630acae9a7146102845780631249c58b146102a257806318160ddd146102ac576101e5565b806301ffc9a7146101ea57806306fdde031461021a578063081812fc14610238575b600080fd5b61020460048036038101906101ff919061265f565b6105a6565b60405161021191906126a7565b60405180910390f35b6102226105b8565b60405161022f919061275b565b60405180910390f35b610252600480360381019061024d91906127b3565b61064a565b60405161025f9190612821565b60405180910390f35b610282600480360381019061027d9190612868565b6106cf565b005b61028c6107e6565b60405161029991906128b7565b60405180910390f35b6102aa6107ec565b005b6102b4610925565b6040516102c191906128b7565b60405180910390f35b6102d2610936565b6040516102df91906126a7565b60405180910390f35b61030260048036038101906102fd91906128d2565b61095c565b005b61031e60048036038101906103199190612a5a565b6109bc565b005b61033a60048036038101906103359190612b03565b610a52565b005b610356600480360381019061035191906128d2565b610bc4565b005b610360610be4565b60405161036d91906128b7565b60405180910390f35b610390600480360381019061038b9190612a5a565b610bea565b005b6103ac60048036038101906103a79190612b7c565b610c80565b005b6103b6610d30565b005b6103d260048036038101906103cd91906127b3565b610dcb565b6040516103df9190612821565b60405180910390f35b61040260048036038101906103fd9190612bbc565b610e7c565b60405161040f91906128b7565b60405180910390f35b610420610f33565b005b61042a610fbb565b6040516104379190612821565b60405180910390f35b610448610fe5565b604051610455919061275b565b60405180910390f35b610466611077565b60405161047391906128b7565b60405180910390f35b61049660048036038101906104919190612be9565b61107d565b005b6104a0611093565b6040516104ad91906128b7565b60405180910390f35b6104d060048036038101906104cb9190612cca565b611099565b005b6104da6110fb565b6040516104e791906126a7565b60405180910390f35b6104f8611121565b60405161050591906128b7565b60405180910390f35b610528600480360381019061052391906127b3565b611127565b604051610535919061275b565b60405180910390f35b61055860048036038101906105539190612d4d565b611244565b60405161056591906126a7565b60405180910390f35b61058860048036038101906105839190612dc7565b6112d8565b005b6105a4600480360381019061059f9190612bbc565b611401565b005b60006105b1826114f8565b9050919050565b6060600080546105c790612e36565b80601f01602080910402602001604051908101604052809291908181526020018280546105f390612e36565b80156106405780601f1061061557610100808354040283529160200191610640565b820191906000526020600020905b81548152906001019060200180831161062357829003601f168201915b5050505050905090565b6000610655826115da565b610694576040517f08c379a000000000000000000000000000000000000000000000000000000000815260040161068b90612ed9565b60405180910390fd5b6004600083815260200190815260200160002060009054906101000a900473ffffffffffffffffffffffffffffffffffffffff169050919050565b60006106da82610dcb565b90508073ffffffffffffffffffffffffffffffffffffffff168373ffffffffffffffffffffffffffffffffffffffff160361074a576040517f08c379a000000000000000000000000000000000000000000000000000000000815260040161074190612f6b565b60405180910390fd5b8073ffffffffffffffffffffffffffffffffffffffff16610769611646565b73ffffffffffffffffffffffffffffffffffffffff161480610798575061079781610792611646565b611244565b5b6107d7576040517f08c379a00000000000000000000000000000000000000000000000000000000081526004016107ce90612ffd565b60405180910390fd5b6107e1838361164e565b505050565b600f5481565b6107f4610936565b610833576040517f08c379a000000000000000000000000000000000000000000000000000000000815260040161082a90613069565b60405180910390fd5b600061083d611646565b90506001601560008373ffffffffffffffffffffffffffffffffffffffff1673ffffffffffffffffffffffffffffffffffffffff168152602001908152602001600020600082825461088f91906130b8565b925050819055506002601560008373ffffffffffffffffffffffffffffffffffffffff1673ffffffffffffffffffffffffffffffffffffffff168152602001908152602001600020541115610919576040517f08c379a00000000000000000000000000000000000000000000000000000000081526004016109109061315a565b60405180910390fd5b61092281611707565b50565b600061093160136117d4565b905090565b6000600160095414806109575750600e54421180156109565750600f5442105b5b905090565b61096d610967611646565b826117e2565b6109ac576040517f08c379a00000000000000000000000000000000000000000000000000000000081526004016109a3906131ec565b60405180910390fd5b6109b78383836118c0565b505050565b6109c4611646565b73ffffffffffffffffffffffffffffffffffffffff166109e2610fbb565b73ffffffffffffffffffffffffffffffffffffffff1614610a38576040517f08c379a0000000000000000000000000000000000000000000000000000000008152600401610a2f90613258565b60405180910390fd5b8060119080519060200190610a4e929190612550565b5050565b6000610a5c611646565b9050610a666110fb565b610aa5576040517f08c379a0000000000000000000000000000000000000000000000000000000008152600401610a9c906132c4565b60405180910390fd5b610ab0838383611b1b565b610aef576040517f08c379a0000000000000000000000000000000000000000000000000000000008152600401610ae690613330565b60405180910390fd5b6000601460008373ffffffffffffffffffffffffffffffffffffffff1673ffffffffffffffffffffffffffffffffffffffff1681526020019081526020016000205414610b71576040517f08c379a0000000000000000000000000000000000000000000000000000000008152600401610b689061339c565b60405180910390fd5b6001601460008373ffffffffffffffffffffffffffffffffffffffff1673ffffffffffffffffffffffffffffffffffffffff16815260200190815260200160002081905550610bbf81611707565b505050565b610bdf83838360405180602001604052806000815250611099565b505050565b60075481565b610bf2611646565b73ffffffffffffffffffffffffffffffffffffffff16610c10610fbb565b73ffffffffffffffffffffffffffffffffffffffff1614610c66576040517f08c379a0000000000000000000000000000000000000000000000000000000008152600401610c5d90613258565b60405180910390fd5b8060109080519060200190610c7c929190612550565b5050565b610c88611646565b73ffffffffffffffffffffffffffffffffffffffff16610ca6610fbb565b73ffffffffffffffffffffffffffffffffffffffff1614610cfc576040517f08c379a0000000000000000000000000000000000000000000000000000000008152600401610cf390613258565b60405180910390fd5b81610d08576000610d0b565b60015b60ff1660098190555080610d20576000610d23565b60015b60ff166008819055505050565b610d38611646565b73ffffffffffffffffffffffffffffffffffffffff16610d56610fbb565b73ffffffffffffffffffffffffffffffffffffffff1614610dac576040517f08c379a0000000000000000000000000000000000000000000000000000000008152600401610da390613258565b60405180910390fd5b600060075414610dbd576000610dc0565b60015b60ff16600781905550565b6000806002600084815260200190815260200160002060009054906101000a900473ffffffffffffffffffffffffffffffffffffffff169050600073ffffffffffffffffffffffffffffffffffffffff168173ffffffffffffffffffffffffffffffffffffffff1603610e73576040517f08c379a0000000000000000000000000000000000000000000000000000000008152600401610e6a9061342e565b60405180910390fd5b80915050919050565b60008073ffffffffffffffffffffffffffffffffffffffff168273ffffffffffffffffffffffffffffffffffffffff1603610eec576040517f08c379a0000000000000000000000000000000000000000000000000000000008152600401610ee3906134c0565b60405180910390fd5b600360008373ffffffffffffffffffffffffffffffffffffffff1673ffffffffffffffffffffffffffffffffffffffff168152602001908152602001600020549050919050565b610f3b611646565b73ffffffffffffffffffffffffffffffffffffffff16610f59610fbb565b73ffffffffffffffffffffffffffffffffffffffff1614610faf576040517f08c379a0000000000000000000000000000000000000000000000000000000008152600401610fa690613258565b60405180910390fd5b610fb96000611ba1565b565b6000600660009054906101000a900473ffffffffffffffffffffffffffffffffffffffff16905090565b606060018054610ff490612e36565b80601f016020809104026020016040519081016040528092919081815260200182805461102090612e36565b801561106d5780601f106110425761010080835404028352916020019161106d565b820191906000526020600020905b81548152906001019060200180831161105057829003601f168201915b5050505050905090565b600c5481565b61108f611088611646565b8383611c67565b5050565b600e5481565b6110aa6110a4611646565b836117e2565b6110e9576040517f08c379a00000000000000000000000000000000000000000000000000000000081526004016110e0906131ec565b60405180910390fd5b6110f584848484611dd3565b50505050565b60006001600854148061111c5750600c544211801561111b5750600d5442105b5b905090565b600d5481565b6060611132826115da565b611171576040517f08c379a00000000000000000000000000000000000000000000000000000000081526004016111689061352c565b60405180910390fd5b60016007541461120b576011805461118890612e36565b80601f01602080910402602001604051908101604052809291908181526020018280546111b490612e36565b80156112015780601f106111d657610100808354040283529160200191611201565b820191906000526020600020905b8154815290600101906020018083116111e457829003601f168201915b505050505061123d565b611213611e2f565b61121c83611ec1565b60405160200161122d9291906135d4565b6040516020818303038152906040525b9050919050565b6000600560008473ffffffffffffffffffffffffffffffffffffffff1673ffffffffffffffffffffffffffffffffffffffff16815260200190815260200160002060008373ffffffffffffffffffffffffffffffffffffffff1673ffffffffffffffffffffffffffffffffffffffff16815260200190815260200160002060009054906101000a900460ff16905092915050565b6112e0611646565b73ffffffffffffffffffffffffffffffffffffffff166112fe610fbb565b73ffffffffffffffffffffffffffffffffffffffff1614611354576040517f08c379a000000000000000000000000000000000000000000000000000000000815260040161134b90613258565b60405180910390fd5b8061ffff16600a600082825461136a91906130b8565b925050819055506037600a5411156113b7576040517f08c379a00000000000000000000000000000000000000000000000000000000081526004016113ae9061364f565b60405180910390fd5b60005b8161ffff168110156113fc576113d06013612021565b60006113dc60136117d4565b90506113e88482612037565b5080806113f49061366f565b9150506113ba565b505050565b611409611646565b73ffffffffffffffffffffffffffffffffffffffff16611427610fbb565b73ffffffffffffffffffffffffffffffffffffffff161461147d576040517f08c379a000000000000000000000000000000000000000000000000000000000815260040161147490613258565b60405180910390fd5b600073ffffffffffffffffffffffffffffffffffffffff168173ffffffffffffffffffffffffffffffffffffffff16036114ec576040517f08c379a00000000000000000000000000000000000000000000000000000000081526004016114e390613729565b60405180910390fd5b6114f581611ba1565b50565b60007f80ac58cd000000000000000000000000000000000000000000000000000000007bffffffffffffffffffffffffffffffffffffffffffffffffffffffff1916827bffffffffffffffffffffffffffffffffffffffffffffffffffffffff191614806115c357507f5b5e139f000000000000000000000000000000000000000000000000000000007bffffffffffffffffffffffffffffffffffffffffffffffffffffffff1916827bffffffffffffffffffffffffffffffffffffffffffffffffffffffff1916145b806115d357506115d282612055565b5b9050919050565b60008073ffffffffffffffffffffffffffffffffffffffff166002600084815260200190815260200160002060009054906101000a900473ffffffffffffffffffffffffffffffffffffffff1673ffffffffffffffffffffffffffffffffffffffff1614159050919050565b600033905090565b816004600083815260200190815260200160002060006101000a81548173ffffffffffffffffffffffffffffffffffffffff021916908373ffffffffffffffffffffffffffffffffffffffff160217905550808273ffffffffffffffffffffffffffffffffffffffff166116c183610dcb565b73ffffffffffffffffffffffffffffffffffffffff167f8c5be1e5ebec7d5bd14f71427d1e84f3dd0314c0f7b2291e5b200ac8c7c3b92560405160405180910390a45050565b6037600a54101561174d576040517f08c379a000000000000000000000000000000000000000000000000000000000815260040161174490613795565b60405180910390fd5b6001600b600082825461176091906130b8565b925050819055506101f4600b5411156117ae576040517f08c379a00000000000000000000000000000000000000000000000000000000081526004016117a590613801565b60405180910390fd5b6117b86013612021565b60006117c460136117d4565b90506117d08282612037565b5050565b600081600001549050919050565b60006117ed826115da565b61182c576040517f08c379a000000000000000000000000000000000000000000000000000000000815260040161182390613893565b60405180910390fd5b600061183783610dcb565b90508073ffffffffffffffffffffffffffffffffffffffff168473ffffffffffffffffffffffffffffffffffffffff1614806118a657508373ffffffffffffffffffffffffffffffffffffffff1661188e8461064a565b73ffffffffffffffffffffffffffffffffffffffff16145b806118b757506118b68185611244565b5b91505092915050565b8273ffffffffffffffffffffffffffffffffffffffff166118e082610dcb565b73ffffffffffffffffffffffffffffffffffffffff1614611936576040517f08c379a000000000000000000000000000000000000000000000000000000000815260040161192d90613925565b60405180910390fd5b600073ffffffffffffffffffffffffffffffffffffffff168273ffffffffffffffffffffffffffffffffffffffff16036119a5576040517f08c379a000000000000000000000000000000000000000000000000000000000815260040161199c906139b7565b60405180910390fd5b6119b08383836120bf565b6119bb60008261164e565b6001600360008573ffffffffffffffffffffffffffffffffffffffff1673ffffffffffffffffffffffffffffffffffffffff1681526020019081526020016000206000828254611a0b91906139d7565b925050819055506001600360008473ffffffffffffffffffffffffffffffffffffffff1673ffffffffffffffffffffffffffffffffffffffff1681526020019081526020016000206000828254611a6291906130b8565b92505081905550816002600083815260200190815260200160002060006101000a81548173ffffffffffffffffffffffffffffffffffffffff021916908373ffffffffffffffffffffffffffffffffffffffff160217905550808273ffffffffffffffffffffffffffffffffffffffff168473ffffffffffffffffffffffffffffffffffffffff167fddf252ad1be2c89b69c2b068fc378daa952ba7f163c4a11628f55a4df523b3ef60405160405180910390a4505050565b600060011515611b95858580806020026020016040519081016040528093929190818152602001838360200280828437600081840152601f19601f8201169050808301925050505050505060125485604051602001611b7a9190613a53565b604051602081830303815290604052805190602001206120c4565b15151490509392505050565b6000600660009054906101000a900473ffffffffffffffffffffffffffffffffffffffff16905081600660006101000a81548173ffffffffffffffffffffffffffffffffffffffff021916908373ffffffffffffffffffffffffffffffffffffffff1602179055508173ffffffffffffffffffffffffffffffffffffffff168173ffffffffffffffffffffffffffffffffffffffff167f8be0079c531659141344cd1fd0a4f28419497f9722a3daafe3b4186f6b6457e060405160405180910390a35050565b8173ffffffffffffffffffffffffffffffffffffffff168373ffffffffffffffffffffffffffffffffffffffff1603611cd5576040517f08c379a0000000000000000000000000000000000000000000000000000000008152600401611ccc90613aba565b60405180910390fd5b80600560008573ffffffffffffffffffffffffffffffffffffffff1673ffffffffffffffffffffffffffffffffffffffff16815260200190815260200160002060008473ffffffffffffffffffffffffffffffffffffffff1673ffffffffffffffffffffffffffffffffffffffff16815260200190815260200160002060006101000a81548160ff0219169083151502179055508173ffffffffffffffffffffffffffffffffffffffff168373ffffffffffffffffffffffffffffffffffffffff167f17307eab39ab6107e8899845ad3d59bd9653f200f220920489ca2b5937696c3183604051611dc691906126a7565b60405180910390a3505050565b611dde8484846118c0565b611dea848484846120db565b611e29576040517f08c379a0000000000000000000000000000000000000000000000000000000008152600401611e2090613b4c565b60405180910390fd5b50505050565b606060108054611e3e90612e36565b80601f0160208091040260200160405190810160405280929190818152602001828054611e6a90612e36565b8015611eb75780601f10611e8c57610100808354040283529160200191611eb7565b820191906000526020600020905b815481529060010190602001808311611e9a57829003601f168201915b5050505050905090565b606060008203611f08576040518060400160405280600181526020017f3000000000000000000000000000000000000000000000000000000000000000815250905061201c565b600082905060005b60008214611f3a578080611f239061366f565b915050600a82611f339190613b9b565b9150611f10565b60008167ffffffffffffffff811115611f5657611f5561292f565b5b6040519080825280601f01601f191660200182016040528015611f885781602001600182028036833780820191505090505b5090505b6000851461201557600182611fa191906139d7565b9150600a85611fb09190613bcc565b6030611fbc91906130b8565b60f81b818381518110611fd257611fd1613bfd565b5b60200101907effffffffffffffffffffffffffffffffffffffffffffffffffffffffffffff1916908160001a905350600a8561200e9190613b9b565b9450611f8c565b8093505050505b919050565b6001816000016000828254019250508190555050565b612051828260405180602001604052806000815250612262565b5050565b60007f01ffc9a7000000000000000000000000000000000000000000000000000000007bffffffffffffffffffffffffffffffffffffffffffffffffffffffff1916827bffffffffffffffffffffffffffffffffffffffffffffffffffffffff1916149050919050565b505050565b6000826120d185846122bd565b1490509392505050565b60006120fc8473ffffffffffffffffffffffffffffffffffffffff16612370565b15612255578373ffffffffffffffffffffffffffffffffffffffff1663150b7a02612125611646565b8786866040518563ffffffff1660e01b81526004016121479493929190613c81565b6020604051808303816000875af192505050801561218357506040513d601f19601f820116820180604052508101906121809190613ce2565b60015b612205573d80600081146121b3576040519150601f19603f3d011682016040523d82523d6000602084013e6121b8565b606091505b5060008151036121fd576040517f08c379a00000000000000000000000000000000000000000000000000000000081526004016121f490613b4c565b60405180910390fd5b805181602001fd5b63150b7a0260e01b7bffffffffffffffffffffffffffffffffffffffffffffffffffffffff1916817bffffffffffffffffffffffffffffffffffffffffffffffffffffffff19161491505061225a565b600190505b949350505050565b61226c8383612383565b61227960008484846120db565b6122b8576040517f08c379a00000000000000000000000000000000000000000000000000000000081526004016122af90613b4c565b60405180910390fd5b505050565b60008082905060005b84518110156123655760008582815181106122e4576122e3613bfd565b5b60200260200101519050808311612325578281604051602001612308929190613d3a565b604051602081830303815290604052805190602001209250612351565b8083604051602001612338929190613d3a565b6040516020818303038152906040528051906020012092505b50808061235d9061366f565b9150506122c6565b508091505092915050565b600080823b905060008111915050919050565b600073ffffffffffffffffffffffffffffffffffffffff168273ffffffffffffffffffffffffffffffffffffffff16036123f2576040517f08c379a00000000000000000000000000000000000000000000000000000000081526004016123e990613db2565b60405180910390fd5b6123fb816115da565b1561243b576040517f08c379a000000000000000000000000000000000000000000000000000000000815260040161243290613e1e565b60405180910390fd5b612447600083836120bf565b6001600360008473ffffffffffffffffffffffffffffffffffffffff1673ffffffffffffffffffffffffffffffffffffffff168152602001908152602001600020600082825461249791906130b8565b92505081905550816002600083815260200190815260200160002060006101000a81548173ffffffffffffffffffffffffffffffffffffffff021916908373ffffffffffffffffffffffffffffffffffffffff160217905550808273ffffffffffffffffffffffffffffffffffffffff16600073ffffffffffffffffffffffffffffffffffffffff167fddf252ad1be2c89b69c2b068fc378daa952ba7f163c4a11628f55a4df523b3ef60405160405180910390a45050565b82805461255c90612e36565b90600052602060002090601f01602090048101928261257e57600085556125c5565b82601f1061259757805160ff19168380011785556125c5565b828001600101855582156125c5579182015b828111156125c45782518255916020019190600101906125a9565b5b5090506125d291906125d6565b5090565b5b808211156125ef5760008160009055506001016125d7565b5090565b6000604051905090565b600080fd5b600080fd5b60007fffffffff0000000000000000000000000000000000000000000000000000000082169050919050565b61263c81612607565b811461264757600080fd5b50565b60008135905061265981612633565b92915050565b600060208284031215612675576126746125fd565b5b60006126838482850161264a565b91505092915050565b60008115159050919050565b6126a18161268c565b82525050565b60006020820190506126bc6000830184612698565b92915050565b600081519050919050565b600082825260208201905092915050565b60005b838110156126fc5780820151818401526020810190506126e1565b8381111561270b576000848401525b50505050565b6000601f19601f8301169050919050565b600061272d826126c2565b61273781856126cd565b93506127478185602086016126de565b61275081612711565b840191505092915050565b600060208201905081810360008301526127758184612722565b905092915050565b6000819050919050565b6127908161277d565b811461279b57600080fd5b50565b6000813590506127ad81612787565b92915050565b6000602082840312156127c9576127c86125fd565b5b60006127d78482850161279e565b91505092915050565b600073ffffffffffffffffffffffffffffffffffffffff82169050919050565b600061280b826127e0565b9050919050565b61281b81612800565b82525050565b60006020820190506128366000830184612812565b92915050565b61284581612800565b811461285057600080fd5b50565b6000813590506128628161283c565b92915050565b6000806040838503121561287f5761287e6125fd565b5b600061288d85828601612853565b925050602061289e8582860161279e565b9150509250929050565b6128b18161277d565b82525050565b60006020820190506128cc60008301846128a8565b92915050565b6000806000606084860312156128eb576128ea6125fd565b5b60006128f986828701612853565b935050602061290a86828701612853565b925050604061291b8682870161279e565b9150509250925092565b600080fd5b600080fd5b7f4e487b7100000000000000000000000000000000000000000000000000000000600052604160045260246000fd5b61296782612711565b810181811067ffffffffffffffff821117156129865761298561292f565b5b80604052505050565b60006129996125f3565b90506129a5828261295e565b919050565b600067ffffffffffffffff8211156129c5576129c461292f565b5b6129ce82612711565b9050602081019050919050565b82818337600083830152505050565b60006129fd6129f8846129aa565b61298f565b905082815260208101848484011115612a1957612a1861292a565b5b612a248482856129db565b509392505050565b600082601f830112612a4157612a40612925565b5b8135612a518482602086016129ea565b91505092915050565b600060208284031215612a7057612a6f6125fd565b5b600082013567ffffffffffffffff811115612a8e57612a8d612602565b5b612a9a84828501612a2c565b91505092915050565b600080fd5b600080fd5b60008083601f840112612ac357612ac2612925565b5b8235905067ffffffffffffffff811115612ae057612adf612aa3565b5b602083019150836020820283011115612afc57612afb612aa8565b5b9250929050565b60008060208385031215612b1a57612b196125fd565b5b600083013567ffffffffffffffff811115612b3857612b37612602565b5b612b4485828601612aad565b92509250509250929050565b612b598161268c565b8114612b6457600080fd5b50565b600081359050612b7681612b50565b92915050565b60008060408385031215612b9357612b926125fd565b5b6000612ba185828601612b67565b9250506020612bb285828601612b67565b9150509250929050565b600060208284031215612bd257612bd16125fd565b5b6000612be084828501612853565b91505092915050565b60008060408385031215612c0057612bff6125fd565b5b6000612c0e85828601612853565b9250506020612c1f85828601612b67565b9150509250929050565b600067ffffffffffffffff821115612c4457612c4361292f565b5b612c4d82612711565b9050602081019050919050565b6000612c6d612c6884612c29565b61298f565b905082815260208101848484011115612c8957612c8861292a565b5b612c948482856129db565b509392505050565b600082601f830112612cb157612cb0612925565b5b8135612cc1848260208601612c5a565b91505092915050565b60008060008060808587031215612ce457612ce36125fd565b5b6000612cf287828801612853565b9450506020612d0387828801612853565b9350506040612d148782880161279e565b925050606085013567ffffffffffffffff811115612d3557612d34612602565b5b612d4187828801612c9c565b91505092959194509250565b60008060408385031215612d6457612d636125fd565b5b6000612d7285828601612853565b9250506020612d8385828601612853565b9150509250929050565b600061ffff82169050919050565b612da481612d8d565b8114612daf57600080fd5b50565b600081359050612dc181612d9b565b92915050565b60008060408385031215612dde57612ddd6125fd565b5b6000612dec85828601612853565b9250506020612dfd85828601612db2565b9150509250929050565b7f4e487b7100000000000000000000000000000000000000000000000000000000600052602260045260246000fd5b60006002820490506001821680612e4e57607f821691505b602082108103612e6157612e60612e07565b5b50919050565b7f4552433732313a20617070726f76656420717565727920666f72206e6f6e657860008201527f697374656e7420746f6b656e0000000000000000000000000000000000000000602082015250565b6000612ec3602c836126cd565b9150612ece82612e67565b604082019050919050565b60006020820190508181036000830152612ef281612eb6565b9050919050565b7f4552433732313a20617070726f76616c20746f2063757272656e74206f776e6560008201527f7200000000000000000000000000000000000000000000000000000000000000602082015250565b6000612f556021836126cd565b9150612f6082612ef9565b604082019050919050565b60006020820190508181036000830152612f8481612f48565b9050919050565b7f4552433732313a20617070726f76652063616c6c6572206973206e6f74206f7760008201527f6e6572206e6f7220617070726f76656420666f7220616c6c0000000000000000602082015250565b6000612fe76038836126cd565b9150612ff282612f8b565b604082019050919050565b6000602082019050818103600083015261301681612fda565b9050919050565b7f5055424c49435f53414c455f494e414354495645000000000000000000000000600082015250565b60006130536014836126cd565b915061305e8261301d565b602082019050919050565b6000602082019050818103600083015261308281613046565b9050919050565b7f4e487b7100000000000000000000000000000000000000000000000000000000600052601160045260246000fd5b60006130c38261277d565b91506130ce8361277d565b9250827fffffffffffffffffffffffffffffffffffffffffffffffffffffffffffffffff0382111561310357613102613089565b5b828201905092915050565b7f5055424c49435f544f4b454e5f4c494d49540000000000000000000000000000600082015250565b60006131446012836126cd565b915061314f8261310e565b602082019050919050565b6000602082019050818103600083015261317381613137565b9050919050565b7f4552433732313a207472616e736665722063616c6c6572206973206e6f74206f60008201527f776e6572206e6f7220617070726f766564000000000000000000000000000000602082015250565b60006131d66031836126cd565b91506131e18261317a565b604082019050919050565b60006020820190508181036000830152613205816131c9565b9050919050565b7f4f776e61626c653a2063616c6c6572206973206e6f7420746865206f776e6572600082015250565b60006132426020836126cd565b915061324d8261320c565b602082019050919050565b6000602082019050818103600083015261327181613235565b9050919050565b7f50524553414c455f494e41435449564500000000000000000000000000000000600082015250565b60006132ae6010836126cd565b91506132b982613278565b602082019050919050565b600060208201905081810360008301526132dd816132a1565b9050919050565b7f50524553414c455f4e4f545f5645524946494544000000000000000000000000600082015250565b600061331a6014836126cd565b9150613325826132e4565b602082019050919050565b600060208201905081810360008301526133498161330d565b9050919050565b7f57484954454c4953545f544f4b454e5f434c41494d4544000000000000000000600082015250565b60006133866017836126cd565b915061339182613350565b602082019050919050565b600060208201905081810360008301526133b581613379565b9050919050565b7f4552433732313a206f776e657220717565727920666f72206e6f6e657869737460008201527f656e7420746f6b656e0000000000000000000000000000000000000000000000602082015250565b60006134186029836126cd565b9150613423826133bc565b604082019050919050565b600060208201905081810360008301526134478161340b565b9050919050565b7f4552433732313a2062616c616e636520717565727920666f7220746865207a6560008201527f726f206164647265737300000000000000000000000000000000000000000000602082015250565b60006134aa602a836126cd565b91506134b58261344e565b604082019050919050565b600060208201905081810360008301526134d98161349d565b9050919050565b7f494e56414c49445f494400000000000000000000000000000000000000000000600082015250565b6000613516600a836126cd565b9150613521826134e0565b602082019050919050565b6000602082019050818103600083015261354581613509565b9050919050565b600081905092915050565b6000613562826126c2565b61356c818561354c565b935061357c8185602086016126de565b80840191505092915050565b7f2e6a736f6e000000000000000000000000000000000000000000000000000000600082015250565b60006135be60058361354c565b91506135c982613588565b600582019050919050565b60006135e08285613557565b91506135ec8284613557565b91506135f7826135b1565b91508190509392505050565b7f524541434845445f41495244524f505f4c494d49540000000000000000000000600082015250565b60006136396015836126cd565b915061364482613603565b602082019050919050565b600060208201905081810360008301526136688161362c565b9050919050565b600061367a8261277d565b91507fffffffffffffffffffffffffffffffffffffffffffffffffffffffffffffffff82036136ac576136ab613089565b5b600182019050919050565b7f4f776e61626c653a206e6577206f776e657220697320746865207a65726f206160008201527f6464726573730000000000000000000000000000000000000000000000000000602082015250565b60006137136026836126cd565b915061371e826136b7565b604082019050919050565b6000602082019050818103600083015261374281613706565b9050919050565b7f41495244524f505f4e4f545f434f4d504c455445440000000000000000000000600082015250565b600061377f6015836126cd565b915061378a82613749565b602082019050919050565b600060208201905081810360008301526137ae81613772565b9050919050565b7f524541434845445f4d41585f535550504c590000000000000000000000000000600082015250565b60006137eb6012836126cd565b91506137f6826137b5565b602082019050919050565b6000602082019050818103600083015261381a816137de565b9050919050565b7f4552433732313a206f70657261746f7220717565727920666f72206e6f6e657860008201527f697374656e7420746f6b656e0000000000000000000000000000000000000000602082015250565b600061387d602c836126cd565b915061388882613821565b604082019050919050565b600060208201905081810360008301526138ac81613870565b9050919050565b7f4552433732313a207472616e73666572206f6620746f6b656e2074686174206960008201527f73206e6f74206f776e0000000000000000000000000000000000000000000000602082015250565b600061390f6029836126cd565b915061391a826138b3565b604082019050919050565b6000602082019050818103600083015261393e81613902565b9050919050565b7f4552433732313a207472616e7366657220746f20746865207a65726f2061646460008201527f7265737300000000000000000000000000000000000000000000000000000000602082015250565b60006139a16024836126cd565b91506139ac82613945565b604082019050919050565b600060208201905081810360008301526139d081613994565b9050919050565b60006139e28261277d565b91506139ed8361277d565b925082821015613a00576139ff613089565b5b828203905092915050565b60008160601b9050919050565b6000613a2382613a0b565b9050919050565b6000613a3582613a18565b9050919050565b613a4d613a4882612800565b613a2a565b82525050565b6000613a5f8284613a3c565b60148201915081905092915050565b7f4552433732313a20617070726f766520746f2063616c6c657200000000000000600082015250565b6000613aa46019836126cd565b9150613aaf82613a6e565b602082019050919050565b60006020820190508181036000830152613ad381613a97565b9050919050565b7f4552433732313a207472616e7366657220746f206e6f6e20455243373231526560008201527f63656976657220696d706c656d656e7465720000000000000000000000000000602082015250565b6000613b366032836126cd565b9150613b4182613ada565b604082019050919050565b60006020820190508181036000830152613b6581613b29565b9050919050565b7f4e487b7100000000000000000000000000000000000000000000000000000000600052601260045260246000fd5b6000613ba68261277d565b9150613bb18361277d565b925082613bc157613bc0613b6c565b5b828204905092915050565b6000613bd78261277d565b9150613be28361277d565b925082613bf257613bf1613b6c565b5b828206905092915050565b7f4e487b7100000000000000000000000000000000000000000000000000000000600052603260045260246000fd5b600081519050919050565b600082825260208201905092915050565b6000613c5382613c2c565b613c5d8185613c37565b9350613c6d8185602086016126de565b613c7681612711565b840191505092915050565b6000608082019050613c966000830187612812565b613ca36020830186612812565b613cb060408301856128a8565b8181036060830152613cc28184613c48565b905095945050505050565b600081519050613cdc81612633565b92915050565b600060208284031215613cf857613cf76125fd565b5b6000613d0684828501613ccd565b91505092915050565b6000819050919050565b6000819050919050565b613d34613d2f82613d0f565b613d19565b82525050565b6000613d468285613d23565b602082019150613d568284613d23565b6020820191508190509392505050565b7f4552433732313a206d696e7420746f20746865207a65726f2061646472657373600082015250565b6000613d9c6020836126cd565b9150613da782613d66565b602082019050919050565b60006020820190508181036000830152613dcb81613d8f565b9050919050565b7f4552433732313a20746f6b656e20616c7265616479206d696e74656400000000600082015250565b6000613e08601c836126cd565b9150613e1382613dd2565b602082019050919050565b60006020820190508181036000830152613e3781613dfb565b905091905056fea26469706673582212204fd35660aedd57e193cab126929567427783173fec1d9a34b828d727ab9fcc1c64736f6c634300080d0033",
  "linkReferences": {},
  "deployedLinkReferences": {}
}