{
  "_format": "hh-sol-artifact-1",
  "contractName": "FifthDimension",
  "sourceName": "contracts/FifthDimension.sol",
  "abi": [
    {
      "inputs": [
        {
          "internalType": "uint64",
          "name": "_whitelistStart",
          "type": "uint64"
        },
        {
          "internalType": "uint64",
          "name": "_whitelistEnd",
          "type": "uint64"
        },
        {
          "internalType": "uint64",
          "name": "_publicStart",
          "type": "uint64"
        },
        {
          "internalType": "uint64",
          "name": "_publicEnd",
          "type": "uint64"
        },
        {
          "internalType": "bytes32",
          "name": "whitelistMerkleRoot",
          "type": "bytes32"
        },
        {
          "internalType": "string",
          "name": "name",
          "type": "string"
        },
        {
          "internalType": "string",
          "name": "symbol",
          "type": "string"
        },
        {
          "internalType": "string",
          "name": "tempUri",
          "type": "string"
        }
      ],
      "stateMutability": "nonpayable",
      "type": "constructor"
    },
    {
      "anonymous": false,
      "inputs": [
        {
          "indexed": true,
          "internalType": "address",
          "name": "owner",
          "type": "address"
        },
        {
          "indexed": true,
          "internalType": "address",
          "name": "approved",
          "type": "address"
        },
        {
          "indexed": true,
          "internalType": "uint256",
          "name": "tokenId",
          "type": "uint256"
        }
      ],
      "name": "Approval",
      "type": "event"
    },
    {
      "anonymous": false,
      "inputs": [
        {
          "indexed": true,
          "internalType": "address",
          "name": "owner",
          "type": "address"
        },
        {
          "indexed": true,
          "internalType": "address",
          "name": "operator",
          "type": "address"
        },
        {
          "indexed": false,
          "internalType": "bool",
          "name": "approved",
          "type": "bool"
        }
      ],
      "name": "ApprovalForAll",
      "type": "event"
    },
    {
      "anonymous": false,
      "inputs": [
        {
          "indexed": true,
          "internalType": "bytes32",
          "name": "role",
          "type": "bytes32"
        },
        {
          "indexed": true,
          "internalType": "bytes32",
          "name": "previousAdminRole",
          "type": "bytes32"
        },
        {
          "indexed": true,
          "internalType": "bytes32",
          "name": "newAdminRole",
          "type": "bytes32"
        }
      ],
      "name": "RoleAdminChanged",
      "type": "event"
    },
    {
      "anonymous": false,
      "inputs": [
        {
          "indexed": true,
          "internalType": "bytes32",
          "name": "role",
          "type": "bytes32"
        },
        {
          "indexed": true,
          "internalType": "address",
          "name": "account",
          "type": "address"
        },
        {
          "indexed": true,
          "internalType": "address",
          "name": "sender",
          "type": "address"
        }
      ],
      "name": "RoleGranted",
      "type": "event"
    },
    {
      "anonymous": false,
      "inputs": [
        {
          "indexed": true,
          "internalType": "bytes32",
          "name": "role",
          "type": "bytes32"
        },
        {
          "indexed": true,
          "internalType": "address",
          "name": "account",
          "type": "address"
        },
        {
          "indexed": true,
          "internalType": "address",
          "name": "sender",
          "type": "address"
        }
      ],
      "name": "RoleRevoked",
      "type": "event"
    },
    {
      "anonymous": false,
      "inputs": [
        {
          "indexed": true,
          "internalType": "address",
          "name": "from",
          "type": "address"
        },
        {
          "indexed": true,
          "internalType": "address",
          "name": "to",
          "type": "address"
        },
        {
          "indexed": true,
          "internalType": "uint256",
          "name": "tokenId",
          "type": "uint256"
        }
      ],
      "name": "Transfer",
      "type": "event"
    },
    {
      "inputs": [],
      "name": "ADMIN_ROLE",
      "outputs": [
        {
          "internalType": "bytes32",
          "name": "",
          "type": "bytes32"
        }
      ],
      "stateMutability": "view",
      "type": "function"
    },
    {
      "inputs": [],
      "name": "DEFAULT_ADMIN_ROLE",
      "outputs": [
        {
          "internalType": "bytes32",
          "name": "",
          "type": "bytes32"
        }
      ],
      "stateMutability": "view",
      "type": "function"
    },
    {
      "inputs": [],
      "name": "MOD_ROLE",
      "outputs": [
        {
          "internalType": "bytes32",
          "name": "",
          "type": "bytes32"
        }
      ],
      "stateMutability": "view",
      "type": "function"
    },
    {
      "inputs": [
        {
          "internalType": "address",
          "name": "to",
          "type": "address"
        },
        {
          "internalType": "uint16",
          "name": "quantity",
          "type": "uint16"
        }
      ],
      "name": "airdrop",
      "outputs": [],
      "stateMutability": "nonpayable",
      "type": "function"
    },
    {
      "inputs": [
        {
          "internalType": "address",
          "name": "to",
          "type": "address"
        },
        {
          "internalType": "uint256",
          "name": "tokenId",
          "type": "uint256"
        }
      ],
      "name": "approve",
      "outputs": [],
      "stateMutability": "nonpayable",
      "type": "function"
    },
    {
      "inputs": [
        {
          "internalType": "address",
          "name": "owner",
          "type": "address"
        }
      ],
      "name": "balanceOf",
      "outputs": [
        {
          "internalType": "uint256",
          "name": "",
          "type": "uint256"
        }
      ],
      "stateMutability": "view",
      "type": "function"
    },
    {
      "inputs": [
        {
          "internalType": "uint256",
          "name": "tokenId",
          "type": "uint256"
        }
      ],
      "name": "getApproved",
      "outputs": [
        {
          "internalType": "address",
          "name": "",
          "type": "address"
        }
      ],
      "stateMutability": "view",
      "type": "function"
    },
    {
      "inputs": [
        {
          "internalType": "bytes32",
          "name": "role",
          "type": "bytes32"
        }
      ],
      "name": "getRoleAdmin",
      "outputs": [
        {
          "internalType": "bytes32",
          "name": "",
          "type": "bytes32"
        }
      ],
      "stateMutability": "view",
      "type": "function"
    },
    {
      "inputs": [
        {
          "internalType": "bytes32",
          "name": "role",
          "type": "bytes32"
        },
        {
          "internalType": "address",
          "name": "account",
          "type": "address"
        }
      ],
      "name": "grantRole",
      "outputs": [],
      "stateMutability": "nonpayable",
      "type": "function"
    },
    {
      "inputs": [
        {
          "internalType": "bytes32",
          "name": "role",
          "type": "bytes32"
        },
        {
          "internalType": "address",
          "name": "account",
          "type": "address"
        }
      ],
      "name": "hasRole",
      "outputs": [
        {
          "internalType": "bool",
          "name": "",
          "type": "bool"
        }
      ],
      "stateMutability": "view",
      "type": "function"
    },
    {
      "inputs": [
        {
          "internalType": "address",
          "name": "owner",
          "type": "address"
        },
        {
          "internalType": "address",
          "name": "operator",
          "type": "address"
        }
      ],
      "name": "isApprovedForAll",
      "outputs": [
        {
          "internalType": "bool",
          "name": "",
          "type": "bool"
        }
      ],
      "stateMutability": "view",
      "type": "function"
    },
    {
      "inputs": [],
      "name": "isPublicSaleActive",
      "outputs": [
        {
          "internalType": "bool",
          "name": "",
          "type": "bool"
        }
      ],
      "stateMutability": "view",
      "type": "function"
    },
    {
      "inputs": [],
      "name": "isWhitelistSaleActive",
      "outputs": [
        {
          "internalType": "bool",
          "name": "",
          "type": "bool"
        }
      ],
      "stateMutability": "view",
      "type": "function"
    },
    {
      "inputs": [],
      "name": "mint",
      "outputs": [],
      "stateMutability": "nonpayable",
      "type": "function"
    },
    {
      "inputs": [],
      "name": "name",
      "outputs": [
        {
          "internalType": "string",
          "name": "",
          "type": "string"
        }
      ],
      "stateMutability": "view",
      "type": "function"
    },
    {
      "inputs": [
        {
          "internalType": "bool",
          "name": "publicSale",
          "type": "bool"
        },
        {
          "internalType": "bool",
          "name": "privateSale",
          "type": "bool"
        }
      ],
      "name": "overrideSales",
      "outputs": [],
      "stateMutability": "nonpayable",
      "type": "function"
    },
    {
      "inputs": [
        {
          "internalType": "uint256",
          "name": "tokenId",
          "type": "uint256"
        }
      ],
      "name": "ownerOf",
      "outputs": [
        {
          "internalType": "address",
          "name": "",
          "type": "address"
        }
      ],
      "stateMutability": "view",
      "type": "function"
    },
    {
      "inputs": [],
      "name": "publicEnd",
      "outputs": [
        {
          "internalType": "uint64",
          "name": "",
          "type": "uint64"
        }
      ],
      "stateMutability": "view",
      "type": "function"
    },
    {
      "inputs": [],
      "name": "publicStart",
      "outputs": [
        {
          "internalType": "uint64",
          "name": "",
          "type": "uint64"
        }
      ],
      "stateMutability": "view",
      "type": "function"
    },
    {
      "inputs": [
        {
          "internalType": "bytes32",
          "name": "role",
          "type": "bytes32"
        },
        {
          "internalType": "address",
          "name": "account",
          "type": "address"
        }
      ],
      "name": "renounceRole",
      "outputs": [],
      "stateMutability": "nonpayable",
      "type": "function"
    },
    {
      "inputs": [],
      "name": "revealed",
      "outputs": [
        {
          "internalType": "bool",
          "name": "",
          "type": "bool"
        }
      ],
      "stateMutability": "view",
      "type": "function"
    },
    {
      "inputs": [
        {
          "internalType": "bytes32",
          "name": "role",
          "type": "bytes32"
        },
        {
          "internalType": "address",
          "name": "account",
          "type": "address"
        }
      ],
      "name": "revokeRole",
      "outputs": [],
      "stateMutability": "nonpayable",
      "type": "function"
    },
    {
      "inputs": [
        {
          "internalType": "address",
          "name": "from",
          "type": "address"
        },
        {
          "internalType": "address",
          "name": "to",
          "type": "address"
        },
        {
          "internalType": "uint256",
          "name": "tokenId",
          "type": "uint256"
        }
      ],
      "name": "safeTransferFrom",
      "outputs": [],
      "stateMutability": "nonpayable",
      "type": "function"
    },
    {
      "inputs": [
        {
          "internalType": "address",
          "name": "from",
          "type": "address"
        },
        {
          "internalType": "address",
          "name": "to",
          "type": "address"
        },
        {
          "internalType": "uint256",
          "name": "tokenId",
          "type": "uint256"
        },
        {
          "internalType": "bytes",
          "name": "_data",
          "type": "bytes"
        }
      ],
      "name": "safeTransferFrom",
      "outputs": [],
      "stateMutability": "nonpayable",
      "type": "function"
    },
    {
      "inputs": [
        {
          "internalType": "address",
          "name": "operator",
          "type": "address"
        },
        {
          "internalType": "bool",
          "name": "approved",
          "type": "bool"
        }
      ],
      "name": "setApprovalForAll",
      "outputs": [],
      "stateMutability": "nonpayable",
      "type": "function"
    },
    {
      "inputs": [
        {
          "internalType": "string",
          "name": "baseUri",
          "type": "string"
        }
      ],
      "name": "setBaseURI",
      "outputs": [],
      "stateMutability": "nonpayable",
      "type": "function"
    },
    {
      "inputs": [
        {
          "internalType": "string",
          "name": "tempUri",
          "type": "string"
        }
      ],
      "name": "setPlaceholderURI",
      "outputs": [],
      "stateMutability": "nonpayable",
      "type": "function"
    },
    {
      "inputs": [
        {
          "internalType": "bytes4",
          "name": "interfaceId",
          "type": "bytes4"
        }
      ],
      "name": "supportsInterface",
      "outputs": [
        {
          "internalType": "bool",
          "name": "",
          "type": "bool"
        }
      ],
      "stateMutability": "view",
      "type": "function"
    },
    {
      "inputs": [],
      "name": "symbol",
      "outputs": [
        {
          "internalType": "string",
          "name": "",
          "type": "string"
        }
      ],
      "stateMutability": "view",
      "type": "function"
    },
    {
      "inputs": [],
      "name": "toggleReveal",
      "outputs": [],
      "stateMutability": "nonpayable",
      "type": "function"
    },
    {
      "inputs": [
        {
          "internalType": "uint256",
          "name": "id",
          "type": "uint256"
        }
      ],
      "name": "tokenURI",
      "outputs": [
        {
          "internalType": "string",
          "name": "",
          "type": "string"
        }
      ],
      "stateMutability": "view",
      "type": "function"
    },
    {
      "inputs": [],
      "name": "totalSupply",
      "outputs": [
        {
          "internalType": "uint16",
          "name": "",
          "type": "uint16"
        }
      ],
      "stateMutability": "view",
      "type": "function"
    },
    {
      "inputs": [
        {
          "internalType": "address",
          "name": "from",
          "type": "address"
        },
        {
          "internalType": "address",
          "name": "to",
          "type": "address"
        },
        {
          "internalType": "uint256",
          "name": "tokenId",
          "type": "uint256"
        }
      ],
      "name": "transferFrom",
      "outputs": [],
      "stateMutability": "nonpayable",
      "type": "function"
    },
    {
      "inputs": [],
      "name": "whitelistEnd",
      "outputs": [
        {
          "internalType": "uint64",
          "name": "",
          "type": "uint64"
        }
      ],
      "stateMutability": "view",
      "type": "function"
    },
    {
      "inputs": [
        {
          "internalType": "bytes32[]",
          "name": "_merkleProof",
          "type": "bytes32[]"
        }
      ],
      "name": "whitelistMint",
      "outputs": [],
      "stateMutability": "nonpayable",
      "type": "function"
    },
    {
      "inputs": [],
      "name": "whitelistStart",
      "outputs": [
        {
          "internalType": "uint64",
          "name": "",
          "type": "uint64"
        }
      ],
      "stateMutability": "view",
      "type": "function"
    }
  ],
  "bytecode": "0x60806040527fa49807205ce4d355092ef5a8a18f56e8913cf4a201fbe287825b095693c217756007557f950b8f2d7415defaee398bb4898e8e094a64c725873b81952b7ab9f08d70efb36008553480156200005957600080fd5b50604051620058673803806200586783398181016040528101906200007f9190620007c6565b8282816000908051906020019062000099929190620004f9565b508060019080519060200190620000b2929190620004f9565b5050508360098190555080600d9080519060200190620000d4929190620004f9565b506000429050808967ffffffffffffffff161162000129576040517f08c379a000000000000000000000000000000000000000000000000000000000815260040162000120906200094d565b60405180910390fd5b808867ffffffffffffffff161180156200016c5750603360089054906101000a900467ffffffffffffffff1667ffffffffffffffff168867ffffffffffffffff16115b620001ae576040517f08c379a0000000000000000000000000000000000000000000000000000000008152600401620001a590620009bf565b60405180910390fd5b88603360086101000a81548167ffffffffffffffff021916908367ffffffffffffffff16021790555087603360106101000a81548167ffffffffffffffff021916908367ffffffffffffffff160217905550808767ffffffffffffffff161180156200022e57508767ffffffffffffffff168767ffffffffffffffff1610155b62000270576040517f08c379a0000000000000000000000000000000000000000000000000000000008152600401620002679062000a31565b60405180910390fd5b808667ffffffffffffffff161180156200029d57508667ffffffffffffffff168667ffffffffffffffff16115b620002df576040517f08c379a0000000000000000000000000000000000000000000000000000000008152600401620002d69062000aa3565b60405180910390fd5b86603360186101000a81548167ffffffffffffffff021916908367ffffffffffffffff16021790555085603460006101000a81548167ffffffffffffffff021916908367ffffffffffffffff1602179055506000620003436200037e60201b60201c565b90506200035a6000801b826200038660201b60201c565b6200036e600754826200038660201b60201c565b5050505050505050505062000b29565b600033905090565b6200039882826200039c60201b60201c565b5050565b620003ae82826200048e60201b60201c565b6200048a5760016006600084815260200190815260200160002060000160008373ffffffffffffffffffffffffffffffffffffffff1673ffffffffffffffffffffffffffffffffffffffff16815260200190815260200160002060006101000a81548160ff0219169083151502179055506200042f6200037e60201b60201c565b73ffffffffffffffffffffffffffffffffffffffff168173ffffffffffffffffffffffffffffffffffffffff16837f2f8788117e7eff1d82e926ec794901d17c78024a50270940304540a733656f0d60405160405180910390a45b5050565b60006006600084815260200190815260200160002060000160008373ffffffffffffffffffffffffffffffffffffffff1673ffffffffffffffffffffffffffffffffffffffff16815260200190815260200160002060009054906101000a900460ff16905092915050565b828054620005079062000af4565b90600052602060002090601f0160209004810192826200052b576000855562000577565b82601f106200054657805160ff191683800117855562000577565b8280016001018555821562000577579182015b828111156200057657825182559160200191906001019062000559565b5b5090506200058691906200058a565b5090565b5b80821115620005a55760008160009055506001016200058b565b5090565b6000604051905090565b600080fd5b600080fd5b600067ffffffffffffffff82169050919050565b620005dc81620005bd565b8114620005e857600080fd5b50565b600081519050620005fc81620005d1565b92915050565b6000819050919050565b620006178162000602565b81146200062357600080fd5b50565b60008151905062000637816200060c565b92915050565b600080fd5b600080fd5b6000601f19601f8301169050919050565b7f4e487b7100000000000000000000000000000000000000000000000000000000600052604160045260246000fd5b620006928262000647565b810181811067ffffffffffffffff82111715620006b457620006b362000658565b5b80604052505050565b6000620006c9620005a9565b9050620006d7828262000687565b919050565b600067ffffffffffffffff821115620006fa57620006f962000658565b5b620007058262000647565b9050602081019050919050565b60005b838110156200073257808201518184015260208101905062000715565b8381111562000742576000848401525b50505050565b60006200075f6200075984620006dc565b620006bd565b9050828152602081018484840111156200077e576200077d62000642565b5b6200078b84828562000712565b509392505050565b600082601f830112620007ab57620007aa6200063d565b5b8151620007bd84826020860162000748565b91505092915050565b600080600080600080600080610100898b031215620007ea57620007e9620005b3565b5b6000620007fa8b828c01620005eb565b98505060206200080d8b828c01620005eb565b9750506040620008208b828c01620005eb565b9650506060620008338b828c01620005eb565b9550506080620008468b828c0162000626565b94505060a089015167ffffffffffffffff8111156200086a5762000869620005b8565b5b620008788b828c0162000793565b93505060c089015167ffffffffffffffff8111156200089c576200089b620005b8565b5b620008aa8b828c0162000793565b92505060e089015167ffffffffffffffff811115620008ce57620008cd620005b8565b5b620008dc8b828c0162000793565b9150509295985092959890939650565b600082825260208201905092915050565b7f57726f6e672077686974656c6973742073746172740000000000000000000000600082015250565b600062000935601583620008ec565b91506200094282620008fd565b602082019050919050565b60006020820190508181036000830152620009688162000926565b9050919050565b7f57726f6e672077686974656c69737420656e6400000000000000000000000000600082015250565b6000620009a7601383620008ec565b9150620009b4826200096f565b602082019050919050565b60006020820190508181036000830152620009da8162000998565b9050919050565b7f57726f6e67207075626c69632073746172740000000000000000000000000000600082015250565b600062000a19601283620008ec565b915062000a2682620009e1565b602082019050919050565b6000602082019050818103600083015262000a4c8162000a0a565b9050919050565b7f57726f6e67207075626c696320656e6400000000000000000000000000000000600082015250565b600062000a8b601083620008ec565b915062000a988262000a53565b602082019050919050565b6000602082019050818103600083015262000abe8162000a7c565b9050919050565b7f4e487b7100000000000000000000000000000000000000000000000000000000600052602260045260246000fd5b6000600282049050600182168062000b0d57607f821691505b60208210810362000b235762000b2262000ac5565b5b50919050565b614d2e8062000b396000396000f3fe608060405234801561001057600080fd5b506004361061021c5760003560e01c80635b8ad42911610125578063a5f4c6ff116100ad578063c87b56dd1161007c578063c87b56dd146105f1578063d547741f14610621578063e932406f1461063d578063e985e9c51461065b578063ec8d130b1461068b5761021c565b8063a5f4c6ff1461057b578063b88d4fde14610599578063b98451cf146105b5578063bfb6e0e7146105d35761021c565b806391d14854116100f457806391d14854146104d557806395d89b4114610505578063994d396914610523578063a217fddf14610541578063a22cb4651461055f5761021c565b80635b8ad4291461044d5780636352211e1461045757806370a082311461048757806375b238fc146104b75761021c565b8063248a9ca3116101a8578063372f657c11610177578063372f657c146103bf57806342842e0e146103db57806351830227146103f757806355f804b3146104155780635b010e43146104315761021c565b8063248a9ca31461033b5780632f2ff15d1461036b5780633574a2dd1461038757806336568abe146103a35761021c565b80630acae9a7116101ef5780630acae9a7146102bb5780631249c58b146102d957806318160ddd146102e35780631e84c4131461030157806323b872dd1461031f5761021c565b806301ffc9a71461022157806306fdde0314610251578063081812fc1461026f578063095ea7b31461029f575b600080fd5b61023b6004803603810190610236919061314e565b6106a7565b6040516102489190613196565b60405180910390f35b6102596106b9565b604051610266919061324a565b60405180910390f35b610289600480360381019061028491906132a2565b61074b565b6040516102969190613310565b60405180910390f35b6102b960048036038101906102b49190613357565b6107d0565b005b6102c36108e7565b6040516102d091906133ba565b60405180910390f35b6102e1610901565b005b6102eb610ab4565b6040516102f891906133f2565b60405180910390f35b610309610ae7565b6040516103169190613196565b60405180910390f35b6103396004803603810190610334919061340d565b610b53565b005b61035560048036038101906103509190613496565b610bb3565b60405161036291906134d2565b60405180910390f35b610385600480360381019061038091906134ed565b610bd3565b005b6103a1600480360381019061039c9190613662565b610bfc565b005b6103bd60048036038101906103b891906134ed565b610c82565b005b6103d960048036038101906103d4919061370b565b610d05565b005b6103f560048036038101906103f0919061340d565b610ed7565b005b6103ff610ef7565b60405161040c9190613196565b60405180910390f35b61042f600480360381019061042a9190613662565b610f0a565b005b61044b60048036038101906104469190613784565b610f90565b005b610455611034565b005b610471600480360381019061046c91906132a2565b6110cc565b60405161047e9190613310565b60405180910390f35b6104a1600480360381019061049c91906137c4565b61117d565b6040516104ae9190613800565b60405180910390f35b6104bf611234565b6040516104cc91906134d2565b60405180910390f35b6104ef60048036038101906104ea91906134ed565b61123a565b6040516104fc9190613196565b60405180910390f35b61050d6112a5565b60405161051a919061324a565b60405180910390f35b61052b611337565b60405161053891906133ba565b60405180910390f35b610549611351565b60405161055691906134d2565b60405180910390f35b6105796004803603810190610574919061381b565b611358565b005b61058361136e565b60405161059091906133ba565b60405180910390f35b6105b360048036038101906105ae91906138fc565b611388565b005b6105bd6113ea565b6040516105ca9190613196565b60405180910390f35b6105db611456565b6040516105e891906133ba565b60405180910390f35b61060b600480360381019061060691906132a2565b611470565b604051610618919061324a565b60405180910390f35b61063b600480360381019061063691906134ed565b611597565b005b6106456115c0565b60405161065291906134d2565b60405180910390f35b6106756004803603810190610670919061397f565b6115c6565b6040516106829190613196565b60405180910390f35b6106a560048036038101906106a091906139eb565b61165a565b005b60006106b28261173b565b9050919050565b6060600080546106c890613a5a565b80601f01602080910402602001604051908101604052809291908181526020018280546106f490613a5a565b80156107415780601f1061071657610100808354040283529160200191610741565b820191906000526020600020905b81548152906001019060200180831161072457829003601f168201915b5050505050905090565b6000610756826117b5565b610795576040517f08c379a000000000000000000000000000000000000000000000000000000000815260040161078c90613afd565b60405180910390fd5b6004600083815260200190815260200160002060009054906101000a900473ffffffffffffffffffffffffffffffffffffffff169050919050565b60006107db826110cc565b90508073ffffffffffffffffffffffffffffffffffffffff168373ffffffffffffffffffffffffffffffffffffffff160361084b576040517f08c379a000000000000000000000000000000000000000000000000000000000815260040161084290613b8f565b60405180910390fd5b8073ffffffffffffffffffffffffffffffffffffffff1661086a611821565b73ffffffffffffffffffffffffffffffffffffffff161480610899575061089881610893611821565b6115c6565b5b6108d8576040517f08c379a00000000000000000000000000000000000000000000000000000000081526004016108cf90613c21565b60405180910390fd5b6108e28383611829565b505050565b603460009054906101000a900467ffffffffffffffff1681565b610909610ae7565b610948576040517f08c379a000000000000000000000000000000000000000000000000000000000815260040161093f90613c8d565b60405180910390fd5b6000610952611821565b90506001600b60008373ffffffffffffffffffffffffffffffffffffffff1673ffffffffffffffffffffffffffffffffffffffff16815260200190815260200160002060008282829054906101000a900460ff166109b09190613ce9565b92506101000a81548160ff021916908360ff160217905550600261ffff16600b60008373ffffffffffffffffffffffffffffffffffffffff1673ffffffffffffffffffffffffffffffffffffffff16815260200190815260200160002060009054906101000a900460ff1660ff161115610a5f576040517f08c379a0000000000000000000000000000000000000000000000000000000008152600401610a5690613d6c565b60405180910390fd5b6001603360068282829054906101000a900461ffff16610a7f9190613d8c565b92506101000a81548161ffff021916908361ffff160217905550610ab1610aa4611821565b610aac6118e2565b611b8c565b50565b6000603360069054906101000a900461ffff16603360049054906101000a900461ffff16610ae29190613d8c565b905090565b6000600e60029054906101000a900460ff1680610b4e5750603360189054906101000a900467ffffffffffffffff1667ffffffffffffffff1642118015610b4d5750603460009054906101000a900467ffffffffffffffff1667ffffffffffffffff1642105b5b905090565b610b64610b5e611821565b82611baa565b610ba3576040517f08c379a0000000000000000000000000000000000000000000000000000000008152600401610b9a90613e36565b60405180910390fd5b610bae838383611c88565b505050565b600060066000838152602001908152602001600020600101549050919050565b610bdc82610bb3565b610bed81610be8611821565b611ee3565b610bf78383611f80565b505050565b6000610c06611821565b9050610c156000801b8261123a565b80610c285750610c276007548261123a565b5b610c67576040517f08c379a0000000000000000000000000000000000000000000000000000000008152600401610c5e90613ea2565b60405180910390fd5b81600d9080519060200190610c7d92919061303f565b505050565b610c8a611821565b73ffffffffffffffffffffffffffffffffffffffff168173ffffffffffffffffffffffffffffffffffffffff1614610cf7576040517f08c379a0000000000000000000000000000000000000000000000000000000008152600401610cee90613f34565b60405180910390fd5b610d018282612061565b5050565b6000610d0f611821565b9050610d196113ea565b610d58576040517f08c379a0000000000000000000000000000000000000000000000000000000008152600401610d4f90613fa0565b60405180910390fd5b610d63838383612143565b610da2576040517f08c379a0000000000000000000000000000000000000000000000000000000008152600401610d999061400c565b60405180910390fd5b600a60008273ffffffffffffffffffffffffffffffffffffffff1673ffffffffffffffffffffffffffffffffffffffff16815260200190815260200160002060009054906101000a900460ff1615610e2f576040517f08c379a0000000000000000000000000000000000000000000000000000000008152600401610e2690614078565b60405180910390fd5b6001600a60008373ffffffffffffffffffffffffffffffffffffffff1673ffffffffffffffffffffffffffffffffffffffff16815260200190815260200160002060006101000a81548160ff0219169083151502179055506001603360068282829054906101000a900461ffff16610ea79190613d8c565b92506101000a81548161ffff021916908361ffff160217905550610ed281610ecd6118e2565b611b8c565b505050565b610ef283838360405180602001604052806000815250611388565b505050565b600e60009054906101000a900460ff1681565b6000610f14611821565b9050610f236000801b8261123a565b80610f365750610f356007548261123a565b5b610f75576040517f08c379a0000000000000000000000000000000000000000000000000000000008152600401610f6c90613ea2565b60405180910390fd5b81600c9080519060200190610f8b92919061303f565b505050565b6000610f9a611821565b9050610fa96000801b8261123a565b80610fbc5750610fbb6007548261123a565b5b610ffb576040517f08c379a0000000000000000000000000000000000000000000000000000000008152600401610ff290613ea2565b60405180910390fd5b82600e60026101000a81548160ff02191690831515021790555081600e60016101000a81548160ff021916908315150217905550505050565b600061103e611821565b905061104d6000801b8261123a565b80611060575061105f6007548261123a565b5b61109f576040517f08c379a000000000000000000000000000000000000000000000000000000000815260040161109690613ea2565b60405180910390fd5b600e60009054906101000a900460ff1615600e60006101000a81548160ff02191690831515021790555050565b6000806002600084815260200190815260200160002060009054906101000a900473ffffffffffffffffffffffffffffffffffffffff169050600073ffffffffffffffffffffffffffffffffffffffff168173ffffffffffffffffffffffffffffffffffffffff1603611174576040517f08c379a000000000000000000000000000000000000000000000000000000000815260040161116b9061410a565b60405180910390fd5b80915050919050565b60008073ffffffffffffffffffffffffffffffffffffffff168273ffffffffffffffffffffffffffffffffffffffff16036111ed576040517f08c379a00000000000000000000000000000000000000000000000000000000081526004016111e49061419c565b60405180910390fd5b600360008373ffffffffffffffffffffffffffffffffffffffff1673ffffffffffffffffffffffffffffffffffffffff168152602001908152602001600020549050919050565b60075481565b60006006600084815260200190815260200160002060000160008373ffffffffffffffffffffffffffffffffffffffff1673ffffffffffffffffffffffffffffffffffffffff16815260200190815260200160002060009054906101000a900460ff16905092915050565b6060600180546112b490613a5a565b80601f01602080910402602001604051908101604052809291908181526020018280546112e090613a5a565b801561132d5780601f106113025761010080835404028352916020019161132d565b820191906000526020600020905b81548152906001019060200180831161131057829003601f168201915b5050505050905090565b603360089054906101000a900467ffffffffffffffff1681565b6000801b81565b61136a611363611821565b83836121c9565b5050565b603360189054906101000a900467ffffffffffffffff1681565b611399611393611821565b83611baa565b6113d8576040517f08c379a00000000000000000000000000000000000000000000000000000000081526004016113cf90613e36565b60405180910390fd5b6113e484848484612335565b50505050565b6000600e60019054906101000a900460ff16806114515750603360089054906101000a900467ffffffffffffffff1667ffffffffffffffff16421180156114505750603360109054906101000a900467ffffffffffffffff1667ffffffffffffffff1642105b5b905090565b603360109054906101000a900467ffffffffffffffff1681565b606061147b826117b5565b6114ba576040517f08c379a00000000000000000000000000000000000000000000000000000000081526004016114b190614208565b60405180910390fd5b600e60009054906101000a900460ff1661155e57600d80546114db90613a5a565b80601f016020809104026020016040519081016040528092919081815260200182805461150790613a5a565b80156115545780601f1061152957610100808354040283529160200191611554565b820191906000526020600020905b81548152906001019060200180831161153757829003601f168201915b5050505050611590565b611566612391565b61156f83612423565b6040516020016115809291906142b0565b6040516020818303038152906040525b9050919050565b6115a082610bb3565b6115b1816115ac611821565b611ee3565b6115bb8383612061565b505050565b60085481565b6000600560008473ffffffffffffffffffffffffffffffffffffffff1673ffffffffffffffffffffffffffffffffffffffff16815260200190815260200160002060008373ffffffffffffffffffffffffffffffffffffffff1673ffffffffffffffffffffffffffffffffffffffff16815260200190815260200160002060009054906101000a900460ff16905092915050565b6000611664611821565b90506116736000801b8261123a565b8061168657506116856007548261123a565b5b6116c5576040517f08c379a00000000000000000000000000000000000000000000000000000000081526004016116bc90613ea2565b60405180910390fd5b81603360048282829054906101000a900461ffff166116e49190613d8c565b92506101000a81548161ffff021916908361ffff16021790555060005b8261ffff168161ffff161015611735576117228461171d612583565b611b8c565b808061172d906142df565b915050611701565b50505050565b60007f7965db0b000000000000000000000000000000000000000000000000000000007bffffffffffffffffffffffffffffffffffffffffffffffffffffffff1916827bffffffffffffffffffffffffffffffffffffffffffffffffffffffff191614806117ae57506117ad82612826565b5b9050919050565b60008073ffffffffffffffffffffffffffffffffffffffff166002600084815260200190815260200160002060009054906101000a900473ffffffffffffffffffffffffffffffffffffffff1673ffffffffffffffffffffffffffffffffffffffff1614159050919050565b600033905090565b816004600083815260200190815260200160002060006101000a81548173ffffffffffffffffffffffffffffffffffffffff021916908373ffffffffffffffffffffffffffffffffffffffff160217905550808273ffffffffffffffffffffffffffffffffffffffff1661189c836110cc565b73ffffffffffffffffffffffffffffffffffffffff167f8c5be1e5ebec7d5bd14f71427d1e84f3dd0314c0f7b2291e5b200ac8c7c3b92560405160405180910390a45050565b600080603360009054906101000a900461ffff1633426001436119059190614309565b4060405160200161191994939291906143fd565b6040516020818303038152906040528051906020012060001c90506000603360009054906101000a900461ffff1661ffff166101f46119589190614309565b90506001603360008282829054906101000a900461ffff1661197a9190613d8c565b92506101000a81548161ffff021916908361ffff160217905550600081116119d7576040517f08c379a00000000000000000000000000000000000000000000000000000000081526004016119ce90614497565b60405180910390fd5b600081836119e591906144e6565b90506000600f826101f481106119fe576119fd614517565b5b601091828204019190066002029054906101000a900461ffff1661ffff1603611a275780611a5b565b600f816101f48110611a3c57611a3b614517565b5b601091828204019190066002029054906101000a900461ffff1661ffff165b9350603884611a6a9190614546565b93506000600f600184611a7d9190614309565b6101f48110611a8f57611a8e614517565b5b601091828204019190066002029054906101000a900461ffff1661ffff1614611af657600f600183611ac19190614309565b6101f48110611ad357611ad2614517565b5b601091828204019190066002029054906101000a900461ffff1661ffff16611b04565b600182611b039190614309565b5b600f826101f48110611b1957611b18614517565b5b601091828204019190066002026101000a81548161ffff021916908361ffff1602179055506000600f600184611b4f9190614309565b6101f48110611b6157611b60614517565b5b601091828204019190066002026101000a81548161ffff021916908361ffff16021790555050505090565b611ba6828260405180602001604052806000815250612908565b5050565b6000611bb5826117b5565b611bf4576040517f08c379a0000000000000000000000000000000000000000000000000000000008152600401611beb9061460e565b60405180910390fd5b6000611bff836110cc565b90508073ffffffffffffffffffffffffffffffffffffffff168473ffffffffffffffffffffffffffffffffffffffff161480611c6e57508373ffffffffffffffffffffffffffffffffffffffff16611c568461074b565b73ffffffffffffffffffffffffffffffffffffffff16145b80611c7f5750611c7e81856115c6565b5b91505092915050565b8273ffffffffffffffffffffffffffffffffffffffff16611ca8826110cc565b73ffffffffffffffffffffffffffffffffffffffff1614611cfe576040517f08c379a0000000000000000000000000000000000000000000000000000000008152600401611cf5906146a0565b60405180910390fd5b600073ffffffffffffffffffffffffffffffffffffffff168273ffffffffffffffffffffffffffffffffffffffff1603611d6d576040517f08c379a0000000000000000000000000000000000000000000000000000000008152600401611d6490614732565b60405180910390fd5b611d78838383612963565b611d83600082611829565b6001600360008573ffffffffffffffffffffffffffffffffffffffff1673ffffffffffffffffffffffffffffffffffffffff1681526020019081526020016000206000828254611dd39190614309565b925050819055506001600360008473ffffffffffffffffffffffffffffffffffffffff1673ffffffffffffffffffffffffffffffffffffffff1681526020019081526020016000206000828254611e2a9190614546565b92505081905550816002600083815260200190815260200160002060006101000a81548173ffffffffffffffffffffffffffffffffffffffff021916908373ffffffffffffffffffffffffffffffffffffffff160217905550808273ffffffffffffffffffffffffffffffffffffffff168473ffffffffffffffffffffffffffffffffffffffff167fddf252ad1be2c89b69c2b068fc378daa952ba7f163c4a11628f55a4df523b3ef60405160405180910390a4505050565b611eed828261123a565b611f7c57611f128173ffffffffffffffffffffffffffffffffffffffff166014612968565b611f208360001c6020612968565b604051602001611f319291906147ea565b6040516020818303038152906040526040517f08c379a0000000000000000000000000000000000000000000000000000000008152600401611f73919061324a565b60405180910390fd5b5050565b611f8a828261123a565b61205d5760016006600084815260200190815260200160002060000160008373ffffffffffffffffffffffffffffffffffffffff1673ffffffffffffffffffffffffffffffffffffffff16815260200190815260200160002060006101000a81548160ff021916908315150217905550612002611821565b73ffffffffffffffffffffffffffffffffffffffff168173ffffffffffffffffffffffffffffffffffffffff16837f2f8788117e7eff1d82e926ec794901d17c78024a50270940304540a733656f0d60405160405180910390a45b5050565b61206b828261123a565b1561213f5760006006600084815260200190815260200160002060000160008373ffffffffffffffffffffffffffffffffffffffff1673ffffffffffffffffffffffffffffffffffffffff16815260200190815260200160002060006101000a81548160ff0219169083151502179055506120e4611821565b73ffffffffffffffffffffffffffffffffffffffff168173ffffffffffffffffffffffffffffffffffffffff16837ff6391f5c32d9c69d2a47ea670b442974b53935d1edc7fd64eb21e047a839171b60405160405180910390a45b5050565b6000600115156121bd858580806020026020016040519081016040528093929190818152602001838360200280828437600081840152601f19601f82011690508083019250505050505050600954856040516020016121a29190614824565b60405160208183030381529060405280519060200120612ba4565b15151490509392505050565b8173ffffffffffffffffffffffffffffffffffffffff168373ffffffffffffffffffffffffffffffffffffffff1603612237576040517f08c379a000000000000000000000000000000000000000000000000000000000815260040161222e9061488b565b60405180910390fd5b80600560008573ffffffffffffffffffffffffffffffffffffffff1673ffffffffffffffffffffffffffffffffffffffff16815260200190815260200160002060008473ffffffffffffffffffffffffffffffffffffffff1673ffffffffffffffffffffffffffffffffffffffff16815260200190815260200160002060006101000a81548160ff0219169083151502179055508173ffffffffffffffffffffffffffffffffffffffff168373ffffffffffffffffffffffffffffffffffffffff167f17307eab39ab6107e8899845ad3d59bd9653f200f220920489ca2b5937696c31836040516123289190613196565b60405180910390a3505050565b612340848484611c88565b61234c84848484612bbb565b61238b576040517f08c379a00000000000000000000000000000000000000000000000000000000081526004016123829061491d565b60405180910390fd5b50505050565b6060600c80546123a090613a5a565b80601f01602080910402602001604051908101604052809291908181526020018280546123cc90613a5a565b80156124195780601f106123ee57610100808354040283529160200191612419565b820191906000526020600020905b8154815290600101906020018083116123fc57829003601f168201915b5050505050905090565b60606000820361246a576040518060400160405280600181526020017f3000000000000000000000000000000000000000000000000000000000000000815250905061257e565b600082905060005b6000821461249c5780806124859061493d565b915050600a826124959190614985565b9150612472565b60008167ffffffffffffffff8111156124b8576124b7613537565b5b6040519080825280601f01601f1916602001820160405280156124ea5781602001600182028036833780820191505090505b5090505b60008514612577576001826125039190614309565b9150600a8561251291906144e6565b603061251e9190614546565b60f81b81838151811061253457612533614517565b5b60200101907effffffffffffffffffffffffffffffffffffffffffffffffffffffffffffff1916908160001a905350600a856125709190614985565b94506124ee565b8093505050505b919050565b600080603360029054906101000a900461ffff1633426001436125a69190614309565b406040516020016125ba94939291906143fd565b6040516020818303038152906040528051906020012060001c90506000603360029054906101000a900461ffff1661ffff1660376125f89190614309565b90506001603360028282829054906101000a900461ffff1661261a9190613d8c565b92506101000a81548161ffff021916908361ffff16021790555060008111612677576040517f08c379a000000000000000000000000000000000000000000000000000000000815260040161266e90614a02565b60405180910390fd5b6000818361268591906144e6565b90506000602f826037811061269d5761269c614517565b5b601091828204019190066002029054906101000a900461ffff1661ffff16036126c657806126f9565b602f81603781106126da576126d9614517565b5b601091828204019190066002029054906101000a900461ffff1661ffff165b93506001846127089190614546565b93506000602f60018461271b9190614309565b6037811061272c5761272b614517565b5b601091828204019190066002029054906101000a900461ffff1661ffff161461279257602f60018361275e9190614309565b6037811061276f5761276e614517565b5b601091828204019190066002029054906101000a900461ffff1661ffff166127a0565b60018261279f9190614309565b5b602f82603781106127b4576127b3614517565b5b601091828204019190066002026101000a81548161ffff021916908361ffff1602179055506000602f6001846127ea9190614309565b603781106127fb576127fa614517565b5b601091828204019190066002026101000a81548161ffff021916908361ffff16021790555050505090565b60007f80ac58cd000000000000000000000000000000000000000000000000000000007bffffffffffffffffffffffffffffffffffffffffffffffffffffffff1916827bffffffffffffffffffffffffffffffffffffffffffffffffffffffff191614806128f157507f5b5e139f000000000000000000000000000000000000000000000000000000007bffffffffffffffffffffffffffffffffffffffffffffffffffffffff1916827bffffffffffffffffffffffffffffffffffffffffffffffffffffffff1916145b80612901575061290082612d42565b5b9050919050565b6129128383612dac565b61291f6000848484612bbb565b61295e576040517f08c379a00000000000000000000000000000000000000000000000000000000081526004016129559061491d565b60405180910390fd5b505050565b505050565b60606000600283600261297b9190614a22565b6129859190614546565b67ffffffffffffffff81111561299e5761299d613537565b5b6040519080825280601f01601f1916602001820160405280156129d05781602001600182028036833780820191505090505b5090507f300000000000000000000000000000000000000000000000000000000000000081600081518110612a0857612a07614517565b5b60200101907effffffffffffffffffffffffffffffffffffffffffffffffffffffffffffff1916908160001a9053507f780000000000000000000000000000000000000000000000000000000000000081600181518110612a6c57612a6b614517565b5b60200101907effffffffffffffffffffffffffffffffffffffffffffffffffffffffffffff1916908160001a90535060006001846002612aac9190614a22565b612ab69190614546565b90505b6001811115612b56577f3031323334353637383961626364656600000000000000000000000000000000600f861660108110612af857612af7614517565b5b1a60f81b828281518110612b0f57612b0e614517565b5b60200101907effffffffffffffffffffffffffffffffffffffffffffffffffffffffffffff1916908160001a905350600485901c945080612b4f90614a7c565b9050612ab9565b5060008414612b9a576040517f08c379a0000000000000000000000000000000000000000000000000000000008152600401612b9190614af1565b60405180910390fd5b8091505092915050565b600082612bb18584612f79565b1490509392505050565b6000612bdc8473ffffffffffffffffffffffffffffffffffffffff1661302c565b15612d35578373ffffffffffffffffffffffffffffffffffffffff1663150b7a02612c05611821565b8786866040518563ffffffff1660e01b8152600401612c279493929190614b66565b6020604051808303816000875af1925050508015612c6357506040513d601f19601f82011682018060405250810190612c609190614bc7565b60015b612ce5573d8060008114612c93576040519150601f19603f3d011682016040523d82523d6000602084013e612c98565b606091505b506000815103612cdd576040517f08c379a0000000000000000000000000000000000000000000000000000000008152600401612cd49061491d565b60405180910390fd5b805181602001fd5b63150b7a0260e01b7bffffffffffffffffffffffffffffffffffffffffffffffffffffffff1916817bffffffffffffffffffffffffffffffffffffffffffffffffffffffff191614915050612d3a565b600190505b949350505050565b60007f01ffc9a7000000000000000000000000000000000000000000000000000000007bffffffffffffffffffffffffffffffffffffffffffffffffffffffff1916827bffffffffffffffffffffffffffffffffffffffffffffffffffffffff1916149050919050565b600073ffffffffffffffffffffffffffffffffffffffff168273ffffffffffffffffffffffffffffffffffffffff1603612e1b576040517f08c379a0000000000000000000000000000000000000000000000000000000008152600401612e1290614c40565b60405180910390fd5b612e24816117b5565b15612e64576040517f08c379a0000000000000000000000000000000000000000000000000000000008152600401612e5b90614cac565b60405180910390fd5b612e7060008383612963565b6001600360008473ffffffffffffffffffffffffffffffffffffffff1673ffffffffffffffffffffffffffffffffffffffff1681526020019081526020016000206000828254612ec09190614546565b92505081905550816002600083815260200190815260200160002060006101000a81548173ffffffffffffffffffffffffffffffffffffffff021916908373ffffffffffffffffffffffffffffffffffffffff160217905550808273ffffffffffffffffffffffffffffffffffffffff16600073ffffffffffffffffffffffffffffffffffffffff167fddf252ad1be2c89b69c2b068fc378daa952ba7f163c4a11628f55a4df523b3ef60405160405180910390a45050565b60008082905060005b8451811015613021576000858281518110612fa057612f9f614517565b5b60200260200101519050808311612fe1578281604051602001612fc4929190614ccc565b60405160208183030381529060405280519060200120925061300d565b8083604051602001612ff4929190614ccc565b6040516020818303038152906040528051906020012092505b5080806130199061493d565b915050612f82565b508091505092915050565b600080823b905060008111915050919050565b82805461304b90613a5a565b90600052602060002090601f01602090048101928261306d57600085556130b4565b82601f1061308657805160ff19168380011785556130b4565b828001600101855582156130b4579182015b828111156130b3578251825591602001919060010190613098565b5b5090506130c191906130c5565b5090565b5b808211156130de5760008160009055506001016130c6565b5090565b6000604051905090565b600080fd5b600080fd5b60007fffffffff0000000000000000000000000000000000000000000000000000000082169050919050565b61312b816130f6565b811461313657600080fd5b50565b60008135905061314881613122565b92915050565b600060208284031215613164576131636130ec565b5b600061317284828501613139565b91505092915050565b60008115159050919050565b6131908161317b565b82525050565b60006020820190506131ab6000830184613187565b92915050565b600081519050919050565b600082825260208201905092915050565b60005b838110156131eb5780820151818401526020810190506131d0565b838111156131fa576000848401525b50505050565b6000601f19601f8301169050919050565b600061321c826131b1565b61322681856131bc565b93506132368185602086016131cd565b61323f81613200565b840191505092915050565b600060208201905081810360008301526132648184613211565b905092915050565b6000819050919050565b61327f8161326c565b811461328a57600080fd5b50565b60008135905061329c81613276565b92915050565b6000602082840312156132b8576132b76130ec565b5b60006132c68482850161328d565b91505092915050565b600073ffffffffffffffffffffffffffffffffffffffff82169050919050565b60006132fa826132cf565b9050919050565b61330a816132ef565b82525050565b60006020820190506133256000830184613301565b92915050565b613334816132ef565b811461333f57600080fd5b50565b6000813590506133518161332b565b92915050565b6000806040838503121561336e5761336d6130ec565b5b600061337c85828601613342565b925050602061338d8582860161328d565b9150509250929050565b600067ffffffffffffffff82169050919050565b6133b481613397565b82525050565b60006020820190506133cf60008301846133ab565b92915050565b600061ffff82169050919050565b6133ec816133d5565b82525050565b600060208201905061340760008301846133e3565b92915050565b600080600060608486031215613426576134256130ec565b5b600061343486828701613342565b935050602061344586828701613342565b92505060406134568682870161328d565b9150509250925092565b6000819050919050565b61347381613460565b811461347e57600080fd5b50565b6000813590506134908161346a565b92915050565b6000602082840312156134ac576134ab6130ec565b5b60006134ba84828501613481565b91505092915050565b6134cc81613460565b82525050565b60006020820190506134e760008301846134c3565b92915050565b60008060408385031215613504576135036130ec565b5b600061351285828601613481565b925050602061352385828601613342565b9150509250929050565b600080fd5b600080fd5b7f4e487b7100000000000000000000000000000000000000000000000000000000600052604160045260246000fd5b61356f82613200565b810181811067ffffffffffffffff8211171561358e5761358d613537565b5b80604052505050565b60006135a16130e2565b90506135ad8282613566565b919050565b600067ffffffffffffffff8211156135cd576135cc613537565b5b6135d682613200565b9050602081019050919050565b82818337600083830152505050565b6000613605613600846135b2565b613597565b90508281526020810184848401111561362157613620613532565b5b61362c8482856135e3565b509392505050565b600082601f8301126136495761364861352d565b5b81356136598482602086016135f2565b91505092915050565b600060208284031215613678576136776130ec565b5b600082013567ffffffffffffffff811115613696576136956130f1565b5b6136a284828501613634565b91505092915050565b600080fd5b600080fd5b60008083601f8401126136cb576136ca61352d565b5b8235905067ffffffffffffffff8111156136e8576136e76136ab565b5b602083019150836020820283011115613704576137036136b0565b5b9250929050565b60008060208385031215613722576137216130ec565b5b600083013567ffffffffffffffff8111156137405761373f6130f1565b5b61374c858286016136b5565b92509250509250929050565b6137618161317b565b811461376c57600080fd5b50565b60008135905061377e81613758565b92915050565b6000806040838503121561379b5761379a6130ec565b5b60006137a98582860161376f565b92505060206137ba8582860161376f565b9150509250929050565b6000602082840312156137da576137d96130ec565b5b60006137e884828501613342565b91505092915050565b6137fa8161326c565b82525050565b600060208201905061381560008301846137f1565b92915050565b60008060408385031215613832576138316130ec565b5b600061384085828601613342565b92505060206138518582860161376f565b9150509250929050565b600067ffffffffffffffff82111561387657613875613537565b5b61387f82613200565b9050602081019050919050565b600061389f61389a8461385b565b613597565b9050828152602081018484840111156138bb576138ba613532565b5b6138c68482856135e3565b509392505050565b600082601f8301126138e3576138e261352d565b5b81356138f384826020860161388c565b91505092915050565b60008060008060808587031215613916576139156130ec565b5b600061392487828801613342565b945050602061393587828801613342565b93505060406139468782880161328d565b925050606085013567ffffffffffffffff811115613967576139666130f1565b5b613973878288016138ce565b91505092959194509250565b60008060408385031215613996576139956130ec565b5b60006139a485828601613342565b92505060206139b585828601613342565b9150509250929050565b6139c8816133d5565b81146139d357600080fd5b50565b6000813590506139e5816139bf565b92915050565b60008060408385031215613a0257613a016130ec565b5b6000613a1085828601613342565b9250506020613a21858286016139d6565b9150509250929050565b7f4e487b7100000000000000000000000000000000000000000000000000000000600052602260045260246000fd5b60006002820490506001821680613a7257607f821691505b602082108103613a8557613a84613a2b565b5b50919050565b7f4552433732313a20617070726f76656420717565727920666f72206e6f6e657860008201527f697374656e7420746f6b656e0000000000000000000000000000000000000000602082015250565b6000613ae7602c836131bc565b9150613af282613a8b565b604082019050919050565b60006020820190508181036000830152613b1681613ada565b9050919050565b7f4552433732313a20617070726f76616c20746f2063757272656e74206f776e6560008201527f7200000000000000000000000000000000000000000000000000000000000000602082015250565b6000613b796021836131bc565b9150613b8482613b1d565b604082019050919050565b60006020820190508181036000830152613ba881613b6c565b9050919050565b7f4552433732313a20617070726f76652063616c6c6572206973206e6f74206f7760008201527f6e6572206e6f7220617070726f76656420666f7220616c6c0000000000000000602082015250565b6000613c0b6038836131bc565b9150613c1682613baf565b604082019050919050565b60006020820190508181036000830152613c3a81613bfe565b9050919050565b7f5055424c49435f53414c455f494e414354495645000000000000000000000000600082015250565b6000613c776014836131bc565b9150613c8282613c41565b602082019050919050565b60006020820190508181036000830152613ca681613c6a565b9050919050565b600060ff82169050919050565b7f4e487b7100000000000000000000000000000000000000000000000000000000600052601160045260246000fd5b6000613cf482613cad565b9150613cff83613cad565b92508260ff03821115613d1557613d14613cba565b5b828201905092915050565b7f5055424c49435f544f4b454e5f4c494d49540000000000000000000000000000600082015250565b6000613d566012836131bc565b9150613d6182613d20565b602082019050919050565b60006020820190508181036000830152613d8581613d49565b9050919050565b6000613d97826133d5565b9150613da2836133d5565b92508261ffff03821115613db957613db8613cba565b5b828201905092915050565b7f4552433732313a207472616e736665722063616c6c6572206973206e6f74206f60008201527f776e6572206e6f7220617070726f766564000000000000000000000000000000602082015250565b6000613e206031836131bc565b9150613e2b82613dc4565b604082019050919050565b60006020820190508181036000830152613e4f81613e13565b9050919050565b7f4d75737420626520616e2061646d696e00000000000000000000000000000000600082015250565b6000613e8c6010836131bc565b9150613e9782613e56565b602082019050919050565b60006020820190508181036000830152613ebb81613e7f565b9050919050565b7f416363657373436f6e74726f6c3a2063616e206f6e6c792072656e6f756e636560008201527f20726f6c657320666f722073656c660000000000000000000000000000000000602082015250565b6000613f1e602f836131bc565b9150613f2982613ec2565b604082019050919050565b60006020820190508181036000830152613f4d81613f11565b9050919050565b7f50524553414c455f494e41435449564500000000000000000000000000000000600082015250565b6000613f8a6010836131bc565b9150613f9582613f54565b602082019050919050565b60006020820190508181036000830152613fb981613f7d565b9050919050565b7f50524553414c455f4e4f545f5645524946494544000000000000000000000000600082015250565b6000613ff66014836131bc565b915061400182613fc0565b602082019050919050565b6000602082019050818103600083015261402581613fe9565b9050919050565b7f57484954454c4953545f544f4b454e5f434c41494d4544000000000000000000600082015250565b60006140626017836131bc565b915061406d8261402c565b602082019050919050565b6000602082019050818103600083015261409181614055565b9050919050565b7f4552433732313a206f776e657220717565727920666f72206e6f6e657869737460008201527f656e7420746f6b656e0000000000000000000000000000000000000000000000602082015250565b60006140f46029836131bc565b91506140ff82614098565b604082019050919050565b60006020820190508181036000830152614123816140e7565b9050919050565b7f4552433732313a2062616c616e636520717565727920666f7220746865207a6560008201527f726f206164647265737300000000000000000000000000000000000000000000602082015250565b6000614186602a836131bc565b91506141918261412a565b604082019050919050565b600060208201905081810360008301526141b581614179565b9050919050565b7f494e56414c49445f494400000000000000000000000000000000000000000000600082015250565b60006141f2600a836131bc565b91506141fd826141bc565b602082019050919050565b60006020820190508181036000830152614221816141e5565b9050919050565b600081905092915050565b600061423e826131b1565b6142488185614228565b93506142588185602086016131cd565b80840191505092915050565b7f2e6a736f6e000000000000000000000000000000000000000000000000000000600082015250565b600061429a600583614228565b91506142a582614264565b600582019050919050565b60006142bc8285614233565b91506142c88284614233565b91506142d38261428d565b91508190509392505050565b60006142ea826133d5565b915061ffff82036142fe576142fd613cba565b5b600182019050919050565b60006143148261326c565b915061431f8361326c565b92508282101561433257614331613cba565b5b828203905092915050565b60008160f01b9050919050565b60006143558261433d565b9050919050565b61436d614368826133d5565b61434a565b82525050565b60008160601b9050919050565b600061438b82614373565b9050919050565b600061439d82614380565b9050919050565b6143b56143b0826132ef565b614392565b82525050565b6000819050919050565b6143d66143d18261326c565b6143bb565b82525050565b6000819050919050565b6143f76143f282613460565b6143dc565b82525050565b6000614409828761435c565b60028201915061441982866143a4565b60148201915061442982856143c5565b60208201915061443982846143e6565b60208201915081905095945050505050565b7f6e6f205f636f6d6d756e697479496473206c6566740000000000000000000000600082015250565b60006144816015836131bc565b915061448c8261444b565b602082019050919050565b600060208201905081810360008301526144b081614474565b9050919050565b7f4e487b7100000000000000000000000000000000000000000000000000000000600052601260045260246000fd5b60006144f18261326c565b91506144fc8361326c565b92508261450c5761450b6144b7565b5b828206905092915050565b7f4e487b7100000000000000000000000000000000000000000000000000000000600052603260045260246000fd5b60006145518261326c565b915061455c8361326c565b9250827fffffffffffffffffffffffffffffffffffffffffffffffffffffffffffffffff0382111561459157614590613cba565b5b828201905092915050565b7f4552433732313a206f70657261746f7220717565727920666f72206e6f6e657860008201527f697374656e7420746f6b656e0000000000000000000000000000000000000000602082015250565b60006145f8602c836131bc565b91506146038261459c565b604082019050919050565b60006020820190508181036000830152614627816145eb565b9050919050565b7f4552433732313a207472616e73666572206f6620746f6b656e2074686174206960008201527f73206e6f74206f776e0000000000000000000000000000000000000000000000602082015250565b600061468a6029836131bc565b91506146958261462e565b604082019050919050565b600060208201905081810360008301526146b98161467d565b9050919050565b7f4552433732313a207472616e7366657220746f20746865207a65726f2061646460008201527f7265737300000000000000000000000000000000000000000000000000000000602082015250565b600061471c6024836131bc565b9150614727826146c0565b604082019050919050565b6000602082019050818103600083015261474b8161470f565b9050919050565b7f416363657373436f6e74726f6c3a206163636f756e7420000000000000000000600082015250565b6000614788601783614228565b915061479382614752565b601782019050919050565b7f206973206d697373696e6720726f6c6520000000000000000000000000000000600082015250565b60006147d4601183614228565b91506147df8261479e565b601182019050919050565b60006147f58261477b565b91506148018285614233565b915061480c826147c7565b91506148188284614233565b91508190509392505050565b600061483082846143a4565b60148201915081905092915050565b7f4552433732313a20617070726f766520746f2063616c6c657200000000000000600082015250565b60006148756019836131bc565b91506148808261483f565b602082019050919050565b600060208201905081810360008301526148a481614868565b9050919050565b7f4552433732313a207472616e7366657220746f206e6f6e20455243373231526560008201527f63656976657220696d706c656d656e7465720000000000000000000000000000602082015250565b60006149076032836131bc565b9150614912826148ab565b604082019050919050565b60006020820190508181036000830152614936816148fa565b9050919050565b60006149488261326c565b91507fffffffffffffffffffffffffffffffffffffffffffffffffffffffffffffffff820361497a57614979613cba565b5b600182019050919050565b60006149908261326c565b915061499b8361326c565b9250826149ab576149aa6144b7565b5b828204905092915050565b7f6e6f205f7465616d496473206c65667400000000000000000000000000000000600082015250565b60006149ec6010836131bc565b91506149f7826149b6565b602082019050919050565b60006020820190508181036000830152614a1b816149df565b9050919050565b6000614a2d8261326c565b9150614a388361326c565b9250817fffffffffffffffffffffffffffffffffffffffffffffffffffffffffffffffff0483118215151615614a7157614a70613cba565b5b828202905092915050565b6000614a878261326c565b915060008203614a9a57614a99613cba565b5b600182039050919050565b7f537472696e67733a20686578206c656e67746820696e73756666696369656e74600082015250565b6000614adb6020836131bc565b9150614ae682614aa5565b602082019050919050565b60006020820190508181036000830152614b0a81614ace565b9050919050565b600081519050919050565b600082825260208201905092915050565b6000614b3882614b11565b614b428185614b1c565b9350614b528185602086016131cd565b614b5b81613200565b840191505092915050565b6000608082019050614b7b6000830187613301565b614b886020830186613301565b614b9560408301856137f1565b8181036060830152614ba78184614b2d565b905095945050505050565b600081519050614bc181613122565b92915050565b600060208284031215614bdd57614bdc6130ec565b5b6000614beb84828501614bb2565b91505092915050565b7f4552433732313a206d696e7420746f20746865207a65726f2061646472657373600082015250565b6000614c2a6020836131bc565b9150614c3582614bf4565b602082019050919050565b60006020820190508181036000830152614c5981614c1d565b9050919050565b7f4552433732313a20746f6b656e20616c7265616479206d696e74656400000000600082015250565b6000614c96601c836131bc565b9150614ca182614c60565b602082019050919050565b60006020820190508181036000830152614cc581614c89565b9050919050565b6000614cd882856143e6565b602082019150614ce882846143e6565b602082019150819050939250505056fea2646970667358221220b4de017fa639efa975c9cebe0833e462aad9b1b4faafb75f81323f1664199bf864736f6c634300080d0033",
  "linkReferences": {},
  "deployedLinkReferences": {}
}