{
  "_format": "hh-sol-artifact-1",
  "contractName": "FifthDimension",
  "sourceName": "contracts/FifthDimension.sol",
  "abi": [
    {
      "inputs": [
        {
          "internalType": "address",
          "name": "revenueRecipient",
          "type": "address"
        },
        {
          "internalType": "bytes32",
          "name": "_whitelistMerkleRoot",
          "type": "bytes32"
        },
        {
          "internalType": "string",
          "name": "tempUri",
          "type": "string"
        }
      ],
      "stateMutability": "nonpayable",
      "type": "constructor"
    },
    {
      "inputs": [],
      "name": "ApprovalCallerNotOwnerNorApproved",
      "type": "error"
    },
    {
      "inputs": [],
      "name": "ApprovalQueryForNonexistentToken",
      "type": "error"
    },
    {
      "inputs": [],
      "name": "ApprovalToCurrentOwner",
      "type": "error"
    },
    {
      "inputs": [],
      "name": "ApproveToCaller",
      "type": "error"
    },
    {
      "inputs": [],
      "name": "BalanceQueryForZeroAddress",
      "type": "error"
    },
    {
      "inputs": [],
      "name": "MintToZeroAddress",
      "type": "error"
    },
    {
      "inputs": [],
      "name": "MintZeroQuantity",
      "type": "error"
    },
    {
      "inputs": [],
      "name": "OwnerQueryForNonexistentToken",
      "type": "error"
    },
    {
      "inputs": [],
      "name": "TransferCallerNotOwnerNorApproved",
      "type": "error"
    },
    {
      "inputs": [],
      "name": "TransferFromIncorrectOwner",
      "type": "error"
    },
    {
      "inputs": [],
      "name": "TransferToNonERC721ReceiverImplementer",
      "type": "error"
    },
    {
      "inputs": [],
      "name": "TransferToZeroAddress",
      "type": "error"
    },
    {
      "anonymous": false,
      "inputs": [
        {
          "indexed": true,
          "internalType": "address",
          "name": "owner",
          "type": "address"
        },
        {
          "indexed": true,
          "internalType": "address",
          "name": "approved",
          "type": "address"
        },
        {
          "indexed": true,
          "internalType": "uint256",
          "name": "tokenId",
          "type": "uint256"
        }
      ],
      "name": "Approval",
      "type": "event"
    },
    {
      "anonymous": false,
      "inputs": [
        {
          "indexed": true,
          "internalType": "address",
          "name": "owner",
          "type": "address"
        },
        {
          "indexed": true,
          "internalType": "address",
          "name": "operator",
          "type": "address"
        },
        {
          "indexed": false,
          "internalType": "bool",
          "name": "approved",
          "type": "bool"
        }
      ],
      "name": "ApprovalForAll",
      "type": "event"
    },
    {
      "anonymous": false,
      "inputs": [
        {
          "indexed": true,
          "internalType": "address",
          "name": "previousOwner",
          "type": "address"
        },
        {
          "indexed": true,
          "internalType": "address",
          "name": "newOwner",
          "type": "address"
        }
      ],
      "name": "OwnershipTransferred",
      "type": "event"
    },
    {
      "anonymous": false,
      "inputs": [
        {
          "indexed": true,
          "internalType": "bytes32",
          "name": "role",
          "type": "bytes32"
        },
        {
          "indexed": true,
          "internalType": "bytes32",
          "name": "previousAdminRole",
          "type": "bytes32"
        },
        {
          "indexed": true,
          "internalType": "bytes32",
          "name": "newAdminRole",
          "type": "bytes32"
        }
      ],
      "name": "RoleAdminChanged",
      "type": "event"
    },
    {
      "anonymous": false,
      "inputs": [
        {
          "indexed": true,
          "internalType": "bytes32",
          "name": "role",
          "type": "bytes32"
        },
        {
          "indexed": true,
          "internalType": "address",
          "name": "account",
          "type": "address"
        },
        {
          "indexed": true,
          "internalType": "address",
          "name": "sender",
          "type": "address"
        }
      ],
      "name": "RoleGranted",
      "type": "event"
    },
    {
      "anonymous": false,
      "inputs": [
        {
          "indexed": true,
          "internalType": "bytes32",
          "name": "role",
          "type": "bytes32"
        },
        {
          "indexed": true,
          "internalType": "address",
          "name": "account",
          "type": "address"
        },
        {
          "indexed": true,
          "internalType": "address",
          "name": "sender",
          "type": "address"
        }
      ],
      "name": "RoleRevoked",
      "type": "event"
    },
    {
      "anonymous": false,
      "inputs": [
        {
          "indexed": true,
          "internalType": "address",
          "name": "from",
          "type": "address"
        },
        {
          "indexed": true,
          "internalType": "address",
          "name": "to",
          "type": "address"
        },
        {
          "indexed": true,
          "internalType": "uint256",
          "name": "tokenId",
          "type": "uint256"
        }
      ],
      "name": "Transfer",
      "type": "event"
    },
    {
      "inputs": [],
      "name": "ADMIN_ROLE",
      "outputs": [
        {
          "internalType": "bytes32",
          "name": "",
          "type": "bytes32"
        }
      ],
      "stateMutability": "view",
      "type": "function"
    },
    {
      "inputs": [],
      "name": "AIRDROP_LIMIT",
      "outputs": [
        {
          "internalType": "uint256",
          "name": "",
          "type": "uint256"
        }
      ],
      "stateMutability": "view",
      "type": "function"
    },
    {
      "inputs": [],
      "name": "DEFAULT_ADMIN_ROLE",
      "outputs": [
        {
          "internalType": "bytes32",
          "name": "",
          "type": "bytes32"
        }
      ],
      "stateMutability": "view",
      "type": "function"
    },
    {
      "inputs": [],
      "name": "MOD_ROLE",
      "outputs": [
        {
          "internalType": "bytes32",
          "name": "",
          "type": "bytes32"
        }
      ],
      "stateMutability": "view",
      "type": "function"
    },
    {
      "inputs": [
        {
          "internalType": "address",
          "name": "to",
          "type": "address"
        },
        {
          "internalType": "uint256",
          "name": "quantity",
          "type": "uint256"
        }
      ],
      "name": "airdrop",
      "outputs": [],
      "stateMutability": "nonpayable",
      "type": "function"
    },
    {
      "inputs": [],
      "name": "airdropped",
      "outputs": [
        {
          "internalType": "bool",
          "name": "",
          "type": "bool"
        }
      ],
      "stateMutability": "view",
      "type": "function"
    },
    {
      "inputs": [
        {
          "internalType": "address",
          "name": "to",
          "type": "address"
        },
        {
          "internalType": "uint256",
          "name": "tokenId",
          "type": "uint256"
        }
      ],
      "name": "approve",
      "outputs": [],
      "stateMutability": "nonpayable",
      "type": "function"
    },
    {
      "inputs": [
        {
          "internalType": "address",
          "name": "owner",
          "type": "address"
        }
      ],
      "name": "balanceOf",
      "outputs": [
        {
          "internalType": "uint256",
          "name": "",
          "type": "uint256"
        }
      ],
      "stateMutability": "view",
      "type": "function"
    },
    {
      "inputs": [],
      "name": "collectionSize",
      "outputs": [
        {
          "internalType": "uint256",
          "name": "",
          "type": "uint256"
        }
      ],
      "stateMutability": "view",
      "type": "function"
    },
    {
      "inputs": [],
      "name": "finalizeLists",
      "outputs": [],
      "stateMutability": "nonpayable",
      "type": "function"
    },
    {
      "inputs": [],
      "name": "finalizeMetadata",
      "outputs": [],
      "stateMutability": "nonpayable",
      "type": "function"
    },
    {
      "inputs": [],
      "name": "finalizeTimes",
      "outputs": [],
      "stateMutability": "nonpayable",
      "type": "function"
    },
    {
      "inputs": [
        {
          "internalType": "uint256",
          "name": "tokenId",
          "type": "uint256"
        }
      ],
      "name": "getApproved",
      "outputs": [
        {
          "internalType": "address",
          "name": "",
          "type": "address"
        }
      ],
      "stateMutability": "view",
      "type": "function"
    },
    {
      "inputs": [
        {
          "internalType": "bytes32",
          "name": "role",
          "type": "bytes32"
        }
      ],
      "name": "getRoleAdmin",
      "outputs": [
        {
          "internalType": "bytes32",
          "name": "",
          "type": "bytes32"
        }
      ],
      "stateMutability": "view",
      "type": "function"
    },
    {
      "inputs": [
        {
          "internalType": "address",
          "name": "addr",
          "type": "address"
        }
      ],
      "name": "grantAdminRole",
      "outputs": [],
      "stateMutability": "nonpayable",
      "type": "function"
    },
    {
      "inputs": [
        {
          "internalType": "address",
          "name": "addr",
          "type": "address"
        }
      ],
      "name": "grantModRole",
      "outputs": [],
      "stateMutability": "nonpayable",
      "type": "function"
    },
    {
      "inputs": [
        {
          "internalType": "bytes32",
          "name": "role",
          "type": "bytes32"
        },
        {
          "internalType": "address",
          "name": "account",
          "type": "address"
        }
      ],
      "name": "grantRole",
      "outputs": [],
      "stateMutability": "nonpayable",
      "type": "function"
    },
    {
      "inputs": [
        {
          "internalType": "bytes32",
          "name": "role",
          "type": "bytes32"
        },
        {
          "internalType": "address",
          "name": "account",
          "type": "address"
        }
      ],
      "name": "hasRole",
      "outputs": [
        {
          "internalType": "bool",
          "name": "",
          "type": "bool"
        }
      ],
      "stateMutability": "view",
      "type": "function"
    },
    {
      "inputs": [
        {
          "internalType": "address",
          "name": "owner",
          "type": "address"
        },
        {
          "internalType": "address",
          "name": "operator",
          "type": "address"
        }
      ],
      "name": "isApprovedForAll",
      "outputs": [
        {
          "internalType": "bool",
          "name": "",
          "type": "bool"
        }
      ],
      "stateMutability": "view",
      "type": "function"
    },
    {
      "inputs": [],
      "name": "isPublicSaleActive",
      "outputs": [
        {
          "internalType": "bool",
          "name": "",
          "type": "bool"
        }
      ],
      "stateMutability": "view",
      "type": "function"
    },
    {
      "inputs": [],
      "name": "isWhitelistSaleActive",
      "outputs": [
        {
          "internalType": "bool",
          "name": "",
          "type": "bool"
        }
      ],
      "stateMutability": "view",
      "type": "function"
    },
    {
      "inputs": [],
      "name": "listsFinalized",
      "outputs": [
        {
          "internalType": "bool",
          "name": "",
          "type": "bool"
        }
      ],
      "stateMutability": "view",
      "type": "function"
    },
    {
      "inputs": [],
      "name": "metadataFinalized",
      "outputs": [
        {
          "internalType": "bool",
          "name": "",
          "type": "bool"
        }
      ],
      "stateMutability": "view",
      "type": "function"
    },
    {
      "inputs": [
        {
          "internalType": "address",
          "name": "to",
          "type": "address"
        },
        {
          "internalType": "uint256",
          "name": "quantity",
          "type": "uint256"
        }
      ],
      "name": "mint",
      "outputs": [],
      "stateMutability": "nonpayable",
      "type": "function"
    },
    {
      "inputs": [
        {
          "internalType": "uint256",
          "name": "quantity",
          "type": "uint256"
        }
      ],
      "name": "mint",
      "outputs": [],
      "stateMutability": "payable",
      "type": "function"
    },
    {
      "inputs": [],
      "name": "name",
      "outputs": [
        {
          "internalType": "string",
          "name": "",
          "type": "string"
        }
      ],
      "stateMutability": "view",
      "type": "function"
    },
    {
      "inputs": [],
      "name": "owner",
      "outputs": [
        {
          "internalType": "address",
          "name": "",
          "type": "address"
        }
      ],
      "stateMutability": "view",
      "type": "function"
    },
    {
      "inputs": [
        {
          "internalType": "uint256",
          "name": "tokenId",
          "type": "uint256"
        }
      ],
      "name": "ownerOf",
      "outputs": [
        {
          "internalType": "address",
          "name": "",
          "type": "address"
        }
      ],
      "stateMutability": "view",
      "type": "function"
    },
    {
      "inputs": [],
      "name": "publicEnd",
      "outputs": [
        {
          "internalType": "uint256",
          "name": "",
          "type": "uint256"
        }
      ],
      "stateMutability": "view",
      "type": "function"
    },
    {
      "inputs": [],
      "name": "publicLimit",
      "outputs": [
        {
          "internalType": "uint256",
          "name": "",
          "type": "uint256"
        }
      ],
      "stateMutability": "view",
      "type": "function"
    },
    {
      "inputs": [],
      "name": "publicPrice",
      "outputs": [
        {
          "internalType": "uint256",
          "name": "",
          "type": "uint256"
        }
      ],
      "stateMutability": "view",
      "type": "function"
    },
    {
      "inputs": [],
      "name": "publicStart",
      "outputs": [
        {
          "internalType": "uint256",
          "name": "",
          "type": "uint256"
        }
      ],
      "stateMutability": "view",
      "type": "function"
    },
    {
      "inputs": [
        {
          "internalType": "uint256",
          "name": "_collectionSize",
          "type": "uint256"
        }
      ],
      "name": "reduceCollectionSize",
      "outputs": [],
      "stateMutability": "nonpayable",
      "type": "function"
    },
    {
      "inputs": [],
      "name": "renounceOwnership",
      "outputs": [],
      "stateMutability": "nonpayable",
      "type": "function"
    },
    {
      "inputs": [
        {
          "internalType": "bytes32",
          "name": "role",
          "type": "bytes32"
        },
        {
          "internalType": "address",
          "name": "account",
          "type": "address"
        }
      ],
      "name": "renounceRole",
      "outputs": [],
      "stateMutability": "nonpayable",
      "type": "function"
    },
    {
      "inputs": [],
      "name": "revealed",
      "outputs": [
        {
          "internalType": "bool",
          "name": "",
          "type": "bool"
        }
      ],
      "stateMutability": "view",
      "type": "function"
    },
    {
      "inputs": [
        {
          "internalType": "address",
          "name": "addr",
          "type": "address"
        }
      ],
      "name": "revokeAdminRole",
      "outputs": [],
      "stateMutability": "nonpayable",
      "type": "function"
    },
    {
      "inputs": [
        {
          "internalType": "address",
          "name": "addr",
          "type": "address"
        }
      ],
      "name": "revokeModRole",
      "outputs": [],
      "stateMutability": "nonpayable",
      "type": "function"
    },
    {
      "inputs": [
        {
          "internalType": "bytes32",
          "name": "role",
          "type": "bytes32"
        },
        {
          "internalType": "address",
          "name": "account",
          "type": "address"
        }
      ],
      "name": "revokeRole",
      "outputs": [],
      "stateMutability": "nonpayable",
      "type": "function"
    },
    {
      "inputs": [
        {
          "internalType": "address",
          "name": "from",
          "type": "address"
        },
        {
          "internalType": "address",
          "name": "to",
          "type": "address"
        },
        {
          "internalType": "uint256",
          "name": "tokenId",
          "type": "uint256"
        }
      ],
      "name": "safeTransferFrom",
      "outputs": [],
      "stateMutability": "nonpayable",
      "type": "function"
    },
    {
      "inputs": [
        {
          "internalType": "address",
          "name": "from",
          "type": "address"
        },
        {
          "internalType": "address",
          "name": "to",
          "type": "address"
        },
        {
          "internalType": "uint256",
          "name": "tokenId",
          "type": "uint256"
        },
        {
          "internalType": "bytes",
          "name": "_data",
          "type": "bytes"
        }
      ],
      "name": "safeTransferFrom",
      "outputs": [],
      "stateMutability": "nonpayable",
      "type": "function"
    },
    {
      "inputs": [],
      "name": "senderIsAdmin",
      "outputs": [
        {
          "internalType": "bool",
          "name": "",
          "type": "bool"
        }
      ],
      "stateMutability": "view",
      "type": "function"
    },
    {
      "inputs": [],
      "name": "senderIsMod",
      "outputs": [
        {
          "internalType": "bool",
          "name": "",
          "type": "bool"
        }
      ],
      "stateMutability": "view",
      "type": "function"
    },
    {
      "inputs": [
        {
          "internalType": "address",
          "name": "operator",
          "type": "address"
        },
        {
          "internalType": "bool",
          "name": "approved",
          "type": "bool"
        }
      ],
      "name": "setApprovalForAll",
      "outputs": [],
      "stateMutability": "nonpayable",
      "type": "function"
    },
    {
      "inputs": [
        {
          "internalType": "string",
          "name": "baseUri",
          "type": "string"
        }
      ],
      "name": "setBaseURI",
      "outputs": [],
      "stateMutability": "nonpayable",
      "type": "function"
    },
    {
      "inputs": [
        {
          "internalType": "string",
          "name": "tempUri",
          "type": "string"
        }
      ],
      "name": "setPlaceholderURI",
      "outputs": [],
      "stateMutability": "nonpayable",
      "type": "function"
    },
    {
      "inputs": [
        {
          "internalType": "uint256",
          "name": "_publicLimit",
          "type": "uint256"
        }
      ],
      "name": "setPublicLimit",
      "outputs": [],
      "stateMutability": "nonpayable",
      "type": "function"
    },
    {
      "inputs": [
        {
          "internalType": "uint256",
          "name": "_price",
          "type": "uint256"
        }
      ],
      "name": "setPublicPrice",
      "outputs": [],
      "stateMutability": "nonpayable",
      "type": "function"
    },
    {
      "inputs": [
        {
          "internalType": "uint256",
          "name": "_publicStartTime",
          "type": "uint256"
        },
        {
          "internalType": "uint256",
          "name": "_publicEndTime",
          "type": "uint256"
        }
      ],
      "name": "setPublicSaleTimes",
      "outputs": [],
      "stateMutability": "nonpayable",
      "type": "function"
    },
    {
      "inputs": [
        {
          "internalType": "uint256",
          "name": "_whitelistLimit",
          "type": "uint256"
        }
      ],
      "name": "setWhitelistLimit",
      "outputs": [],
      "stateMutability": "nonpayable",
      "type": "function"
    },
    {
      "inputs": [
        {
          "internalType": "bytes32",
          "name": "root",
          "type": "bytes32"
        }
      ],
      "name": "setWhitelistMerkleRoot",
      "outputs": [],
      "stateMutability": "nonpayable",
      "type": "function"
    },
    {
      "inputs": [
        {
          "internalType": "uint256",
          "name": "_price",
          "type": "uint256"
        }
      ],
      "name": "setWhitelistPrice",
      "outputs": [],
      "stateMutability": "nonpayable",
      "type": "function"
    },
    {
      "inputs": [
        {
          "internalType": "uint256",
          "name": "_whitelistStartTime",
          "type": "uint256"
        },
        {
          "internalType": "uint256",
          "name": "_whitelistEndTime",
          "type": "uint256"
        }
      ],
      "name": "setWhitelistTimes",
      "outputs": [],
      "stateMutability": "nonpayable",
      "type": "function"
    },
    {
      "inputs": [
        {
          "internalType": "bytes4",
          "name": "interfaceId",
          "type": "bytes4"
        }
      ],
      "name": "supportsInterface",
      "outputs": [
        {
          "internalType": "bool",
          "name": "",
          "type": "bool"
        }
      ],
      "stateMutability": "view",
      "type": "function"
    },
    {
      "inputs": [],
      "name": "symbol",
      "outputs": [
        {
          "internalType": "string",
          "name": "",
          "type": "string"
        }
      ],
      "stateMutability": "view",
      "type": "function"
    },
    {
      "inputs": [],
      "name": "timesFinalized",
      "outputs": [
        {
          "internalType": "bool",
          "name": "",
          "type": "bool"
        }
      ],
      "stateMutability": "view",
      "type": "function"
    },
    {
      "inputs": [],
      "name": "togglePublic",
      "outputs": [],
      "stateMutability": "nonpayable",
      "type": "function"
    },
    {
      "inputs": [],
      "name": "toggleReveal",
      "outputs": [],
      "stateMutability": "nonpayable",
      "type": "function"
    },
    {
      "inputs": [],
      "name": "toggleWhitelistSale",
      "outputs": [],
      "stateMutability": "nonpayable",
      "type": "function"
    },
    {
      "inputs": [
        {
          "internalType": "uint256",
          "name": "id",
          "type": "uint256"
        }
      ],
      "name": "tokenURI",
      "outputs": [
        {
          "internalType": "string",
          "name": "",
          "type": "string"
        }
      ],
      "stateMutability": "view",
      "type": "function"
    },
    {
      "inputs": [],
      "name": "totalSupply",
      "outputs": [
        {
          "internalType": "uint256",
          "name": "",
          "type": "uint256"
        }
      ],
      "stateMutability": "view",
      "type": "function"
    },
    {
      "inputs": [
        {
          "internalType": "address",
          "name": "from",
          "type": "address"
        },
        {
          "internalType": "address",
          "name": "to",
          "type": "address"
        },
        {
          "internalType": "uint256",
          "name": "tokenId",
          "type": "uint256"
        }
      ],
      "name": "transferFrom",
      "outputs": [],
      "stateMutability": "nonpayable",
      "type": "function"
    },
    {
      "inputs": [
        {
          "internalType": "address",
          "name": "newOwner",
          "type": "address"
        }
      ],
      "name": "transferOwnership",
      "outputs": [],
      "stateMutability": "nonpayable",
      "type": "function"
    },
    {
      "inputs": [
        {
          "internalType": "bytes32[]",
          "name": "_merkleProof",
          "type": "bytes32[]"
        },
        {
          "internalType": "address",
          "name": "addr",
          "type": "address"
        }
      ],
      "name": "verifyWhitelist",
      "outputs": [
        {
          "internalType": "bool",
          "name": "",
          "type": "bool"
        }
      ],
      "stateMutability": "view",
      "type": "function"
    },
    {
      "inputs": [],
      "name": "whitelistEnd",
      "outputs": [
        {
          "internalType": "uint256",
          "name": "",
          "type": "uint256"
        }
      ],
      "stateMutability": "view",
      "type": "function"
    },
    {
      "inputs": [],
      "name": "whitelistLimit",
      "outputs": [
        {
          "internalType": "uint256",
          "name": "",
          "type": "uint256"
        }
      ],
      "stateMutability": "view",
      "type": "function"
    },
    {
      "inputs": [],
      "name": "whitelistMerkleRoot",
      "outputs": [
        {
          "internalType": "bytes32",
          "name": "",
          "type": "bytes32"
        }
      ],
      "stateMutability": "view",
      "type": "function"
    },
    {
      "inputs": [
        {
          "internalType": "bytes32[]",
          "name": "_merkleProof",
          "type": "bytes32[]"
        },
        {
          "internalType": "uint256",
          "name": "quantity",
          "type": "uint256"
        }
      ],
      "name": "whitelistMint",
      "outputs": [],
      "stateMutability": "payable",
      "type": "function"
    },
    {
      "inputs": [],
      "name": "whitelistPrice",
      "outputs": [
        {
          "internalType": "uint256",
          "name": "",
          "type": "uint256"
        }
      ],
      "stateMutability": "view",
      "type": "function"
    },
    {
      "inputs": [],
      "name": "whitelistStart",
      "outputs": [
        {
          "internalType": "uint256",
          "name": "",
          "type": "uint256"
        }
      ],
      "stateMutability": "view",
      "type": "function"
    },
    {
      "inputs": [],
      "name": "withdraw",
      "outputs": [],
      "stateMutability": "nonpayable",
      "type": "function"
    }
  ],
  "bytecode": "0x60a06040527fa49807205ce4d355092ef5a8a18f56e8913cf4a201fbe287825b095693c217756009557f950b8f2d7415defaee398bb4898e8e094a64c725873b81952b7ab9f08d70efb3600a556000600f60006101000a81548160ff0219169083151502179055506000600f60016101000a81548160ff0219169083151502179055506000600f60026101000a81548160ff0219169083151502179055506000600f60036101000a81548160ff0219169083151502179055506000600f60046101000a81548160ff0219169083151502179055506000600f60056101000a81548160ff0219169083151502179055506000600f60066101000a81548160ff0219169083151502179055506103e86010556003601155601460125566f8b0a10e47000060135567016345785d8a00006014553480156200013d57600080fd5b50604051620069af380380620069af83398181016040528101906200016391906200082c565b8282826040518060400160405280600b81526020017f54656d706c6174654e46540000000000000000000000000000000000000000008152506040518060400160405280600381526020017f54465400000000000000000000000000000000000000000000000000000000008152508160029080519060200190620001ea9291906200053f565b508060039080519060200190620002039291906200053f565b5050508273ffffffffffffffffffffffffffffffffffffffff1660808173ffffffffffffffffffffffffffffffffffffffff168152505081600b8190555080600e9080519060200190620002599291906200053f565b50610708426200026a9190620008e0565b601581905550613840601554620002829190620008e0565b601681905550601654601781905550613840601754620002a39190620008e0565b601881905550620002be6000801b33620002fe60201b60201c565b620002d260095433620002fe60201b60201c565b505050620002f5620002e96200031460201b60201c565b6200031c60201b60201c565b505050620009a1565b620003108282620003e260201b60201c565b5050565b600033905090565b6000601960009054906101000a900473ffffffffffffffffffffffffffffffffffffffff16905081601960006101000a81548173ffffffffffffffffffffffffffffffffffffffff021916908373ffffffffffffffffffffffffffffffffffffffff1602179055508173ffffffffffffffffffffffffffffffffffffffff168173ffffffffffffffffffffffffffffffffffffffff167f8be0079c531659141344cd1fd0a4f28419497f9722a3daafe3b4186f6b6457e060405160405180910390a35050565b620003f48282620004d460201b60201c565b620004d05760016008600084815260200190815260200160002060000160008373ffffffffffffffffffffffffffffffffffffffff1673ffffffffffffffffffffffffffffffffffffffff16815260200190815260200160002060006101000a81548160ff021916908315150217905550620004756200031460201b60201c565b73ffffffffffffffffffffffffffffffffffffffff168173ffffffffffffffffffffffffffffffffffffffff16837f2f8788117e7eff1d82e926ec794901d17c78024a50270940304540a733656f0d60405160405180910390a45b5050565b60006008600084815260200190815260200160002060000160008373ffffffffffffffffffffffffffffffffffffffff1673ffffffffffffffffffffffffffffffffffffffff16815260200190815260200160002060009054906101000a900460ff16905092915050565b8280546200054d906200096c565b90600052602060002090601f016020900481019282620005715760008555620005bd565b82601f106200058c57805160ff1916838001178555620005bd565b82800160010185558215620005bd579182015b82811115620005bc5782518255916020019190600101906200059f565b5b509050620005cc9190620005d0565b5090565b5b80821115620005eb576000816000905550600101620005d1565b5090565b6000604051905090565b600080fd5b600080fd5b600073ffffffffffffffffffffffffffffffffffffffff82169050919050565b6000620006308262000603565b9050919050565b620006428162000623565b81146200064e57600080fd5b50565b600081519050620006628162000637565b92915050565b6000819050919050565b6200067d8162000668565b81146200068957600080fd5b50565b6000815190506200069d8162000672565b92915050565b600080fd5b600080fd5b6000601f19601f8301169050919050565b7f4e487b7100000000000000000000000000000000000000000000000000000000600052604160045260246000fd5b620006f882620006ad565b810181811067ffffffffffffffff821117156200071a5762000719620006be565b5b80604052505050565b60006200072f620005ef565b90506200073d8282620006ed565b919050565b600067ffffffffffffffff82111562000760576200075f620006be565b5b6200076b82620006ad565b9050602081019050919050565b60005b83811015620007985780820151818401526020810190506200077b565b83811115620007a8576000848401525b50505050565b6000620007c5620007bf8462000742565b62000723565b905082815260208101848484011115620007e457620007e3620006a8565b5b620007f184828562000778565b509392505050565b600082601f830112620008115762000810620006a3565b5b815162000823848260208601620007ae565b91505092915050565b600080600060608486031215620008485762000847620005f9565b5b6000620008588682870162000651565b93505060206200086b868287016200068c565b925050604084015167ffffffffffffffff8111156200088f576200088e620005fe565b5b6200089d86828701620007f9565b9150509250925092565b6000819050919050565b7f4e487b7100000000000000000000000000000000000000000000000000000000600052601160045260246000fd5b6000620008ed82620008a7565b9150620008fa83620008a7565b9250827fffffffffffffffffffffffffffffffffffffffffffffffffffffffffffffffff03821115620009325762000931620008b1565b5b828201905092915050565b7f4e487b7100000000000000000000000000000000000000000000000000000000600052602260045260246000fd5b600060028204905060018216806200098557607f821691505b6020821081036200099b576200099a6200093d565b5b50919050565b608051615ff2620009bd600039600061176f0152615ff26000f3fe6080604052600436106104105760003560e01c80638da5cb5b1161021e578063aa98e0c611610123578063d2521ae8116100ab578063e985e9c51161007a578063e985e9c514610ee3578063f2fde38b14610f20578063f4a560a514610f49578063f96c678c14610f60578063fc1a1c3614610f8957610410565b8063d2521ae814610e4f578063d4dd7b8114610e78578063d547741f14610e8f578063e932406f14610eb857610410565b8063bfb6e0e7116100f2578063bfb6e0e714610d6a578063c627525514610d95578063c634b78e14610dbe578063c87b56dd14610de7578063cf9f8e2114610e2457610410565b8063aa98e0c614610cc2578063b88d4fde14610ced578063b98451cf14610d16578063bd32fb6614610d4157610410565b80639a19c7b0116101a6578063a22cb46511610175578063a22cb46514610bed578063a4331d2d14610c16578063a5f4c6ff14610c41578063a784476214610c6c578063a945bf8014610c9757610410565b80639a19c7b014610b54578063a0712d6814610b7d578063a1afe16814610b99578063a217fddf14610bc257610410565b8063955e16af116101ed578063955e16af14610a9357806395d89b4114610abc578063981d877114610ae7578063994d396914610afe57806399c9c36d14610b2957610410565b80638da5cb5b146109d75780638fd8aa9f14610a025780639194370814610a2b57806391d1485414610a5657610410565b80633574a2dd1161032457806359eda1b5116102ac57806370a082311161027b57806370a0823114610906578063715018a614610943578063717d57d31461095a57806375b238fc146109835780638ba4cc3c146109ae57610410565b806359eda1b5146108705780635b8ad42914610887578063621d388c1461089e5780636352211e146108c957610410565b806342842e0e116102f357806342842e0e146107b157806345c0f533146107da578063518302271461080557806355f804b31461083057806356f07a3e1461085957610410565b80633574a2dd1461071f57806336568abe146107485780633ccfd60b1461077157806340c10f191461078857610410565b80631e84c413116103a75780632904e6d9116103765780632904e6d91461065b5780632f2ff15d14610677578063302150e5146106a0578063305ac367146106cb57806333289b52146106f657610410565b80631e84c413146105a157806323637617146105cc57806323b872dd146105f5578063248a9ca31461061e57610410565b80630acae9a7116103e35780630acae9a7146104e357806318160ddd1461050e57806318ff357e1461053957806319cc02aa1461057657610410565b806301ffc9a71461041557806306fdde0314610452578063081812fc1461047d578063095ea7b3146104ba575b600080fd5b34801561042157600080fd5b5061043c600480360381019061043791906147b4565b610fb4565b60405161044991906147fc565b60405180910390f35b34801561045e57600080fd5b50610467610fc6565b60405161047491906148b0565b60405180910390f35b34801561048957600080fd5b506104a4600480360381019061049f9190614908565b611058565b6040516104b19190614976565b60405180910390f35b3480156104c657600080fd5b506104e160048036038101906104dc91906149bd565b6110d4565b005b3480156104ef57600080fd5b506104f86111de565b6040516105059190614a0c565b60405180910390f35b34801561051a57600080fd5b506105236111e4565b6040516105309190614a0c565b60405180910390f35b34801561054557600080fd5b50610560600480360381019061055b9190614a8c565b6111f2565b60405161056d91906147fc565b60405180910390f35b34801561058257600080fd5b5061058b61120b565b60405161059891906147fc565b60405180910390f35b3480156105ad57600080fd5b506105b661121e565b6040516105c391906147fc565b60405180910390f35b3480156105d857600080fd5b506105f360048036038101906105ee9190614908565b611256565b005b34801561060157600080fd5b5061061c60048036038101906106179190614aec565b6112bf565b005b34801561062a57600080fd5b5061064560048036038101906106409190614b75565b6112cf565b6040516106529190614bb1565b60405180910390f35b61067560048036038101906106709190614bcc565b6112ef565b005b34801561068357600080fd5b5061069e60048036038101906106999190614c2c565b611521565b005b3480156106ac57600080fd5b506106b561154a565b6040516106c29190614a0c565b60405180910390f35b3480156106d757600080fd5b506106e0611550565b6040516106ed91906147fc565b60405180910390f35b34801561070257600080fd5b5061071d60048036038101906107189190614c6c565b611563565b005b34801561072b57600080fd5b5061074660048036038101906107419190614dc9565b6115d1565b005b34801561075457600080fd5b5061076f600480360381019061076a9190614c2c565b6116a0565b005b34801561077d57600080fd5b50610786611723565b005b34801561079457600080fd5b506107af60048036038101906107aa91906149bd565b61183b565b005b3480156107bd57600080fd5b506107d860048036038101906107d39190614aec565b6118c5565b005b3480156107e657600080fd5b506107ef6118e5565b6040516107fc9190614a0c565b60405180910390f35b34801561081157600080fd5b5061081a6118eb565b60405161082791906147fc565b60405180910390f35b34801561083c57600080fd5b5061085760048036038101906108529190614dc9565b6118fe565b005b34801561086557600080fd5b5061086e6119cd565b005b34801561087c57600080fd5b50610885611a9f565b005b34801561089357600080fd5b5061089c611b80565b005b3480156108aa57600080fd5b506108b3611c61565b6040516108c091906147fc565b60405180910390f35b3480156108d557600080fd5b506108f060048036038101906108eb9190614908565b611c88565b6040516108fd9190614976565b60405180910390f35b34801561091257600080fd5b5061092d60048036038101906109289190614c6c565b611c9e565b60405161093a9190614a0c565b60405180910390f35b34801561094f57600080fd5b50610958611d6d565b005b34801561096657600080fd5b50610981600480360381019061097c9190614908565b611df5565b005b34801561098f57600080fd5b50610998611e5e565b6040516109a59190614bb1565b60405180910390f35b3480156109ba57600080fd5b506109d560048036038101906109d091906149bd565b611e64565b005b3480156109e357600080fd5b506109ec611f86565b6040516109f99190614976565b60405180910390f35b348015610a0e57600080fd5b50610a296004803603810190610a249190614908565b611fb0565b005b348015610a3757600080fd5b50610a406120a7565b604051610a4d91906147fc565b60405180910390f35b348015610a6257600080fd5b50610a7d6004803603810190610a789190614c2c565b6120ba565b604051610a8a91906147fc565b60405180910390f35b348015610a9f57600080fd5b50610aba6004803603810190610ab59190614e12565b612125565b005b348015610ac857600080fd5b50610ad16121ec565b604051610ade91906148b0565b60405180910390f35b348015610af357600080fd5b50610afc61227e565b005b348015610b0a57600080fd5b50610b1361235f565b604051610b209190614a0c565b60405180910390f35b348015610b3557600080fd5b50610b3e612365565b604051610b4b9190614a0c565b60405180910390f35b348015610b6057600080fd5b50610b7b6004803603810190610b769190614c6c565b61236a565b005b610b976004803603810190610b929190614908565b61238f565b005b348015610ba557600080fd5b50610bc06004803603810190610bbb9190614e12565b6124d5565b005b348015610bce57600080fd5b50610bd761259c565b604051610be49190614bb1565b60405180910390f35b348015610bf957600080fd5b50610c146004803603810190610c0f9190614e7e565b6125a3565b005b348015610c2257600080fd5b50610c2b61271a565b604051610c389190614a0c565b60405180910390f35b348015610c4d57600080fd5b50610c56612720565b604051610c639190614a0c565b60405180910390f35b348015610c7857600080fd5b50610c81612726565b604051610c8e91906147fc565b60405180910390f35b348015610ca357600080fd5b50610cac612739565b604051610cb99190614a0c565b60405180910390f35b348015610cce57600080fd5b50610cd761273f565b604051610ce49190614bb1565b60405180910390f35b348015610cf957600080fd5b50610d146004803603810190610d0f9190614f5f565b612745565b005b348015610d2257600080fd5b50610d2b612798565b604051610d3891906147fc565b60405180910390f35b348015610d4d57600080fd5b50610d686004803603810190610d639190614b75565b6127d0565b005b348015610d7657600080fd5b50610d7f61288f565b604051610d8c9190614a0c565b60405180910390f35b348015610da157600080fd5b50610dbc6004803603810190610db79190614908565b612895565b005b348015610dca57600080fd5b50610de56004803603810190610de09190614c6c565b6128fe565b005b348015610df357600080fd5b50610e0e6004803603810190610e099190614908565b612923565b604051610e1b91906148b0565b60405180910390f35b348015610e3057600080fd5b50610e39612a4a565b604051610e4691906147fc565b60405180910390f35b348015610e5b57600080fd5b50610e766004803603810190610e719190614908565b612a5d565b005b348015610e8457600080fd5b50610e8d612ac6565b005b348015610e9b57600080fd5b50610eb66004803603810190610eb19190614c2c565b612b98565b005b348015610ec457600080fd5b50610ecd612bc1565b604051610eda9190614bb1565b60405180910390f35b348015610eef57600080fd5b50610f0a6004803603810190610f059190614fe2565b612bc7565b604051610f1791906147fc565b60405180910390f35b348015610f2c57600080fd5b50610f476004803603810190610f429190614c6c565b612c5b565b005b348015610f5557600080fd5b50610f5e612d52565b005b348015610f6c57600080fd5b50610f876004803603810190610f829190614c6c565b612e24565b005b348015610f9557600080fd5b50610f9e612e92565b604051610fab9190614a0c565b60405180910390f35b6000610fbf82612e98565b9050919050565b606060028054610fd590615051565b80601f016020809104026020016040519081016040528092919081815260200182805461100190615051565b801561104e5780601f106110235761010080835404028352916020019161104e565b820191906000526020600020905b81548152906001019060200180831161103157829003601f168201915b5050505050905090565b600061106382612f12565b611099576040517fcf4700e400000000000000000000000000000000000000000000000000000000815260040160405180910390fd5b6006600083815260200190815260200160002060009054906101000a900473ffffffffffffffffffffffffffffffffffffffff169050919050565b60006110df82611c88565b90508073ffffffffffffffffffffffffffffffffffffffff168373ffffffffffffffffffffffffffffffffffffffff1603611146576040517f943f7b8c00000000000000000000000000000000000000000000000000000000815260040160405180910390fd5b8073ffffffffffffffffffffffffffffffffffffffff16611165612f4c565b73ffffffffffffffffffffffffffffffffffffffff1614158015611197575061119581611190612f4c565b612bc7565b155b156111ce576040517fcfb3b94200000000000000000000000000000000000000000000000000000000815260040160405180910390fd5b6111d9838383612f54565b505050565b60185481565b600060015460005403905090565b60006112028484600b5485613006565b90509392505050565b600f60039054906101000a900460ff1681565b6000600f60069054906101000a900460ff161561123e5760019050611253565b60175442118015611250575060185442105b90505b90565b6112636000801b336120ba565b806112765750611275600954336120ba565b5b6112b5576040517f08c379a00000000000000000000000000000000000000000000000000000000081526004016112ac906150ce565b60405180910390fd5b8060128190555050565b6112ca83838361308b565b505050565b600060086000838152602001908152602001600020600101549050919050565b6112f7612798565b611336576040517f08c379a000000000000000000000000000000000000000000000000000000000815260040161132d9061513a565b60405180910390fd5b6113418383336111f2565b611380576040517f08c379a0000000000000000000000000000000000000000000000000000000008152600401611377906151a6565b60405180910390fd5b6010548161138c6111e4565b61139691906151f5565b11156113d7576040517f08c379a00000000000000000000000000000000000000000000000000000000081526004016113ce90615297565b60405180910390fd5b60115481600c60003373ffffffffffffffffffffffffffffffffffffffff1673ffffffffffffffffffffffffffffffffffffffff1681526020019081526020016000205461142591906151f5565b1115611466576040517f08c379a000000000000000000000000000000000000000000000000000000000815260040161145d90615303565b60405180910390fd5b6000601354826114769190615323565b9050803410156114bb576040517f08c379a00000000000000000000000000000000000000000000000000000000081526004016114b2906153c9565b60405180910390fd5b81600c60003373ffffffffffffffffffffffffffffffffffffffff1673ffffffffffffffffffffffffffffffffffffffff168152602001908152602001600020600082825461150a91906151f5565b9250508190555061151b338361357a565b50505050565b61152a826112cf565b61153b81611536612f4c565b613598565b6115458383613635565b505050565b60115481565b600f60009054906101000a900460ff1681565b6115706000801b336120ba565b806115835750611582600954336120ba565b5b6115c2576040517f08c379a00000000000000000000000000000000000000000000000000000000081526004016115b9906150ce565b60405180910390fd5b6115ce600a5482613716565b50565b6115de6000801b336120ba565b806115f157506115f0600954336120ba565b5b611630576040517f08c379a0000000000000000000000000000000000000000000000000000000008152600401611627906150ce565b60405180910390fd5b60001515600f60019054906101000a900460ff16151514611686576040517f08c379a000000000000000000000000000000000000000000000000000000000815260040161167d90615435565b60405180910390fd5b80600e908051906020019061169c929190614662565b5050565b6116a8612f4c565b73ffffffffffffffffffffffffffffffffffffffff168173ffffffffffffffffffffffffffffffffffffffff1614611715576040517f08c379a000000000000000000000000000000000000000000000000000000000815260040161170c906154c7565b60405180910390fd5b61171f8282613716565b5050565b60004790506000811161176b576040517f08c379a000000000000000000000000000000000000000000000000000000000815260040161176290615533565b60405180910390fd5b60007f000000000000000000000000000000000000000000000000000000000000000073ffffffffffffffffffffffffffffffffffffffff16826040516117b190615584565b60006040518083038185875af1925050503d80600081146117ee576040519150601f19603f3d011682016040523d82523d6000602084013e6117f3565b606091505b5050905080611837576040517f08c379a000000000000000000000000000000000000000000000000000000000815260040161182e906155e5565b60405180910390fd5b5050565b611843612f4c565b73ffffffffffffffffffffffffffffffffffffffff16611861611f86565b73ffffffffffffffffffffffffffffffffffffffff16146118b7576040517f08c379a00000000000000000000000000000000000000000000000000000000081526004016118ae90615651565b60405180910390fd5b6118c1828261357a565b5050565b6118e083838360405180602001604052806000815250612745565b505050565b60105481565b600f60049054906101000a900460ff1681565b61190b6000801b336120ba565b8061191e575061191d600954336120ba565b5b61195d576040517f08c379a0000000000000000000000000000000000000000000000000000000008152600401611954906150ce565b60405180910390fd5b60001515600f60019054906101000a900460ff161515146119b3576040517f08c379a00000000000000000000000000000000000000000000000000000000081526004016119aa90615435565b60405180910390fd5b80600d90805190602001906119c9929190614662565b5050565b6119da6000801b336120ba565b806119ed57506119ec600954336120ba565b5b611a2c576040517f08c379a0000000000000000000000000000000000000000000000000000000008152600401611a23906150ce565b60405180910390fd5b60001515600f60029054906101000a900460ff16151514611a82576040517f08c379a0000000000000000000000000000000000000000000000000000000008152600401611a79906156bd565b60405180910390fd5b6001600f60026101000a81548160ff021916908315150217905550565b611aac6000801b336120ba565b80611abf5750611abe600954336120ba565b5b611afe576040517f08c379a0000000000000000000000000000000000000000000000000000000008152600401611af5906150ce565b60405180910390fd5b60001515600f60029054906101000a900460ff16151514611b54576040517f08c379a0000000000000000000000000000000000000000000000000000000008152600401611b4b906156bd565b60405180910390fd5b600f60059054906101000a900460ff1615600f60056101000a81548160ff021916908315150217905550565b611b8d6000801b336120ba565b80611ba05750611b9f600954336120ba565b5b611bdf576040517f08c379a0000000000000000000000000000000000000000000000000000000008152600401611bd6906150ce565b60405180910390fd5b60001515600f60019054906101000a900460ff16151514611c35576040517f08c379a0000000000000000000000000000000000000000000000000000000008152600401611c2c90615435565b60405180910390fd5b600f60049054906101000a900460ff1615600f60046101000a81548160ff021916908315150217905550565b6000611c6f600954336120ba565b80611c835750611c826000801b336120ba565b5b905090565b6000611c93826137f8565b600001519050919050565b60008073ffffffffffffffffffffffffffffffffffffffff168273ffffffffffffffffffffffffffffffffffffffff1603611d05576040517f8f4eb60400000000000000000000000000000000000000000000000000000000815260040160405180910390fd5b600560008373ffffffffffffffffffffffffffffffffffffffff1673ffffffffffffffffffffffffffffffffffffffff16815260200190815260200160002060000160009054906101000a900467ffffffffffffffff1667ffffffffffffffff169050919050565b611d75612f4c565b73ffffffffffffffffffffffffffffffffffffffff16611d93611f86565b73ffffffffffffffffffffffffffffffffffffffff1614611de9576040517f08c379a0000000000000000000000000000000000000000000000000000000008152600401611de090615651565b60405180910390fd5b611df36000613a74565b565b611e026000801b336120ba565b80611e155750611e14600954336120ba565b5b611e54576040517f08c379a0000000000000000000000000000000000000000000000000000000008152600401611e4b906150ce565b60405180910390fd5b8060138190555050565b60095481565b611e716000801b336120ba565b80611e845750611e83600954336120ba565b5b611ec3576040517f08c379a0000000000000000000000000000000000000000000000000000000008152600401611eba906150ce565b60405180910390fd5b60001515600f60039054906101000a900460ff16151514611f19576040517f08c379a0000000000000000000000000000000000000000000000000000000008152600401611f1090615729565b60405180910390fd5b6064811115611f5d576040517f08c379a0000000000000000000000000000000000000000000000000000000008152600401611f5490615795565b60405180910390fd5b6001600f60036101000a81548160ff021916908315150217905550611f82828261357a565b5050565b6000601960009054906101000a900473ffffffffffffffffffffffffffffffffffffffff16905090565b611fbd6000801b336120ba565b80611fd05750611fcf600954336120ba565b5b61200f576040517f08c379a0000000000000000000000000000000000000000000000000000000008152600401612006906150ce565b60405180910390fd5b6010548110612053576040517f08c379a000000000000000000000000000000000000000000000000000000000815260040161204a90615801565b60405180910390fd5b61205b6111e4565b81101561209d576040517f08c379a00000000000000000000000000000000000000000000000000000000081526004016120949061586d565b60405180910390fd5b8060108190555050565b600f60019054906101000a900460ff1681565b60006008600084815260200190815260200160002060000160008373ffffffffffffffffffffffffffffffffffffffff1673ffffffffffffffffffffffffffffffffffffffff16815260200190815260200160002060009054906101000a900460ff16905092915050565b6121326000801b336120ba565b806121455750612144600954336120ba565b5b612184576040517f08c379a000000000000000000000000000000000000000000000000000000000815260040161217b906150ce565b60405180910390fd5b60001515600f60029054906101000a900460ff161515146121da576040517f08c379a00000000000000000000000000000000000000000000000000000000081526004016121d1906156bd565b60405180910390fd5b81601781905550806018819055505050565b6060600380546121fb90615051565b80601f016020809104026020016040519081016040528092919081815260200182805461222790615051565b80156122745780601f1061224957610100808354040283529160200191612274565b820191906000526020600020905b81548152906001019060200180831161225757829003601f168201915b5050505050905090565b61228b6000801b336120ba565b8061229e575061229d600954336120ba565b5b6122dd576040517f08c379a00000000000000000000000000000000000000000000000000000000081526004016122d4906150ce565b60405180910390fd5b60001515600f60029054906101000a900460ff16151514612333576040517f08c379a000000000000000000000000000000000000000000000000000000000815260040161232a906156bd565b60405180910390fd5b600f60069054906101000a900460ff1615600f60066101000a81548160ff021916908315150217905550565b60155481565b606481565b6000801b61237f8161237a612f4c565b613598565b61238b60095483613716565b5050565b61239761121e565b6123d6576040517f08c379a00000000000000000000000000000000000000000000000000000000081526004016123cd906158d9565b60405180910390fd5b60125481111561241b576040517f08c379a000000000000000000000000000000000000000000000000000000000815260040161241290615945565b60405180910390fd5b601054816124276111e4565b61243191906151f5565b1115612472576040517f08c379a000000000000000000000000000000000000000000000000000000000815260040161246990615297565b60405180910390fd5b6000601454826124829190615323565b9050803410156124c7576040517f08c379a00000000000000000000000000000000000000000000000000000000081526004016124be906153c9565b60405180910390fd5b6124d1338361357a565b5050565b6124e26000801b336120ba565b806124f557506124f4600954336120ba565b5b612534576040517f08c379a000000000000000000000000000000000000000000000000000000000815260040161252b906150ce565b60405180910390fd5b60001515600f60029054906101000a900460ff1615151461258a576040517f08c379a0000000000000000000000000000000000000000000000000000000008152600401612581906156bd565b60405180910390fd5b81601581905550806016819055505050565b6000801b81565b6125ab612f4c565b73ffffffffffffffffffffffffffffffffffffffff168273ffffffffffffffffffffffffffffffffffffffff160361260f576040517fb06307db00000000000000000000000000000000000000000000000000000000815260040160405180910390fd5b806007600061261c612f4c565b73ffffffffffffffffffffffffffffffffffffffff1673ffffffffffffffffffffffffffffffffffffffff16815260200190815260200160002060008473ffffffffffffffffffffffffffffffffffffffff1673ffffffffffffffffffffffffffffffffffffffff16815260200190815260200160002060006101000a81548160ff0219169083151502179055508173ffffffffffffffffffffffffffffffffffffffff166126c9612f4c565b73ffffffffffffffffffffffffffffffffffffffff167f17307eab39ab6107e8899845ad3d59bd9653f200f220920489ca2b5937696c318360405161270e91906147fc565b60405180910390a35050565b60125481565b60175481565b6000612734600a54336120ba565b905090565b60145481565b600b5481565b61275084848461308b565b61275c84848484613b3a565b612792576040517fd1a57ed600000000000000000000000000000000000000000000000000000000815260040160405180910390fd5b50505050565b6000600f60059054906101000a900460ff16156127b857600190506127cd565b601554421180156127ca575060165442105b90505b90565b6127dd6000801b336120ba565b806127f057506127ef600954336120ba565b5b61282f576040517f08c379a0000000000000000000000000000000000000000000000000000000008152600401612826906150ce565b60405180910390fd5b60001515600f60009054906101000a900460ff16151514612885576040517f08c379a000000000000000000000000000000000000000000000000000000000815260040161287c906159b1565b60405180910390fd5b80600b8190555050565b60165481565b6128a26000801b336120ba565b806128b557506128b4600954336120ba565b5b6128f4576040517f08c379a00000000000000000000000000000000000000000000000000000000081526004016128eb906150ce565b60405180910390fd5b8060148190555050565b6000801b6129138161290e612f4c565b613598565b61291f60095483613635565b5050565b606061292e82612f12565b61296d576040517f08c379a000000000000000000000000000000000000000000000000000000000815260040161296490615a1d565b60405180910390fd5b600f60049054906101000a900460ff16612a1157600e805461298e90615051565b80601f01602080910402602001604051908101604052809291908181526020018280546129ba90615051565b8015612a075780601f106129dc57610100808354040283529160200191612a07565b820191906000526020600020905b8154815290600101906020018083116129ea57829003601f168201915b5050505050612a43565b612a19613cb8565b612a2283613d4a565b604051602001612a33929190615ac5565b6040516020818303038152906040525b9050919050565b600f60029054906101000a900460ff1681565b612a6a6000801b336120ba565b80612a7d5750612a7c600954336120ba565b5b612abc576040517f08c379a0000000000000000000000000000000000000000000000000000000008152600401612ab3906150ce565b60405180910390fd5b8060118190555050565b612ad36000801b336120ba565b80612ae65750612ae5600954336120ba565b5b612b25576040517f08c379a0000000000000000000000000000000000000000000000000000000008152600401612b1c906150ce565b60405180910390fd5b60001515600f60009054906101000a900460ff16151514612b7b576040517f08c379a0000000000000000000000000000000000000000000000000000000008152600401612b72906159b1565b60405180910390fd5b6001600f60006101000a81548160ff021916908315150217905550565b612ba1826112cf565b612bb281612bad612f4c565b613598565b612bbc8383613716565b505050565b600a5481565b6000600760008473ffffffffffffffffffffffffffffffffffffffff1673ffffffffffffffffffffffffffffffffffffffff16815260200190815260200160002060008373ffffffffffffffffffffffffffffffffffffffff1673ffffffffffffffffffffffffffffffffffffffff16815260200190815260200160002060009054906101000a900460ff16905092915050565b612c63612f4c565b73ffffffffffffffffffffffffffffffffffffffff16612c81611f86565b73ffffffffffffffffffffffffffffffffffffffff1614612cd7576040517f08c379a0000000000000000000000000000000000000000000000000000000008152600401612cce90615651565b60405180910390fd5b600073ffffffffffffffffffffffffffffffffffffffff168173ffffffffffffffffffffffffffffffffffffffff1603612d46576040517f08c379a0000000000000000000000000000000000000000000000000000000008152600401612d3d90615b66565b60405180910390fd5b612d4f81613a74565b50565b612d5f6000801b336120ba565b80612d725750612d71600954336120ba565b5b612db1576040517f08c379a0000000000000000000000000000000000000000000000000000000008152600401612da8906150ce565b60405180910390fd5b60001515600f60019054906101000a900460ff16151514612e07576040517f08c379a0000000000000000000000000000000000000000000000000000000008152600401612dfe90615435565b60405180910390fd5b6001600f60016101000a81548160ff021916908315150217905550565b612e316000801b336120ba565b80612e445750612e43600954336120ba565b5b612e83576040517f08c379a0000000000000000000000000000000000000000000000000000000008152600401612e7a906150ce565b60405180910390fd5b612e8f600a5482613635565b50565b60135481565b60007f7965db0b000000000000000000000000000000000000000000000000000000007bffffffffffffffffffffffffffffffffffffffffffffffffffffffff1916827bffffffffffffffffffffffffffffffffffffffffffffffffffffffff19161480612f0b5750612f0a82613eaa565b5b9050919050565b6000805482108015612f45575060046000838152602001908152602001600020600001601c9054906101000a900460ff16155b9050919050565b600033905090565b826006600084815260200190815260200160002060006101000a81548173ffffffffffffffffffffffffffffffffffffffff021916908373ffffffffffffffffffffffffffffffffffffffff160217905550818373ffffffffffffffffffffffffffffffffffffffff168273ffffffffffffffffffffffffffffffffffffffff167f8c5be1e5ebec7d5bd14f71427d1e84f3dd0314c0f7b2291e5b200ac8c7c3b92560405160405180910390a4505050565b60006001151561307e868680806020026020016040519081016040528093929190818152602001838360200280828437600081840152601f19601f8201169050808301925050505050505085856040516020016130639190615bce565b60405160208183030381529060405280519060200120613f8c565b1515149050949350505050565b6000613096826137f8565b90506000816000015173ffffffffffffffffffffffffffffffffffffffff166130bd612f4c565b73ffffffffffffffffffffffffffffffffffffffff1614806130f057506130ef82600001516130ea612f4c565b612bc7565b5b8061313557506130fe612f4c565b73ffffffffffffffffffffffffffffffffffffffff1661311d84611058565b73ffffffffffffffffffffffffffffffffffffffff16145b90508061316e576040517f59c896be00000000000000000000000000000000000000000000000000000000815260040160405180910390fd5b8473ffffffffffffffffffffffffffffffffffffffff16826000015173ffffffffffffffffffffffffffffffffffffffff16146131d7576040517fa114810000000000000000000000000000000000000000000000000000000000815260040160405180910390fd5b600073ffffffffffffffffffffffffffffffffffffffff168473ffffffffffffffffffffffffffffffffffffffff160361323d576040517fea553b3400000000000000000000000000000000000000000000000000000000815260040160405180910390fd5b61324a8585856001613fa3565b61325a6000848460000151612f54565b6001600560008773ffffffffffffffffffffffffffffffffffffffff1673ffffffffffffffffffffffffffffffffffffffff16815260200190815260200160002060000160008282829054906101000a900467ffffffffffffffff160392506101000a81548167ffffffffffffffff021916908367ffffffffffffffff1602179055506001600560008673ffffffffffffffffffffffffffffffffffffffff1673ffffffffffffffffffffffffffffffffffffffff16815260200190815260200160002060000160008282829054906101000a900467ffffffffffffffff160192506101000a81548167ffffffffffffffff021916908367ffffffffffffffff160217905550836004600085815260200190815260200160002060000160006101000a81548173ffffffffffffffffffffffffffffffffffffffff021916908373ffffffffffffffffffffffffffffffffffffffff160217905550426004600085815260200190815260200160002060000160146101000a81548167ffffffffffffffff021916908367ffffffffffffffff1602179055506000600184019050600073ffffffffffffffffffffffffffffffffffffffff166004600083815260200190815260200160002060000160009054906101000a900473ffffffffffffffffffffffffffffffffffffffff1673ffffffffffffffffffffffffffffffffffffffff160361350a576000548110156135095782600001516004600083815260200190815260200160002060000160006101000a81548173ffffffffffffffffffffffffffffffffffffffff021916908373ffffffffffffffffffffffffffffffffffffffff16021790555082602001516004600083815260200190815260200160002060000160146101000a81548167ffffffffffffffff021916908367ffffffffffffffff1602179055505b5b50828473ffffffffffffffffffffffffffffffffffffffff168673ffffffffffffffffffffffffffffffffffffffff167fddf252ad1be2c89b69c2b068fc378daa952ba7f163c4a11628f55a4df523b3ef60405160405180910390a46135738585856001613fa9565b5050505050565b613594828260405180602001604052806000815250613faf565b5050565b6135a282826120ba565b613631576135c78173ffffffffffffffffffffffffffffffffffffffff166014613fc1565b6135d58360001c6020613fc1565b6040516020016135e6929190615c81565b6040516020818303038152906040526040517f08c379a000000000000000000000000000000000000000000000000000000000815260040161362891906148b0565b60405180910390fd5b5050565b61363f82826120ba565b6137125760016008600084815260200190815260200160002060000160008373ffffffffffffffffffffffffffffffffffffffff1673ffffffffffffffffffffffffffffffffffffffff16815260200190815260200160002060006101000a81548160ff0219169083151502179055506136b7612f4c565b73ffffffffffffffffffffffffffffffffffffffff168173ffffffffffffffffffffffffffffffffffffffff16837f2f8788117e7eff1d82e926ec794901d17c78024a50270940304540a733656f0d60405160405180910390a45b5050565b61372082826120ba565b156137f45760006008600084815260200190815260200160002060000160008373ffffffffffffffffffffffffffffffffffffffff1673ffffffffffffffffffffffffffffffffffffffff16815260200190815260200160002060006101000a81548160ff021916908315150217905550613799612f4c565b73ffffffffffffffffffffffffffffffffffffffff168173ffffffffffffffffffffffffffffffffffffffff16837ff6391f5c32d9c69d2a47ea670b442974b53935d1edc7fd64eb21e047a839171b60405160405180910390a45b5050565b6138006146e8565b6000829050600054811015613a3d576000600460008381526020019081526020016000206040518060600160405290816000820160009054906101000a900473ffffffffffffffffffffffffffffffffffffffff1673ffffffffffffffffffffffffffffffffffffffff1673ffffffffffffffffffffffffffffffffffffffff1681526020016000820160149054906101000a900467ffffffffffffffff1667ffffffffffffffff1667ffffffffffffffff16815260200160008201601c9054906101000a900460ff16151515158152505090508060400151613a3b57600073ffffffffffffffffffffffffffffffffffffffff16816000015173ffffffffffffffffffffffffffffffffffffffff161461391f578092505050613a6f565b5b600115613a3a57818060019003925050600460008381526020019081526020016000206040518060600160405290816000820160009054906101000a900473ffffffffffffffffffffffffffffffffffffffff1673ffffffffffffffffffffffffffffffffffffffff1673ffffffffffffffffffffffffffffffffffffffff1681526020016000820160149054906101000a900467ffffffffffffffff1667ffffffffffffffff1667ffffffffffffffff16815260200160008201601c9054906101000a900460ff1615151515815250509050600073ffffffffffffffffffffffffffffffffffffffff16816000015173ffffffffffffffffffffffffffffffffffffffff1614613a35578092505050613a6f565b613920565b5b505b6040517fdf2d9b4200000000000000000000000000000000000000000000000000000000815260040160405180910390fd5b919050565b6000601960009054906101000a900473ffffffffffffffffffffffffffffffffffffffff16905081601960006101000a81548173ffffffffffffffffffffffffffffffffffffffff021916908373ffffffffffffffffffffffffffffffffffffffff1602179055508173ffffffffffffffffffffffffffffffffffffffff168173ffffffffffffffffffffffffffffffffffffffff167f8be0079c531659141344cd1fd0a4f28419497f9722a3daafe3b4186f6b6457e060405160405180910390a35050565b6000613b5b8473ffffffffffffffffffffffffffffffffffffffff166141fd565b15613cab578373ffffffffffffffffffffffffffffffffffffffff1663150b7a02613b84612f4c565b8786866040518563ffffffff1660e01b8152600401613ba69493929190615d10565b6020604051808303816000875af1925050508015613be257506040513d601f19601f82011682018060405250810190613bdf9190615d71565b60015b613c5b573d8060008114613c12576040519150601f19603f3d011682016040523d82523d6000602084013e613c17565b606091505b506000815103613c53576040517fd1a57ed600000000000000000000000000000000000000000000000000000000815260040160405180910390fd5b805181602001fd5b63150b7a0260e01b7bffffffffffffffffffffffffffffffffffffffffffffffffffffffff1916817bffffffffffffffffffffffffffffffffffffffffffffffffffffffff191614915050613cb0565b600190505b949350505050565b6060600d8054613cc790615051565b80601f0160208091040260200160405190810160405280929190818152602001828054613cf390615051565b8015613d405780601f10613d1557610100808354040283529160200191613d40565b820191906000526020600020905b815481529060010190602001808311613d2357829003601f168201915b5050505050905090565b606060008203613d91576040518060400160405280600181526020017f30000000000000000000000000000000000000000000000000000000000000008152509050613ea5565b600082905060005b60008214613dc3578080613dac90615d9e565b915050600a82613dbc9190615e15565b9150613d99565b60008167ffffffffffffffff811115613ddf57613dde614c9e565b5b6040519080825280601f01601f191660200182016040528015613e115781602001600182028036833780820191505090505b5090505b60008514613e9e57600182613e2a9190615e46565b9150600a85613e399190615e7a565b6030613e4591906151f5565b60f81b818381518110613e5b57613e5a615eab565b5b60200101907effffffffffffffffffffffffffffffffffffffffffffffffffffffffffffff1916908160001a905350600a85613e979190615e15565b9450613e15565b8093505050505b919050565b60007f80ac58cd000000000000000000000000000000000000000000000000000000007bffffffffffffffffffffffffffffffffffffffffffffffffffffffff1916827bffffffffffffffffffffffffffffffffffffffffffffffffffffffff19161480613f7557507f5b5e139f000000000000000000000000000000000000000000000000000000007bffffffffffffffffffffffffffffffffffffffffffffffffffffffff1916827bffffffffffffffffffffffffffffffffffffffffffffffffffffffff1916145b80613f855750613f8482614210565b5b9050919050565b600082613f99858461427a565b1490509392505050565b50505050565b50505050565b613fbc838383600161432d565b505050565b606060006002836002613fd49190615323565b613fde91906151f5565b67ffffffffffffffff811115613ff757613ff6614c9e565b5b6040519080825280601f01601f1916602001820160405280156140295781602001600182028036833780820191505090505b5090507f30000000000000000000000000000000000000000000000000000000000000008160008151811061406157614060615eab565b5b60200101907effffffffffffffffffffffffffffffffffffffffffffffffffffffffffffff1916908160001a9053507f7800000000000000000000000000000000000000000000000000000000000000816001815181106140c5576140c4615eab565b5b60200101907effffffffffffffffffffffffffffffffffffffffffffffffffffffffffffff1916908160001a905350600060018460026141059190615323565b61410f91906151f5565b90505b60018111156141af577f3031323334353637383961626364656600000000000000000000000000000000600f86166010811061415157614150615eab565b5b1a60f81b82828151811061416857614167615eab565b5b60200101907effffffffffffffffffffffffffffffffffffffffffffffffffffffffffffff1916908160001a905350600485901c9450806141a890615eda565b9050614112565b50600084146141f3576040517f08c379a00000000000000000000000000000000000000000000000000000000081526004016141ea90615f4f565b60405180910390fd5b8091505092915050565b600080823b905060008111915050919050565b60007f01ffc9a7000000000000000000000000000000000000000000000000000000007bffffffffffffffffffffffffffffffffffffffffffffffffffffffff1916827bffffffffffffffffffffffffffffffffffffffffffffffffffffffff1916149050919050565b60008082905060005b84518110156143225760008582815181106142a1576142a0615eab565b5b602002602001015190508083116142e25782816040516020016142c5929190615f90565b60405160208183030381529060405280519060200120925061430e565b80836040516020016142f5929190615f90565b6040516020818303038152906040528051906020012092505b50808061431a90615d9e565b915050614283565b508091505092915050565b600080549050600073ffffffffffffffffffffffffffffffffffffffff168573ffffffffffffffffffffffffffffffffffffffff1603614399576040517f2e07630000000000000000000000000000000000000000000000000000000000815260040160405180910390fd5b600084036143d3576040517fb562e8dd00000000000000000000000000000000000000000000000000000000815260040160405180910390fd5b6143e06000868387613fa3565b83600560008773ffffffffffffffffffffffffffffffffffffffff1673ffffffffffffffffffffffffffffffffffffffff16815260200190815260200160002060000160008282829054906101000a900467ffffffffffffffff160192506101000a81548167ffffffffffffffff021916908367ffffffffffffffff16021790555083600560008773ffffffffffffffffffffffffffffffffffffffff1673ffffffffffffffffffffffffffffffffffffffff16815260200190815260200160002060000160088282829054906101000a900467ffffffffffffffff160192506101000a81548167ffffffffffffffff021916908367ffffffffffffffff160217905550846004600083815260200190815260200160002060000160006101000a81548173ffffffffffffffffffffffffffffffffffffffff021916908373ffffffffffffffffffffffffffffffffffffffff160217905550426004600083815260200190815260200160002060000160146101000a81548167ffffffffffffffff021916908367ffffffffffffffff160217905550600081905060005b8581101561464557818773ffffffffffffffffffffffffffffffffffffffff16600073ffffffffffffffffffffffffffffffffffffffff167fddf252ad1be2c89b69c2b068fc378daa952ba7f163c4a11628f55a4df523b3ef60405160405180910390a48380156145f957506145f76000888488613b3a565b155b15614630576040517fd1a57ed600000000000000000000000000000000000000000000000000000000815260040160405180910390fd5b8180600101925050808060010191505061457e565b50806000819055505061465b6000868387613fa9565b5050505050565b82805461466e90615051565b90600052602060002090601f01602090048101928261469057600085556146d7565b82601f106146a957805160ff19168380011785556146d7565b828001600101855582156146d7579182015b828111156146d65782518255916020019190600101906146bb565b5b5090506146e4919061472b565b5090565b6040518060600160405280600073ffffffffffffffffffffffffffffffffffffffff168152602001600067ffffffffffffffff1681526020016000151581525090565b5b8082111561474457600081600090555060010161472c565b5090565b6000604051905090565b600080fd5b600080fd5b60007fffffffff0000000000000000000000000000000000000000000000000000000082169050919050565b6147918161475c565b811461479c57600080fd5b50565b6000813590506147ae81614788565b92915050565b6000602082840312156147ca576147c9614752565b5b60006147d88482850161479f565b91505092915050565b60008115159050919050565b6147f6816147e1565b82525050565b600060208201905061481160008301846147ed565b92915050565b600081519050919050565b600082825260208201905092915050565b60005b83811015614851578082015181840152602081019050614836565b83811115614860576000848401525b50505050565b6000601f19601f8301169050919050565b600061488282614817565b61488c8185614822565b935061489c818560208601614833565b6148a581614866565b840191505092915050565b600060208201905081810360008301526148ca8184614877565b905092915050565b6000819050919050565b6148e5816148d2565b81146148f057600080fd5b50565b600081359050614902816148dc565b92915050565b60006020828403121561491e5761491d614752565b5b600061492c848285016148f3565b91505092915050565b600073ffffffffffffffffffffffffffffffffffffffff82169050919050565b600061496082614935565b9050919050565b61497081614955565b82525050565b600060208201905061498b6000830184614967565b92915050565b61499a81614955565b81146149a557600080fd5b50565b6000813590506149b781614991565b92915050565b600080604083850312156149d4576149d3614752565b5b60006149e2858286016149a8565b92505060206149f3858286016148f3565b9150509250929050565b614a06816148d2565b82525050565b6000602082019050614a2160008301846149fd565b92915050565b600080fd5b600080fd5b600080fd5b60008083601f840112614a4c57614a4b614a27565b5b8235905067ffffffffffffffff811115614a6957614a68614a2c565b5b602083019150836020820283011115614a8557614a84614a31565b5b9250929050565b600080600060408486031215614aa557614aa4614752565b5b600084013567ffffffffffffffff811115614ac357614ac2614757565b5b614acf86828701614a36565b93509350506020614ae2868287016149a8565b9150509250925092565b600080600060608486031215614b0557614b04614752565b5b6000614b13868287016149a8565b9350506020614b24868287016149a8565b9250506040614b35868287016148f3565b9150509250925092565b6000819050919050565b614b5281614b3f565b8114614b5d57600080fd5b50565b600081359050614b6f81614b49565b92915050565b600060208284031215614b8b57614b8a614752565b5b6000614b9984828501614b60565b91505092915050565b614bab81614b3f565b82525050565b6000602082019050614bc66000830184614ba2565b92915050565b600080600060408486031215614be557614be4614752565b5b600084013567ffffffffffffffff811115614c0357614c02614757565b5b614c0f86828701614a36565b93509350506020614c22868287016148f3565b9150509250925092565b60008060408385031215614c4357614c42614752565b5b6000614c5185828601614b60565b9250506020614c62858286016149a8565b9150509250929050565b600060208284031215614c8257614c81614752565b5b6000614c90848285016149a8565b91505092915050565b600080fd5b7f4e487b7100000000000000000000000000000000000000000000000000000000600052604160045260246000fd5b614cd682614866565b810181811067ffffffffffffffff82111715614cf557614cf4614c9e565b5b80604052505050565b6000614d08614748565b9050614d148282614ccd565b919050565b600067ffffffffffffffff821115614d3457614d33614c9e565b5b614d3d82614866565b9050602081019050919050565b82818337600083830152505050565b6000614d6c614d6784614d19565b614cfe565b905082815260208101848484011115614d8857614d87614c99565b5b614d93848285614d4a565b509392505050565b600082601f830112614db057614daf614a27565b5b8135614dc0848260208601614d59565b91505092915050565b600060208284031215614ddf57614dde614752565b5b600082013567ffffffffffffffff811115614dfd57614dfc614757565b5b614e0984828501614d9b565b91505092915050565b60008060408385031215614e2957614e28614752565b5b6000614e37858286016148f3565b9250506020614e48858286016148f3565b9150509250929050565b614e5b816147e1565b8114614e6657600080fd5b50565b600081359050614e7881614e52565b92915050565b60008060408385031215614e9557614e94614752565b5b6000614ea3858286016149a8565b9250506020614eb485828601614e69565b9150509250929050565b600067ffffffffffffffff821115614ed957614ed8614c9e565b5b614ee282614866565b9050602081019050919050565b6000614f02614efd84614ebe565b614cfe565b905082815260208101848484011115614f1e57614f1d614c99565b5b614f29848285614d4a565b509392505050565b600082601f830112614f4657614f45614a27565b5b8135614f56848260208601614eef565b91505092915050565b60008060008060808587031215614f7957614f78614752565b5b6000614f87878288016149a8565b9450506020614f98878288016149a8565b9350506040614fa9878288016148f3565b925050606085013567ffffffffffffffff811115614fca57614fc9614757565b5b614fd687828801614f31565b91505092959194509250565b60008060408385031215614ff957614ff8614752565b5b6000615007858286016149a8565b9250506020615018858286016149a8565b9150509250929050565b7f4e487b7100000000000000000000000000000000000000000000000000000000600052602260045260246000fd5b6000600282049050600182168061506957607f821691505b60208210810361507c5761507b615022565b5b50919050565b7f4d75737420626520616e2061646d696e00000000000000000000000000000000600082015250565b60006150b8601083614822565b91506150c382615082565b602082019050919050565b600060208201905081810360008301526150e7816150ab565b9050919050565b7f50524553414c455f494e41435449564500000000000000000000000000000000600082015250565b6000615124601083614822565b915061512f826150ee565b602082019050919050565b6000602082019050818103600083015261515381615117565b9050919050565b7f50524553414c455f4e4f545f5645524946494544000000000000000000000000600082015250565b6000615190601483614822565b915061519b8261515a565b602082019050919050565b600060208201905081810360008301526151bf81615183565b9050919050565b7f4e487b7100000000000000000000000000000000000000000000000000000000600052601160045260246000fd5b6000615200826148d2565b915061520b836148d2565b9250827fffffffffffffffffffffffffffffffffffffffffffffffffffffffffffffffff038211156152405761523f6151c6565b5b828201905092915050565b7f455843454544535f434f4c4c454354494f4e5f53495a45000000000000000000600082015250565b6000615281601783614822565b915061528c8261524b565b602082019050919050565b600060208201905081810360008301526152b081615274565b9050919050565b7f57484954454c4953545f544f4b454e5f4c494d49540000000000000000000000600082015250565b60006152ed601583614822565b91506152f8826152b7565b602082019050919050565b6000602082019050818103600083015261531c816152e0565b9050919050565b600061532e826148d2565b9150615339836148d2565b9250817fffffffffffffffffffffffffffffffffffffffffffffffffffffffffffffffff0483118215151615615372576153716151c6565b5b828202905092915050565b7f56414c55455f544f4f5f4c4f5700000000000000000000000000000000000000600082015250565b60006153b3600d83614822565b91506153be8261537d565b602082019050919050565b600060208201905081810360008301526153e2816153a6565b9050919050565b7f4d455441444154415f46494e414c495a45440000000000000000000000000000600082015250565b600061541f601283614822565b915061542a826153e9565b602082019050919050565b6000602082019050818103600083015261544e81615412565b9050919050565b7f416363657373436f6e74726f6c3a2063616e206f6e6c792072656e6f756e636560008201527f20726f6c657320666f722073656c660000000000000000000000000000000000602082015250565b60006154b1602f83614822565b91506154bc82615455565b604082019050919050565b600060208201905081810360008301526154e0816154a4565b9050919050565b7f4e4f5f42414c414e434500000000000000000000000000000000000000000000600082015250565b600061551d600a83614822565b9150615528826154e7565b602082019050919050565b6000602082019050818103600083015261554c81615510565b9050919050565b600081905092915050565b50565b600061556e600083615553565b91506155798261555e565b600082019050919050565b600061558f82615561565b9150819050919050565b7f57495448445241575f4641494c45440000000000000000000000000000000000600082015250565b60006155cf600f83614822565b91506155da82615599565b602082019050919050565b600060208201905081810360008301526155fe816155c2565b9050919050565b7f4f776e61626c653a2063616c6c6572206973206e6f7420746865206f776e6572600082015250565b600061563b602083614822565b915061564682615605565b602082019050919050565b6000602082019050818103600083015261566a8161562e565b9050919050565b7f54494d45535f46494e414c495a45440000000000000000000000000000000000600082015250565b60006156a7600f83614822565b91506156b282615671565b602082019050919050565b600060208201905081810360008301526156d68161569a565b9050919050565b7f414c52454144595f41495244524f505045440000000000000000000000000000600082015250565b6000615713601283614822565b915061571e826156dd565b602082019050919050565b6000602082019050818103600083015261574281615706565b9050919050565b7f455843454544535f41495244524f505f4c494d49540000000000000000000000600082015250565b600061577f601583614822565b915061578a82615749565b602082019050919050565b600060208201905081810360008301526157ae81615772565b9050919050565b7f5245445543455f53495a455f4f4e4c5900000000000000000000000000000000600082015250565b60006157eb601083614822565b91506157f6826157b5565b602082019050919050565b6000602082019050818103600083015261581a816157de565b9050919050565b7f4d41494e5441494e5f4558495354494e475f535550504c590000000000000000600082015250565b6000615857601883614822565b915061586282615821565b602082019050919050565b600060208201905081810360008301526158868161584a565b9050919050565b7f5055424c49435f53414c455f494e414354495645000000000000000000000000600082015250565b60006158c3601483614822565b91506158ce8261588d565b602082019050919050565b600060208201905081810360008301526158f2816158b6565b9050919050565b7f5055424c49435f544f4b454e5f4c494d49540000000000000000000000000000600082015250565b600061592f601283614822565b915061593a826158f9565b602082019050919050565b6000602082019050818103600083015261595e81615922565b9050919050565b7f4c4953545f46494e414c495a4544000000000000000000000000000000000000600082015250565b600061599b600e83614822565b91506159a682615965565b602082019050919050565b600060208201905081810360008301526159ca8161598e565b9050919050565b7f494e56414c49445f494400000000000000000000000000000000000000000000600082015250565b6000615a07600a83614822565b9150615a12826159d1565b602082019050919050565b60006020820190508181036000830152615a36816159fa565b9050919050565b600081905092915050565b6000615a5382614817565b615a5d8185615a3d565b9350615a6d818560208601614833565b80840191505092915050565b7f2e6a736f6e000000000000000000000000000000000000000000000000000000600082015250565b6000615aaf600583615a3d565b9150615aba82615a79565b600582019050919050565b6000615ad18285615a48565b9150615add8284615a48565b9150615ae882615aa2565b91508190509392505050565b7f4f776e61626c653a206e6577206f776e657220697320746865207a65726f206160008201527f6464726573730000000000000000000000000000000000000000000000000000602082015250565b6000615b50602683614822565b9150615b5b82615af4565b604082019050919050565b60006020820190508181036000830152615b7f81615b43565b9050919050565b60008160601b9050919050565b6000615b9e82615b86565b9050919050565b6000615bb082615b93565b9050919050565b615bc8615bc382614955565b615ba5565b82525050565b6000615bda8284615bb7565b60148201915081905092915050565b7f416363657373436f6e74726f6c3a206163636f756e7420000000000000000000600082015250565b6000615c1f601783615a3d565b9150615c2a82615be9565b601782019050919050565b7f206973206d697373696e6720726f6c6520000000000000000000000000000000600082015250565b6000615c6b601183615a3d565b9150615c7682615c35565b601182019050919050565b6000615c8c82615c12565b9150615c988285615a48565b9150615ca382615c5e565b9150615caf8284615a48565b91508190509392505050565b600081519050919050565b600082825260208201905092915050565b6000615ce282615cbb565b615cec8185615cc6565b9350615cfc818560208601614833565b615d0581614866565b840191505092915050565b6000608082019050615d256000830187614967565b615d326020830186614967565b615d3f60408301856149fd565b8181036060830152615d518184615cd7565b905095945050505050565b600081519050615d6b81614788565b92915050565b600060208284031215615d8757615d86614752565b5b6000615d9584828501615d5c565b91505092915050565b6000615da9826148d2565b91507fffffffffffffffffffffffffffffffffffffffffffffffffffffffffffffffff8203615ddb57615dda6151c6565b5b600182019050919050565b7f4e487b7100000000000000000000000000000000000000000000000000000000600052601260045260246000fd5b6000615e20826148d2565b9150615e2b836148d2565b925082615e3b57615e3a615de6565b5b828204905092915050565b6000615e51826148d2565b9150615e5c836148d2565b925082821015615e6f57615e6e6151c6565b5b828203905092915050565b6000615e85826148d2565b9150615e90836148d2565b925082615ea057615e9f615de6565b5b828206905092915050565b7f4e487b7100000000000000000000000000000000000000000000000000000000600052603260045260246000fd5b6000615ee5826148d2565b915060008203615ef857615ef76151c6565b5b600182039050919050565b7f537472696e67733a20686578206c656e67746820696e73756666696369656e74600082015250565b6000615f39602083614822565b9150615f4482615f03565b602082019050919050565b60006020820190508181036000830152615f6881615f2c565b9050919050565b6000819050919050565b615f8a615f8582614b3f565b615f6f565b82525050565b6000615f9c8285615f79565b602082019150615fac8284615f79565b602082019150819050939250505056fea26469706673582212204b12f98c0643cd346ef3ddcfee78bd4115e99035f8e7afc7397933d4deed383064736f6c634300080d0033",
  "linkReferences": {},
  "deployedLinkReferences": {}
}