{
  "_format": "hh-sol-artifact-1",
  "contractName": "FifthDimension",
  "sourceName": "contracts/FifthDimension.sol",
  "abi": [
    {
      "inputs": [
        {
          "internalType": "uint64",
          "name": "_whitelistStart",
          "type": "uint64"
        },
        {
          "internalType": "uint64",
          "name": "_whitelistEnd",
          "type": "uint64"
        },
        {
          "internalType": "uint64",
          "name": "_publicStart",
          "type": "uint64"
        },
        {
          "internalType": "uint64",
          "name": "_publicEnd",
          "type": "uint64"
        },
        {
          "internalType": "bytes32",
          "name": "whitelistMerkleRoot",
          "type": "bytes32"
        },
        {
          "internalType": "string",
          "name": "name",
          "type": "string"
        },
        {
          "internalType": "string",
          "name": "symbol",
          "type": "string"
        },
        {
          "internalType": "string",
          "name": "tempUri",
          "type": "string"
        }
      ],
      "stateMutability": "nonpayable",
      "type": "constructor"
    },
    {
      "anonymous": false,
      "inputs": [
        {
          "indexed": true,
          "internalType": "address",
          "name": "owner",
          "type": "address"
        },
        {
          "indexed": true,
          "internalType": "address",
          "name": "approved",
          "type": "address"
        },
        {
          "indexed": true,
          "internalType": "uint256",
          "name": "tokenId",
          "type": "uint256"
        }
      ],
      "name": "Approval",
      "type": "event"
    },
    {
      "anonymous": false,
      "inputs": [
        {
          "indexed": true,
          "internalType": "address",
          "name": "owner",
          "type": "address"
        },
        {
          "indexed": true,
          "internalType": "address",
          "name": "operator",
          "type": "address"
        },
        {
          "indexed": false,
          "internalType": "bool",
          "name": "approved",
          "type": "bool"
        }
      ],
      "name": "ApprovalForAll",
      "type": "event"
    },
    {
      "anonymous": false,
      "inputs": [
        {
          "indexed": true,
          "internalType": "bytes32",
          "name": "role",
          "type": "bytes32"
        },
        {
          "indexed": true,
          "internalType": "bytes32",
          "name": "previousAdminRole",
          "type": "bytes32"
        },
        {
          "indexed": true,
          "internalType": "bytes32",
          "name": "newAdminRole",
          "type": "bytes32"
        }
      ],
      "name": "RoleAdminChanged",
      "type": "event"
    },
    {
      "anonymous": false,
      "inputs": [
        {
          "indexed": true,
          "internalType": "bytes32",
          "name": "role",
          "type": "bytes32"
        },
        {
          "indexed": true,
          "internalType": "address",
          "name": "account",
          "type": "address"
        },
        {
          "indexed": true,
          "internalType": "address",
          "name": "sender",
          "type": "address"
        }
      ],
      "name": "RoleGranted",
      "type": "event"
    },
    {
      "anonymous": false,
      "inputs": [
        {
          "indexed": true,
          "internalType": "bytes32",
          "name": "role",
          "type": "bytes32"
        },
        {
          "indexed": true,
          "internalType": "address",
          "name": "account",
          "type": "address"
        },
        {
          "indexed": true,
          "internalType": "address",
          "name": "sender",
          "type": "address"
        }
      ],
      "name": "RoleRevoked",
      "type": "event"
    },
    {
      "anonymous": false,
      "inputs": [
        {
          "indexed": true,
          "internalType": "address",
          "name": "from",
          "type": "address"
        },
        {
          "indexed": true,
          "internalType": "address",
          "name": "to",
          "type": "address"
        },
        {
          "indexed": true,
          "internalType": "uint256",
          "name": "tokenId",
          "type": "uint256"
        }
      ],
      "name": "Transfer",
      "type": "event"
    },
    {
      "inputs": [],
      "name": "ADMIN_ROLE",
      "outputs": [
        {
          "internalType": "bytes32",
          "name": "",
          "type": "bytes32"
        }
      ],
      "stateMutability": "view",
      "type": "function"
    },
    {
      "inputs": [],
      "name": "DEFAULT_ADMIN_ROLE",
      "outputs": [
        {
          "internalType": "bytes32",
          "name": "",
          "type": "bytes32"
        }
      ],
      "stateMutability": "view",
      "type": "function"
    },
    {
      "inputs": [],
      "name": "MOD_ROLE",
      "outputs": [
        {
          "internalType": "bytes32",
          "name": "",
          "type": "bytes32"
        }
      ],
      "stateMutability": "view",
      "type": "function"
    },
    {
      "inputs": [
        {
          "internalType": "address",
          "name": "to",
          "type": "address"
        },
        {
          "internalType": "uint16",
          "name": "quantity",
          "type": "uint16"
        }
      ],
      "name": "airdrop",
      "outputs": [],
      "stateMutability": "nonpayable",
      "type": "function"
    },
    {
      "inputs": [
        {
          "internalType": "address",
          "name": "to",
          "type": "address"
        },
        {
          "internalType": "uint256",
          "name": "tokenId",
          "type": "uint256"
        }
      ],
      "name": "approve",
      "outputs": [],
      "stateMutability": "nonpayable",
      "type": "function"
    },
    {
      "inputs": [
        {
          "internalType": "address",
          "name": "owner",
          "type": "address"
        }
      ],
      "name": "balanceOf",
      "outputs": [
        {
          "internalType": "uint256",
          "name": "",
          "type": "uint256"
        }
      ],
      "stateMutability": "view",
      "type": "function"
    },
    {
      "inputs": [
        {
          "internalType": "uint256",
          "name": "tokenId",
          "type": "uint256"
        }
      ],
      "name": "getApproved",
      "outputs": [
        {
          "internalType": "address",
          "name": "",
          "type": "address"
        }
      ],
      "stateMutability": "view",
      "type": "function"
    },
    {
      "inputs": [
        {
          "internalType": "bytes32",
          "name": "role",
          "type": "bytes32"
        }
      ],
      "name": "getRoleAdmin",
      "outputs": [
        {
          "internalType": "bytes32",
          "name": "",
          "type": "bytes32"
        }
      ],
      "stateMutability": "view",
      "type": "function"
    },
    {
      "inputs": [
        {
          "internalType": "bytes32",
          "name": "role",
          "type": "bytes32"
        },
        {
          "internalType": "address",
          "name": "account",
          "type": "address"
        }
      ],
      "name": "grantRole",
      "outputs": [],
      "stateMutability": "nonpayable",
      "type": "function"
    },
    {
      "inputs": [
        {
          "internalType": "bytes32",
          "name": "role",
          "type": "bytes32"
        },
        {
          "internalType": "address",
          "name": "account",
          "type": "address"
        }
      ],
      "name": "hasRole",
      "outputs": [
        {
          "internalType": "bool",
          "name": "",
          "type": "bool"
        }
      ],
      "stateMutability": "view",
      "type": "function"
    },
    {
      "inputs": [
        {
          "internalType": "address",
          "name": "owner",
          "type": "address"
        },
        {
          "internalType": "address",
          "name": "operator",
          "type": "address"
        }
      ],
      "name": "isApprovedForAll",
      "outputs": [
        {
          "internalType": "bool",
          "name": "",
          "type": "bool"
        }
      ],
      "stateMutability": "view",
      "type": "function"
    },
    {
      "inputs": [],
      "name": "isPublicSaleActive",
      "outputs": [
        {
          "internalType": "bool",
          "name": "",
          "type": "bool"
        }
      ],
      "stateMutability": "view",
      "type": "function"
    },
    {
      "inputs": [],
      "name": "isWhitelistSaleActive",
      "outputs": [
        {
          "internalType": "bool",
          "name": "",
          "type": "bool"
        }
      ],
      "stateMutability": "view",
      "type": "function"
    },
    {
      "inputs": [],
      "name": "mint",
      "outputs": [],
      "stateMutability": "nonpayable",
      "type": "function"
    },
    {
      "inputs": [],
      "name": "name",
      "outputs": [
        {
          "internalType": "string",
          "name": "",
          "type": "string"
        }
      ],
      "stateMutability": "view",
      "type": "function"
    },
    {
      "inputs": [
        {
          "internalType": "uint256",
          "name": "tokenId",
          "type": "uint256"
        }
      ],
      "name": "ownerOf",
      "outputs": [
        {
          "internalType": "address",
          "name": "",
          "type": "address"
        }
      ],
      "stateMutability": "view",
      "type": "function"
    },
    {
      "inputs": [],
      "name": "publicEnd",
      "outputs": [
        {
          "internalType": "uint64",
          "name": "",
          "type": "uint64"
        }
      ],
      "stateMutability": "view",
      "type": "function"
    },
    {
      "inputs": [],
      "name": "publicStart",
      "outputs": [
        {
          "internalType": "uint64",
          "name": "",
          "type": "uint64"
        }
      ],
      "stateMutability": "view",
      "type": "function"
    },
    {
      "inputs": [
        {
          "internalType": "bytes32",
          "name": "role",
          "type": "bytes32"
        },
        {
          "internalType": "address",
          "name": "account",
          "type": "address"
        }
      ],
      "name": "renounceRole",
      "outputs": [],
      "stateMutability": "nonpayable",
      "type": "function"
    },
    {
      "inputs": [],
      "name": "revealed",
      "outputs": [
        {
          "internalType": "bool",
          "name": "",
          "type": "bool"
        }
      ],
      "stateMutability": "view",
      "type": "function"
    },
    {
      "inputs": [
        {
          "internalType": "bytes32",
          "name": "role",
          "type": "bytes32"
        },
        {
          "internalType": "address",
          "name": "account",
          "type": "address"
        }
      ],
      "name": "revokeRole",
      "outputs": [],
      "stateMutability": "nonpayable",
      "type": "function"
    },
    {
      "inputs": [
        {
          "internalType": "address",
          "name": "from",
          "type": "address"
        },
        {
          "internalType": "address",
          "name": "to",
          "type": "address"
        },
        {
          "internalType": "uint256",
          "name": "tokenId",
          "type": "uint256"
        }
      ],
      "name": "safeTransferFrom",
      "outputs": [],
      "stateMutability": "nonpayable",
      "type": "function"
    },
    {
      "inputs": [
        {
          "internalType": "address",
          "name": "from",
          "type": "address"
        },
        {
          "internalType": "address",
          "name": "to",
          "type": "address"
        },
        {
          "internalType": "uint256",
          "name": "tokenId",
          "type": "uint256"
        },
        {
          "internalType": "bytes",
          "name": "_data",
          "type": "bytes"
        }
      ],
      "name": "safeTransferFrom",
      "outputs": [],
      "stateMutability": "nonpayable",
      "type": "function"
    },
    {
      "inputs": [
        {
          "internalType": "address",
          "name": "operator",
          "type": "address"
        },
        {
          "internalType": "bool",
          "name": "approved",
          "type": "bool"
        }
      ],
      "name": "setApprovalForAll",
      "outputs": [],
      "stateMutability": "nonpayable",
      "type": "function"
    },
    {
      "inputs": [
        {
          "internalType": "string",
          "name": "baseUri",
          "type": "string"
        }
      ],
      "name": "setBaseURI",
      "outputs": [],
      "stateMutability": "nonpayable",
      "type": "function"
    },
    {
      "inputs": [
        {
          "internalType": "string",
          "name": "tempUri",
          "type": "string"
        }
      ],
      "name": "setPlaceholderURI",
      "outputs": [],
      "stateMutability": "nonpayable",
      "type": "function"
    },
    {
      "inputs": [
        {
          "internalType": "bytes4",
          "name": "interfaceId",
          "type": "bytes4"
        }
      ],
      "name": "supportsInterface",
      "outputs": [
        {
          "internalType": "bool",
          "name": "",
          "type": "bool"
        }
      ],
      "stateMutability": "view",
      "type": "function"
    },
    {
      "inputs": [],
      "name": "symbol",
      "outputs": [
        {
          "internalType": "string",
          "name": "",
          "type": "string"
        }
      ],
      "stateMutability": "view",
      "type": "function"
    },
    {
      "inputs": [],
      "name": "toggleReveal",
      "outputs": [],
      "stateMutability": "nonpayable",
      "type": "function"
    },
    {
      "inputs": [
        {
          "internalType": "uint256",
          "name": "id",
          "type": "uint256"
        }
      ],
      "name": "tokenURI",
      "outputs": [
        {
          "internalType": "string",
          "name": "",
          "type": "string"
        }
      ],
      "stateMutability": "view",
      "type": "function"
    },
    {
      "inputs": [],
      "name": "totalSupply",
      "outputs": [
        {
          "internalType": "uint16",
          "name": "",
          "type": "uint16"
        }
      ],
      "stateMutability": "view",
      "type": "function"
    },
    {
      "inputs": [
        {
          "internalType": "address",
          "name": "from",
          "type": "address"
        },
        {
          "internalType": "address",
          "name": "to",
          "type": "address"
        },
        {
          "internalType": "uint256",
          "name": "tokenId",
          "type": "uint256"
        }
      ],
      "name": "transferFrom",
      "outputs": [],
      "stateMutability": "nonpayable",
      "type": "function"
    },
    {
      "inputs": [],
      "name": "whitelistEnd",
      "outputs": [
        {
          "internalType": "uint64",
          "name": "",
          "type": "uint64"
        }
      ],
      "stateMutability": "view",
      "type": "function"
    },
    {
      "inputs": [
        {
          "internalType": "bytes32[]",
          "name": "_merkleProof",
          "type": "bytes32[]"
        }
      ],
      "name": "whitelistMint",
      "outputs": [],
      "stateMutability": "nonpayable",
      "type": "function"
    },
    {
      "inputs": [],
      "name": "whitelistStart",
      "outputs": [
        {
          "internalType": "uint64",
          "name": "",
          "type": "uint64"
        }
      ],
      "stateMutability": "view",
      "type": "function"
    }
  ],
  "bytecode": "0x60806040527fa49807205ce4d355092ef5a8a18f56e8913cf4a201fbe287825b095693c217756007557f950b8f2d7415defaee398bb4898e8e094a64c725873b81952b7ab9f08d70efb36008553480156200005957600080fd5b50604051620058fb380380620058fb83398181016040528101906200007f9190620007c6565b8282816000908051906020019062000099929190620004f9565b508060019080519060200190620000b2929190620004f9565b5050508360098190555080600d9080519060200190620000d4929190620004f9565b506000429050808967ffffffffffffffff161162000129576040517f08c379a000000000000000000000000000000000000000000000000000000000815260040162000120906200094d565b60405180910390fd5b808867ffffffffffffffff161180156200016c5750603360089054906101000a900467ffffffffffffffff1667ffffffffffffffff168867ffffffffffffffff16115b620001ae576040517f08c379a0000000000000000000000000000000000000000000000000000000008152600401620001a590620009bf565b60405180910390fd5b88603360086101000a81548167ffffffffffffffff021916908367ffffffffffffffff16021790555087603360106101000a81548167ffffffffffffffff021916908367ffffffffffffffff160217905550808767ffffffffffffffff161180156200022e57508767ffffffffffffffff168767ffffffffffffffff1610155b62000270576040517f08c379a0000000000000000000000000000000000000000000000000000000008152600401620002679062000a31565b60405180910390fd5b808667ffffffffffffffff161180156200029d57508667ffffffffffffffff168667ffffffffffffffff16115b620002df576040517f08c379a0000000000000000000000000000000000000000000000000000000008152600401620002d69062000aa3565b60405180910390fd5b86603360186101000a81548167ffffffffffffffff021916908367ffffffffffffffff16021790555085603460006101000a81548167ffffffffffffffff021916908367ffffffffffffffff1602179055506000620003436200037e60201b60201c565b90506200035a6000801b826200038660201b60201c565b6200036e600754826200038660201b60201c565b5050505050505050505062000b29565b600033905090565b6200039882826200039c60201b60201c565b5050565b620003ae82826200048e60201b60201c565b6200048a5760016006600084815260200190815260200160002060000160008373ffffffffffffffffffffffffffffffffffffffff1673ffffffffffffffffffffffffffffffffffffffff16815260200190815260200160002060006101000a81548160ff0219169083151502179055506200042f6200037e60201b60201c565b73ffffffffffffffffffffffffffffffffffffffff168173ffffffffffffffffffffffffffffffffffffffff16837f2f8788117e7eff1d82e926ec794901d17c78024a50270940304540a733656f0d60405160405180910390a45b5050565b60006006600084815260200190815260200160002060000160008373ffffffffffffffffffffffffffffffffffffffff1673ffffffffffffffffffffffffffffffffffffffff16815260200190815260200160002060009054906101000a900460ff16905092915050565b828054620005079062000af4565b90600052602060002090601f0160209004810192826200052b576000855562000577565b82601f106200054657805160ff191683800117855562000577565b8280016001018555821562000577579182015b828111156200057657825182559160200191906001019062000559565b5b5090506200058691906200058a565b5090565b5b80821115620005a55760008160009055506001016200058b565b5090565b6000604051905090565b600080fd5b600080fd5b600067ffffffffffffffff82169050919050565b620005dc81620005bd565b8114620005e857600080fd5b50565b600081519050620005fc81620005d1565b92915050565b6000819050919050565b620006178162000602565b81146200062357600080fd5b50565b60008151905062000637816200060c565b92915050565b600080fd5b600080fd5b6000601f19601f8301169050919050565b7f4e487b7100000000000000000000000000000000000000000000000000000000600052604160045260246000fd5b620006928262000647565b810181811067ffffffffffffffff82111715620006b457620006b362000658565b5b80604052505050565b6000620006c9620005a9565b9050620006d7828262000687565b919050565b600067ffffffffffffffff821115620006fa57620006f962000658565b5b620007058262000647565b9050602081019050919050565b60005b838110156200073257808201518184015260208101905062000715565b8381111562000742576000848401525b50505050565b60006200075f6200075984620006dc565b620006bd565b9050828152602081018484840111156200077e576200077d62000642565b5b6200078b84828562000712565b509392505050565b600082601f830112620007ab57620007aa6200063d565b5b8151620007bd84826020860162000748565b91505092915050565b600080600080600080600080610100898b031215620007ea57620007e9620005b3565b5b6000620007fa8b828c01620005eb565b98505060206200080d8b828c01620005eb565b9750506040620008208b828c01620005eb565b9650506060620008338b828c01620005eb565b9550506080620008468b828c0162000626565b94505060a089015167ffffffffffffffff8111156200086a5762000869620005b8565b5b620008788b828c0162000793565b93505060c089015167ffffffffffffffff8111156200089c576200089b620005b8565b5b620008aa8b828c0162000793565b92505060e089015167ffffffffffffffff811115620008ce57620008cd620005b8565b5b620008dc8b828c0162000793565b9150509295985092959890939650565b600082825260208201905092915050565b7f57726f6e672077686974656c6973742073746172740000000000000000000000600082015250565b600062000935601583620008ec565b91506200094282620008fd565b602082019050919050565b60006020820190508181036000830152620009688162000926565b9050919050565b7f57726f6e672077686974656c69737420656e6400000000000000000000000000600082015250565b6000620009a7601383620008ec565b9150620009b4826200096f565b602082019050919050565b60006020820190508181036000830152620009da8162000998565b9050919050565b7f57726f6e67207075626c69632073746172740000000000000000000000000000600082015250565b600062000a19601283620008ec565b915062000a2682620009e1565b602082019050919050565b6000602082019050818103600083015262000a4c8162000a0a565b9050919050565b7f57726f6e67207075626c696320656e6400000000000000000000000000000000600082015250565b600062000a8b601083620008ec565b915062000a988262000a53565b602082019050919050565b6000602082019050818103600083015262000abe8162000a7c565b9050919050565b7f4e487b7100000000000000000000000000000000000000000000000000000000600052602260045260246000fd5b6000600282049050600182168062000b0d57607f821691505b60208210810362000b235762000b2262000ac5565b5b50919050565b614dc28062000b396000396000f3fe608060405234801561001057600080fd5b50600436106102115760003560e01c80635b8ad42911610125578063a5f4c6ff116100ad578063c87b56dd1161007c578063c87b56dd146105ca578063d547741f146105fa578063e932406f14610616578063e985e9c514610634578063ec8d130b1461066457610211565b8063a5f4c6ff14610554578063b88d4fde14610572578063b98451cf1461058e578063bfb6e0e7146105ac57610211565b806391d14854116100f457806391d14854146104ae57806395d89b41146104de578063994d3969146104fc578063a217fddf1461051a578063a22cb4651461053857610211565b80635b8ad429146104265780636352211e1461043057806370a082311461046057806375b238fc1461049057610211565b806323b872dd116101a857806336568abe1161017757806336568abe14610398578063372f657c146103b457806342842e0e146103d057806351830227146103ec57806355f804b31461040a57610211565b806323b872dd14610314578063248a9ca3146103305780632f2ff15d146103605780633574a2dd1461037c57610211565b80630acae9a7116101e45780630acae9a7146102b05780631249c58b146102ce57806318160ddd146102d85780631e84c413146102f657610211565b806301ffc9a71461021657806306fdde0314610246578063081812fc14610264578063095ea7b314610294575b600080fd5b610230600480360381019061022b919061314a565b610680565b60405161023d9190613192565b60405180910390f35b61024e610692565b60405161025b9190613246565b60405180910390f35b61027e6004803603810190610279919061329e565b610724565b60405161028b919061330c565b60405180910390f35b6102ae60048036038101906102a99190613353565b6107a9565b005b6102b86108c0565b6040516102c591906133b6565b60405180910390f35b6102d66108da565b005b6102e0610af6565b6040516102ed91906133ee565b60405180910390f35b6102fe610b29565b60405161030b9190613192565b60405180910390f35b61032e60048036038101906103299190613409565b610b7e565b005b61034a60048036038101906103459190613492565b610bde565b60405161035791906134ce565b60405180910390f35b61037a600480360381019061037591906134e9565b610bfe565b005b6103966004803603810190610391919061365e565b610c27565b005b6103b260048036038101906103ad91906134e9565b610cad565b005b6103ce60048036038101906103c99190613707565b610d30565b005b6103ea60048036038101906103e59190613409565b610f6a565b005b6103f4610f8a565b6040516104019190613192565b60405180910390f35b610424600480360381019061041f919061365e565b610f9d565b005b61042e611023565b005b61044a6004803603810190610445919061329e565b6110bb565b604051610457919061330c565b60405180910390f35b61047a60048036038101906104759190613754565b61116c565b6040516104879190613790565b60405180910390f35b610498611223565b6040516104a591906134ce565b60405180910390f35b6104c860048036038101906104c391906134e9565b611229565b6040516104d59190613192565b60405180910390f35b6104e6611294565b6040516104f39190613246565b60405180910390f35b610504611326565b60405161051191906133b6565b60405180910390f35b610522611340565b60405161052f91906134ce565b60405180910390f35b610552600480360381019061054d91906137d7565b611347565b005b61055c61135d565b60405161056991906133b6565b60405180910390f35b61058c600480360381019061058791906138b8565b611377565b005b6105966113d9565b6040516105a39190613192565b60405180910390f35b6105b461142e565b6040516105c191906133b6565b60405180910390f35b6105e460048036038101906105df919061329e565b611448565b6040516105f19190613246565b60405180910390f35b610614600480360381019061060f91906134e9565b61156f565b005b61061e611598565b60405161062b91906134ce565b60405180910390f35b61064e6004803603810190610649919061393b565b61159e565b60405161065b9190613192565b60405180910390f35b61067e600480360381019061067991906139a7565b611632565b005b600061068b82611735565b9050919050565b6060600080546106a190613a16565b80601f01602080910402602001604051908101604052809291908181526020018280546106cd90613a16565b801561071a5780601f106106ef5761010080835404028352916020019161071a565b820191906000526020600020905b8154815290600101906020018083116106fd57829003601f168201915b5050505050905090565b600061072f826117af565b61076e576040517f08c379a000000000000000000000000000000000000000000000000000000000815260040161076590613ab9565b60405180910390fd5b6004600083815260200190815260200160002060009054906101000a900473ffffffffffffffffffffffffffffffffffffffff169050919050565b60006107b4826110bb565b90508073ffffffffffffffffffffffffffffffffffffffff168373ffffffffffffffffffffffffffffffffffffffff1603610824576040517f08c379a000000000000000000000000000000000000000000000000000000000815260040161081b90613b4b565b60405180910390fd5b8073ffffffffffffffffffffffffffffffffffffffff1661084361181b565b73ffffffffffffffffffffffffffffffffffffffff16148061087257506108718161086c61181b565b61159e565b5b6108b1576040517f08c379a00000000000000000000000000000000000000000000000000000000081526004016108a890613bdd565b60405180910390fd5b6108bb8383611823565b505050565b603460009054906101000a900467ffffffffffffffff1681565b6108e2610b29565b610921576040517f08c379a000000000000000000000000000000000000000000000000000000000815260040161091890613c49565b60405180910390fd5b600061092b61181b565b90506001600b60008373ffffffffffffffffffffffffffffffffffffffff1673ffffffffffffffffffffffffffffffffffffffff16815260200190815260200160002060008282829054906101000a900460ff166109899190613ca5565b92506101000a81548160ff021916908360ff160217905550600261ffff16600b60008373ffffffffffffffffffffffffffffffffffffffff1673ffffffffffffffffffffffffffffffffffffffff16815260200190815260200160002060009054906101000a900460ff1660ff161115610a38576040517f08c379a0000000000000000000000000000000000000000000000000000000008152600401610a2f90613d28565b60405180910390fd5b6001603360068282829054906101000a900461ffff16610a589190613d48565b92506101000a81548161ffff021916908361ffff16021790555061022b61ffff166001603360069054906101000a900461ffff16610a969190613d48565b61ffff161115610adb576040517f08c379a0000000000000000000000000000000000000000000000000000000008152600401610ad290613dcc565b60405180910390fd5b610af3610ae661181b565b610aee6118dc565b611b87565b50565b6000603360069054906101000a900461ffff16603360049054906101000a900461ffff16610b249190613d48565b905090565b6000603360189054906101000a900467ffffffffffffffff1667ffffffffffffffff1642118015610b795750603460009054906101000a900467ffffffffffffffff1667ffffffffffffffff1642105b905090565b610b8f610b8961181b565b82611ba5565b610bce576040517f08c379a0000000000000000000000000000000000000000000000000000000008152600401610bc590613e5e565b60405180910390fd5b610bd9838383611c83565b505050565b600060066000838152602001908152602001600020600101549050919050565b610c0782610bde565b610c1881610c1361181b565b611ede565b610c228383611f7b565b505050565b6000610c3161181b565b9050610c406000801b82611229565b80610c535750610c5260075482611229565b5b610c92576040517f08c379a0000000000000000000000000000000000000000000000000000000008152600401610c8990613eca565b60405180910390fd5b81600d9080519060200190610ca892919061303b565b505050565b610cb561181b565b73ffffffffffffffffffffffffffffffffffffffff168173ffffffffffffffffffffffffffffffffffffffff1614610d22576040517f08c379a0000000000000000000000000000000000000000000000000000000008152600401610d1990613f5c565b60405180910390fd5b610d2c828261205c565b5050565b6000610d3a61181b565b9050610d446113d9565b610d83576040517f08c379a0000000000000000000000000000000000000000000000000000000008152600401610d7a90613fc8565b60405180910390fd5b610d8e83838361213e565b610dcd576040517f08c379a0000000000000000000000000000000000000000000000000000000008152600401610dc490614034565b60405180910390fd5b6001600a60008373ffffffffffffffffffffffffffffffffffffffff1673ffffffffffffffffffffffffffffffffffffffff16815260200190815260200160002060006101000a81548160ff021916908315150217905550600a60008273ffffffffffffffffffffffffffffffffffffffff1673ffffffffffffffffffffffffffffffffffffffff16815260200190815260200160002060009054906101000a900460ff16610eb1576040517f08c379a0000000000000000000000000000000000000000000000000000000008152600401610ea8906140a0565b60405180910390fd5b6001603360068282829054906101000a900461ffff16610ed19190613d48565b92506101000a81548161ffff021916908361ffff16021790555061022b61ffff166001603360069054906101000a900461ffff16610f0f9190613d48565b61ffff161115610f54576040517f08c379a0000000000000000000000000000000000000000000000000000000008152600401610f4b90613dcc565b60405180910390fd5b610f6581610f606118dc565b611b87565b505050565b610f8583838360405180602001604052806000815250611377565b505050565b600e60009054906101000a900460ff1681565b6000610fa761181b565b9050610fb66000801b82611229565b80610fc95750610fc860075482611229565b5b611008576040517f08c379a0000000000000000000000000000000000000000000000000000000008152600401610fff90613eca565b60405180910390fd5b81600c908051906020019061101e92919061303b565b505050565b600061102d61181b565b905061103c6000801b82611229565b8061104f575061104e60075482611229565b5b61108e576040517f08c379a000000000000000000000000000000000000000000000000000000000815260040161108590613eca565b60405180910390fd5b600e60009054906101000a900460ff1615600e60006101000a81548160ff02191690831515021790555050565b6000806002600084815260200190815260200160002060009054906101000a900473ffffffffffffffffffffffffffffffffffffffff169050600073ffffffffffffffffffffffffffffffffffffffff168173ffffffffffffffffffffffffffffffffffffffff1603611163576040517f08c379a000000000000000000000000000000000000000000000000000000000815260040161115a90614132565b60405180910390fd5b80915050919050565b60008073ffffffffffffffffffffffffffffffffffffffff168273ffffffffffffffffffffffffffffffffffffffff16036111dc576040517f08c379a00000000000000000000000000000000000000000000000000000000081526004016111d3906141c4565b60405180910390fd5b600360008373ffffffffffffffffffffffffffffffffffffffff1673ffffffffffffffffffffffffffffffffffffffff168152602001908152602001600020549050919050565b60075481565b60006006600084815260200190815260200160002060000160008373ffffffffffffffffffffffffffffffffffffffff1673ffffffffffffffffffffffffffffffffffffffff16815260200190815260200160002060009054906101000a900460ff16905092915050565b6060600180546112a390613a16565b80601f01602080910402602001604051908101604052809291908181526020018280546112cf90613a16565b801561131c5780601f106112f15761010080835404028352916020019161131c565b820191906000526020600020905b8154815290600101906020018083116112ff57829003601f168201915b5050505050905090565b603360089054906101000a900467ffffffffffffffff1681565b6000801b81565b61135961135261181b565b83836121c4565b5050565b603360189054906101000a900467ffffffffffffffff1681565b61138861138261181b565b83611ba5565b6113c7576040517f08c379a00000000000000000000000000000000000000000000000000000000081526004016113be90613e5e565b60405180910390fd5b6113d384848484612330565b50505050565b6000603360089054906101000a900467ffffffffffffffff1667ffffffffffffffff16421180156114295750603360109054906101000a900467ffffffffffffffff1667ffffffffffffffff1642105b905090565b603360109054906101000a900467ffffffffffffffff1681565b6060611453826117af565b611492576040517f08c379a000000000000000000000000000000000000000000000000000000000815260040161148990614230565b60405180910390fd5b600e60009054906101000a900460ff1661153657600d80546114b390613a16565b80601f01602080910402602001604051908101604052809291908181526020018280546114df90613a16565b801561152c5780601f106115015761010080835404028352916020019161152c565b820191906000526020600020905b81548152906001019060200180831161150f57829003601f168201915b5050505050611568565b61153e61238c565b6115478361241e565b6040516020016115589291906142d8565b6040516020818303038152906040525b9050919050565b61157882610bde565b6115898161158461181b565b611ede565b611593838361205c565b505050565b60085481565b6000600560008473ffffffffffffffffffffffffffffffffffffffff1673ffffffffffffffffffffffffffffffffffffffff16815260200190815260200160002060008373ffffffffffffffffffffffffffffffffffffffff1673ffffffffffffffffffffffffffffffffffffffff16815260200190815260200160002060009054906101000a900460ff16905092915050565b600061163c61181b565b905061164b6000801b82611229565b8061165e575061165d60075482611229565b5b61169d576040517f08c379a000000000000000000000000000000000000000000000000000000000815260040161169490613eca565b60405180910390fd5b603761ffff16603360049054906101000a900461ffff1661ffff16106116f8576040517f08c379a00000000000000000000000000000000000000000000000000000000081526004016116ef90614353565b60405180910390fd5b60005b8261ffff168161ffff16101561172f5761171c8461171761257e565b611b87565b808061172790614373565b9150506116fb565b50505050565b60007f7965db0b000000000000000000000000000000000000000000000000000000007bffffffffffffffffffffffffffffffffffffffffffffffffffffffff1916827bffffffffffffffffffffffffffffffffffffffffffffffffffffffff191614806117a857506117a782612822565b5b9050919050565b60008073ffffffffffffffffffffffffffffffffffffffff166002600084815260200190815260200160002060009054906101000a900473ffffffffffffffffffffffffffffffffffffffff1673ffffffffffffffffffffffffffffffffffffffff1614159050919050565b600033905090565b816004600083815260200190815260200160002060006101000a81548173ffffffffffffffffffffffffffffffffffffffff021916908373ffffffffffffffffffffffffffffffffffffffff160217905550808273ffffffffffffffffffffffffffffffffffffffff16611896836110bb565b73ffffffffffffffffffffffffffffffffffffffff167f8c5be1e5ebec7d5bd14f71427d1e84f3dd0314c0f7b2291e5b200ac8c7c3b92560405160405180910390a45050565b60006001603360008282829054906101000a900461ffff166118fe9190613d48565b92506101000a81548161ffff021916908361ffff1602179055506000603360009054906101000a900461ffff16334260014361193a919061439d565b4060405160200161194e9493929190614491565b6040516020818303038152906040528051906020012060001c90506000603360009054906101000a900461ffff1661ffff166101f461198d919061439d565b9050600081116119d2576040517f08c379a00000000000000000000000000000000000000000000000000000000081526004016119c99061452b565b60405180910390fd5b600081836119e0919061457a565b90506000600f826101f481106119f9576119f86145ab565b5b601091828204019190066002029054906101000a900461ffff1661ffff1603611a225780611a56565b600f816101f48110611a3757611a366145ab565b5b601091828204019190066002029054906101000a900461ffff1661ffff165b9350603884611a6591906145da565b93506000600f600184611a78919061439d565b6101f48110611a8a57611a896145ab565b5b601091828204019190066002029054906101000a900461ffff1661ffff1614611af157600f600183611abc919061439d565b6101f48110611ace57611acd6145ab565b5b601091828204019190066002029054906101000a900461ffff1661ffff16611aff565b600182611afe919061439d565b5b600f826101f48110611b1457611b136145ab565b5b601091828204019190066002026101000a81548161ffff021916908361ffff1602179055506000600f600184611b4a919061439d565b6101f48110611b5c57611b5b6145ab565b5b601091828204019190066002026101000a81548161ffff021916908361ffff16021790555050505090565b611ba1828260405180602001604052806000815250612904565b5050565b6000611bb0826117af565b611bef576040517f08c379a0000000000000000000000000000000000000000000000000000000008152600401611be6906146a2565b60405180910390fd5b6000611bfa836110bb565b90508073ffffffffffffffffffffffffffffffffffffffff168473ffffffffffffffffffffffffffffffffffffffff161480611c6957508373ffffffffffffffffffffffffffffffffffffffff16611c5184610724565b73ffffffffffffffffffffffffffffffffffffffff16145b80611c7a5750611c79818561159e565b5b91505092915050565b8273ffffffffffffffffffffffffffffffffffffffff16611ca3826110bb565b73ffffffffffffffffffffffffffffffffffffffff1614611cf9576040517f08c379a0000000000000000000000000000000000000000000000000000000008152600401611cf090614734565b60405180910390fd5b600073ffffffffffffffffffffffffffffffffffffffff168273ffffffffffffffffffffffffffffffffffffffff1603611d68576040517f08c379a0000000000000000000000000000000000000000000000000000000008152600401611d5f906147c6565b60405180910390fd5b611d7383838361295f565b611d7e600082611823565b6001600360008573ffffffffffffffffffffffffffffffffffffffff1673ffffffffffffffffffffffffffffffffffffffff1681526020019081526020016000206000828254611dce919061439d565b925050819055506001600360008473ffffffffffffffffffffffffffffffffffffffff1673ffffffffffffffffffffffffffffffffffffffff1681526020019081526020016000206000828254611e2591906145da565b92505081905550816002600083815260200190815260200160002060006101000a81548173ffffffffffffffffffffffffffffffffffffffff021916908373ffffffffffffffffffffffffffffffffffffffff160217905550808273ffffffffffffffffffffffffffffffffffffffff168473ffffffffffffffffffffffffffffffffffffffff167fddf252ad1be2c89b69c2b068fc378daa952ba7f163c4a11628f55a4df523b3ef60405160405180910390a4505050565b611ee88282611229565b611f7757611f0d8173ffffffffffffffffffffffffffffffffffffffff166014612964565b611f1b8360001c6020612964565b604051602001611f2c92919061487e565b6040516020818303038152906040526040517f08c379a0000000000000000000000000000000000000000000000000000000008152600401611f6e9190613246565b60405180910390fd5b5050565b611f858282611229565b6120585760016006600084815260200190815260200160002060000160008373ffffffffffffffffffffffffffffffffffffffff1673ffffffffffffffffffffffffffffffffffffffff16815260200190815260200160002060006101000a81548160ff021916908315150217905550611ffd61181b565b73ffffffffffffffffffffffffffffffffffffffff168173ffffffffffffffffffffffffffffffffffffffff16837f2f8788117e7eff1d82e926ec794901d17c78024a50270940304540a733656f0d60405160405180910390a45b5050565b6120668282611229565b1561213a5760006006600084815260200190815260200160002060000160008373ffffffffffffffffffffffffffffffffffffffff1673ffffffffffffffffffffffffffffffffffffffff16815260200190815260200160002060006101000a81548160ff0219169083151502179055506120df61181b565b73ffffffffffffffffffffffffffffffffffffffff168173ffffffffffffffffffffffffffffffffffffffff16837ff6391f5c32d9c69d2a47ea670b442974b53935d1edc7fd64eb21e047a839171b60405160405180910390a45b5050565b6000600115156121b8858580806020026020016040519081016040528093929190818152602001838360200280828437600081840152601f19601f820116905080830192505050505050506009548560405160200161219d91906148b8565b60405160208183030381529060405280519060200120612ba0565b15151490509392505050565b8173ffffffffffffffffffffffffffffffffffffffff168373ffffffffffffffffffffffffffffffffffffffff1603612232576040517f08c379a00000000000000000000000000000000000000000000000000000000081526004016122299061491f565b60405180910390fd5b80600560008573ffffffffffffffffffffffffffffffffffffffff1673ffffffffffffffffffffffffffffffffffffffff16815260200190815260200160002060008473ffffffffffffffffffffffffffffffffffffffff1673ffffffffffffffffffffffffffffffffffffffff16815260200190815260200160002060006101000a81548160ff0219169083151502179055508173ffffffffffffffffffffffffffffffffffffffff168373ffffffffffffffffffffffffffffffffffffffff167f17307eab39ab6107e8899845ad3d59bd9653f200f220920489ca2b5937696c31836040516123239190613192565b60405180910390a3505050565b61233b848484611c83565b61234784848484612bb7565b612386576040517f08c379a000000000000000000000000000000000000000000000000000000000815260040161237d906149b1565b60405180910390fd5b50505050565b6060600c805461239b90613a16565b80601f01602080910402602001604051908101604052809291908181526020018280546123c790613a16565b80156124145780601f106123e957610100808354040283529160200191612414565b820191906000526020600020905b8154815290600101906020018083116123f757829003601f168201915b5050505050905090565b606060008203612465576040518060400160405280600181526020017f30000000000000000000000000000000000000000000000000000000000000008152509050612579565b600082905060005b60008214612497578080612480906149d1565b915050600a826124909190614a19565b915061246d565b60008167ffffffffffffffff8111156124b3576124b2613533565b5b6040519080825280601f01601f1916602001820160405280156124e55781602001600182028036833780820191505090505b5090505b60008514612572576001826124fe919061439d565b9150600a8561250d919061457a565b603061251991906145da565b60f81b81838151811061252f5761252e6145ab565b5b60200101907effffffffffffffffffffffffffffffffffffffffffffffffffffffffffffff1916908160001a905350600a8561256b9190614a19565b94506124e9565b8093505050505b919050565b60006001603360028282829054906101000a900461ffff166125a09190613d48565b92506101000a81548161ffff021916908361ffff1602179055506000603360029054906101000a900461ffff1633426001436125dc919061439d565b406040516020016125f09493929190614491565b6040516020818303038152906040528051906020012060001c90506000603360029054906101000a900461ffff1661ffff16603761262e919061439d565b905060008111612673576040517f08c379a000000000000000000000000000000000000000000000000000000000815260040161266a90614a96565b60405180910390fd5b60008183612681919061457a565b90506000602f8260378110612699576126986145ab565b5b601091828204019190066002029054906101000a900461ffff1661ffff16036126c257806126f5565b602f81603781106126d6576126d56145ab565b5b601091828204019190066002029054906101000a900461ffff1661ffff165b935060018461270491906145da565b93506000602f600184612717919061439d565b60378110612728576127276145ab565b5b601091828204019190066002029054906101000a900461ffff1661ffff161461278e57602f60018361275a919061439d565b6037811061276b5761276a6145ab565b5b601091828204019190066002029054906101000a900461ffff1661ffff1661279c565b60018261279b919061439d565b5b602f82603781106127b0576127af6145ab565b5b601091828204019190066002026101000a81548161ffff021916908361ffff1602179055506000602f6001846127e6919061439d565b603781106127f7576127f66145ab565b5b601091828204019190066002026101000a81548161ffff021916908361ffff16021790555050505090565b60007f80ac58cd000000000000000000000000000000000000000000000000000000007bffffffffffffffffffffffffffffffffffffffffffffffffffffffff1916827bffffffffffffffffffffffffffffffffffffffffffffffffffffffff191614806128ed57507f5b5e139f000000000000000000000000000000000000000000000000000000007bffffffffffffffffffffffffffffffffffffffffffffffffffffffff1916827bffffffffffffffffffffffffffffffffffffffffffffffffffffffff1916145b806128fd57506128fc82612d3e565b5b9050919050565b61290e8383612da8565b61291b6000848484612bb7565b61295a576040517f08c379a0000000000000000000000000000000000000000000000000000000008152600401612951906149b1565b60405180910390fd5b505050565b505050565b6060600060028360026129779190614ab6565b61298191906145da565b67ffffffffffffffff81111561299a57612999613533565b5b6040519080825280601f01601f1916602001820160405280156129cc5781602001600182028036833780820191505090505b5090507f300000000000000000000000000000000000000000000000000000000000000081600081518110612a0457612a036145ab565b5b60200101907effffffffffffffffffffffffffffffffffffffffffffffffffffffffffffff1916908160001a9053507f780000000000000000000000000000000000000000000000000000000000000081600181518110612a6857612a676145ab565b5b60200101907effffffffffffffffffffffffffffffffffffffffffffffffffffffffffffff1916908160001a90535060006001846002612aa89190614ab6565b612ab291906145da565b90505b6001811115612b52577f3031323334353637383961626364656600000000000000000000000000000000600f861660108110612af457612af36145ab565b5b1a60f81b828281518110612b0b57612b0a6145ab565b5b60200101907effffffffffffffffffffffffffffffffffffffffffffffffffffffffffffff1916908160001a905350600485901c945080612b4b90614b10565b9050612ab5565b5060008414612b96576040517f08c379a0000000000000000000000000000000000000000000000000000000008152600401612b8d90614b85565b60405180910390fd5b8091505092915050565b600082612bad8584612f75565b1490509392505050565b6000612bd88473ffffffffffffffffffffffffffffffffffffffff16613028565b15612d31578373ffffffffffffffffffffffffffffffffffffffff1663150b7a02612c0161181b565b8786866040518563ffffffff1660e01b8152600401612c239493929190614bfa565b6020604051808303816000875af1925050508015612c5f57506040513d601f19601f82011682018060405250810190612c5c9190614c5b565b60015b612ce1573d8060008114612c8f576040519150601f19603f3d011682016040523d82523d6000602084013e612c94565b606091505b506000815103612cd9576040517f08c379a0000000000000000000000000000000000000000000000000000000008152600401612cd0906149b1565b60405180910390fd5b805181602001fd5b63150b7a0260e01b7bffffffffffffffffffffffffffffffffffffffffffffffffffffffff1916817bffffffffffffffffffffffffffffffffffffffffffffffffffffffff191614915050612d36565b600190505b949350505050565b60007f01ffc9a7000000000000000000000000000000000000000000000000000000007bffffffffffffffffffffffffffffffffffffffffffffffffffffffff1916827bffffffffffffffffffffffffffffffffffffffffffffffffffffffff1916149050919050565b600073ffffffffffffffffffffffffffffffffffffffff168273ffffffffffffffffffffffffffffffffffffffff1603612e17576040517f08c379a0000000000000000000000000000000000000000000000000000000008152600401612e0e90614cd4565b60405180910390fd5b612e20816117af565b15612e60576040517f08c379a0000000000000000000000000000000000000000000000000000000008152600401612e5790614d40565b60405180910390fd5b612e6c6000838361295f565b6001600360008473ffffffffffffffffffffffffffffffffffffffff1673ffffffffffffffffffffffffffffffffffffffff1681526020019081526020016000206000828254612ebc91906145da565b92505081905550816002600083815260200190815260200160002060006101000a81548173ffffffffffffffffffffffffffffffffffffffff021916908373ffffffffffffffffffffffffffffffffffffffff160217905550808273ffffffffffffffffffffffffffffffffffffffff16600073ffffffffffffffffffffffffffffffffffffffff167fddf252ad1be2c89b69c2b068fc378daa952ba7f163c4a11628f55a4df523b3ef60405160405180910390a45050565b60008082905060005b845181101561301d576000858281518110612f9c57612f9b6145ab565b5b60200260200101519050808311612fdd578281604051602001612fc0929190614d60565b604051602081830303815290604052805190602001209250613009565b8083604051602001612ff0929190614d60565b6040516020818303038152906040528051906020012092505b508080613015906149d1565b915050612f7e565b508091505092915050565b600080823b905060008111915050919050565b82805461304790613a16565b90600052602060002090601f01602090048101928261306957600085556130b0565b82601f1061308257805160ff19168380011785556130b0565b828001600101855582156130b0579182015b828111156130af578251825591602001919060010190613094565b5b5090506130bd91906130c1565b5090565b5b808211156130da5760008160009055506001016130c2565b5090565b6000604051905090565b600080fd5b600080fd5b60007fffffffff0000000000000000000000000000000000000000000000000000000082169050919050565b613127816130f2565b811461313257600080fd5b50565b6000813590506131448161311e565b92915050565b6000602082840312156131605761315f6130e8565b5b600061316e84828501613135565b91505092915050565b60008115159050919050565b61318c81613177565b82525050565b60006020820190506131a76000830184613183565b92915050565b600081519050919050565b600082825260208201905092915050565b60005b838110156131e75780820151818401526020810190506131cc565b838111156131f6576000848401525b50505050565b6000601f19601f8301169050919050565b6000613218826131ad565b61322281856131b8565b93506132328185602086016131c9565b61323b816131fc565b840191505092915050565b60006020820190508181036000830152613260818461320d565b905092915050565b6000819050919050565b61327b81613268565b811461328657600080fd5b50565b60008135905061329881613272565b92915050565b6000602082840312156132b4576132b36130e8565b5b60006132c284828501613289565b91505092915050565b600073ffffffffffffffffffffffffffffffffffffffff82169050919050565b60006132f6826132cb565b9050919050565b613306816132eb565b82525050565b600060208201905061332160008301846132fd565b92915050565b613330816132eb565b811461333b57600080fd5b50565b60008135905061334d81613327565b92915050565b6000806040838503121561336a576133696130e8565b5b60006133788582860161333e565b925050602061338985828601613289565b9150509250929050565b600067ffffffffffffffff82169050919050565b6133b081613393565b82525050565b60006020820190506133cb60008301846133a7565b92915050565b600061ffff82169050919050565b6133e8816133d1565b82525050565b600060208201905061340360008301846133df565b92915050565b600080600060608486031215613422576134216130e8565b5b60006134308682870161333e565b93505060206134418682870161333e565b925050604061345286828701613289565b9150509250925092565b6000819050919050565b61346f8161345c565b811461347a57600080fd5b50565b60008135905061348c81613466565b92915050565b6000602082840312156134a8576134a76130e8565b5b60006134b68482850161347d565b91505092915050565b6134c88161345c565b82525050565b60006020820190506134e360008301846134bf565b92915050565b60008060408385031215613500576134ff6130e8565b5b600061350e8582860161347d565b925050602061351f8582860161333e565b9150509250929050565b600080fd5b600080fd5b7f4e487b7100000000000000000000000000000000000000000000000000000000600052604160045260246000fd5b61356b826131fc565b810181811067ffffffffffffffff8211171561358a57613589613533565b5b80604052505050565b600061359d6130de565b90506135a98282613562565b919050565b600067ffffffffffffffff8211156135c9576135c8613533565b5b6135d2826131fc565b9050602081019050919050565b82818337600083830152505050565b60006136016135fc846135ae565b613593565b90508281526020810184848401111561361d5761361c61352e565b5b6136288482856135df565b509392505050565b600082601f83011261364557613644613529565b5b81356136558482602086016135ee565b91505092915050565b600060208284031215613674576136736130e8565b5b600082013567ffffffffffffffff811115613692576136916130ed565b5b61369e84828501613630565b91505092915050565b600080fd5b600080fd5b60008083601f8401126136c7576136c6613529565b5b8235905067ffffffffffffffff8111156136e4576136e36136a7565b5b602083019150836020820283011115613700576136ff6136ac565b5b9250929050565b6000806020838503121561371e5761371d6130e8565b5b600083013567ffffffffffffffff81111561373c5761373b6130ed565b5b613748858286016136b1565b92509250509250929050565b60006020828403121561376a576137696130e8565b5b60006137788482850161333e565b91505092915050565b61378a81613268565b82525050565b60006020820190506137a56000830184613781565b92915050565b6137b481613177565b81146137bf57600080fd5b50565b6000813590506137d1816137ab565b92915050565b600080604083850312156137ee576137ed6130e8565b5b60006137fc8582860161333e565b925050602061380d858286016137c2565b9150509250929050565b600067ffffffffffffffff82111561383257613831613533565b5b61383b826131fc565b9050602081019050919050565b600061385b61385684613817565b613593565b9050828152602081018484840111156138775761387661352e565b5b6138828482856135df565b509392505050565b600082601f83011261389f5761389e613529565b5b81356138af848260208601613848565b91505092915050565b600080600080608085870312156138d2576138d16130e8565b5b60006138e08782880161333e565b94505060206138f18782880161333e565b935050604061390287828801613289565b925050606085013567ffffffffffffffff811115613923576139226130ed565b5b61392f8782880161388a565b91505092959194509250565b60008060408385031215613952576139516130e8565b5b60006139608582860161333e565b92505060206139718582860161333e565b9150509250929050565b613984816133d1565b811461398f57600080fd5b50565b6000813590506139a18161397b565b92915050565b600080604083850312156139be576139bd6130e8565b5b60006139cc8582860161333e565b92505060206139dd85828601613992565b9150509250929050565b7f4e487b7100000000000000000000000000000000000000000000000000000000600052602260045260246000fd5b60006002820490506001821680613a2e57607f821691505b602082108103613a4157613a406139e7565b5b50919050565b7f4552433732313a20617070726f76656420717565727920666f72206e6f6e657860008201527f697374656e7420746f6b656e0000000000000000000000000000000000000000602082015250565b6000613aa3602c836131b8565b9150613aae82613a47565b604082019050919050565b60006020820190508181036000830152613ad281613a96565b9050919050565b7f4552433732313a20617070726f76616c20746f2063757272656e74206f776e6560008201527f7200000000000000000000000000000000000000000000000000000000000000602082015250565b6000613b356021836131b8565b9150613b4082613ad9565b604082019050919050565b60006020820190508181036000830152613b6481613b28565b9050919050565b7f4552433732313a20617070726f76652063616c6c6572206973206e6f74206f7760008201527f6e6572206e6f7220617070726f76656420666f7220616c6c0000000000000000602082015250565b6000613bc76038836131b8565b9150613bd282613b6b565b604082019050919050565b60006020820190508181036000830152613bf681613bba565b9050919050565b7f5055424c49435f53414c455f494e414354495645000000000000000000000000600082015250565b6000613c336014836131b8565b9150613c3e82613bfd565b602082019050919050565b60006020820190508181036000830152613c6281613c26565b9050919050565b600060ff82169050919050565b7f4e487b7100000000000000000000000000000000000000000000000000000000600052601160045260246000fd5b6000613cb082613c69565b9150613cbb83613c69565b92508260ff03821115613cd157613cd0613c76565b5b828201905092915050565b7f5055424c49435f544f4b454e5f4c494d49540000000000000000000000000000600082015250565b6000613d126012836131b8565b9150613d1d82613cdc565b602082019050919050565b60006020820190508181036000830152613d4181613d05565b9050919050565b6000613d53826133d1565b9150613d5e836133d1565b92508261ffff03821115613d7557613d74613c76565b5b828201905092915050565b7f455843454544535f434f4c4c454354494f4e5f53495a45000000000000000000600082015250565b6000613db66017836131b8565b9150613dc182613d80565b602082019050919050565b60006020820190508181036000830152613de581613da9565b9050919050565b7f4552433732313a207472616e736665722063616c6c6572206973206e6f74206f60008201527f776e6572206e6f7220617070726f766564000000000000000000000000000000602082015250565b6000613e486031836131b8565b9150613e5382613dec565b604082019050919050565b60006020820190508181036000830152613e7781613e3b565b9050919050565b7f4d75737420626520616e2061646d696e00000000000000000000000000000000600082015250565b6000613eb46010836131b8565b9150613ebf82613e7e565b602082019050919050565b60006020820190508181036000830152613ee381613ea7565b9050919050565b7f416363657373436f6e74726f6c3a2063616e206f6e6c792072656e6f756e636560008201527f20726f6c657320666f722073656c660000000000000000000000000000000000602082015250565b6000613f46602f836131b8565b9150613f5182613eea565b604082019050919050565b60006020820190508181036000830152613f7581613f39565b9050919050565b7f50524553414c455f494e41435449564500000000000000000000000000000000600082015250565b6000613fb26010836131b8565b9150613fbd82613f7c565b602082019050919050565b60006020820190508181036000830152613fe181613fa5565b9050919050565b7f50524553414c455f4e4f545f5645524946494544000000000000000000000000600082015250565b600061401e6014836131b8565b915061402982613fe8565b602082019050919050565b6000602082019050818103600083015261404d81614011565b9050919050565b7f57484954454c4953545f544f4b454e5f434c41494d4544000000000000000000600082015250565b600061408a6017836131b8565b915061409582614054565b602082019050919050565b600060208201905081810360008301526140b98161407d565b9050919050565b7f4552433732313a206f776e657220717565727920666f72206e6f6e657869737460008201527f656e7420746f6b656e0000000000000000000000000000000000000000000000602082015250565b600061411c6029836131b8565b9150614127826140c0565b604082019050919050565b6000602082019050818103600083015261414b8161410f565b9050919050565b7f4552433732313a2062616c616e636520717565727920666f7220746865207a6560008201527f726f206164647265737300000000000000000000000000000000000000000000602082015250565b60006141ae602a836131b8565b91506141b982614152565b604082019050919050565b600060208201905081810360008301526141dd816141a1565b9050919050565b7f494e56414c49445f494400000000000000000000000000000000000000000000600082015250565b600061421a600a836131b8565b9150614225826141e4565b602082019050919050565b600060208201905081810360008301526142498161420d565b9050919050565b600081905092915050565b6000614266826131ad565b6142708185614250565b93506142808185602086016131c9565b80840191505092915050565b7f2e6a736f6e000000000000000000000000000000000000000000000000000000600082015250565b60006142c2600583614250565b91506142cd8261428c565b600582019050919050565b60006142e4828561425b565b91506142f0828461425b565b91506142fb826142b5565b91508190509392505050565b7f41697264726f70206c696d697420726561636865640000000000000000000000600082015250565b600061433d6015836131b8565b915061434882614307565b602082019050919050565b6000602082019050818103600083015261436c81614330565b9050919050565b600061437e826133d1565b915061ffff820361439257614391613c76565b5b600182019050919050565b60006143a882613268565b91506143b383613268565b9250828210156143c6576143c5613c76565b5b828203905092915050565b60008160f01b9050919050565b60006143e9826143d1565b9050919050565b6144016143fc826133d1565b6143de565b82525050565b60008160601b9050919050565b600061441f82614407565b9050919050565b600061443182614414565b9050919050565b614449614444826132eb565b614426565b82525050565b6000819050919050565b61446a61446582613268565b61444f565b82525050565b6000819050919050565b61448b6144868261345c565b614470565b82525050565b600061449d82876143f0565b6002820191506144ad8286614438565b6014820191506144bd8285614459565b6020820191506144cd828461447a565b60208201915081905095945050505050565b7f6e6f205f636f6d6d756e697479496473206c6566740000000000000000000000600082015250565b60006145156015836131b8565b9150614520826144df565b602082019050919050565b6000602082019050818103600083015261454481614508565b9050919050565b7f4e487b7100000000000000000000000000000000000000000000000000000000600052601260045260246000fd5b600061458582613268565b915061459083613268565b9250826145a05761459f61454b565b5b828206905092915050565b7f4e487b7100000000000000000000000000000000000000000000000000000000600052603260045260246000fd5b60006145e582613268565b91506145f083613268565b9250827fffffffffffffffffffffffffffffffffffffffffffffffffffffffffffffffff0382111561462557614624613c76565b5b828201905092915050565b7f4552433732313a206f70657261746f7220717565727920666f72206e6f6e657860008201527f697374656e7420746f6b656e0000000000000000000000000000000000000000602082015250565b600061468c602c836131b8565b915061469782614630565b604082019050919050565b600060208201905081810360008301526146bb8161467f565b9050919050565b7f4552433732313a207472616e73666572206f6620746f6b656e2074686174206960008201527f73206e6f74206f776e0000000000000000000000000000000000000000000000602082015250565b600061471e6029836131b8565b9150614729826146c2565b604082019050919050565b6000602082019050818103600083015261474d81614711565b9050919050565b7f4552433732313a207472616e7366657220746f20746865207a65726f2061646460008201527f7265737300000000000000000000000000000000000000000000000000000000602082015250565b60006147b06024836131b8565b91506147bb82614754565b604082019050919050565b600060208201905081810360008301526147df816147a3565b9050919050565b7f416363657373436f6e74726f6c3a206163636f756e7420000000000000000000600082015250565b600061481c601783614250565b9150614827826147e6565b601782019050919050565b7f206973206d697373696e6720726f6c6520000000000000000000000000000000600082015250565b6000614868601183614250565b915061487382614832565b601182019050919050565b60006148898261480f565b9150614895828561425b565b91506148a08261485b565b91506148ac828461425b565b91508190509392505050565b60006148c48284614438565b60148201915081905092915050565b7f4552433732313a20617070726f766520746f2063616c6c657200000000000000600082015250565b60006149096019836131b8565b9150614914826148d3565b602082019050919050565b60006020820190508181036000830152614938816148fc565b9050919050565b7f4552433732313a207472616e7366657220746f206e6f6e20455243373231526560008201527f63656976657220696d706c656d656e7465720000000000000000000000000000602082015250565b600061499b6032836131b8565b91506149a68261493f565b604082019050919050565b600060208201905081810360008301526149ca8161498e565b9050919050565b60006149dc82613268565b91507fffffffffffffffffffffffffffffffffffffffffffffffffffffffffffffffff8203614a0e57614a0d613c76565b5b600182019050919050565b6000614a2482613268565b9150614a2f83613268565b925082614a3f57614a3e61454b565b5b828204905092915050565b7f6e6f205f7465616d496473206c65667400000000000000000000000000000000600082015250565b6000614a806010836131b8565b9150614a8b82614a4a565b602082019050919050565b60006020820190508181036000830152614aaf81614a73565b9050919050565b6000614ac182613268565b9150614acc83613268565b9250817fffffffffffffffffffffffffffffffffffffffffffffffffffffffffffffffff0483118215151615614b0557614b04613c76565b5b828202905092915050565b6000614b1b82613268565b915060008203614b2e57614b2d613c76565b5b600182039050919050565b7f537472696e67733a20686578206c656e67746820696e73756666696369656e74600082015250565b6000614b6f6020836131b8565b9150614b7a82614b39565b602082019050919050565b60006020820190508181036000830152614b9e81614b62565b9050919050565b600081519050919050565b600082825260208201905092915050565b6000614bcc82614ba5565b614bd68185614bb0565b9350614be68185602086016131c9565b614bef816131fc565b840191505092915050565b6000608082019050614c0f60008301876132fd565b614c1c60208301866132fd565b614c296040830185613781565b8181036060830152614c3b8184614bc1565b905095945050505050565b600081519050614c558161311e565b92915050565b600060208284031215614c7157614c706130e8565b5b6000614c7f84828501614c46565b91505092915050565b7f4552433732313a206d696e7420746f20746865207a65726f2061646472657373600082015250565b6000614cbe6020836131b8565b9150614cc982614c88565b602082019050919050565b60006020820190508181036000830152614ced81614cb1565b9050919050565b7f4552433732313a20746f6b656e20616c7265616479206d696e74656400000000600082015250565b6000614d2a601c836131b8565b9150614d3582614cf4565b602082019050919050565b60006020820190508181036000830152614d5981614d1d565b9050919050565b6000614d6c828561447a565b602082019150614d7c828461447a565b602082019150819050939250505056fea264697066735822122010fd2683828aac5c37c1dd3698fc043dc92d01fb1fe94c573d2bb32bda7ddbda64736f6c634300080d0033",
  "linkReferences": {},
  "deployedLinkReferences": {}
}