{
  "_format": "hh-sol-artifact-1",
  "contractName": "TemplateNFT",
  "sourceName": "contracts/TemplateNFT.sol",
  "abi": [
    {
      "inputs": [
        {
          "internalType": "bytes32",
          "name": "_whitelistMerkleRoot",
          "type": "bytes32"
        },
        {
          "internalType": "string",
          "name": "tempUri",
          "type": "string"
        }
      ],
      "stateMutability": "nonpayable",
      "type": "constructor"
    },
    {
      "inputs": [],
      "name": "ApprovalCallerNotOwnerNorApproved",
      "type": "error"
    },
    {
      "inputs": [],
      "name": "ApprovalQueryForNonexistentToken",
      "type": "error"
    },
    {
      "inputs": [],
      "name": "ApprovalToCurrentOwner",
      "type": "error"
    },
    {
      "inputs": [],
      "name": "ApproveToCaller",
      "type": "error"
    },
    {
      "inputs": [],
      "name": "BalanceQueryForZeroAddress",
      "type": "error"
    },
    {
      "inputs": [],
      "name": "MintToZeroAddress",
      "type": "error"
    },
    {
      "inputs": [],
      "name": "MintZeroQuantity",
      "type": "error"
    },
    {
      "inputs": [],
      "name": "OwnerQueryForNonexistentToken",
      "type": "error"
    },
    {
      "inputs": [],
      "name": "TransferCallerNotOwnerNorApproved",
      "type": "error"
    },
    {
      "inputs": [],
      "name": "TransferFromIncorrectOwner",
      "type": "error"
    },
    {
      "inputs": [],
      "name": "TransferToNonERC721ReceiverImplementer",
      "type": "error"
    },
    {
      "inputs": [],
      "name": "TransferToZeroAddress",
      "type": "error"
    },
    {
      "anonymous": false,
      "inputs": [
        {
          "indexed": true,
          "internalType": "address",
          "name": "owner",
          "type": "address"
        },
        {
          "indexed": true,
          "internalType": "address",
          "name": "approved",
          "type": "address"
        },
        {
          "indexed": true,
          "internalType": "uint256",
          "name": "tokenId",
          "type": "uint256"
        }
      ],
      "name": "Approval",
      "type": "event"
    },
    {
      "anonymous": false,
      "inputs": [
        {
          "indexed": true,
          "internalType": "address",
          "name": "owner",
          "type": "address"
        },
        {
          "indexed": true,
          "internalType": "address",
          "name": "operator",
          "type": "address"
        },
        {
          "indexed": false,
          "internalType": "bool",
          "name": "approved",
          "type": "bool"
        }
      ],
      "name": "ApprovalForAll",
      "type": "event"
    },
    {
      "anonymous": false,
      "inputs": [
        {
          "indexed": true,
          "internalType": "bytes32",
          "name": "role",
          "type": "bytes32"
        },
        {
          "indexed": true,
          "internalType": "bytes32",
          "name": "previousAdminRole",
          "type": "bytes32"
        },
        {
          "indexed": true,
          "internalType": "bytes32",
          "name": "newAdminRole",
          "type": "bytes32"
        }
      ],
      "name": "RoleAdminChanged",
      "type": "event"
    },
    {
      "anonymous": false,
      "inputs": [
        {
          "indexed": true,
          "internalType": "bytes32",
          "name": "role",
          "type": "bytes32"
        },
        {
          "indexed": true,
          "internalType": "address",
          "name": "account",
          "type": "address"
        },
        {
          "indexed": true,
          "internalType": "address",
          "name": "sender",
          "type": "address"
        }
      ],
      "name": "RoleGranted",
      "type": "event"
    },
    {
      "anonymous": false,
      "inputs": [
        {
          "indexed": true,
          "internalType": "bytes32",
          "name": "role",
          "type": "bytes32"
        },
        {
          "indexed": true,
          "internalType": "address",
          "name": "account",
          "type": "address"
        },
        {
          "indexed": true,
          "internalType": "address",
          "name": "sender",
          "type": "address"
        }
      ],
      "name": "RoleRevoked",
      "type": "event"
    },
    {
      "anonymous": false,
      "inputs": [
        {
          "indexed": true,
          "internalType": "address",
          "name": "from",
          "type": "address"
        },
        {
          "indexed": true,
          "internalType": "address",
          "name": "to",
          "type": "address"
        },
        {
          "indexed": true,
          "internalType": "uint256",
          "name": "tokenId",
          "type": "uint256"
        }
      ],
      "name": "Transfer",
      "type": "event"
    },
    {
      "inputs": [],
      "name": "ADMIN_ROLE",
      "outputs": [
        {
          "internalType": "bytes32",
          "name": "",
          "type": "bytes32"
        }
      ],
      "stateMutability": "view",
      "type": "function"
    },
    {
      "inputs": [],
      "name": "AIRDROP_LIMIT",
      "outputs": [
        {
          "internalType": "uint256",
          "name": "",
          "type": "uint256"
        }
      ],
      "stateMutability": "view",
      "type": "function"
    },
    {
      "inputs": [],
      "name": "DEFAULT_ADMIN_ROLE",
      "outputs": [
        {
          "internalType": "bytes32",
          "name": "",
          "type": "bytes32"
        }
      ],
      "stateMutability": "view",
      "type": "function"
    },
    {
      "inputs": [],
      "name": "MOD_ROLE",
      "outputs": [
        {
          "internalType": "bytes32",
          "name": "",
          "type": "bytes32"
        }
      ],
      "stateMutability": "view",
      "type": "function"
    },
    {
      "inputs": [
        {
          "internalType": "address",
          "name": "to",
          "type": "address"
        }
      ],
      "name": "airdrop",
      "outputs": [],
      "stateMutability": "nonpayable",
      "type": "function"
    },
    {
      "inputs": [
        {
          "internalType": "address",
          "name": "to",
          "type": "address"
        },
        {
          "internalType": "uint256",
          "name": "tokenId",
          "type": "uint256"
        }
      ],
      "name": "approve",
      "outputs": [],
      "stateMutability": "nonpayable",
      "type": "function"
    },
    {
      "inputs": [
        {
          "internalType": "address",
          "name": "owner",
          "type": "address"
        }
      ],
      "name": "balanceOf",
      "outputs": [
        {
          "internalType": "uint256",
          "name": "",
          "type": "uint256"
        }
      ],
      "stateMutability": "view",
      "type": "function"
    },
    {
      "inputs": [],
      "name": "finalizeLists",
      "outputs": [],
      "stateMutability": "nonpayable",
      "type": "function"
    },
    {
      "inputs": [],
      "name": "finalizeMetadata",
      "outputs": [],
      "stateMutability": "nonpayable",
      "type": "function"
    },
    {
      "inputs": [],
      "name": "finalizeTimes",
      "outputs": [],
      "stateMutability": "nonpayable",
      "type": "function"
    },
    {
      "inputs": [
        {
          "internalType": "uint256",
          "name": "tokenId",
          "type": "uint256"
        }
      ],
      "name": "getApproved",
      "outputs": [
        {
          "internalType": "address",
          "name": "",
          "type": "address"
        }
      ],
      "stateMutability": "view",
      "type": "function"
    },
    {
      "inputs": [
        {
          "internalType": "bytes32",
          "name": "role",
          "type": "bytes32"
        }
      ],
      "name": "getRoleAdmin",
      "outputs": [
        {
          "internalType": "bytes32",
          "name": "",
          "type": "bytes32"
        }
      ],
      "stateMutability": "view",
      "type": "function"
    },
    {
      "inputs": [
        {
          "internalType": "bytes32",
          "name": "role",
          "type": "bytes32"
        },
        {
          "internalType": "address",
          "name": "account",
          "type": "address"
        }
      ],
      "name": "grantRole",
      "outputs": [],
      "stateMutability": "nonpayable",
      "type": "function"
    },
    {
      "inputs": [
        {
          "internalType": "bytes32",
          "name": "role",
          "type": "bytes32"
        },
        {
          "internalType": "address",
          "name": "account",
          "type": "address"
        }
      ],
      "name": "hasRole",
      "outputs": [
        {
          "internalType": "bool",
          "name": "",
          "type": "bool"
        }
      ],
      "stateMutability": "view",
      "type": "function"
    },
    {
      "inputs": [
        {
          "internalType": "address",
          "name": "owner",
          "type": "address"
        },
        {
          "internalType": "address",
          "name": "operator",
          "type": "address"
        }
      ],
      "name": "isApprovedForAll",
      "outputs": [
        {
          "internalType": "bool",
          "name": "",
          "type": "bool"
        }
      ],
      "stateMutability": "view",
      "type": "function"
    },
    {
      "inputs": [],
      "name": "isPublicSaleActive",
      "outputs": [
        {
          "internalType": "bool",
          "name": "",
          "type": "bool"
        }
      ],
      "stateMutability": "view",
      "type": "function"
    },
    {
      "inputs": [],
      "name": "isWhitelistSaleActive",
      "outputs": [
        {
          "internalType": "bool",
          "name": "",
          "type": "bool"
        }
      ],
      "stateMutability": "view",
      "type": "function"
    },
    {
      "inputs": [],
      "name": "listsFinalized",
      "outputs": [
        {
          "internalType": "bool",
          "name": "",
          "type": "bool"
        }
      ],
      "stateMutability": "view",
      "type": "function"
    },
    {
      "inputs": [],
      "name": "metadataFinalized",
      "outputs": [
        {
          "internalType": "bool",
          "name": "",
          "type": "bool"
        }
      ],
      "stateMutability": "view",
      "type": "function"
    },
    {
      "inputs": [
        {
          "internalType": "uint256",
          "name": "quantity",
          "type": "uint256"
        }
      ],
      "name": "mint",
      "outputs": [],
      "stateMutability": "payable",
      "type": "function"
    },
    {
      "inputs": [],
      "name": "name",
      "outputs": [
        {
          "internalType": "string",
          "name": "",
          "type": "string"
        }
      ],
      "stateMutability": "view",
      "type": "function"
    },
    {
      "inputs": [
        {
          "internalType": "uint256",
          "name": "tokenId",
          "type": "uint256"
        }
      ],
      "name": "ownerOf",
      "outputs": [
        {
          "internalType": "address",
          "name": "",
          "type": "address"
        }
      ],
      "stateMutability": "view",
      "type": "function"
    },
    {
      "inputs": [],
      "name": "publicEnd",
      "outputs": [
        {
          "internalType": "uint256",
          "name": "",
          "type": "uint256"
        }
      ],
      "stateMutability": "view",
      "type": "function"
    },
    {
      "inputs": [],
      "name": "publicStart",
      "outputs": [
        {
          "internalType": "uint256",
          "name": "",
          "type": "uint256"
        }
      ],
      "stateMutability": "view",
      "type": "function"
    },
    {
      "inputs": [
        {
          "internalType": "bytes32",
          "name": "role",
          "type": "bytes32"
        },
        {
          "internalType": "address",
          "name": "account",
          "type": "address"
        }
      ],
      "name": "renounceRole",
      "outputs": [],
      "stateMutability": "nonpayable",
      "type": "function"
    },
    {
      "inputs": [],
      "name": "revealed",
      "outputs": [
        {
          "internalType": "bool",
          "name": "",
          "type": "bool"
        }
      ],
      "stateMutability": "view",
      "type": "function"
    },
    {
      "inputs": [
        {
          "internalType": "bytes32",
          "name": "role",
          "type": "bytes32"
        },
        {
          "internalType": "address",
          "name": "account",
          "type": "address"
        }
      ],
      "name": "revokeRole",
      "outputs": [],
      "stateMutability": "nonpayable",
      "type": "function"
    },
    {
      "inputs": [
        {
          "internalType": "address",
          "name": "from",
          "type": "address"
        },
        {
          "internalType": "address",
          "name": "to",
          "type": "address"
        },
        {
          "internalType": "uint256",
          "name": "tokenId",
          "type": "uint256"
        }
      ],
      "name": "safeTransferFrom",
      "outputs": [],
      "stateMutability": "nonpayable",
      "type": "function"
    },
    {
      "inputs": [
        {
          "internalType": "address",
          "name": "from",
          "type": "address"
        },
        {
          "internalType": "address",
          "name": "to",
          "type": "address"
        },
        {
          "internalType": "uint256",
          "name": "tokenId",
          "type": "uint256"
        },
        {
          "internalType": "bytes",
          "name": "_data",
          "type": "bytes"
        }
      ],
      "name": "safeTransferFrom",
      "outputs": [],
      "stateMutability": "nonpayable",
      "type": "function"
    },
    {
      "inputs": [],
      "name": "senderIsAdmin",
      "outputs": [
        {
          "internalType": "bool",
          "name": "",
          "type": "bool"
        }
      ],
      "stateMutability": "view",
      "type": "function"
    },
    {
      "inputs": [],
      "name": "senderIsMod",
      "outputs": [
        {
          "internalType": "bool",
          "name": "",
          "type": "bool"
        }
      ],
      "stateMutability": "view",
      "type": "function"
    },
    {
      "inputs": [
        {
          "internalType": "address",
          "name": "operator",
          "type": "address"
        },
        {
          "internalType": "bool",
          "name": "approved",
          "type": "bool"
        }
      ],
      "name": "setApprovalForAll",
      "outputs": [],
      "stateMutability": "nonpayable",
      "type": "function"
    },
    {
      "inputs": [
        {
          "internalType": "string",
          "name": "baseUri",
          "type": "string"
        }
      ],
      "name": "setBaseURI",
      "outputs": [],
      "stateMutability": "nonpayable",
      "type": "function"
    },
    {
      "inputs": [
        {
          "internalType": "string",
          "name": "tempUri",
          "type": "string"
        }
      ],
      "name": "setPlaceholderURI",
      "outputs": [],
      "stateMutability": "nonpayable",
      "type": "function"
    },
    {
      "inputs": [
        {
          "internalType": "uint256",
          "name": "_publicStartTime",
          "type": "uint256"
        },
        {
          "internalType": "uint256",
          "name": "_publicEndTime",
          "type": "uint256"
        }
      ],
      "name": "setPublicSaleTimes",
      "outputs": [],
      "stateMutability": "nonpayable",
      "type": "function"
    },
    {
      "inputs": [
        {
          "internalType": "bytes32",
          "name": "root",
          "type": "bytes32"
        }
      ],
      "name": "setWhitelistMerkleRoot",
      "outputs": [],
      "stateMutability": "nonpayable",
      "type": "function"
    },
    {
      "inputs": [
        {
          "internalType": "uint256",
          "name": "_whitelistStartTime",
          "type": "uint256"
        },
        {
          "internalType": "uint256",
          "name": "_whitelistEndTime",
          "type": "uint256"
        }
      ],
      "name": "setWhitelistTimes",
      "outputs": [],
      "stateMutability": "nonpayable",
      "type": "function"
    },
    {
      "inputs": [
        {
          "internalType": "bytes4",
          "name": "interfaceId",
          "type": "bytes4"
        }
      ],
      "name": "supportsInterface",
      "outputs": [
        {
          "internalType": "bool",
          "name": "",
          "type": "bool"
        }
      ],
      "stateMutability": "view",
      "type": "function"
    },
    {
      "inputs": [],
      "name": "symbol",
      "outputs": [
        {
          "internalType": "string",
          "name": "",
          "type": "string"
        }
      ],
      "stateMutability": "view",
      "type": "function"
    },
    {
      "inputs": [],
      "name": "timesFinalized",
      "outputs": [
        {
          "internalType": "bool",
          "name": "",
          "type": "bool"
        }
      ],
      "stateMutability": "view",
      "type": "function"
    },
    {
      "inputs": [],
      "name": "togglePublic",
      "outputs": [],
      "stateMutability": "nonpayable",
      "type": "function"
    },
    {
      "inputs": [],
      "name": "toggleReveal",
      "outputs": [],
      "stateMutability": "nonpayable",
      "type": "function"
    },
    {
      "inputs": [],
      "name": "toggleWhitelistSale",
      "outputs": [],
      "stateMutability": "nonpayable",
      "type": "function"
    },
    {
      "inputs": [
        {
          "internalType": "uint256",
          "name": "id",
          "type": "uint256"
        }
      ],
      "name": "tokenURI",
      "outputs": [
        {
          "internalType": "string",
          "name": "",
          "type": "string"
        }
      ],
      "stateMutability": "view",
      "type": "function"
    },
    {
      "inputs": [],
      "name": "totalSupply",
      "outputs": [
        {
          "internalType": "uint256",
          "name": "",
          "type": "uint256"
        }
      ],
      "stateMutability": "view",
      "type": "function"
    },
    {
      "inputs": [
        {
          "internalType": "address",
          "name": "from",
          "type": "address"
        },
        {
          "internalType": "address",
          "name": "to",
          "type": "address"
        },
        {
          "internalType": "uint256",
          "name": "tokenId",
          "type": "uint256"
        }
      ],
      "name": "transferFrom",
      "outputs": [],
      "stateMutability": "nonpayable",
      "type": "function"
    },
    {
      "inputs": [
        {
          "internalType": "bytes32[]",
          "name": "_merkleProof",
          "type": "bytes32[]"
        },
        {
          "internalType": "address",
          "name": "addr",
          "type": "address"
        }
      ],
      "name": "verifyWhitelist",
      "outputs": [
        {
          "internalType": "bool",
          "name": "",
          "type": "bool"
        }
      ],
      "stateMutability": "view",
      "type": "function"
    },
    {
      "inputs": [],
      "name": "whitelistEnd",
      "outputs": [
        {
          "internalType": "uint256",
          "name": "",
          "type": "uint256"
        }
      ],
      "stateMutability": "view",
      "type": "function"
    },
    {
      "inputs": [],
      "name": "whitelistMerkleRoot",
      "outputs": [
        {
          "internalType": "bytes32",
          "name": "",
          "type": "bytes32"
        }
      ],
      "stateMutability": "view",
      "type": "function"
    },
    {
      "inputs": [
        {
          "internalType": "bytes32[]",
          "name": "_merkleProof",
          "type": "bytes32[]"
        }
      ],
      "name": "whitelistMint",
      "outputs": [],
      "stateMutability": "nonpayable",
      "type": "function"
    },
    {
      "inputs": [],
      "name": "whitelistStart",
      "outputs": [
        {
          "internalType": "uint256",
          "name": "",
          "type": "uint256"
        }
      ],
      "stateMutability": "view",
      "type": "function"
    }
  ],
  "bytecode": "0x60806040527fa49807205ce4d355092ef5a8a18f56e8913cf4a201fbe287825b095693c217756009557f950b8f2d7415defaee398bb4898e8e094a64c725873b81952b7ab9f08d70efb3600a553480156200005957600080fd5b50604051620056ec380380620056ec83398181016040528101906200007f9190620005d7565b6040518060400160405280600b81526020017f54656d706c6174654e46540000000000000000000000000000000000000000008152506040518060400160405280600381526020017f54465400000000000000000000000000000000000000000000000000000000008152508160029080519060200190620001039291906200034f565b5080600390805190602001906200011c9291906200034f565b50505081600b8190555080600e90805190602001906200013e9291906200034f565b50610708426200014f919062000676565b60108190555061384060105462000167919062000676565b60118190555060115460128190555061384060125462000188919062000676565b6013819055506000620001a0620001d460201b60201c565b9050620001b76000801b82620001dc60201b60201c565b620001cb60095482620001dc60201b60201c565b50505062000737565b600033905090565b620001ee8282620001f260201b60201c565b5050565b620002048282620002e460201b60201c565b620002e05760016008600084815260200190815260200160002060000160008373ffffffffffffffffffffffffffffffffffffffff1673ffffffffffffffffffffffffffffffffffffffff16815260200190815260200160002060006101000a81548160ff02191690831515021790555062000285620001d460201b60201c565b73ffffffffffffffffffffffffffffffffffffffff168173ffffffffffffffffffffffffffffffffffffffff16837f2f8788117e7eff1d82e926ec794901d17c78024a50270940304540a733656f0d60405160405180910390a45b5050565b60006008600084815260200190815260200160002060000160008373ffffffffffffffffffffffffffffffffffffffff1673ffffffffffffffffffffffffffffffffffffffff16815260200190815260200160002060009054906101000a900460ff16905092915050565b8280546200035d9062000702565b90600052602060002090601f016020900481019282620003815760008555620003cd565b82601f106200039c57805160ff1916838001178555620003cd565b82800160010185558215620003cd579182015b82811115620003cc578251825591602001919060010190620003af565b5b509050620003dc9190620003e0565b5090565b5b80821115620003fb576000816000905550600101620003e1565b5090565b6000604051905090565b600080fd5b600080fd5b6000819050919050565b620004288162000413565b81146200043457600080fd5b50565b60008151905062000448816200041d565b92915050565b600080fd5b600080fd5b6000601f19601f8301169050919050565b7f4e487b7100000000000000000000000000000000000000000000000000000000600052604160045260246000fd5b620004a38262000458565b810181811067ffffffffffffffff82111715620004c557620004c462000469565b5b80604052505050565b6000620004da620003ff565b9050620004e8828262000498565b919050565b600067ffffffffffffffff8211156200050b576200050a62000469565b5b620005168262000458565b9050602081019050919050565b60005b838110156200054357808201518184015260208101905062000526565b8381111562000553576000848401525b50505050565b6000620005706200056a84620004ed565b620004ce565b9050828152602081018484840111156200058f576200058e62000453565b5b6200059c84828562000523565b509392505050565b600082601f830112620005bc57620005bb6200044e565b5b8151620005ce84826020860162000559565b91505092915050565b60008060408385031215620005f157620005f062000409565b5b6000620006018582860162000437565b925050602083015167ffffffffffffffff8111156200062557620006246200040e565b5b6200063385828601620005a4565b9150509250929050565b6000819050919050565b7f4e487b7100000000000000000000000000000000000000000000000000000000600052601160045260246000fd5b600062000683826200063d565b915062000690836200063d565b9250827fffffffffffffffffffffffffffffffffffffffffffffffffffffffffffffffff03821115620006c857620006c762000647565b5b828201905092915050565b7f4e487b7100000000000000000000000000000000000000000000000000000000600052602260045260246000fd5b600060028204905060018216806200071b57607f821691505b602082108103620007315762000730620006d3565b5b50919050565b614fa580620007476000396000f3fe6080604052600436106102e45760003560e01c806375b238fc11610190578063a7844762116100dc578063c87b56dd11610095578063d547741f1161006f578063d547741f14610acf578063e932406f14610af8578063e985e9c514610b23578063f4a560a514610b60576102e4565b8063c87b56dd14610a50578063cf9f8e2114610a8d578063d4dd7b8114610ab8576102e4565b8063a784476214610952578063aa98e0c61461097d578063b88d4fde146109a8578063b98451cf146109d1578063bd32fb66146109fc578063bfb6e0e714610a25576102e4565b8063994d396911610149578063a1afe16811610123578063a1afe168146108aa578063a217fddf146108d3578063a22cb465146108fe578063a5f4c6ff14610927576102e4565b8063994d39691461083857806399c9c36d14610863578063a0712d681461088e576102e4565b806375b238fc1461073a578063919437081461076557806391d1485414610790578063955e16af146107cd57806395d89b41146107f6578063981d877114610821576102e4565b8063305ac3671161024f57806355f804b3116102085780635b8ad429116101e25780635b8ad4291461067e578063621d388c146106955780636352211e146106c057806370a08231146106fd576102e4565b806355f804b31461062757806356f07a3e1461065057806359eda1b514610667576102e4565b8063305ac3671461052d5780633574a2dd1461055857806336568abe14610581578063372f657c146105aa57806342842e0e146105d357806351830227146105fc576102e4565b806318ff357e116102a157806318ff357e1461040d5780631e84c4131461044a57806321860a051461047557806323b872dd1461049e578063248a9ca3146104c75780632f2ff15d14610504576102e4565b806301ffc9a7146102e957806306fdde0314610326578063081812fc14610351578063095ea7b31461038e5780630acae9a7146103b757806318160ddd146103e2575b600080fd5b3480156102f557600080fd5b50610310600480360381019061030b9190613b46565b610b77565b60405161031d9190613b8e565b60405180910390f35b34801561033257600080fd5b5061033b610b89565b6040516103489190613c42565b60405180910390f35b34801561035d57600080fd5b5061037860048036038101906103739190613c9a565b610c1b565b6040516103859190613d08565b60405180910390f35b34801561039a57600080fd5b506103b560048036038101906103b09190613d4f565b610c97565b005b3480156103c357600080fd5b506103cc610da1565b6040516103d99190613d9e565b60405180910390f35b3480156103ee57600080fd5b506103f7610da7565b6040516104049190613d9e565b60405180910390f35b34801561041957600080fd5b50610434600480360381019061042f9190613e1e565b610db5565b6040516104419190613b8e565b60405180910390f35b34801561045657600080fd5b5061045f610dce565b60405161046c9190613b8e565b60405180910390f35b34801561048157600080fd5b5061049c60048036038101906104979190613e7e565b610e06565b005b3480156104aa57600080fd5b506104c560048036038101906104c09190613eab565b610ef1565b005b3480156104d357600080fd5b506104ee60048036038101906104e99190613f34565b610f01565b6040516104fb9190613f70565b60405180910390f35b34801561051057600080fd5b5061052b60048036038101906105269190613f8b565b610f21565b005b34801561053957600080fd5b50610542610f4a565b60405161054f9190613b8e565b60405180910390f35b34801561056457600080fd5b5061057f600480360381019061057a91906140fb565b610f5d565b005b34801561058d57600080fd5b506105a860048036038101906105a39190613f8b565b611039565b005b3480156105b657600080fd5b506105d160048036038101906105cc9190614144565b6110bc565b005b3480156105df57600080fd5b506105fa60048036038101906105f59190613eab565b6112a5565b005b34801561060857600080fd5b506106116112c5565b60405161061e9190613b8e565b60405180910390f35b34801561063357600080fd5b5061064e600480360381019061064991906140fb565b6112d8565b005b34801561065c57600080fd5b506106656113b4565b005b34801561067357600080fd5b5061067c611493565b005b34801561068a57600080fd5b50610693611581565b005b3480156106a157600080fd5b506106aa61166f565b6040516106b79190613b8e565b60405180910390f35b3480156106cc57600080fd5b506106e760048036038101906106e29190613c9a565b6116a2565b6040516106f49190613d08565b60405180910390f35b34801561070957600080fd5b50610724600480360381019061071f9190613e7e565b6116b8565b6040516107319190613d9e565b60405180910390f35b34801561074657600080fd5b5061074f611787565b60405161075c9190613f70565b60405180910390f35b34801561077157600080fd5b5061077a61178d565b6040516107879190613b8e565b60405180910390f35b34801561079c57600080fd5b506107b760048036038101906107b29190613f8b565b6117a0565b6040516107c49190613b8e565b60405180910390f35b3480156107d957600080fd5b506107f460048036038101906107ef9190614191565b61180b565b005b34801561080257600080fd5b5061080b6118df565b6040516108189190613c42565b60405180910390f35b34801561082d57600080fd5b50610836611971565b005b34801561084457600080fd5b5061084d611a5f565b60405161085a9190613d9e565b60405180910390f35b34801561086f57600080fd5b50610878611a65565b6040516108859190613d9e565b60405180910390f35b6108a860048036038101906108a39190613c9a565b611a6a565b005b3480156108b657600080fd5b506108d160048036038101906108cc9190614191565b611b60565b005b3480156108df57600080fd5b506108e8611c34565b6040516108f59190613f70565b60405180910390f35b34801561090a57600080fd5b50610925600480360381019061092091906141fd565b611c3b565b005b34801561093357600080fd5b5061093c611db2565b6040516109499190613d9e565b60405180910390f35b34801561095e57600080fd5b50610967611db8565b6040516109749190613b8e565b60405180910390f35b34801561098957600080fd5b50610992611dd2565b60405161099f9190613f70565b60405180910390f35b3480156109b457600080fd5b506109cf60048036038101906109ca91906142de565b611dd8565b005b3480156109dd57600080fd5b506109e6611e2b565b6040516109f39190613b8e565b60405180910390f35b348015610a0857600080fd5b50610a236004803603810190610a1e9190613f34565b611e63565b005b348015610a3157600080fd5b50610a3a611f2f565b604051610a479190613d9e565b60405180910390f35b348015610a5c57600080fd5b50610a776004803603810190610a729190613c9a565b611f35565b604051610a849190613c42565b60405180910390f35b348015610a9957600080fd5b50610aa261205c565b604051610aaf9190613b8e565b60405180910390f35b348015610ac457600080fd5b50610acd61206f565b005b348015610adb57600080fd5b50610af66004803603810190610af19190613f8b565b61214e565b005b348015610b0457600080fd5b50610b0d612177565b604051610b1a9190613f70565b60405180910390f35b348015610b2f57600080fd5b50610b4a6004803603810190610b459190614361565b61217d565b604051610b579190613b8e565b60405180910390f35b348015610b6c57600080fd5b50610b75612211565b005b6000610b82826122f0565b9050919050565b606060028054610b98906143d0565b80601f0160208091040260200160405190810160405280929190818152602001828054610bc4906143d0565b8015610c115780601f10610be657610100808354040283529160200191610c11565b820191906000526020600020905b815481529060010190602001808311610bf457829003601f168201915b5050505050905090565b6000610c268261236a565b610c5c576040517fcf4700e400000000000000000000000000000000000000000000000000000000815260040160405180910390fd5b6006600083815260200190815260200160002060009054906101000a900473ffffffffffffffffffffffffffffffffffffffff169050919050565b6000610ca2826116a2565b90508073ffffffffffffffffffffffffffffffffffffffff168373ffffffffffffffffffffffffffffffffffffffff1603610d09576040517f943f7b8c00000000000000000000000000000000000000000000000000000000815260040160405180910390fd5b8073ffffffffffffffffffffffffffffffffffffffff16610d286123a4565b73ffffffffffffffffffffffffffffffffffffffff1614158015610d5a5750610d5881610d536123a4565b61217d565b155b15610d91576040517fcfb3b94200000000000000000000000000000000000000000000000000000000815260040160405180910390fd5b610d9c8383836123ac565b505050565b60135481565b600060015460005403905090565b6000610dc58484600b548561245e565b90509392505050565b6000600f60069054906101000a900460ff1615610dee5760019050610e03565b60125442118015610e00575060135442105b90505b90565b6000610e106123a4565b9050610e1f6000801b826117a0565b80610e325750610e31600954826117a0565b5b610e71576040517f08c379a0000000000000000000000000000000000000000000000000000000008152600401610e689061444d565b60405180910390fd5b60001515600f60049054906101000a900460ff16151514610ec7576040517f08c379a0000000000000000000000000000000000000000000000000000000008152600401610ebe906144b9565b60405180910390fd5b6001600f60046101000a81548160ff021916908315150217905550610eed8260376124e3565b5050565b610efc838383612501565b505050565b600060086000838152602001908152602001600020600101549050919050565b610f2a82610f01565b610f3b81610f366123a4565b6129f0565b610f458383612a8d565b505050565b600f60009054906101000a900460ff1681565b6000610f676123a4565b9050610f766000801b826117a0565b80610f895750610f88600954826117a0565b5b610fc8576040517f08c379a0000000000000000000000000000000000000000000000000000000008152600401610fbf9061444d565b60405180910390fd5b60001515600f60019054906101000a900460ff1615151461101e576040517f08c379a000000000000000000000000000000000000000000000000000000000815260040161101590614525565b60405180910390fd5b81600e90805190602001906110349291906139f4565b505050565b6110416123a4565b73ffffffffffffffffffffffffffffffffffffffff168173ffffffffffffffffffffffffffffffffffffffff16146110ae576040517f08c379a00000000000000000000000000000000000000000000000000000000081526004016110a5906145b7565b60405180910390fd5b6110b88282612b6e565b5050565b60006110c66123a4565b90506110d0611e2b565b61110f576040517f08c379a000000000000000000000000000000000000000000000000000000000815260040161110690614623565b60405180910390fd5b61111a838383610db5565b611159576040517f08c379a00000000000000000000000000000000000000000000000000000000081526004016111509061468f565b60405180910390fd5b61022b6001611166610da7565b61117091906146de565b11156111b1576040517f08c379a00000000000000000000000000000000000000000000000000000000081526004016111a890614780565b60405180910390fd5b600c60008273ffffffffffffffffffffffffffffffffffffffff1673ffffffffffffffffffffffffffffffffffffffff16815260200190815260200160002060009054906101000a900460ff1661123d576040517f08c379a0000000000000000000000000000000000000000000000000000000008152600401611234906147ec565b60405180910390fd5b6001600c60008373ffffffffffffffffffffffffffffffffffffffff1673ffffffffffffffffffffffffffffffffffffffff16815260200190815260200160002060006101000a81548160ff0219169083151502179055506112a08160016124e3565b505050565b6112c083838360405180602001604052806000815250611dd8565b505050565b600f60039054906101000a900460ff1681565b60006112e26123a4565b90506112f16000801b826117a0565b806113045750611303600954826117a0565b5b611343576040517f08c379a000000000000000000000000000000000000000000000000000000000815260040161133a9061444d565b60405180910390fd5b60001515600f60019054906101000a900460ff16151514611399576040517f08c379a000000000000000000000000000000000000000000000000000000000815260040161139090614525565b60405180910390fd5b81600d90805190602001906113af9291906139f4565b505050565b60006113be6123a4565b90506113cd6000801b826117a0565b806113e057506113df600954826117a0565b5b61141f576040517f08c379a00000000000000000000000000000000000000000000000000000000081526004016114169061444d565b60405180910390fd5b60001515600f60029054906101000a900460ff16151514611475576040517f08c379a000000000000000000000000000000000000000000000000000000000815260040161146c90614858565b60405180910390fd5b6001600f60026101000a81548160ff02191690831515021790555050565b600061149d6123a4565b90506114ac6000801b826117a0565b806114bf57506114be600954826117a0565b5b6114fe576040517f08c379a00000000000000000000000000000000000000000000000000000000081526004016114f59061444d565b60405180910390fd5b60001515600f60029054906101000a900460ff16151514611554576040517f08c379a000000000000000000000000000000000000000000000000000000000815260040161154b90614858565b60405180910390fd5b600f60059054906101000a900460ff1615600f60056101000a81548160ff02191690831515021790555050565b600061158b6123a4565b905061159a6000801b826117a0565b806115ad57506115ac600954826117a0565b5b6115ec576040517f08c379a00000000000000000000000000000000000000000000000000000000081526004016115e39061444d565b60405180910390fd5b60001515600f60019054906101000a900460ff16151514611642576040517f08c379a000000000000000000000000000000000000000000000000000000000815260040161163990614525565b60405180910390fd5b600f60039054906101000a900460ff1615600f60036101000a81548160ff02191690831515021790555050565b60008061167a6123a4565b9050611688600954826117a0565b8061169c575061169b6000801b826117a0565b5b91505090565b60006116ad82612c50565b600001519050919050565b60008073ffffffffffffffffffffffffffffffffffffffff168273ffffffffffffffffffffffffffffffffffffffff160361171f576040517f8f4eb60400000000000000000000000000000000000000000000000000000000815260040160405180910390fd5b600560008373ffffffffffffffffffffffffffffffffffffffff1673ffffffffffffffffffffffffffffffffffffffff16815260200190815260200160002060000160009054906101000a900467ffffffffffffffff1667ffffffffffffffff169050919050565b60095481565b600f60019054906101000a900460ff1681565b60006008600084815260200190815260200160002060000160008373ffffffffffffffffffffffffffffffffffffffff1673ffffffffffffffffffffffffffffffffffffffff16815260200190815260200160002060009054906101000a900460ff16905092915050565b60006118156123a4565b90506118246000801b826117a0565b806118375750611836600954826117a0565b5b611876576040517f08c379a000000000000000000000000000000000000000000000000000000000815260040161186d9061444d565b60405180910390fd5b60001515600f60029054906101000a900460ff161515146118cc576040517f08c379a00000000000000000000000000000000000000000000000000000000081526004016118c390614858565b60405180910390fd5b8260128190555081601381905550505050565b6060600380546118ee906143d0565b80601f016020809104026020016040519081016040528092919081815260200182805461191a906143d0565b80156119675780601f1061193c57610100808354040283529160200191611967565b820191906000526020600020905b81548152906001019060200180831161194a57829003601f168201915b5050505050905090565b600061197b6123a4565b905061198a6000801b826117a0565b8061199d575061199c600954826117a0565b5b6119dc576040517f08c379a00000000000000000000000000000000000000000000000000000000081526004016119d39061444d565b60405180910390fd5b60001515600f60029054906101000a900460ff16151514611a32576040517f08c379a0000000000000000000000000000000000000000000000000000000008152600401611a2990614858565b60405180910390fd5b600f60069054906101000a900460ff1615600f60066101000a81548160ff02191690831515021790555050565b60105481565b603781565b611a72610dce565b611ab1576040517f08c379a0000000000000000000000000000000000000000000000000000000008152600401611aa8906148c4565b60405180910390fd5b6002811115611af5576040517f08c379a0000000000000000000000000000000000000000000000000000000008152600401611aec90614930565b60405180910390fd5b61022b81611b01610da7565b611b0b91906146de565b1115611b4c576040517f08c379a0000000000000000000000000000000000000000000000000000000008152600401611b4390614780565b60405180910390fd5b611b5d611b576123a4565b826124e3565b50565b6000611b6a6123a4565b9050611b796000801b826117a0565b80611b8c5750611b8b600954826117a0565b5b611bcb576040517f08c379a0000000000000000000000000000000000000000000000000000000008152600401611bc29061444d565b60405180910390fd5b60001515600f60029054906101000a900460ff16151514611c21576040517f08c379a0000000000000000000000000000000000000000000000000000000008152600401611c1890614858565b60405180910390fd5b8260108190555081601181905550505050565b6000801b81565b611c436123a4565b73ffffffffffffffffffffffffffffffffffffffff168273ffffffffffffffffffffffffffffffffffffffff1603611ca7576040517fb06307db00000000000000000000000000000000000000000000000000000000815260040160405180910390fd5b8060076000611cb46123a4565b73ffffffffffffffffffffffffffffffffffffffff1673ffffffffffffffffffffffffffffffffffffffff16815260200190815260200160002060008473ffffffffffffffffffffffffffffffffffffffff1673ffffffffffffffffffffffffffffffffffffffff16815260200190815260200160002060006101000a81548160ff0219169083151502179055508173ffffffffffffffffffffffffffffffffffffffff16611d616123a4565b73ffffffffffffffffffffffffffffffffffffffff167f17307eab39ab6107e8899845ad3d59bd9653f200f220920489ca2b5937696c3183604051611da69190613b8e565b60405180910390a35050565b60125481565b6000611dcd600a54611dc86123a4565b6117a0565b905090565b600b5481565b611de3848484612501565b611def84848484612ecc565b611e25576040517fd1a57ed600000000000000000000000000000000000000000000000000000000815260040160405180910390fd5b50505050565b6000600f60059054906101000a900460ff1615611e4b5760019050611e60565b60105442118015611e5d575060115442105b90505b90565b6000611e6d6123a4565b9050611e7c6000801b826117a0565b80611e8f5750611e8e600954826117a0565b5b611ece576040517f08c379a0000000000000000000000000000000000000000000000000000000008152600401611ec59061444d565b60405180910390fd5b60001515600f60009054906101000a900460ff16151514611f24576040517f08c379a0000000000000000000000000000000000000000000000000000000008152600401611f1b9061499c565b60405180910390fd5b81600b819055505050565b60115481565b6060611f408261236a565b611f7f576040517f08c379a0000000000000000000000000000000000000000000000000000000008152600401611f7690614a08565b60405180910390fd5b600f60039054906101000a900460ff1661202357600e8054611fa0906143d0565b80601f0160208091040260200160405190810160405280929190818152602001828054611fcc906143d0565b80156120195780601f10611fee57610100808354040283529160200191612019565b820191906000526020600020905b815481529060010190602001808311611ffc57829003601f168201915b5050505050612055565b61202b61304a565b612034836130dc565b604051602001612045929190614ab0565b6040516020818303038152906040525b9050919050565b600f60029054906101000a900460ff1681565b60006120796123a4565b90506120886000801b826117a0565b8061209b575061209a600954826117a0565b5b6120da576040517f08c379a00000000000000000000000000000000000000000000000000000000081526004016120d19061444d565b60405180910390fd5b60001515600f60009054906101000a900460ff16151514612130576040517f08c379a00000000000000000000000000000000000000000000000000000000081526004016121279061499c565b60405180910390fd5b6001600f60006101000a81548160ff02191690831515021790555050565b61215782610f01565b612168816121636123a4565b6129f0565b6121728383612b6e565b505050565b600a5481565b6000600760008473ffffffffffffffffffffffffffffffffffffffff1673ffffffffffffffffffffffffffffffffffffffff16815260200190815260200160002060008373ffffffffffffffffffffffffffffffffffffffff1673ffffffffffffffffffffffffffffffffffffffff16815260200190815260200160002060009054906101000a900460ff16905092915050565b600061221b6123a4565b905061222a6000801b826117a0565b8061223d575061223c600954826117a0565b5b61227c576040517f08c379a00000000000000000000000000000000000000000000000000000000081526004016122739061444d565b60405180910390fd5b60001515600f60019054906101000a900460ff161515146122d2576040517f08c379a00000000000000000000000000000000000000000000000000000000081526004016122c990614525565b60405180910390fd5b6001600f60016101000a81548160ff02191690831515021790555050565b60007f7965db0b000000000000000000000000000000000000000000000000000000007bffffffffffffffffffffffffffffffffffffffffffffffffffffffff1916827bffffffffffffffffffffffffffffffffffffffffffffffffffffffff1916148061236357506123628261323c565b5b9050919050565b600080548210801561239d575060046000838152602001908152602001600020600001601c9054906101000a900460ff16155b9050919050565b600033905090565b826006600084815260200190815260200160002060006101000a81548173ffffffffffffffffffffffffffffffffffffffff021916908373ffffffffffffffffffffffffffffffffffffffff160217905550818373ffffffffffffffffffffffffffffffffffffffff168273ffffffffffffffffffffffffffffffffffffffff167f8c5be1e5ebec7d5bd14f71427d1e84f3dd0314c0f7b2291e5b200ac8c7c3b92560405160405180910390a4505050565b6000600115156124d6868680806020026020016040519081016040528093929190818152602001838360200280828437600081840152601f19601f8201169050808301925050505050505085856040516020016124bb9190614b27565b6040516020818303038152906040528051906020012061331e565b1515149050949350505050565b6124fd828260405180602001604052806000815250613335565b5050565b600061250c82612c50565b90506000816000015173ffffffffffffffffffffffffffffffffffffffff166125336123a4565b73ffffffffffffffffffffffffffffffffffffffff161480612566575061256582600001516125606123a4565b61217d565b5b806125ab57506125746123a4565b73ffffffffffffffffffffffffffffffffffffffff1661259384610c1b565b73ffffffffffffffffffffffffffffffffffffffff16145b9050806125e4576040517f59c896be00000000000000000000000000000000000000000000000000000000815260040160405180910390fd5b8473ffffffffffffffffffffffffffffffffffffffff16826000015173ffffffffffffffffffffffffffffffffffffffff161461264d576040517fa114810000000000000000000000000000000000000000000000000000000000815260040160405180910390fd5b600073ffffffffffffffffffffffffffffffffffffffff168473ffffffffffffffffffffffffffffffffffffffff16036126b3576040517fea553b3400000000000000000000000000000000000000000000000000000000815260040160405180910390fd5b6126c08585856001613347565b6126d060008484600001516123ac565b6001600560008773ffffffffffffffffffffffffffffffffffffffff1673ffffffffffffffffffffffffffffffffffffffff16815260200190815260200160002060000160008282829054906101000a900467ffffffffffffffff160392506101000a81548167ffffffffffffffff021916908367ffffffffffffffff1602179055506001600560008673ffffffffffffffffffffffffffffffffffffffff1673ffffffffffffffffffffffffffffffffffffffff16815260200190815260200160002060000160008282829054906101000a900467ffffffffffffffff160192506101000a81548167ffffffffffffffff021916908367ffffffffffffffff160217905550836004600085815260200190815260200160002060000160006101000a81548173ffffffffffffffffffffffffffffffffffffffff021916908373ffffffffffffffffffffffffffffffffffffffff160217905550426004600085815260200190815260200160002060000160146101000a81548167ffffffffffffffff021916908367ffffffffffffffff1602179055506000600184019050600073ffffffffffffffffffffffffffffffffffffffff166004600083815260200190815260200160002060000160009054906101000a900473ffffffffffffffffffffffffffffffffffffffff1673ffffffffffffffffffffffffffffffffffffffff16036129805760005481101561297f5782600001516004600083815260200190815260200160002060000160006101000a81548173ffffffffffffffffffffffffffffffffffffffff021916908373ffffffffffffffffffffffffffffffffffffffff16021790555082602001516004600083815260200190815260200160002060000160146101000a81548167ffffffffffffffff021916908367ffffffffffffffff1602179055505b5b50828473ffffffffffffffffffffffffffffffffffffffff168673ffffffffffffffffffffffffffffffffffffffff167fddf252ad1be2c89b69c2b068fc378daa952ba7f163c4a11628f55a4df523b3ef60405160405180910390a46129e9858585600161334d565b5050505050565b6129fa82826117a0565b612a8957612a1f8173ffffffffffffffffffffffffffffffffffffffff166014613353565b612a2d8360001c6020613353565b604051602001612a3e929190614bda565b6040516020818303038152906040526040517f08c379a0000000000000000000000000000000000000000000000000000000008152600401612a809190613c42565b60405180910390fd5b5050565b612a9782826117a0565b612b6a5760016008600084815260200190815260200160002060000160008373ffffffffffffffffffffffffffffffffffffffff1673ffffffffffffffffffffffffffffffffffffffff16815260200190815260200160002060006101000a81548160ff021916908315150217905550612b0f6123a4565b73ffffffffffffffffffffffffffffffffffffffff168173ffffffffffffffffffffffffffffffffffffffff16837f2f8788117e7eff1d82e926ec794901d17c78024a50270940304540a733656f0d60405160405180910390a45b5050565b612b7882826117a0565b15612c4c5760006008600084815260200190815260200160002060000160008373ffffffffffffffffffffffffffffffffffffffff1673ffffffffffffffffffffffffffffffffffffffff16815260200190815260200160002060006101000a81548160ff021916908315150217905550612bf16123a4565b73ffffffffffffffffffffffffffffffffffffffff168173ffffffffffffffffffffffffffffffffffffffff16837ff6391f5c32d9c69d2a47ea670b442974b53935d1edc7fd64eb21e047a839171b60405160405180910390a45b5050565b612c58613a7a565b6000829050600054811015612e95576000600460008381526020019081526020016000206040518060600160405290816000820160009054906101000a900473ffffffffffffffffffffffffffffffffffffffff1673ffffffffffffffffffffffffffffffffffffffff1673ffffffffffffffffffffffffffffffffffffffff1681526020016000820160149054906101000a900467ffffffffffffffff1667ffffffffffffffff1667ffffffffffffffff16815260200160008201601c9054906101000a900460ff16151515158152505090508060400151612e9357600073ffffffffffffffffffffffffffffffffffffffff16816000015173ffffffffffffffffffffffffffffffffffffffff1614612d77578092505050612ec7565b5b600115612e9257818060019003925050600460008381526020019081526020016000206040518060600160405290816000820160009054906101000a900473ffffffffffffffffffffffffffffffffffffffff1673ffffffffffffffffffffffffffffffffffffffff1673ffffffffffffffffffffffffffffffffffffffff1681526020016000820160149054906101000a900467ffffffffffffffff1667ffffffffffffffff1667ffffffffffffffff16815260200160008201601c9054906101000a900460ff1615151515815250509050600073ffffffffffffffffffffffffffffffffffffffff16816000015173ffffffffffffffffffffffffffffffffffffffff1614612e8d578092505050612ec7565b612d78565b5b505b6040517fdf2d9b4200000000000000000000000000000000000000000000000000000000815260040160405180910390fd5b919050565b6000612eed8473ffffffffffffffffffffffffffffffffffffffff1661358f565b1561303d578373ffffffffffffffffffffffffffffffffffffffff1663150b7a02612f166123a4565b8786866040518563ffffffff1660e01b8152600401612f389493929190614c69565b6020604051808303816000875af1925050508015612f7457506040513d601f19601f82011682018060405250810190612f719190614cca565b60015b612fed573d8060008114612fa4576040519150601f19603f3d011682016040523d82523d6000602084013e612fa9565b606091505b506000815103612fe5576040517fd1a57ed600000000000000000000000000000000000000000000000000000000815260040160405180910390fd5b805181602001fd5b63150b7a0260e01b7bffffffffffffffffffffffffffffffffffffffffffffffffffffffff1916817bffffffffffffffffffffffffffffffffffffffffffffffffffffffff191614915050613042565b600190505b949350505050565b6060600d8054613059906143d0565b80601f0160208091040260200160405190810160405280929190818152602001828054613085906143d0565b80156130d25780601f106130a7576101008083540402835291602001916130d2565b820191906000526020600020905b8154815290600101906020018083116130b557829003601f168201915b5050505050905090565b606060008203613123576040518060400160405280600181526020017f30000000000000000000000000000000000000000000000000000000000000008152509050613237565b600082905060005b6000821461315557808061313e90614cf7565b915050600a8261314e9190614d6e565b915061312b565b60008167ffffffffffffffff81111561317157613170613fd0565b5b6040519080825280601f01601f1916602001820160405280156131a35781602001600182028036833780820191505090505b5090505b60008514613230576001826131bc9190614d9f565b9150600a856131cb9190614dd3565b60306131d791906146de565b60f81b8183815181106131ed576131ec614e04565b5b60200101907effffffffffffffffffffffffffffffffffffffffffffffffffffffffffffff1916908160001a905350600a856132299190614d6e565b94506131a7565b8093505050505b919050565b60007f80ac58cd000000000000000000000000000000000000000000000000000000007bffffffffffffffffffffffffffffffffffffffffffffffffffffffff1916827bffffffffffffffffffffffffffffffffffffffffffffffffffffffff1916148061330757507f5b5e139f000000000000000000000000000000000000000000000000000000007bffffffffffffffffffffffffffffffffffffffffffffffffffffffff1916827bffffffffffffffffffffffffffffffffffffffffffffffffffffffff1916145b806133175750613316826135a2565b5b9050919050565b60008261332b858461360c565b1490509392505050565b61334283838360016136bf565b505050565b50505050565b50505050565b6060600060028360026133669190614e33565b61337091906146de565b67ffffffffffffffff81111561338957613388613fd0565b5b6040519080825280601f01601f1916602001820160405280156133bb5781602001600182028036833780820191505090505b5090507f3000000000000000000000000000000000000000000000000000000000000000816000815181106133f3576133f2614e04565b5b60200101907effffffffffffffffffffffffffffffffffffffffffffffffffffffffffffff1916908160001a9053507f78000000000000000000000000000000000000000000000000000000000000008160018151811061345757613456614e04565b5b60200101907effffffffffffffffffffffffffffffffffffffffffffffffffffffffffffff1916908160001a905350600060018460026134979190614e33565b6134a191906146de565b90505b6001811115613541577f3031323334353637383961626364656600000000000000000000000000000000600f8616601081106134e3576134e2614e04565b5b1a60f81b8282815181106134fa576134f9614e04565b5b60200101907effffffffffffffffffffffffffffffffffffffffffffffffffffffffffffff1916908160001a905350600485901c94508061353a90614e8d565b90506134a4565b5060008414613585576040517f08c379a000000000000000000000000000000000000000000000000000000000815260040161357c90614f02565b60405180910390fd5b8091505092915050565b600080823b905060008111915050919050565b60007f01ffc9a7000000000000000000000000000000000000000000000000000000007bffffffffffffffffffffffffffffffffffffffffffffffffffffffff1916827bffffffffffffffffffffffffffffffffffffffffffffffffffffffff1916149050919050565b60008082905060005b84518110156136b457600085828151811061363357613632614e04565b5b60200260200101519050808311613674578281604051602001613657929190614f43565b6040516020818303038152906040528051906020012092506136a0565b8083604051602001613687929190614f43565b6040516020818303038152906040528051906020012092505b5080806136ac90614cf7565b915050613615565b508091505092915050565b600080549050600073ffffffffffffffffffffffffffffffffffffffff168573ffffffffffffffffffffffffffffffffffffffff160361372b576040517f2e07630000000000000000000000000000000000000000000000000000000000815260040160405180910390fd5b60008403613765576040517fb562e8dd00000000000000000000000000000000000000000000000000000000815260040160405180910390fd5b6137726000868387613347565b83600560008773ffffffffffffffffffffffffffffffffffffffff1673ffffffffffffffffffffffffffffffffffffffff16815260200190815260200160002060000160008282829054906101000a900467ffffffffffffffff160192506101000a81548167ffffffffffffffff021916908367ffffffffffffffff16021790555083600560008773ffffffffffffffffffffffffffffffffffffffff1673ffffffffffffffffffffffffffffffffffffffff16815260200190815260200160002060000160088282829054906101000a900467ffffffffffffffff160192506101000a81548167ffffffffffffffff021916908367ffffffffffffffff160217905550846004600083815260200190815260200160002060000160006101000a81548173ffffffffffffffffffffffffffffffffffffffff021916908373ffffffffffffffffffffffffffffffffffffffff160217905550426004600083815260200190815260200160002060000160146101000a81548167ffffffffffffffff021916908367ffffffffffffffff160217905550600081905060005b858110156139d757818773ffffffffffffffffffffffffffffffffffffffff16600073ffffffffffffffffffffffffffffffffffffffff167fddf252ad1be2c89b69c2b068fc378daa952ba7f163c4a11628f55a4df523b3ef60405160405180910390a483801561398b57506139896000888488612ecc565b155b156139c2576040517fd1a57ed600000000000000000000000000000000000000000000000000000000815260040160405180910390fd5b81806001019250508080600101915050613910565b5080600081905550506139ed600086838761334d565b5050505050565b828054613a00906143d0565b90600052602060002090601f016020900481019282613a225760008555613a69565b82601f10613a3b57805160ff1916838001178555613a69565b82800160010185558215613a69579182015b82811115613a68578251825591602001919060010190613a4d565b5b509050613a769190613abd565b5090565b6040518060600160405280600073ffffffffffffffffffffffffffffffffffffffff168152602001600067ffffffffffffffff1681526020016000151581525090565b5b80821115613ad6576000816000905550600101613abe565b5090565b6000604051905090565b600080fd5b600080fd5b60007fffffffff0000000000000000000000000000000000000000000000000000000082169050919050565b613b2381613aee565b8114613b2e57600080fd5b50565b600081359050613b4081613b1a565b92915050565b600060208284031215613b5c57613b5b613ae4565b5b6000613b6a84828501613b31565b91505092915050565b60008115159050919050565b613b8881613b73565b82525050565b6000602082019050613ba36000830184613b7f565b92915050565b600081519050919050565b600082825260208201905092915050565b60005b83811015613be3578082015181840152602081019050613bc8565b83811115613bf2576000848401525b50505050565b6000601f19601f8301169050919050565b6000613c1482613ba9565b613c1e8185613bb4565b9350613c2e818560208601613bc5565b613c3781613bf8565b840191505092915050565b60006020820190508181036000830152613c5c8184613c09565b905092915050565b6000819050919050565b613c7781613c64565b8114613c8257600080fd5b50565b600081359050613c9481613c6e565b92915050565b600060208284031215613cb057613caf613ae4565b5b6000613cbe84828501613c85565b91505092915050565b600073ffffffffffffffffffffffffffffffffffffffff82169050919050565b6000613cf282613cc7565b9050919050565b613d0281613ce7565b82525050565b6000602082019050613d1d6000830184613cf9565b92915050565b613d2c81613ce7565b8114613d3757600080fd5b50565b600081359050613d4981613d23565b92915050565b60008060408385031215613d6657613d65613ae4565b5b6000613d7485828601613d3a565b9250506020613d8585828601613c85565b9150509250929050565b613d9881613c64565b82525050565b6000602082019050613db36000830184613d8f565b92915050565b600080fd5b600080fd5b600080fd5b60008083601f840112613dde57613ddd613db9565b5b8235905067ffffffffffffffff811115613dfb57613dfa613dbe565b5b602083019150836020820283011115613e1757613e16613dc3565b5b9250929050565b600080600060408486031215613e3757613e36613ae4565b5b600084013567ffffffffffffffff811115613e5557613e54613ae9565b5b613e6186828701613dc8565b93509350506020613e7486828701613d3a565b9150509250925092565b600060208284031215613e9457613e93613ae4565b5b6000613ea284828501613d3a565b91505092915050565b600080600060608486031215613ec457613ec3613ae4565b5b6000613ed286828701613d3a565b9350506020613ee386828701613d3a565b9250506040613ef486828701613c85565b9150509250925092565b6000819050919050565b613f1181613efe565b8114613f1c57600080fd5b50565b600081359050613f2e81613f08565b92915050565b600060208284031215613f4a57613f49613ae4565b5b6000613f5884828501613f1f565b91505092915050565b613f6a81613efe565b82525050565b6000602082019050613f856000830184613f61565b92915050565b60008060408385031215613fa257613fa1613ae4565b5b6000613fb085828601613f1f565b9250506020613fc185828601613d3a565b9150509250929050565b600080fd5b7f4e487b7100000000000000000000000000000000000000000000000000000000600052604160045260246000fd5b61400882613bf8565b810181811067ffffffffffffffff8211171561402757614026613fd0565b5b80604052505050565b600061403a613ada565b90506140468282613fff565b919050565b600067ffffffffffffffff82111561406657614065613fd0565b5b61406f82613bf8565b9050602081019050919050565b82818337600083830152505050565b600061409e6140998461404b565b614030565b9050828152602081018484840111156140ba576140b9613fcb565b5b6140c584828561407c565b509392505050565b600082601f8301126140e2576140e1613db9565b5b81356140f284826020860161408b565b91505092915050565b60006020828403121561411157614110613ae4565b5b600082013567ffffffffffffffff81111561412f5761412e613ae9565b5b61413b848285016140cd565b91505092915050565b6000806020838503121561415b5761415a613ae4565b5b600083013567ffffffffffffffff81111561417957614178613ae9565b5b61418585828601613dc8565b92509250509250929050565b600080604083850312156141a8576141a7613ae4565b5b60006141b685828601613c85565b92505060206141c785828601613c85565b9150509250929050565b6141da81613b73565b81146141e557600080fd5b50565b6000813590506141f7816141d1565b92915050565b6000806040838503121561421457614213613ae4565b5b600061422285828601613d3a565b9250506020614233858286016141e8565b9150509250929050565b600067ffffffffffffffff82111561425857614257613fd0565b5b61426182613bf8565b9050602081019050919050565b600061428161427c8461423d565b614030565b90508281526020810184848401111561429d5761429c613fcb565b5b6142a884828561407c565b509392505050565b600082601f8301126142c5576142c4613db9565b5b81356142d584826020860161426e565b91505092915050565b600080600080608085870312156142f8576142f7613ae4565b5b600061430687828801613d3a565b945050602061431787828801613d3a565b935050604061432887828801613c85565b925050606085013567ffffffffffffffff81111561434957614348613ae9565b5b614355878288016142b0565b91505092959194509250565b6000806040838503121561437857614377613ae4565b5b600061438685828601613d3a565b925050602061439785828601613d3a565b9150509250929050565b7f4e487b7100000000000000000000000000000000000000000000000000000000600052602260045260246000fd5b600060028204905060018216806143e857607f821691505b6020821081036143fb576143fa6143a1565b5b50919050565b7f4d75737420626520616e2061646d696e00000000000000000000000000000000600082015250565b6000614437601083613bb4565b915061444282614401565b602082019050919050565b600060208201905081810360008301526144668161442a565b9050919050565b7f414c52454144595f41495244524f505045440000000000000000000000000000600082015250565b60006144a3601283613bb4565b91506144ae8261446d565b602082019050919050565b600060208201905081810360008301526144d281614496565b9050919050565b7f4d455441444154415f46494e414c495a45440000000000000000000000000000600082015250565b600061450f601283613bb4565b915061451a826144d9565b602082019050919050565b6000602082019050818103600083015261453e81614502565b9050919050565b7f416363657373436f6e74726f6c3a2063616e206f6e6c792072656e6f756e636560008201527f20726f6c657320666f722073656c660000000000000000000000000000000000602082015250565b60006145a1602f83613bb4565b91506145ac82614545565b604082019050919050565b600060208201905081810360008301526145d081614594565b9050919050565b7f50524553414c455f494e41435449564500000000000000000000000000000000600082015250565b600061460d601083613bb4565b9150614618826145d7565b602082019050919050565b6000602082019050818103600083015261463c81614600565b9050919050565b7f50524553414c455f4e4f545f5645524946494544000000000000000000000000600082015250565b6000614679601483613bb4565b915061468482614643565b602082019050919050565b600060208201905081810360008301526146a88161466c565b9050919050565b7f4e487b7100000000000000000000000000000000000000000000000000000000600052601160045260246000fd5b60006146e982613c64565b91506146f483613c64565b9250827fffffffffffffffffffffffffffffffffffffffffffffffffffffffffffffffff03821115614729576147286146af565b5b828201905092915050565b7f455843454544535f434f4c4c454354494f4e5f53495a45000000000000000000600082015250565b600061476a601783613bb4565b915061477582614734565b602082019050919050565b600060208201905081810360008301526147998161475d565b9050919050565b7f57484954454c4953545f544f4b454e5f4c494d49540000000000000000000000600082015250565b60006147d6601583613bb4565b91506147e1826147a0565b602082019050919050565b60006020820190508181036000830152614805816147c9565b9050919050565b7f54494d45535f46494e414c495a45440000000000000000000000000000000000600082015250565b6000614842600f83613bb4565b915061484d8261480c565b602082019050919050565b6000602082019050818103600083015261487181614835565b9050919050565b7f5055424c49435f53414c455f494e414354495645000000000000000000000000600082015250565b60006148ae601483613bb4565b91506148b982614878565b602082019050919050565b600060208201905081810360008301526148dd816148a1565b9050919050565b7f5055424c49435f544f4b454e5f4c494d49540000000000000000000000000000600082015250565b600061491a601283613bb4565b9150614925826148e4565b602082019050919050565b600060208201905081810360008301526149498161490d565b9050919050565b7f4c4953545f46494e414c495a4544000000000000000000000000000000000000600082015250565b6000614986600e83613bb4565b915061499182614950565b602082019050919050565b600060208201905081810360008301526149b581614979565b9050919050565b7f494e56414c49445f494400000000000000000000000000000000000000000000600082015250565b60006149f2600a83613bb4565b91506149fd826149bc565b602082019050919050565b60006020820190508181036000830152614a21816149e5565b9050919050565b600081905092915050565b6000614a3e82613ba9565b614a488185614a28565b9350614a58818560208601613bc5565b80840191505092915050565b7f2e6a736f6e000000000000000000000000000000000000000000000000000000600082015250565b6000614a9a600583614a28565b9150614aa582614a64565b600582019050919050565b6000614abc8285614a33565b9150614ac88284614a33565b9150614ad382614a8d565b91508190509392505050565b60008160601b9050919050565b6000614af782614adf565b9050919050565b6000614b0982614aec565b9050919050565b614b21614b1c82613ce7565b614afe565b82525050565b6000614b338284614b10565b60148201915081905092915050565b7f416363657373436f6e74726f6c3a206163636f756e7420000000000000000000600082015250565b6000614b78601783614a28565b9150614b8382614b42565b601782019050919050565b7f206973206d697373696e6720726f6c6520000000000000000000000000000000600082015250565b6000614bc4601183614a28565b9150614bcf82614b8e565b601182019050919050565b6000614be582614b6b565b9150614bf18285614a33565b9150614bfc82614bb7565b9150614c088284614a33565b91508190509392505050565b600081519050919050565b600082825260208201905092915050565b6000614c3b82614c14565b614c458185614c1f565b9350614c55818560208601613bc5565b614c5e81613bf8565b840191505092915050565b6000608082019050614c7e6000830187613cf9565b614c8b6020830186613cf9565b614c986040830185613d8f565b8181036060830152614caa8184614c30565b905095945050505050565b600081519050614cc481613b1a565b92915050565b600060208284031215614ce057614cdf613ae4565b5b6000614cee84828501614cb5565b91505092915050565b6000614d0282613c64565b91507fffffffffffffffffffffffffffffffffffffffffffffffffffffffffffffffff8203614d3457614d336146af565b5b600182019050919050565b7f4e487b7100000000000000000000000000000000000000000000000000000000600052601260045260246000fd5b6000614d7982613c64565b9150614d8483613c64565b925082614d9457614d93614d3f565b5b828204905092915050565b6000614daa82613c64565b9150614db583613c64565b925082821015614dc857614dc76146af565b5b828203905092915050565b6000614dde82613c64565b9150614de983613c64565b925082614df957614df8614d3f565b5b828206905092915050565b7f4e487b7100000000000000000000000000000000000000000000000000000000600052603260045260246000fd5b6000614e3e82613c64565b9150614e4983613c64565b9250817fffffffffffffffffffffffffffffffffffffffffffffffffffffffffffffffff0483118215151615614e8257614e816146af565b5b828202905092915050565b6000614e9882613c64565b915060008203614eab57614eaa6146af565b5b600182039050919050565b7f537472696e67733a20686578206c656e67746820696e73756666696369656e74600082015250565b6000614eec602083613bb4565b9150614ef782614eb6565b602082019050919050565b60006020820190508181036000830152614f1b81614edf565b9050919050565b6000819050919050565b614f3d614f3882613efe565b614f22565b82525050565b6000614f4f8285614f2c565b602082019150614f5f8284614f2c565b602082019150819050939250505056fea264697066735822122000e168e90105aeccb20547d2c5a4dc806420079d2d576c6e3968dcf72cfaf74164736f6c634300080d0033",
  "linkReferences": {},
  "deployedLinkReferences": {}
}