{
  "_format": "hh-sol-artifact-1",
  "contractName": "TemplateNFT",
  "sourceName": "contracts/TemplateNFT.sol",
  "abi": [
    {
      "inputs": [
        {
          "internalType": "address",
          "name": "revenueRecipient",
          "type": "address"
        },
        {
          "internalType": "bytes32",
          "name": "_whitelistMerkleRoot",
          "type": "bytes32"
        },
        {
          "internalType": "string",
          "name": "tempUri",
          "type": "string"
        }
      ],
      "stateMutability": "nonpayable",
      "type": "constructor"
    },
    {
      "inputs": [],
      "name": "ApprovalCallerNotOwnerNorApproved",
      "type": "error"
    },
    {
      "inputs": [],
      "name": "ApprovalQueryForNonexistentToken",
      "type": "error"
    },
    {
      "inputs": [],
      "name": "ApprovalToCurrentOwner",
      "type": "error"
    },
    {
      "inputs": [],
      "name": "ApproveToCaller",
      "type": "error"
    },
    {
      "inputs": [],
      "name": "BalanceQueryForZeroAddress",
      "type": "error"
    },
    {
      "inputs": [],
      "name": "MintToZeroAddress",
      "type": "error"
    },
    {
      "inputs": [],
      "name": "MintZeroQuantity",
      "type": "error"
    },
    {
      "inputs": [],
      "name": "OwnerQueryForNonexistentToken",
      "type": "error"
    },
    {
      "inputs": [],
      "name": "TransferCallerNotOwnerNorApproved",
      "type": "error"
    },
    {
      "inputs": [],
      "name": "TransferFromIncorrectOwner",
      "type": "error"
    },
    {
      "inputs": [],
      "name": "TransferToNonERC721ReceiverImplementer",
      "type": "error"
    },
    {
      "inputs": [],
      "name": "TransferToZeroAddress",
      "type": "error"
    },
    {
      "anonymous": false,
      "inputs": [
        {
          "indexed": true,
          "internalType": "address",
          "name": "owner",
          "type": "address"
        },
        {
          "indexed": true,
          "internalType": "address",
          "name": "approved",
          "type": "address"
        },
        {
          "indexed": true,
          "internalType": "uint256",
          "name": "tokenId",
          "type": "uint256"
        }
      ],
      "name": "Approval",
      "type": "event"
    },
    {
      "anonymous": false,
      "inputs": [
        {
          "indexed": true,
          "internalType": "address",
          "name": "owner",
          "type": "address"
        },
        {
          "indexed": true,
          "internalType": "address",
          "name": "operator",
          "type": "address"
        },
        {
          "indexed": false,
          "internalType": "bool",
          "name": "approved",
          "type": "bool"
        }
      ],
      "name": "ApprovalForAll",
      "type": "event"
    },
    {
      "anonymous": false,
      "inputs": [
        {
          "indexed": true,
          "internalType": "bytes32",
          "name": "role",
          "type": "bytes32"
        },
        {
          "indexed": true,
          "internalType": "bytes32",
          "name": "previousAdminRole",
          "type": "bytes32"
        },
        {
          "indexed": true,
          "internalType": "bytes32",
          "name": "newAdminRole",
          "type": "bytes32"
        }
      ],
      "name": "RoleAdminChanged",
      "type": "event"
    },
    {
      "anonymous": false,
      "inputs": [
        {
          "indexed": true,
          "internalType": "bytes32",
          "name": "role",
          "type": "bytes32"
        },
        {
          "indexed": true,
          "internalType": "address",
          "name": "account",
          "type": "address"
        },
        {
          "indexed": true,
          "internalType": "address",
          "name": "sender",
          "type": "address"
        }
      ],
      "name": "RoleGranted",
      "type": "event"
    },
    {
      "anonymous": false,
      "inputs": [
        {
          "indexed": true,
          "internalType": "bytes32",
          "name": "role",
          "type": "bytes32"
        },
        {
          "indexed": true,
          "internalType": "address",
          "name": "account",
          "type": "address"
        },
        {
          "indexed": true,
          "internalType": "address",
          "name": "sender",
          "type": "address"
        }
      ],
      "name": "RoleRevoked",
      "type": "event"
    },
    {
      "anonymous": false,
      "inputs": [
        {
          "indexed": true,
          "internalType": "address",
          "name": "from",
          "type": "address"
        },
        {
          "indexed": true,
          "internalType": "address",
          "name": "to",
          "type": "address"
        },
        {
          "indexed": true,
          "internalType": "uint256",
          "name": "tokenId",
          "type": "uint256"
        }
      ],
      "name": "Transfer",
      "type": "event"
    },
    {
      "inputs": [],
      "name": "ADMIN_ROLE",
      "outputs": [
        {
          "internalType": "bytes32",
          "name": "",
          "type": "bytes32"
        }
      ],
      "stateMutability": "view",
      "type": "function"
    },
    {
      "inputs": [],
      "name": "AIRDROP_LIMIT",
      "outputs": [
        {
          "internalType": "uint256",
          "name": "",
          "type": "uint256"
        }
      ],
      "stateMutability": "view",
      "type": "function"
    },
    {
      "inputs": [],
      "name": "DEFAULT_ADMIN_ROLE",
      "outputs": [
        {
          "internalType": "bytes32",
          "name": "",
          "type": "bytes32"
        }
      ],
      "stateMutability": "view",
      "type": "function"
    },
    {
      "inputs": [],
      "name": "MOD_ROLE",
      "outputs": [
        {
          "internalType": "bytes32",
          "name": "",
          "type": "bytes32"
        }
      ],
      "stateMutability": "view",
      "type": "function"
    },
    {
      "inputs": [
        {
          "internalType": "address",
          "name": "to",
          "type": "address"
        },
        {
          "internalType": "uint256",
          "name": "quantity",
          "type": "uint256"
        }
      ],
      "name": "airdrop",
      "outputs": [],
      "stateMutability": "nonpayable",
      "type": "function"
    },
    {
      "inputs": [],
      "name": "airdropped",
      "outputs": [
        {
          "internalType": "bool",
          "name": "",
          "type": "bool"
        }
      ],
      "stateMutability": "view",
      "type": "function"
    },
    {
      "inputs": [
        {
          "internalType": "address",
          "name": "to",
          "type": "address"
        },
        {
          "internalType": "uint256",
          "name": "tokenId",
          "type": "uint256"
        }
      ],
      "name": "approve",
      "outputs": [],
      "stateMutability": "nonpayable",
      "type": "function"
    },
    {
      "inputs": [
        {
          "internalType": "address",
          "name": "owner",
          "type": "address"
        }
      ],
      "name": "balanceOf",
      "outputs": [
        {
          "internalType": "uint256",
          "name": "",
          "type": "uint256"
        }
      ],
      "stateMutability": "view",
      "type": "function"
    },
    {
      "inputs": [],
      "name": "collectionSize",
      "outputs": [
        {
          "internalType": "uint256",
          "name": "",
          "type": "uint256"
        }
      ],
      "stateMutability": "view",
      "type": "function"
    },
    {
      "inputs": [],
      "name": "finalizeLists",
      "outputs": [],
      "stateMutability": "nonpayable",
      "type": "function"
    },
    {
      "inputs": [],
      "name": "finalizeMetadata",
      "outputs": [],
      "stateMutability": "nonpayable",
      "type": "function"
    },
    {
      "inputs": [],
      "name": "finalizeTimes",
      "outputs": [],
      "stateMutability": "nonpayable",
      "type": "function"
    },
    {
      "inputs": [
        {
          "internalType": "uint256",
          "name": "tokenId",
          "type": "uint256"
        }
      ],
      "name": "getApproved",
      "outputs": [
        {
          "internalType": "address",
          "name": "",
          "type": "address"
        }
      ],
      "stateMutability": "view",
      "type": "function"
    },
    {
      "inputs": [
        {
          "internalType": "bytes32",
          "name": "role",
          "type": "bytes32"
        }
      ],
      "name": "getRoleAdmin",
      "outputs": [
        {
          "internalType": "bytes32",
          "name": "",
          "type": "bytes32"
        }
      ],
      "stateMutability": "view",
      "type": "function"
    },
    {
      "inputs": [
        {
          "internalType": "address",
          "name": "addr",
          "type": "address"
        }
      ],
      "name": "grantAdminRole",
      "outputs": [],
      "stateMutability": "nonpayable",
      "type": "function"
    },
    {
      "inputs": [
        {
          "internalType": "address",
          "name": "addr",
          "type": "address"
        }
      ],
      "name": "grantModRole",
      "outputs": [],
      "stateMutability": "nonpayable",
      "type": "function"
    },
    {
      "inputs": [
        {
          "internalType": "bytes32",
          "name": "role",
          "type": "bytes32"
        },
        {
          "internalType": "address",
          "name": "account",
          "type": "address"
        }
      ],
      "name": "grantRole",
      "outputs": [],
      "stateMutability": "nonpayable",
      "type": "function"
    },
    {
      "inputs": [
        {
          "internalType": "bytes32",
          "name": "role",
          "type": "bytes32"
        },
        {
          "internalType": "address",
          "name": "account",
          "type": "address"
        }
      ],
      "name": "hasRole",
      "outputs": [
        {
          "internalType": "bool",
          "name": "",
          "type": "bool"
        }
      ],
      "stateMutability": "view",
      "type": "function"
    },
    {
      "inputs": [
        {
          "internalType": "address",
          "name": "owner",
          "type": "address"
        },
        {
          "internalType": "address",
          "name": "operator",
          "type": "address"
        }
      ],
      "name": "isApprovedForAll",
      "outputs": [
        {
          "internalType": "bool",
          "name": "",
          "type": "bool"
        }
      ],
      "stateMutability": "view",
      "type": "function"
    },
    {
      "inputs": [],
      "name": "isPublicSaleActive",
      "outputs": [
        {
          "internalType": "bool",
          "name": "",
          "type": "bool"
        }
      ],
      "stateMutability": "view",
      "type": "function"
    },
    {
      "inputs": [],
      "name": "isWhitelistSaleActive",
      "outputs": [
        {
          "internalType": "bool",
          "name": "",
          "type": "bool"
        }
      ],
      "stateMutability": "view",
      "type": "function"
    },
    {
      "inputs": [],
      "name": "listsFinalized",
      "outputs": [
        {
          "internalType": "bool",
          "name": "",
          "type": "bool"
        }
      ],
      "stateMutability": "view",
      "type": "function"
    },
    {
      "inputs": [],
      "name": "metadataFinalized",
      "outputs": [
        {
          "internalType": "bool",
          "name": "",
          "type": "bool"
        }
      ],
      "stateMutability": "view",
      "type": "function"
    },
    {
      "inputs": [
        {
          "internalType": "uint256",
          "name": "quantity",
          "type": "uint256"
        }
      ],
      "name": "mint",
      "outputs": [],
      "stateMutability": "payable",
      "type": "function"
    },
    {
      "inputs": [],
      "name": "name",
      "outputs": [
        {
          "internalType": "string",
          "name": "",
          "type": "string"
        }
      ],
      "stateMutability": "view",
      "type": "function"
    },
    {
      "inputs": [
        {
          "internalType": "uint256",
          "name": "tokenId",
          "type": "uint256"
        }
      ],
      "name": "ownerOf",
      "outputs": [
        {
          "internalType": "address",
          "name": "",
          "type": "address"
        }
      ],
      "stateMutability": "view",
      "type": "function"
    },
    {
      "inputs": [],
      "name": "publicEnd",
      "outputs": [
        {
          "internalType": "uint256",
          "name": "",
          "type": "uint256"
        }
      ],
      "stateMutability": "view",
      "type": "function"
    },
    {
      "inputs": [],
      "name": "publicLimit",
      "outputs": [
        {
          "internalType": "uint256",
          "name": "",
          "type": "uint256"
        }
      ],
      "stateMutability": "view",
      "type": "function"
    },
    {
      "inputs": [],
      "name": "publicPrice",
      "outputs": [
        {
          "internalType": "uint256",
          "name": "",
          "type": "uint256"
        }
      ],
      "stateMutability": "view",
      "type": "function"
    },
    {
      "inputs": [],
      "name": "publicStart",
      "outputs": [
        {
          "internalType": "uint256",
          "name": "",
          "type": "uint256"
        }
      ],
      "stateMutability": "view",
      "type": "function"
    },
    {
      "inputs": [
        {
          "internalType": "uint256",
          "name": "_collectionSize",
          "type": "uint256"
        }
      ],
      "name": "reduceCollectionSize",
      "outputs": [],
      "stateMutability": "nonpayable",
      "type": "function"
    },
    {
      "inputs": [
        {
          "internalType": "bytes32",
          "name": "role",
          "type": "bytes32"
        },
        {
          "internalType": "address",
          "name": "account",
          "type": "address"
        }
      ],
      "name": "renounceRole",
      "outputs": [],
      "stateMutability": "nonpayable",
      "type": "function"
    },
    {
      "inputs": [],
      "name": "revealed",
      "outputs": [
        {
          "internalType": "bool",
          "name": "",
          "type": "bool"
        }
      ],
      "stateMutability": "view",
      "type": "function"
    },
    {
      "inputs": [
        {
          "internalType": "address",
          "name": "addr",
          "type": "address"
        }
      ],
      "name": "revokeAdminRole",
      "outputs": [],
      "stateMutability": "nonpayable",
      "type": "function"
    },
    {
      "inputs": [
        {
          "internalType": "address",
          "name": "addr",
          "type": "address"
        }
      ],
      "name": "revokeModRole",
      "outputs": [],
      "stateMutability": "nonpayable",
      "type": "function"
    },
    {
      "inputs": [
        {
          "internalType": "bytes32",
          "name": "role",
          "type": "bytes32"
        },
        {
          "internalType": "address",
          "name": "account",
          "type": "address"
        }
      ],
      "name": "revokeRole",
      "outputs": [],
      "stateMutability": "nonpayable",
      "type": "function"
    },
    {
      "inputs": [
        {
          "internalType": "address",
          "name": "from",
          "type": "address"
        },
        {
          "internalType": "address",
          "name": "to",
          "type": "address"
        },
        {
          "internalType": "uint256",
          "name": "tokenId",
          "type": "uint256"
        }
      ],
      "name": "safeTransferFrom",
      "outputs": [],
      "stateMutability": "nonpayable",
      "type": "function"
    },
    {
      "inputs": [
        {
          "internalType": "address",
          "name": "from",
          "type": "address"
        },
        {
          "internalType": "address",
          "name": "to",
          "type": "address"
        },
        {
          "internalType": "uint256",
          "name": "tokenId",
          "type": "uint256"
        },
        {
          "internalType": "bytes",
          "name": "_data",
          "type": "bytes"
        }
      ],
      "name": "safeTransferFrom",
      "outputs": [],
      "stateMutability": "nonpayable",
      "type": "function"
    },
    {
      "inputs": [],
      "name": "senderIsAdmin",
      "outputs": [
        {
          "internalType": "bool",
          "name": "",
          "type": "bool"
        }
      ],
      "stateMutability": "view",
      "type": "function"
    },
    {
      "inputs": [],
      "name": "senderIsMod",
      "outputs": [
        {
          "internalType": "bool",
          "name": "",
          "type": "bool"
        }
      ],
      "stateMutability": "view",
      "type": "function"
    },
    {
      "inputs": [
        {
          "internalType": "address",
          "name": "operator",
          "type": "address"
        },
        {
          "internalType": "bool",
          "name": "approved",
          "type": "bool"
        }
      ],
      "name": "setApprovalForAll",
      "outputs": [],
      "stateMutability": "nonpayable",
      "type": "function"
    },
    {
      "inputs": [
        {
          "internalType": "string",
          "name": "baseUri",
          "type": "string"
        }
      ],
      "name": "setBaseURI",
      "outputs": [],
      "stateMutability": "nonpayable",
      "type": "function"
    },
    {
      "inputs": [
        {
          "internalType": "string",
          "name": "tempUri",
          "type": "string"
        }
      ],
      "name": "setPlaceholderURI",
      "outputs": [],
      "stateMutability": "nonpayable",
      "type": "function"
    },
    {
      "inputs": [
        {
          "internalType": "uint256",
          "name": "_publicLimit",
          "type": "uint256"
        }
      ],
      "name": "setPublicLimit",
      "outputs": [],
      "stateMutability": "nonpayable",
      "type": "function"
    },
    {
      "inputs": [
        {
          "internalType": "uint256",
          "name": "_price",
          "type": "uint256"
        }
      ],
      "name": "setPublicPrice",
      "outputs": [],
      "stateMutability": "nonpayable",
      "type": "function"
    },
    {
      "inputs": [
        {
          "internalType": "uint256",
          "name": "_publicStartTime",
          "type": "uint256"
        },
        {
          "internalType": "uint256",
          "name": "_publicEndTime",
          "type": "uint256"
        }
      ],
      "name": "setPublicSaleTimes",
      "outputs": [],
      "stateMutability": "nonpayable",
      "type": "function"
    },
    {
      "inputs": [
        {
          "internalType": "uint256",
          "name": "_whitelistLimit",
          "type": "uint256"
        }
      ],
      "name": "setWhitelistLimit",
      "outputs": [],
      "stateMutability": "nonpayable",
      "type": "function"
    },
    {
      "inputs": [
        {
          "internalType": "bytes32",
          "name": "root",
          "type": "bytes32"
        }
      ],
      "name": "setWhitelistMerkleRoot",
      "outputs": [],
      "stateMutability": "nonpayable",
      "type": "function"
    },
    {
      "inputs": [
        {
          "internalType": "uint256",
          "name": "_price",
          "type": "uint256"
        }
      ],
      "name": "setWhitelistPrice",
      "outputs": [],
      "stateMutability": "nonpayable",
      "type": "function"
    },
    {
      "inputs": [
        {
          "internalType": "uint256",
          "name": "_whitelistStartTime",
          "type": "uint256"
        },
        {
          "internalType": "uint256",
          "name": "_whitelistEndTime",
          "type": "uint256"
        }
      ],
      "name": "setWhitelistTimes",
      "outputs": [],
      "stateMutability": "nonpayable",
      "type": "function"
    },
    {
      "inputs": [
        {
          "internalType": "bytes4",
          "name": "interfaceId",
          "type": "bytes4"
        }
      ],
      "name": "supportsInterface",
      "outputs": [
        {
          "internalType": "bool",
          "name": "",
          "type": "bool"
        }
      ],
      "stateMutability": "view",
      "type": "function"
    },
    {
      "inputs": [],
      "name": "symbol",
      "outputs": [
        {
          "internalType": "string",
          "name": "",
          "type": "string"
        }
      ],
      "stateMutability": "view",
      "type": "function"
    },
    {
      "inputs": [],
      "name": "timesFinalized",
      "outputs": [
        {
          "internalType": "bool",
          "name": "",
          "type": "bool"
        }
      ],
      "stateMutability": "view",
      "type": "function"
    },
    {
      "inputs": [],
      "name": "togglePublic",
      "outputs": [],
      "stateMutability": "nonpayable",
      "type": "function"
    },
    {
      "inputs": [],
      "name": "toggleReveal",
      "outputs": [],
      "stateMutability": "nonpayable",
      "type": "function"
    },
    {
      "inputs": [],
      "name": "toggleWhitelistSale",
      "outputs": [],
      "stateMutability": "nonpayable",
      "type": "function"
    },
    {
      "inputs": [
        {
          "internalType": "uint256",
          "name": "id",
          "type": "uint256"
        }
      ],
      "name": "tokenURI",
      "outputs": [
        {
          "internalType": "string",
          "name": "",
          "type": "string"
        }
      ],
      "stateMutability": "view",
      "type": "function"
    },
    {
      "inputs": [],
      "name": "totalSupply",
      "outputs": [
        {
          "internalType": "uint256",
          "name": "",
          "type": "uint256"
        }
      ],
      "stateMutability": "view",
      "type": "function"
    },
    {
      "inputs": [
        {
          "internalType": "address",
          "name": "from",
          "type": "address"
        },
        {
          "internalType": "address",
          "name": "to",
          "type": "address"
        },
        {
          "internalType": "uint256",
          "name": "tokenId",
          "type": "uint256"
        }
      ],
      "name": "transferFrom",
      "outputs": [],
      "stateMutability": "nonpayable",
      "type": "function"
    },
    {
      "inputs": [
        {
          "internalType": "bytes32[]",
          "name": "_merkleProof",
          "type": "bytes32[]"
        },
        {
          "internalType": "address",
          "name": "addr",
          "type": "address"
        }
      ],
      "name": "verifyWhitelist",
      "outputs": [
        {
          "internalType": "bool",
          "name": "",
          "type": "bool"
        }
      ],
      "stateMutability": "view",
      "type": "function"
    },
    {
      "inputs": [],
      "name": "whitelistEnd",
      "outputs": [
        {
          "internalType": "uint256",
          "name": "",
          "type": "uint256"
        }
      ],
      "stateMutability": "view",
      "type": "function"
    },
    {
      "inputs": [],
      "name": "whitelistLimit",
      "outputs": [
        {
          "internalType": "uint256",
          "name": "",
          "type": "uint256"
        }
      ],
      "stateMutability": "view",
      "type": "function"
    },
    {
      "inputs": [],
      "name": "whitelistMerkleRoot",
      "outputs": [
        {
          "internalType": "bytes32",
          "name": "",
          "type": "bytes32"
        }
      ],
      "stateMutability": "view",
      "type": "function"
    },
    {
      "inputs": [
        {
          "internalType": "bytes32[]",
          "name": "_merkleProof",
          "type": "bytes32[]"
        },
        {
          "internalType": "uint256",
          "name": "quantity",
          "type": "uint256"
        }
      ],
      "name": "whitelistMint",
      "outputs": [],
      "stateMutability": "payable",
      "type": "function"
    },
    {
      "inputs": [],
      "name": "whitelistPrice",
      "outputs": [
        {
          "internalType": "uint256",
          "name": "",
          "type": "uint256"
        }
      ],
      "stateMutability": "view",
      "type": "function"
    },
    {
      "inputs": [],
      "name": "whitelistStart",
      "outputs": [
        {
          "internalType": "uint256",
          "name": "",
          "type": "uint256"
        }
      ],
      "stateMutability": "view",
      "type": "function"
    },
    {
      "inputs": [],
      "name": "withdraw",
      "outputs": [],
      "stateMutability": "nonpayable",
      "type": "function"
    }
  ],
  "bytecode": "0x60a06040527fa49807205ce4d355092ef5a8a18f56e8913cf4a201fbe287825b095693c217756009557f950b8f2d7415defaee398bb4898e8e094a64c725873b81952b7ab9f08d70efb3600a556000600f60006101000a81548160ff0219169083151502179055506000600f60016101000a81548160ff0219169083151502179055506000600f60026101000a81548160ff0219169083151502179055506000600f60036101000a81548160ff0219169083151502179055506000600f60046101000a81548160ff0219169083151502179055506000600f60056101000a81548160ff0219169083151502179055506000600f60066101000a81548160ff0219169083151502179055506103e86010556003601155601460125566f8b0a10e47000060135567016345785d8a00006014553480156200013d57600080fd5b506040516200640c3803806200640c833981810160405281019062000163919062000740565b6040518060400160405280600b81526020017f54656d706c6174654e46540000000000000000000000000000000000000000008152506040518060400160405280600381526020017f54465400000000000000000000000000000000000000000000000000000000008152508160029080519060200190620001e792919062000453565b5080600390805190602001906200020092919062000453565b5050508273ffffffffffffffffffffffffffffffffffffffff1660808173ffffffffffffffffffffffffffffffffffffffff168152505081600b8190555080600e90805190602001906200025692919062000453565b5061070842620002679190620007f4565b6015819055506138406015546200027f9190620007f4565b601681905550601654601781905550613840601754620002a09190620007f4565b601881905550620002bb6000801b33620002d860201b60201c565b620002cf60095433620002d860201b60201c565b505050620008b5565b620002ea8282620002ee60201b60201c565b5050565b620003008282620003e060201b60201c565b620003dc5760016008600084815260200190815260200160002060000160008373ffffffffffffffffffffffffffffffffffffffff1673ffffffffffffffffffffffffffffffffffffffff16815260200190815260200160002060006101000a81548160ff021916908315150217905550620003816200044b60201b60201c565b73ffffffffffffffffffffffffffffffffffffffff168173ffffffffffffffffffffffffffffffffffffffff16837f2f8788117e7eff1d82e926ec794901d17c78024a50270940304540a733656f0d60405160405180910390a45b5050565b60006008600084815260200190815260200160002060000160008373ffffffffffffffffffffffffffffffffffffffff1673ffffffffffffffffffffffffffffffffffffffff16815260200190815260200160002060009054906101000a900460ff16905092915050565b600033905090565b828054620004619062000880565b90600052602060002090601f016020900481019282620004855760008555620004d1565b82601f10620004a057805160ff1916838001178555620004d1565b82800160010185558215620004d1579182015b82811115620004d0578251825591602001919060010190620004b3565b5b509050620004e09190620004e4565b5090565b5b80821115620004ff576000816000905550600101620004e5565b5090565b6000604051905090565b600080fd5b600080fd5b600073ffffffffffffffffffffffffffffffffffffffff82169050919050565b6000620005448262000517565b9050919050565b620005568162000537565b81146200056257600080fd5b50565b60008151905062000576816200054b565b92915050565b6000819050919050565b62000591816200057c565b81146200059d57600080fd5b50565b600081519050620005b18162000586565b92915050565b600080fd5b600080fd5b6000601f19601f8301169050919050565b7f4e487b7100000000000000000000000000000000000000000000000000000000600052604160045260246000fd5b6200060c82620005c1565b810181811067ffffffffffffffff821117156200062e576200062d620005d2565b5b80604052505050565b60006200064362000503565b905062000651828262000601565b919050565b600067ffffffffffffffff821115620006745762000673620005d2565b5b6200067f82620005c1565b9050602081019050919050565b60005b83811015620006ac5780820151818401526020810190506200068f565b83811115620006bc576000848401525b50505050565b6000620006d9620006d38462000656565b62000637565b905082815260208101848484011115620006f857620006f7620005bc565b5b620007058482856200068c565b509392505050565b600082601f830112620007255762000724620005b7565b5b815162000737848260208601620006c2565b91505092915050565b6000806000606084860312156200075c576200075b6200050d565b5b60006200076c8682870162000565565b93505060206200077f86828701620005a0565b925050604084015167ffffffffffffffff811115620007a357620007a262000512565b5b620007b1868287016200070d565b9150509250925092565b6000819050919050565b7f4e487b7100000000000000000000000000000000000000000000000000000000600052601160045260246000fd5b60006200080182620007bb565b91506200080e83620007bb565b9250827fffffffffffffffffffffffffffffffffffffffffffffffffffffffffffffffff03821115620008465762000845620007c5565b5b828201905092915050565b7f4e487b7100000000000000000000000000000000000000000000000000000000600052602260045260246000fd5b600060028204905060018216806200089957607f821691505b602082108103620008af57620008ae62000851565b5b50919050565b608051615b3b620008d160003960006116af0152615b3b6000f3fe6080604052600436106103e45760003560e01c80638fd8aa9f11610208578063aa98e0c611610118578063cf9f8e21116100ab578063e932406f1161007a578063e932406f14610e21578063e985e9c514610e4c578063f4a560a514610e89578063f96c678c14610ea0578063fc1a1c3614610ec9576103e4565b8063cf9f8e2114610d8d578063d2521ae814610db8578063d4dd7b8114610de1578063d547741f14610df8576103e4565b8063bfb6e0e7116100e7578063bfb6e0e714610cd3578063c627525514610cfe578063c634b78e14610d27578063c87b56dd14610d50576103e4565b8063aa98e0c614610c2b578063b88d4fde14610c56578063b98451cf14610c7f578063bd32fb6614610caa576103e4565b80639a19c7b01161019b578063a22cb4651161016a578063a22cb46514610b56578063a4331d2d14610b7f578063a5f4c6ff14610baa578063a784476214610bd5578063a945bf8014610c00576103e4565b80639a19c7b014610abd578063a0712d6814610ae6578063a1afe16814610b02578063a217fddf14610b2b576103e4565b806395d89b41116101d757806395d89b4114610a25578063981d877114610a50578063994d396914610a6757806399c9c36d14610a92576103e4565b80638fd8aa9f1461096b578063919437081461099457806391d14854146109bf578063955e16af146109fc576103e4565b806333289b521161030357806356f07a3e116102965780636352211e116102655780636352211e1461087457806370a08231146108b1578063717d57d3146108ee57806375b238fc146109175780638ba4cc3c14610942576103e4565b806356f07a3e1461080457806359eda1b51461081b5780635b8ad42914610832578063621d388c14610849576103e4565b806342842e0e116102d257806342842e0e1461075c57806345c0f5331461078557806351830227146107b057806355f804b3146107db576103e4565b806333289b52146106ca5780633574a2dd146106f357806336568abe1461071c5780633ccfd60b14610745576103e4565b80631e84c4131161037b5780632904e6d91161034a5780632904e6d91461062f5780632f2ff15d1461064b578063302150e514610674578063305ac3671461069f576103e4565b80631e84c4131461057557806323637617146105a057806323b872dd146105c9578063248a9ca3146105f2576103e4565b80630acae9a7116103b75780630acae9a7146104b757806318160ddd146104e257806318ff357e1461050d57806319cc02aa1461054a576103e4565b806301ffc9a7146103e957806306fdde0314610426578063081812fc14610451578063095ea7b31461048e575b600080fd5b3480156103f557600080fd5b50610410600480360381019061040b91906143fb565b610ef4565b60405161041d9190614443565b60405180910390f35b34801561043257600080fd5b5061043b610f06565b60405161044891906144f7565b60405180910390f35b34801561045d57600080fd5b506104786004803603810190610473919061454f565b610f98565b60405161048591906145bd565b60405180910390f35b34801561049a57600080fd5b506104b560048036038101906104b09190614604565b611014565b005b3480156104c357600080fd5b506104cc61111e565b6040516104d99190614653565b60405180910390f35b3480156104ee57600080fd5b506104f7611124565b6040516105049190614653565b60405180910390f35b34801561051957600080fd5b50610534600480360381019061052f91906146d3565b611132565b6040516105419190614443565b60405180910390f35b34801561055657600080fd5b5061055f61114b565b60405161056c9190614443565b60405180910390f35b34801561058157600080fd5b5061058a61115e565b6040516105979190614443565b60405180910390f35b3480156105ac57600080fd5b506105c760048036038101906105c2919061454f565b611196565b005b3480156105d557600080fd5b506105f060048036038101906105eb9190614733565b6111ff565b005b3480156105fe57600080fd5b50610619600480360381019061061491906147bc565b61120f565b60405161062691906147f8565b60405180910390f35b61064960048036038101906106449190614813565b61122f565b005b34801561065757600080fd5b50610672600480360381019061066d9190614873565b611461565b005b34801561068057600080fd5b5061068961148a565b6040516106969190614653565b60405180910390f35b3480156106ab57600080fd5b506106b4611490565b6040516106c19190614443565b60405180910390f35b3480156106d657600080fd5b506106f160048036038101906106ec91906148b3565b6114a3565b005b3480156106ff57600080fd5b5061071a60048036038101906107159190614a10565b611511565b005b34801561072857600080fd5b50610743600480360381019061073e9190614873565b6115e0565b005b34801561075157600080fd5b5061075a611663565b005b34801561076857600080fd5b50610783600480360381019061077e9190614733565b61177b565b005b34801561079157600080fd5b5061079a61179b565b6040516107a79190614653565b60405180910390f35b3480156107bc57600080fd5b506107c56117a1565b6040516107d29190614443565b60405180910390f35b3480156107e757600080fd5b5061080260048036038101906107fd9190614a10565b6117b4565b005b34801561081057600080fd5b50610819611883565b005b34801561082757600080fd5b50610830611955565b005b34801561083e57600080fd5b50610847611a36565b005b34801561085557600080fd5b5061085e611b17565b60405161086b9190614443565b60405180910390f35b34801561088057600080fd5b5061089b6004803603810190610896919061454f565b611b3e565b6040516108a891906145bd565b60405180910390f35b3480156108bd57600080fd5b506108d860048036038101906108d391906148b3565b611b54565b6040516108e59190614653565b60405180910390f35b3480156108fa57600080fd5b506109156004803603810190610910919061454f565b611c23565b005b34801561092357600080fd5b5061092c611c8c565b60405161093991906147f8565b60405180910390f35b34801561094e57600080fd5b5061096960048036038101906109649190614604565b611c92565b005b34801561097757600080fd5b50610992600480360381019061098d919061454f565b611db4565b005b3480156109a057600080fd5b506109a9611eab565b6040516109b69190614443565b60405180910390f35b3480156109cb57600080fd5b506109e660048036038101906109e19190614873565b611ebe565b6040516109f39190614443565b60405180910390f35b348015610a0857600080fd5b50610a236004803603810190610a1e9190614a59565b611f29565b005b348015610a3157600080fd5b50610a3a611ff0565b604051610a4791906144f7565b60405180910390f35b348015610a5c57600080fd5b50610a65612082565b005b348015610a7357600080fd5b50610a7c612163565b604051610a899190614653565b60405180910390f35b348015610a9e57600080fd5b50610aa7612169565b604051610ab49190614653565b60405180910390f35b348015610ac957600080fd5b50610ae46004803603810190610adf91906148b3565b61216e565b005b610b006004803603810190610afb919061454f565b612193565b005b348015610b0e57600080fd5b50610b296004803603810190610b249190614a59565b6122d9565b005b348015610b3757600080fd5b50610b406123a0565b604051610b4d91906147f8565b60405180910390f35b348015610b6257600080fd5b50610b7d6004803603810190610b789190614ac5565b6123a7565b005b348015610b8b57600080fd5b50610b9461251e565b604051610ba19190614653565b60405180910390f35b348015610bb657600080fd5b50610bbf612524565b604051610bcc9190614653565b60405180910390f35b348015610be157600080fd5b50610bea61252a565b604051610bf79190614443565b60405180910390f35b348015610c0c57600080fd5b50610c1561253d565b604051610c229190614653565b60405180910390f35b348015610c3757600080fd5b50610c40612543565b604051610c4d91906147f8565b60405180910390f35b348015610c6257600080fd5b50610c7d6004803603810190610c789190614ba6565b612549565b005b348015610c8b57600080fd5b50610c9461259c565b604051610ca19190614443565b60405180910390f35b348015610cb657600080fd5b50610cd16004803603810190610ccc91906147bc565b6125d4565b005b348015610cdf57600080fd5b50610ce8612693565b604051610cf59190614653565b60405180910390f35b348015610d0a57600080fd5b50610d256004803603810190610d20919061454f565b612699565b005b348015610d3357600080fd5b50610d4e6004803603810190610d4991906148b3565b612702565b005b348015610d5c57600080fd5b50610d776004803603810190610d72919061454f565b612727565b604051610d8491906144f7565b60405180910390f35b348015610d9957600080fd5b50610da261284e565b604051610daf9190614443565b60405180910390f35b348015610dc457600080fd5b50610ddf6004803603810190610dda919061454f565b612861565b005b348015610ded57600080fd5b50610df66128ca565b005b348015610e0457600080fd5b50610e1f6004803603810190610e1a9190614873565b61299c565b005b348015610e2d57600080fd5b50610e366129c5565b604051610e4391906147f8565b60405180910390f35b348015610e5857600080fd5b50610e736004803603810190610e6e9190614c29565b6129cb565b604051610e809190614443565b60405180910390f35b348015610e9557600080fd5b50610e9e612a5f565b005b348015610eac57600080fd5b50610ec76004803603810190610ec291906148b3565b612b31565b005b348015610ed557600080fd5b50610ede612b9f565b604051610eeb9190614653565b60405180910390f35b6000610eff82612ba5565b9050919050565b606060028054610f1590614c98565b80601f0160208091040260200160405190810160405280929190818152602001828054610f4190614c98565b8015610f8e5780601f10610f6357610100808354040283529160200191610f8e565b820191906000526020600020905b815481529060010190602001808311610f7157829003601f168201915b5050505050905090565b6000610fa382612c1f565b610fd9576040517fcf4700e400000000000000000000000000000000000000000000000000000000815260040160405180910390fd5b6006600083815260200190815260200160002060009054906101000a900473ffffffffffffffffffffffffffffffffffffffff169050919050565b600061101f82611b3e565b90508073ffffffffffffffffffffffffffffffffffffffff168373ffffffffffffffffffffffffffffffffffffffff1603611086576040517f943f7b8c00000000000000000000000000000000000000000000000000000000815260040160405180910390fd5b8073ffffffffffffffffffffffffffffffffffffffff166110a5612c59565b73ffffffffffffffffffffffffffffffffffffffff16141580156110d757506110d5816110d0612c59565b6129cb565b155b1561110e576040517fcfb3b94200000000000000000000000000000000000000000000000000000000815260040160405180910390fd5b611119838383612c61565b505050565b60185481565b600060015460005403905090565b60006111428484600b5485612d13565b90509392505050565b600f60039054906101000a900460ff1681565b6000600f60069054906101000a900460ff161561117e5760019050611193565b60175442118015611190575060185442105b90505b90565b6111a36000801b33611ebe565b806111b657506111b560095433611ebe565b5b6111f5576040517f08c379a00000000000000000000000000000000000000000000000000000000081526004016111ec90614d15565b60405180910390fd5b8060128190555050565b61120a838383612d98565b505050565b600060086000838152602001908152602001600020600101549050919050565b61123761259c565b611276576040517f08c379a000000000000000000000000000000000000000000000000000000000815260040161126d90614d81565b60405180910390fd5b611281838333611132565b6112c0576040517f08c379a00000000000000000000000000000000000000000000000000000000081526004016112b790614ded565b60405180910390fd5b601054816112cc611124565b6112d69190614e3c565b1115611317576040517f08c379a000000000000000000000000000000000000000000000000000000000815260040161130e90614ede565b60405180910390fd5b60115481600c60003373ffffffffffffffffffffffffffffffffffffffff1673ffffffffffffffffffffffffffffffffffffffff168152602001908152602001600020546113659190614e3c565b11156113a6576040517f08c379a000000000000000000000000000000000000000000000000000000000815260040161139d90614f4a565b60405180910390fd5b6000601354826113b69190614f6a565b9050803410156113fb576040517f08c379a00000000000000000000000000000000000000000000000000000000081526004016113f290615010565b60405180910390fd5b81600c60003373ffffffffffffffffffffffffffffffffffffffff1673ffffffffffffffffffffffffffffffffffffffff168152602001908152602001600020600082825461144a9190614e3c565b9250508190555061145b3383613287565b50505050565b61146a8261120f565b61147b81611476612c59565b6132a5565b6114858383613342565b505050565b60115481565b600f60009054906101000a900460ff1681565b6114b06000801b33611ebe565b806114c357506114c260095433611ebe565b5b611502576040517f08c379a00000000000000000000000000000000000000000000000000000000081526004016114f990614d15565b60405180910390fd5b61150e600a5482613423565b50565b61151e6000801b33611ebe565b80611531575061153060095433611ebe565b5b611570576040517f08c379a000000000000000000000000000000000000000000000000000000000815260040161156790614d15565b60405180910390fd5b60001515600f60019054906101000a900460ff161515146115c6576040517f08c379a00000000000000000000000000000000000000000000000000000000081526004016115bd9061507c565b60405180910390fd5b80600e90805190602001906115dc9291906142a9565b5050565b6115e8612c59565b73ffffffffffffffffffffffffffffffffffffffff168173ffffffffffffffffffffffffffffffffffffffff1614611655576040517f08c379a000000000000000000000000000000000000000000000000000000000815260040161164c9061510e565b60405180910390fd5b61165f8282613423565b5050565b6000479050600081116116ab576040517f08c379a00000000000000000000000000000000000000000000000000000000081526004016116a29061517a565b60405180910390fd5b60007f000000000000000000000000000000000000000000000000000000000000000073ffffffffffffffffffffffffffffffffffffffff16826040516116f1906151cb565b60006040518083038185875af1925050503d806000811461172e576040519150601f19603f3d011682016040523d82523d6000602084013e611733565b606091505b5050905080611777576040517f08c379a000000000000000000000000000000000000000000000000000000000815260040161176e9061522c565b60405180910390fd5b5050565b61179683838360405180602001604052806000815250612549565b505050565b60105481565b600f60049054906101000a900460ff1681565b6117c16000801b33611ebe565b806117d457506117d360095433611ebe565b5b611813576040517f08c379a000000000000000000000000000000000000000000000000000000000815260040161180a90614d15565b60405180910390fd5b60001515600f60019054906101000a900460ff16151514611869576040517f08c379a00000000000000000000000000000000000000000000000000000000081526004016118609061507c565b60405180910390fd5b80600d908051906020019061187f9291906142a9565b5050565b6118906000801b33611ebe565b806118a357506118a260095433611ebe565b5b6118e2576040517f08c379a00000000000000000000000000000000000000000000000000000000081526004016118d990614d15565b60405180910390fd5b60001515600f60029054906101000a900460ff16151514611938576040517f08c379a000000000000000000000000000000000000000000000000000000000815260040161192f90615298565b60405180910390fd5b6001600f60026101000a81548160ff021916908315150217905550565b6119626000801b33611ebe565b80611975575061197460095433611ebe565b5b6119b4576040517f08c379a00000000000000000000000000000000000000000000000000000000081526004016119ab90614d15565b60405180910390fd5b60001515600f60029054906101000a900460ff16151514611a0a576040517f08c379a0000000000000000000000000000000000000000000000000000000008152600401611a0190615298565b60405180910390fd5b600f60059054906101000a900460ff1615600f60056101000a81548160ff021916908315150217905550565b611a436000801b33611ebe565b80611a565750611a5560095433611ebe565b5b611a95576040517f08c379a0000000000000000000000000000000000000000000000000000000008152600401611a8c90614d15565b60405180910390fd5b60001515600f60019054906101000a900460ff16151514611aeb576040517f08c379a0000000000000000000000000000000000000000000000000000000008152600401611ae29061507c565b60405180910390fd5b600f60049054906101000a900460ff1615600f60046101000a81548160ff021916908315150217905550565b6000611b2560095433611ebe565b80611b395750611b386000801b33611ebe565b5b905090565b6000611b4982613505565b600001519050919050565b60008073ffffffffffffffffffffffffffffffffffffffff168273ffffffffffffffffffffffffffffffffffffffff1603611bbb576040517f8f4eb60400000000000000000000000000000000000000000000000000000000815260040160405180910390fd5b600560008373ffffffffffffffffffffffffffffffffffffffff1673ffffffffffffffffffffffffffffffffffffffff16815260200190815260200160002060000160009054906101000a900467ffffffffffffffff1667ffffffffffffffff169050919050565b611c306000801b33611ebe565b80611c435750611c4260095433611ebe565b5b611c82576040517f08c379a0000000000000000000000000000000000000000000000000000000008152600401611c7990614d15565b60405180910390fd5b8060138190555050565b60095481565b611c9f6000801b33611ebe565b80611cb25750611cb160095433611ebe565b5b611cf1576040517f08c379a0000000000000000000000000000000000000000000000000000000008152600401611ce890614d15565b60405180910390fd5b60001515600f60039054906101000a900460ff16151514611d47576040517f08c379a0000000000000000000000000000000000000000000000000000000008152600401611d3e90615304565b60405180910390fd5b6064811115611d8b576040517f08c379a0000000000000000000000000000000000000000000000000000000008152600401611d8290615370565b60405180910390fd5b6001600f60036101000a81548160ff021916908315150217905550611db08282613287565b5050565b611dc16000801b33611ebe565b80611dd45750611dd360095433611ebe565b5b611e13576040517f08c379a0000000000000000000000000000000000000000000000000000000008152600401611e0a90614d15565b60405180910390fd5b6010548110611e57576040517f08c379a0000000000000000000000000000000000000000000000000000000008152600401611e4e906153dc565b60405180910390fd5b611e5f611124565b811015611ea1576040517f08c379a0000000000000000000000000000000000000000000000000000000008152600401611e9890615448565b60405180910390fd5b8060108190555050565b600f60019054906101000a900460ff1681565b60006008600084815260200190815260200160002060000160008373ffffffffffffffffffffffffffffffffffffffff1673ffffffffffffffffffffffffffffffffffffffff16815260200190815260200160002060009054906101000a900460ff16905092915050565b611f366000801b33611ebe565b80611f495750611f4860095433611ebe565b5b611f88576040517f08c379a0000000000000000000000000000000000000000000000000000000008152600401611f7f90614d15565b60405180910390fd5b60001515600f60029054906101000a900460ff16151514611fde576040517f08c379a0000000000000000000000000000000000000000000000000000000008152600401611fd590615298565b60405180910390fd5b81601781905550806018819055505050565b606060038054611fff90614c98565b80601f016020809104026020016040519081016040528092919081815260200182805461202b90614c98565b80156120785780601f1061204d57610100808354040283529160200191612078565b820191906000526020600020905b81548152906001019060200180831161205b57829003601f168201915b5050505050905090565b61208f6000801b33611ebe565b806120a257506120a160095433611ebe565b5b6120e1576040517f08c379a00000000000000000000000000000000000000000000000000000000081526004016120d890614d15565b60405180910390fd5b60001515600f60029054906101000a900460ff16151514612137576040517f08c379a000000000000000000000000000000000000000000000000000000000815260040161212e90615298565b60405180910390fd5b600f60069054906101000a900460ff1615600f60066101000a81548160ff021916908315150217905550565b60155481565b606481565b6000801b6121838161217e612c59565b6132a5565b61218f60095483613423565b5050565b61219b61115e565b6121da576040517f08c379a00000000000000000000000000000000000000000000000000000000081526004016121d1906154b4565b60405180910390fd5b60125481111561221f576040517f08c379a000000000000000000000000000000000000000000000000000000000815260040161221690615520565b60405180910390fd5b6010548161222b611124565b6122359190614e3c565b1115612276576040517f08c379a000000000000000000000000000000000000000000000000000000000815260040161226d90614ede565b60405180910390fd5b6000601454826122869190614f6a565b9050803410156122cb576040517f08c379a00000000000000000000000000000000000000000000000000000000081526004016122c290615010565b60405180910390fd5b6122d53383613287565b5050565b6122e66000801b33611ebe565b806122f957506122f860095433611ebe565b5b612338576040517f08c379a000000000000000000000000000000000000000000000000000000000815260040161232f90614d15565b60405180910390fd5b60001515600f60029054906101000a900460ff1615151461238e576040517f08c379a000000000000000000000000000000000000000000000000000000000815260040161238590615298565b60405180910390fd5b81601581905550806016819055505050565b6000801b81565b6123af612c59565b73ffffffffffffffffffffffffffffffffffffffff168273ffffffffffffffffffffffffffffffffffffffff1603612413576040517fb06307db00000000000000000000000000000000000000000000000000000000815260040160405180910390fd5b8060076000612420612c59565b73ffffffffffffffffffffffffffffffffffffffff1673ffffffffffffffffffffffffffffffffffffffff16815260200190815260200160002060008473ffffffffffffffffffffffffffffffffffffffff1673ffffffffffffffffffffffffffffffffffffffff16815260200190815260200160002060006101000a81548160ff0219169083151502179055508173ffffffffffffffffffffffffffffffffffffffff166124cd612c59565b73ffffffffffffffffffffffffffffffffffffffff167f17307eab39ab6107e8899845ad3d59bd9653f200f220920489ca2b5937696c31836040516125129190614443565b60405180910390a35050565b60125481565b60175481565b6000612538600a5433611ebe565b905090565b60145481565b600b5481565b612554848484612d98565b61256084848484613781565b612596576040517fd1a57ed600000000000000000000000000000000000000000000000000000000815260040160405180910390fd5b50505050565b6000600f60059054906101000a900460ff16156125bc57600190506125d1565b601554421180156125ce575060165442105b90505b90565b6125e16000801b33611ebe565b806125f457506125f360095433611ebe565b5b612633576040517f08c379a000000000000000000000000000000000000000000000000000000000815260040161262a90614d15565b60405180910390fd5b60001515600f60009054906101000a900460ff16151514612689576040517f08c379a00000000000000000000000000000000000000000000000000000000081526004016126809061558c565b60405180910390fd5b80600b8190555050565b60165481565b6126a66000801b33611ebe565b806126b957506126b860095433611ebe565b5b6126f8576040517f08c379a00000000000000000000000000000000000000000000000000000000081526004016126ef90614d15565b60405180910390fd5b8060148190555050565b6000801b61271781612712612c59565b6132a5565b61272360095483613342565b5050565b606061273282612c1f565b612771576040517f08c379a0000000000000000000000000000000000000000000000000000000008152600401612768906155f8565b60405180910390fd5b600f60049054906101000a900460ff1661281557600e805461279290614c98565b80601f01602080910402602001604051908101604052809291908181526020018280546127be90614c98565b801561280b5780601f106127e05761010080835404028352916020019161280b565b820191906000526020600020905b8154815290600101906020018083116127ee57829003601f168201915b5050505050612847565b61281d6138ff565b61282683613991565b6040516020016128379291906156a0565b6040516020818303038152906040525b9050919050565b600f60029054906101000a900460ff1681565b61286e6000801b33611ebe565b80612881575061288060095433611ebe565b5b6128c0576040517f08c379a00000000000000000000000000000000000000000000000000000000081526004016128b790614d15565b60405180910390fd5b8060118190555050565b6128d76000801b33611ebe565b806128ea57506128e960095433611ebe565b5b612929576040517f08c379a000000000000000000000000000000000000000000000000000000000815260040161292090614d15565b60405180910390fd5b60001515600f60009054906101000a900460ff1615151461297f576040517f08c379a00000000000000000000000000000000000000000000000000000000081526004016129769061558c565b60405180910390fd5b6001600f60006101000a81548160ff021916908315150217905550565b6129a58261120f565b6129b6816129b1612c59565b6132a5565b6129c08383613423565b505050565b600a5481565b6000600760008473ffffffffffffffffffffffffffffffffffffffff1673ffffffffffffffffffffffffffffffffffffffff16815260200190815260200160002060008373ffffffffffffffffffffffffffffffffffffffff1673ffffffffffffffffffffffffffffffffffffffff16815260200190815260200160002060009054906101000a900460ff16905092915050565b612a6c6000801b33611ebe565b80612a7f5750612a7e60095433611ebe565b5b612abe576040517f08c379a0000000000000000000000000000000000000000000000000000000008152600401612ab590614d15565b60405180910390fd5b60001515600f60019054906101000a900460ff16151514612b14576040517f08c379a0000000000000000000000000000000000000000000000000000000008152600401612b0b9061507c565b60405180910390fd5b6001600f60016101000a81548160ff021916908315150217905550565b612b3e6000801b33611ebe565b80612b515750612b5060095433611ebe565b5b612b90576040517f08c379a0000000000000000000000000000000000000000000000000000000008152600401612b8790614d15565b60405180910390fd5b612b9c600a5482613342565b50565b60135481565b60007f7965db0b000000000000000000000000000000000000000000000000000000007bffffffffffffffffffffffffffffffffffffffffffffffffffffffff1916827bffffffffffffffffffffffffffffffffffffffffffffffffffffffff19161480612c185750612c1782613af1565b5b9050919050565b6000805482108015612c52575060046000838152602001908152602001600020600001601c9054906101000a900460ff16155b9050919050565b600033905090565b826006600084815260200190815260200160002060006101000a81548173ffffffffffffffffffffffffffffffffffffffff021916908373ffffffffffffffffffffffffffffffffffffffff160217905550818373ffffffffffffffffffffffffffffffffffffffff168273ffffffffffffffffffffffffffffffffffffffff167f8c5be1e5ebec7d5bd14f71427d1e84f3dd0314c0f7b2291e5b200ac8c7c3b92560405160405180910390a4505050565b600060011515612d8b868680806020026020016040519081016040528093929190818152602001838360200280828437600081840152601f19601f820116905080830192505050505050508585604051602001612d709190615717565b60405160208183030381529060405280519060200120613bd3565b1515149050949350505050565b6000612da382613505565b90506000816000015173ffffffffffffffffffffffffffffffffffffffff16612dca612c59565b73ffffffffffffffffffffffffffffffffffffffff161480612dfd5750612dfc8260000151612df7612c59565b6129cb565b5b80612e425750612e0b612c59565b73ffffffffffffffffffffffffffffffffffffffff16612e2a84610f98565b73ffffffffffffffffffffffffffffffffffffffff16145b905080612e7b576040517f59c896be00000000000000000000000000000000000000000000000000000000815260040160405180910390fd5b8473ffffffffffffffffffffffffffffffffffffffff16826000015173ffffffffffffffffffffffffffffffffffffffff1614612ee4576040517fa114810000000000000000000000000000000000000000000000000000000000815260040160405180910390fd5b600073ffffffffffffffffffffffffffffffffffffffff168473ffffffffffffffffffffffffffffffffffffffff1603612f4a576040517fea553b3400000000000000000000000000000000000000000000000000000000815260040160405180910390fd5b612f578585856001613bea565b612f676000848460000151612c61565b6001600560008773ffffffffffffffffffffffffffffffffffffffff1673ffffffffffffffffffffffffffffffffffffffff16815260200190815260200160002060000160008282829054906101000a900467ffffffffffffffff160392506101000a81548167ffffffffffffffff021916908367ffffffffffffffff1602179055506001600560008673ffffffffffffffffffffffffffffffffffffffff1673ffffffffffffffffffffffffffffffffffffffff16815260200190815260200160002060000160008282829054906101000a900467ffffffffffffffff160192506101000a81548167ffffffffffffffff021916908367ffffffffffffffff160217905550836004600085815260200190815260200160002060000160006101000a81548173ffffffffffffffffffffffffffffffffffffffff021916908373ffffffffffffffffffffffffffffffffffffffff160217905550426004600085815260200190815260200160002060000160146101000a81548167ffffffffffffffff021916908367ffffffffffffffff1602179055506000600184019050600073ffffffffffffffffffffffffffffffffffffffff166004600083815260200190815260200160002060000160009054906101000a900473ffffffffffffffffffffffffffffffffffffffff1673ffffffffffffffffffffffffffffffffffffffff1603613217576000548110156132165782600001516004600083815260200190815260200160002060000160006101000a81548173ffffffffffffffffffffffffffffffffffffffff021916908373ffffffffffffffffffffffffffffffffffffffff16021790555082602001516004600083815260200190815260200160002060000160146101000a81548167ffffffffffffffff021916908367ffffffffffffffff1602179055505b5b50828473ffffffffffffffffffffffffffffffffffffffff168673ffffffffffffffffffffffffffffffffffffffff167fddf252ad1be2c89b69c2b068fc378daa952ba7f163c4a11628f55a4df523b3ef60405160405180910390a46132808585856001613bf0565b5050505050565b6132a1828260405180602001604052806000815250613bf6565b5050565b6132af8282611ebe565b61333e576132d48173ffffffffffffffffffffffffffffffffffffffff166014613c08565b6132e28360001c6020613c08565b6040516020016132f39291906157ca565b6040516020818303038152906040526040517f08c379a000000000000000000000000000000000000000000000000000000000815260040161333591906144f7565b60405180910390fd5b5050565b61334c8282611ebe565b61341f5760016008600084815260200190815260200160002060000160008373ffffffffffffffffffffffffffffffffffffffff1673ffffffffffffffffffffffffffffffffffffffff16815260200190815260200160002060006101000a81548160ff0219169083151502179055506133c4612c59565b73ffffffffffffffffffffffffffffffffffffffff168173ffffffffffffffffffffffffffffffffffffffff16837f2f8788117e7eff1d82e926ec794901d17c78024a50270940304540a733656f0d60405160405180910390a45b5050565b61342d8282611ebe565b156135015760006008600084815260200190815260200160002060000160008373ffffffffffffffffffffffffffffffffffffffff1673ffffffffffffffffffffffffffffffffffffffff16815260200190815260200160002060006101000a81548160ff0219169083151502179055506134a6612c59565b73ffffffffffffffffffffffffffffffffffffffff168173ffffffffffffffffffffffffffffffffffffffff16837ff6391f5c32d9c69d2a47ea670b442974b53935d1edc7fd64eb21e047a839171b60405160405180910390a45b5050565b61350d61432f565b600082905060005481101561374a576000600460008381526020019081526020016000206040518060600160405290816000820160009054906101000a900473ffffffffffffffffffffffffffffffffffffffff1673ffffffffffffffffffffffffffffffffffffffff1673ffffffffffffffffffffffffffffffffffffffff1681526020016000820160149054906101000a900467ffffffffffffffff1667ffffffffffffffff1667ffffffffffffffff16815260200160008201601c9054906101000a900460ff1615151515815250509050806040015161374857600073ffffffffffffffffffffffffffffffffffffffff16816000015173ffffffffffffffffffffffffffffffffffffffff161461362c57809250505061377c565b5b60011561374757818060019003925050600460008381526020019081526020016000206040518060600160405290816000820160009054906101000a900473ffffffffffffffffffffffffffffffffffffffff1673ffffffffffffffffffffffffffffffffffffffff1673ffffffffffffffffffffffffffffffffffffffff1681526020016000820160149054906101000a900467ffffffffffffffff1667ffffffffffffffff1667ffffffffffffffff16815260200160008201601c9054906101000a900460ff1615151515815250509050600073ffffffffffffffffffffffffffffffffffffffff16816000015173ffffffffffffffffffffffffffffffffffffffff161461374257809250505061377c565b61362d565b5b505b6040517fdf2d9b4200000000000000000000000000000000000000000000000000000000815260040160405180910390fd5b919050565b60006137a28473ffffffffffffffffffffffffffffffffffffffff16613e44565b156138f2578373ffffffffffffffffffffffffffffffffffffffff1663150b7a026137cb612c59565b8786866040518563ffffffff1660e01b81526004016137ed9493929190615859565b6020604051808303816000875af192505050801561382957506040513d601f19601f8201168201806040525081019061382691906158ba565b60015b6138a2573d8060008114613859576040519150601f19603f3d011682016040523d82523d6000602084013e61385e565b606091505b50600081510361389a576040517fd1a57ed600000000000000000000000000000000000000000000000000000000815260040160405180910390fd5b805181602001fd5b63150b7a0260e01b7bffffffffffffffffffffffffffffffffffffffffffffffffffffffff1916817bffffffffffffffffffffffffffffffffffffffffffffffffffffffff1916149150506138f7565b600190505b949350505050565b6060600d805461390e90614c98565b80601f016020809104026020016040519081016040528092919081815260200182805461393a90614c98565b80156139875780601f1061395c57610100808354040283529160200191613987565b820191906000526020600020905b81548152906001019060200180831161396a57829003601f168201915b5050505050905090565b6060600082036139d8576040518060400160405280600181526020017f30000000000000000000000000000000000000000000000000000000000000008152509050613aec565b600082905060005b60008214613a0a5780806139f3906158e7565b915050600a82613a03919061595e565b91506139e0565b60008167ffffffffffffffff811115613a2657613a256148e5565b5b6040519080825280601f01601f191660200182016040528015613a585781602001600182028036833780820191505090505b5090505b60008514613ae557600182613a71919061598f565b9150600a85613a8091906159c3565b6030613a8c9190614e3c565b60f81b818381518110613aa257613aa16159f4565b5b60200101907effffffffffffffffffffffffffffffffffffffffffffffffffffffffffffff1916908160001a905350600a85613ade919061595e565b9450613a5c565b8093505050505b919050565b60007f80ac58cd000000000000000000000000000000000000000000000000000000007bffffffffffffffffffffffffffffffffffffffffffffffffffffffff1916827bffffffffffffffffffffffffffffffffffffffffffffffffffffffff19161480613bbc57507f5b5e139f000000000000000000000000000000000000000000000000000000007bffffffffffffffffffffffffffffffffffffffffffffffffffffffff1916827bffffffffffffffffffffffffffffffffffffffffffffffffffffffff1916145b80613bcc5750613bcb82613e57565b5b9050919050565b600082613be08584613ec1565b1490509392505050565b50505050565b50505050565b613c038383836001613f74565b505050565b606060006002836002613c1b9190614f6a565b613c259190614e3c565b67ffffffffffffffff811115613c3e57613c3d6148e5565b5b6040519080825280601f01601f191660200182016040528015613c705781602001600182028036833780820191505090505b5090507f300000000000000000000000000000000000000000000000000000000000000081600081518110613ca857613ca76159f4565b5b60200101907effffffffffffffffffffffffffffffffffffffffffffffffffffffffffffff1916908160001a9053507f780000000000000000000000000000000000000000000000000000000000000081600181518110613d0c57613d0b6159f4565b5b60200101907effffffffffffffffffffffffffffffffffffffffffffffffffffffffffffff1916908160001a90535060006001846002613d4c9190614f6a565b613d569190614e3c565b90505b6001811115613df6577f3031323334353637383961626364656600000000000000000000000000000000600f861660108110613d9857613d976159f4565b5b1a60f81b828281518110613daf57613dae6159f4565b5b60200101907effffffffffffffffffffffffffffffffffffffffffffffffffffffffffffff1916908160001a905350600485901c945080613def90615a23565b9050613d59565b5060008414613e3a576040517f08c379a0000000000000000000000000000000000000000000000000000000008152600401613e3190615a98565b60405180910390fd5b8091505092915050565b600080823b905060008111915050919050565b60007f01ffc9a7000000000000000000000000000000000000000000000000000000007bffffffffffffffffffffffffffffffffffffffffffffffffffffffff1916827bffffffffffffffffffffffffffffffffffffffffffffffffffffffff1916149050919050565b60008082905060005b8451811015613f69576000858281518110613ee857613ee76159f4565b5b60200260200101519050808311613f29578281604051602001613f0c929190615ad9565b604051602081830303815290604052805190602001209250613f55565b8083604051602001613f3c929190615ad9565b6040516020818303038152906040528051906020012092505b508080613f61906158e7565b915050613eca565b508091505092915050565b600080549050600073ffffffffffffffffffffffffffffffffffffffff168573ffffffffffffffffffffffffffffffffffffffff1603613fe0576040517f2e07630000000000000000000000000000000000000000000000000000000000815260040160405180910390fd5b6000840361401a576040517fb562e8dd00000000000000000000000000000000000000000000000000000000815260040160405180910390fd5b6140276000868387613bea565b83600560008773ffffffffffffffffffffffffffffffffffffffff1673ffffffffffffffffffffffffffffffffffffffff16815260200190815260200160002060000160008282829054906101000a900467ffffffffffffffff160192506101000a81548167ffffffffffffffff021916908367ffffffffffffffff16021790555083600560008773ffffffffffffffffffffffffffffffffffffffff1673ffffffffffffffffffffffffffffffffffffffff16815260200190815260200160002060000160088282829054906101000a900467ffffffffffffffff160192506101000a81548167ffffffffffffffff021916908367ffffffffffffffff160217905550846004600083815260200190815260200160002060000160006101000a81548173ffffffffffffffffffffffffffffffffffffffff021916908373ffffffffffffffffffffffffffffffffffffffff160217905550426004600083815260200190815260200160002060000160146101000a81548167ffffffffffffffff021916908367ffffffffffffffff160217905550600081905060005b8581101561428c57818773ffffffffffffffffffffffffffffffffffffffff16600073ffffffffffffffffffffffffffffffffffffffff167fddf252ad1be2c89b69c2b068fc378daa952ba7f163c4a11628f55a4df523b3ef60405160405180910390a4838015614240575061423e6000888488613781565b155b15614277576040517fd1a57ed600000000000000000000000000000000000000000000000000000000815260040160405180910390fd5b818060010192505080806001019150506141c5565b5080600081905550506142a26000868387613bf0565b5050505050565b8280546142b590614c98565b90600052602060002090601f0160209004810192826142d7576000855561431e565b82601f106142f057805160ff191683800117855561431e565b8280016001018555821561431e579182015b8281111561431d578251825591602001919060010190614302565b5b50905061432b9190614372565b5090565b6040518060600160405280600073ffffffffffffffffffffffffffffffffffffffff168152602001600067ffffffffffffffff1681526020016000151581525090565b5b8082111561438b576000816000905550600101614373565b5090565b6000604051905090565b600080fd5b600080fd5b60007fffffffff0000000000000000000000000000000000000000000000000000000082169050919050565b6143d8816143a3565b81146143e357600080fd5b50565b6000813590506143f5816143cf565b92915050565b60006020828403121561441157614410614399565b5b600061441f848285016143e6565b91505092915050565b60008115159050919050565b61443d81614428565b82525050565b60006020820190506144586000830184614434565b92915050565b600081519050919050565b600082825260208201905092915050565b60005b8381101561449857808201518184015260208101905061447d565b838111156144a7576000848401525b50505050565b6000601f19601f8301169050919050565b60006144c98261445e565b6144d38185614469565b93506144e381856020860161447a565b6144ec816144ad565b840191505092915050565b6000602082019050818103600083015261451181846144be565b905092915050565b6000819050919050565b61452c81614519565b811461453757600080fd5b50565b60008135905061454981614523565b92915050565b60006020828403121561456557614564614399565b5b60006145738482850161453a565b91505092915050565b600073ffffffffffffffffffffffffffffffffffffffff82169050919050565b60006145a78261457c565b9050919050565b6145b78161459c565b82525050565b60006020820190506145d260008301846145ae565b92915050565b6145e18161459c565b81146145ec57600080fd5b50565b6000813590506145fe816145d8565b92915050565b6000806040838503121561461b5761461a614399565b5b6000614629858286016145ef565b925050602061463a8582860161453a565b9150509250929050565b61464d81614519565b82525050565b60006020820190506146686000830184614644565b92915050565b600080fd5b600080fd5b600080fd5b60008083601f8401126146935761469261466e565b5b8235905067ffffffffffffffff8111156146b0576146af614673565b5b6020830191508360208202830111156146cc576146cb614678565b5b9250929050565b6000806000604084860312156146ec576146eb614399565b5b600084013567ffffffffffffffff81111561470a5761470961439e565b5b6147168682870161467d565b93509350506020614729868287016145ef565b9150509250925092565b60008060006060848603121561474c5761474b614399565b5b600061475a868287016145ef565b935050602061476b868287016145ef565b925050604061477c8682870161453a565b9150509250925092565b6000819050919050565b61479981614786565b81146147a457600080fd5b50565b6000813590506147b681614790565b92915050565b6000602082840312156147d2576147d1614399565b5b60006147e0848285016147a7565b91505092915050565b6147f281614786565b82525050565b600060208201905061480d60008301846147e9565b92915050565b60008060006040848603121561482c5761482b614399565b5b600084013567ffffffffffffffff81111561484a5761484961439e565b5b6148568682870161467d565b935093505060206148698682870161453a565b9150509250925092565b6000806040838503121561488a57614889614399565b5b6000614898858286016147a7565b92505060206148a9858286016145ef565b9150509250929050565b6000602082840312156148c9576148c8614399565b5b60006148d7848285016145ef565b91505092915050565b600080fd5b7f4e487b7100000000000000000000000000000000000000000000000000000000600052604160045260246000fd5b61491d826144ad565b810181811067ffffffffffffffff8211171561493c5761493b6148e5565b5b80604052505050565b600061494f61438f565b905061495b8282614914565b919050565b600067ffffffffffffffff82111561497b5761497a6148e5565b5b614984826144ad565b9050602081019050919050565b82818337600083830152505050565b60006149b36149ae84614960565b614945565b9050828152602081018484840111156149cf576149ce6148e0565b5b6149da848285614991565b509392505050565b600082601f8301126149f7576149f661466e565b5b8135614a078482602086016149a0565b91505092915050565b600060208284031215614a2657614a25614399565b5b600082013567ffffffffffffffff811115614a4457614a4361439e565b5b614a50848285016149e2565b91505092915050565b60008060408385031215614a7057614a6f614399565b5b6000614a7e8582860161453a565b9250506020614a8f8582860161453a565b9150509250929050565b614aa281614428565b8114614aad57600080fd5b50565b600081359050614abf81614a99565b92915050565b60008060408385031215614adc57614adb614399565b5b6000614aea858286016145ef565b9250506020614afb85828601614ab0565b9150509250929050565b600067ffffffffffffffff821115614b2057614b1f6148e5565b5b614b29826144ad565b9050602081019050919050565b6000614b49614b4484614b05565b614945565b905082815260208101848484011115614b6557614b646148e0565b5b614b70848285614991565b509392505050565b600082601f830112614b8d57614b8c61466e565b5b8135614b9d848260208601614b36565b91505092915050565b60008060008060808587031215614bc057614bbf614399565b5b6000614bce878288016145ef565b9450506020614bdf878288016145ef565b9350506040614bf08782880161453a565b925050606085013567ffffffffffffffff811115614c1157614c1061439e565b5b614c1d87828801614b78565b91505092959194509250565b60008060408385031215614c4057614c3f614399565b5b6000614c4e858286016145ef565b9250506020614c5f858286016145ef565b9150509250929050565b7f4e487b7100000000000000000000000000000000000000000000000000000000600052602260045260246000fd5b60006002820490506001821680614cb057607f821691505b602082108103614cc357614cc2614c69565b5b50919050565b7f4d75737420626520616e2061646d696e00000000000000000000000000000000600082015250565b6000614cff601083614469565b9150614d0a82614cc9565b602082019050919050565b60006020820190508181036000830152614d2e81614cf2565b9050919050565b7f50524553414c455f494e41435449564500000000000000000000000000000000600082015250565b6000614d6b601083614469565b9150614d7682614d35565b602082019050919050565b60006020820190508181036000830152614d9a81614d5e565b9050919050565b7f50524553414c455f4e4f545f5645524946494544000000000000000000000000600082015250565b6000614dd7601483614469565b9150614de282614da1565b602082019050919050565b60006020820190508181036000830152614e0681614dca565b9050919050565b7f4e487b7100000000000000000000000000000000000000000000000000000000600052601160045260246000fd5b6000614e4782614519565b9150614e5283614519565b9250827fffffffffffffffffffffffffffffffffffffffffffffffffffffffffffffffff03821115614e8757614e86614e0d565b5b828201905092915050565b7f455843454544535f434f4c4c454354494f4e5f53495a45000000000000000000600082015250565b6000614ec8601783614469565b9150614ed382614e92565b602082019050919050565b60006020820190508181036000830152614ef781614ebb565b9050919050565b7f57484954454c4953545f544f4b454e5f4c494d49540000000000000000000000600082015250565b6000614f34601583614469565b9150614f3f82614efe565b602082019050919050565b60006020820190508181036000830152614f6381614f27565b9050919050565b6000614f7582614519565b9150614f8083614519565b9250817fffffffffffffffffffffffffffffffffffffffffffffffffffffffffffffffff0483118215151615614fb957614fb8614e0d565b5b828202905092915050565b7f56414c55455f544f4f5f4c4f5700000000000000000000000000000000000000600082015250565b6000614ffa600d83614469565b915061500582614fc4565b602082019050919050565b6000602082019050818103600083015261502981614fed565b9050919050565b7f4d455441444154415f46494e414c495a45440000000000000000000000000000600082015250565b6000615066601283614469565b915061507182615030565b602082019050919050565b6000602082019050818103600083015261509581615059565b9050919050565b7f416363657373436f6e74726f6c3a2063616e206f6e6c792072656e6f756e636560008201527f20726f6c657320666f722073656c660000000000000000000000000000000000602082015250565b60006150f8602f83614469565b91506151038261509c565b604082019050919050565b60006020820190508181036000830152615127816150eb565b9050919050565b7f4e4f5f42414c414e434500000000000000000000000000000000000000000000600082015250565b6000615164600a83614469565b915061516f8261512e565b602082019050919050565b6000602082019050818103600083015261519381615157565b9050919050565b600081905092915050565b50565b60006151b560008361519a565b91506151c0826151a5565b600082019050919050565b60006151d6826151a8565b9150819050919050565b7f57495448445241575f4641494c45440000000000000000000000000000000000600082015250565b6000615216600f83614469565b9150615221826151e0565b602082019050919050565b6000602082019050818103600083015261524581615209565b9050919050565b7f54494d45535f46494e414c495a45440000000000000000000000000000000000600082015250565b6000615282600f83614469565b915061528d8261524c565b602082019050919050565b600060208201905081810360008301526152b181615275565b9050919050565b7f414c52454144595f41495244524f505045440000000000000000000000000000600082015250565b60006152ee601283614469565b91506152f9826152b8565b602082019050919050565b6000602082019050818103600083015261531d816152e1565b9050919050565b7f455843454544535f41495244524f505f4c494d49540000000000000000000000600082015250565b600061535a601583614469565b915061536582615324565b602082019050919050565b600060208201905081810360008301526153898161534d565b9050919050565b7f5245445543455f53495a455f4f4e4c5900000000000000000000000000000000600082015250565b60006153c6601083614469565b91506153d182615390565b602082019050919050565b600060208201905081810360008301526153f5816153b9565b9050919050565b7f4d41494e5441494e5f4558495354494e475f535550504c590000000000000000600082015250565b6000615432601883614469565b915061543d826153fc565b602082019050919050565b6000602082019050818103600083015261546181615425565b9050919050565b7f5055424c49435f53414c455f494e414354495645000000000000000000000000600082015250565b600061549e601483614469565b91506154a982615468565b602082019050919050565b600060208201905081810360008301526154cd81615491565b9050919050565b7f5055424c49435f544f4b454e5f4c494d49540000000000000000000000000000600082015250565b600061550a601283614469565b9150615515826154d4565b602082019050919050565b60006020820190508181036000830152615539816154fd565b9050919050565b7f4c4953545f46494e414c495a4544000000000000000000000000000000000000600082015250565b6000615576600e83614469565b915061558182615540565b602082019050919050565b600060208201905081810360008301526155a581615569565b9050919050565b7f494e56414c49445f494400000000000000000000000000000000000000000000600082015250565b60006155e2600a83614469565b91506155ed826155ac565b602082019050919050565b60006020820190508181036000830152615611816155d5565b9050919050565b600081905092915050565b600061562e8261445e565b6156388185615618565b935061564881856020860161447a565b80840191505092915050565b7f2e6a736f6e000000000000000000000000000000000000000000000000000000600082015250565b600061568a600583615618565b915061569582615654565b600582019050919050565b60006156ac8285615623565b91506156b88284615623565b91506156c38261567d565b91508190509392505050565b60008160601b9050919050565b60006156e7826156cf565b9050919050565b60006156f9826156dc565b9050919050565b61571161570c8261459c565b6156ee565b82525050565b60006157238284615700565b60148201915081905092915050565b7f416363657373436f6e74726f6c3a206163636f756e7420000000000000000000600082015250565b6000615768601783615618565b915061577382615732565b601782019050919050565b7f206973206d697373696e6720726f6c6520000000000000000000000000000000600082015250565b60006157b4601183615618565b91506157bf8261577e565b601182019050919050565b60006157d58261575b565b91506157e18285615623565b91506157ec826157a7565b91506157f88284615623565b91508190509392505050565b600081519050919050565b600082825260208201905092915050565b600061582b82615804565b615835818561580f565b935061584581856020860161447a565b61584e816144ad565b840191505092915050565b600060808201905061586e60008301876145ae565b61587b60208301866145ae565b6158886040830185614644565b818103606083015261589a8184615820565b905095945050505050565b6000815190506158b4816143cf565b92915050565b6000602082840312156158d0576158cf614399565b5b60006158de848285016158a5565b91505092915050565b60006158f282614519565b91507fffffffffffffffffffffffffffffffffffffffffffffffffffffffffffffffff820361592457615923614e0d565b5b600182019050919050565b7f4e487b7100000000000000000000000000000000000000000000000000000000600052601260045260246000fd5b600061596982614519565b915061597483614519565b9250826159845761598361592f565b5b828204905092915050565b600061599a82614519565b91506159a583614519565b9250828210156159b8576159b7614e0d565b5b828203905092915050565b60006159ce82614519565b91506159d983614519565b9250826159e9576159e861592f565b5b828206905092915050565b7f4e487b7100000000000000000000000000000000000000000000000000000000600052603260045260246000fd5b6000615a2e82614519565b915060008203615a4157615a40614e0d565b5b600182039050919050565b7f537472696e67733a20686578206c656e67746820696e73756666696369656e74600082015250565b6000615a82602083614469565b9150615a8d82615a4c565b602082019050919050565b60006020820190508181036000830152615ab181615a75565b9050919050565b6000819050919050565b615ad3615ace82614786565b615ab8565b82525050565b6000615ae58285615ac2565b602082019150615af58284615ac2565b602082019150819050939250505056fea2646970667358221220744c263053a4f91a22aba34443972c5edd37c9a9952361f01ad8ccb58114d81f64736f6c634300080d0033",
  "linkReferences": {},
  "deployedLinkReferences": {}
}