{
  "_format": "hh-sol-artifact-1",
  "contractName": "FifthDimension",
  "sourceName": "contracts/FifthDimension.sol",
  "abi": [
    {
      "inputs": [
        {
          "internalType": "uint256",
          "name": "_whitelistStart",
          "type": "uint256"
        },
        {
          "internalType": "uint256",
          "name": "_whitelistEnd",
          "type": "uint256"
        },
        {
          "internalType": "uint256",
          "name": "_publicStart",
          "type": "uint256"
        },
        {
          "internalType": "uint256",
          "name": "_publicEnd",
          "type": "uint256"
        },
        {
          "internalType": "bytes32",
          "name": "whitelistMerkleRoot",
          "type": "bytes32"
        },
        {
          "internalType": "string",
          "name": "name",
          "type": "string"
        },
        {
          "internalType": "string",
          "name": "symbol",
          "type": "string"
        },
        {
          "internalType": "string",
          "name": "tempUri",
          "type": "string"
        }
      ],
      "stateMutability": "nonpayable",
      "type": "constructor"
    },
    {
      "anonymous": false,
      "inputs": [
        {
          "indexed": true,
          "internalType": "address",
          "name": "owner",
          "type": "address"
        },
        {
          "indexed": true,
          "internalType": "address",
          "name": "approved",
          "type": "address"
        },
        {
          "indexed": true,
          "internalType": "uint256",
          "name": "tokenId",
          "type": "uint256"
        }
      ],
      "name": "Approval",
      "type": "event"
    },
    {
      "anonymous": false,
      "inputs": [
        {
          "indexed": true,
          "internalType": "address",
          "name": "owner",
          "type": "address"
        },
        {
          "indexed": true,
          "internalType": "address",
          "name": "operator",
          "type": "address"
        },
        {
          "indexed": false,
          "internalType": "bool",
          "name": "approved",
          "type": "bool"
        }
      ],
      "name": "ApprovalForAll",
      "type": "event"
    },
    {
      "anonymous": false,
      "inputs": [
        {
          "indexed": true,
          "internalType": "bytes32",
          "name": "role",
          "type": "bytes32"
        },
        {
          "indexed": true,
          "internalType": "bytes32",
          "name": "previousAdminRole",
          "type": "bytes32"
        },
        {
          "indexed": true,
          "internalType": "bytes32",
          "name": "newAdminRole",
          "type": "bytes32"
        }
      ],
      "name": "RoleAdminChanged",
      "type": "event"
    },
    {
      "anonymous": false,
      "inputs": [
        {
          "indexed": true,
          "internalType": "bytes32",
          "name": "role",
          "type": "bytes32"
        },
        {
          "indexed": true,
          "internalType": "address",
          "name": "account",
          "type": "address"
        },
        {
          "indexed": true,
          "internalType": "address",
          "name": "sender",
          "type": "address"
        }
      ],
      "name": "RoleGranted",
      "type": "event"
    },
    {
      "anonymous": false,
      "inputs": [
        {
          "indexed": true,
          "internalType": "bytes32",
          "name": "role",
          "type": "bytes32"
        },
        {
          "indexed": true,
          "internalType": "address",
          "name": "account",
          "type": "address"
        },
        {
          "indexed": true,
          "internalType": "address",
          "name": "sender",
          "type": "address"
        }
      ],
      "name": "RoleRevoked",
      "type": "event"
    },
    {
      "anonymous": false,
      "inputs": [
        {
          "indexed": true,
          "internalType": "address",
          "name": "from",
          "type": "address"
        },
        {
          "indexed": true,
          "internalType": "address",
          "name": "to",
          "type": "address"
        },
        {
          "indexed": true,
          "internalType": "uint256",
          "name": "tokenId",
          "type": "uint256"
        }
      ],
      "name": "Transfer",
      "type": "event"
    },
    {
      "inputs": [],
      "name": "ADMIN_ROLE",
      "outputs": [
        {
          "internalType": "bytes32",
          "name": "",
          "type": "bytes32"
        }
      ],
      "stateMutability": "view",
      "type": "function"
    },
    {
      "inputs": [],
      "name": "DEFAULT_ADMIN_ROLE",
      "outputs": [
        {
          "internalType": "bytes32",
          "name": "",
          "type": "bytes32"
        }
      ],
      "stateMutability": "view",
      "type": "function"
    },
    {
      "inputs": [],
      "name": "MOD_ROLE",
      "outputs": [
        {
          "internalType": "bytes32",
          "name": "",
          "type": "bytes32"
        }
      ],
      "stateMutability": "view",
      "type": "function"
    },
    {
      "inputs": [
        {
          "internalType": "address",
          "name": "to",
          "type": "address"
        },
        {
          "internalType": "uint16",
          "name": "quantity",
          "type": "uint16"
        }
      ],
      "name": "airdrop",
      "outputs": [],
      "stateMutability": "nonpayable",
      "type": "function"
    },
    {
      "inputs": [
        {
          "internalType": "address",
          "name": "to",
          "type": "address"
        },
        {
          "internalType": "uint256",
          "name": "tokenId",
          "type": "uint256"
        }
      ],
      "name": "approve",
      "outputs": [],
      "stateMutability": "nonpayable",
      "type": "function"
    },
    {
      "inputs": [
        {
          "internalType": "address",
          "name": "owner",
          "type": "address"
        }
      ],
      "name": "balanceOf",
      "outputs": [
        {
          "internalType": "uint256",
          "name": "",
          "type": "uint256"
        }
      ],
      "stateMutability": "view",
      "type": "function"
    },
    {
      "inputs": [
        {
          "internalType": "uint256",
          "name": "tokenId",
          "type": "uint256"
        }
      ],
      "name": "getApproved",
      "outputs": [
        {
          "internalType": "address",
          "name": "",
          "type": "address"
        }
      ],
      "stateMutability": "view",
      "type": "function"
    },
    {
      "inputs": [
        {
          "internalType": "bytes32",
          "name": "role",
          "type": "bytes32"
        }
      ],
      "name": "getRoleAdmin",
      "outputs": [
        {
          "internalType": "bytes32",
          "name": "",
          "type": "bytes32"
        }
      ],
      "stateMutability": "view",
      "type": "function"
    },
    {
      "inputs": [
        {
          "internalType": "bytes32",
          "name": "role",
          "type": "bytes32"
        },
        {
          "internalType": "address",
          "name": "account",
          "type": "address"
        }
      ],
      "name": "grantRole",
      "outputs": [],
      "stateMutability": "nonpayable",
      "type": "function"
    },
    {
      "inputs": [
        {
          "internalType": "bytes32",
          "name": "role",
          "type": "bytes32"
        },
        {
          "internalType": "address",
          "name": "account",
          "type": "address"
        }
      ],
      "name": "hasRole",
      "outputs": [
        {
          "internalType": "bool",
          "name": "",
          "type": "bool"
        }
      ],
      "stateMutability": "view",
      "type": "function"
    },
    {
      "inputs": [
        {
          "internalType": "address",
          "name": "owner",
          "type": "address"
        },
        {
          "internalType": "address",
          "name": "operator",
          "type": "address"
        }
      ],
      "name": "isApprovedForAll",
      "outputs": [
        {
          "internalType": "bool",
          "name": "",
          "type": "bool"
        }
      ],
      "stateMutability": "view",
      "type": "function"
    },
    {
      "inputs": [],
      "name": "isPublicSaleActive",
      "outputs": [
        {
          "internalType": "bool",
          "name": "",
          "type": "bool"
        }
      ],
      "stateMutability": "view",
      "type": "function"
    },
    {
      "inputs": [],
      "name": "isWhitelistSaleActive",
      "outputs": [
        {
          "internalType": "bool",
          "name": "",
          "type": "bool"
        }
      ],
      "stateMutability": "view",
      "type": "function"
    },
    {
      "inputs": [],
      "name": "mint",
      "outputs": [],
      "stateMutability": "nonpayable",
      "type": "function"
    },
    {
      "inputs": [],
      "name": "name",
      "outputs": [
        {
          "internalType": "string",
          "name": "",
          "type": "string"
        }
      ],
      "stateMutability": "view",
      "type": "function"
    },
    {
      "inputs": [
        {
          "internalType": "bool",
          "name": "publicSale",
          "type": "bool"
        },
        {
          "internalType": "bool",
          "name": "privateSale",
          "type": "bool"
        }
      ],
      "name": "overrideSales",
      "outputs": [],
      "stateMutability": "nonpayable",
      "type": "function"
    },
    {
      "inputs": [
        {
          "internalType": "uint256",
          "name": "tokenId",
          "type": "uint256"
        }
      ],
      "name": "ownerOf",
      "outputs": [
        {
          "internalType": "address",
          "name": "",
          "type": "address"
        }
      ],
      "stateMutability": "view",
      "type": "function"
    },
    {
      "inputs": [],
      "name": "publicEnd",
      "outputs": [
        {
          "internalType": "uint256",
          "name": "",
          "type": "uint256"
        }
      ],
      "stateMutability": "view",
      "type": "function"
    },
    {
      "inputs": [],
      "name": "publicStart",
      "outputs": [
        {
          "internalType": "uint256",
          "name": "",
          "type": "uint256"
        }
      ],
      "stateMutability": "view",
      "type": "function"
    },
    {
      "inputs": [
        {
          "internalType": "bytes32",
          "name": "role",
          "type": "bytes32"
        },
        {
          "internalType": "address",
          "name": "account",
          "type": "address"
        }
      ],
      "name": "renounceRole",
      "outputs": [],
      "stateMutability": "nonpayable",
      "type": "function"
    },
    {
      "inputs": [],
      "name": "revealed",
      "outputs": [
        {
          "internalType": "uint256",
          "name": "",
          "type": "uint256"
        }
      ],
      "stateMutability": "view",
      "type": "function"
    },
    {
      "inputs": [
        {
          "internalType": "bytes32",
          "name": "role",
          "type": "bytes32"
        },
        {
          "internalType": "address",
          "name": "account",
          "type": "address"
        }
      ],
      "name": "revokeRole",
      "outputs": [],
      "stateMutability": "nonpayable",
      "type": "function"
    },
    {
      "inputs": [
        {
          "internalType": "address",
          "name": "from",
          "type": "address"
        },
        {
          "internalType": "address",
          "name": "to",
          "type": "address"
        },
        {
          "internalType": "uint256",
          "name": "tokenId",
          "type": "uint256"
        }
      ],
      "name": "safeTransferFrom",
      "outputs": [],
      "stateMutability": "nonpayable",
      "type": "function"
    },
    {
      "inputs": [
        {
          "internalType": "address",
          "name": "from",
          "type": "address"
        },
        {
          "internalType": "address",
          "name": "to",
          "type": "address"
        },
        {
          "internalType": "uint256",
          "name": "tokenId",
          "type": "uint256"
        },
        {
          "internalType": "bytes",
          "name": "_data",
          "type": "bytes"
        }
      ],
      "name": "safeTransferFrom",
      "outputs": [],
      "stateMutability": "nonpayable",
      "type": "function"
    },
    {
      "inputs": [
        {
          "internalType": "address",
          "name": "operator",
          "type": "address"
        },
        {
          "internalType": "bool",
          "name": "approved",
          "type": "bool"
        }
      ],
      "name": "setApprovalForAll",
      "outputs": [],
      "stateMutability": "nonpayable",
      "type": "function"
    },
    {
      "inputs": [
        {
          "internalType": "string",
          "name": "baseUri",
          "type": "string"
        }
      ],
      "name": "setBaseURI",
      "outputs": [],
      "stateMutability": "nonpayable",
      "type": "function"
    },
    {
      "inputs": [
        {
          "internalType": "string",
          "name": "tempUri",
          "type": "string"
        }
      ],
      "name": "setPlaceholderURI",
      "outputs": [],
      "stateMutability": "nonpayable",
      "type": "function"
    },
    {
      "inputs": [
        {
          "internalType": "bytes4",
          "name": "interfaceId",
          "type": "bytes4"
        }
      ],
      "name": "supportsInterface",
      "outputs": [
        {
          "internalType": "bool",
          "name": "",
          "type": "bool"
        }
      ],
      "stateMutability": "view",
      "type": "function"
    },
    {
      "inputs": [],
      "name": "symbol",
      "outputs": [
        {
          "internalType": "string",
          "name": "",
          "type": "string"
        }
      ],
      "stateMutability": "view",
      "type": "function"
    },
    {
      "inputs": [],
      "name": "toggleReveal",
      "outputs": [],
      "stateMutability": "nonpayable",
      "type": "function"
    },
    {
      "inputs": [
        {
          "internalType": "uint256",
          "name": "id",
          "type": "uint256"
        }
      ],
      "name": "tokenURI",
      "outputs": [
        {
          "internalType": "string",
          "name": "",
          "type": "string"
        }
      ],
      "stateMutability": "view",
      "type": "function"
    },
    {
      "inputs": [],
      "name": "totalSupply",
      "outputs": [
        {
          "internalType": "uint256",
          "name": "",
          "type": "uint256"
        }
      ],
      "stateMutability": "view",
      "type": "function"
    },
    {
      "inputs": [
        {
          "internalType": "address",
          "name": "from",
          "type": "address"
        },
        {
          "internalType": "address",
          "name": "to",
          "type": "address"
        },
        {
          "internalType": "uint256",
          "name": "tokenId",
          "type": "uint256"
        }
      ],
      "name": "transferFrom",
      "outputs": [],
      "stateMutability": "nonpayable",
      "type": "function"
    },
    {
      "inputs": [],
      "name": "whitelistEnd",
      "outputs": [
        {
          "internalType": "uint256",
          "name": "",
          "type": "uint256"
        }
      ],
      "stateMutability": "view",
      "type": "function"
    },
    {
      "inputs": [
        {
          "internalType": "bytes32[]",
          "name": "_merkleProof",
          "type": "bytes32[]"
        }
      ],
      "name": "whitelistMint",
      "outputs": [],
      "stateMutability": "nonpayable",
      "type": "function"
    },
    {
      "inputs": [],
      "name": "whitelistStart",
      "outputs": [
        {
          "internalType": "uint256",
          "name": "",
          "type": "uint256"
        }
      ],
      "stateMutability": "view",
      "type": "function"
    }
  ],
  "bytecode": "0x60806040527fa49807205ce4d355092ef5a8a18f56e8913cf4a201fbe287825b095693c217756007557f950b8f2d7415defaee398bb4898e8e094a64c725873b81952b7ab9f08d70efb36008553480156200005957600080fd5b50604051620052b6380380620052b683398181016040528101906200007f9190620006c1565b8282816000908051906020019062000099929190620003fe565b508060019080519060200190620000b2929190620003fe565b5050508360098190555080600d9080519060200190620000d4929190620003fe565b5060004290508089116200011f576040517f08c379a0000000000000000000000000000000000000000000000000000000008152600401620001169062000848565b60405180910390fd5b80881180156200013157506102405488115b62000173576040517f08c379a00000000000000000000000000000000000000000000000000000000081526004016200016a90620008ba565b60405180910390fd5b886102408190555087610241819055508087118015620001935750878710155b620001d5576040517f08c379a0000000000000000000000000000000000000000000000000000000008152600401620001cc906200092c565b60405180910390fd5b8086118015620001e457508686115b62000226576040517f08c379a00000000000000000000000000000000000000000000000000000000081526004016200021d906200099e565b60405180910390fd5b866102428190555085610243819055506000620002486200028360201b60201c565b90506200025f6000801b826200028b60201b60201c565b62000273600754826200028b60201b60201c565b5050505050505050505062000a24565b600033905090565b6200029d8282620002a160201b60201c565b5050565b620002b382826200039360201b60201c565b6200038f5760016006600084815260200190815260200160002060000160008373ffffffffffffffffffffffffffffffffffffffff1673ffffffffffffffffffffffffffffffffffffffff16815260200190815260200160002060006101000a81548160ff021916908315150217905550620003346200028360201b60201c565b73ffffffffffffffffffffffffffffffffffffffff168173ffffffffffffffffffffffffffffffffffffffff16837f2f8788117e7eff1d82e926ec794901d17c78024a50270940304540a733656f0d60405160405180910390a45b5050565b60006006600084815260200190815260200160002060000160008373ffffffffffffffffffffffffffffffffffffffff1673ffffffffffffffffffffffffffffffffffffffff16815260200190815260200160002060009054906101000a900460ff16905092915050565b8280546200040c90620009ef565b90600052602060002090601f0160209004810192826200043057600085556200047c565b82601f106200044b57805160ff19168380011785556200047c565b828001600101855582156200047c579182015b828111156200047b5782518255916020019190600101906200045e565b5b5090506200048b91906200048f565b5090565b5b80821115620004aa57600081600090555060010162000490565b5090565b6000604051905090565b600080fd5b600080fd5b6000819050919050565b620004d781620004c2565b8114620004e357600080fd5b50565b600081519050620004f781620004cc565b92915050565b6000819050919050565b6200051281620004fd565b81146200051e57600080fd5b50565b600081519050620005328162000507565b92915050565b600080fd5b600080fd5b6000601f19601f8301169050919050565b7f4e487b7100000000000000000000000000000000000000000000000000000000600052604160045260246000fd5b6200058d8262000542565b810181811067ffffffffffffffff82111715620005af57620005ae62000553565b5b80604052505050565b6000620005c4620004ae565b9050620005d2828262000582565b919050565b600067ffffffffffffffff821115620005f557620005f462000553565b5b620006008262000542565b9050602081019050919050565b60005b838110156200062d57808201518184015260208101905062000610565b838111156200063d576000848401525b50505050565b60006200065a6200065484620005d7565b620005b8565b9050828152602081018484840111156200067957620006786200053d565b5b620006868482856200060d565b509392505050565b600082601f830112620006a657620006a562000538565b5b8151620006b884826020860162000643565b91505092915050565b600080600080600080600080610100898b031215620006e557620006e4620004b8565b5b6000620006f58b828c01620004e6565b9850506020620007088b828c01620004e6565b97505060406200071b8b828c01620004e6565b96505060606200072e8b828c01620004e6565b9550506080620007418b828c0162000521565b94505060a089015167ffffffffffffffff811115620007655762000764620004bd565b5b620007738b828c016200068e565b93505060c089015167ffffffffffffffff811115620007975762000796620004bd565b5b620007a58b828c016200068e565b92505060e089015167ffffffffffffffff811115620007c957620007c8620004bd565b5b620007d78b828c016200068e565b9150509295985092959890939650565b600082825260208201905092915050565b7f57726f6e672077686974656c6973742073746172740000000000000000000000600082015250565b600062000830601583620007e7565b91506200083d82620007f8565b602082019050919050565b60006020820190508181036000830152620008638162000821565b9050919050565b7f57726f6e672077686974656c69737420656e6400000000000000000000000000600082015250565b6000620008a2601383620007e7565b9150620008af826200086a565b602082019050919050565b60006020820190508181036000830152620008d58162000893565b9050919050565b7f57726f6e67207075626c69632073746172740000000000000000000000000000600082015250565b600062000914601283620007e7565b91506200092182620008dc565b602082019050919050565b60006020820190508181036000830152620009478162000905565b9050919050565b7f57726f6e67207075626c696320656e6400000000000000000000000000000000600082015250565b600062000986601083620007e7565b915062000993826200094e565b602082019050919050565b60006020820190508181036000830152620009b98162000977565b9050919050565b7f4e487b7100000000000000000000000000000000000000000000000000000000600052602260045260246000fd5b6000600282049050600182168062000a0857607f821691505b60208210810362000a1e5762000a1d620009c0565b5b50919050565b6148828062000a346000396000f3fe608060405234801561001057600080fd5b506004361061021c5760003560e01c80635b8ad42911610125578063a5f4c6ff116100ad578063c87b56dd1161007c578063c87b56dd146105f1578063d547741f14610621578063e932406f1461063d578063e985e9c51461065b578063ec8d130b1461068b5761021c565b8063a5f4c6ff1461057b578063b88d4fde14610599578063b98451cf146105b5578063bfb6e0e7146105d35761021c565b806391d14854116100f457806391d14854146104d557806395d89b4114610505578063994d396914610523578063a217fddf14610541578063a22cb4651461055f5761021c565b80635b8ad4291461044d5780636352211e1461045757806370a082311461048757806375b238fc146104b75761021c565b8063248a9ca3116101a8578063372f657c11610177578063372f657c146103bf57806342842e0e146103db57806351830227146103f757806355f804b3146104155780635b010e43146104315761021c565b8063248a9ca31461033b5780632f2ff15d1461036b5780633574a2dd1461038757806336568abe146103a35761021c565b80630acae9a7116101ef5780630acae9a7146102bb5780631249c58b146102d957806318160ddd146102e35780631e84c4131461030157806323b872dd1461031f5761021c565b806301ffc9a71461022157806306fdde0314610251578063081812fc1461026f578063095ea7b31461029f575b600080fd5b61023b60048036038101906102369190612dbc565b6106a7565b6040516102489190612e04565b60405180910390f35b6102596106b9565b6040516102669190612eb8565b60405180910390f35b61028960048036038101906102849190612f10565b61074b565b6040516102969190612f7e565b60405180910390f35b6102b960048036038101906102b49190612fc5565b6107d0565b005b6102c36108e7565b6040516102d09190613014565b60405180910390f35b6102e16108ee565b005b6102eb610a51565b6040516102f89190613014565b60405180910390f35b610309610a6a565b6040516103169190612e04565b60405180910390f35b6103396004803603810190610334919061302f565b610a92565b005b610355600480360381019061035091906130b8565b610af2565b60405161036291906130f4565b60405180910390f35b6103856004803603810190610380919061310f565b610b12565b005b6103a1600480360381019061039c9190613284565b610b3b565b005b6103bd60048036038101906103b8919061310f565b610bc1565b005b6103d960048036038101906103d4919061332d565b610c44565b005b6103f560048036038101906103f0919061302f565b610dd9565b005b6103ff610df9565b60405161040c9190613014565b60405180910390f35b61042f600480360381019061042a9190613284565b610dff565b005b61044b600480360381019061044691906133a6565b610e85565b005b610455610f25565b005b610471600480360381019061046c9190612f10565b610fb0565b60405161047e9190612f7e565b60405180910390f35b6104a1600480360381019061049c91906133e6565b611061565b6040516104ae9190613014565b60405180910390f35b6104bf611118565b6040516104cc91906130f4565b60405180910390f35b6104ef60048036038101906104ea919061310f565b61111e565b6040516104fc9190612e04565b60405180910390f35b61050d611189565b60405161051a9190612eb8565b60405180910390f35b61052b61121b565b6040516105389190613014565b60405180910390f35b610549611222565b60405161055691906130f4565b60405180910390f35b61057960048036038101906105749190613413565b611229565b005b61058361123f565b6040516105909190613014565b60405180910390f35b6105b360048036038101906105ae91906134f4565b611246565b005b6105bd6112a8565b6040516105ca9190612e04565b60405180910390f35b6105db6112d0565b6040516105e89190613014565b60405180910390f35b61060b60048036038101906106069190612f10565b6112d7565b6040516106189190612eb8565b60405180910390f35b61063b6004803603810190610636919061310f565b6113f4565b005b61064561141d565b60405161065291906130f4565b60405180910390f35b61067560048036038101906106709190613577565b611423565b6040516106829190612e04565b60405180910390f35b6106a560048036038101906106a091906135f1565b6114b7565b005b60006106b28261157d565b9050919050565b6060600080546106c890613660565b80601f01602080910402602001604051908101604052809291908181526020018280546106f490613660565b80156107415780601f1061071657610100808354040283529160200191610741565b820191906000526020600020905b81548152906001019060200180831161072457829003601f168201915b5050505050905090565b6000610756826115f7565b610795576040517f08c379a000000000000000000000000000000000000000000000000000000000815260040161078c90613703565b60405180910390fd5b6004600083815260200190815260200160002060009054906101000a900473ffffffffffffffffffffffffffffffffffffffff169050919050565b60006107db82610fb0565b90508073ffffffffffffffffffffffffffffffffffffffff168373ffffffffffffffffffffffffffffffffffffffff160361084b576040517f08c379a000000000000000000000000000000000000000000000000000000000815260040161084290613795565b60405180910390fd5b8073ffffffffffffffffffffffffffffffffffffffff1661086a611663565b73ffffffffffffffffffffffffffffffffffffffff161480610899575061089881610893611663565b611423565b5b6108d8576040517f08c379a00000000000000000000000000000000000000000000000000000000081526004016108cf90613827565b60405180910390fd5b6108e2838361166b565b505050565b6102435481565b6108f6610a6a565b610935576040517f08c379a000000000000000000000000000000000000000000000000000000000815260040161092c90613893565b60405180910390fd5b600061093f611663565b90506001600b60008373ffffffffffffffffffffffffffffffffffffffff1673ffffffffffffffffffffffffffffffffffffffff168152602001908152602001600020600082825461099191906138e2565b925050819055506002600b60008373ffffffffffffffffffffffffffffffffffffffff1673ffffffffffffffffffffffffffffffffffffffff168152602001908152602001600020541115610a1b576040517f08c379a0000000000000000000000000000000000000000000000000000000008152600401610a1290613984565b60405180910390fd5b600161023f6000828254610a2f91906138e2565b92505081905550610a4e610a41611663565b610a49611724565b6118e1565b50565b600061023f5461023e54610a6591906138e2565b905090565b600060016010541480610a8d57506102425442118015610a8c57506102435442105b5b905090565b610aa3610a9d611663565b826118ff565b610ae2576040517f08c379a0000000000000000000000000000000000000000000000000000000008152600401610ad990613a16565b60405180910390fd5b610aed8383836119dd565b505050565b600060066000838152602001908152602001600020600101549050919050565b610b1b82610af2565b610b2c81610b27611663565b611c38565b610b368383611cd5565b505050565b6000610b45611663565b9050610b546000801b8261111e565b80610b675750610b666007548261111e565b5b610ba6576040517f08c379a0000000000000000000000000000000000000000000000000000000008152600401610b9d90613a82565b60405180910390fd5b81600d9080519060200190610bbc929190612cad565b505050565b610bc9611663565b73ffffffffffffffffffffffffffffffffffffffff168173ffffffffffffffffffffffffffffffffffffffff1614610c36576040517f08c379a0000000000000000000000000000000000000000000000000000000008152600401610c2d90613b14565b60405180910390fd5b610c408282611db6565b5050565b6000610c4e611663565b9050610c586112a8565b610c97576040517f08c379a0000000000000000000000000000000000000000000000000000000008152600401610c8e90613b80565b60405180910390fd5b610ca2838383611e98565b610ce1576040517f08c379a0000000000000000000000000000000000000000000000000000000008152600401610cd890613bec565b60405180910390fd5b6000600a60008373ffffffffffffffffffffffffffffffffffffffff1673ffffffffffffffffffffffffffffffffffffffff1681526020019081526020016000205414610d63576040517f08c379a0000000000000000000000000000000000000000000000000000000008152600401610d5a90613c58565b60405180910390fd5b6001600a60008373ffffffffffffffffffffffffffffffffffffffff1673ffffffffffffffffffffffffffffffffffffffff16815260200190815260200160002081905550600161023f6000828254610dbc91906138e2565b92505081905550610dd481610dcf611724565b6118e1565b505050565b610df483838360405180602001604052806000815250611246565b505050565b600e5481565b6000610e09611663565b9050610e186000801b8261111e565b80610e2b5750610e2a6007548261111e565b5b610e6a576040517f08c379a0000000000000000000000000000000000000000000000000000000008152600401610e6190613a82565b60405180910390fd5b81600c9080519060200190610e80929190612cad565b505050565b6000610e8f611663565b9050610e9e6000801b8261111e565b80610eb15750610eb06007548261111e565b5b610ef0576040517f08c379a0000000000000000000000000000000000000000000000000000000008152600401610ee790613a82565b60405180910390fd5b82610efc576000610eff565b60015b60ff1660108190555081610f14576000610f17565b60015b60ff16600f81905550505050565b6000610f2f611663565b9050610f3e6000801b8261111e565b80610f515750610f506007548261111e565b5b610f90576040517f08c379a0000000000000000000000000000000000000000000000000000000008152600401610f8790613a82565b60405180910390fd5b6000600e5414610fa1576000610fa4565b60015b60ff16600e8190555050565b6000806002600084815260200190815260200160002060009054906101000a900473ffffffffffffffffffffffffffffffffffffffff169050600073ffffffffffffffffffffffffffffffffffffffff168173ffffffffffffffffffffffffffffffffffffffff1603611058576040517f08c379a000000000000000000000000000000000000000000000000000000000815260040161104f90613cea565b60405180910390fd5b80915050919050565b60008073ffffffffffffffffffffffffffffffffffffffff168273ffffffffffffffffffffffffffffffffffffffff16036110d1576040517f08c379a00000000000000000000000000000000000000000000000000000000081526004016110c890613d7c565b60405180910390fd5b600360008373ffffffffffffffffffffffffffffffffffffffff1673ffffffffffffffffffffffffffffffffffffffff168152602001908152602001600020549050919050565b60075481565b60006006600084815260200190815260200160002060000160008373ffffffffffffffffffffffffffffffffffffffff1673ffffffffffffffffffffffffffffffffffffffff16815260200190815260200160002060009054906101000a900460ff16905092915050565b60606001805461119890613660565b80601f01602080910402602001604051908101604052809291908181526020018280546111c490613660565b80156112115780601f106111e657610100808354040283529160200191611211565b820191906000526020600020905b8154815290600101906020018083116111f457829003601f168201915b5050505050905090565b6102405481565b6000801b81565b61123b611234611663565b8383611f1e565b5050565b6102425481565b611257611251611663565b836118ff565b611296576040517f08c379a000000000000000000000000000000000000000000000000000000000815260040161128d90613a16565b60405180910390fd5b6112a28484848461208a565b50505050565b60006001600f5414806112cb575061024054421180156112ca57506102415442105b5b905090565b6102415481565b60606112e2826115f7565b611321576040517f08c379a000000000000000000000000000000000000000000000000000000000815260040161131890613de8565b60405180910390fd5b6001600e54146113bb57600d805461133890613660565b80601f016020809104026020016040519081016040528092919081815260200182805461136490613660565b80156113b15780601f10611386576101008083540402835291602001916113b1565b820191906000526020600020905b81548152906001019060200180831161139457829003601f168201915b50505050506113ed565b6113c36120e6565b6113cc83612178565b6040516020016113dd929190613e90565b6040516020818303038152906040525b9050919050565b6113fd82610af2565b61140e81611409611663565b611c38565b6114188383611db6565b505050565b60085481565b6000600560008473ffffffffffffffffffffffffffffffffffffffff1673ffffffffffffffffffffffffffffffffffffffff16815260200190815260200160002060008373ffffffffffffffffffffffffffffffffffffffff1673ffffffffffffffffffffffffffffffffffffffff16815260200190815260200160002060009054906101000a900460ff16905092915050565b60006114c1611663565b90506114d06000801b8261111e565b806114e357506114e26007548261111e565b5b611522576040517f08c379a000000000000000000000000000000000000000000000000000000000815260040161151990613a82565b60405180910390fd5b8161ffff1661023e600082825461153991906138e2565b9250508190555060005b8261ffff168161ffff161015611577576115648461155f6122d8565b6118e1565b808061156f90613ebf565b915050611543565b50505050565b60007f7965db0b000000000000000000000000000000000000000000000000000000007bffffffffffffffffffffffffffffffffffffffffffffffffffffffff1916827bffffffffffffffffffffffffffffffffffffffffffffffffffffffff191614806115f057506115ef82612494565b5b9050919050565b60008073ffffffffffffffffffffffffffffffffffffffff166002600084815260200190815260200160002060009054906101000a900473ffffffffffffffffffffffffffffffffffffffff1673ffffffffffffffffffffffffffffffffffffffff1614159050919050565b600033905090565b816004600083815260200190815260200160002060006101000a81548173ffffffffffffffffffffffffffffffffffffffff021916908373ffffffffffffffffffffffffffffffffffffffff160217905550808273ffffffffffffffffffffffffffffffffffffffff166116de83610fb0565b73ffffffffffffffffffffffffffffffffffffffff167f8c5be1e5ebec7d5bd14f71427d1e84f3dd0314c0f7b2291e5b200ac8c7c3b92560405160405180910390a45050565b60008061023c54334260014361173a9190613ee9565b4060405160200161174e9493929190613fa7565b6040516020818303038152906040528051906020012060001c9050600061023c546101f461177c9190613ee9565b9050600161023c600082825461179291906138e2565b92505081905550600081116117dc576040517f08c379a00000000000000000000000000000000000000000000000000000000081526004016117d390614041565b60405180910390fd5b600081836117ea9190614090565b905060006011826101f48110611803576118026140c1565b5b0154036118105780611828565b6011816101f48110611825576118246140c1565b5b01545b935060388461183791906138e2565b93506000601160018461184a9190613ee9565b6101f4811061185c5761185b6140c1565b5b01541461188b5760116001836118729190613ee9565b6101f48110611884576118836140c1565b5b0154611899565b6001826118989190613ee9565b5b6011826101f481106118ae576118ad6140c1565b5b0181905550600060116001846118c49190613ee9565b6101f481106118d6576118d56140c1565b5b018190555050505090565b6118fb828260405180602001604052806000815250612576565b5050565b600061190a826115f7565b611949576040517f08c379a000000000000000000000000000000000000000000000000000000000815260040161194090614162565b60405180910390fd5b600061195483610fb0565b90508073ffffffffffffffffffffffffffffffffffffffff168473ffffffffffffffffffffffffffffffffffffffff1614806119c357508373ffffffffffffffffffffffffffffffffffffffff166119ab8461074b565b73ffffffffffffffffffffffffffffffffffffffff16145b806119d457506119d38185611423565b5b91505092915050565b8273ffffffffffffffffffffffffffffffffffffffff166119fd82610fb0565b73ffffffffffffffffffffffffffffffffffffffff1614611a53576040517f08c379a0000000000000000000000000000000000000000000000000000000008152600401611a4a906141f4565b60405180910390fd5b600073ffffffffffffffffffffffffffffffffffffffff168273ffffffffffffffffffffffffffffffffffffffff1603611ac2576040517f08c379a0000000000000000000000000000000000000000000000000000000008152600401611ab990614286565b60405180910390fd5b611acd8383836125d1565b611ad860008261166b565b6001600360008573ffffffffffffffffffffffffffffffffffffffff1673ffffffffffffffffffffffffffffffffffffffff1681526020019081526020016000206000828254611b289190613ee9565b925050819055506001600360008473ffffffffffffffffffffffffffffffffffffffff1673ffffffffffffffffffffffffffffffffffffffff1681526020019081526020016000206000828254611b7f91906138e2565b92505081905550816002600083815260200190815260200160002060006101000a81548173ffffffffffffffffffffffffffffffffffffffff021916908373ffffffffffffffffffffffffffffffffffffffff160217905550808273ffffffffffffffffffffffffffffffffffffffff168473ffffffffffffffffffffffffffffffffffffffff167fddf252ad1be2c89b69c2b068fc378daa952ba7f163c4a11628f55a4df523b3ef60405160405180910390a4505050565b611c42828261111e565b611cd157611c678173ffffffffffffffffffffffffffffffffffffffff1660146125d6565b611c758360001c60206125d6565b604051602001611c8692919061433e565b6040516020818303038152906040526040517f08c379a0000000000000000000000000000000000000000000000000000000008152600401611cc89190612eb8565b60405180910390fd5b5050565b611cdf828261111e565b611db25760016006600084815260200190815260200160002060000160008373ffffffffffffffffffffffffffffffffffffffff1673ffffffffffffffffffffffffffffffffffffffff16815260200190815260200160002060006101000a81548160ff021916908315150217905550611d57611663565b73ffffffffffffffffffffffffffffffffffffffff168173ffffffffffffffffffffffffffffffffffffffff16837f2f8788117e7eff1d82e926ec794901d17c78024a50270940304540a733656f0d60405160405180910390a45b5050565b611dc0828261111e565b15611e945760006006600084815260200190815260200160002060000160008373ffffffffffffffffffffffffffffffffffffffff1673ffffffffffffffffffffffffffffffffffffffff16815260200190815260200160002060006101000a81548160ff021916908315150217905550611e39611663565b73ffffffffffffffffffffffffffffffffffffffff168173ffffffffffffffffffffffffffffffffffffffff16837ff6391f5c32d9c69d2a47ea670b442974b53935d1edc7fd64eb21e047a839171b60405160405180910390a45b5050565b600060011515611f12858580806020026020016040519081016040528093929190818152602001838360200280828437600081840152601f19601f8201169050808301925050505050505060095485604051602001611ef79190614378565b60405160208183030381529060405280519060200120612812565b15151490509392505050565b8173ffffffffffffffffffffffffffffffffffffffff168373ffffffffffffffffffffffffffffffffffffffff1603611f8c576040517f08c379a0000000000000000000000000000000000000000000000000000000008152600401611f83906143df565b60405180910390fd5b80600560008573ffffffffffffffffffffffffffffffffffffffff1673ffffffffffffffffffffffffffffffffffffffff16815260200190815260200160002060008473ffffffffffffffffffffffffffffffffffffffff1673ffffffffffffffffffffffffffffffffffffffff16815260200190815260200160002060006101000a81548160ff0219169083151502179055508173ffffffffffffffffffffffffffffffffffffffff168373ffffffffffffffffffffffffffffffffffffffff167f17307eab39ab6107e8899845ad3d59bd9653f200f220920489ca2b5937696c318360405161207d9190612e04565b60405180910390a3505050565b6120958484846119dd565b6120a184848484612829565b6120e0576040517f08c379a00000000000000000000000000000000000000000000000000000000081526004016120d790614471565b60405180910390fd5b50505050565b6060600c80546120f590613660565b80601f016020809104026020016040519081016040528092919081815260200182805461212190613660565b801561216e5780601f106121435761010080835404028352916020019161216e565b820191906000526020600020905b81548152906001019060200180831161215157829003601f168201915b5050505050905090565b6060600082036121bf576040518060400160405280600181526020017f300000000000000000000000000000000000000000000000000000000000000081525090506122d3565b600082905060005b600082146121f15780806121da90614491565b915050600a826121ea91906144d9565b91506121c7565b60008167ffffffffffffffff81111561220d5761220c613159565b5b6040519080825280601f01601f19166020018201604052801561223f5781602001600182028036833780820191505090505b5090505b600085146122cc576001826122589190613ee9565b9150600a856122679190614090565b603061227391906138e2565b60f81b818381518110612289576122886140c1565b5b60200101907effffffffffffffffffffffffffffffffffffffffffffffffffffffffffffff1916908160001a905350600a856122c591906144d9565b9450612243565b8093505050505b919050565b60008061023d5433426001436122ee9190613ee9565b406040516020016123029493929190613fa7565b6040516020818303038152906040528051906020012060001c9050600061023d54603761232f9190613ee9565b9050600161023d600082825461234591906138e2565b925050819055506000811161238f576040517f08c379a000000000000000000000000000000000000000000000000000000000815260040161238690614556565b60405180910390fd5b6000818361239d9190614090565b9050600061020582603781106123b6576123b56140c1565b5b0154036123c357806123db565b61020581603781106123d8576123d76140c1565b5b01545b93506001846123ea91906138e2565b935060006102056001846123fe9190613ee9565b6037811061240f5761240e6140c1565b5b01541461243e576102056001836124269190613ee9565b60378110612437576124366140c1565b5b015461244c565b60018261244b9190613ee9565b5b6102058260378110612461576124606140c1565b5b018190555060006102056001846124789190613ee9565b60378110612489576124886140c1565b5b018190555050505090565b60007f80ac58cd000000000000000000000000000000000000000000000000000000007bffffffffffffffffffffffffffffffffffffffffffffffffffffffff1916827bffffffffffffffffffffffffffffffffffffffffffffffffffffffff1916148061255f57507f5b5e139f000000000000000000000000000000000000000000000000000000007bffffffffffffffffffffffffffffffffffffffffffffffffffffffff1916827bffffffffffffffffffffffffffffffffffffffffffffffffffffffff1916145b8061256f575061256e826129b0565b5b9050919050565b6125808383612a1a565b61258d6000848484612829565b6125cc576040517f08c379a00000000000000000000000000000000000000000000000000000000081526004016125c390614471565b60405180910390fd5b505050565b505050565b6060600060028360026125e99190614576565b6125f391906138e2565b67ffffffffffffffff81111561260c5761260b613159565b5b6040519080825280601f01601f19166020018201604052801561263e5781602001600182028036833780820191505090505b5090507f300000000000000000000000000000000000000000000000000000000000000081600081518110612676576126756140c1565b5b60200101907effffffffffffffffffffffffffffffffffffffffffffffffffffffffffffff1916908160001a9053507f7800000000000000000000000000000000000000000000000000000000000000816001815181106126da576126d96140c1565b5b60200101907effffffffffffffffffffffffffffffffffffffffffffffffffffffffffffff1916908160001a9053506000600184600261271a9190614576565b61272491906138e2565b90505b60018111156127c4577f3031323334353637383961626364656600000000000000000000000000000000600f861660108110612766576127656140c1565b5b1a60f81b82828151811061277d5761277c6140c1565b5b60200101907effffffffffffffffffffffffffffffffffffffffffffffffffffffffffffff1916908160001a905350600485901c9450806127bd906145d0565b9050612727565b5060008414612808576040517f08c379a00000000000000000000000000000000000000000000000000000000081526004016127ff90614645565b60405180910390fd5b8091505092915050565b60008261281f8584612be7565b1490509392505050565b600061284a8473ffffffffffffffffffffffffffffffffffffffff16612c9a565b156129a3578373ffffffffffffffffffffffffffffffffffffffff1663150b7a02612873611663565b8786866040518563ffffffff1660e01b815260040161289594939291906146ba565b6020604051808303816000875af19250505080156128d157506040513d601f19601f820116820180604052508101906128ce919061471b565b60015b612953573d8060008114612901576040519150601f19603f3d011682016040523d82523d6000602084013e612906565b606091505b50600081510361294b576040517f08c379a000000000000000000000000000000000000000000000000000000000815260040161294290614471565b60405180910390fd5b805181602001fd5b63150b7a0260e01b7bffffffffffffffffffffffffffffffffffffffffffffffffffffffff1916817bffffffffffffffffffffffffffffffffffffffffffffffffffffffff1916149150506129a8565b600190505b949350505050565b60007f01ffc9a7000000000000000000000000000000000000000000000000000000007bffffffffffffffffffffffffffffffffffffffffffffffffffffffff1916827bffffffffffffffffffffffffffffffffffffffffffffffffffffffff1916149050919050565b600073ffffffffffffffffffffffffffffffffffffffff168273ffffffffffffffffffffffffffffffffffffffff1603612a89576040517f08c379a0000000000000000000000000000000000000000000000000000000008152600401612a8090614794565b60405180910390fd5b612a92816115f7565b15612ad2576040517f08c379a0000000000000000000000000000000000000000000000000000000008152600401612ac990614800565b60405180910390fd5b612ade600083836125d1565b6001600360008473ffffffffffffffffffffffffffffffffffffffff1673ffffffffffffffffffffffffffffffffffffffff1681526020019081526020016000206000828254612b2e91906138e2565b92505081905550816002600083815260200190815260200160002060006101000a81548173ffffffffffffffffffffffffffffffffffffffff021916908373ffffffffffffffffffffffffffffffffffffffff160217905550808273ffffffffffffffffffffffffffffffffffffffff16600073ffffffffffffffffffffffffffffffffffffffff167fddf252ad1be2c89b69c2b068fc378daa952ba7f163c4a11628f55a4df523b3ef60405160405180910390a45050565b60008082905060005b8451811015612c8f576000858281518110612c0e57612c0d6140c1565b5b60200260200101519050808311612c4f578281604051602001612c32929190614820565b604051602081830303815290604052805190602001209250612c7b565b8083604051602001612c62929190614820565b6040516020818303038152906040528051906020012092505b508080612c8790614491565b915050612bf0565b508091505092915050565b600080823b905060008111915050919050565b828054612cb990613660565b90600052602060002090601f016020900481019282612cdb5760008555612d22565b82601f10612cf457805160ff1916838001178555612d22565b82800160010185558215612d22579182015b82811115612d21578251825591602001919060010190612d06565b5b509050612d2f9190612d33565b5090565b5b80821115612d4c576000816000905550600101612d34565b5090565b6000604051905090565b600080fd5b600080fd5b60007fffffffff0000000000000000000000000000000000000000000000000000000082169050919050565b612d9981612d64565b8114612da457600080fd5b50565b600081359050612db681612d90565b92915050565b600060208284031215612dd257612dd1612d5a565b5b6000612de084828501612da7565b91505092915050565b60008115159050919050565b612dfe81612de9565b82525050565b6000602082019050612e196000830184612df5565b92915050565b600081519050919050565b600082825260208201905092915050565b60005b83811015612e59578082015181840152602081019050612e3e565b83811115612e68576000848401525b50505050565b6000601f19601f8301169050919050565b6000612e8a82612e1f565b612e948185612e2a565b9350612ea4818560208601612e3b565b612ead81612e6e565b840191505092915050565b60006020820190508181036000830152612ed28184612e7f565b905092915050565b6000819050919050565b612eed81612eda565b8114612ef857600080fd5b50565b600081359050612f0a81612ee4565b92915050565b600060208284031215612f2657612f25612d5a565b5b6000612f3484828501612efb565b91505092915050565b600073ffffffffffffffffffffffffffffffffffffffff82169050919050565b6000612f6882612f3d565b9050919050565b612f7881612f5d565b82525050565b6000602082019050612f936000830184612f6f565b92915050565b612fa281612f5d565b8114612fad57600080fd5b50565b600081359050612fbf81612f99565b92915050565b60008060408385031215612fdc57612fdb612d5a565b5b6000612fea85828601612fb0565b9250506020612ffb85828601612efb565b9150509250929050565b61300e81612eda565b82525050565b60006020820190506130296000830184613005565b92915050565b60008060006060848603121561304857613047612d5a565b5b600061305686828701612fb0565b935050602061306786828701612fb0565b925050604061307886828701612efb565b9150509250925092565b6000819050919050565b61309581613082565b81146130a057600080fd5b50565b6000813590506130b28161308c565b92915050565b6000602082840312156130ce576130cd612d5a565b5b60006130dc848285016130a3565b91505092915050565b6130ee81613082565b82525050565b600060208201905061310960008301846130e5565b92915050565b6000806040838503121561312657613125612d5a565b5b6000613134858286016130a3565b925050602061314585828601612fb0565b9150509250929050565b600080fd5b600080fd5b7f4e487b7100000000000000000000000000000000000000000000000000000000600052604160045260246000fd5b61319182612e6e565b810181811067ffffffffffffffff821117156131b0576131af613159565b5b80604052505050565b60006131c3612d50565b90506131cf8282613188565b919050565b600067ffffffffffffffff8211156131ef576131ee613159565b5b6131f882612e6e565b9050602081019050919050565b82818337600083830152505050565b6000613227613222846131d4565b6131b9565b90508281526020810184848401111561324357613242613154565b5b61324e848285613205565b509392505050565b600082601f83011261326b5761326a61314f565b5b813561327b848260208601613214565b91505092915050565b60006020828403121561329a57613299612d5a565b5b600082013567ffffffffffffffff8111156132b8576132b7612d5f565b5b6132c484828501613256565b91505092915050565b600080fd5b600080fd5b60008083601f8401126132ed576132ec61314f565b5b8235905067ffffffffffffffff81111561330a576133096132cd565b5b602083019150836020820283011115613326576133256132d2565b5b9250929050565b6000806020838503121561334457613343612d5a565b5b600083013567ffffffffffffffff81111561336257613361612d5f565b5b61336e858286016132d7565b92509250509250929050565b61338381612de9565b811461338e57600080fd5b50565b6000813590506133a08161337a565b92915050565b600080604083850312156133bd576133bc612d5a565b5b60006133cb85828601613391565b92505060206133dc85828601613391565b9150509250929050565b6000602082840312156133fc576133fb612d5a565b5b600061340a84828501612fb0565b91505092915050565b6000806040838503121561342a57613429612d5a565b5b600061343885828601612fb0565b925050602061344985828601613391565b9150509250929050565b600067ffffffffffffffff82111561346e5761346d613159565b5b61347782612e6e565b9050602081019050919050565b600061349761349284613453565b6131b9565b9050828152602081018484840111156134b3576134b2613154565b5b6134be848285613205565b509392505050565b600082601f8301126134db576134da61314f565b5b81356134eb848260208601613484565b91505092915050565b6000806000806080858703121561350e5761350d612d5a565b5b600061351c87828801612fb0565b945050602061352d87828801612fb0565b935050604061353e87828801612efb565b925050606085013567ffffffffffffffff81111561355f5761355e612d5f565b5b61356b878288016134c6565b91505092959194509250565b6000806040838503121561358e5761358d612d5a565b5b600061359c85828601612fb0565b92505060206135ad85828601612fb0565b9150509250929050565b600061ffff82169050919050565b6135ce816135b7565b81146135d957600080fd5b50565b6000813590506135eb816135c5565b92915050565b6000806040838503121561360857613607612d5a565b5b600061361685828601612fb0565b9250506020613627858286016135dc565b9150509250929050565b7f4e487b7100000000000000000000000000000000000000000000000000000000600052602260045260246000fd5b6000600282049050600182168061367857607f821691505b60208210810361368b5761368a613631565b5b50919050565b7f4552433732313a20617070726f76656420717565727920666f72206e6f6e657860008201527f697374656e7420746f6b656e0000000000000000000000000000000000000000602082015250565b60006136ed602c83612e2a565b91506136f882613691565b604082019050919050565b6000602082019050818103600083015261371c816136e0565b9050919050565b7f4552433732313a20617070726f76616c20746f2063757272656e74206f776e6560008201527f7200000000000000000000000000000000000000000000000000000000000000602082015250565b600061377f602183612e2a565b915061378a82613723565b604082019050919050565b600060208201905081810360008301526137ae81613772565b9050919050565b7f4552433732313a20617070726f76652063616c6c6572206973206e6f74206f7760008201527f6e6572206e6f7220617070726f76656420666f7220616c6c0000000000000000602082015250565b6000613811603883612e2a565b915061381c826137b5565b604082019050919050565b6000602082019050818103600083015261384081613804565b9050919050565b7f5055424c49435f53414c455f494e414354495645000000000000000000000000600082015250565b600061387d601483612e2a565b915061388882613847565b602082019050919050565b600060208201905081810360008301526138ac81613870565b9050919050565b7f4e487b7100000000000000000000000000000000000000000000000000000000600052601160045260246000fd5b60006138ed82612eda565b91506138f883612eda565b9250827fffffffffffffffffffffffffffffffffffffffffffffffffffffffffffffffff0382111561392d5761392c6138b3565b5b828201905092915050565b7f5055424c49435f544f4b454e5f4c494d49540000000000000000000000000000600082015250565b600061396e601283612e2a565b915061397982613938565b602082019050919050565b6000602082019050818103600083015261399d81613961565b9050919050565b7f4552433732313a207472616e736665722063616c6c6572206973206e6f74206f60008201527f776e6572206e6f7220617070726f766564000000000000000000000000000000602082015250565b6000613a00603183612e2a565b9150613a0b826139a4565b604082019050919050565b60006020820190508181036000830152613a2f816139f3565b9050919050565b7f4d75737420626520616e2061646d696e00000000000000000000000000000000600082015250565b6000613a6c601083612e2a565b9150613a7782613a36565b602082019050919050565b60006020820190508181036000830152613a9b81613a5f565b9050919050565b7f416363657373436f6e74726f6c3a2063616e206f6e6c792072656e6f756e636560008201527f20726f6c657320666f722073656c660000000000000000000000000000000000602082015250565b6000613afe602f83612e2a565b9150613b0982613aa2565b604082019050919050565b60006020820190508181036000830152613b2d81613af1565b9050919050565b7f50524553414c455f494e41435449564500000000000000000000000000000000600082015250565b6000613b6a601083612e2a565b9150613b7582613b34565b602082019050919050565b60006020820190508181036000830152613b9981613b5d565b9050919050565b7f50524553414c455f4e4f545f5645524946494544000000000000000000000000600082015250565b6000613bd6601483612e2a565b9150613be182613ba0565b602082019050919050565b60006020820190508181036000830152613c0581613bc9565b9050919050565b7f57484954454c4953545f544f4b454e5f434c41494d4544000000000000000000600082015250565b6000613c42601783612e2a565b9150613c4d82613c0c565b602082019050919050565b60006020820190508181036000830152613c7181613c35565b9050919050565b7f4552433732313a206f776e657220717565727920666f72206e6f6e657869737460008201527f656e7420746f6b656e0000000000000000000000000000000000000000000000602082015250565b6000613cd4602983612e2a565b9150613cdf82613c78565b604082019050919050565b60006020820190508181036000830152613d0381613cc7565b9050919050565b7f4552433732313a2062616c616e636520717565727920666f7220746865207a6560008201527f726f206164647265737300000000000000000000000000000000000000000000602082015250565b6000613d66602a83612e2a565b9150613d7182613d0a565b604082019050919050565b60006020820190508181036000830152613d9581613d59565b9050919050565b7f494e56414c49445f494400000000000000000000000000000000000000000000600082015250565b6000613dd2600a83612e2a565b9150613ddd82613d9c565b602082019050919050565b60006020820190508181036000830152613e0181613dc5565b9050919050565b600081905092915050565b6000613e1e82612e1f565b613e288185613e08565b9350613e38818560208601612e3b565b80840191505092915050565b7f2e6a736f6e000000000000000000000000000000000000000000000000000000600082015250565b6000613e7a600583613e08565b9150613e8582613e44565b600582019050919050565b6000613e9c8285613e13565b9150613ea88284613e13565b9150613eb382613e6d565b91508190509392505050565b6000613eca826135b7565b915061ffff8203613ede57613edd6138b3565b5b600182019050919050565b6000613ef482612eda565b9150613eff83612eda565b925082821015613f1257613f116138b3565b5b828203905092915050565b6000819050919050565b613f38613f3382612eda565b613f1d565b82525050565b60008160601b9050919050565b6000613f5682613f3e565b9050919050565b6000613f6882613f4b565b9050919050565b613f80613f7b82612f5d565b613f5d565b82525050565b6000819050919050565b613fa1613f9c82613082565b613f86565b82525050565b6000613fb38287613f27565b602082019150613fc38286613f6f565b601482019150613fd38285613f27565b602082019150613fe38284613f90565b60208201915081905095945050505050565b7f6e6f205f636f6d6d756e697479496473206c6566740000000000000000000000600082015250565b600061402b601583612e2a565b915061403682613ff5565b602082019050919050565b6000602082019050818103600083015261405a8161401e565b9050919050565b7f4e487b7100000000000000000000000000000000000000000000000000000000600052601260045260246000fd5b600061409b82612eda565b91506140a683612eda565b9250826140b6576140b5614061565b5b828206905092915050565b7f4e487b7100000000000000000000000000000000000000000000000000000000600052603260045260246000fd5b7f4552433732313a206f70657261746f7220717565727920666f72206e6f6e657860008201527f697374656e7420746f6b656e0000000000000000000000000000000000000000602082015250565b600061414c602c83612e2a565b9150614157826140f0565b604082019050919050565b6000602082019050818103600083015261417b8161413f565b9050919050565b7f4552433732313a207472616e73666572206f6620746f6b656e2074686174206960008201527f73206e6f74206f776e0000000000000000000000000000000000000000000000602082015250565b60006141de602983612e2a565b91506141e982614182565b604082019050919050565b6000602082019050818103600083015261420d816141d1565b9050919050565b7f4552433732313a207472616e7366657220746f20746865207a65726f2061646460008201527f7265737300000000000000000000000000000000000000000000000000000000602082015250565b6000614270602483612e2a565b915061427b82614214565b604082019050919050565b6000602082019050818103600083015261429f81614263565b9050919050565b7f416363657373436f6e74726f6c3a206163636f756e7420000000000000000000600082015250565b60006142dc601783613e08565b91506142e7826142a6565b601782019050919050565b7f206973206d697373696e6720726f6c6520000000000000000000000000000000600082015250565b6000614328601183613e08565b9150614333826142f2565b601182019050919050565b6000614349826142cf565b91506143558285613e13565b91506143608261431b565b915061436c8284613e13565b91508190509392505050565b60006143848284613f6f565b60148201915081905092915050565b7f4552433732313a20617070726f766520746f2063616c6c657200000000000000600082015250565b60006143c9601983612e2a565b91506143d482614393565b602082019050919050565b600060208201905081810360008301526143f8816143bc565b9050919050565b7f4552433732313a207472616e7366657220746f206e6f6e20455243373231526560008201527f63656976657220696d706c656d656e7465720000000000000000000000000000602082015250565b600061445b603283612e2a565b9150614466826143ff565b604082019050919050565b6000602082019050818103600083015261448a8161444e565b9050919050565b600061449c82612eda565b91507fffffffffffffffffffffffffffffffffffffffffffffffffffffffffffffffff82036144ce576144cd6138b3565b5b600182019050919050565b60006144e482612eda565b91506144ef83612eda565b9250826144ff576144fe614061565b5b828204905092915050565b7f6e6f205f7465616d496473206c65667400000000000000000000000000000000600082015250565b6000614540601083612e2a565b915061454b8261450a565b602082019050919050565b6000602082019050818103600083015261456f81614533565b9050919050565b600061458182612eda565b915061458c83612eda565b9250817fffffffffffffffffffffffffffffffffffffffffffffffffffffffffffffffff04831182151516156145c5576145c46138b3565b5b828202905092915050565b60006145db82612eda565b9150600082036145ee576145ed6138b3565b5b600182039050919050565b7f537472696e67733a20686578206c656e67746820696e73756666696369656e74600082015250565b600061462f602083612e2a565b915061463a826145f9565b602082019050919050565b6000602082019050818103600083015261465e81614622565b9050919050565b600081519050919050565b600082825260208201905092915050565b600061468c82614665565b6146968185614670565b93506146a6818560208601612e3b565b6146af81612e6e565b840191505092915050565b60006080820190506146cf6000830187612f6f565b6146dc6020830186612f6f565b6146e96040830185613005565b81810360608301526146fb8184614681565b905095945050505050565b60008151905061471581612d90565b92915050565b60006020828403121561473157614730612d5a565b5b600061473f84828501614706565b91505092915050565b7f4552433732313a206d696e7420746f20746865207a65726f2061646472657373600082015250565b600061477e602083612e2a565b915061478982614748565b602082019050919050565b600060208201905081810360008301526147ad81614771565b9050919050565b7f4552433732313a20746f6b656e20616c7265616479206d696e74656400000000600082015250565b60006147ea601c83612e2a565b91506147f5826147b4565b602082019050919050565b60006020820190508181036000830152614819816147dd565b9050919050565b600061482c8285613f90565b60208201915061483c8284613f90565b602082019150819050939250505056fea2646970667358221220b6c36b26db2601397df26f5ff54180a915d28c1321fd6e4f206467aa653b493064736f6c634300080d0033",
  "linkReferences": {},
  "deployedLinkReferences": {}
}