{
  "_format": "hh-sol-artifact-1",
  "contractName": "FifthDimensionMock",
  "sourceName": "contracts/mocks/FifthDimensionMock.sol",
  "abi": [
    {
      "inputs": [
        {
          "internalType": "uint64",
          "name": "_whitelistStart",
          "type": "uint64"
        },
        {
          "internalType": "uint64",
          "name": "_whitelistEnd",
          "type": "uint64"
        },
        {
          "internalType": "uint64",
          "name": "_publicStart",
          "type": "uint64"
        },
        {
          "internalType": "uint64",
          "name": "_publicEnd",
          "type": "uint64"
        },
        {
          "internalType": "bytes32",
          "name": "whitelistMerkleRoot",
          "type": "bytes32"
        },
        {
          "internalType": "string",
          "name": "name",
          "type": "string"
        },
        {
          "internalType": "string",
          "name": "symbol",
          "type": "string"
        },
        {
          "internalType": "string",
          "name": "tempUri",
          "type": "string"
        }
      ],
      "stateMutability": "nonpayable",
      "type": "constructor"
    },
    {
      "anonymous": false,
      "inputs": [
        {
          "indexed": true,
          "internalType": "address",
          "name": "owner",
          "type": "address"
        },
        {
          "indexed": true,
          "internalType": "address",
          "name": "approved",
          "type": "address"
        },
        {
          "indexed": true,
          "internalType": "uint256",
          "name": "tokenId",
          "type": "uint256"
        }
      ],
      "name": "Approval",
      "type": "event"
    },
    {
      "anonymous": false,
      "inputs": [
        {
          "indexed": true,
          "internalType": "address",
          "name": "owner",
          "type": "address"
        },
        {
          "indexed": true,
          "internalType": "address",
          "name": "operator",
          "type": "address"
        },
        {
          "indexed": false,
          "internalType": "bool",
          "name": "approved",
          "type": "bool"
        }
      ],
      "name": "ApprovalForAll",
      "type": "event"
    },
    {
      "anonymous": false,
      "inputs": [
        {
          "indexed": true,
          "internalType": "bytes32",
          "name": "role",
          "type": "bytes32"
        },
        {
          "indexed": true,
          "internalType": "bytes32",
          "name": "previousAdminRole",
          "type": "bytes32"
        },
        {
          "indexed": true,
          "internalType": "bytes32",
          "name": "newAdminRole",
          "type": "bytes32"
        }
      ],
      "name": "RoleAdminChanged",
      "type": "event"
    },
    {
      "anonymous": false,
      "inputs": [
        {
          "indexed": true,
          "internalType": "bytes32",
          "name": "role",
          "type": "bytes32"
        },
        {
          "indexed": true,
          "internalType": "address",
          "name": "account",
          "type": "address"
        },
        {
          "indexed": true,
          "internalType": "address",
          "name": "sender",
          "type": "address"
        }
      ],
      "name": "RoleGranted",
      "type": "event"
    },
    {
      "anonymous": false,
      "inputs": [
        {
          "indexed": true,
          "internalType": "bytes32",
          "name": "role",
          "type": "bytes32"
        },
        {
          "indexed": true,
          "internalType": "address",
          "name": "account",
          "type": "address"
        },
        {
          "indexed": true,
          "internalType": "address",
          "name": "sender",
          "type": "address"
        }
      ],
      "name": "RoleRevoked",
      "type": "event"
    },
    {
      "anonymous": false,
      "inputs": [
        {
          "indexed": false,
          "internalType": "uint256",
          "name": "tokenId",
          "type": "uint256"
        }
      ],
      "name": "TokenId",
      "type": "event"
    },
    {
      "anonymous": false,
      "inputs": [
        {
          "indexed": true,
          "internalType": "address",
          "name": "from",
          "type": "address"
        },
        {
          "indexed": true,
          "internalType": "address",
          "name": "to",
          "type": "address"
        },
        {
          "indexed": true,
          "internalType": "uint256",
          "name": "tokenId",
          "type": "uint256"
        }
      ],
      "name": "Transfer",
      "type": "event"
    },
    {
      "inputs": [],
      "name": "ADMIN_ROLE",
      "outputs": [
        {
          "internalType": "bytes32",
          "name": "",
          "type": "bytes32"
        }
      ],
      "stateMutability": "view",
      "type": "function"
    },
    {
      "inputs": [],
      "name": "DEFAULT_ADMIN_ROLE",
      "outputs": [
        {
          "internalType": "bytes32",
          "name": "",
          "type": "bytes32"
        }
      ],
      "stateMutability": "view",
      "type": "function"
    },
    {
      "inputs": [],
      "name": "MOD_ROLE",
      "outputs": [
        {
          "internalType": "bytes32",
          "name": "",
          "type": "bytes32"
        }
      ],
      "stateMutability": "view",
      "type": "function"
    },
    {
      "inputs": [
        {
          "internalType": "address",
          "name": "to",
          "type": "address"
        },
        {
          "internalType": "uint16",
          "name": "quantity",
          "type": "uint16"
        }
      ],
      "name": "airdrop",
      "outputs": [],
      "stateMutability": "nonpayable",
      "type": "function"
    },
    {
      "inputs": [
        {
          "internalType": "address",
          "name": "to",
          "type": "address"
        },
        {
          "internalType": "uint256",
          "name": "tokenId",
          "type": "uint256"
        }
      ],
      "name": "approve",
      "outputs": [],
      "stateMutability": "nonpayable",
      "type": "function"
    },
    {
      "inputs": [
        {
          "internalType": "address",
          "name": "owner",
          "type": "address"
        }
      ],
      "name": "balanceOf",
      "outputs": [
        {
          "internalType": "uint256",
          "name": "",
          "type": "uint256"
        }
      ],
      "stateMutability": "view",
      "type": "function"
    },
    {
      "inputs": [
        {
          "internalType": "uint256",
          "name": "tokenId",
          "type": "uint256"
        }
      ],
      "name": "getApproved",
      "outputs": [
        {
          "internalType": "address",
          "name": "",
          "type": "address"
        }
      ],
      "stateMutability": "view",
      "type": "function"
    },
    {
      "inputs": [
        {
          "internalType": "bytes32",
          "name": "role",
          "type": "bytes32"
        }
      ],
      "name": "getRoleAdmin",
      "outputs": [
        {
          "internalType": "bytes32",
          "name": "",
          "type": "bytes32"
        }
      ],
      "stateMutability": "view",
      "type": "function"
    },
    {
      "inputs": [
        {
          "internalType": "bytes32",
          "name": "role",
          "type": "bytes32"
        },
        {
          "internalType": "address",
          "name": "account",
          "type": "address"
        }
      ],
      "name": "grantRole",
      "outputs": [],
      "stateMutability": "nonpayable",
      "type": "function"
    },
    {
      "inputs": [
        {
          "internalType": "bytes32",
          "name": "role",
          "type": "bytes32"
        },
        {
          "internalType": "address",
          "name": "account",
          "type": "address"
        }
      ],
      "name": "hasRole",
      "outputs": [
        {
          "internalType": "bool",
          "name": "",
          "type": "bool"
        }
      ],
      "stateMutability": "view",
      "type": "function"
    },
    {
      "inputs": [
        {
          "internalType": "address",
          "name": "owner",
          "type": "address"
        },
        {
          "internalType": "address",
          "name": "operator",
          "type": "address"
        }
      ],
      "name": "isApprovedForAll",
      "outputs": [
        {
          "internalType": "bool",
          "name": "",
          "type": "bool"
        }
      ],
      "stateMutability": "view",
      "type": "function"
    },
    {
      "inputs": [],
      "name": "isPublicSaleActive",
      "outputs": [
        {
          "internalType": "bool",
          "name": "",
          "type": "bool"
        }
      ],
      "stateMutability": "view",
      "type": "function"
    },
    {
      "inputs": [],
      "name": "isWhitelistSaleActive",
      "outputs": [
        {
          "internalType": "bool",
          "name": "",
          "type": "bool"
        }
      ],
      "stateMutability": "view",
      "type": "function"
    },
    {
      "inputs": [],
      "name": "mint",
      "outputs": [],
      "stateMutability": "nonpayable",
      "type": "function"
    },
    {
      "inputs": [],
      "name": "name",
      "outputs": [
        {
          "internalType": "string",
          "name": "",
          "type": "string"
        }
      ],
      "stateMutability": "view",
      "type": "function"
    },
    {
      "inputs": [
        {
          "internalType": "uint256",
          "name": "tokenId",
          "type": "uint256"
        }
      ],
      "name": "ownerOf",
      "outputs": [
        {
          "internalType": "address",
          "name": "",
          "type": "address"
        }
      ],
      "stateMutability": "view",
      "type": "function"
    },
    {
      "inputs": [],
      "name": "pickRandomCommunityUniqueId",
      "outputs": [
        {
          "internalType": "uint256",
          "name": "id",
          "type": "uint256"
        }
      ],
      "stateMutability": "nonpayable",
      "type": "function"
    },
    {
      "inputs": [],
      "name": "pickRandomTeamUniqueId",
      "outputs": [
        {
          "internalType": "uint256",
          "name": "id",
          "type": "uint256"
        }
      ],
      "stateMutability": "nonpayable",
      "type": "function"
    },
    {
      "inputs": [],
      "name": "publicEnd",
      "outputs": [
        {
          "internalType": "uint64",
          "name": "",
          "type": "uint64"
        }
      ],
      "stateMutability": "view",
      "type": "function"
    },
    {
      "inputs": [],
      "name": "publicStart",
      "outputs": [
        {
          "internalType": "uint64",
          "name": "",
          "type": "uint64"
        }
      ],
      "stateMutability": "view",
      "type": "function"
    },
    {
      "inputs": [
        {
          "internalType": "bytes32",
          "name": "role",
          "type": "bytes32"
        },
        {
          "internalType": "address",
          "name": "account",
          "type": "address"
        }
      ],
      "name": "renounceRole",
      "outputs": [],
      "stateMutability": "nonpayable",
      "type": "function"
    },
    {
      "inputs": [],
      "name": "revealed",
      "outputs": [
        {
          "internalType": "bool",
          "name": "",
          "type": "bool"
        }
      ],
      "stateMutability": "view",
      "type": "function"
    },
    {
      "inputs": [
        {
          "internalType": "bytes32",
          "name": "role",
          "type": "bytes32"
        },
        {
          "internalType": "address",
          "name": "account",
          "type": "address"
        }
      ],
      "name": "revokeRole",
      "outputs": [],
      "stateMutability": "nonpayable",
      "type": "function"
    },
    {
      "inputs": [
        {
          "internalType": "address",
          "name": "from",
          "type": "address"
        },
        {
          "internalType": "address",
          "name": "to",
          "type": "address"
        },
        {
          "internalType": "uint256",
          "name": "tokenId",
          "type": "uint256"
        }
      ],
      "name": "safeTransferFrom",
      "outputs": [],
      "stateMutability": "nonpayable",
      "type": "function"
    },
    {
      "inputs": [
        {
          "internalType": "address",
          "name": "from",
          "type": "address"
        },
        {
          "internalType": "address",
          "name": "to",
          "type": "address"
        },
        {
          "internalType": "uint256",
          "name": "tokenId",
          "type": "uint256"
        },
        {
          "internalType": "bytes",
          "name": "_data",
          "type": "bytes"
        }
      ],
      "name": "safeTransferFrom",
      "outputs": [],
      "stateMutability": "nonpayable",
      "type": "function"
    },
    {
      "inputs": [
        {
          "internalType": "address",
          "name": "operator",
          "type": "address"
        },
        {
          "internalType": "bool",
          "name": "approved",
          "type": "bool"
        }
      ],
      "name": "setApprovalForAll",
      "outputs": [],
      "stateMutability": "nonpayable",
      "type": "function"
    },
    {
      "inputs": [
        {
          "internalType": "string",
          "name": "baseUri",
          "type": "string"
        }
      ],
      "name": "setBaseURI",
      "outputs": [],
      "stateMutability": "nonpayable",
      "type": "function"
    },
    {
      "inputs": [
        {
          "internalType": "string",
          "name": "tempUri",
          "type": "string"
        }
      ],
      "name": "setPlaceholderURI",
      "outputs": [],
      "stateMutability": "nonpayable",
      "type": "function"
    },
    {
      "inputs": [
        {
          "internalType": "bytes4",
          "name": "interfaceId",
          "type": "bytes4"
        }
      ],
      "name": "supportsInterface",
      "outputs": [
        {
          "internalType": "bool",
          "name": "",
          "type": "bool"
        }
      ],
      "stateMutability": "view",
      "type": "function"
    },
    {
      "inputs": [],
      "name": "symbol",
      "outputs": [
        {
          "internalType": "string",
          "name": "",
          "type": "string"
        }
      ],
      "stateMutability": "view",
      "type": "function"
    },
    {
      "inputs": [],
      "name": "toggleReveal",
      "outputs": [],
      "stateMutability": "nonpayable",
      "type": "function"
    },
    {
      "inputs": [
        {
          "internalType": "uint256",
          "name": "id",
          "type": "uint256"
        }
      ],
      "name": "tokenURI",
      "outputs": [
        {
          "internalType": "string",
          "name": "",
          "type": "string"
        }
      ],
      "stateMutability": "view",
      "type": "function"
    },
    {
      "inputs": [],
      "name": "totalSupply",
      "outputs": [
        {
          "internalType": "uint16",
          "name": "",
          "type": "uint16"
        }
      ],
      "stateMutability": "view",
      "type": "function"
    },
    {
      "inputs": [
        {
          "internalType": "address",
          "name": "from",
          "type": "address"
        },
        {
          "internalType": "address",
          "name": "to",
          "type": "address"
        },
        {
          "internalType": "uint256",
          "name": "tokenId",
          "type": "uint256"
        }
      ],
      "name": "transferFrom",
      "outputs": [],
      "stateMutability": "nonpayable",
      "type": "function"
    },
    {
      "inputs": [],
      "name": "whitelistEnd",
      "outputs": [
        {
          "internalType": "uint64",
          "name": "",
          "type": "uint64"
        }
      ],
      "stateMutability": "view",
      "type": "function"
    },
    {
      "inputs": [
        {
          "internalType": "bytes32[]",
          "name": "_merkleProof",
          "type": "bytes32[]"
        }
      ],
      "name": "whitelistMint",
      "outputs": [],
      "stateMutability": "nonpayable",
      "type": "function"
    },
    {
      "inputs": [],
      "name": "whitelistStart",
      "outputs": [
        {
          "internalType": "uint64",
          "name": "",
          "type": "uint64"
        }
      ],
      "stateMutability": "view",
      "type": "function"
    }
  ],
  "bytecode": "0x60806040527fa49807205ce4d355092ef5a8a18f56e8913cf4a201fbe287825b095693c217756007557f950b8f2d7415defaee398bb4898e8e094a64c725873b81952b7ab9f08d70efb36008553480156200005957600080fd5b50604051620059a1380380620059a183398181016040528101906200007f9190620007c6565b8282816000908051906020019062000099929190620004f9565b508060019080519060200190620000b2929190620004f9565b5050508360098190555080600d9080519060200190620000d4929190620004f9565b506000429050808967ffffffffffffffff161162000129576040517f08c379a000000000000000000000000000000000000000000000000000000000815260040162000120906200094d565b60405180910390fd5b808867ffffffffffffffff161180156200016c5750603360089054906101000a900467ffffffffffffffff1667ffffffffffffffff168867ffffffffffffffff16115b620001ae576040517f08c379a0000000000000000000000000000000000000000000000000000000008152600401620001a590620009bf565b60405180910390fd5b88603360086101000a81548167ffffffffffffffff021916908367ffffffffffffffff16021790555087603360106101000a81548167ffffffffffffffff021916908367ffffffffffffffff160217905550808767ffffffffffffffff161180156200022e57508767ffffffffffffffff168767ffffffffffffffff1610155b62000270576040517f08c379a0000000000000000000000000000000000000000000000000000000008152600401620002679062000a31565b60405180910390fd5b808667ffffffffffffffff161180156200029d57508667ffffffffffffffff168667ffffffffffffffff16115b620002df576040517f08c379a0000000000000000000000000000000000000000000000000000000008152600401620002d69062000aa3565b60405180910390fd5b86603360186101000a81548167ffffffffffffffff021916908367ffffffffffffffff16021790555085603460006101000a81548167ffffffffffffffff021916908367ffffffffffffffff1602179055506000620003436200037e60201b60201c565b90506200035a6000801b826200038660201b60201c565b6200036e600754826200038660201b60201c565b5050505050505050505062000b29565b600033905090565b6200039882826200039c60201b60201c565b5050565b620003ae82826200048e60201b60201c565b6200048a5760016006600084815260200190815260200160002060000160008373ffffffffffffffffffffffffffffffffffffffff1673ffffffffffffffffffffffffffffffffffffffff16815260200190815260200160002060006101000a81548160ff0219169083151502179055506200042f6200037e60201b60201c565b73ffffffffffffffffffffffffffffffffffffffff168173ffffffffffffffffffffffffffffffffffffffff16837f2f8788117e7eff1d82e926ec794901d17c78024a50270940304540a733656f0d60405160405180910390a45b5050565b60006006600084815260200190815260200160002060000160008373ffffffffffffffffffffffffffffffffffffffff1673ffffffffffffffffffffffffffffffffffffffff16815260200190815260200160002060009054906101000a900460ff16905092915050565b828054620005079062000af4565b90600052602060002090601f0160209004810192826200052b576000855562000577565b82601f106200054657805160ff191683800117855562000577565b8280016001018555821562000577579182015b828111156200057657825182559160200191906001019062000559565b5b5090506200058691906200058a565b5090565b5b80821115620005a55760008160009055506001016200058b565b5090565b6000604051905090565b600080fd5b600080fd5b600067ffffffffffffffff82169050919050565b620005dc81620005bd565b8114620005e857600080fd5b50565b600081519050620005fc81620005d1565b92915050565b6000819050919050565b620006178162000602565b81146200062357600080fd5b50565b60008151905062000637816200060c565b92915050565b600080fd5b600080fd5b6000601f19601f8301169050919050565b7f4e487b7100000000000000000000000000000000000000000000000000000000600052604160045260246000fd5b620006928262000647565b810181811067ffffffffffffffff82111715620006b457620006b362000658565b5b80604052505050565b6000620006c9620005a9565b9050620006d7828262000687565b919050565b600067ffffffffffffffff821115620006fa57620006f962000658565b5b620007058262000647565b9050602081019050919050565b60005b838110156200073257808201518184015260208101905062000715565b8381111562000742576000848401525b50505050565b60006200075f6200075984620006dc565b620006bd565b9050828152602081018484840111156200077e576200077d62000642565b5b6200078b84828562000712565b509392505050565b600082601f830112620007ab57620007aa6200063d565b5b8151620007bd84826020860162000748565b91505092915050565b600080600080600080600080610100898b031215620007ea57620007e9620005b3565b5b6000620007fa8b828c01620005eb565b98505060206200080d8b828c01620005eb565b9750506040620008208b828c01620005eb565b9650506060620008338b828c01620005eb565b9550506080620008468b828c0162000626565b94505060a089015167ffffffffffffffff8111156200086a5762000869620005b8565b5b620008788b828c0162000793565b93505060c089015167ffffffffffffffff8111156200089c576200089b620005b8565b5b620008aa8b828c0162000793565b92505060e089015167ffffffffffffffff811115620008ce57620008cd620005b8565b5b620008dc8b828c0162000793565b9150509295985092959890939650565b600082825260208201905092915050565b7f57726f6e672077686974656c6973742073746172740000000000000000000000600082015250565b600062000935601583620008ec565b91506200094282620008fd565b602082019050919050565b60006020820190508181036000830152620009688162000926565b9050919050565b7f57726f6e672077686974656c69737420656e6400000000000000000000000000600082015250565b6000620009a7601383620008ec565b9150620009b4826200096f565b602082019050919050565b60006020820190508181036000830152620009da8162000998565b9050919050565b7f57726f6e67207075626c69632073746172740000000000000000000000000000600082015250565b600062000a19601283620008ec565b915062000a2682620009e1565b602082019050919050565b6000602082019050818103600083015262000a4c8162000a0a565b9050919050565b7f57726f6e67207075626c696320656e6400000000000000000000000000000000600082015250565b600062000a8b601083620008ec565b915062000a988262000a53565b602082019050919050565b6000602082019050818103600083015262000abe8162000a7c565b9050919050565b7f4e487b7100000000000000000000000000000000000000000000000000000000600052602260045260246000fd5b6000600282049050600182168062000b0d57607f821691505b60208210810362000b235762000b2262000ac5565b5b50919050565b614e688062000b396000396000f3fe608060405234801561001057600080fd5b50600436106102275760003560e01c80635b8ad42911610130578063a22cb465116100b8578063c87b56dd1161007c578063c87b56dd1461061c578063d547741f1461064c578063e932406f14610668578063e985e9c514610686578063ec8d130b146106b657610227565b8063a22cb4651461058a578063a5f4c6ff146105a6578063b88d4fde146105c4578063b98451cf146105e0578063bfb6e0e7146105fe57610227565b806375b238fc116100ff57806375b238fc146104e257806391d148541461050057806395d89b4114610530578063994d39691461054e578063a217fddf1461056c57610227565b80635b8ad4291461045a5780636352211e146104645780636f09bebe1461049457806370a08231146104b257610227565b806323b872dd116101b357806336568abe1161018257806336568abe146103cc578063372f657c146103e857806342842e0e14610404578063518302271461042057806355f804b31461043e57610227565b806323b872dd14610348578063248a9ca3146103645780632f2ff15d146103945780633574a2dd146103b057610227565b8063095ea7b3116101fa578063095ea7b3146102c85780630acae9a7146102e45780631249c58b1461030257806318160ddd1461030c5780631e84c4131461032a57610227565b806301ffc9a71461022c57806306fdde031461025c578063081812fc1461027a578063093f66d1146102aa575b600080fd5b610246600480360381019061024191906131f0565b6106d2565b6040516102539190613238565b60405180910390f35b6102646106e4565b60405161027191906132ec565b60405180910390f35b610294600480360381019061028f9190613344565b610776565b6040516102a191906133b2565b60405180910390f35b6102b26107fb565b6040516102bf91906133dc565b60405180910390f35b6102e260048036038101906102dd9190613423565b610ad5565b005b6102ec610bec565b6040516102f99190613486565b60405180910390f35b61030a610c06565b005b610314610e16565b60405161032191906134be565b60405180910390f35b610332610e49565b60405161033f9190613238565b60405180910390f35b610362600480360381019061035d91906134d9565b610e9e565b005b61037e60048036038101906103799190613562565b610efe565b60405161038b919061359e565b60405180910390f35b6103ae60048036038101906103a991906135b9565b610f1e565b005b6103ca60048036038101906103c5919061372e565b610f47565b005b6103e660048036038101906103e191906135b9565b610fcd565b005b61040260048036038101906103fd91906137d7565b611050565b005b61041e600480360381019061041991906134d9565b61127e565b005b61042861129e565b6040516104359190613238565b60405180910390f35b6104586004803603810190610453919061372e565b6112b1565b005b610462611337565b005b61047e60048036038101906104799190613344565b6113cf565b60405161048b91906133b2565b60405180910390f35b61049c611480565b6040516104a991906133dc565b60405180910390f35b6104cc60048036038101906104c79190613824565b611761565b6040516104d991906133dc565b60405180910390f35b6104ea611818565b6040516104f7919061359e565b60405180910390f35b61051a600480360381019061051591906135b9565b61181e565b6040516105279190613238565b60405180910390f35b610538611889565b60405161054591906132ec565b60405180910390f35b61055661191b565b6040516105639190613486565b60405180910390f35b610574611935565b604051610581919061359e565b60405180910390f35b6105a4600480360381019061059f919061387d565b61193c565b005b6105ae611952565b6040516105bb9190613486565b60405180910390f35b6105de60048036038101906105d9919061395e565b61196c565b005b6105e86119ce565b6040516105f59190613238565b60405180910390f35b610606611a23565b6040516106139190613486565b60405180910390f35b61063660048036038101906106319190613344565b611a3d565b60405161064391906132ec565b60405180910390f35b610666600480360381019061066191906135b9565b611b64565b005b610670611b8d565b60405161067d919061359e565b60405180910390f35b6106a0600480360381019061069b91906139e1565b611b93565b6040516106ad9190613238565b60405180910390f35b6106d060048036038101906106cb9190613a4d565b611c27565b005b60006106dd82611d2a565b9050919050565b6060600080546106f390613abc565b80601f016020809104026020016040519081016040528092919081815260200182805461071f90613abc565b801561076c5780601f106107415761010080835404028352916020019161076c565b820191906000526020600020905b81548152906001019060200180831161074f57829003601f168201915b5050505050905090565b600061078182611da4565b6107c0576040517f08c379a00000000000000000000000000000000000000000000000000000000081526004016107b790613b5f565b60405180910390fd5b6004600083815260200190815260200160002060009054906101000a900473ffffffffffffffffffffffffffffffffffffffff169050919050565b600080603360029054906101000a900461ffff16334260014361081e9190613bae565b406040516020016108329493929190613ca2565b6040516020818303038152906040528051906020012060001c90506000603360029054906101000a900461ffff1661ffff1660376108709190613bae565b90506001603360028282829054906101000a900461ffff166108929190613cf0565b92506101000a81548161ffff021916908361ffff160217905550600081116108ef576040517f08c379a00000000000000000000000000000000000000000000000000000000081526004016108e690613d74565b60405180910390fd5b600081836108fd9190613dc3565b90506000602f826037811061091557610914613df4565b5b601091828204019190066002029054906101000a900461ffff1661ffff160361093e5780610971565b602f816037811061095257610951613df4565b5b601091828204019190066002029054906101000a900461ffff1661ffff165b93506001846109809190613e23565b93506000602f6001846109939190613bae565b603781106109a4576109a3613df4565b5b601091828204019190066002029054906101000a900461ffff1661ffff1614610a0a57602f6001836109d69190613bae565b603781106109e7576109e6613df4565b5b601091828204019190066002029054906101000a900461ffff1661ffff16610a18565b600182610a179190613bae565b5b602f8260378110610a2c57610a2b613df4565b5b601091828204019190066002026101000a81548161ffff021916908361ffff1602179055506000602f600184610a629190613bae565b60378110610a7357610a72613df4565b5b601091828204019190066002026101000a81548161ffff021916908361ffff1602179055507fa4e8e12e12124dbefe84fada6e584fcfaf4862f3b8284a8174f89be901ec4d7d84604051610ac791906133dc565b60405180910390a150505090565b6000610ae0826113cf565b90508073ffffffffffffffffffffffffffffffffffffffff168373ffffffffffffffffffffffffffffffffffffffff1603610b50576040517f08c379a0000000000000000000000000000000000000000000000000000000008152600401610b4790613eeb565b60405180910390fd5b8073ffffffffffffffffffffffffffffffffffffffff16610b6f611e10565b73ffffffffffffffffffffffffffffffffffffffff161480610b9e5750610b9d81610b98611e10565b611b93565b5b610bdd576040517f08c379a0000000000000000000000000000000000000000000000000000000008152600401610bd490613f7d565b60405180910390fd5b610be78383611e18565b505050565b603460009054906101000a900467ffffffffffffffff1681565b610c0e610e49565b610c4d576040517f08c379a0000000000000000000000000000000000000000000000000000000008152600401610c4490613fe9565b60405180910390fd5b6000610c57611e10565b90506001600b60008373ffffffffffffffffffffffffffffffffffffffff1673ffffffffffffffffffffffffffffffffffffffff16815260200190815260200160002060008282829054906101000a900460ff16610cb59190614016565b92506101000a81548160ff021916908360ff160217905550600261ffff16600b60008373ffffffffffffffffffffffffffffffffffffffff1673ffffffffffffffffffffffffffffffffffffffff16815260200190815260200160002060009054906101000a900460ff1660ff161115610d64576040517f08c379a0000000000000000000000000000000000000000000000000000000008152600401610d5b90614099565b60405180910390fd5b6001603360068282829054906101000a900461ffff16610d849190613cf0565b92506101000a81548161ffff021916908361ffff16021790555061022b61ffff16603360069054906101000a900461ffff1661ffff161115610dfb576040517f08c379a0000000000000000000000000000000000000000000000000000000008152600401610df290614105565b60405180910390fd5b610e13610e06611e10565b610e0e611480565b611ed1565b50565b6000603360069054906101000a900461ffff16603360049054906101000a900461ffff16610e449190613cf0565b905090565b6000603360189054906101000a900467ffffffffffffffff1667ffffffffffffffff1642118015610e995750603460009054906101000a900467ffffffffffffffff1667ffffffffffffffff1642105b905090565b610eaf610ea9611e10565b82611eef565b610eee576040517f08c379a0000000000000000000000000000000000000000000000000000000008152600401610ee590614197565b60405180910390fd5b610ef9838383611fcd565b505050565b600060066000838152602001908152602001600020600101549050919050565b610f2782610efe565b610f3881610f33611e10565b612228565b610f4283836122c5565b505050565b6000610f51611e10565b9050610f606000801b8261181e565b80610f735750610f726007548261181e565b5b610fb2576040517f08c379a0000000000000000000000000000000000000000000000000000000008152600401610fa990614203565b60405180910390fd5b81600d9080519060200190610fc89291906130e1565b505050565b610fd5611e10565b73ffffffffffffffffffffffffffffffffffffffff168173ffffffffffffffffffffffffffffffffffffffff1614611042576040517f08c379a000000000000000000000000000000000000000000000000000000000815260040161103990614295565b60405180910390fd5b61104c82826123a6565b5050565b600061105a611e10565b90506110646119ce565b6110a3576040517f08c379a000000000000000000000000000000000000000000000000000000000815260040161109a90614301565b60405180910390fd5b6110ae838383612488565b6110ed576040517f08c379a00000000000000000000000000000000000000000000000000000000081526004016110e49061436d565b60405180910390fd5b6001600a60008373ffffffffffffffffffffffffffffffffffffffff1673ffffffffffffffffffffffffffffffffffffffff16815260200190815260200160002060006101000a81548160ff021916908315150217905550600a60008273ffffffffffffffffffffffffffffffffffffffff1673ffffffffffffffffffffffffffffffffffffffff16815260200190815260200160002060009054906101000a900460ff166111d1576040517f08c379a00000000000000000000000000000000000000000000000000000000081526004016111c8906143d9565b60405180910390fd5b6001603360068282829054906101000a900461ffff166111f19190613cf0565b92506101000a81548161ffff021916908361ffff16021790555061022b61ffff16603360069054906101000a900461ffff1661ffff161115611268576040517f08c379a000000000000000000000000000000000000000000000000000000000815260040161125f90614105565b60405180910390fd5b61127981611274611480565b611ed1565b505050565b6112998383836040518060200160405280600081525061196c565b505050565b600e60009054906101000a900460ff1681565b60006112bb611e10565b90506112ca6000801b8261181e565b806112dd57506112dc6007548261181e565b5b61131c576040517f08c379a000000000000000000000000000000000000000000000000000000000815260040161131390614203565b60405180910390fd5b81600c90805190602001906113329291906130e1565b505050565b6000611341611e10565b90506113506000801b8261181e565b8061136357506113626007548261181e565b5b6113a2576040517f08c379a000000000000000000000000000000000000000000000000000000000815260040161139990614203565b60405180910390fd5b600e60009054906101000a900460ff1615600e60006101000a81548160ff02191690831515021790555050565b6000806002600084815260200190815260200160002060009054906101000a900473ffffffffffffffffffffffffffffffffffffffff169050600073ffffffffffffffffffffffffffffffffffffffff168173ffffffffffffffffffffffffffffffffffffffff1603611477576040517f08c379a000000000000000000000000000000000000000000000000000000000815260040161146e9061446b565b60405180910390fd5b80915050919050565b600080603360009054906101000a900461ffff1633426001436114a39190613bae565b406040516020016114b79493929190613ca2565b6040516020818303038152906040528051906020012060001c90506000603360009054906101000a900461ffff1661ffff166101f46114f69190613bae565b90506001603360008282829054906101000a900461ffff166115189190613cf0565b92506101000a81548161ffff021916908361ffff16021790555060008111611575576040517f08c379a000000000000000000000000000000000000000000000000000000000815260040161156c906144d7565b60405180910390fd5b600081836115839190613dc3565b90506000600f826101f4811061159c5761159b613df4565b5b601091828204019190066002029054906101000a900461ffff1661ffff16036115c557806115f9565b600f816101f481106115da576115d9613df4565b5b601091828204019190066002029054906101000a900461ffff1661ffff165b93506038846116089190613e23565b93506000600f60018461161b9190613bae565b6101f4811061162d5761162c613df4565b5b601091828204019190066002029054906101000a900461ffff1661ffff161461169457600f60018361165f9190613bae565b6101f4811061167157611670613df4565b5b601091828204019190066002029054906101000a900461ffff1661ffff166116a2565b6001826116a19190613bae565b5b600f826101f481106116b7576116b6613df4565b5b601091828204019190066002026101000a81548161ffff021916908361ffff1602179055506000600f6001846116ed9190613bae565b6101f481106116ff576116fe613df4565b5b601091828204019190066002026101000a81548161ffff021916908361ffff1602179055507fa4e8e12e12124dbefe84fada6e584fcfaf4862f3b8284a8174f89be901ec4d7d8460405161175391906133dc565b60405180910390a150505090565b60008073ffffffffffffffffffffffffffffffffffffffff168273ffffffffffffffffffffffffffffffffffffffff16036117d1576040517f08c379a00000000000000000000000000000000000000000000000000000000081526004016117c890614569565b60405180910390fd5b600360008373ffffffffffffffffffffffffffffffffffffffff1673ffffffffffffffffffffffffffffffffffffffff168152602001908152602001600020549050919050565b60075481565b60006006600084815260200190815260200160002060000160008373ffffffffffffffffffffffffffffffffffffffff1673ffffffffffffffffffffffffffffffffffffffff16815260200190815260200160002060009054906101000a900460ff16905092915050565b60606001805461189890613abc565b80601f01602080910402602001604051908101604052809291908181526020018280546118c490613abc565b80156119115780601f106118e657610100808354040283529160200191611911565b820191906000526020600020905b8154815290600101906020018083116118f457829003601f168201915b5050505050905090565b603360089054906101000a900467ffffffffffffffff1681565b6000801b81565b61194e611947611e10565b838361250e565b5050565b603360189054906101000a900467ffffffffffffffff1681565b61197d611977611e10565b83611eef565b6119bc576040517f08c379a00000000000000000000000000000000000000000000000000000000081526004016119b390614197565b60405180910390fd5b6119c88484848461267a565b50505050565b6000603360089054906101000a900467ffffffffffffffff1667ffffffffffffffff1642118015611a1e5750603360109054906101000a900467ffffffffffffffff1667ffffffffffffffff1642105b905090565b603360109054906101000a900467ffffffffffffffff1681565b6060611a4882611da4565b611a87576040517f08c379a0000000000000000000000000000000000000000000000000000000008152600401611a7e906145d5565b60405180910390fd5b600e60009054906101000a900460ff16611b2b57600d8054611aa890613abc565b80601f0160208091040260200160405190810160405280929190818152602001828054611ad490613abc565b8015611b215780601f10611af657610100808354040283529160200191611b21565b820191906000526020600020905b815481529060010190602001808311611b0457829003601f168201915b5050505050611b5d565b611b336126d6565b611b3c83612768565b604051602001611b4d92919061467d565b6040516020818303038152906040525b9050919050565b611b6d82610efe565b611b7e81611b79611e10565b612228565b611b8883836123a6565b505050565b60085481565b6000600560008473ffffffffffffffffffffffffffffffffffffffff1673ffffffffffffffffffffffffffffffffffffffff16815260200190815260200160002060008373ffffffffffffffffffffffffffffffffffffffff1673ffffffffffffffffffffffffffffffffffffffff16815260200190815260200160002060009054906101000a900460ff16905092915050565b6000611c31611e10565b9050611c406000801b8261181e565b80611c535750611c526007548261181e565b5b611c92576040517f08c379a0000000000000000000000000000000000000000000000000000000008152600401611c8990614203565b60405180910390fd5b603761ffff16603360049054906101000a900461ffff1661ffff1610611ced576040517f08c379a0000000000000000000000000000000000000000000000000000000008152600401611ce4906146f8565b60405180910390fd5b60005b8261ffff168161ffff161015611d2457611d1184611d0c6107fb565b611ed1565b8080611d1c90614718565b915050611cf0565b50505050565b60007f7965db0b000000000000000000000000000000000000000000000000000000007bffffffffffffffffffffffffffffffffffffffffffffffffffffffff1916827bffffffffffffffffffffffffffffffffffffffffffffffffffffffff19161480611d9d5750611d9c826128c8565b5b9050919050565b60008073ffffffffffffffffffffffffffffffffffffffff166002600084815260200190815260200160002060009054906101000a900473ffffffffffffffffffffffffffffffffffffffff1673ffffffffffffffffffffffffffffffffffffffff1614159050919050565b600033905090565b816004600083815260200190815260200160002060006101000a81548173ffffffffffffffffffffffffffffffffffffffff021916908373ffffffffffffffffffffffffffffffffffffffff160217905550808273ffffffffffffffffffffffffffffffffffffffff16611e8b836113cf565b73ffffffffffffffffffffffffffffffffffffffff167f8c5be1e5ebec7d5bd14f71427d1e84f3dd0314c0f7b2291e5b200ac8c7c3b92560405160405180910390a45050565b611eeb8282604051806020016040528060008152506129aa565b5050565b6000611efa82611da4565b611f39576040517f08c379a0000000000000000000000000000000000000000000000000000000008152600401611f30906147b4565b60405180910390fd5b6000611f44836113cf565b90508073ffffffffffffffffffffffffffffffffffffffff168473ffffffffffffffffffffffffffffffffffffffff161480611fb357508373ffffffffffffffffffffffffffffffffffffffff16611f9b84610776565b73ffffffffffffffffffffffffffffffffffffffff16145b80611fc45750611fc38185611b93565b5b91505092915050565b8273ffffffffffffffffffffffffffffffffffffffff16611fed826113cf565b73ffffffffffffffffffffffffffffffffffffffff1614612043576040517f08c379a000000000000000000000000000000000000000000000000000000000815260040161203a90614846565b60405180910390fd5b600073ffffffffffffffffffffffffffffffffffffffff168273ffffffffffffffffffffffffffffffffffffffff16036120b2576040517f08c379a00000000000000000000000000000000000000000000000000000000081526004016120a9906148d8565b60405180910390fd5b6120bd838383612a05565b6120c8600082611e18565b6001600360008573ffffffffffffffffffffffffffffffffffffffff1673ffffffffffffffffffffffffffffffffffffffff16815260200190815260200160002060008282546121189190613bae565b925050819055506001600360008473ffffffffffffffffffffffffffffffffffffffff1673ffffffffffffffffffffffffffffffffffffffff168152602001908152602001600020600082825461216f9190613e23565b92505081905550816002600083815260200190815260200160002060006101000a81548173ffffffffffffffffffffffffffffffffffffffff021916908373ffffffffffffffffffffffffffffffffffffffff160217905550808273ffffffffffffffffffffffffffffffffffffffff168473ffffffffffffffffffffffffffffffffffffffff167fddf252ad1be2c89b69c2b068fc378daa952ba7f163c4a11628f55a4df523b3ef60405160405180910390a4505050565b612232828261181e565b6122c1576122578173ffffffffffffffffffffffffffffffffffffffff166014612a0a565b6122658360001c6020612a0a565b604051602001612276929190614990565b6040516020818303038152906040526040517f08c379a00000000000000000000000000000000000000000000000000000000081526004016122b891906132ec565b60405180910390fd5b5050565b6122cf828261181e565b6123a25760016006600084815260200190815260200160002060000160008373ffffffffffffffffffffffffffffffffffffffff1673ffffffffffffffffffffffffffffffffffffffff16815260200190815260200160002060006101000a81548160ff021916908315150217905550612347611e10565b73ffffffffffffffffffffffffffffffffffffffff168173ffffffffffffffffffffffffffffffffffffffff16837f2f8788117e7eff1d82e926ec794901d17c78024a50270940304540a733656f0d60405160405180910390a45b5050565b6123b0828261181e565b156124845760006006600084815260200190815260200160002060000160008373ffffffffffffffffffffffffffffffffffffffff1673ffffffffffffffffffffffffffffffffffffffff16815260200190815260200160002060006101000a81548160ff021916908315150217905550612429611e10565b73ffffffffffffffffffffffffffffffffffffffff168173ffffffffffffffffffffffffffffffffffffffff16837ff6391f5c32d9c69d2a47ea670b442974b53935d1edc7fd64eb21e047a839171b60405160405180910390a45b5050565b600060011515612502858580806020026020016040519081016040528093929190818152602001838360200280828437600081840152601f19601f82011690508083019250505050505050600954856040516020016124e791906149ca565b60405160208183030381529060405280519060200120612c46565b15151490509392505050565b8173ffffffffffffffffffffffffffffffffffffffff168373ffffffffffffffffffffffffffffffffffffffff160361257c576040517f08c379a000000000000000000000000000000000000000000000000000000000815260040161257390614a31565b60405180910390fd5b80600560008573ffffffffffffffffffffffffffffffffffffffff1673ffffffffffffffffffffffffffffffffffffffff16815260200190815260200160002060008473ffffffffffffffffffffffffffffffffffffffff1673ffffffffffffffffffffffffffffffffffffffff16815260200190815260200160002060006101000a81548160ff0219169083151502179055508173ffffffffffffffffffffffffffffffffffffffff168373ffffffffffffffffffffffffffffffffffffffff167f17307eab39ab6107e8899845ad3d59bd9653f200f220920489ca2b5937696c318360405161266d9190613238565b60405180910390a3505050565b612685848484611fcd565b61269184848484612c5d565b6126d0576040517f08c379a00000000000000000000000000000000000000000000000000000000081526004016126c790614ac3565b60405180910390fd5b50505050565b6060600c80546126e590613abc565b80601f016020809104026020016040519081016040528092919081815260200182805461271190613abc565b801561275e5780601f106127335761010080835404028352916020019161275e565b820191906000526020600020905b81548152906001019060200180831161274157829003601f168201915b5050505050905090565b6060600082036127af576040518060400160405280600181526020017f300000000000000000000000000000000000000000000000000000000000000081525090506128c3565b600082905060005b600082146127e15780806127ca90614ae3565b915050600a826127da9190614b2b565b91506127b7565b60008167ffffffffffffffff8111156127fd576127fc613603565b5b6040519080825280601f01601f19166020018201604052801561282f5781602001600182028036833780820191505090505b5090505b600085146128bc576001826128489190613bae565b9150600a856128579190613dc3565b60306128639190613e23565b60f81b81838151811061287957612878613df4565b5b60200101907effffffffffffffffffffffffffffffffffffffffffffffffffffffffffffff1916908160001a905350600a856128b59190614b2b565b9450612833565b8093505050505b919050565b60007f80ac58cd000000000000000000000000000000000000000000000000000000007bffffffffffffffffffffffffffffffffffffffffffffffffffffffff1916827bffffffffffffffffffffffffffffffffffffffffffffffffffffffff1916148061299357507f5b5e139f000000000000000000000000000000000000000000000000000000007bffffffffffffffffffffffffffffffffffffffffffffffffffffffff1916827bffffffffffffffffffffffffffffffffffffffffffffffffffffffff1916145b806129a357506129a282612de4565b5b9050919050565b6129b48383612e4e565b6129c16000848484612c5d565b612a00576040517f08c379a00000000000000000000000000000000000000000000000000000000081526004016129f790614ac3565b60405180910390fd5b505050565b505050565b606060006002836002612a1d9190614b5c565b612a279190613e23565b67ffffffffffffffff811115612a4057612a3f613603565b5b6040519080825280601f01601f191660200182016040528015612a725781602001600182028036833780820191505090505b5090507f300000000000000000000000000000000000000000000000000000000000000081600081518110612aaa57612aa9613df4565b5b60200101907effffffffffffffffffffffffffffffffffffffffffffffffffffffffffffff1916908160001a9053507f780000000000000000000000000000000000000000000000000000000000000081600181518110612b0e57612b0d613df4565b5b60200101907effffffffffffffffffffffffffffffffffffffffffffffffffffffffffffff1916908160001a90535060006001846002612b4e9190614b5c565b612b589190613e23565b90505b6001811115612bf8577f3031323334353637383961626364656600000000000000000000000000000000600f861660108110612b9a57612b99613df4565b5b1a60f81b828281518110612bb157612bb0613df4565b5b60200101907effffffffffffffffffffffffffffffffffffffffffffffffffffffffffffff1916908160001a905350600485901c945080612bf190614bb6565b9050612b5b565b5060008414612c3c576040517f08c379a0000000000000000000000000000000000000000000000000000000008152600401612c3390614c2b565b60405180910390fd5b8091505092915050565b600082612c53858461301b565b1490509392505050565b6000612c7e8473ffffffffffffffffffffffffffffffffffffffff166130ce565b15612dd7578373ffffffffffffffffffffffffffffffffffffffff1663150b7a02612ca7611e10565b8786866040518563ffffffff1660e01b8152600401612cc99493929190614ca0565b6020604051808303816000875af1925050508015612d0557506040513d601f19601f82011682018060405250810190612d029190614d01565b60015b612d87573d8060008114612d35576040519150601f19603f3d011682016040523d82523d6000602084013e612d3a565b606091505b506000815103612d7f576040517f08c379a0000000000000000000000000000000000000000000000000000000008152600401612d7690614ac3565b60405180910390fd5b805181602001fd5b63150b7a0260e01b7bffffffffffffffffffffffffffffffffffffffffffffffffffffffff1916817bffffffffffffffffffffffffffffffffffffffffffffffffffffffff191614915050612ddc565b600190505b949350505050565b60007f01ffc9a7000000000000000000000000000000000000000000000000000000007bffffffffffffffffffffffffffffffffffffffffffffffffffffffff1916827bffffffffffffffffffffffffffffffffffffffffffffffffffffffff1916149050919050565b600073ffffffffffffffffffffffffffffffffffffffff168273ffffffffffffffffffffffffffffffffffffffff1603612ebd576040517f08c379a0000000000000000000000000000000000000000000000000000000008152600401612eb490614d7a565b60405180910390fd5b612ec681611da4565b15612f06576040517f08c379a0000000000000000000000000000000000000000000000000000000008152600401612efd90614de6565b60405180910390fd5b612f1260008383612a05565b6001600360008473ffffffffffffffffffffffffffffffffffffffff1673ffffffffffffffffffffffffffffffffffffffff1681526020019081526020016000206000828254612f629190613e23565b92505081905550816002600083815260200190815260200160002060006101000a81548173ffffffffffffffffffffffffffffffffffffffff021916908373ffffffffffffffffffffffffffffffffffffffff160217905550808273ffffffffffffffffffffffffffffffffffffffff16600073ffffffffffffffffffffffffffffffffffffffff167fddf252ad1be2c89b69c2b068fc378daa952ba7f163c4a11628f55a4df523b3ef60405160405180910390a45050565b60008082905060005b84518110156130c357600085828151811061304257613041613df4565b5b60200260200101519050808311613083578281604051602001613066929190614e06565b6040516020818303038152906040528051906020012092506130af565b8083604051602001613096929190614e06565b6040516020818303038152906040528051906020012092505b5080806130bb90614ae3565b915050613024565b508091505092915050565b600080823b905060008111915050919050565b8280546130ed90613abc565b90600052602060002090601f01602090048101928261310f5760008555613156565b82601f1061312857805160ff1916838001178555613156565b82800160010185558215613156579182015b8281111561315557825182559160200191906001019061313a565b5b5090506131639190613167565b5090565b5b80821115613180576000816000905550600101613168565b5090565b6000604051905090565b600080fd5b600080fd5b60007fffffffff0000000000000000000000000000000000000000000000000000000082169050919050565b6131cd81613198565b81146131d857600080fd5b50565b6000813590506131ea816131c4565b92915050565b6000602082840312156132065761320561318e565b5b6000613214848285016131db565b91505092915050565b60008115159050919050565b6132328161321d565b82525050565b600060208201905061324d6000830184613229565b92915050565b600081519050919050565b600082825260208201905092915050565b60005b8381101561328d578082015181840152602081019050613272565b8381111561329c576000848401525b50505050565b6000601f19601f8301169050919050565b60006132be82613253565b6132c8818561325e565b93506132d881856020860161326f565b6132e1816132a2565b840191505092915050565b6000602082019050818103600083015261330681846132b3565b905092915050565b6000819050919050565b6133218161330e565b811461332c57600080fd5b50565b60008135905061333e81613318565b92915050565b60006020828403121561335a5761335961318e565b5b60006133688482850161332f565b91505092915050565b600073ffffffffffffffffffffffffffffffffffffffff82169050919050565b600061339c82613371565b9050919050565b6133ac81613391565b82525050565b60006020820190506133c760008301846133a3565b92915050565b6133d68161330e565b82525050565b60006020820190506133f160008301846133cd565b92915050565b61340081613391565b811461340b57600080fd5b50565b60008135905061341d816133f7565b92915050565b6000806040838503121561343a5761343961318e565b5b60006134488582860161340e565b92505060206134598582860161332f565b9150509250929050565b600067ffffffffffffffff82169050919050565b61348081613463565b82525050565b600060208201905061349b6000830184613477565b92915050565b600061ffff82169050919050565b6134b8816134a1565b82525050565b60006020820190506134d360008301846134af565b92915050565b6000806000606084860312156134f2576134f161318e565b5b60006135008682870161340e565b93505060206135118682870161340e565b92505060406135228682870161332f565b9150509250925092565b6000819050919050565b61353f8161352c565b811461354a57600080fd5b50565b60008135905061355c81613536565b92915050565b6000602082840312156135785761357761318e565b5b60006135868482850161354d565b91505092915050565b6135988161352c565b82525050565b60006020820190506135b3600083018461358f565b92915050565b600080604083850312156135d0576135cf61318e565b5b60006135de8582860161354d565b92505060206135ef8582860161340e565b9150509250929050565b600080fd5b600080fd5b7f4e487b7100000000000000000000000000000000000000000000000000000000600052604160045260246000fd5b61363b826132a2565b810181811067ffffffffffffffff8211171561365a57613659613603565b5b80604052505050565b600061366d613184565b90506136798282613632565b919050565b600067ffffffffffffffff82111561369957613698613603565b5b6136a2826132a2565b9050602081019050919050565b82818337600083830152505050565b60006136d16136cc8461367e565b613663565b9050828152602081018484840111156136ed576136ec6135fe565b5b6136f88482856136af565b509392505050565b600082601f830112613715576137146135f9565b5b81356137258482602086016136be565b91505092915050565b6000602082840312156137445761374361318e565b5b600082013567ffffffffffffffff81111561376257613761613193565b5b61376e84828501613700565b91505092915050565b600080fd5b600080fd5b60008083601f840112613797576137966135f9565b5b8235905067ffffffffffffffff8111156137b4576137b3613777565b5b6020830191508360208202830111156137d0576137cf61377c565b5b9250929050565b600080602083850312156137ee576137ed61318e565b5b600083013567ffffffffffffffff81111561380c5761380b613193565b5b61381885828601613781565b92509250509250929050565b60006020828403121561383a5761383961318e565b5b60006138488482850161340e565b91505092915050565b61385a8161321d565b811461386557600080fd5b50565b60008135905061387781613851565b92915050565b600080604083850312156138945761389361318e565b5b60006138a28582860161340e565b92505060206138b385828601613868565b9150509250929050565b600067ffffffffffffffff8211156138d8576138d7613603565b5b6138e1826132a2565b9050602081019050919050565b60006139016138fc846138bd565b613663565b90508281526020810184848401111561391d5761391c6135fe565b5b6139288482856136af565b509392505050565b600082601f830112613945576139446135f9565b5b81356139558482602086016138ee565b91505092915050565b600080600080608085870312156139785761397761318e565b5b60006139868782880161340e565b94505060206139978782880161340e565b93505060406139a88782880161332f565b925050606085013567ffffffffffffffff8111156139c9576139c8613193565b5b6139d587828801613930565b91505092959194509250565b600080604083850312156139f8576139f761318e565b5b6000613a068582860161340e565b9250506020613a178582860161340e565b9150509250929050565b613a2a816134a1565b8114613a3557600080fd5b50565b600081359050613a4781613a21565b92915050565b60008060408385031215613a6457613a6361318e565b5b6000613a728582860161340e565b9250506020613a8385828601613a38565b9150509250929050565b7f4e487b7100000000000000000000000000000000000000000000000000000000600052602260045260246000fd5b60006002820490506001821680613ad457607f821691505b602082108103613ae757613ae6613a8d565b5b50919050565b7f4552433732313a20617070726f76656420717565727920666f72206e6f6e657860008201527f697374656e7420746f6b656e0000000000000000000000000000000000000000602082015250565b6000613b49602c8361325e565b9150613b5482613aed565b604082019050919050565b60006020820190508181036000830152613b7881613b3c565b9050919050565b7f4e487b7100000000000000000000000000000000000000000000000000000000600052601160045260246000fd5b6000613bb98261330e565b9150613bc48361330e565b925082821015613bd757613bd6613b7f565b5b828203905092915050565b60008160f01b9050919050565b6000613bfa82613be2565b9050919050565b613c12613c0d826134a1565b613bef565b82525050565b60008160601b9050919050565b6000613c3082613c18565b9050919050565b6000613c4282613c25565b9050919050565b613c5a613c5582613391565b613c37565b82525050565b6000819050919050565b613c7b613c768261330e565b613c60565b82525050565b6000819050919050565b613c9c613c978261352c565b613c81565b82525050565b6000613cae8287613c01565b600282019150613cbe8286613c49565b601482019150613cce8285613c6a565b602082019150613cde8284613c8b565b60208201915081905095945050505050565b6000613cfb826134a1565b9150613d06836134a1565b92508261ffff03821115613d1d57613d1c613b7f565b5b828201905092915050565b7f6e6f205f7465616d496473206c65667400000000000000000000000000000000600082015250565b6000613d5e60108361325e565b9150613d6982613d28565b602082019050919050565b60006020820190508181036000830152613d8d81613d51565b9050919050565b7f4e487b7100000000000000000000000000000000000000000000000000000000600052601260045260246000fd5b6000613dce8261330e565b9150613dd98361330e565b925082613de957613de8613d94565b5b828206905092915050565b7f4e487b7100000000000000000000000000000000000000000000000000000000600052603260045260246000fd5b6000613e2e8261330e565b9150613e398361330e565b9250827fffffffffffffffffffffffffffffffffffffffffffffffffffffffffffffffff03821115613e6e57613e6d613b7f565b5b828201905092915050565b7f4552433732313a20617070726f76616c20746f2063757272656e74206f776e6560008201527f7200000000000000000000000000000000000000000000000000000000000000602082015250565b6000613ed560218361325e565b9150613ee082613e79565b604082019050919050565b60006020820190508181036000830152613f0481613ec8565b9050919050565b7f4552433732313a20617070726f76652063616c6c6572206973206e6f74206f7760008201527f6e6572206e6f7220617070726f76656420666f7220616c6c0000000000000000602082015250565b6000613f6760388361325e565b9150613f7282613f0b565b604082019050919050565b60006020820190508181036000830152613f9681613f5a565b9050919050565b7f5055424c49435f53414c455f494e414354495645000000000000000000000000600082015250565b6000613fd360148361325e565b9150613fde82613f9d565b602082019050919050565b6000602082019050818103600083015261400281613fc6565b9050919050565b600060ff82169050919050565b600061402182614009565b915061402c83614009565b92508260ff0382111561404257614041613b7f565b5b828201905092915050565b7f5055424c49435f544f4b454e5f4c494d49540000000000000000000000000000600082015250565b600061408360128361325e565b915061408e8261404d565b602082019050919050565b600060208201905081810360008301526140b281614076565b9050919050565b7f455843454544535f434f4c4c454354494f4e5f53495a45000000000000000000600082015250565b60006140ef60178361325e565b91506140fa826140b9565b602082019050919050565b6000602082019050818103600083015261411e816140e2565b9050919050565b7f4552433732313a207472616e736665722063616c6c6572206973206e6f74206f60008201527f776e6572206e6f7220617070726f766564000000000000000000000000000000602082015250565b600061418160318361325e565b915061418c82614125565b604082019050919050565b600060208201905081810360008301526141b081614174565b9050919050565b7f4d75737420626520616e2061646d696e00000000000000000000000000000000600082015250565b60006141ed60108361325e565b91506141f8826141b7565b602082019050919050565b6000602082019050818103600083015261421c816141e0565b9050919050565b7f416363657373436f6e74726f6c3a2063616e206f6e6c792072656e6f756e636560008201527f20726f6c657320666f722073656c660000000000000000000000000000000000602082015250565b600061427f602f8361325e565b915061428a82614223565b604082019050919050565b600060208201905081810360008301526142ae81614272565b9050919050565b7f50524553414c455f494e41435449564500000000000000000000000000000000600082015250565b60006142eb60108361325e565b91506142f6826142b5565b602082019050919050565b6000602082019050818103600083015261431a816142de565b9050919050565b7f50524553414c455f4e4f545f5645524946494544000000000000000000000000600082015250565b600061435760148361325e565b915061436282614321565b602082019050919050565b600060208201905081810360008301526143868161434a565b9050919050565b7f57484954454c4953545f544f4b454e5f434c41494d4544000000000000000000600082015250565b60006143c360178361325e565b91506143ce8261438d565b602082019050919050565b600060208201905081810360008301526143f2816143b6565b9050919050565b7f4552433732313a206f776e657220717565727920666f72206e6f6e657869737460008201527f656e7420746f6b656e0000000000000000000000000000000000000000000000602082015250565b600061445560298361325e565b9150614460826143f9565b604082019050919050565b6000602082019050818103600083015261448481614448565b9050919050565b7f6e6f205f636f6d6d756e697479496473206c6566740000000000000000000000600082015250565b60006144c160158361325e565b91506144cc8261448b565b602082019050919050565b600060208201905081810360008301526144f0816144b4565b9050919050565b7f4552433732313a2062616c616e636520717565727920666f7220746865207a6560008201527f726f206164647265737300000000000000000000000000000000000000000000602082015250565b6000614553602a8361325e565b915061455e826144f7565b604082019050919050565b6000602082019050818103600083015261458281614546565b9050919050565b7f494e56414c49445f494400000000000000000000000000000000000000000000600082015250565b60006145bf600a8361325e565b91506145ca82614589565b602082019050919050565b600060208201905081810360008301526145ee816145b2565b9050919050565b600081905092915050565b600061460b82613253565b61461581856145f5565b935061462581856020860161326f565b80840191505092915050565b7f2e6a736f6e000000000000000000000000000000000000000000000000000000600082015250565b60006146676005836145f5565b915061467282614631565b600582019050919050565b60006146898285614600565b91506146958284614600565b91506146a08261465a565b91508190509392505050565b7f41697264726f70206c696d697420726561636865640000000000000000000000600082015250565b60006146e260158361325e565b91506146ed826146ac565b602082019050919050565b60006020820190508181036000830152614711816146d5565b9050919050565b6000614723826134a1565b915061ffff820361473757614736613b7f565b5b600182019050919050565b7f4552433732313a206f70657261746f7220717565727920666f72206e6f6e657860008201527f697374656e7420746f6b656e0000000000000000000000000000000000000000602082015250565b600061479e602c8361325e565b91506147a982614742565b604082019050919050565b600060208201905081810360008301526147cd81614791565b9050919050565b7f4552433732313a207472616e73666572206f6620746f6b656e2074686174206960008201527f73206e6f74206f776e0000000000000000000000000000000000000000000000602082015250565b600061483060298361325e565b915061483b826147d4565b604082019050919050565b6000602082019050818103600083015261485f81614823565b9050919050565b7f4552433732313a207472616e7366657220746f20746865207a65726f2061646460008201527f7265737300000000000000000000000000000000000000000000000000000000602082015250565b60006148c260248361325e565b91506148cd82614866565b604082019050919050565b600060208201905081810360008301526148f1816148b5565b9050919050565b7f416363657373436f6e74726f6c3a206163636f756e7420000000000000000000600082015250565b600061492e6017836145f5565b9150614939826148f8565b601782019050919050565b7f206973206d697373696e6720726f6c6520000000000000000000000000000000600082015250565b600061497a6011836145f5565b915061498582614944565b601182019050919050565b600061499b82614921565b91506149a78285614600565b91506149b28261496d565b91506149be8284614600565b91508190509392505050565b60006149d68284613c49565b60148201915081905092915050565b7f4552433732313a20617070726f766520746f2063616c6c657200000000000000600082015250565b6000614a1b60198361325e565b9150614a26826149e5565b602082019050919050565b60006020820190508181036000830152614a4a81614a0e565b9050919050565b7f4552433732313a207472616e7366657220746f206e6f6e20455243373231526560008201527f63656976657220696d706c656d656e7465720000000000000000000000000000602082015250565b6000614aad60328361325e565b9150614ab882614a51565b604082019050919050565b60006020820190508181036000830152614adc81614aa0565b9050919050565b6000614aee8261330e565b91507fffffffffffffffffffffffffffffffffffffffffffffffffffffffffffffffff8203614b2057614b1f613b7f565b5b600182019050919050565b6000614b368261330e565b9150614b418361330e565b925082614b5157614b50613d94565b5b828204905092915050565b6000614b678261330e565b9150614b728361330e565b9250817fffffffffffffffffffffffffffffffffffffffffffffffffffffffffffffffff0483118215151615614bab57614baa613b7f565b5b828202905092915050565b6000614bc18261330e565b915060008203614bd457614bd3613b7f565b5b600182039050919050565b7f537472696e67733a20686578206c656e67746820696e73756666696369656e74600082015250565b6000614c1560208361325e565b9150614c2082614bdf565b602082019050919050565b60006020820190508181036000830152614c4481614c08565b9050919050565b600081519050919050565b600082825260208201905092915050565b6000614c7282614c4b565b614c7c8185614c56565b9350614c8c81856020860161326f565b614c95816132a2565b840191505092915050565b6000608082019050614cb560008301876133a3565b614cc260208301866133a3565b614ccf60408301856133cd565b8181036060830152614ce18184614c67565b905095945050505050565b600081519050614cfb816131c4565b92915050565b600060208284031215614d1757614d1661318e565b5b6000614d2584828501614cec565b91505092915050565b7f4552433732313a206d696e7420746f20746865207a65726f2061646472657373600082015250565b6000614d6460208361325e565b9150614d6f82614d2e565b602082019050919050565b60006020820190508181036000830152614d9381614d57565b9050919050565b7f4552433732313a20746f6b656e20616c7265616479206d696e74656400000000600082015250565b6000614dd0601c8361325e565b9150614ddb82614d9a565b602082019050919050565b60006020820190508181036000830152614dff81614dc3565b9050919050565b6000614e128285613c8b565b602082019150614e228284613c8b565b602082019150819050939250505056fea26469706673582212208b5cb56fa82bc177954317b920197edfebe26f9ffa4f9f23a2eadd942a521ce364736f6c634300080d0033",
  "linkReferences": {},
  "deployedLinkReferences": {}
}