{
  "_format": "hh-sol-artifact-1",
  "contractName": "FifthDimensionMock",
  "sourceName": "contracts/mocks/FifthDimensionMock.sol",
  "abi": [
    {
      "inputs": [
        {
          "internalType": "uint64",
          "name": "_whitelistStart",
          "type": "uint64"
        },
        {
          "internalType": "uint64",
          "name": "_whitelistEnd",
          "type": "uint64"
        },
        {
          "internalType": "uint64",
          "name": "_publicStart",
          "type": "uint64"
        },
        {
          "internalType": "uint64",
          "name": "_publicEnd",
          "type": "uint64"
        },
        {
          "internalType": "bytes32",
          "name": "whitelistMerkleRoot",
          "type": "bytes32"
        },
        {
          "internalType": "string",
          "name": "name",
          "type": "string"
        },
        {
          "internalType": "string",
          "name": "symbol",
          "type": "string"
        },
        {
          "internalType": "string",
          "name": "tempUri",
          "type": "string"
        }
      ],
      "stateMutability": "nonpayable",
      "type": "constructor"
    },
    {
      "anonymous": false,
      "inputs": [
        {
          "indexed": true,
          "internalType": "address",
          "name": "owner",
          "type": "address"
        },
        {
          "indexed": true,
          "internalType": "address",
          "name": "approved",
          "type": "address"
        },
        {
          "indexed": true,
          "internalType": "uint256",
          "name": "tokenId",
          "type": "uint256"
        }
      ],
      "name": "Approval",
      "type": "event"
    },
    {
      "anonymous": false,
      "inputs": [
        {
          "indexed": true,
          "internalType": "address",
          "name": "owner",
          "type": "address"
        },
        {
          "indexed": true,
          "internalType": "address",
          "name": "operator",
          "type": "address"
        },
        {
          "indexed": false,
          "internalType": "bool",
          "name": "approved",
          "type": "bool"
        }
      ],
      "name": "ApprovalForAll",
      "type": "event"
    },
    {
      "anonymous": false,
      "inputs": [
        {
          "indexed": true,
          "internalType": "bytes32",
          "name": "role",
          "type": "bytes32"
        },
        {
          "indexed": true,
          "internalType": "bytes32",
          "name": "previousAdminRole",
          "type": "bytes32"
        },
        {
          "indexed": true,
          "internalType": "bytes32",
          "name": "newAdminRole",
          "type": "bytes32"
        }
      ],
      "name": "RoleAdminChanged",
      "type": "event"
    },
    {
      "anonymous": false,
      "inputs": [
        {
          "indexed": true,
          "internalType": "bytes32",
          "name": "role",
          "type": "bytes32"
        },
        {
          "indexed": true,
          "internalType": "address",
          "name": "account",
          "type": "address"
        },
        {
          "indexed": true,
          "internalType": "address",
          "name": "sender",
          "type": "address"
        }
      ],
      "name": "RoleGranted",
      "type": "event"
    },
    {
      "anonymous": false,
      "inputs": [
        {
          "indexed": true,
          "internalType": "bytes32",
          "name": "role",
          "type": "bytes32"
        },
        {
          "indexed": true,
          "internalType": "address",
          "name": "account",
          "type": "address"
        },
        {
          "indexed": true,
          "internalType": "address",
          "name": "sender",
          "type": "address"
        }
      ],
      "name": "RoleRevoked",
      "type": "event"
    },
    {
      "anonymous": false,
      "inputs": [
        {
          "indexed": false,
          "internalType": "uint256",
          "name": "tokenId",
          "type": "uint256"
        }
      ],
      "name": "TokenId",
      "type": "event"
    },
    {
      "anonymous": false,
      "inputs": [
        {
          "indexed": true,
          "internalType": "address",
          "name": "from",
          "type": "address"
        },
        {
          "indexed": true,
          "internalType": "address",
          "name": "to",
          "type": "address"
        },
        {
          "indexed": true,
          "internalType": "uint256",
          "name": "tokenId",
          "type": "uint256"
        }
      ],
      "name": "Transfer",
      "type": "event"
    },
    {
      "inputs": [],
      "name": "ADMIN_ROLE",
      "outputs": [
        {
          "internalType": "bytes32",
          "name": "",
          "type": "bytes32"
        }
      ],
      "stateMutability": "view",
      "type": "function"
    },
    {
      "inputs": [],
      "name": "DEFAULT_ADMIN_ROLE",
      "outputs": [
        {
          "internalType": "bytes32",
          "name": "",
          "type": "bytes32"
        }
      ],
      "stateMutability": "view",
      "type": "function"
    },
    {
      "inputs": [],
      "name": "MOD_ROLE",
      "outputs": [
        {
          "internalType": "bytes32",
          "name": "",
          "type": "bytes32"
        }
      ],
      "stateMutability": "view",
      "type": "function"
    },
    {
      "inputs": [
        {
          "internalType": "address",
          "name": "to",
          "type": "address"
        },
        {
          "internalType": "uint16",
          "name": "quantity",
          "type": "uint16"
        }
      ],
      "name": "airdrop",
      "outputs": [],
      "stateMutability": "nonpayable",
      "type": "function"
    },
    {
      "inputs": [
        {
          "internalType": "address",
          "name": "to",
          "type": "address"
        },
        {
          "internalType": "uint256",
          "name": "tokenId",
          "type": "uint256"
        }
      ],
      "name": "approve",
      "outputs": [],
      "stateMutability": "nonpayable",
      "type": "function"
    },
    {
      "inputs": [
        {
          "internalType": "address",
          "name": "owner",
          "type": "address"
        }
      ],
      "name": "balanceOf",
      "outputs": [
        {
          "internalType": "uint256",
          "name": "",
          "type": "uint256"
        }
      ],
      "stateMutability": "view",
      "type": "function"
    },
    {
      "inputs": [
        {
          "internalType": "uint256",
          "name": "tokenId",
          "type": "uint256"
        }
      ],
      "name": "getApproved",
      "outputs": [
        {
          "internalType": "address",
          "name": "",
          "type": "address"
        }
      ],
      "stateMutability": "view",
      "type": "function"
    },
    {
      "inputs": [
        {
          "internalType": "bytes32",
          "name": "role",
          "type": "bytes32"
        }
      ],
      "name": "getRoleAdmin",
      "outputs": [
        {
          "internalType": "bytes32",
          "name": "",
          "type": "bytes32"
        }
      ],
      "stateMutability": "view",
      "type": "function"
    },
    {
      "inputs": [
        {
          "internalType": "bytes32",
          "name": "role",
          "type": "bytes32"
        },
        {
          "internalType": "address",
          "name": "account",
          "type": "address"
        }
      ],
      "name": "grantRole",
      "outputs": [],
      "stateMutability": "nonpayable",
      "type": "function"
    },
    {
      "inputs": [
        {
          "internalType": "bytes32",
          "name": "role",
          "type": "bytes32"
        },
        {
          "internalType": "address",
          "name": "account",
          "type": "address"
        }
      ],
      "name": "hasRole",
      "outputs": [
        {
          "internalType": "bool",
          "name": "",
          "type": "bool"
        }
      ],
      "stateMutability": "view",
      "type": "function"
    },
    {
      "inputs": [
        {
          "internalType": "address",
          "name": "owner",
          "type": "address"
        },
        {
          "internalType": "address",
          "name": "operator",
          "type": "address"
        }
      ],
      "name": "isApprovedForAll",
      "outputs": [
        {
          "internalType": "bool",
          "name": "",
          "type": "bool"
        }
      ],
      "stateMutability": "view",
      "type": "function"
    },
    {
      "inputs": [],
      "name": "isPublicSaleActive",
      "outputs": [
        {
          "internalType": "bool",
          "name": "",
          "type": "bool"
        }
      ],
      "stateMutability": "view",
      "type": "function"
    },
    {
      "inputs": [],
      "name": "isWhitelistSaleActive",
      "outputs": [
        {
          "internalType": "bool",
          "name": "",
          "type": "bool"
        }
      ],
      "stateMutability": "view",
      "type": "function"
    },
    {
      "inputs": [],
      "name": "mint",
      "outputs": [],
      "stateMutability": "nonpayable",
      "type": "function"
    },
    {
      "inputs": [],
      "name": "name",
      "outputs": [
        {
          "internalType": "string",
          "name": "",
          "type": "string"
        }
      ],
      "stateMutability": "view",
      "type": "function"
    },
    {
      "inputs": [
        {
          "internalType": "bool",
          "name": "publicSale",
          "type": "bool"
        },
        {
          "internalType": "bool",
          "name": "privateSale",
          "type": "bool"
        }
      ],
      "name": "overrideSales",
      "outputs": [],
      "stateMutability": "nonpayable",
      "type": "function"
    },
    {
      "inputs": [
        {
          "internalType": "uint256",
          "name": "tokenId",
          "type": "uint256"
        }
      ],
      "name": "ownerOf",
      "outputs": [
        {
          "internalType": "address",
          "name": "",
          "type": "address"
        }
      ],
      "stateMutability": "view",
      "type": "function"
    },
    {
      "inputs": [],
      "name": "pickRandomCommunityUniqueId",
      "outputs": [
        {
          "internalType": "uint256",
          "name": "id",
          "type": "uint256"
        }
      ],
      "stateMutability": "nonpayable",
      "type": "function"
    },
    {
      "inputs": [],
      "name": "pickRandomTeamUniqueId",
      "outputs": [
        {
          "internalType": "uint256",
          "name": "id",
          "type": "uint256"
        }
      ],
      "stateMutability": "nonpayable",
      "type": "function"
    },
    {
      "inputs": [],
      "name": "publicEnd",
      "outputs": [
        {
          "internalType": "uint64",
          "name": "",
          "type": "uint64"
        }
      ],
      "stateMutability": "view",
      "type": "function"
    },
    {
      "inputs": [],
      "name": "publicStart",
      "outputs": [
        {
          "internalType": "uint64",
          "name": "",
          "type": "uint64"
        }
      ],
      "stateMutability": "view",
      "type": "function"
    },
    {
      "inputs": [
        {
          "internalType": "bytes32",
          "name": "role",
          "type": "bytes32"
        },
        {
          "internalType": "address",
          "name": "account",
          "type": "address"
        }
      ],
      "name": "renounceRole",
      "outputs": [],
      "stateMutability": "nonpayable",
      "type": "function"
    },
    {
      "inputs": [],
      "name": "revealed",
      "outputs": [
        {
          "internalType": "bool",
          "name": "",
          "type": "bool"
        }
      ],
      "stateMutability": "view",
      "type": "function"
    },
    {
      "inputs": [
        {
          "internalType": "bytes32",
          "name": "role",
          "type": "bytes32"
        },
        {
          "internalType": "address",
          "name": "account",
          "type": "address"
        }
      ],
      "name": "revokeRole",
      "outputs": [],
      "stateMutability": "nonpayable",
      "type": "function"
    },
    {
      "inputs": [
        {
          "internalType": "address",
          "name": "from",
          "type": "address"
        },
        {
          "internalType": "address",
          "name": "to",
          "type": "address"
        },
        {
          "internalType": "uint256",
          "name": "tokenId",
          "type": "uint256"
        }
      ],
      "name": "safeTransferFrom",
      "outputs": [],
      "stateMutability": "nonpayable",
      "type": "function"
    },
    {
      "inputs": [
        {
          "internalType": "address",
          "name": "from",
          "type": "address"
        },
        {
          "internalType": "address",
          "name": "to",
          "type": "address"
        },
        {
          "internalType": "uint256",
          "name": "tokenId",
          "type": "uint256"
        },
        {
          "internalType": "bytes",
          "name": "_data",
          "type": "bytes"
        }
      ],
      "name": "safeTransferFrom",
      "outputs": [],
      "stateMutability": "nonpayable",
      "type": "function"
    },
    {
      "inputs": [
        {
          "internalType": "address",
          "name": "operator",
          "type": "address"
        },
        {
          "internalType": "bool",
          "name": "approved",
          "type": "bool"
        }
      ],
      "name": "setApprovalForAll",
      "outputs": [],
      "stateMutability": "nonpayable",
      "type": "function"
    },
    {
      "inputs": [
        {
          "internalType": "string",
          "name": "baseUri",
          "type": "string"
        }
      ],
      "name": "setBaseURI",
      "outputs": [],
      "stateMutability": "nonpayable",
      "type": "function"
    },
    {
      "inputs": [
        {
          "internalType": "string",
          "name": "tempUri",
          "type": "string"
        }
      ],
      "name": "setPlaceholderURI",
      "outputs": [],
      "stateMutability": "nonpayable",
      "type": "function"
    },
    {
      "inputs": [
        {
          "internalType": "bytes4",
          "name": "interfaceId",
          "type": "bytes4"
        }
      ],
      "name": "supportsInterface",
      "outputs": [
        {
          "internalType": "bool",
          "name": "",
          "type": "bool"
        }
      ],
      "stateMutability": "view",
      "type": "function"
    },
    {
      "inputs": [],
      "name": "symbol",
      "outputs": [
        {
          "internalType": "string",
          "name": "",
          "type": "string"
        }
      ],
      "stateMutability": "view",
      "type": "function"
    },
    {
      "inputs": [],
      "name": "toggleReveal",
      "outputs": [],
      "stateMutability": "nonpayable",
      "type": "function"
    },
    {
      "inputs": [
        {
          "internalType": "uint256",
          "name": "id",
          "type": "uint256"
        }
      ],
      "name": "tokenURI",
      "outputs": [
        {
          "internalType": "string",
          "name": "",
          "type": "string"
        }
      ],
      "stateMutability": "view",
      "type": "function"
    },
    {
      "inputs": [],
      "name": "totalSupply",
      "outputs": [
        {
          "internalType": "uint16",
          "name": "",
          "type": "uint16"
        }
      ],
      "stateMutability": "view",
      "type": "function"
    },
    {
      "inputs": [
        {
          "internalType": "address",
          "name": "from",
          "type": "address"
        },
        {
          "internalType": "address",
          "name": "to",
          "type": "address"
        },
        {
          "internalType": "uint256",
          "name": "tokenId",
          "type": "uint256"
        }
      ],
      "name": "transferFrom",
      "outputs": [],
      "stateMutability": "nonpayable",
      "type": "function"
    },
    {
      "inputs": [],
      "name": "whitelistEnd",
      "outputs": [
        {
          "internalType": "uint64",
          "name": "",
          "type": "uint64"
        }
      ],
      "stateMutability": "view",
      "type": "function"
    },
    {
      "inputs": [
        {
          "internalType": "bytes32[]",
          "name": "_merkleProof",
          "type": "bytes32[]"
        }
      ],
      "name": "whitelistMint",
      "outputs": [],
      "stateMutability": "nonpayable",
      "type": "function"
    },
    {
      "inputs": [],
      "name": "whitelistStart",
      "outputs": [
        {
          "internalType": "uint64",
          "name": "",
          "type": "uint64"
        }
      ],
      "stateMutability": "view",
      "type": "function"
    }
  ],
  "bytecode": "0x60806040527fa49807205ce4d355092ef5a8a18f56e8913cf4a201fbe287825b095693c217756007557f950b8f2d7415defaee398bb4898e8e094a64c725873b81952b7ab9f08d70efb36008553480156200005957600080fd5b50604051620059273803806200592783398181016040528101906200007f9190620007c6565b8282816000908051906020019062000099929190620004f9565b508060019080519060200190620000b2929190620004f9565b5050508360098190555080600d9080519060200190620000d4929190620004f9565b506000429050808967ffffffffffffffff161162000129576040517f08c379a000000000000000000000000000000000000000000000000000000000815260040162000120906200094d565b60405180910390fd5b808867ffffffffffffffff161180156200016c5750603360089054906101000a900467ffffffffffffffff1667ffffffffffffffff168867ffffffffffffffff16115b620001ae576040517f08c379a0000000000000000000000000000000000000000000000000000000008152600401620001a590620009bf565b60405180910390fd5b88603360086101000a81548167ffffffffffffffff021916908367ffffffffffffffff16021790555087603360106101000a81548167ffffffffffffffff021916908367ffffffffffffffff160217905550808767ffffffffffffffff161180156200022e57508767ffffffffffffffff168767ffffffffffffffff1610155b62000270576040517f08c379a0000000000000000000000000000000000000000000000000000000008152600401620002679062000a31565b60405180910390fd5b808667ffffffffffffffff161180156200029d57508667ffffffffffffffff168667ffffffffffffffff16115b620002df576040517f08c379a0000000000000000000000000000000000000000000000000000000008152600401620002d69062000aa3565b60405180910390fd5b86603360186101000a81548167ffffffffffffffff021916908367ffffffffffffffff16021790555085603460006101000a81548167ffffffffffffffff021916908367ffffffffffffffff1602179055506000620003436200037e60201b60201c565b90506200035a6000801b826200038660201b60201c565b6200036e600754826200038660201b60201c565b5050505050505050505062000b29565b600033905090565b6200039882826200039c60201b60201c565b5050565b620003ae82826200048e60201b60201c565b6200048a5760016006600084815260200190815260200160002060000160008373ffffffffffffffffffffffffffffffffffffffff1673ffffffffffffffffffffffffffffffffffffffff16815260200190815260200160002060006101000a81548160ff0219169083151502179055506200042f6200037e60201b60201c565b73ffffffffffffffffffffffffffffffffffffffff168173ffffffffffffffffffffffffffffffffffffffff16837f2f8788117e7eff1d82e926ec794901d17c78024a50270940304540a733656f0d60405160405180910390a45b5050565b60006006600084815260200190815260200160002060000160008373ffffffffffffffffffffffffffffffffffffffff1673ffffffffffffffffffffffffffffffffffffffff16815260200190815260200160002060009054906101000a900460ff16905092915050565b828054620005079062000af4565b90600052602060002090601f0160209004810192826200052b576000855562000577565b82601f106200054657805160ff191683800117855562000577565b8280016001018555821562000577579182015b828111156200057657825182559160200191906001019062000559565b5b5090506200058691906200058a565b5090565b5b80821115620005a55760008160009055506001016200058b565b5090565b6000604051905090565b600080fd5b600080fd5b600067ffffffffffffffff82169050919050565b620005dc81620005bd565b8114620005e857600080fd5b50565b600081519050620005fc81620005d1565b92915050565b6000819050919050565b620006178162000602565b81146200062357600080fd5b50565b60008151905062000637816200060c565b92915050565b600080fd5b600080fd5b6000601f19601f8301169050919050565b7f4e487b7100000000000000000000000000000000000000000000000000000000600052604160045260246000fd5b620006928262000647565b810181811067ffffffffffffffff82111715620006b457620006b362000658565b5b80604052505050565b6000620006c9620005a9565b9050620006d7828262000687565b919050565b600067ffffffffffffffff821115620006fa57620006f962000658565b5b620007058262000647565b9050602081019050919050565b60005b838110156200073257808201518184015260208101905062000715565b8381111562000742576000848401525b50505050565b60006200075f6200075984620006dc565b620006bd565b9050828152602081018484840111156200077e576200077d62000642565b5b6200078b84828562000712565b509392505050565b600082601f830112620007ab57620007aa6200063d565b5b8151620007bd84826020860162000748565b91505092915050565b600080600080600080600080610100898b031215620007ea57620007e9620005b3565b5b6000620007fa8b828c01620005eb565b98505060206200080d8b828c01620005eb565b9750506040620008208b828c01620005eb565b9650506060620008338b828c01620005eb565b9550506080620008468b828c0162000626565b94505060a089015167ffffffffffffffff8111156200086a5762000869620005b8565b5b620008788b828c0162000793565b93505060c089015167ffffffffffffffff8111156200089c576200089b620005b8565b5b620008aa8b828c0162000793565b92505060e089015167ffffffffffffffff811115620008ce57620008cd620005b8565b5b620008dc8b828c0162000793565b9150509295985092959890939650565b600082825260208201905092915050565b7f57726f6e672077686974656c6973742073746172740000000000000000000000600082015250565b600062000935601583620008ec565b91506200094282620008fd565b602082019050919050565b60006020820190508181036000830152620009688162000926565b9050919050565b7f57726f6e672077686974656c69737420656e6400000000000000000000000000600082015250565b6000620009a7601383620008ec565b9150620009b4826200096f565b602082019050919050565b60006020820190508181036000830152620009da8162000998565b9050919050565b7f57726f6e67207075626c69632073746172740000000000000000000000000000600082015250565b600062000a19601283620008ec565b915062000a2682620009e1565b602082019050919050565b6000602082019050818103600083015262000a4c8162000a0a565b9050919050565b7f57726f6e67207075626c696320656e6400000000000000000000000000000000600082015250565b600062000a8b601083620008ec565b915062000a988262000a53565b602082019050919050565b6000602082019050818103600083015262000abe8162000a7c565b9050919050565b7f4e487b7100000000000000000000000000000000000000000000000000000000600052602260045260246000fd5b6000600282049050600182168062000b0d57607f821691505b60208210810362000b235762000b2262000ac5565b5b50919050565b614dee8062000b396000396000f3fe608060405234801561001057600080fd5b50600436106102325760003560e01c80635b8ad42911610130578063a22cb465116100b8578063c87b56dd1161007c578063c87b56dd14610643578063d547741f14610673578063e932406f1461068f578063e985e9c5146106ad578063ec8d130b146106dd57610232565b8063a22cb465146105b1578063a5f4c6ff146105cd578063b88d4fde146105eb578063b98451cf14610607578063bfb6e0e71461062557610232565b806375b238fc116100ff57806375b238fc1461050957806391d148541461052757806395d89b4114610557578063994d396914610575578063a217fddf1461059357610232565b80635b8ad429146104815780636352211e1461048b5780636f09bebe146104bb57806370a08231146104d957610232565b806323b872dd116101be578063372f657c11610182578063372f657c146103f357806342842e0e1461040f578063518302271461042b57806355f804b3146104495780635b010e431461046557610232565b806323b872dd14610353578063248a9ca31461036f5780632f2ff15d1461039f5780633574a2dd146103bb57806336568abe146103d757610232565b8063095ea7b311610205578063095ea7b3146102d35780630acae9a7146102ef5780631249c58b1461030d57806318160ddd146103175780631e84c4131461033557610232565b806301ffc9a71461023757806306fdde0314610267578063081812fc14610285578063093f66d1146102b5575b600080fd5b610251600480360381019061024c919061320e565b6106f9565b60405161025e9190613256565b60405180910390f35b61026f61070b565b60405161027c919061330a565b60405180910390f35b61029f600480360381019061029a9190613362565b61079d565b6040516102ac91906133d0565b60405180910390f35b6102bd610822565b6040516102ca91906133fa565b60405180910390f35b6102ed60048036038101906102e89190613441565b610afc565b005b6102f7610c13565b60405161030491906134a4565b60405180910390f35b610315610c2d565b005b61031f610de0565b60405161032c91906134dc565b60405180910390f35b61033d610e13565b60405161034a9190613256565b60405180910390f35b61036d600480360381019061036891906134f7565b610e7f565b005b61038960048036038101906103849190613580565b610edf565b60405161039691906135bc565b60405180910390f35b6103b960048036038101906103b491906135d7565b610eff565b005b6103d560048036038101906103d0919061374c565b610f28565b005b6103f160048036038101906103ec91906135d7565b610fae565b005b61040d600480360381019061040891906137f5565b611031565b005b610429600480360381019061042491906134f7565b611203565b005b610433611223565b6040516104409190613256565b60405180910390f35b610463600480360381019061045e919061374c565b611236565b005b61047f600480360381019061047a919061386e565b6112bc565b005b610489611360565b005b6104a560048036038101906104a09190613362565b6113f8565b6040516104b291906133d0565b60405180910390f35b6104c36114a9565b6040516104d091906133fa565b60405180910390f35b6104f360048036038101906104ee91906138ae565b61178a565b60405161050091906133fa565b60405180910390f35b610511611841565b60405161051e91906135bc565b60405180910390f35b610541600480360381019061053c91906135d7565b611847565b60405161054e9190613256565b60405180910390f35b61055f6118b2565b60405161056c919061330a565b60405180910390f35b61057d611944565b60405161058a91906134a4565b60405180910390f35b61059b61195e565b6040516105a891906135bc565b60405180910390f35b6105cb60048036038101906105c691906138db565b611965565b005b6105d561197b565b6040516105e291906134a4565b60405180910390f35b610605600480360381019061060091906139bc565b611995565b005b61060f6119f7565b60405161061c9190613256565b60405180910390f35b61062d611a63565b60405161063a91906134a4565b60405180910390f35b61065d60048036038101906106589190613362565b611a7d565b60405161066a919061330a565b60405180910390f35b61068d600480360381019061068891906135d7565b611ba4565b005b610697611bcd565b6040516106a491906135bc565b60405180910390f35b6106c760048036038101906106c29190613a3f565b611bd3565b6040516106d49190613256565b60405180910390f35b6106f760048036038101906106f29190613aab565b611c67565b005b600061070482611d48565b9050919050565b60606000805461071a90613b1a565b80601f016020809104026020016040519081016040528092919081815260200182805461074690613b1a565b80156107935780601f1061076857610100808354040283529160200191610793565b820191906000526020600020905b81548152906001019060200180831161077657829003601f168201915b5050505050905090565b60006107a882611dc2565b6107e7576040517f08c379a00000000000000000000000000000000000000000000000000000000081526004016107de90613bbd565b60405180910390fd5b6004600083815260200190815260200160002060009054906101000a900473ffffffffffffffffffffffffffffffffffffffff169050919050565b600080603360029054906101000a900461ffff1633426001436108459190613c0c565b406040516020016108599493929190613d00565b6040516020818303038152906040528051906020012060001c90506000603360029054906101000a900461ffff1661ffff1660376108979190613c0c565b90506001603360028282829054906101000a900461ffff166108b99190613d4e565b92506101000a81548161ffff021916908361ffff16021790555060008111610916576040517f08c379a000000000000000000000000000000000000000000000000000000000815260040161090d90613dd2565b60405180910390fd5b600081836109249190613e21565b90506000602f826037811061093c5761093b613e52565b5b601091828204019190066002029054906101000a900461ffff1661ffff16036109655780610998565b602f816037811061097957610978613e52565b5b601091828204019190066002029054906101000a900461ffff1661ffff165b93506001846109a79190613e81565b93506000602f6001846109ba9190613c0c565b603781106109cb576109ca613e52565b5b601091828204019190066002029054906101000a900461ffff1661ffff1614610a3157602f6001836109fd9190613c0c565b60378110610a0e57610a0d613e52565b5b601091828204019190066002029054906101000a900461ffff1661ffff16610a3f565b600182610a3e9190613c0c565b5b602f8260378110610a5357610a52613e52565b5b601091828204019190066002026101000a81548161ffff021916908361ffff1602179055506000602f600184610a899190613c0c565b60378110610a9a57610a99613e52565b5b601091828204019190066002026101000a81548161ffff021916908361ffff1602179055507fa4e8e12e12124dbefe84fada6e584fcfaf4862f3b8284a8174f89be901ec4d7d84604051610aee91906133fa565b60405180910390a150505090565b6000610b07826113f8565b90508073ffffffffffffffffffffffffffffffffffffffff168373ffffffffffffffffffffffffffffffffffffffff1603610b77576040517f08c379a0000000000000000000000000000000000000000000000000000000008152600401610b6e90613f49565b60405180910390fd5b8073ffffffffffffffffffffffffffffffffffffffff16610b96611e2e565b73ffffffffffffffffffffffffffffffffffffffff161480610bc55750610bc481610bbf611e2e565b611bd3565b5b610c04576040517f08c379a0000000000000000000000000000000000000000000000000000000008152600401610bfb90613fdb565b60405180910390fd5b610c0e8383611e36565b505050565b603460009054906101000a900467ffffffffffffffff1681565b610c35610e13565b610c74576040517f08c379a0000000000000000000000000000000000000000000000000000000008152600401610c6b90614047565b60405180910390fd5b6000610c7e611e2e565b90506001600b60008373ffffffffffffffffffffffffffffffffffffffff1673ffffffffffffffffffffffffffffffffffffffff16815260200190815260200160002060008282829054906101000a900460ff16610cdc9190614074565b92506101000a81548160ff021916908360ff160217905550600261ffff16600b60008373ffffffffffffffffffffffffffffffffffffffff1673ffffffffffffffffffffffffffffffffffffffff16815260200190815260200160002060009054906101000a900460ff1660ff161115610d8b576040517f08c379a0000000000000000000000000000000000000000000000000000000008152600401610d82906140f7565b60405180910390fd5b6001603360068282829054906101000a900461ffff16610dab9190613d4e565b92506101000a81548161ffff021916908361ffff160217905550610ddd610dd0611e2e565b610dd86114a9565b611eef565b50565b6000603360069054906101000a900461ffff16603360049054906101000a900461ffff16610e0e9190613d4e565b905090565b6000600e60029054906101000a900460ff1680610e7a5750603360189054906101000a900467ffffffffffffffff1667ffffffffffffffff1642118015610e795750603460009054906101000a900467ffffffffffffffff1667ffffffffffffffff1642105b5b905090565b610e90610e8a611e2e565b82611f0d565b610ecf576040517f08c379a0000000000000000000000000000000000000000000000000000000008152600401610ec690614189565b60405180910390fd5b610eda838383611feb565b505050565b600060066000838152602001908152602001600020600101549050919050565b610f0882610edf565b610f1981610f14611e2e565b612246565b610f2383836122e3565b505050565b6000610f32611e2e565b9050610f416000801b82611847565b80610f545750610f5360075482611847565b5b610f93576040517f08c379a0000000000000000000000000000000000000000000000000000000008152600401610f8a906141f5565b60405180910390fd5b81600d9080519060200190610fa99291906130ff565b505050565b610fb6611e2e565b73ffffffffffffffffffffffffffffffffffffffff168173ffffffffffffffffffffffffffffffffffffffff1614611023576040517f08c379a000000000000000000000000000000000000000000000000000000000815260040161101a90614287565b60405180910390fd5b61102d82826123c4565b5050565b600061103b611e2e565b90506110456119f7565b611084576040517f08c379a000000000000000000000000000000000000000000000000000000000815260040161107b906142f3565b60405180910390fd5b61108f8383836124a6565b6110ce576040517f08c379a00000000000000000000000000000000000000000000000000000000081526004016110c59061435f565b60405180910390fd5b600a60008273ffffffffffffffffffffffffffffffffffffffff1673ffffffffffffffffffffffffffffffffffffffff16815260200190815260200160002060009054906101000a900460ff161561115b576040517f08c379a0000000000000000000000000000000000000000000000000000000008152600401611152906143cb565b60405180910390fd5b6001600a60008373ffffffffffffffffffffffffffffffffffffffff1673ffffffffffffffffffffffffffffffffffffffff16815260200190815260200160002060006101000a81548160ff0219169083151502179055506001603360068282829054906101000a900461ffff166111d39190613d4e565b92506101000a81548161ffff021916908361ffff1602179055506111fe816111f96114a9565b611eef565b505050565b61121e83838360405180602001604052806000815250611995565b505050565b600e60009054906101000a900460ff1681565b6000611240611e2e565b905061124f6000801b82611847565b80611262575061126160075482611847565b5b6112a1576040517f08c379a0000000000000000000000000000000000000000000000000000000008152600401611298906141f5565b60405180910390fd5b81600c90805190602001906112b79291906130ff565b505050565b60006112c6611e2e565b90506112d56000801b82611847565b806112e857506112e760075482611847565b5b611327576040517f08c379a000000000000000000000000000000000000000000000000000000000815260040161131e906141f5565b60405180910390fd5b82600e60026101000a81548160ff02191690831515021790555081600e60016101000a81548160ff021916908315150217905550505050565b600061136a611e2e565b90506113796000801b82611847565b8061138c575061138b60075482611847565b5b6113cb576040517f08c379a00000000000000000000000000000000000000000000000000000000081526004016113c2906141f5565b60405180910390fd5b600e60009054906101000a900460ff1615600e60006101000a81548160ff02191690831515021790555050565b6000806002600084815260200190815260200160002060009054906101000a900473ffffffffffffffffffffffffffffffffffffffff169050600073ffffffffffffffffffffffffffffffffffffffff168173ffffffffffffffffffffffffffffffffffffffff16036114a0576040517f08c379a00000000000000000000000000000000000000000000000000000000081526004016114979061445d565b60405180910390fd5b80915050919050565b600080603360009054906101000a900461ffff1633426001436114cc9190613c0c565b406040516020016114e09493929190613d00565b6040516020818303038152906040528051906020012060001c90506000603360009054906101000a900461ffff1661ffff166101f461151f9190613c0c565b90506001603360008282829054906101000a900461ffff166115419190613d4e565b92506101000a81548161ffff021916908361ffff1602179055506000811161159e576040517f08c379a0000000000000000000000000000000000000000000000000000000008152600401611595906144c9565b60405180910390fd5b600081836115ac9190613e21565b90506000600f826101f481106115c5576115c4613e52565b5b601091828204019190066002029054906101000a900461ffff1661ffff16036115ee5780611622565b600f816101f4811061160357611602613e52565b5b601091828204019190066002029054906101000a900461ffff1661ffff165b93506038846116319190613e81565b93506000600f6001846116449190613c0c565b6101f4811061165657611655613e52565b5b601091828204019190066002029054906101000a900461ffff1661ffff16146116bd57600f6001836116889190613c0c565b6101f4811061169a57611699613e52565b5b601091828204019190066002029054906101000a900461ffff1661ffff166116cb565b6001826116ca9190613c0c565b5b600f826101f481106116e0576116df613e52565b5b601091828204019190066002026101000a81548161ffff021916908361ffff1602179055506000600f6001846117169190613c0c565b6101f4811061172857611727613e52565b5b601091828204019190066002026101000a81548161ffff021916908361ffff1602179055507fa4e8e12e12124dbefe84fada6e584fcfaf4862f3b8284a8174f89be901ec4d7d8460405161177c91906133fa565b60405180910390a150505090565b60008073ffffffffffffffffffffffffffffffffffffffff168273ffffffffffffffffffffffffffffffffffffffff16036117fa576040517f08c379a00000000000000000000000000000000000000000000000000000000081526004016117f19061455b565b60405180910390fd5b600360008373ffffffffffffffffffffffffffffffffffffffff1673ffffffffffffffffffffffffffffffffffffffff168152602001908152602001600020549050919050565b60075481565b60006006600084815260200190815260200160002060000160008373ffffffffffffffffffffffffffffffffffffffff1673ffffffffffffffffffffffffffffffffffffffff16815260200190815260200160002060009054906101000a900460ff16905092915050565b6060600180546118c190613b1a565b80601f01602080910402602001604051908101604052809291908181526020018280546118ed90613b1a565b801561193a5780601f1061190f5761010080835404028352916020019161193a565b820191906000526020600020905b81548152906001019060200180831161191d57829003601f168201915b5050505050905090565b603360089054906101000a900467ffffffffffffffff1681565b6000801b81565b611977611970611e2e565b838361252c565b5050565b603360189054906101000a900467ffffffffffffffff1681565b6119a66119a0611e2e565b83611f0d565b6119e5576040517f08c379a00000000000000000000000000000000000000000000000000000000081526004016119dc90614189565b60405180910390fd5b6119f184848484612698565b50505050565b6000600e60019054906101000a900460ff1680611a5e5750603360089054906101000a900467ffffffffffffffff1667ffffffffffffffff1642118015611a5d5750603360109054906101000a900467ffffffffffffffff1667ffffffffffffffff1642105b5b905090565b603360109054906101000a900467ffffffffffffffff1681565b6060611a8882611dc2565b611ac7576040517f08c379a0000000000000000000000000000000000000000000000000000000008152600401611abe906145c7565b60405180910390fd5b600e60009054906101000a900460ff16611b6b57600d8054611ae890613b1a565b80601f0160208091040260200160405190810160405280929190818152602001828054611b1490613b1a565b8015611b615780601f10611b3657610100808354040283529160200191611b61565b820191906000526020600020905b815481529060010190602001808311611b4457829003601f168201915b5050505050611b9d565b611b736126f4565b611b7c83612786565b604051602001611b8d92919061466f565b6040516020818303038152906040525b9050919050565b611bad82610edf565b611bbe81611bb9611e2e565b612246565b611bc883836123c4565b505050565b60085481565b6000600560008473ffffffffffffffffffffffffffffffffffffffff1673ffffffffffffffffffffffffffffffffffffffff16815260200190815260200160002060008373ffffffffffffffffffffffffffffffffffffffff1673ffffffffffffffffffffffffffffffffffffffff16815260200190815260200160002060009054906101000a900460ff16905092915050565b6000611c71611e2e565b9050611c806000801b82611847565b80611c935750611c9260075482611847565b5b611cd2576040517f08c379a0000000000000000000000000000000000000000000000000000000008152600401611cc9906141f5565b60405180910390fd5b81603360048282829054906101000a900461ffff16611cf19190613d4e565b92506101000a81548161ffff021916908361ffff16021790555060005b8261ffff168161ffff161015611d4257611d2f84611d2a610822565b611eef565b8080611d3a9061469e565b915050611d0e565b50505050565b60007f7965db0b000000000000000000000000000000000000000000000000000000007bffffffffffffffffffffffffffffffffffffffffffffffffffffffff1916827bffffffffffffffffffffffffffffffffffffffffffffffffffffffff19161480611dbb5750611dba826128e6565b5b9050919050565b60008073ffffffffffffffffffffffffffffffffffffffff166002600084815260200190815260200160002060009054906101000a900473ffffffffffffffffffffffffffffffffffffffff1673ffffffffffffffffffffffffffffffffffffffff1614159050919050565b600033905090565b816004600083815260200190815260200160002060006101000a81548173ffffffffffffffffffffffffffffffffffffffff021916908373ffffffffffffffffffffffffffffffffffffffff160217905550808273ffffffffffffffffffffffffffffffffffffffff16611ea9836113f8565b73ffffffffffffffffffffffffffffffffffffffff167f8c5be1e5ebec7d5bd14f71427d1e84f3dd0314c0f7b2291e5b200ac8c7c3b92560405160405180910390a45050565b611f098282604051806020016040528060008152506129c8565b5050565b6000611f1882611dc2565b611f57576040517f08c379a0000000000000000000000000000000000000000000000000000000008152600401611f4e9061473a565b60405180910390fd5b6000611f62836113f8565b90508073ffffffffffffffffffffffffffffffffffffffff168473ffffffffffffffffffffffffffffffffffffffff161480611fd157508373ffffffffffffffffffffffffffffffffffffffff16611fb98461079d565b73ffffffffffffffffffffffffffffffffffffffff16145b80611fe25750611fe18185611bd3565b5b91505092915050565b8273ffffffffffffffffffffffffffffffffffffffff1661200b826113f8565b73ffffffffffffffffffffffffffffffffffffffff1614612061576040517f08c379a0000000000000000000000000000000000000000000000000000000008152600401612058906147cc565b60405180910390fd5b600073ffffffffffffffffffffffffffffffffffffffff168273ffffffffffffffffffffffffffffffffffffffff16036120d0576040517f08c379a00000000000000000000000000000000000000000000000000000000081526004016120c79061485e565b60405180910390fd5b6120db838383612a23565b6120e6600082611e36565b6001600360008573ffffffffffffffffffffffffffffffffffffffff1673ffffffffffffffffffffffffffffffffffffffff16815260200190815260200160002060008282546121369190613c0c565b925050819055506001600360008473ffffffffffffffffffffffffffffffffffffffff1673ffffffffffffffffffffffffffffffffffffffff168152602001908152602001600020600082825461218d9190613e81565b92505081905550816002600083815260200190815260200160002060006101000a81548173ffffffffffffffffffffffffffffffffffffffff021916908373ffffffffffffffffffffffffffffffffffffffff160217905550808273ffffffffffffffffffffffffffffffffffffffff168473ffffffffffffffffffffffffffffffffffffffff167fddf252ad1be2c89b69c2b068fc378daa952ba7f163c4a11628f55a4df523b3ef60405160405180910390a4505050565b6122508282611847565b6122df576122758173ffffffffffffffffffffffffffffffffffffffff166014612a28565b6122838360001c6020612a28565b604051602001612294929190614916565b6040516020818303038152906040526040517f08c379a00000000000000000000000000000000000000000000000000000000081526004016122d6919061330a565b60405180910390fd5b5050565b6122ed8282611847565b6123c05760016006600084815260200190815260200160002060000160008373ffffffffffffffffffffffffffffffffffffffff1673ffffffffffffffffffffffffffffffffffffffff16815260200190815260200160002060006101000a81548160ff021916908315150217905550612365611e2e565b73ffffffffffffffffffffffffffffffffffffffff168173ffffffffffffffffffffffffffffffffffffffff16837f2f8788117e7eff1d82e926ec794901d17c78024a50270940304540a733656f0d60405160405180910390a45b5050565b6123ce8282611847565b156124a25760006006600084815260200190815260200160002060000160008373ffffffffffffffffffffffffffffffffffffffff1673ffffffffffffffffffffffffffffffffffffffff16815260200190815260200160002060006101000a81548160ff021916908315150217905550612447611e2e565b73ffffffffffffffffffffffffffffffffffffffff168173ffffffffffffffffffffffffffffffffffffffff16837ff6391f5c32d9c69d2a47ea670b442974b53935d1edc7fd64eb21e047a839171b60405160405180910390a45b5050565b600060011515612520858580806020026020016040519081016040528093929190818152602001838360200280828437600081840152601f19601f82011690508083019250505050505050600954856040516020016125059190614950565b60405160208183030381529060405280519060200120612c64565b15151490509392505050565b8173ffffffffffffffffffffffffffffffffffffffff168373ffffffffffffffffffffffffffffffffffffffff160361259a576040517f08c379a0000000000000000000000000000000000000000000000000000000008152600401612591906149b7565b60405180910390fd5b80600560008573ffffffffffffffffffffffffffffffffffffffff1673ffffffffffffffffffffffffffffffffffffffff16815260200190815260200160002060008473ffffffffffffffffffffffffffffffffffffffff1673ffffffffffffffffffffffffffffffffffffffff16815260200190815260200160002060006101000a81548160ff0219169083151502179055508173ffffffffffffffffffffffffffffffffffffffff168373ffffffffffffffffffffffffffffffffffffffff167f17307eab39ab6107e8899845ad3d59bd9653f200f220920489ca2b5937696c318360405161268b9190613256565b60405180910390a3505050565b6126a3848484611feb565b6126af84848484612c7b565b6126ee576040517f08c379a00000000000000000000000000000000000000000000000000000000081526004016126e590614a49565b60405180910390fd5b50505050565b6060600c805461270390613b1a565b80601f016020809104026020016040519081016040528092919081815260200182805461272f90613b1a565b801561277c5780601f106127515761010080835404028352916020019161277c565b820191906000526020600020905b81548152906001019060200180831161275f57829003601f168201915b5050505050905090565b6060600082036127cd576040518060400160405280600181526020017f300000000000000000000000000000000000000000000000000000000000000081525090506128e1565b600082905060005b600082146127ff5780806127e890614a69565b915050600a826127f89190614ab1565b91506127d5565b60008167ffffffffffffffff81111561281b5761281a613621565b5b6040519080825280601f01601f19166020018201604052801561284d5781602001600182028036833780820191505090505b5090505b600085146128da576001826128669190613c0c565b9150600a856128759190613e21565b60306128819190613e81565b60f81b81838151811061289757612896613e52565b5b60200101907effffffffffffffffffffffffffffffffffffffffffffffffffffffffffffff1916908160001a905350600a856128d39190614ab1565b9450612851565b8093505050505b919050565b60007f80ac58cd000000000000000000000000000000000000000000000000000000007bffffffffffffffffffffffffffffffffffffffffffffffffffffffff1916827bffffffffffffffffffffffffffffffffffffffffffffffffffffffff191614806129b157507f5b5e139f000000000000000000000000000000000000000000000000000000007bffffffffffffffffffffffffffffffffffffffffffffffffffffffff1916827bffffffffffffffffffffffffffffffffffffffffffffffffffffffff1916145b806129c157506129c082612e02565b5b9050919050565b6129d28383612e6c565b6129df6000848484612c7b565b612a1e576040517f08c379a0000000000000000000000000000000000000000000000000000000008152600401612a1590614a49565b60405180910390fd5b505050565b505050565b606060006002836002612a3b9190614ae2565b612a459190613e81565b67ffffffffffffffff811115612a5e57612a5d613621565b5b6040519080825280601f01601f191660200182016040528015612a905781602001600182028036833780820191505090505b5090507f300000000000000000000000000000000000000000000000000000000000000081600081518110612ac857612ac7613e52565b5b60200101907effffffffffffffffffffffffffffffffffffffffffffffffffffffffffffff1916908160001a9053507f780000000000000000000000000000000000000000000000000000000000000081600181518110612b2c57612b2b613e52565b5b60200101907effffffffffffffffffffffffffffffffffffffffffffffffffffffffffffff1916908160001a90535060006001846002612b6c9190614ae2565b612b769190613e81565b90505b6001811115612c16577f3031323334353637383961626364656600000000000000000000000000000000600f861660108110612bb857612bb7613e52565b5b1a60f81b828281518110612bcf57612bce613e52565b5b60200101907effffffffffffffffffffffffffffffffffffffffffffffffffffffffffffff1916908160001a905350600485901c945080612c0f90614b3c565b9050612b79565b5060008414612c5a576040517f08c379a0000000000000000000000000000000000000000000000000000000008152600401612c5190614bb1565b60405180910390fd5b8091505092915050565b600082612c718584613039565b1490509392505050565b6000612c9c8473ffffffffffffffffffffffffffffffffffffffff166130ec565b15612df5578373ffffffffffffffffffffffffffffffffffffffff1663150b7a02612cc5611e2e565b8786866040518563ffffffff1660e01b8152600401612ce79493929190614c26565b6020604051808303816000875af1925050508015612d2357506040513d601f19601f82011682018060405250810190612d209190614c87565b60015b612da5573d8060008114612d53576040519150601f19603f3d011682016040523d82523d6000602084013e612d58565b606091505b506000815103612d9d576040517f08c379a0000000000000000000000000000000000000000000000000000000008152600401612d9490614a49565b60405180910390fd5b805181602001fd5b63150b7a0260e01b7bffffffffffffffffffffffffffffffffffffffffffffffffffffffff1916817bffffffffffffffffffffffffffffffffffffffffffffffffffffffff191614915050612dfa565b600190505b949350505050565b60007f01ffc9a7000000000000000000000000000000000000000000000000000000007bffffffffffffffffffffffffffffffffffffffffffffffffffffffff1916827bffffffffffffffffffffffffffffffffffffffffffffffffffffffff1916149050919050565b600073ffffffffffffffffffffffffffffffffffffffff168273ffffffffffffffffffffffffffffffffffffffff1603612edb576040517f08c379a0000000000000000000000000000000000000000000000000000000008152600401612ed290614d00565b60405180910390fd5b612ee481611dc2565b15612f24576040517f08c379a0000000000000000000000000000000000000000000000000000000008152600401612f1b90614d6c565b60405180910390fd5b612f3060008383612a23565b6001600360008473ffffffffffffffffffffffffffffffffffffffff1673ffffffffffffffffffffffffffffffffffffffff1681526020019081526020016000206000828254612f809190613e81565b92505081905550816002600083815260200190815260200160002060006101000a81548173ffffffffffffffffffffffffffffffffffffffff021916908373ffffffffffffffffffffffffffffffffffffffff160217905550808273ffffffffffffffffffffffffffffffffffffffff16600073ffffffffffffffffffffffffffffffffffffffff167fddf252ad1be2c89b69c2b068fc378daa952ba7f163c4a11628f55a4df523b3ef60405160405180910390a45050565b60008082905060005b84518110156130e15760008582815181106130605761305f613e52565b5b602002602001015190508083116130a1578281604051602001613084929190614d8c565b6040516020818303038152906040528051906020012092506130cd565b80836040516020016130b4929190614d8c565b6040516020818303038152906040528051906020012092505b5080806130d990614a69565b915050613042565b508091505092915050565b600080823b905060008111915050919050565b82805461310b90613b1a565b90600052602060002090601f01602090048101928261312d5760008555613174565b82601f1061314657805160ff1916838001178555613174565b82800160010185558215613174579182015b82811115613173578251825591602001919060010190613158565b5b5090506131819190613185565b5090565b5b8082111561319e576000816000905550600101613186565b5090565b6000604051905090565b600080fd5b600080fd5b60007fffffffff0000000000000000000000000000000000000000000000000000000082169050919050565b6131eb816131b6565b81146131f657600080fd5b50565b600081359050613208816131e2565b92915050565b600060208284031215613224576132236131ac565b5b6000613232848285016131f9565b91505092915050565b60008115159050919050565b6132508161323b565b82525050565b600060208201905061326b6000830184613247565b92915050565b600081519050919050565b600082825260208201905092915050565b60005b838110156132ab578082015181840152602081019050613290565b838111156132ba576000848401525b50505050565b6000601f19601f8301169050919050565b60006132dc82613271565b6132e6818561327c565b93506132f681856020860161328d565b6132ff816132c0565b840191505092915050565b6000602082019050818103600083015261332481846132d1565b905092915050565b6000819050919050565b61333f8161332c565b811461334a57600080fd5b50565b60008135905061335c81613336565b92915050565b600060208284031215613378576133776131ac565b5b60006133868482850161334d565b91505092915050565b600073ffffffffffffffffffffffffffffffffffffffff82169050919050565b60006133ba8261338f565b9050919050565b6133ca816133af565b82525050565b60006020820190506133e560008301846133c1565b92915050565b6133f48161332c565b82525050565b600060208201905061340f60008301846133eb565b92915050565b61341e816133af565b811461342957600080fd5b50565b60008135905061343b81613415565b92915050565b60008060408385031215613458576134576131ac565b5b60006134668582860161342c565b92505060206134778582860161334d565b9150509250929050565b600067ffffffffffffffff82169050919050565b61349e81613481565b82525050565b60006020820190506134b96000830184613495565b92915050565b600061ffff82169050919050565b6134d6816134bf565b82525050565b60006020820190506134f160008301846134cd565b92915050565b6000806000606084860312156135105761350f6131ac565b5b600061351e8682870161342c565b935050602061352f8682870161342c565b92505060406135408682870161334d565b9150509250925092565b6000819050919050565b61355d8161354a565b811461356857600080fd5b50565b60008135905061357a81613554565b92915050565b600060208284031215613596576135956131ac565b5b60006135a48482850161356b565b91505092915050565b6135b68161354a565b82525050565b60006020820190506135d160008301846135ad565b92915050565b600080604083850312156135ee576135ed6131ac565b5b60006135fc8582860161356b565b925050602061360d8582860161342c565b9150509250929050565b600080fd5b600080fd5b7f4e487b7100000000000000000000000000000000000000000000000000000000600052604160045260246000fd5b613659826132c0565b810181811067ffffffffffffffff8211171561367857613677613621565b5b80604052505050565b600061368b6131a2565b90506136978282613650565b919050565b600067ffffffffffffffff8211156136b7576136b6613621565b5b6136c0826132c0565b9050602081019050919050565b82818337600083830152505050565b60006136ef6136ea8461369c565b613681565b90508281526020810184848401111561370b5761370a61361c565b5b6137168482856136cd565b509392505050565b600082601f83011261373357613732613617565b5b81356137438482602086016136dc565b91505092915050565b600060208284031215613762576137616131ac565b5b600082013567ffffffffffffffff8111156137805761377f6131b1565b5b61378c8482850161371e565b91505092915050565b600080fd5b600080fd5b60008083601f8401126137b5576137b4613617565b5b8235905067ffffffffffffffff8111156137d2576137d1613795565b5b6020830191508360208202830111156137ee576137ed61379a565b5b9250929050565b6000806020838503121561380c5761380b6131ac565b5b600083013567ffffffffffffffff81111561382a576138296131b1565b5b6138368582860161379f565b92509250509250929050565b61384b8161323b565b811461385657600080fd5b50565b60008135905061386881613842565b92915050565b60008060408385031215613885576138846131ac565b5b600061389385828601613859565b92505060206138a485828601613859565b9150509250929050565b6000602082840312156138c4576138c36131ac565b5b60006138d28482850161342c565b91505092915050565b600080604083850312156138f2576138f16131ac565b5b60006139008582860161342c565b925050602061391185828601613859565b9150509250929050565b600067ffffffffffffffff82111561393657613935613621565b5b61393f826132c0565b9050602081019050919050565b600061395f61395a8461391b565b613681565b90508281526020810184848401111561397b5761397a61361c565b5b6139868482856136cd565b509392505050565b600082601f8301126139a3576139a2613617565b5b81356139b384826020860161394c565b91505092915050565b600080600080608085870312156139d6576139d56131ac565b5b60006139e48782880161342c565b94505060206139f58782880161342c565b9350506040613a068782880161334d565b925050606085013567ffffffffffffffff811115613a2757613a266131b1565b5b613a338782880161398e565b91505092959194509250565b60008060408385031215613a5657613a556131ac565b5b6000613a648582860161342c565b9250506020613a758582860161342c565b9150509250929050565b613a88816134bf565b8114613a9357600080fd5b50565b600081359050613aa581613a7f565b92915050565b60008060408385031215613ac257613ac16131ac565b5b6000613ad08582860161342c565b9250506020613ae185828601613a96565b9150509250929050565b7f4e487b7100000000000000000000000000000000000000000000000000000000600052602260045260246000fd5b60006002820490506001821680613b3257607f821691505b602082108103613b4557613b44613aeb565b5b50919050565b7f4552433732313a20617070726f76656420717565727920666f72206e6f6e657860008201527f697374656e7420746f6b656e0000000000000000000000000000000000000000602082015250565b6000613ba7602c8361327c565b9150613bb282613b4b565b604082019050919050565b60006020820190508181036000830152613bd681613b9a565b9050919050565b7f4e487b7100000000000000000000000000000000000000000000000000000000600052601160045260246000fd5b6000613c178261332c565b9150613c228361332c565b925082821015613c3557613c34613bdd565b5b828203905092915050565b60008160f01b9050919050565b6000613c5882613c40565b9050919050565b613c70613c6b826134bf565b613c4d565b82525050565b60008160601b9050919050565b6000613c8e82613c76565b9050919050565b6000613ca082613c83565b9050919050565b613cb8613cb3826133af565b613c95565b82525050565b6000819050919050565b613cd9613cd48261332c565b613cbe565b82525050565b6000819050919050565b613cfa613cf58261354a565b613cdf565b82525050565b6000613d0c8287613c5f565b600282019150613d1c8286613ca7565b601482019150613d2c8285613cc8565b602082019150613d3c8284613ce9565b60208201915081905095945050505050565b6000613d59826134bf565b9150613d64836134bf565b92508261ffff03821115613d7b57613d7a613bdd565b5b828201905092915050565b7f6e6f205f7465616d496473206c65667400000000000000000000000000000000600082015250565b6000613dbc60108361327c565b9150613dc782613d86565b602082019050919050565b60006020820190508181036000830152613deb81613daf565b9050919050565b7f4e487b7100000000000000000000000000000000000000000000000000000000600052601260045260246000fd5b6000613e2c8261332c565b9150613e378361332c565b925082613e4757613e46613df2565b5b828206905092915050565b7f4e487b7100000000000000000000000000000000000000000000000000000000600052603260045260246000fd5b6000613e8c8261332c565b9150613e978361332c565b9250827fffffffffffffffffffffffffffffffffffffffffffffffffffffffffffffffff03821115613ecc57613ecb613bdd565b5b828201905092915050565b7f4552433732313a20617070726f76616c20746f2063757272656e74206f776e6560008201527f7200000000000000000000000000000000000000000000000000000000000000602082015250565b6000613f3360218361327c565b9150613f3e82613ed7565b604082019050919050565b60006020820190508181036000830152613f6281613f26565b9050919050565b7f4552433732313a20617070726f76652063616c6c6572206973206e6f74206f7760008201527f6e6572206e6f7220617070726f76656420666f7220616c6c0000000000000000602082015250565b6000613fc560388361327c565b9150613fd082613f69565b604082019050919050565b60006020820190508181036000830152613ff481613fb8565b9050919050565b7f5055424c49435f53414c455f494e414354495645000000000000000000000000600082015250565b600061403160148361327c565b915061403c82613ffb565b602082019050919050565b6000602082019050818103600083015261406081614024565b9050919050565b600060ff82169050919050565b600061407f82614067565b915061408a83614067565b92508260ff038211156140a05761409f613bdd565b5b828201905092915050565b7f5055424c49435f544f4b454e5f4c494d49540000000000000000000000000000600082015250565b60006140e160128361327c565b91506140ec826140ab565b602082019050919050565b60006020820190508181036000830152614110816140d4565b9050919050565b7f4552433732313a207472616e736665722063616c6c6572206973206e6f74206f60008201527f776e6572206e6f7220617070726f766564000000000000000000000000000000602082015250565b600061417360318361327c565b915061417e82614117565b604082019050919050565b600060208201905081810360008301526141a281614166565b9050919050565b7f4d75737420626520616e2061646d696e00000000000000000000000000000000600082015250565b60006141df60108361327c565b91506141ea826141a9565b602082019050919050565b6000602082019050818103600083015261420e816141d2565b9050919050565b7f416363657373436f6e74726f6c3a2063616e206f6e6c792072656e6f756e636560008201527f20726f6c657320666f722073656c660000000000000000000000000000000000602082015250565b6000614271602f8361327c565b915061427c82614215565b604082019050919050565b600060208201905081810360008301526142a081614264565b9050919050565b7f50524553414c455f494e41435449564500000000000000000000000000000000600082015250565b60006142dd60108361327c565b91506142e8826142a7565b602082019050919050565b6000602082019050818103600083015261430c816142d0565b9050919050565b7f50524553414c455f4e4f545f5645524946494544000000000000000000000000600082015250565b600061434960148361327c565b915061435482614313565b602082019050919050565b600060208201905081810360008301526143788161433c565b9050919050565b7f57484954454c4953545f544f4b454e5f434c41494d4544000000000000000000600082015250565b60006143b560178361327c565b91506143c08261437f565b602082019050919050565b600060208201905081810360008301526143e4816143a8565b9050919050565b7f4552433732313a206f776e657220717565727920666f72206e6f6e657869737460008201527f656e7420746f6b656e0000000000000000000000000000000000000000000000602082015250565b600061444760298361327c565b9150614452826143eb565b604082019050919050565b600060208201905081810360008301526144768161443a565b9050919050565b7f6e6f205f636f6d6d756e697479496473206c6566740000000000000000000000600082015250565b60006144b360158361327c565b91506144be8261447d565b602082019050919050565b600060208201905081810360008301526144e2816144a6565b9050919050565b7f4552433732313a2062616c616e636520717565727920666f7220746865207a6560008201527f726f206164647265737300000000000000000000000000000000000000000000602082015250565b6000614545602a8361327c565b9150614550826144e9565b604082019050919050565b6000602082019050818103600083015261457481614538565b9050919050565b7f494e56414c49445f494400000000000000000000000000000000000000000000600082015250565b60006145b1600a8361327c565b91506145bc8261457b565b602082019050919050565b600060208201905081810360008301526145e0816145a4565b9050919050565b600081905092915050565b60006145fd82613271565b61460781856145e7565b935061461781856020860161328d565b80840191505092915050565b7f2e6a736f6e000000000000000000000000000000000000000000000000000000600082015250565b60006146596005836145e7565b915061466482614623565b600582019050919050565b600061467b82856145f2565b915061468782846145f2565b91506146928261464c565b91508190509392505050565b60006146a9826134bf565b915061ffff82036146bd576146bc613bdd565b5b600182019050919050565b7f4552433732313a206f70657261746f7220717565727920666f72206e6f6e657860008201527f697374656e7420746f6b656e0000000000000000000000000000000000000000602082015250565b6000614724602c8361327c565b915061472f826146c8565b604082019050919050565b6000602082019050818103600083015261475381614717565b9050919050565b7f4552433732313a207472616e73666572206f6620746f6b656e2074686174206960008201527f73206e6f74206f776e0000000000000000000000000000000000000000000000602082015250565b60006147b660298361327c565b91506147c18261475a565b604082019050919050565b600060208201905081810360008301526147e5816147a9565b9050919050565b7f4552433732313a207472616e7366657220746f20746865207a65726f2061646460008201527f7265737300000000000000000000000000000000000000000000000000000000602082015250565b600061484860248361327c565b9150614853826147ec565b604082019050919050565b600060208201905081810360008301526148778161483b565b9050919050565b7f416363657373436f6e74726f6c3a206163636f756e7420000000000000000000600082015250565b60006148b46017836145e7565b91506148bf8261487e565b601782019050919050565b7f206973206d697373696e6720726f6c6520000000000000000000000000000000600082015250565b60006149006011836145e7565b915061490b826148ca565b601182019050919050565b6000614921826148a7565b915061492d82856145f2565b9150614938826148f3565b915061494482846145f2565b91508190509392505050565b600061495c8284613ca7565b60148201915081905092915050565b7f4552433732313a20617070726f766520746f2063616c6c657200000000000000600082015250565b60006149a160198361327c565b91506149ac8261496b565b602082019050919050565b600060208201905081810360008301526149d081614994565b9050919050565b7f4552433732313a207472616e7366657220746f206e6f6e20455243373231526560008201527f63656976657220696d706c656d656e7465720000000000000000000000000000602082015250565b6000614a3360328361327c565b9150614a3e826149d7565b604082019050919050565b60006020820190508181036000830152614a6281614a26565b9050919050565b6000614a748261332c565b91507fffffffffffffffffffffffffffffffffffffffffffffffffffffffffffffffff8203614aa657614aa5613bdd565b5b600182019050919050565b6000614abc8261332c565b9150614ac78361332c565b925082614ad757614ad6613df2565b5b828204905092915050565b6000614aed8261332c565b9150614af88361332c565b9250817fffffffffffffffffffffffffffffffffffffffffffffffffffffffffffffffff0483118215151615614b3157614b30613bdd565b5b828202905092915050565b6000614b478261332c565b915060008203614b5a57614b59613bdd565b5b600182039050919050565b7f537472696e67733a20686578206c656e67746820696e73756666696369656e74600082015250565b6000614b9b60208361327c565b9150614ba682614b65565b602082019050919050565b60006020820190508181036000830152614bca81614b8e565b9050919050565b600081519050919050565b600082825260208201905092915050565b6000614bf882614bd1565b614c028185614bdc565b9350614c1281856020860161328d565b614c1b816132c0565b840191505092915050565b6000608082019050614c3b60008301876133c1565b614c4860208301866133c1565b614c5560408301856133eb565b8181036060830152614c678184614bed565b905095945050505050565b600081519050614c81816131e2565b92915050565b600060208284031215614c9d57614c9c6131ac565b5b6000614cab84828501614c72565b91505092915050565b7f4552433732313a206d696e7420746f20746865207a65726f2061646472657373600082015250565b6000614cea60208361327c565b9150614cf582614cb4565b602082019050919050565b60006020820190508181036000830152614d1981614cdd565b9050919050565b7f4552433732313a20746f6b656e20616c7265616479206d696e74656400000000600082015250565b6000614d56601c8361327c565b9150614d6182614d20565b602082019050919050565b60006020820190508181036000830152614d8581614d49565b9050919050565b6000614d988285613ce9565b602082019150614da88284613ce9565b602082019150819050939250505056fea26469706673582212200583393102a534978be2cbb66a6b5eac617fdea7f4026f5a0168cc4819454e3a64736f6c634300080d0033",
  "linkReferences": {},
  "deployedLinkReferences": {}
}