{
  "_format": "hh-sol-artifact-1",
  "contractName": "FifthDimensionMock",
  "sourceName": "contracts/mocks/FifthDimensionMock.sol",
  "abi": [
    {
      "inputs": [
        {
          "internalType": "uint64",
          "name": "_whitelistStart",
          "type": "uint64"
        },
        {
          "internalType": "uint64",
          "name": "_whitelistEnd",
          "type": "uint64"
        },
        {
          "internalType": "uint64",
          "name": "_publicStart",
          "type": "uint64"
        },
        {
          "internalType": "uint64",
          "name": "_publicEnd",
          "type": "uint64"
        },
        {
          "internalType": "bytes32",
          "name": "whitelistMerkleRoot",
          "type": "bytes32"
        },
        {
          "internalType": "string",
          "name": "name",
          "type": "string"
        },
        {
          "internalType": "string",
          "name": "symbol",
          "type": "string"
        },
        {
          "internalType": "string",
          "name": "tempUri",
          "type": "string"
        }
      ],
      "stateMutability": "nonpayable",
      "type": "constructor"
    },
    {
      "anonymous": false,
      "inputs": [
        {
          "indexed": true,
          "internalType": "address",
          "name": "owner",
          "type": "address"
        },
        {
          "indexed": true,
          "internalType": "address",
          "name": "approved",
          "type": "address"
        },
        {
          "indexed": true,
          "internalType": "uint256",
          "name": "tokenId",
          "type": "uint256"
        }
      ],
      "name": "Approval",
      "type": "event"
    },
    {
      "anonymous": false,
      "inputs": [
        {
          "indexed": true,
          "internalType": "address",
          "name": "owner",
          "type": "address"
        },
        {
          "indexed": true,
          "internalType": "address",
          "name": "operator",
          "type": "address"
        },
        {
          "indexed": false,
          "internalType": "bool",
          "name": "approved",
          "type": "bool"
        }
      ],
      "name": "ApprovalForAll",
      "type": "event"
    },
    {
      "anonymous": false,
      "inputs": [
        {
          "indexed": true,
          "internalType": "bytes32",
          "name": "role",
          "type": "bytes32"
        },
        {
          "indexed": true,
          "internalType": "bytes32",
          "name": "previousAdminRole",
          "type": "bytes32"
        },
        {
          "indexed": true,
          "internalType": "bytes32",
          "name": "newAdminRole",
          "type": "bytes32"
        }
      ],
      "name": "RoleAdminChanged",
      "type": "event"
    },
    {
      "anonymous": false,
      "inputs": [
        {
          "indexed": true,
          "internalType": "bytes32",
          "name": "role",
          "type": "bytes32"
        },
        {
          "indexed": true,
          "internalType": "address",
          "name": "account",
          "type": "address"
        },
        {
          "indexed": true,
          "internalType": "address",
          "name": "sender",
          "type": "address"
        }
      ],
      "name": "RoleGranted",
      "type": "event"
    },
    {
      "anonymous": false,
      "inputs": [
        {
          "indexed": true,
          "internalType": "bytes32",
          "name": "role",
          "type": "bytes32"
        },
        {
          "indexed": true,
          "internalType": "address",
          "name": "account",
          "type": "address"
        },
        {
          "indexed": true,
          "internalType": "address",
          "name": "sender",
          "type": "address"
        }
      ],
      "name": "RoleRevoked",
      "type": "event"
    },
    {
      "anonymous": false,
      "inputs": [
        {
          "indexed": false,
          "internalType": "uint256",
          "name": "tokenId",
          "type": "uint256"
        }
      ],
      "name": "TokenId",
      "type": "event"
    },
    {
      "anonymous": false,
      "inputs": [
        {
          "indexed": true,
          "internalType": "address",
          "name": "from",
          "type": "address"
        },
        {
          "indexed": true,
          "internalType": "address",
          "name": "to",
          "type": "address"
        },
        {
          "indexed": true,
          "internalType": "uint256",
          "name": "tokenId",
          "type": "uint256"
        }
      ],
      "name": "Transfer",
      "type": "event"
    },
    {
      "inputs": [],
      "name": "ADMIN_ROLE",
      "outputs": [
        {
          "internalType": "bytes32",
          "name": "",
          "type": "bytes32"
        }
      ],
      "stateMutability": "view",
      "type": "function"
    },
    {
      "inputs": [],
      "name": "DEFAULT_ADMIN_ROLE",
      "outputs": [
        {
          "internalType": "bytes32",
          "name": "",
          "type": "bytes32"
        }
      ],
      "stateMutability": "view",
      "type": "function"
    },
    {
      "inputs": [],
      "name": "MOD_ROLE",
      "outputs": [
        {
          "internalType": "bytes32",
          "name": "",
          "type": "bytes32"
        }
      ],
      "stateMutability": "view",
      "type": "function"
    },
    {
      "inputs": [
        {
          "internalType": "address",
          "name": "to",
          "type": "address"
        },
        {
          "internalType": "uint16",
          "name": "quantity",
          "type": "uint16"
        }
      ],
      "name": "airdrop",
      "outputs": [],
      "stateMutability": "nonpayable",
      "type": "function"
    },
    {
      "inputs": [
        {
          "internalType": "address",
          "name": "to",
          "type": "address"
        },
        {
          "internalType": "uint256",
          "name": "tokenId",
          "type": "uint256"
        }
      ],
      "name": "approve",
      "outputs": [],
      "stateMutability": "nonpayable",
      "type": "function"
    },
    {
      "inputs": [
        {
          "internalType": "address",
          "name": "owner",
          "type": "address"
        }
      ],
      "name": "balanceOf",
      "outputs": [
        {
          "internalType": "uint256",
          "name": "",
          "type": "uint256"
        }
      ],
      "stateMutability": "view",
      "type": "function"
    },
    {
      "inputs": [
        {
          "internalType": "uint256",
          "name": "tokenId",
          "type": "uint256"
        }
      ],
      "name": "getApproved",
      "outputs": [
        {
          "internalType": "address",
          "name": "",
          "type": "address"
        }
      ],
      "stateMutability": "view",
      "type": "function"
    },
    {
      "inputs": [
        {
          "internalType": "bytes32",
          "name": "role",
          "type": "bytes32"
        }
      ],
      "name": "getRoleAdmin",
      "outputs": [
        {
          "internalType": "bytes32",
          "name": "",
          "type": "bytes32"
        }
      ],
      "stateMutability": "view",
      "type": "function"
    },
    {
      "inputs": [
        {
          "internalType": "bytes32",
          "name": "role",
          "type": "bytes32"
        },
        {
          "internalType": "address",
          "name": "account",
          "type": "address"
        }
      ],
      "name": "grantRole",
      "outputs": [],
      "stateMutability": "nonpayable",
      "type": "function"
    },
    {
      "inputs": [
        {
          "internalType": "bytes32",
          "name": "role",
          "type": "bytes32"
        },
        {
          "internalType": "address",
          "name": "account",
          "type": "address"
        }
      ],
      "name": "hasRole",
      "outputs": [
        {
          "internalType": "bool",
          "name": "",
          "type": "bool"
        }
      ],
      "stateMutability": "view",
      "type": "function"
    },
    {
      "inputs": [
        {
          "internalType": "address",
          "name": "owner",
          "type": "address"
        },
        {
          "internalType": "address",
          "name": "operator",
          "type": "address"
        }
      ],
      "name": "isApprovedForAll",
      "outputs": [
        {
          "internalType": "bool",
          "name": "",
          "type": "bool"
        }
      ],
      "stateMutability": "view",
      "type": "function"
    },
    {
      "inputs": [],
      "name": "isPublicSaleActive",
      "outputs": [
        {
          "internalType": "bool",
          "name": "",
          "type": "bool"
        }
      ],
      "stateMutability": "view",
      "type": "function"
    },
    {
      "inputs": [],
      "name": "isWhitelistSaleActive",
      "outputs": [
        {
          "internalType": "bool",
          "name": "",
          "type": "bool"
        }
      ],
      "stateMutability": "view",
      "type": "function"
    },
    {
      "inputs": [],
      "name": "mint",
      "outputs": [],
      "stateMutability": "nonpayable",
      "type": "function"
    },
    {
      "inputs": [],
      "name": "name",
      "outputs": [
        {
          "internalType": "string",
          "name": "",
          "type": "string"
        }
      ],
      "stateMutability": "view",
      "type": "function"
    },
    {
      "inputs": [
        {
          "internalType": "uint256",
          "name": "tokenId",
          "type": "uint256"
        }
      ],
      "name": "ownerOf",
      "outputs": [
        {
          "internalType": "address",
          "name": "",
          "type": "address"
        }
      ],
      "stateMutability": "view",
      "type": "function"
    },
    {
      "inputs": [],
      "name": "pickRandomCommunityUniqueId",
      "outputs": [
        {
          "internalType": "uint256",
          "name": "id",
          "type": "uint256"
        }
      ],
      "stateMutability": "nonpayable",
      "type": "function"
    },
    {
      "inputs": [],
      "name": "pickRandomTeamUniqueId",
      "outputs": [
        {
          "internalType": "uint256",
          "name": "id",
          "type": "uint256"
        }
      ],
      "stateMutability": "nonpayable",
      "type": "function"
    },
    {
      "inputs": [],
      "name": "publicEnd",
      "outputs": [
        {
          "internalType": "uint64",
          "name": "",
          "type": "uint64"
        }
      ],
      "stateMutability": "view",
      "type": "function"
    },
    {
      "inputs": [],
      "name": "publicStart",
      "outputs": [
        {
          "internalType": "uint64",
          "name": "",
          "type": "uint64"
        }
      ],
      "stateMutability": "view",
      "type": "function"
    },
    {
      "inputs": [
        {
          "internalType": "bytes32",
          "name": "role",
          "type": "bytes32"
        },
        {
          "internalType": "address",
          "name": "account",
          "type": "address"
        }
      ],
      "name": "renounceRole",
      "outputs": [],
      "stateMutability": "nonpayable",
      "type": "function"
    },
    {
      "inputs": [],
      "name": "revealed",
      "outputs": [
        {
          "internalType": "bool",
          "name": "",
          "type": "bool"
        }
      ],
      "stateMutability": "view",
      "type": "function"
    },
    {
      "inputs": [
        {
          "internalType": "bytes32",
          "name": "role",
          "type": "bytes32"
        },
        {
          "internalType": "address",
          "name": "account",
          "type": "address"
        }
      ],
      "name": "revokeRole",
      "outputs": [],
      "stateMutability": "nonpayable",
      "type": "function"
    },
    {
      "inputs": [
        {
          "internalType": "address",
          "name": "from",
          "type": "address"
        },
        {
          "internalType": "address",
          "name": "to",
          "type": "address"
        },
        {
          "internalType": "uint256",
          "name": "tokenId",
          "type": "uint256"
        }
      ],
      "name": "safeTransferFrom",
      "outputs": [],
      "stateMutability": "nonpayable",
      "type": "function"
    },
    {
      "inputs": [
        {
          "internalType": "address",
          "name": "from",
          "type": "address"
        },
        {
          "internalType": "address",
          "name": "to",
          "type": "address"
        },
        {
          "internalType": "uint256",
          "name": "tokenId",
          "type": "uint256"
        },
        {
          "internalType": "bytes",
          "name": "_data",
          "type": "bytes"
        }
      ],
      "name": "safeTransferFrom",
      "outputs": [],
      "stateMutability": "nonpayable",
      "type": "function"
    },
    {
      "inputs": [
        {
          "internalType": "address",
          "name": "operator",
          "type": "address"
        },
        {
          "internalType": "bool",
          "name": "approved",
          "type": "bool"
        }
      ],
      "name": "setApprovalForAll",
      "outputs": [],
      "stateMutability": "nonpayable",
      "type": "function"
    },
    {
      "inputs": [
        {
          "internalType": "string",
          "name": "baseUri",
          "type": "string"
        }
      ],
      "name": "setBaseURI",
      "outputs": [],
      "stateMutability": "nonpayable",
      "type": "function"
    },
    {
      "inputs": [
        {
          "internalType": "string",
          "name": "tempUri",
          "type": "string"
        }
      ],
      "name": "setPlaceholderURI",
      "outputs": [],
      "stateMutability": "nonpayable",
      "type": "function"
    },
    {
      "inputs": [
        {
          "internalType": "bytes4",
          "name": "interfaceId",
          "type": "bytes4"
        }
      ],
      "name": "supportsInterface",
      "outputs": [
        {
          "internalType": "bool",
          "name": "",
          "type": "bool"
        }
      ],
      "stateMutability": "view",
      "type": "function"
    },
    {
      "inputs": [],
      "name": "symbol",
      "outputs": [
        {
          "internalType": "string",
          "name": "",
          "type": "string"
        }
      ],
      "stateMutability": "view",
      "type": "function"
    },
    {
      "inputs": [],
      "name": "toggleReveal",
      "outputs": [],
      "stateMutability": "nonpayable",
      "type": "function"
    },
    {
      "inputs": [
        {
          "internalType": "uint256",
          "name": "id",
          "type": "uint256"
        }
      ],
      "name": "tokenURI",
      "outputs": [
        {
          "internalType": "string",
          "name": "",
          "type": "string"
        }
      ],
      "stateMutability": "view",
      "type": "function"
    },
    {
      "inputs": [],
      "name": "totalSupply",
      "outputs": [
        {
          "internalType": "uint16",
          "name": "",
          "type": "uint16"
        }
      ],
      "stateMutability": "view",
      "type": "function"
    },
    {
      "inputs": [
        {
          "internalType": "address",
          "name": "from",
          "type": "address"
        },
        {
          "internalType": "address",
          "name": "to",
          "type": "address"
        },
        {
          "internalType": "uint256",
          "name": "tokenId",
          "type": "uint256"
        }
      ],
      "name": "transferFrom",
      "outputs": [],
      "stateMutability": "nonpayable",
      "type": "function"
    },
    {
      "inputs": [],
      "name": "whitelistEnd",
      "outputs": [
        {
          "internalType": "uint64",
          "name": "",
          "type": "uint64"
        }
      ],
      "stateMutability": "view",
      "type": "function"
    },
    {
      "inputs": [
        {
          "internalType": "bytes32[]",
          "name": "_merkleProof",
          "type": "bytes32[]"
        }
      ],
      "name": "whitelistMint",
      "outputs": [],
      "stateMutability": "nonpayable",
      "type": "function"
    },
    {
      "inputs": [],
      "name": "whitelistStart",
      "outputs": [
        {
          "internalType": "uint64",
          "name": "",
          "type": "uint64"
        }
      ],
      "stateMutability": "view",
      "type": "function"
    }
  ],
  "bytecode": "0x60806040527fa49807205ce4d355092ef5a8a18f56e8913cf4a201fbe287825b095693c217756007557f950b8f2d7415defaee398bb4898e8e094a64c725873b81952b7ab9f08d70efb36008553480156200005957600080fd5b50604051620059e9380380620059e983398181016040528101906200007f9190620007c6565b8282816000908051906020019062000099929190620004f9565b508060019080519060200190620000b2929190620004f9565b5050508360098190555080600d9080519060200190620000d4929190620004f9565b506000429050808967ffffffffffffffff161162000129576040517f08c379a000000000000000000000000000000000000000000000000000000000815260040162000120906200094d565b60405180910390fd5b808867ffffffffffffffff161180156200016c5750603360089054906101000a900467ffffffffffffffff1667ffffffffffffffff168867ffffffffffffffff16115b620001ae576040517f08c379a0000000000000000000000000000000000000000000000000000000008152600401620001a590620009bf565b60405180910390fd5b88603360086101000a81548167ffffffffffffffff021916908367ffffffffffffffff16021790555087603360106101000a81548167ffffffffffffffff021916908367ffffffffffffffff160217905550808767ffffffffffffffff161180156200022e57508767ffffffffffffffff168767ffffffffffffffff1610155b62000270576040517f08c379a0000000000000000000000000000000000000000000000000000000008152600401620002679062000a31565b60405180910390fd5b808667ffffffffffffffff161180156200029d57508667ffffffffffffffff168667ffffffffffffffff16115b620002df576040517f08c379a0000000000000000000000000000000000000000000000000000000008152600401620002d69062000aa3565b60405180910390fd5b86603360186101000a81548167ffffffffffffffff021916908367ffffffffffffffff16021790555085603460006101000a81548167ffffffffffffffff021916908367ffffffffffffffff1602179055506000620003436200037e60201b60201c565b90506200035a6000801b826200038660201b60201c565b6200036e600754826200038660201b60201c565b5050505050505050505062000b29565b600033905090565b6200039882826200039c60201b60201c565b5050565b620003ae82826200048e60201b60201c565b6200048a5760016006600084815260200190815260200160002060000160008373ffffffffffffffffffffffffffffffffffffffff1673ffffffffffffffffffffffffffffffffffffffff16815260200190815260200160002060006101000a81548160ff0219169083151502179055506200042f6200037e60201b60201c565b73ffffffffffffffffffffffffffffffffffffffff168173ffffffffffffffffffffffffffffffffffffffff16837f2f8788117e7eff1d82e926ec794901d17c78024a50270940304540a733656f0d60405160405180910390a45b5050565b60006006600084815260200190815260200160002060000160008373ffffffffffffffffffffffffffffffffffffffff1673ffffffffffffffffffffffffffffffffffffffff16815260200190815260200160002060009054906101000a900460ff16905092915050565b828054620005079062000af4565b90600052602060002090601f0160209004810192826200052b576000855562000577565b82601f106200054657805160ff191683800117855562000577565b8280016001018555821562000577579182015b828111156200057657825182559160200191906001019062000559565b5b5090506200058691906200058a565b5090565b5b80821115620005a55760008160009055506001016200058b565b5090565b6000604051905090565b600080fd5b600080fd5b600067ffffffffffffffff82169050919050565b620005dc81620005bd565b8114620005e857600080fd5b50565b600081519050620005fc81620005d1565b92915050565b6000819050919050565b620006178162000602565b81146200062357600080fd5b50565b60008151905062000637816200060c565b92915050565b600080fd5b600080fd5b6000601f19601f8301169050919050565b7f4e487b7100000000000000000000000000000000000000000000000000000000600052604160045260246000fd5b620006928262000647565b810181811067ffffffffffffffff82111715620006b457620006b362000658565b5b80604052505050565b6000620006c9620005a9565b9050620006d7828262000687565b919050565b600067ffffffffffffffff821115620006fa57620006f962000658565b5b620007058262000647565b9050602081019050919050565b60005b838110156200073257808201518184015260208101905062000715565b8381111562000742576000848401525b50505050565b60006200075f6200075984620006dc565b620006bd565b9050828152602081018484840111156200077e576200077d62000642565b5b6200078b84828562000712565b509392505050565b600082601f830112620007ab57620007aa6200063d565b5b8151620007bd84826020860162000748565b91505092915050565b600080600080600080600080610100898b031215620007ea57620007e9620005b3565b5b6000620007fa8b828c01620005eb565b98505060206200080d8b828c01620005eb565b9750506040620008208b828c01620005eb565b9650506060620008338b828c01620005eb565b9550506080620008468b828c0162000626565b94505060a089015167ffffffffffffffff8111156200086a5762000869620005b8565b5b620008788b828c0162000793565b93505060c089015167ffffffffffffffff8111156200089c576200089b620005b8565b5b620008aa8b828c0162000793565b92505060e089015167ffffffffffffffff811115620008ce57620008cd620005b8565b5b620008dc8b828c0162000793565b9150509295985092959890939650565b600082825260208201905092915050565b7f57726f6e672077686974656c6973742073746172740000000000000000000000600082015250565b600062000935601583620008ec565b91506200094282620008fd565b602082019050919050565b60006020820190508181036000830152620009688162000926565b9050919050565b7f57726f6e672077686974656c69737420656e6400000000000000000000000000600082015250565b6000620009a7601383620008ec565b9150620009b4826200096f565b602082019050919050565b60006020820190508181036000830152620009da8162000998565b9050919050565b7f57726f6e67207075626c69632073746172740000000000000000000000000000600082015250565b600062000a19601283620008ec565b915062000a2682620009e1565b602082019050919050565b6000602082019050818103600083015262000a4c8162000a0a565b9050919050565b7f57726f6e67207075626c696320656e6400000000000000000000000000000000600082015250565b600062000a8b601083620008ec565b915062000a988262000a53565b602082019050919050565b6000602082019050818103600083015262000abe8162000a7c565b9050919050565b7f4e487b7100000000000000000000000000000000000000000000000000000000600052602260045260246000fd5b6000600282049050600182168062000b0d57607f821691505b60208210810362000b235762000b2262000ac5565b5b50919050565b614eb08062000b396000396000f3fe608060405234801561001057600080fd5b50600436106102275760003560e01c80635b8ad42911610130578063a22cb465116100b8578063c87b56dd1161007c578063c87b56dd1461061c578063d547741f1461064c578063e932406f14610668578063e985e9c514610686578063ec8d130b146106b657610227565b8063a22cb4651461058a578063a5f4c6ff146105a6578063b88d4fde146105c4578063b98451cf146105e0578063bfb6e0e7146105fe57610227565b806375b238fc116100ff57806375b238fc146104e257806391d148541461050057806395d89b4114610530578063994d39691461054e578063a217fddf1461056c57610227565b80635b8ad4291461045a5780636352211e146104645780636f09bebe1461049457806370a08231146104b257610227565b806323b872dd116101b357806336568abe1161018257806336568abe146103cc578063372f657c146103e857806342842e0e14610404578063518302271461042057806355f804b31461043e57610227565b806323b872dd14610348578063248a9ca3146103645780632f2ff15d146103945780633574a2dd146103b057610227565b8063095ea7b3116101fa578063095ea7b3146102c85780630acae9a7146102e45780631249c58b1461030257806318160ddd1461030c5780631e84c4131461032a57610227565b806301ffc9a71461022c57806306fdde031461025c578063081812fc1461027a578063093f66d1146102aa575b600080fd5b61024660048036038101906102419190613238565b6106d2565b6040516102539190613280565b60405180910390f35b6102646106e4565b6040516102719190613334565b60405180910390f35b610294600480360381019061028f919061338c565b610776565b6040516102a191906133fa565b60405180910390f35b6102b26107fb565b6040516102bf9190613424565b60405180910390f35b6102e260048036038101906102dd919061346b565b610aed565b005b6102ec610c04565b6040516102f991906134ce565b60405180910390f35b61030a610c1e565b005b610314610e3a565b6040516103219190613506565b60405180910390f35b610332610e6d565b60405161033f9190613280565b60405180910390f35b610362600480360381019061035d9190613521565b610ec2565b005b61037e600480360381019061037991906135aa565b610f22565b60405161038b91906135e6565b60405180910390f35b6103ae60048036038101906103a99190613601565b610f42565b005b6103ca60048036038101906103c59190613776565b610f6b565b005b6103e660048036038101906103e19190613601565b610ff1565b005b61040260048036038101906103fd919061381f565b611074565b005b61041e60048036038101906104199190613521565b6112ae565b005b6104286112ce565b6040516104359190613280565b60405180910390f35b61045860048036038101906104539190613776565b6112e1565b005b610462611367565b005b61047e6004803603810190610479919061338c565b6113ff565b60405161048b91906133fa565b60405180910390f35b61049c6114b0565b6040516104a99190613424565b60405180910390f35b6104cc60048036038101906104c7919061386c565b6117a9565b6040516104d99190613424565b60405180910390f35b6104ea611860565b6040516104f791906135e6565b60405180910390f35b61051a60048036038101906105159190613601565b611866565b6040516105279190613280565b60405180910390f35b6105386118d1565b6040516105459190613334565b60405180910390f35b610556611963565b60405161056391906134ce565b60405180910390f35b61057461197d565b60405161058191906135e6565b60405180910390f35b6105a4600480360381019061059f91906138c5565b611984565b005b6105ae61199a565b6040516105bb91906134ce565b60405180910390f35b6105de60048036038101906105d991906139a6565b6119b4565b005b6105e8611a16565b6040516105f59190613280565b60405180910390f35b610606611a6b565b60405161061391906134ce565b60405180910390f35b6106366004803603810190610631919061338c565b611a85565b6040516106439190613334565b60405180910390f35b61066660048036038101906106619190613601565b611bac565b005b610670611bd5565b60405161067d91906135e6565b60405180910390f35b6106a0600480360381019061069b9190613a29565b611bdb565b6040516106ad9190613280565b60405180910390f35b6106d060048036038101906106cb9190613a95565b611c6f565b005b60006106dd82611d72565b9050919050565b6060600080546106f390613b04565b80601f016020809104026020016040519081016040528092919081815260200182805461071f90613b04565b801561076c5780601f106107415761010080835404028352916020019161076c565b820191906000526020600020905b81548152906001019060200180831161074f57829003601f168201915b5050505050905090565b600061078182611dec565b6107c0576040517f08c379a00000000000000000000000000000000000000000000000000000000081526004016107b790613ba7565b60405180910390fd5b6004600083815260200190815260200160002060009054906101000a900473ffffffffffffffffffffffffffffffffffffffff169050919050565b6000806033600281819054906101000a900461ffff168092919061081e90613bf6565b91906101000a81548161ffff021916908361ffff16021790555033426001436108479190613c20565b4060405160200161085b9493929190613d14565b6040516020818303038152906040528051906020012060001c905060006033600281819054906101000a900461ffff168092919061089890613bf6565b91906101000a81548161ffff021916908361ffff16021790555061ffff1660376108c29190613c20565b905060008111610907576040517f08c379a00000000000000000000000000000000000000000000000000000000081526004016108fe90613dae565b60405180910390fd5b600081836109159190613dfd565b90506000602f826037811061092d5761092c613e2e565b5b601091828204019190066002029054906101000a900461ffff1661ffff16036109565780610989565b602f816037811061096a57610969613e2e565b5b601091828204019190066002029054906101000a900461ffff1661ffff165b93506001846109989190613e5d565b93506000602f6001846109ab9190613c20565b603781106109bc576109bb613e2e565b5b601091828204019190066002029054906101000a900461ffff1661ffff1614610a2257602f6001836109ee9190613c20565b603781106109ff576109fe613e2e565b5b601091828204019190066002029054906101000a900461ffff1661ffff16610a30565b600182610a2f9190613c20565b5b602f8260378110610a4457610a43613e2e565b5b601091828204019190066002026101000a81548161ffff021916908361ffff1602179055506000602f600184610a7a9190613c20565b60378110610a8b57610a8a613e2e565b5b601091828204019190066002026101000a81548161ffff021916908361ffff1602179055507fa4e8e12e12124dbefe84fada6e584fcfaf4862f3b8284a8174f89be901ec4d7d84604051610adf9190613424565b60405180910390a150505090565b6000610af8826113ff565b90508073ffffffffffffffffffffffffffffffffffffffff168373ffffffffffffffffffffffffffffffffffffffff1603610b68576040517f08c379a0000000000000000000000000000000000000000000000000000000008152600401610b5f90613f25565b60405180910390fd5b8073ffffffffffffffffffffffffffffffffffffffff16610b87611e58565b73ffffffffffffffffffffffffffffffffffffffff161480610bb65750610bb581610bb0611e58565b611bdb565b5b610bf5576040517f08c379a0000000000000000000000000000000000000000000000000000000008152600401610bec90613fb7565b60405180910390fd5b610bff8383611e60565b505050565b603460009054906101000a900467ffffffffffffffff1681565b610c26610e6d565b610c65576040517f08c379a0000000000000000000000000000000000000000000000000000000008152600401610c5c90614023565b60405180910390fd5b6000610c6f611e58565b90506001600b60008373ffffffffffffffffffffffffffffffffffffffff1673ffffffffffffffffffffffffffffffffffffffff16815260200190815260200160002060008282829054906101000a900460ff16610ccd9190614050565b92506101000a81548160ff021916908360ff160217905550600261ffff16600b60008373ffffffffffffffffffffffffffffffffffffffff1673ffffffffffffffffffffffffffffffffffffffff16815260200190815260200160002060009054906101000a900460ff1660ff161115610d7c576040517f08c379a0000000000000000000000000000000000000000000000000000000008152600401610d73906140d3565b60405180910390fd5b6001603360068282829054906101000a900461ffff16610d9c91906140f3565b92506101000a81548161ffff021916908361ffff16021790555061022b61ffff166001603360069054906101000a900461ffff16610dda91906140f3565b61ffff161115610e1f576040517f08c379a0000000000000000000000000000000000000000000000000000000008152600401610e1690614177565b60405180910390fd5b610e37610e2a611e58565b610e326114b0565b611f19565b50565b6000603360069054906101000a900461ffff16603360049054906101000a900461ffff16610e6891906140f3565b905090565b6000603360189054906101000a900467ffffffffffffffff1667ffffffffffffffff1642118015610ebd5750603460009054906101000a900467ffffffffffffffff1667ffffffffffffffff1642105b905090565b610ed3610ecd611e58565b82611f37565b610f12576040517f08c379a0000000000000000000000000000000000000000000000000000000008152600401610f0990614209565b60405180910390fd5b610f1d838383612015565b505050565b600060066000838152602001908152602001600020600101549050919050565b610f4b82610f22565b610f5c81610f57611e58565b612270565b610f66838361230d565b505050565b6000610f75611e58565b9050610f846000801b82611866565b80610f975750610f9660075482611866565b5b610fd6576040517f08c379a0000000000000000000000000000000000000000000000000000000008152600401610fcd90614275565b60405180910390fd5b81600d9080519060200190610fec929190613129565b505050565b610ff9611e58565b73ffffffffffffffffffffffffffffffffffffffff168173ffffffffffffffffffffffffffffffffffffffff1614611066576040517f08c379a000000000000000000000000000000000000000000000000000000000815260040161105d90614307565b60405180910390fd5b61107082826123ee565b5050565b600061107e611e58565b9050611088611a16565b6110c7576040517f08c379a00000000000000000000000000000000000000000000000000000000081526004016110be90614373565b60405180910390fd5b6110d28383836124d0565b611111576040517f08c379a0000000000000000000000000000000000000000000000000000000008152600401611108906143df565b60405180910390fd5b6001600a60008373ffffffffffffffffffffffffffffffffffffffff1673ffffffffffffffffffffffffffffffffffffffff16815260200190815260200160002060006101000a81548160ff021916908315150217905550600a60008273ffffffffffffffffffffffffffffffffffffffff1673ffffffffffffffffffffffffffffffffffffffff16815260200190815260200160002060009054906101000a900460ff166111f5576040517f08c379a00000000000000000000000000000000000000000000000000000000081526004016111ec9061444b565b60405180910390fd5b6001603360068282829054906101000a900461ffff1661121591906140f3565b92506101000a81548161ffff021916908361ffff16021790555061022b61ffff166001603360069054906101000a900461ffff1661125391906140f3565b61ffff161115611298576040517f08c379a000000000000000000000000000000000000000000000000000000000815260040161128f90614177565b60405180910390fd5b6112a9816112a46114b0565b611f19565b505050565b6112c9838383604051806020016040528060008152506119b4565b505050565b600e60009054906101000a900460ff1681565b60006112eb611e58565b90506112fa6000801b82611866565b8061130d575061130c60075482611866565b5b61134c576040517f08c379a000000000000000000000000000000000000000000000000000000000815260040161134390614275565b60405180910390fd5b81600c9080519060200190611362929190613129565b505050565b6000611371611e58565b90506113806000801b82611866565b80611393575061139260075482611866565b5b6113d2576040517f08c379a00000000000000000000000000000000000000000000000000000000081526004016113c990614275565b60405180910390fd5b600e60009054906101000a900460ff1615600e60006101000a81548160ff02191690831515021790555050565b6000806002600084815260200190815260200160002060009054906101000a900473ffffffffffffffffffffffffffffffffffffffff169050600073ffffffffffffffffffffffffffffffffffffffff168173ffffffffffffffffffffffffffffffffffffffff16036114a7576040517f08c379a000000000000000000000000000000000000000000000000000000000815260040161149e906144dd565b60405180910390fd5b80915050919050565b6000806033600081819054906101000a900461ffff16809291906114d390613bf6565b91906101000a81548161ffff021916908361ffff16021790555033426001436114fc9190613c20565b406040516020016115109493929190613d14565b6040516020818303038152906040528051906020012060001c905060006033600081819054906101000a900461ffff168092919061154d90613bf6565b91906101000a81548161ffff021916908361ffff16021790555061ffff166101f46115789190613c20565b9050600081116115bd576040517f08c379a00000000000000000000000000000000000000000000000000000000081526004016115b490614549565b60405180910390fd5b600081836115cb9190613dfd565b90506000600f826101f481106115e4576115e3613e2e565b5b601091828204019190066002029054906101000a900461ffff1661ffff160361160d5780611641565b600f816101f4811061162257611621613e2e565b5b601091828204019190066002029054906101000a900461ffff1661ffff165b93506038846116509190613e5d565b93506000600f6001846116639190613c20565b6101f4811061167557611674613e2e565b5b601091828204019190066002029054906101000a900461ffff1661ffff16146116dc57600f6001836116a79190613c20565b6101f481106116b9576116b8613e2e565b5b601091828204019190066002029054906101000a900461ffff1661ffff166116ea565b6001826116e99190613c20565b5b600f826101f481106116ff576116fe613e2e565b5b601091828204019190066002026101000a81548161ffff021916908361ffff1602179055506000600f6001846117359190613c20565b6101f4811061174757611746613e2e565b5b601091828204019190066002026101000a81548161ffff021916908361ffff1602179055507fa4e8e12e12124dbefe84fada6e584fcfaf4862f3b8284a8174f89be901ec4d7d8460405161179b9190613424565b60405180910390a150505090565b60008073ffffffffffffffffffffffffffffffffffffffff168273ffffffffffffffffffffffffffffffffffffffff1603611819576040517f08c379a0000000000000000000000000000000000000000000000000000000008152600401611810906145db565b60405180910390fd5b600360008373ffffffffffffffffffffffffffffffffffffffff1673ffffffffffffffffffffffffffffffffffffffff168152602001908152602001600020549050919050565b60075481565b60006006600084815260200190815260200160002060000160008373ffffffffffffffffffffffffffffffffffffffff1673ffffffffffffffffffffffffffffffffffffffff16815260200190815260200160002060009054906101000a900460ff16905092915050565b6060600180546118e090613b04565b80601f016020809104026020016040519081016040528092919081815260200182805461190c90613b04565b80156119595780601f1061192e57610100808354040283529160200191611959565b820191906000526020600020905b81548152906001019060200180831161193c57829003601f168201915b5050505050905090565b603360089054906101000a900467ffffffffffffffff1681565b6000801b81565b61199661198f611e58565b8383612556565b5050565b603360189054906101000a900467ffffffffffffffff1681565b6119c56119bf611e58565b83611f37565b611a04576040517f08c379a00000000000000000000000000000000000000000000000000000000081526004016119fb90614209565b60405180910390fd5b611a10848484846126c2565b50505050565b6000603360089054906101000a900467ffffffffffffffff1667ffffffffffffffff1642118015611a665750603360109054906101000a900467ffffffffffffffff1667ffffffffffffffff1642105b905090565b603360109054906101000a900467ffffffffffffffff1681565b6060611a9082611dec565b611acf576040517f08c379a0000000000000000000000000000000000000000000000000000000008152600401611ac690614647565b60405180910390fd5b600e60009054906101000a900460ff16611b7357600d8054611af090613b04565b80601f0160208091040260200160405190810160405280929190818152602001828054611b1c90613b04565b8015611b695780601f10611b3e57610100808354040283529160200191611b69565b820191906000526020600020905b815481529060010190602001808311611b4c57829003601f168201915b5050505050611ba5565b611b7b61271e565b611b84836127b0565b604051602001611b959291906146ef565b6040516020818303038152906040525b9050919050565b611bb582610f22565b611bc681611bc1611e58565b612270565b611bd083836123ee565b505050565b60085481565b6000600560008473ffffffffffffffffffffffffffffffffffffffff1673ffffffffffffffffffffffffffffffffffffffff16815260200190815260200160002060008373ffffffffffffffffffffffffffffffffffffffff1673ffffffffffffffffffffffffffffffffffffffff16815260200190815260200160002060009054906101000a900460ff16905092915050565b6000611c79611e58565b9050611c886000801b82611866565b80611c9b5750611c9a60075482611866565b5b611cda576040517f08c379a0000000000000000000000000000000000000000000000000000000008152600401611cd190614275565b60405180910390fd5b603761ffff16603360049054906101000a900461ffff1661ffff1610611d35576040517f08c379a0000000000000000000000000000000000000000000000000000000008152600401611d2c9061476a565b60405180910390fd5b60005b8261ffff168161ffff161015611d6c57611d5984611d546107fb565b611f19565b8080611d6490613bf6565b915050611d38565b50505050565b60007f7965db0b000000000000000000000000000000000000000000000000000000007bffffffffffffffffffffffffffffffffffffffffffffffffffffffff1916827bffffffffffffffffffffffffffffffffffffffffffffffffffffffff19161480611de55750611de482612910565b5b9050919050565b60008073ffffffffffffffffffffffffffffffffffffffff166002600084815260200190815260200160002060009054906101000a900473ffffffffffffffffffffffffffffffffffffffff1673ffffffffffffffffffffffffffffffffffffffff1614159050919050565b600033905090565b816004600083815260200190815260200160002060006101000a81548173ffffffffffffffffffffffffffffffffffffffff021916908373ffffffffffffffffffffffffffffffffffffffff160217905550808273ffffffffffffffffffffffffffffffffffffffff16611ed3836113ff565b73ffffffffffffffffffffffffffffffffffffffff167f8c5be1e5ebec7d5bd14f71427d1e84f3dd0314c0f7b2291e5b200ac8c7c3b92560405160405180910390a45050565b611f338282604051806020016040528060008152506129f2565b5050565b6000611f4282611dec565b611f81576040517f08c379a0000000000000000000000000000000000000000000000000000000008152600401611f78906147fc565b60405180910390fd5b6000611f8c836113ff565b90508073ffffffffffffffffffffffffffffffffffffffff168473ffffffffffffffffffffffffffffffffffffffff161480611ffb57508373ffffffffffffffffffffffffffffffffffffffff16611fe384610776565b73ffffffffffffffffffffffffffffffffffffffff16145b8061200c575061200b8185611bdb565b5b91505092915050565b8273ffffffffffffffffffffffffffffffffffffffff16612035826113ff565b73ffffffffffffffffffffffffffffffffffffffff161461208b576040517f08c379a00000000000000000000000000000000000000000000000000000000081526004016120829061488e565b60405180910390fd5b600073ffffffffffffffffffffffffffffffffffffffff168273ffffffffffffffffffffffffffffffffffffffff16036120fa576040517f08c379a00000000000000000000000000000000000000000000000000000000081526004016120f190614920565b60405180910390fd5b612105838383612a4d565b612110600082611e60565b6001600360008573ffffffffffffffffffffffffffffffffffffffff1673ffffffffffffffffffffffffffffffffffffffff16815260200190815260200160002060008282546121609190613c20565b925050819055506001600360008473ffffffffffffffffffffffffffffffffffffffff1673ffffffffffffffffffffffffffffffffffffffff16815260200190815260200160002060008282546121b79190613e5d565b92505081905550816002600083815260200190815260200160002060006101000a81548173ffffffffffffffffffffffffffffffffffffffff021916908373ffffffffffffffffffffffffffffffffffffffff160217905550808273ffffffffffffffffffffffffffffffffffffffff168473ffffffffffffffffffffffffffffffffffffffff167fddf252ad1be2c89b69c2b068fc378daa952ba7f163c4a11628f55a4df523b3ef60405160405180910390a4505050565b61227a8282611866565b6123095761229f8173ffffffffffffffffffffffffffffffffffffffff166014612a52565b6122ad8360001c6020612a52565b6040516020016122be9291906149d8565b6040516020818303038152906040526040517f08c379a00000000000000000000000000000000000000000000000000000000081526004016123009190613334565b60405180910390fd5b5050565b6123178282611866565b6123ea5760016006600084815260200190815260200160002060000160008373ffffffffffffffffffffffffffffffffffffffff1673ffffffffffffffffffffffffffffffffffffffff16815260200190815260200160002060006101000a81548160ff02191690831515021790555061238f611e58565b73ffffffffffffffffffffffffffffffffffffffff168173ffffffffffffffffffffffffffffffffffffffff16837f2f8788117e7eff1d82e926ec794901d17c78024a50270940304540a733656f0d60405160405180910390a45b5050565b6123f88282611866565b156124cc5760006006600084815260200190815260200160002060000160008373ffffffffffffffffffffffffffffffffffffffff1673ffffffffffffffffffffffffffffffffffffffff16815260200190815260200160002060006101000a81548160ff021916908315150217905550612471611e58565b73ffffffffffffffffffffffffffffffffffffffff168173ffffffffffffffffffffffffffffffffffffffff16837ff6391f5c32d9c69d2a47ea670b442974b53935d1edc7fd64eb21e047a839171b60405160405180910390a45b5050565b60006001151561254a858580806020026020016040519081016040528093929190818152602001838360200280828437600081840152601f19601f820116905080830192505050505050506009548560405160200161252f9190614a12565b60405160208183030381529060405280519060200120612c8e565b15151490509392505050565b8173ffffffffffffffffffffffffffffffffffffffff168373ffffffffffffffffffffffffffffffffffffffff16036125c4576040517f08c379a00000000000000000000000000000000000000000000000000000000081526004016125bb90614a79565b60405180910390fd5b80600560008573ffffffffffffffffffffffffffffffffffffffff1673ffffffffffffffffffffffffffffffffffffffff16815260200190815260200160002060008473ffffffffffffffffffffffffffffffffffffffff1673ffffffffffffffffffffffffffffffffffffffff16815260200190815260200160002060006101000a81548160ff0219169083151502179055508173ffffffffffffffffffffffffffffffffffffffff168373ffffffffffffffffffffffffffffffffffffffff167f17307eab39ab6107e8899845ad3d59bd9653f200f220920489ca2b5937696c31836040516126b59190613280565b60405180910390a3505050565b6126cd848484612015565b6126d984848484612ca5565b612718576040517f08c379a000000000000000000000000000000000000000000000000000000000815260040161270f90614b0b565b60405180910390fd5b50505050565b6060600c805461272d90613b04565b80601f016020809104026020016040519081016040528092919081815260200182805461275990613b04565b80156127a65780601f1061277b576101008083540402835291602001916127a6565b820191906000526020600020905b81548152906001019060200180831161278957829003601f168201915b5050505050905090565b6060600082036127f7576040518060400160405280600181526020017f3000000000000000000000000000000000000000000000000000000000000000815250905061290b565b600082905060005b6000821461282957808061281290614b2b565b915050600a826128229190614b73565b91506127ff565b60008167ffffffffffffffff8111156128455761284461364b565b5b6040519080825280601f01601f1916602001820160405280156128775781602001600182028036833780820191505090505b5090505b60008514612904576001826128909190613c20565b9150600a8561289f9190613dfd565b60306128ab9190613e5d565b60f81b8183815181106128c1576128c0613e2e565b5b60200101907effffffffffffffffffffffffffffffffffffffffffffffffffffffffffffff1916908160001a905350600a856128fd9190614b73565b945061287b565b8093505050505b919050565b60007f80ac58cd000000000000000000000000000000000000000000000000000000007bffffffffffffffffffffffffffffffffffffffffffffffffffffffff1916827bffffffffffffffffffffffffffffffffffffffffffffffffffffffff191614806129db57507f5b5e139f000000000000000000000000000000000000000000000000000000007bffffffffffffffffffffffffffffffffffffffffffffffffffffffff1916827bffffffffffffffffffffffffffffffffffffffffffffffffffffffff1916145b806129eb57506129ea82612e2c565b5b9050919050565b6129fc8383612e96565b612a096000848484612ca5565b612a48576040517f08c379a0000000000000000000000000000000000000000000000000000000008152600401612a3f90614b0b565b60405180910390fd5b505050565b505050565b606060006002836002612a659190614ba4565b612a6f9190613e5d565b67ffffffffffffffff811115612a8857612a8761364b565b5b6040519080825280601f01601f191660200182016040528015612aba5781602001600182028036833780820191505090505b5090507f300000000000000000000000000000000000000000000000000000000000000081600081518110612af257612af1613e2e565b5b60200101907effffffffffffffffffffffffffffffffffffffffffffffffffffffffffffff1916908160001a9053507f780000000000000000000000000000000000000000000000000000000000000081600181518110612b5657612b55613e2e565b5b60200101907effffffffffffffffffffffffffffffffffffffffffffffffffffffffffffff1916908160001a90535060006001846002612b969190614ba4565b612ba09190613e5d565b90505b6001811115612c40577f3031323334353637383961626364656600000000000000000000000000000000600f861660108110612be257612be1613e2e565b5b1a60f81b828281518110612bf957612bf8613e2e565b5b60200101907effffffffffffffffffffffffffffffffffffffffffffffffffffffffffffff1916908160001a905350600485901c945080612c3990614bfe565b9050612ba3565b5060008414612c84576040517f08c379a0000000000000000000000000000000000000000000000000000000008152600401612c7b90614c73565b60405180910390fd5b8091505092915050565b600082612c9b8584613063565b1490509392505050565b6000612cc68473ffffffffffffffffffffffffffffffffffffffff16613116565b15612e1f578373ffffffffffffffffffffffffffffffffffffffff1663150b7a02612cef611e58565b8786866040518563ffffffff1660e01b8152600401612d119493929190614ce8565b6020604051808303816000875af1925050508015612d4d57506040513d601f19601f82011682018060405250810190612d4a9190614d49565b60015b612dcf573d8060008114612d7d576040519150601f19603f3d011682016040523d82523d6000602084013e612d82565b606091505b506000815103612dc7576040517f08c379a0000000000000000000000000000000000000000000000000000000008152600401612dbe90614b0b565b60405180910390fd5b805181602001fd5b63150b7a0260e01b7bffffffffffffffffffffffffffffffffffffffffffffffffffffffff1916817bffffffffffffffffffffffffffffffffffffffffffffffffffffffff191614915050612e24565b600190505b949350505050565b60007f01ffc9a7000000000000000000000000000000000000000000000000000000007bffffffffffffffffffffffffffffffffffffffffffffffffffffffff1916827bffffffffffffffffffffffffffffffffffffffffffffffffffffffff1916149050919050565b600073ffffffffffffffffffffffffffffffffffffffff168273ffffffffffffffffffffffffffffffffffffffff1603612f05576040517f08c379a0000000000000000000000000000000000000000000000000000000008152600401612efc90614dc2565b60405180910390fd5b612f0e81611dec565b15612f4e576040517f08c379a0000000000000000000000000000000000000000000000000000000008152600401612f4590614e2e565b60405180910390fd5b612f5a60008383612a4d565b6001600360008473ffffffffffffffffffffffffffffffffffffffff1673ffffffffffffffffffffffffffffffffffffffff1681526020019081526020016000206000828254612faa9190613e5d565b92505081905550816002600083815260200190815260200160002060006101000a81548173ffffffffffffffffffffffffffffffffffffffff021916908373ffffffffffffffffffffffffffffffffffffffff160217905550808273ffffffffffffffffffffffffffffffffffffffff16600073ffffffffffffffffffffffffffffffffffffffff167fddf252ad1be2c89b69c2b068fc378daa952ba7f163c4a11628f55a4df523b3ef60405160405180910390a45050565b60008082905060005b845181101561310b57600085828151811061308a57613089613e2e565b5b602002602001015190508083116130cb5782816040516020016130ae929190614e4e565b6040516020818303038152906040528051906020012092506130f7565b80836040516020016130de929190614e4e565b6040516020818303038152906040528051906020012092505b50808061310390614b2b565b91505061306c565b508091505092915050565b600080823b905060008111915050919050565b82805461313590613b04565b90600052602060002090601f016020900481019282613157576000855561319e565b82601f1061317057805160ff191683800117855561319e565b8280016001018555821561319e579182015b8281111561319d578251825591602001919060010190613182565b5b5090506131ab91906131af565b5090565b5b808211156131c85760008160009055506001016131b0565b5090565b6000604051905090565b600080fd5b600080fd5b60007fffffffff0000000000000000000000000000000000000000000000000000000082169050919050565b613215816131e0565b811461322057600080fd5b50565b6000813590506132328161320c565b92915050565b60006020828403121561324e5761324d6131d6565b5b600061325c84828501613223565b91505092915050565b60008115159050919050565b61327a81613265565b82525050565b60006020820190506132956000830184613271565b92915050565b600081519050919050565b600082825260208201905092915050565b60005b838110156132d55780820151818401526020810190506132ba565b838111156132e4576000848401525b50505050565b6000601f19601f8301169050919050565b60006133068261329b565b61331081856132a6565b93506133208185602086016132b7565b613329816132ea565b840191505092915050565b6000602082019050818103600083015261334e81846132fb565b905092915050565b6000819050919050565b61336981613356565b811461337457600080fd5b50565b60008135905061338681613360565b92915050565b6000602082840312156133a2576133a16131d6565b5b60006133b084828501613377565b91505092915050565b600073ffffffffffffffffffffffffffffffffffffffff82169050919050565b60006133e4826133b9565b9050919050565b6133f4816133d9565b82525050565b600060208201905061340f60008301846133eb565b92915050565b61341e81613356565b82525050565b60006020820190506134396000830184613415565b92915050565b613448816133d9565b811461345357600080fd5b50565b6000813590506134658161343f565b92915050565b60008060408385031215613482576134816131d6565b5b600061349085828601613456565b92505060206134a185828601613377565b9150509250929050565b600067ffffffffffffffff82169050919050565b6134c8816134ab565b82525050565b60006020820190506134e360008301846134bf565b92915050565b600061ffff82169050919050565b613500816134e9565b82525050565b600060208201905061351b60008301846134f7565b92915050565b60008060006060848603121561353a576135396131d6565b5b600061354886828701613456565b935050602061355986828701613456565b925050604061356a86828701613377565b9150509250925092565b6000819050919050565b61358781613574565b811461359257600080fd5b50565b6000813590506135a48161357e565b92915050565b6000602082840312156135c0576135bf6131d6565b5b60006135ce84828501613595565b91505092915050565b6135e081613574565b82525050565b60006020820190506135fb60008301846135d7565b92915050565b60008060408385031215613618576136176131d6565b5b600061362685828601613595565b925050602061363785828601613456565b9150509250929050565b600080fd5b600080fd5b7f4e487b7100000000000000000000000000000000000000000000000000000000600052604160045260246000fd5b613683826132ea565b810181811067ffffffffffffffff821117156136a2576136a161364b565b5b80604052505050565b60006136b56131cc565b90506136c1828261367a565b919050565b600067ffffffffffffffff8211156136e1576136e061364b565b5b6136ea826132ea565b9050602081019050919050565b82818337600083830152505050565b6000613719613714846136c6565b6136ab565b90508281526020810184848401111561373557613734613646565b5b6137408482856136f7565b509392505050565b600082601f83011261375d5761375c613641565b5b813561376d848260208601613706565b91505092915050565b60006020828403121561378c5761378b6131d6565b5b600082013567ffffffffffffffff8111156137aa576137a96131db565b5b6137b684828501613748565b91505092915050565b600080fd5b600080fd5b60008083601f8401126137df576137de613641565b5b8235905067ffffffffffffffff8111156137fc576137fb6137bf565b5b602083019150836020820283011115613818576138176137c4565b5b9250929050565b60008060208385031215613836576138356131d6565b5b600083013567ffffffffffffffff811115613854576138536131db565b5b613860858286016137c9565b92509250509250929050565b600060208284031215613882576138816131d6565b5b600061389084828501613456565b91505092915050565b6138a281613265565b81146138ad57600080fd5b50565b6000813590506138bf81613899565b92915050565b600080604083850312156138dc576138db6131d6565b5b60006138ea85828601613456565b92505060206138fb858286016138b0565b9150509250929050565b600067ffffffffffffffff8211156139205761391f61364b565b5b613929826132ea565b9050602081019050919050565b600061394961394484613905565b6136ab565b90508281526020810184848401111561396557613964613646565b5b6139708482856136f7565b509392505050565b600082601f83011261398d5761398c613641565b5b813561399d848260208601613936565b91505092915050565b600080600080608085870312156139c0576139bf6131d6565b5b60006139ce87828801613456565b94505060206139df87828801613456565b93505060406139f087828801613377565b925050606085013567ffffffffffffffff811115613a1157613a106131db565b5b613a1d87828801613978565b91505092959194509250565b60008060408385031215613a4057613a3f6131d6565b5b6000613a4e85828601613456565b9250506020613a5f85828601613456565b9150509250929050565b613a72816134e9565b8114613a7d57600080fd5b50565b600081359050613a8f81613a69565b92915050565b60008060408385031215613aac57613aab6131d6565b5b6000613aba85828601613456565b9250506020613acb85828601613a80565b9150509250929050565b7f4e487b7100000000000000000000000000000000000000000000000000000000600052602260045260246000fd5b60006002820490506001821680613b1c57607f821691505b602082108103613b2f57613b2e613ad5565b5b50919050565b7f4552433732313a20617070726f76656420717565727920666f72206e6f6e657860008201527f697374656e7420746f6b656e0000000000000000000000000000000000000000602082015250565b6000613b91602c836132a6565b9150613b9c82613b35565b604082019050919050565b60006020820190508181036000830152613bc081613b84565b9050919050565b7f4e487b7100000000000000000000000000000000000000000000000000000000600052601160045260246000fd5b6000613c01826134e9565b915061ffff8203613c1557613c14613bc7565b5b600182019050919050565b6000613c2b82613356565b9150613c3683613356565b925082821015613c4957613c48613bc7565b5b828203905092915050565b60008160f01b9050919050565b6000613c6c82613c54565b9050919050565b613c84613c7f826134e9565b613c61565b82525050565b60008160601b9050919050565b6000613ca282613c8a565b9050919050565b6000613cb482613c97565b9050919050565b613ccc613cc7826133d9565b613ca9565b82525050565b6000819050919050565b613ced613ce882613356565b613cd2565b82525050565b6000819050919050565b613d0e613d0982613574565b613cf3565b82525050565b6000613d208287613c73565b600282019150613d308286613cbb565b601482019150613d408285613cdc565b602082019150613d508284613cfd565b60208201915081905095945050505050565b7f6e6f205f7465616d496473206c65667400000000000000000000000000000000600082015250565b6000613d986010836132a6565b9150613da382613d62565b602082019050919050565b60006020820190508181036000830152613dc781613d8b565b9050919050565b7f4e487b7100000000000000000000000000000000000000000000000000000000600052601260045260246000fd5b6000613e0882613356565b9150613e1383613356565b925082613e2357613e22613dce565b5b828206905092915050565b7f4e487b7100000000000000000000000000000000000000000000000000000000600052603260045260246000fd5b6000613e6882613356565b9150613e7383613356565b9250827fffffffffffffffffffffffffffffffffffffffffffffffffffffffffffffffff03821115613ea857613ea7613bc7565b5b828201905092915050565b7f4552433732313a20617070726f76616c20746f2063757272656e74206f776e6560008201527f7200000000000000000000000000000000000000000000000000000000000000602082015250565b6000613f0f6021836132a6565b9150613f1a82613eb3565b604082019050919050565b60006020820190508181036000830152613f3e81613f02565b9050919050565b7f4552433732313a20617070726f76652063616c6c6572206973206e6f74206f7760008201527f6e6572206e6f7220617070726f76656420666f7220616c6c0000000000000000602082015250565b6000613fa16038836132a6565b9150613fac82613f45565b604082019050919050565b60006020820190508181036000830152613fd081613f94565b9050919050565b7f5055424c49435f53414c455f494e414354495645000000000000000000000000600082015250565b600061400d6014836132a6565b915061401882613fd7565b602082019050919050565b6000602082019050818103600083015261403c81614000565b9050919050565b600060ff82169050919050565b600061405b82614043565b915061406683614043565b92508260ff0382111561407c5761407b613bc7565b5b828201905092915050565b7f5055424c49435f544f4b454e5f4c494d49540000000000000000000000000000600082015250565b60006140bd6012836132a6565b91506140c882614087565b602082019050919050565b600060208201905081810360008301526140ec816140b0565b9050919050565b60006140fe826134e9565b9150614109836134e9565b92508261ffff038211156141205761411f613bc7565b5b828201905092915050565b7f455843454544535f434f4c4c454354494f4e5f53495a45000000000000000000600082015250565b60006141616017836132a6565b915061416c8261412b565b602082019050919050565b6000602082019050818103600083015261419081614154565b9050919050565b7f4552433732313a207472616e736665722063616c6c6572206973206e6f74206f60008201527f776e6572206e6f7220617070726f766564000000000000000000000000000000602082015250565b60006141f36031836132a6565b91506141fe82614197565b604082019050919050565b60006020820190508181036000830152614222816141e6565b9050919050565b7f4d75737420626520616e2061646d696e00000000000000000000000000000000600082015250565b600061425f6010836132a6565b915061426a82614229565b602082019050919050565b6000602082019050818103600083015261428e81614252565b9050919050565b7f416363657373436f6e74726f6c3a2063616e206f6e6c792072656e6f756e636560008201527f20726f6c657320666f722073656c660000000000000000000000000000000000602082015250565b60006142f1602f836132a6565b91506142fc82614295565b604082019050919050565b60006020820190508181036000830152614320816142e4565b9050919050565b7f50524553414c455f494e41435449564500000000000000000000000000000000600082015250565b600061435d6010836132a6565b915061436882614327565b602082019050919050565b6000602082019050818103600083015261438c81614350565b9050919050565b7f50524553414c455f4e4f545f5645524946494544000000000000000000000000600082015250565b60006143c96014836132a6565b91506143d482614393565b602082019050919050565b600060208201905081810360008301526143f8816143bc565b9050919050565b7f57484954454c4953545f544f4b454e5f434c41494d4544000000000000000000600082015250565b60006144356017836132a6565b9150614440826143ff565b602082019050919050565b6000602082019050818103600083015261446481614428565b9050919050565b7f4552433732313a206f776e657220717565727920666f72206e6f6e657869737460008201527f656e7420746f6b656e0000000000000000000000000000000000000000000000602082015250565b60006144c76029836132a6565b91506144d28261446b565b604082019050919050565b600060208201905081810360008301526144f6816144ba565b9050919050565b7f6e6f205f636f6d6d756e697479496473206c6566740000000000000000000000600082015250565b60006145336015836132a6565b915061453e826144fd565b602082019050919050565b6000602082019050818103600083015261456281614526565b9050919050565b7f4552433732313a2062616c616e636520717565727920666f7220746865207a6560008201527f726f206164647265737300000000000000000000000000000000000000000000602082015250565b60006145c5602a836132a6565b91506145d082614569565b604082019050919050565b600060208201905081810360008301526145f4816145b8565b9050919050565b7f494e56414c49445f494400000000000000000000000000000000000000000000600082015250565b6000614631600a836132a6565b915061463c826145fb565b602082019050919050565b6000602082019050818103600083015261466081614624565b9050919050565b600081905092915050565b600061467d8261329b565b6146878185614667565b93506146978185602086016132b7565b80840191505092915050565b7f2e6a736f6e000000000000000000000000000000000000000000000000000000600082015250565b60006146d9600583614667565b91506146e4826146a3565b600582019050919050565b60006146fb8285614672565b91506147078284614672565b9150614712826146cc565b91508190509392505050565b7f41697264726f70206c696d697420726561636865640000000000000000000000600082015250565b60006147546015836132a6565b915061475f8261471e565b602082019050919050565b6000602082019050818103600083015261478381614747565b9050919050565b7f4552433732313a206f70657261746f7220717565727920666f72206e6f6e657860008201527f697374656e7420746f6b656e0000000000000000000000000000000000000000602082015250565b60006147e6602c836132a6565b91506147f18261478a565b604082019050919050565b60006020820190508181036000830152614815816147d9565b9050919050565b7f4552433732313a207472616e73666572206f6620746f6b656e2074686174206960008201527f73206e6f74206f776e0000000000000000000000000000000000000000000000602082015250565b60006148786029836132a6565b91506148838261481c565b604082019050919050565b600060208201905081810360008301526148a78161486b565b9050919050565b7f4552433732313a207472616e7366657220746f20746865207a65726f2061646460008201527f7265737300000000000000000000000000000000000000000000000000000000602082015250565b600061490a6024836132a6565b9150614915826148ae565b604082019050919050565b60006020820190508181036000830152614939816148fd565b9050919050565b7f416363657373436f6e74726f6c3a206163636f756e7420000000000000000000600082015250565b6000614976601783614667565b915061498182614940565b601782019050919050565b7f206973206d697373696e6720726f6c6520000000000000000000000000000000600082015250565b60006149c2601183614667565b91506149cd8261498c565b601182019050919050565b60006149e382614969565b91506149ef8285614672565b91506149fa826149b5565b9150614a068284614672565b91508190509392505050565b6000614a1e8284613cbb565b60148201915081905092915050565b7f4552433732313a20617070726f766520746f2063616c6c657200000000000000600082015250565b6000614a636019836132a6565b9150614a6e82614a2d565b602082019050919050565b60006020820190508181036000830152614a9281614a56565b9050919050565b7f4552433732313a207472616e7366657220746f206e6f6e20455243373231526560008201527f63656976657220696d706c656d656e7465720000000000000000000000000000602082015250565b6000614af56032836132a6565b9150614b0082614a99565b604082019050919050565b60006020820190508181036000830152614b2481614ae8565b9050919050565b6000614b3682613356565b91507fffffffffffffffffffffffffffffffffffffffffffffffffffffffffffffffff8203614b6857614b67613bc7565b5b600182019050919050565b6000614b7e82613356565b9150614b8983613356565b925082614b9957614b98613dce565b5b828204905092915050565b6000614baf82613356565b9150614bba83613356565b9250817fffffffffffffffffffffffffffffffffffffffffffffffffffffffffffffffff0483118215151615614bf357614bf2613bc7565b5b828202905092915050565b6000614c0982613356565b915060008203614c1c57614c1b613bc7565b5b600182039050919050565b7f537472696e67733a20686578206c656e67746820696e73756666696369656e74600082015250565b6000614c5d6020836132a6565b9150614c6882614c27565b602082019050919050565b60006020820190508181036000830152614c8c81614c50565b9050919050565b600081519050919050565b600082825260208201905092915050565b6000614cba82614c93565b614cc48185614c9e565b9350614cd48185602086016132b7565b614cdd816132ea565b840191505092915050565b6000608082019050614cfd60008301876133eb565b614d0a60208301866133eb565b614d176040830185613415565b8181036060830152614d298184614caf565b905095945050505050565b600081519050614d438161320c565b92915050565b600060208284031215614d5f57614d5e6131d6565b5b6000614d6d84828501614d34565b91505092915050565b7f4552433732313a206d696e7420746f20746865207a65726f2061646472657373600082015250565b6000614dac6020836132a6565b9150614db782614d76565b602082019050919050565b60006020820190508181036000830152614ddb81614d9f565b9050919050565b7f4552433732313a20746f6b656e20616c7265616479206d696e74656400000000600082015250565b6000614e18601c836132a6565b9150614e2382614de2565b602082019050919050565b60006020820190508181036000830152614e4781614e0b565b9050919050565b6000614e5a8285613cfd565b602082019150614e6a8284613cfd565b602082019150819050939250505056fea264697066735822122011c0a45a668e413eae3cc6fe1c30e4148b950e6cb3ee069f873c87ceceea9a9464736f6c634300080d0033",
  "linkReferences": {},
  "deployedLinkReferences": {}
}