{
  "_format": "hh-sol-artifact-1",
  "contractName": "FifthDimensionMock",
  "sourceName": "contracts/mocks/FifthDimensionMock.sol",
  "abi": [
    {
      "inputs": [
        {
          "internalType": "uint256",
          "name": "_whitelistStart",
          "type": "uint256"
        },
        {
          "internalType": "uint256",
          "name": "_whitelistEnd",
          "type": "uint256"
        },
        {
          "internalType": "uint256",
          "name": "_publicStart",
          "type": "uint256"
        },
        {
          "internalType": "uint256",
          "name": "_publicEnd",
          "type": "uint256"
        },
        {
          "internalType": "bytes32",
          "name": "whitelistMerkleRoot",
          "type": "bytes32"
        },
        {
          "internalType": "string",
          "name": "name",
          "type": "string"
        },
        {
          "internalType": "string",
          "name": "symbol",
          "type": "string"
        },
        {
          "internalType": "string",
          "name": "tempUri",
          "type": "string"
        }
      ],
      "stateMutability": "nonpayable",
      "type": "constructor"
    },
    {
      "anonymous": false,
      "inputs": [
        {
          "indexed": true,
          "internalType": "address",
          "name": "owner",
          "type": "address"
        },
        {
          "indexed": true,
          "internalType": "address",
          "name": "approved",
          "type": "address"
        },
        {
          "indexed": true,
          "internalType": "uint256",
          "name": "tokenId",
          "type": "uint256"
        }
      ],
      "name": "Approval",
      "type": "event"
    },
    {
      "anonymous": false,
      "inputs": [
        {
          "indexed": true,
          "internalType": "address",
          "name": "owner",
          "type": "address"
        },
        {
          "indexed": true,
          "internalType": "address",
          "name": "operator",
          "type": "address"
        },
        {
          "indexed": false,
          "internalType": "bool",
          "name": "approved",
          "type": "bool"
        }
      ],
      "name": "ApprovalForAll",
      "type": "event"
    },
    {
      "anonymous": false,
      "inputs": [
        {
          "indexed": true,
          "internalType": "bytes32",
          "name": "role",
          "type": "bytes32"
        },
        {
          "indexed": true,
          "internalType": "bytes32",
          "name": "previousAdminRole",
          "type": "bytes32"
        },
        {
          "indexed": true,
          "internalType": "bytes32",
          "name": "newAdminRole",
          "type": "bytes32"
        }
      ],
      "name": "RoleAdminChanged",
      "type": "event"
    },
    {
      "anonymous": false,
      "inputs": [
        {
          "indexed": true,
          "internalType": "bytes32",
          "name": "role",
          "type": "bytes32"
        },
        {
          "indexed": true,
          "internalType": "address",
          "name": "account",
          "type": "address"
        },
        {
          "indexed": true,
          "internalType": "address",
          "name": "sender",
          "type": "address"
        }
      ],
      "name": "RoleGranted",
      "type": "event"
    },
    {
      "anonymous": false,
      "inputs": [
        {
          "indexed": true,
          "internalType": "bytes32",
          "name": "role",
          "type": "bytes32"
        },
        {
          "indexed": true,
          "internalType": "address",
          "name": "account",
          "type": "address"
        },
        {
          "indexed": true,
          "internalType": "address",
          "name": "sender",
          "type": "address"
        }
      ],
      "name": "RoleRevoked",
      "type": "event"
    },
    {
      "anonymous": false,
      "inputs": [
        {
          "indexed": false,
          "internalType": "uint256",
          "name": "tokenId",
          "type": "uint256"
        }
      ],
      "name": "TokenId",
      "type": "event"
    },
    {
      "anonymous": false,
      "inputs": [
        {
          "indexed": true,
          "internalType": "address",
          "name": "from",
          "type": "address"
        },
        {
          "indexed": true,
          "internalType": "address",
          "name": "to",
          "type": "address"
        },
        {
          "indexed": true,
          "internalType": "uint256",
          "name": "tokenId",
          "type": "uint256"
        }
      ],
      "name": "Transfer",
      "type": "event"
    },
    {
      "inputs": [],
      "name": "ADMIN_ROLE",
      "outputs": [
        {
          "internalType": "bytes32",
          "name": "",
          "type": "bytes32"
        }
      ],
      "stateMutability": "view",
      "type": "function"
    },
    {
      "inputs": [],
      "name": "DEFAULT_ADMIN_ROLE",
      "outputs": [
        {
          "internalType": "bytes32",
          "name": "",
          "type": "bytes32"
        }
      ],
      "stateMutability": "view",
      "type": "function"
    },
    {
      "inputs": [],
      "name": "MOD_ROLE",
      "outputs": [
        {
          "internalType": "bytes32",
          "name": "",
          "type": "bytes32"
        }
      ],
      "stateMutability": "view",
      "type": "function"
    },
    {
      "inputs": [
        {
          "internalType": "address",
          "name": "to",
          "type": "address"
        },
        {
          "internalType": "uint16",
          "name": "quantity",
          "type": "uint16"
        }
      ],
      "name": "airdrop",
      "outputs": [],
      "stateMutability": "nonpayable",
      "type": "function"
    },
    {
      "inputs": [
        {
          "internalType": "address",
          "name": "to",
          "type": "address"
        },
        {
          "internalType": "uint256",
          "name": "tokenId",
          "type": "uint256"
        }
      ],
      "name": "approve",
      "outputs": [],
      "stateMutability": "nonpayable",
      "type": "function"
    },
    {
      "inputs": [
        {
          "internalType": "address",
          "name": "owner",
          "type": "address"
        }
      ],
      "name": "balanceOf",
      "outputs": [
        {
          "internalType": "uint256",
          "name": "",
          "type": "uint256"
        }
      ],
      "stateMutability": "view",
      "type": "function"
    },
    {
      "inputs": [
        {
          "internalType": "uint256",
          "name": "tokenId",
          "type": "uint256"
        }
      ],
      "name": "getApproved",
      "outputs": [
        {
          "internalType": "address",
          "name": "",
          "type": "address"
        }
      ],
      "stateMutability": "view",
      "type": "function"
    },
    {
      "inputs": [
        {
          "internalType": "bytes32",
          "name": "role",
          "type": "bytes32"
        }
      ],
      "name": "getRoleAdmin",
      "outputs": [
        {
          "internalType": "bytes32",
          "name": "",
          "type": "bytes32"
        }
      ],
      "stateMutability": "view",
      "type": "function"
    },
    {
      "inputs": [
        {
          "internalType": "bytes32",
          "name": "role",
          "type": "bytes32"
        },
        {
          "internalType": "address",
          "name": "account",
          "type": "address"
        }
      ],
      "name": "grantRole",
      "outputs": [],
      "stateMutability": "nonpayable",
      "type": "function"
    },
    {
      "inputs": [
        {
          "internalType": "bytes32",
          "name": "role",
          "type": "bytes32"
        },
        {
          "internalType": "address",
          "name": "account",
          "type": "address"
        }
      ],
      "name": "hasRole",
      "outputs": [
        {
          "internalType": "bool",
          "name": "",
          "type": "bool"
        }
      ],
      "stateMutability": "view",
      "type": "function"
    },
    {
      "inputs": [
        {
          "internalType": "address",
          "name": "owner",
          "type": "address"
        },
        {
          "internalType": "address",
          "name": "operator",
          "type": "address"
        }
      ],
      "name": "isApprovedForAll",
      "outputs": [
        {
          "internalType": "bool",
          "name": "",
          "type": "bool"
        }
      ],
      "stateMutability": "view",
      "type": "function"
    },
    {
      "inputs": [],
      "name": "isPublicSaleActive",
      "outputs": [
        {
          "internalType": "bool",
          "name": "",
          "type": "bool"
        }
      ],
      "stateMutability": "view",
      "type": "function"
    },
    {
      "inputs": [],
      "name": "isWhitelistSaleActive",
      "outputs": [
        {
          "internalType": "bool",
          "name": "",
          "type": "bool"
        }
      ],
      "stateMutability": "view",
      "type": "function"
    },
    {
      "inputs": [],
      "name": "mint",
      "outputs": [],
      "stateMutability": "nonpayable",
      "type": "function"
    },
    {
      "inputs": [],
      "name": "name",
      "outputs": [
        {
          "internalType": "string",
          "name": "",
          "type": "string"
        }
      ],
      "stateMutability": "view",
      "type": "function"
    },
    {
      "inputs": [
        {
          "internalType": "bool",
          "name": "publicSale",
          "type": "bool"
        },
        {
          "internalType": "bool",
          "name": "privateSale",
          "type": "bool"
        }
      ],
      "name": "overrideSales",
      "outputs": [],
      "stateMutability": "nonpayable",
      "type": "function"
    },
    {
      "inputs": [
        {
          "internalType": "uint256",
          "name": "tokenId",
          "type": "uint256"
        }
      ],
      "name": "ownerOf",
      "outputs": [
        {
          "internalType": "address",
          "name": "",
          "type": "address"
        }
      ],
      "stateMutability": "view",
      "type": "function"
    },
    {
      "inputs": [],
      "name": "pickRandomCommunityUniqueId",
      "outputs": [
        {
          "internalType": "uint256",
          "name": "id",
          "type": "uint256"
        }
      ],
      "stateMutability": "nonpayable",
      "type": "function"
    },
    {
      "inputs": [],
      "name": "pickRandomTeamUniqueId",
      "outputs": [
        {
          "internalType": "uint256",
          "name": "id",
          "type": "uint256"
        }
      ],
      "stateMutability": "nonpayable",
      "type": "function"
    },
    {
      "inputs": [],
      "name": "publicEnd",
      "outputs": [
        {
          "internalType": "uint256",
          "name": "",
          "type": "uint256"
        }
      ],
      "stateMutability": "view",
      "type": "function"
    },
    {
      "inputs": [],
      "name": "publicStart",
      "outputs": [
        {
          "internalType": "uint256",
          "name": "",
          "type": "uint256"
        }
      ],
      "stateMutability": "view",
      "type": "function"
    },
    {
      "inputs": [
        {
          "internalType": "bytes32",
          "name": "role",
          "type": "bytes32"
        },
        {
          "internalType": "address",
          "name": "account",
          "type": "address"
        }
      ],
      "name": "renounceRole",
      "outputs": [],
      "stateMutability": "nonpayable",
      "type": "function"
    },
    {
      "inputs": [],
      "name": "revealed",
      "outputs": [
        {
          "internalType": "uint256",
          "name": "",
          "type": "uint256"
        }
      ],
      "stateMutability": "view",
      "type": "function"
    },
    {
      "inputs": [
        {
          "internalType": "bytes32",
          "name": "role",
          "type": "bytes32"
        },
        {
          "internalType": "address",
          "name": "account",
          "type": "address"
        }
      ],
      "name": "revokeRole",
      "outputs": [],
      "stateMutability": "nonpayable",
      "type": "function"
    },
    {
      "inputs": [
        {
          "internalType": "address",
          "name": "from",
          "type": "address"
        },
        {
          "internalType": "address",
          "name": "to",
          "type": "address"
        },
        {
          "internalType": "uint256",
          "name": "tokenId",
          "type": "uint256"
        }
      ],
      "name": "safeTransferFrom",
      "outputs": [],
      "stateMutability": "nonpayable",
      "type": "function"
    },
    {
      "inputs": [
        {
          "internalType": "address",
          "name": "from",
          "type": "address"
        },
        {
          "internalType": "address",
          "name": "to",
          "type": "address"
        },
        {
          "internalType": "uint256",
          "name": "tokenId",
          "type": "uint256"
        },
        {
          "internalType": "bytes",
          "name": "_data",
          "type": "bytes"
        }
      ],
      "name": "safeTransferFrom",
      "outputs": [],
      "stateMutability": "nonpayable",
      "type": "function"
    },
    {
      "inputs": [
        {
          "internalType": "address",
          "name": "operator",
          "type": "address"
        },
        {
          "internalType": "bool",
          "name": "approved",
          "type": "bool"
        }
      ],
      "name": "setApprovalForAll",
      "outputs": [],
      "stateMutability": "nonpayable",
      "type": "function"
    },
    {
      "inputs": [
        {
          "internalType": "string",
          "name": "baseUri",
          "type": "string"
        }
      ],
      "name": "setBaseURI",
      "outputs": [],
      "stateMutability": "nonpayable",
      "type": "function"
    },
    {
      "inputs": [
        {
          "internalType": "string",
          "name": "tempUri",
          "type": "string"
        }
      ],
      "name": "setPlaceholderURI",
      "outputs": [],
      "stateMutability": "nonpayable",
      "type": "function"
    },
    {
      "inputs": [
        {
          "internalType": "bytes4",
          "name": "interfaceId",
          "type": "bytes4"
        }
      ],
      "name": "supportsInterface",
      "outputs": [
        {
          "internalType": "bool",
          "name": "",
          "type": "bool"
        }
      ],
      "stateMutability": "view",
      "type": "function"
    },
    {
      "inputs": [],
      "name": "symbol",
      "outputs": [
        {
          "internalType": "string",
          "name": "",
          "type": "string"
        }
      ],
      "stateMutability": "view",
      "type": "function"
    },
    {
      "inputs": [],
      "name": "toggleReveal",
      "outputs": [],
      "stateMutability": "nonpayable",
      "type": "function"
    },
    {
      "inputs": [
        {
          "internalType": "uint256",
          "name": "id",
          "type": "uint256"
        }
      ],
      "name": "tokenURI",
      "outputs": [
        {
          "internalType": "string",
          "name": "",
          "type": "string"
        }
      ],
      "stateMutability": "view",
      "type": "function"
    },
    {
      "inputs": [],
      "name": "totalSupply",
      "outputs": [
        {
          "internalType": "uint256",
          "name": "",
          "type": "uint256"
        }
      ],
      "stateMutability": "view",
      "type": "function"
    },
    {
      "inputs": [
        {
          "internalType": "address",
          "name": "from",
          "type": "address"
        },
        {
          "internalType": "address",
          "name": "to",
          "type": "address"
        },
        {
          "internalType": "uint256",
          "name": "tokenId",
          "type": "uint256"
        }
      ],
      "name": "transferFrom",
      "outputs": [],
      "stateMutability": "nonpayable",
      "type": "function"
    },
    {
      "inputs": [],
      "name": "whitelistEnd",
      "outputs": [
        {
          "internalType": "uint256",
          "name": "",
          "type": "uint256"
        }
      ],
      "stateMutability": "view",
      "type": "function"
    },
    {
      "inputs": [
        {
          "internalType": "bytes32[]",
          "name": "_merkleProof",
          "type": "bytes32[]"
        }
      ],
      "name": "whitelistMint",
      "outputs": [],
      "stateMutability": "nonpayable",
      "type": "function"
    },
    {
      "inputs": [],
      "name": "whitelistStart",
      "outputs": [
        {
          "internalType": "uint256",
          "name": "",
          "type": "uint256"
        }
      ],
      "stateMutability": "view",
      "type": "function"
    }
  ],
  "bytecode": "0x60806040527fa49807205ce4d355092ef5a8a18f56e8913cf4a201fbe287825b095693c217756007557f950b8f2d7415defaee398bb4898e8e094a64c725873b81952b7ab9f08d70efb36008553480156200005957600080fd5b50604051620053763803806200537683398181016040528101906200007f9190620006c1565b8282816000908051906020019062000099929190620003fe565b508060019080519060200190620000b2929190620003fe565b5050508360098190555080600d9080519060200190620000d4929190620003fe565b5060004290508089116200011f576040517f08c379a0000000000000000000000000000000000000000000000000000000008152600401620001169062000848565b60405180910390fd5b80881180156200013157506102405488115b62000173576040517f08c379a00000000000000000000000000000000000000000000000000000000081526004016200016a90620008ba565b60405180910390fd5b886102408190555087610241819055508087118015620001935750878710155b620001d5576040517f08c379a0000000000000000000000000000000000000000000000000000000008152600401620001cc906200092c565b60405180910390fd5b8086118015620001e457508686115b62000226576040517f08c379a00000000000000000000000000000000000000000000000000000000081526004016200021d906200099e565b60405180910390fd5b866102428190555085610243819055506000620002486200028360201b60201c565b90506200025f6000801b826200028b60201b60201c565b62000273600754826200028b60201b60201c565b5050505050505050505062000a24565b600033905090565b6200029d8282620002a160201b60201c565b5050565b620002b382826200039360201b60201c565b6200038f5760016006600084815260200190815260200160002060000160008373ffffffffffffffffffffffffffffffffffffffff1673ffffffffffffffffffffffffffffffffffffffff16815260200190815260200160002060006101000a81548160ff021916908315150217905550620003346200028360201b60201c565b73ffffffffffffffffffffffffffffffffffffffff168173ffffffffffffffffffffffffffffffffffffffff16837f2f8788117e7eff1d82e926ec794901d17c78024a50270940304540a733656f0d60405160405180910390a45b5050565b60006006600084815260200190815260200160002060000160008373ffffffffffffffffffffffffffffffffffffffff1673ffffffffffffffffffffffffffffffffffffffff16815260200190815260200160002060009054906101000a900460ff16905092915050565b8280546200040c90620009ef565b90600052602060002090601f0160209004810192826200043057600085556200047c565b82601f106200044b57805160ff19168380011785556200047c565b828001600101855582156200047c579182015b828111156200047b5782518255916020019190600101906200045e565b5b5090506200048b91906200048f565b5090565b5b80821115620004aa57600081600090555060010162000490565b5090565b6000604051905090565b600080fd5b600080fd5b6000819050919050565b620004d781620004c2565b8114620004e357600080fd5b50565b600081519050620004f781620004cc565b92915050565b6000819050919050565b6200051281620004fd565b81146200051e57600080fd5b50565b600081519050620005328162000507565b92915050565b600080fd5b600080fd5b6000601f19601f8301169050919050565b7f4e487b7100000000000000000000000000000000000000000000000000000000600052604160045260246000fd5b6200058d8262000542565b810181811067ffffffffffffffff82111715620005af57620005ae62000553565b5b80604052505050565b6000620005c4620004ae565b9050620005d2828262000582565b919050565b600067ffffffffffffffff821115620005f557620005f462000553565b5b620006008262000542565b9050602081019050919050565b60005b838110156200062d57808201518184015260208101905062000610565b838111156200063d576000848401525b50505050565b60006200065a6200065484620005d7565b620005b8565b9050828152602081018484840111156200067957620006786200053d565b5b620006868482856200060d565b509392505050565b600082601f830112620006a657620006a562000538565b5b8151620006b884826020860162000643565b91505092915050565b600080600080600080600080610100898b031215620006e557620006e4620004b8565b5b6000620006f58b828c01620004e6565b9850506020620007088b828c01620004e6565b97505060406200071b8b828c01620004e6565b96505060606200072e8b828c01620004e6565b9550506080620007418b828c0162000521565b94505060a089015167ffffffffffffffff811115620007655762000764620004bd565b5b620007738b828c016200068e565b93505060c089015167ffffffffffffffff811115620007975762000796620004bd565b5b620007a58b828c016200068e565b92505060e089015167ffffffffffffffff811115620007c957620007c8620004bd565b5b620007d78b828c016200068e565b9150509295985092959890939650565b600082825260208201905092915050565b7f57726f6e672077686974656c6973742073746172740000000000000000000000600082015250565b600062000830601583620007e7565b91506200083d82620007f8565b602082019050919050565b60006020820190508181036000830152620008638162000821565b9050919050565b7f57726f6e672077686974656c69737420656e6400000000000000000000000000600082015250565b6000620008a2601383620007e7565b9150620008af826200086a565b602082019050919050565b60006020820190508181036000830152620008d58162000893565b9050919050565b7f57726f6e67207075626c69632073746172740000000000000000000000000000600082015250565b600062000914601283620007e7565b91506200092182620008dc565b602082019050919050565b60006020820190508181036000830152620009478162000905565b9050919050565b7f57726f6e67207075626c696320656e6400000000000000000000000000000000600082015250565b600062000986601083620007e7565b915062000993826200094e565b602082019050919050565b60006020820190508181036000830152620009b98162000977565b9050919050565b7f4e487b7100000000000000000000000000000000000000000000000000000000600052602260045260246000fd5b6000600282049050600182168062000a0857607f821691505b60208210810362000a1e5762000a1d620009c0565b5b50919050565b6149428062000a346000396000f3fe608060405234801561001057600080fd5b50600436106102325760003560e01c80635b8ad42911610130578063a22cb465116100b8578063c87b56dd1161007c578063c87b56dd14610643578063d547741f14610673578063e932406f1461068f578063e985e9c5146106ad578063ec8d130b146106dd57610232565b8063a22cb465146105b1578063a5f4c6ff146105cd578063b88d4fde146105eb578063b98451cf14610607578063bfb6e0e71461062557610232565b806375b238fc116100ff57806375b238fc1461050957806391d148541461052757806395d89b4114610557578063994d396914610575578063a217fddf1461059357610232565b80635b8ad429146104815780636352211e1461048b5780636f09bebe146104bb57806370a08231146104d957610232565b806323b872dd116101be578063372f657c11610182578063372f657c146103f357806342842e0e1461040f578063518302271461042b57806355f804b3146104495780635b010e431461046557610232565b806323b872dd14610353578063248a9ca31461036f5780632f2ff15d1461039f5780633574a2dd146103bb57806336568abe146103d757610232565b8063095ea7b311610205578063095ea7b3146102d35780630acae9a7146102ef5780631249c58b1461030d57806318160ddd146103175780631e84c4131461033557610232565b806301ffc9a71461023757806306fdde0314610267578063081812fc14610285578063093f66d1146102b5575b600080fd5b610251600480360381019061024c9190612e7c565b6106f9565b60405161025e9190612ec4565b60405180910390f35b61026f61070b565b60405161027c9190612f78565b60405180910390f35b61029f600480360381019061029a9190612fd0565b61079d565b6040516102ac919061303e565b60405180910390f35b6102bd610822565b6040516102ca9190613068565b60405180910390f35b6102ed60048036038101906102e891906130af565b610a15565b005b6102f7610b2c565b6040516103049190613068565b60405180910390f35b610315610b33565b005b61031f610c96565b60405161032c9190613068565b60405180910390f35b61033d610caf565b60405161034a9190612ec4565b60405180910390f35b61036d600480360381019061036891906130ef565b610cd7565b005b61038960048036038101906103849190613178565b610d37565b60405161039691906131b4565b60405180910390f35b6103b960048036038101906103b491906131cf565b610d57565b005b6103d560048036038101906103d09190613344565b610d80565b005b6103f160048036038101906103ec91906131cf565b610e06565b005b61040d600480360381019061040891906133ed565b610e89565b005b610429600480360381019061042491906130ef565b61101e565b005b61043361103e565b6040516104409190613068565b60405180910390f35b610463600480360381019061045e9190613344565b611044565b005b61047f600480360381019061047a9190613466565b6110ca565b005b61048961116a565b005b6104a560048036038101906104a09190612fd0565b6111f5565b6040516104b2919061303e565b60405180910390f35b6104c36112a6565b6040516104d09190613068565b60405180910390f35b6104f360048036038101906104ee91906134a6565b61149a565b6040516105009190613068565b60405180910390f35b610511611551565b60405161051e91906131b4565b60405180910390f35b610541600480360381019061053c91906131cf565b611557565b60405161054e9190612ec4565b60405180910390f35b61055f6115c2565b60405161056c9190612f78565b60405180910390f35b61057d611654565b60405161058a9190613068565b60405180910390f35b61059b61165b565b6040516105a891906131b4565b60405180910390f35b6105cb60048036038101906105c691906134d3565b611662565b005b6105d5611678565b6040516105e29190613068565b60405180910390f35b610605600480360381019061060091906135b4565b61167f565b005b61060f6116e1565b60405161061c9190612ec4565b60405180910390f35b61062d611709565b60405161063a9190613068565b60405180910390f35b61065d60048036038101906106589190612fd0565b611710565b60405161066a9190612f78565b60405180910390f35b61068d600480360381019061068891906131cf565b61182d565b005b610697611856565b6040516106a491906131b4565b60405180910390f35b6106c760048036038101906106c29190613637565b61185c565b6040516106d49190612ec4565b60405180910390f35b6106f760048036038101906106f291906136b1565b6118f0565b005b6000610704826119b6565b9050919050565b60606000805461071a90613720565b80601f016020809104026020016040519081016040528092919081815260200182805461074690613720565b80156107935780601f1061076857610100808354040283529160200191610793565b820191906000526020600020905b81548152906001019060200180831161077657829003601f168201915b5050505050905090565b60006107a882611a30565b6107e7576040517f08c379a00000000000000000000000000000000000000000000000000000000081526004016107de906137c3565b60405180910390fd5b6004600083815260200190815260200160002060009054906101000a900473ffffffffffffffffffffffffffffffffffffffff169050919050565b60008061023d5433426001436108389190613812565b4060405160200161084c94939291906138d0565b6040516020818303038152906040528051906020012060001c9050600061023d5460376108799190613812565b9050600161023d600082825461088f919061391e565b92505081905550600081116108d9576040517f08c379a00000000000000000000000000000000000000000000000000000000081526004016108d0906139c0565b60405180910390fd5b600081836108e79190613a0f565b905060006102058260378110610900576108ff613a40565b5b01540361090d5780610925565b610205816037811061092257610921613a40565b5b01545b9350600184610934919061391e565b935060006102056001846109489190613812565b6037811061095957610958613a40565b5b015414610988576102056001836109709190613812565b6037811061098157610980613a40565b5b0154610996565b6001826109959190613812565b5b61020582603781106109ab576109aa613a40565b5b018190555060006102056001846109c29190613812565b603781106109d3576109d2613a40565b5b01819055507fa4e8e12e12124dbefe84fada6e584fcfaf4862f3b8284a8174f89be901ec4d7d84604051610a079190613068565b60405180910390a150505090565b6000610a20826111f5565b90508073ffffffffffffffffffffffffffffffffffffffff168373ffffffffffffffffffffffffffffffffffffffff1603610a90576040517f08c379a0000000000000000000000000000000000000000000000000000000008152600401610a8790613ae1565b60405180910390fd5b8073ffffffffffffffffffffffffffffffffffffffff16610aaf611a9c565b73ffffffffffffffffffffffffffffffffffffffff161480610ade5750610add81610ad8611a9c565b61185c565b5b610b1d576040517f08c379a0000000000000000000000000000000000000000000000000000000008152600401610b1490613b73565b60405180910390fd5b610b278383611aa4565b505050565b6102435481565b610b3b610caf565b610b7a576040517f08c379a0000000000000000000000000000000000000000000000000000000008152600401610b7190613bdf565b60405180910390fd5b6000610b84611a9c565b90506001600b60008373ffffffffffffffffffffffffffffffffffffffff1673ffffffffffffffffffffffffffffffffffffffff1681526020019081526020016000206000828254610bd6919061391e565b925050819055506002600b60008373ffffffffffffffffffffffffffffffffffffffff1673ffffffffffffffffffffffffffffffffffffffff168152602001908152602001600020541115610c60576040517f08c379a0000000000000000000000000000000000000000000000000000000008152600401610c5790613c4b565b60405180910390fd5b600161023f6000828254610c74919061391e565b92505081905550610c93610c86611a9c565b610c8e6112a6565b611b5d565b50565b600061023f5461023e54610caa919061391e565b905090565b600060016010541480610cd257506102425442118015610cd157506102435442105b5b905090565b610ce8610ce2611a9c565b82611b7b565b610d27576040517f08c379a0000000000000000000000000000000000000000000000000000000008152600401610d1e90613cdd565b60405180910390fd5b610d32838383611c59565b505050565b600060066000838152602001908152602001600020600101549050919050565b610d6082610d37565b610d7181610d6c611a9c565b611eb4565b610d7b8383611f51565b505050565b6000610d8a611a9c565b9050610d996000801b82611557565b80610dac5750610dab60075482611557565b5b610deb576040517f08c379a0000000000000000000000000000000000000000000000000000000008152600401610de290613d49565b60405180910390fd5b81600d9080519060200190610e01929190612d6d565b505050565b610e0e611a9c565b73ffffffffffffffffffffffffffffffffffffffff168173ffffffffffffffffffffffffffffffffffffffff1614610e7b576040517f08c379a0000000000000000000000000000000000000000000000000000000008152600401610e7290613ddb565b60405180910390fd5b610e858282612032565b5050565b6000610e93611a9c565b9050610e9d6116e1565b610edc576040517f08c379a0000000000000000000000000000000000000000000000000000000008152600401610ed390613e47565b60405180910390fd5b610ee7838383612114565b610f26576040517f08c379a0000000000000000000000000000000000000000000000000000000008152600401610f1d90613eb3565b60405180910390fd5b6000600a60008373ffffffffffffffffffffffffffffffffffffffff1673ffffffffffffffffffffffffffffffffffffffff1681526020019081526020016000205414610fa8576040517f08c379a0000000000000000000000000000000000000000000000000000000008152600401610f9f90613f1f565b60405180910390fd5b6001600a60008373ffffffffffffffffffffffffffffffffffffffff1673ffffffffffffffffffffffffffffffffffffffff16815260200190815260200160002081905550600161023f6000828254611001919061391e565b92505081905550611019816110146112a6565b611b5d565b505050565b6110398383836040518060200160405280600081525061167f565b505050565b600e5481565b600061104e611a9c565b905061105d6000801b82611557565b80611070575061106f60075482611557565b5b6110af576040517f08c379a00000000000000000000000000000000000000000000000000000000081526004016110a690613d49565b60405180910390fd5b81600c90805190602001906110c5929190612d6d565b505050565b60006110d4611a9c565b90506110e36000801b82611557565b806110f657506110f560075482611557565b5b611135576040517f08c379a000000000000000000000000000000000000000000000000000000000815260040161112c90613d49565b60405180910390fd5b82611141576000611144565b60015b60ff166010819055508161115957600061115c565b60015b60ff16600f81905550505050565b6000611174611a9c565b90506111836000801b82611557565b80611196575061119560075482611557565b5b6111d5576040517f08c379a00000000000000000000000000000000000000000000000000000000081526004016111cc90613d49565b60405180910390fd5b6000600e54146111e65760006111e9565b60015b60ff16600e8190555050565b6000806002600084815260200190815260200160002060009054906101000a900473ffffffffffffffffffffffffffffffffffffffff169050600073ffffffffffffffffffffffffffffffffffffffff168173ffffffffffffffffffffffffffffffffffffffff160361129d576040517f08c379a000000000000000000000000000000000000000000000000000000000815260040161129490613fb1565b60405180910390fd5b80915050919050565b60008061023c5433426001436112bc9190613812565b406040516020016112d094939291906138d0565b6040516020818303038152906040528051906020012060001c9050600061023c546101f46112fe9190613812565b9050600161023c6000828254611314919061391e565b925050819055506000811161135e576040517f08c379a00000000000000000000000000000000000000000000000000000000081526004016113559061401d565b60405180910390fd5b6000818361136c9190613a0f565b905060006011826101f4811061138557611384613a40565b5b01540361139257806113aa565b6011816101f481106113a7576113a6613a40565b5b01545b93506038846113b9919061391e565b9350600060116001846113cc9190613812565b6101f481106113de576113dd613a40565b5b01541461140d5760116001836113f49190613812565b6101f4811061140657611405613a40565b5b015461141b565b60018261141a9190613812565b5b6011826101f481106114305761142f613a40565b5b0181905550600060116001846114469190613812565b6101f4811061145857611457613a40565b5b01819055507fa4e8e12e12124dbefe84fada6e584fcfaf4862f3b8284a8174f89be901ec4d7d8460405161148c9190613068565b60405180910390a150505090565b60008073ffffffffffffffffffffffffffffffffffffffff168273ffffffffffffffffffffffffffffffffffffffff160361150a576040517f08c379a0000000000000000000000000000000000000000000000000000000008152600401611501906140af565b60405180910390fd5b600360008373ffffffffffffffffffffffffffffffffffffffff1673ffffffffffffffffffffffffffffffffffffffff168152602001908152602001600020549050919050565b60075481565b60006006600084815260200190815260200160002060000160008373ffffffffffffffffffffffffffffffffffffffff1673ffffffffffffffffffffffffffffffffffffffff16815260200190815260200160002060009054906101000a900460ff16905092915050565b6060600180546115d190613720565b80601f01602080910402602001604051908101604052809291908181526020018280546115fd90613720565b801561164a5780601f1061161f5761010080835404028352916020019161164a565b820191906000526020600020905b81548152906001019060200180831161162d57829003601f168201915b5050505050905090565b6102405481565b6000801b81565b61167461166d611a9c565b838361219a565b5050565b6102425481565b61169061168a611a9c565b83611b7b565b6116cf576040517f08c379a00000000000000000000000000000000000000000000000000000000081526004016116c690613cdd565b60405180910390fd5b6116db84848484612306565b50505050565b60006001600f5414806117045750610240544211801561170357506102415442105b5b905090565b6102415481565b606061171b82611a30565b61175a576040517f08c379a00000000000000000000000000000000000000000000000000000000081526004016117519061411b565b60405180910390fd5b6001600e54146117f457600d805461177190613720565b80601f016020809104026020016040519081016040528092919081815260200182805461179d90613720565b80156117ea5780601f106117bf576101008083540402835291602001916117ea565b820191906000526020600020905b8154815290600101906020018083116117cd57829003601f168201915b5050505050611826565b6117fc612362565b611805836123f4565b6040516020016118169291906141c3565b6040516020818303038152906040525b9050919050565b61183682610d37565b61184781611842611a9c565b611eb4565b6118518383612032565b505050565b60085481565b6000600560008473ffffffffffffffffffffffffffffffffffffffff1673ffffffffffffffffffffffffffffffffffffffff16815260200190815260200160002060008373ffffffffffffffffffffffffffffffffffffffff1673ffffffffffffffffffffffffffffffffffffffff16815260200190815260200160002060009054906101000a900460ff16905092915050565b60006118fa611a9c565b90506119096000801b82611557565b8061191c575061191b60075482611557565b5b61195b576040517f08c379a000000000000000000000000000000000000000000000000000000000815260040161195290613d49565b60405180910390fd5b8161ffff1661023e6000828254611972919061391e565b9250508190555060005b8261ffff168161ffff1610156119b05761199d84611998610822565b611b5d565b80806119a8906141f2565b91505061197c565b50505050565b60007f7965db0b000000000000000000000000000000000000000000000000000000007bffffffffffffffffffffffffffffffffffffffffffffffffffffffff1916827bffffffffffffffffffffffffffffffffffffffffffffffffffffffff19161480611a295750611a2882612554565b5b9050919050565b60008073ffffffffffffffffffffffffffffffffffffffff166002600084815260200190815260200160002060009054906101000a900473ffffffffffffffffffffffffffffffffffffffff1673ffffffffffffffffffffffffffffffffffffffff1614159050919050565b600033905090565b816004600083815260200190815260200160002060006101000a81548173ffffffffffffffffffffffffffffffffffffffff021916908373ffffffffffffffffffffffffffffffffffffffff160217905550808273ffffffffffffffffffffffffffffffffffffffff16611b17836111f5565b73ffffffffffffffffffffffffffffffffffffffff167f8c5be1e5ebec7d5bd14f71427d1e84f3dd0314c0f7b2291e5b200ac8c7c3b92560405160405180910390a45050565b611b77828260405180602001604052806000815250612636565b5050565b6000611b8682611a30565b611bc5576040517f08c379a0000000000000000000000000000000000000000000000000000000008152600401611bbc9061428e565b60405180910390fd5b6000611bd0836111f5565b90508073ffffffffffffffffffffffffffffffffffffffff168473ffffffffffffffffffffffffffffffffffffffff161480611c3f57508373ffffffffffffffffffffffffffffffffffffffff16611c278461079d565b73ffffffffffffffffffffffffffffffffffffffff16145b80611c505750611c4f818561185c565b5b91505092915050565b8273ffffffffffffffffffffffffffffffffffffffff16611c79826111f5565b73ffffffffffffffffffffffffffffffffffffffff1614611ccf576040517f08c379a0000000000000000000000000000000000000000000000000000000008152600401611cc690614320565b60405180910390fd5b600073ffffffffffffffffffffffffffffffffffffffff168273ffffffffffffffffffffffffffffffffffffffff1603611d3e576040517f08c379a0000000000000000000000000000000000000000000000000000000008152600401611d35906143b2565b60405180910390fd5b611d49838383612691565b611d54600082611aa4565b6001600360008573ffffffffffffffffffffffffffffffffffffffff1673ffffffffffffffffffffffffffffffffffffffff1681526020019081526020016000206000828254611da49190613812565b925050819055506001600360008473ffffffffffffffffffffffffffffffffffffffff1673ffffffffffffffffffffffffffffffffffffffff1681526020019081526020016000206000828254611dfb919061391e565b92505081905550816002600083815260200190815260200160002060006101000a81548173ffffffffffffffffffffffffffffffffffffffff021916908373ffffffffffffffffffffffffffffffffffffffff160217905550808273ffffffffffffffffffffffffffffffffffffffff168473ffffffffffffffffffffffffffffffffffffffff167fddf252ad1be2c89b69c2b068fc378daa952ba7f163c4a11628f55a4df523b3ef60405160405180910390a4505050565b611ebe8282611557565b611f4d57611ee38173ffffffffffffffffffffffffffffffffffffffff166014612696565b611ef18360001c6020612696565b604051602001611f0292919061446a565b6040516020818303038152906040526040517f08c379a0000000000000000000000000000000000000000000000000000000008152600401611f449190612f78565b60405180910390fd5b5050565b611f5b8282611557565b61202e5760016006600084815260200190815260200160002060000160008373ffffffffffffffffffffffffffffffffffffffff1673ffffffffffffffffffffffffffffffffffffffff16815260200190815260200160002060006101000a81548160ff021916908315150217905550611fd3611a9c565b73ffffffffffffffffffffffffffffffffffffffff168173ffffffffffffffffffffffffffffffffffffffff16837f2f8788117e7eff1d82e926ec794901d17c78024a50270940304540a733656f0d60405160405180910390a45b5050565b61203c8282611557565b156121105760006006600084815260200190815260200160002060000160008373ffffffffffffffffffffffffffffffffffffffff1673ffffffffffffffffffffffffffffffffffffffff16815260200190815260200160002060006101000a81548160ff0219169083151502179055506120b5611a9c565b73ffffffffffffffffffffffffffffffffffffffff168173ffffffffffffffffffffffffffffffffffffffff16837ff6391f5c32d9c69d2a47ea670b442974b53935d1edc7fd64eb21e047a839171b60405160405180910390a45b5050565b60006001151561218e858580806020026020016040519081016040528093929190818152602001838360200280828437600081840152601f19601f820116905080830192505050505050506009548560405160200161217391906144a4565b604051602081830303815290604052805190602001206128d2565b15151490509392505050565b8173ffffffffffffffffffffffffffffffffffffffff168373ffffffffffffffffffffffffffffffffffffffff1603612208576040517f08c379a00000000000000000000000000000000000000000000000000000000081526004016121ff9061450b565b60405180910390fd5b80600560008573ffffffffffffffffffffffffffffffffffffffff1673ffffffffffffffffffffffffffffffffffffffff16815260200190815260200160002060008473ffffffffffffffffffffffffffffffffffffffff1673ffffffffffffffffffffffffffffffffffffffff16815260200190815260200160002060006101000a81548160ff0219169083151502179055508173ffffffffffffffffffffffffffffffffffffffff168373ffffffffffffffffffffffffffffffffffffffff167f17307eab39ab6107e8899845ad3d59bd9653f200f220920489ca2b5937696c31836040516122f99190612ec4565b60405180910390a3505050565b612311848484611c59565b61231d848484846128e9565b61235c576040517f08c379a00000000000000000000000000000000000000000000000000000000081526004016123539061459d565b60405180910390fd5b50505050565b6060600c805461237190613720565b80601f016020809104026020016040519081016040528092919081815260200182805461239d90613720565b80156123ea5780601f106123bf576101008083540402835291602001916123ea565b820191906000526020600020905b8154815290600101906020018083116123cd57829003601f168201915b5050505050905090565b60606000820361243b576040518060400160405280600181526020017f3000000000000000000000000000000000000000000000000000000000000000815250905061254f565b600082905060005b6000821461246d578080612456906145bd565b915050600a826124669190614605565b9150612443565b60008167ffffffffffffffff81111561248957612488613219565b5b6040519080825280601f01601f1916602001820160405280156124bb5781602001600182028036833780820191505090505b5090505b60008514612548576001826124d49190613812565b9150600a856124e39190613a0f565b60306124ef919061391e565b60f81b81838151811061250557612504613a40565b5b60200101907effffffffffffffffffffffffffffffffffffffffffffffffffffffffffffff1916908160001a905350600a856125419190614605565b94506124bf565b8093505050505b919050565b60007f80ac58cd000000000000000000000000000000000000000000000000000000007bffffffffffffffffffffffffffffffffffffffffffffffffffffffff1916827bffffffffffffffffffffffffffffffffffffffffffffffffffffffff1916148061261f57507f5b5e139f000000000000000000000000000000000000000000000000000000007bffffffffffffffffffffffffffffffffffffffffffffffffffffffff1916827bffffffffffffffffffffffffffffffffffffffffffffffffffffffff1916145b8061262f575061262e82612a70565b5b9050919050565b6126408383612ada565b61264d60008484846128e9565b61268c576040517f08c379a00000000000000000000000000000000000000000000000000000000081526004016126839061459d565b60405180910390fd5b505050565b505050565b6060600060028360026126a99190614636565b6126b3919061391e565b67ffffffffffffffff8111156126cc576126cb613219565b5b6040519080825280601f01601f1916602001820160405280156126fe5781602001600182028036833780820191505090505b5090507f30000000000000000000000000000000000000000000000000000000000000008160008151811061273657612735613a40565b5b60200101907effffffffffffffffffffffffffffffffffffffffffffffffffffffffffffff1916908160001a9053507f78000000000000000000000000000000000000000000000000000000000000008160018151811061279a57612799613a40565b5b60200101907effffffffffffffffffffffffffffffffffffffffffffffffffffffffffffff1916908160001a905350600060018460026127da9190614636565b6127e4919061391e565b90505b6001811115612884577f3031323334353637383961626364656600000000000000000000000000000000600f86166010811061282657612825613a40565b5b1a60f81b82828151811061283d5761283c613a40565b5b60200101907effffffffffffffffffffffffffffffffffffffffffffffffffffffffffffff1916908160001a905350600485901c94508061287d90614690565b90506127e7565b50600084146128c8576040517f08c379a00000000000000000000000000000000000000000000000000000000081526004016128bf90614705565b60405180910390fd5b8091505092915050565b6000826128df8584612ca7565b1490509392505050565b600061290a8473ffffffffffffffffffffffffffffffffffffffff16612d5a565b15612a63578373ffffffffffffffffffffffffffffffffffffffff1663150b7a02612933611a9c565b8786866040518563ffffffff1660e01b8152600401612955949392919061477a565b6020604051808303816000875af192505050801561299157506040513d601f19601f8201168201806040525081019061298e91906147db565b60015b612a13573d80600081146129c1576040519150601f19603f3d011682016040523d82523d6000602084013e6129c6565b606091505b506000815103612a0b576040517f08c379a0000000000000000000000000000000000000000000000000000000008152600401612a029061459d565b60405180910390fd5b805181602001fd5b63150b7a0260e01b7bffffffffffffffffffffffffffffffffffffffffffffffffffffffff1916817bffffffffffffffffffffffffffffffffffffffffffffffffffffffff191614915050612a68565b600190505b949350505050565b60007f01ffc9a7000000000000000000000000000000000000000000000000000000007bffffffffffffffffffffffffffffffffffffffffffffffffffffffff1916827bffffffffffffffffffffffffffffffffffffffffffffffffffffffff1916149050919050565b600073ffffffffffffffffffffffffffffffffffffffff168273ffffffffffffffffffffffffffffffffffffffff1603612b49576040517f08c379a0000000000000000000000000000000000000000000000000000000008152600401612b4090614854565b60405180910390fd5b612b5281611a30565b15612b92576040517f08c379a0000000000000000000000000000000000000000000000000000000008152600401612b89906148c0565b60405180910390fd5b612b9e60008383612691565b6001600360008473ffffffffffffffffffffffffffffffffffffffff1673ffffffffffffffffffffffffffffffffffffffff1681526020019081526020016000206000828254612bee919061391e565b92505081905550816002600083815260200190815260200160002060006101000a81548173ffffffffffffffffffffffffffffffffffffffff021916908373ffffffffffffffffffffffffffffffffffffffff160217905550808273ffffffffffffffffffffffffffffffffffffffff16600073ffffffffffffffffffffffffffffffffffffffff167fddf252ad1be2c89b69c2b068fc378daa952ba7f163c4a11628f55a4df523b3ef60405160405180910390a45050565b60008082905060005b8451811015612d4f576000858281518110612cce57612ccd613a40565b5b60200260200101519050808311612d0f578281604051602001612cf29291906148e0565b604051602081830303815290604052805190602001209250612d3b565b8083604051602001612d229291906148e0565b6040516020818303038152906040528051906020012092505b508080612d47906145bd565b915050612cb0565b508091505092915050565b600080823b905060008111915050919050565b828054612d7990613720565b90600052602060002090601f016020900481019282612d9b5760008555612de2565b82601f10612db457805160ff1916838001178555612de2565b82800160010185558215612de2579182015b82811115612de1578251825591602001919060010190612dc6565b5b509050612def9190612df3565b5090565b5b80821115612e0c576000816000905550600101612df4565b5090565b6000604051905090565b600080fd5b600080fd5b60007fffffffff0000000000000000000000000000000000000000000000000000000082169050919050565b612e5981612e24565b8114612e6457600080fd5b50565b600081359050612e7681612e50565b92915050565b600060208284031215612e9257612e91612e1a565b5b6000612ea084828501612e67565b91505092915050565b60008115159050919050565b612ebe81612ea9565b82525050565b6000602082019050612ed96000830184612eb5565b92915050565b600081519050919050565b600082825260208201905092915050565b60005b83811015612f19578082015181840152602081019050612efe565b83811115612f28576000848401525b50505050565b6000601f19601f8301169050919050565b6000612f4a82612edf565b612f548185612eea565b9350612f64818560208601612efb565b612f6d81612f2e565b840191505092915050565b60006020820190508181036000830152612f928184612f3f565b905092915050565b6000819050919050565b612fad81612f9a565b8114612fb857600080fd5b50565b600081359050612fca81612fa4565b92915050565b600060208284031215612fe657612fe5612e1a565b5b6000612ff484828501612fbb565b91505092915050565b600073ffffffffffffffffffffffffffffffffffffffff82169050919050565b600061302882612ffd565b9050919050565b6130388161301d565b82525050565b6000602082019050613053600083018461302f565b92915050565b61306281612f9a565b82525050565b600060208201905061307d6000830184613059565b92915050565b61308c8161301d565b811461309757600080fd5b50565b6000813590506130a981613083565b92915050565b600080604083850312156130c6576130c5612e1a565b5b60006130d48582860161309a565b92505060206130e585828601612fbb565b9150509250929050565b60008060006060848603121561310857613107612e1a565b5b60006131168682870161309a565b93505060206131278682870161309a565b925050604061313886828701612fbb565b9150509250925092565b6000819050919050565b61315581613142565b811461316057600080fd5b50565b6000813590506131728161314c565b92915050565b60006020828403121561318e5761318d612e1a565b5b600061319c84828501613163565b91505092915050565b6131ae81613142565b82525050565b60006020820190506131c960008301846131a5565b92915050565b600080604083850312156131e6576131e5612e1a565b5b60006131f485828601613163565b92505060206132058582860161309a565b9150509250929050565b600080fd5b600080fd5b7f4e487b7100000000000000000000000000000000000000000000000000000000600052604160045260246000fd5b61325182612f2e565b810181811067ffffffffffffffff821117156132705761326f613219565b5b80604052505050565b6000613283612e10565b905061328f8282613248565b919050565b600067ffffffffffffffff8211156132af576132ae613219565b5b6132b882612f2e565b9050602081019050919050565b82818337600083830152505050565b60006132e76132e284613294565b613279565b90508281526020810184848401111561330357613302613214565b5b61330e8482856132c5565b509392505050565b600082601f83011261332b5761332a61320f565b5b813561333b8482602086016132d4565b91505092915050565b60006020828403121561335a57613359612e1a565b5b600082013567ffffffffffffffff81111561337857613377612e1f565b5b61338484828501613316565b91505092915050565b600080fd5b600080fd5b60008083601f8401126133ad576133ac61320f565b5b8235905067ffffffffffffffff8111156133ca576133c961338d565b5b6020830191508360208202830111156133e6576133e5613392565b5b9250929050565b6000806020838503121561340457613403612e1a565b5b600083013567ffffffffffffffff81111561342257613421612e1f565b5b61342e85828601613397565b92509250509250929050565b61344381612ea9565b811461344e57600080fd5b50565b6000813590506134608161343a565b92915050565b6000806040838503121561347d5761347c612e1a565b5b600061348b85828601613451565b925050602061349c85828601613451565b9150509250929050565b6000602082840312156134bc576134bb612e1a565b5b60006134ca8482850161309a565b91505092915050565b600080604083850312156134ea576134e9612e1a565b5b60006134f88582860161309a565b925050602061350985828601613451565b9150509250929050565b600067ffffffffffffffff82111561352e5761352d613219565b5b61353782612f2e565b9050602081019050919050565b600061355761355284613513565b613279565b90508281526020810184848401111561357357613572613214565b5b61357e8482856132c5565b509392505050565b600082601f83011261359b5761359a61320f565b5b81356135ab848260208601613544565b91505092915050565b600080600080608085870312156135ce576135cd612e1a565b5b60006135dc8782880161309a565b94505060206135ed8782880161309a565b93505060406135fe87828801612fbb565b925050606085013567ffffffffffffffff81111561361f5761361e612e1f565b5b61362b87828801613586565b91505092959194509250565b6000806040838503121561364e5761364d612e1a565b5b600061365c8582860161309a565b925050602061366d8582860161309a565b9150509250929050565b600061ffff82169050919050565b61368e81613677565b811461369957600080fd5b50565b6000813590506136ab81613685565b92915050565b600080604083850312156136c8576136c7612e1a565b5b60006136d68582860161309a565b92505060206136e78582860161369c565b9150509250929050565b7f4e487b7100000000000000000000000000000000000000000000000000000000600052602260045260246000fd5b6000600282049050600182168061373857607f821691505b60208210810361374b5761374a6136f1565b5b50919050565b7f4552433732313a20617070726f76656420717565727920666f72206e6f6e657860008201527f697374656e7420746f6b656e0000000000000000000000000000000000000000602082015250565b60006137ad602c83612eea565b91506137b882613751565b604082019050919050565b600060208201905081810360008301526137dc816137a0565b9050919050565b7f4e487b7100000000000000000000000000000000000000000000000000000000600052601160045260246000fd5b600061381d82612f9a565b915061382883612f9a565b92508282101561383b5761383a6137e3565b5b828203905092915050565b6000819050919050565b61386161385c82612f9a565b613846565b82525050565b60008160601b9050919050565b600061387f82613867565b9050919050565b600061389182613874565b9050919050565b6138a96138a48261301d565b613886565b82525050565b6000819050919050565b6138ca6138c582613142565b6138af565b82525050565b60006138dc8287613850565b6020820191506138ec8286613898565b6014820191506138fc8285613850565b60208201915061390c82846138b9565b60208201915081905095945050505050565b600061392982612f9a565b915061393483612f9a565b9250827fffffffffffffffffffffffffffffffffffffffffffffffffffffffffffffffff03821115613969576139686137e3565b5b828201905092915050565b7f6e6f205f7465616d496473206c65667400000000000000000000000000000000600082015250565b60006139aa601083612eea565b91506139b582613974565b602082019050919050565b600060208201905081810360008301526139d98161399d565b9050919050565b7f4e487b7100000000000000000000000000000000000000000000000000000000600052601260045260246000fd5b6000613a1a82612f9a565b9150613a2583612f9a565b925082613a3557613a346139e0565b5b828206905092915050565b7f4e487b7100000000000000000000000000000000000000000000000000000000600052603260045260246000fd5b7f4552433732313a20617070726f76616c20746f2063757272656e74206f776e6560008201527f7200000000000000000000000000000000000000000000000000000000000000602082015250565b6000613acb602183612eea565b9150613ad682613a6f565b604082019050919050565b60006020820190508181036000830152613afa81613abe565b9050919050565b7f4552433732313a20617070726f76652063616c6c6572206973206e6f74206f7760008201527f6e6572206e6f7220617070726f76656420666f7220616c6c0000000000000000602082015250565b6000613b5d603883612eea565b9150613b6882613b01565b604082019050919050565b60006020820190508181036000830152613b8c81613b50565b9050919050565b7f5055424c49435f53414c455f494e414354495645000000000000000000000000600082015250565b6000613bc9601483612eea565b9150613bd482613b93565b602082019050919050565b60006020820190508181036000830152613bf881613bbc565b9050919050565b7f5055424c49435f544f4b454e5f4c494d49540000000000000000000000000000600082015250565b6000613c35601283612eea565b9150613c4082613bff565b602082019050919050565b60006020820190508181036000830152613c6481613c28565b9050919050565b7f4552433732313a207472616e736665722063616c6c6572206973206e6f74206f60008201527f776e6572206e6f7220617070726f766564000000000000000000000000000000602082015250565b6000613cc7603183612eea565b9150613cd282613c6b565b604082019050919050565b60006020820190508181036000830152613cf681613cba565b9050919050565b7f4d75737420626520616e2061646d696e00000000000000000000000000000000600082015250565b6000613d33601083612eea565b9150613d3e82613cfd565b602082019050919050565b60006020820190508181036000830152613d6281613d26565b9050919050565b7f416363657373436f6e74726f6c3a2063616e206f6e6c792072656e6f756e636560008201527f20726f6c657320666f722073656c660000000000000000000000000000000000602082015250565b6000613dc5602f83612eea565b9150613dd082613d69565b604082019050919050565b60006020820190508181036000830152613df481613db8565b9050919050565b7f50524553414c455f494e41435449564500000000000000000000000000000000600082015250565b6000613e31601083612eea565b9150613e3c82613dfb565b602082019050919050565b60006020820190508181036000830152613e6081613e24565b9050919050565b7f50524553414c455f4e4f545f5645524946494544000000000000000000000000600082015250565b6000613e9d601483612eea565b9150613ea882613e67565b602082019050919050565b60006020820190508181036000830152613ecc81613e90565b9050919050565b7f57484954454c4953545f544f4b454e5f434c41494d4544000000000000000000600082015250565b6000613f09601783612eea565b9150613f1482613ed3565b602082019050919050565b60006020820190508181036000830152613f3881613efc565b9050919050565b7f4552433732313a206f776e657220717565727920666f72206e6f6e657869737460008201527f656e7420746f6b656e0000000000000000000000000000000000000000000000602082015250565b6000613f9b602983612eea565b9150613fa682613f3f565b604082019050919050565b60006020820190508181036000830152613fca81613f8e565b9050919050565b7f6e6f205f636f6d6d756e697479496473206c6566740000000000000000000000600082015250565b6000614007601583612eea565b915061401282613fd1565b602082019050919050565b6000602082019050818103600083015261403681613ffa565b9050919050565b7f4552433732313a2062616c616e636520717565727920666f7220746865207a6560008201527f726f206164647265737300000000000000000000000000000000000000000000602082015250565b6000614099602a83612eea565b91506140a48261403d565b604082019050919050565b600060208201905081810360008301526140c88161408c565b9050919050565b7f494e56414c49445f494400000000000000000000000000000000000000000000600082015250565b6000614105600a83612eea565b9150614110826140cf565b602082019050919050565b60006020820190508181036000830152614134816140f8565b9050919050565b600081905092915050565b600061415182612edf565b61415b818561413b565b935061416b818560208601612efb565b80840191505092915050565b7f2e6a736f6e000000000000000000000000000000000000000000000000000000600082015250565b60006141ad60058361413b565b91506141b882614177565b600582019050919050565b60006141cf8285614146565b91506141db8284614146565b91506141e6826141a0565b91508190509392505050565b60006141fd82613677565b915061ffff8203614211576142106137e3565b5b600182019050919050565b7f4552433732313a206f70657261746f7220717565727920666f72206e6f6e657860008201527f697374656e7420746f6b656e0000000000000000000000000000000000000000602082015250565b6000614278602c83612eea565b91506142838261421c565b604082019050919050565b600060208201905081810360008301526142a78161426b565b9050919050565b7f4552433732313a207472616e73666572206f6620746f6b656e2074686174206960008201527f73206e6f74206f776e0000000000000000000000000000000000000000000000602082015250565b600061430a602983612eea565b9150614315826142ae565b604082019050919050565b60006020820190508181036000830152614339816142fd565b9050919050565b7f4552433732313a207472616e7366657220746f20746865207a65726f2061646460008201527f7265737300000000000000000000000000000000000000000000000000000000602082015250565b600061439c602483612eea565b91506143a782614340565b604082019050919050565b600060208201905081810360008301526143cb8161438f565b9050919050565b7f416363657373436f6e74726f6c3a206163636f756e7420000000000000000000600082015250565b600061440860178361413b565b9150614413826143d2565b601782019050919050565b7f206973206d697373696e6720726f6c6520000000000000000000000000000000600082015250565b600061445460118361413b565b915061445f8261441e565b601182019050919050565b6000614475826143fb565b91506144818285614146565b915061448c82614447565b91506144988284614146565b91508190509392505050565b60006144b08284613898565b60148201915081905092915050565b7f4552433732313a20617070726f766520746f2063616c6c657200000000000000600082015250565b60006144f5601983612eea565b9150614500826144bf565b602082019050919050565b60006020820190508181036000830152614524816144e8565b9050919050565b7f4552433732313a207472616e7366657220746f206e6f6e20455243373231526560008201527f63656976657220696d706c656d656e7465720000000000000000000000000000602082015250565b6000614587603283612eea565b91506145928261452b565b604082019050919050565b600060208201905081810360008301526145b68161457a565b9050919050565b60006145c882612f9a565b91507fffffffffffffffffffffffffffffffffffffffffffffffffffffffffffffffff82036145fa576145f96137e3565b5b600182019050919050565b600061461082612f9a565b915061461b83612f9a565b92508261462b5761462a6139e0565b5b828204905092915050565b600061464182612f9a565b915061464c83612f9a565b9250817fffffffffffffffffffffffffffffffffffffffffffffffffffffffffffffffff0483118215151615614685576146846137e3565b5b828202905092915050565b600061469b82612f9a565b9150600082036146ae576146ad6137e3565b5b600182039050919050565b7f537472696e67733a20686578206c656e67746820696e73756666696369656e74600082015250565b60006146ef602083612eea565b91506146fa826146b9565b602082019050919050565b6000602082019050818103600083015261471e816146e2565b9050919050565b600081519050919050565b600082825260208201905092915050565b600061474c82614725565b6147568185614730565b9350614766818560208601612efb565b61476f81612f2e565b840191505092915050565b600060808201905061478f600083018761302f565b61479c602083018661302f565b6147a96040830185613059565b81810360608301526147bb8184614741565b905095945050505050565b6000815190506147d581612e50565b92915050565b6000602082840312156147f1576147f0612e1a565b5b60006147ff848285016147c6565b91505092915050565b7f4552433732313a206d696e7420746f20746865207a65726f2061646472657373600082015250565b600061483e602083612eea565b915061484982614808565b602082019050919050565b6000602082019050818103600083015261486d81614831565b9050919050565b7f4552433732313a20746f6b656e20616c7265616479206d696e74656400000000600082015250565b60006148aa601c83612eea565b91506148b582614874565b602082019050919050565b600060208201905081810360008301526148d98161489d565b9050919050565b60006148ec82856138b9565b6020820191506148fc82846138b9565b602082019150819050939250505056fea264697066735822122018ec914855eaa15ab81013703438b7df7cb947dfcc8005fef95098b543cc40d064736f6c634300080d0033",
  "linkReferences": {},
  "deployedLinkReferences": {}
}