{
  "_format": "hh-sol-artifact-1",
  "contractName": "FifthDimensionMock",
  "sourceName": "contracts/mocks/FifthDimensionMock.sol",
  "abi": [
    {
      "inputs": [
        {
          "internalType": "uint64",
          "name": "_whitelistStart",
          "type": "uint64"
        },
        {
          "internalType": "uint64",
          "name": "_whitelistEnd",
          "type": "uint64"
        },
        {
          "internalType": "uint64",
          "name": "_publicStart",
          "type": "uint64"
        },
        {
          "internalType": "uint64",
          "name": "_publicEnd",
          "type": "uint64"
        },
        {
          "internalType": "bytes32",
          "name": "_whitelistMerkleRoot",
          "type": "bytes32"
        },
        {
          "internalType": "string",
          "name": "name",
          "type": "string"
        },
        {
          "internalType": "string",
          "name": "symbol",
          "type": "string"
        },
        {
          "internalType": "string",
          "name": "tempUri",
          "type": "string"
        }
      ],
      "stateMutability": "nonpayable",
      "type": "constructor"
    },
    {
      "anonymous": false,
      "inputs": [
        {
          "indexed": true,
          "internalType": "address",
          "name": "owner",
          "type": "address"
        },
        {
          "indexed": true,
          "internalType": "address",
          "name": "approved",
          "type": "address"
        },
        {
          "indexed": true,
          "internalType": "uint256",
          "name": "tokenId",
          "type": "uint256"
        }
      ],
      "name": "Approval",
      "type": "event"
    },
    {
      "anonymous": false,
      "inputs": [
        {
          "indexed": true,
          "internalType": "address",
          "name": "owner",
          "type": "address"
        },
        {
          "indexed": true,
          "internalType": "address",
          "name": "operator",
          "type": "address"
        },
        {
          "indexed": false,
          "internalType": "bool",
          "name": "approved",
          "type": "bool"
        }
      ],
      "name": "ApprovalForAll",
      "type": "event"
    },
    {
      "anonymous": false,
      "inputs": [
        {
          "indexed": true,
          "internalType": "bytes32",
          "name": "role",
          "type": "bytes32"
        },
        {
          "indexed": true,
          "internalType": "bytes32",
          "name": "previousAdminRole",
          "type": "bytes32"
        },
        {
          "indexed": true,
          "internalType": "bytes32",
          "name": "newAdminRole",
          "type": "bytes32"
        }
      ],
      "name": "RoleAdminChanged",
      "type": "event"
    },
    {
      "anonymous": false,
      "inputs": [
        {
          "indexed": true,
          "internalType": "bytes32",
          "name": "role",
          "type": "bytes32"
        },
        {
          "indexed": true,
          "internalType": "address",
          "name": "account",
          "type": "address"
        },
        {
          "indexed": true,
          "internalType": "address",
          "name": "sender",
          "type": "address"
        }
      ],
      "name": "RoleGranted",
      "type": "event"
    },
    {
      "anonymous": false,
      "inputs": [
        {
          "indexed": true,
          "internalType": "bytes32",
          "name": "role",
          "type": "bytes32"
        },
        {
          "indexed": true,
          "internalType": "address",
          "name": "account",
          "type": "address"
        },
        {
          "indexed": true,
          "internalType": "address",
          "name": "sender",
          "type": "address"
        }
      ],
      "name": "RoleRevoked",
      "type": "event"
    },
    {
      "anonymous": false,
      "inputs": [
        {
          "indexed": false,
          "internalType": "uint256",
          "name": "id",
          "type": "uint256"
        }
      ],
      "name": "TokenId",
      "type": "event"
    },
    {
      "anonymous": false,
      "inputs": [
        {
          "indexed": true,
          "internalType": "address",
          "name": "from",
          "type": "address"
        },
        {
          "indexed": true,
          "internalType": "address",
          "name": "to",
          "type": "address"
        },
        {
          "indexed": true,
          "internalType": "uint256",
          "name": "tokenId",
          "type": "uint256"
        }
      ],
      "name": "Transfer",
      "type": "event"
    },
    {
      "inputs": [],
      "name": "ADMIN_ROLE",
      "outputs": [
        {
          "internalType": "bytes32",
          "name": "",
          "type": "bytes32"
        }
      ],
      "stateMutability": "view",
      "type": "function"
    },
    {
      "inputs": [],
      "name": "AIRDROP_LIMIT",
      "outputs": [
        {
          "internalType": "uint256",
          "name": "",
          "type": "uint256"
        }
      ],
      "stateMutability": "view",
      "type": "function"
    },
    {
      "inputs": [],
      "name": "DEFAULT_ADMIN_ROLE",
      "outputs": [
        {
          "internalType": "bytes32",
          "name": "",
          "type": "bytes32"
        }
      ],
      "stateMutability": "view",
      "type": "function"
    },
    {
      "inputs": [],
      "name": "MOD_ROLE",
      "outputs": [
        {
          "internalType": "bytes32",
          "name": "",
          "type": "bytes32"
        }
      ],
      "stateMutability": "view",
      "type": "function"
    },
    {
      "inputs": [
        {
          "internalType": "address",
          "name": "to",
          "type": "address"
        },
        {
          "internalType": "uint256",
          "name": "tokenId",
          "type": "uint256"
        }
      ],
      "name": "approve",
      "outputs": [],
      "stateMutability": "nonpayable",
      "type": "function"
    },
    {
      "inputs": [
        {
          "internalType": "address",
          "name": "owner",
          "type": "address"
        }
      ],
      "name": "balanceOf",
      "outputs": [
        {
          "internalType": "uint256",
          "name": "",
          "type": "uint256"
        }
      ],
      "stateMutability": "view",
      "type": "function"
    },
    {
      "inputs": [
        {
          "internalType": "uint256",
          "name": "",
          "type": "uint256"
        }
      ],
      "name": "communityIds",
      "outputs": [
        {
          "internalType": "uint16",
          "name": "",
          "type": "uint16"
        }
      ],
      "stateMutability": "view",
      "type": "function"
    },
    {
      "inputs": [],
      "name": "finalizeLists",
      "outputs": [],
      "stateMutability": "nonpayable",
      "type": "function"
    },
    {
      "inputs": [],
      "name": "finalizeMetadata",
      "outputs": [],
      "stateMutability": "nonpayable",
      "type": "function"
    },
    {
      "inputs": [],
      "name": "finalizeTimes",
      "outputs": [],
      "stateMutability": "nonpayable",
      "type": "function"
    },
    {
      "inputs": [
        {
          "internalType": "uint256",
          "name": "tokenId",
          "type": "uint256"
        }
      ],
      "name": "getApproved",
      "outputs": [
        {
          "internalType": "address",
          "name": "",
          "type": "address"
        }
      ],
      "stateMutability": "view",
      "type": "function"
    },
    {
      "inputs": [
        {
          "internalType": "bytes32",
          "name": "role",
          "type": "bytes32"
        }
      ],
      "name": "getRoleAdmin",
      "outputs": [
        {
          "internalType": "bytes32",
          "name": "",
          "type": "bytes32"
        }
      ],
      "stateMutability": "view",
      "type": "function"
    },
    {
      "inputs": [
        {
          "internalType": "bytes32",
          "name": "role",
          "type": "bytes32"
        },
        {
          "internalType": "address",
          "name": "account",
          "type": "address"
        }
      ],
      "name": "grantRole",
      "outputs": [],
      "stateMutability": "nonpayable",
      "type": "function"
    },
    {
      "inputs": [
        {
          "internalType": "bytes32",
          "name": "role",
          "type": "bytes32"
        },
        {
          "internalType": "address",
          "name": "account",
          "type": "address"
        }
      ],
      "name": "hasRole",
      "outputs": [
        {
          "internalType": "bool",
          "name": "",
          "type": "bool"
        }
      ],
      "stateMutability": "view",
      "type": "function"
    },
    {
      "inputs": [
        {
          "internalType": "address",
          "name": "owner",
          "type": "address"
        },
        {
          "internalType": "address",
          "name": "operator",
          "type": "address"
        }
      ],
      "name": "isApprovedForAll",
      "outputs": [
        {
          "internalType": "bool",
          "name": "",
          "type": "bool"
        }
      ],
      "stateMutability": "view",
      "type": "function"
    },
    {
      "inputs": [],
      "name": "isPublicSaleActive",
      "outputs": [
        {
          "internalType": "bool",
          "name": "",
          "type": "bool"
        }
      ],
      "stateMutability": "view",
      "type": "function"
    },
    {
      "inputs": [],
      "name": "isWhitelistSaleActive",
      "outputs": [
        {
          "internalType": "bool",
          "name": "",
          "type": "bool"
        }
      ],
      "stateMutability": "view",
      "type": "function"
    },
    {
      "inputs": [],
      "name": "listsFinalized",
      "outputs": [
        {
          "internalType": "bool",
          "name": "",
          "type": "bool"
        }
      ],
      "stateMutability": "view",
      "type": "function"
    },
    {
      "inputs": [],
      "name": "metadataFinalized",
      "outputs": [
        {
          "internalType": "bool",
          "name": "",
          "type": "bool"
        }
      ],
      "stateMutability": "view",
      "type": "function"
    },
    {
      "inputs": [
        {
          "internalType": "uint256",
          "name": "quantity",
          "type": "uint256"
        }
      ],
      "name": "mint",
      "outputs": [],
      "stateMutability": "payable",
      "type": "function"
    },
    {
      "inputs": [],
      "name": "name",
      "outputs": [
        {
          "internalType": "string",
          "name": "",
          "type": "string"
        }
      ],
      "stateMutability": "view",
      "type": "function"
    },
    {
      "inputs": [
        {
          "internalType": "uint256",
          "name": "tokenId",
          "type": "uint256"
        }
      ],
      "name": "ownerOf",
      "outputs": [
        {
          "internalType": "address",
          "name": "",
          "type": "address"
        }
      ],
      "stateMutability": "view",
      "type": "function"
    },
    {
      "inputs": [
        {
          "internalType": "uint256",
          "name": "random",
          "type": "uint256"
        }
      ],
      "name": "pickRandomUniqueId",
      "outputs": [
        {
          "internalType": "uint256",
          "name": "id",
          "type": "uint256"
        }
      ],
      "stateMutability": "nonpayable",
      "type": "function"
    },
    {
      "inputs": [],
      "name": "publicEnd",
      "outputs": [
        {
          "internalType": "uint64",
          "name": "",
          "type": "uint64"
        }
      ],
      "stateMutability": "view",
      "type": "function"
    },
    {
      "inputs": [],
      "name": "publicStart",
      "outputs": [
        {
          "internalType": "uint64",
          "name": "",
          "type": "uint64"
        }
      ],
      "stateMutability": "view",
      "type": "function"
    },
    {
      "inputs": [
        {
          "internalType": "bytes32",
          "name": "role",
          "type": "bytes32"
        },
        {
          "internalType": "address",
          "name": "account",
          "type": "address"
        }
      ],
      "name": "renounceRole",
      "outputs": [],
      "stateMutability": "nonpayable",
      "type": "function"
    },
    {
      "inputs": [],
      "name": "revealed",
      "outputs": [
        {
          "internalType": "bool",
          "name": "",
          "type": "bool"
        }
      ],
      "stateMutability": "view",
      "type": "function"
    },
    {
      "inputs": [
        {
          "internalType": "bytes32",
          "name": "role",
          "type": "bytes32"
        },
        {
          "internalType": "address",
          "name": "account",
          "type": "address"
        }
      ],
      "name": "revokeRole",
      "outputs": [],
      "stateMutability": "nonpayable",
      "type": "function"
    },
    {
      "inputs": [
        {
          "internalType": "address",
          "name": "from",
          "type": "address"
        },
        {
          "internalType": "address",
          "name": "to",
          "type": "address"
        },
        {
          "internalType": "uint256",
          "name": "tokenId",
          "type": "uint256"
        }
      ],
      "name": "safeTransferFrom",
      "outputs": [],
      "stateMutability": "nonpayable",
      "type": "function"
    },
    {
      "inputs": [
        {
          "internalType": "address",
          "name": "from",
          "type": "address"
        },
        {
          "internalType": "address",
          "name": "to",
          "type": "address"
        },
        {
          "internalType": "uint256",
          "name": "tokenId",
          "type": "uint256"
        },
        {
          "internalType": "bytes",
          "name": "_data",
          "type": "bytes"
        }
      ],
      "name": "safeTransferFrom",
      "outputs": [],
      "stateMutability": "nonpayable",
      "type": "function"
    },
    {
      "inputs": [],
      "name": "senderIsAdmin",
      "outputs": [
        {
          "internalType": "bool",
          "name": "",
          "type": "bool"
        }
      ],
      "stateMutability": "view",
      "type": "function"
    },
    {
      "inputs": [],
      "name": "senderIsMod",
      "outputs": [
        {
          "internalType": "bool",
          "name": "",
          "type": "bool"
        }
      ],
      "stateMutability": "view",
      "type": "function"
    },
    {
      "inputs": [
        {
          "internalType": "address",
          "name": "operator",
          "type": "address"
        },
        {
          "internalType": "bool",
          "name": "approved",
          "type": "bool"
        }
      ],
      "name": "setApprovalForAll",
      "outputs": [],
      "stateMutability": "nonpayable",
      "type": "function"
    },
    {
      "inputs": [
        {
          "internalType": "string",
          "name": "baseUri",
          "type": "string"
        }
      ],
      "name": "setBaseURI",
      "outputs": [],
      "stateMutability": "nonpayable",
      "type": "function"
    },
    {
      "inputs": [
        {
          "internalType": "string",
          "name": "tempUri",
          "type": "string"
        }
      ],
      "name": "setPlaceholderURI",
      "outputs": [],
      "stateMutability": "nonpayable",
      "type": "function"
    },
    {
      "inputs": [
        {
          "internalType": "uint64",
          "name": "_publicStartTime",
          "type": "uint64"
        },
        {
          "internalType": "uint64",
          "name": "_publicEndTime",
          "type": "uint64"
        }
      ],
      "name": "setPublicSaleTimes",
      "outputs": [],
      "stateMutability": "nonpayable",
      "type": "function"
    },
    {
      "inputs": [
        {
          "internalType": "bytes32",
          "name": "root",
          "type": "bytes32"
        }
      ],
      "name": "setWhitelistMerkleRoot",
      "outputs": [],
      "stateMutability": "nonpayable",
      "type": "function"
    },
    {
      "inputs": [
        {
          "internalType": "uint64",
          "name": "_whitelistStartTime",
          "type": "uint64"
        },
        {
          "internalType": "uint64",
          "name": "_whitelistEndTime",
          "type": "uint64"
        }
      ],
      "name": "setWhitelistTimes",
      "outputs": [],
      "stateMutability": "nonpayable",
      "type": "function"
    },
    {
      "inputs": [
        {
          "internalType": "bytes4",
          "name": "interfaceId",
          "type": "bytes4"
        }
      ],
      "name": "supportsInterface",
      "outputs": [
        {
          "internalType": "bool",
          "name": "",
          "type": "bool"
        }
      ],
      "stateMutability": "view",
      "type": "function"
    },
    {
      "inputs": [],
      "name": "symbol",
      "outputs": [
        {
          "internalType": "string",
          "name": "",
          "type": "string"
        }
      ],
      "stateMutability": "view",
      "type": "function"
    },
    {
      "inputs": [
        {
          "internalType": "uint256",
          "name": "",
          "type": "uint256"
        }
      ],
      "name": "teamIds",
      "outputs": [
        {
          "internalType": "uint16",
          "name": "",
          "type": "uint16"
        }
      ],
      "stateMutability": "view",
      "type": "function"
    },
    {
      "inputs": [
        {
          "internalType": "uint256",
          "name": "",
          "type": "uint256"
        }
      ],
      "name": "testIds",
      "outputs": [
        {
          "internalType": "uint16",
          "name": "",
          "type": "uint16"
        }
      ],
      "stateMutability": "view",
      "type": "function"
    },
    {
      "inputs": [],
      "name": "testIndex",
      "outputs": [
        {
          "internalType": "uint16",
          "name": "",
          "type": "uint16"
        }
      ],
      "stateMutability": "view",
      "type": "function"
    },
    {
      "inputs": [],
      "name": "timesFinalized",
      "outputs": [
        {
          "internalType": "bool",
          "name": "",
          "type": "bool"
        }
      ],
      "stateMutability": "view",
      "type": "function"
    },
    {
      "inputs": [],
      "name": "togglePublic",
      "outputs": [],
      "stateMutability": "nonpayable",
      "type": "function"
    },
    {
      "inputs": [],
      "name": "toggleReveal",
      "outputs": [],
      "stateMutability": "nonpayable",
      "type": "function"
    },
    {
      "inputs": [],
      "name": "toggleWhitelistSale",
      "outputs": [],
      "stateMutability": "nonpayable",
      "type": "function"
    },
    {
      "inputs": [
        {
          "internalType": "uint256",
          "name": "id",
          "type": "uint256"
        }
      ],
      "name": "tokenURI",
      "outputs": [
        {
          "internalType": "string",
          "name": "",
          "type": "string"
        }
      ],
      "stateMutability": "view",
      "type": "function"
    },
    {
      "inputs": [
        {
          "internalType": "address",
          "name": "from",
          "type": "address"
        },
        {
          "internalType": "address",
          "name": "to",
          "type": "address"
        },
        {
          "internalType": "uint256",
          "name": "tokenId",
          "type": "uint256"
        }
      ],
      "name": "transferFrom",
      "outputs": [],
      "stateMutability": "nonpayable",
      "type": "function"
    },
    {
      "inputs": [
        {
          "internalType": "bytes32[]",
          "name": "_merkleProof",
          "type": "bytes32[]"
        },
        {
          "internalType": "address",
          "name": "addr",
          "type": "address"
        }
      ],
      "name": "verifyWhitelist",
      "outputs": [
        {
          "internalType": "bool",
          "name": "",
          "type": "bool"
        }
      ],
      "stateMutability": "view",
      "type": "function"
    },
    {
      "inputs": [],
      "name": "whitelistEnd",
      "outputs": [
        {
          "internalType": "uint64",
          "name": "",
          "type": "uint64"
        }
      ],
      "stateMutability": "view",
      "type": "function"
    },
    {
      "inputs": [],
      "name": "whitelistMerkleRoot",
      "outputs": [
        {
          "internalType": "bytes32",
          "name": "",
          "type": "bytes32"
        }
      ],
      "stateMutability": "view",
      "type": "function"
    },
    {
      "inputs": [
        {
          "internalType": "bytes32[]",
          "name": "_merkleProof",
          "type": "bytes32[]"
        }
      ],
      "name": "whitelistMint",
      "outputs": [],
      "stateMutability": "nonpayable",
      "type": "function"
    },
    {
      "inputs": [],
      "name": "whitelistStart",
      "outputs": [
        {
          "internalType": "uint64",
          "name": "",
          "type": "uint64"
        }
      ],
      "stateMutability": "view",
      "type": "function"
    }
  ],
  "bytecode": "0x60806040527fa49807205ce4d355092ef5a8a18f56e8913cf4a201fbe287825b095693c217756007557f950b8f2d7415defaee398bb4898e8e094a64c725873b81952b7ab9f08d70efb36008553480156200005957600080fd5b506040516200605d3803806200605d83398181016040528101906200007f9190620006e7565b82828160009080519060200190620000999291906200041a565b508060019080519060200190620000b29291906200041a565b5050508360098190555080600c9080519060200190620000d49291906200041a565b506000429050808967ffffffffffffffff161162000129576040517f08c379a000000000000000000000000000000000000000000000000000000000815260040162000120906200086e565b60405180910390fd5b808867ffffffffffffffff161180156200016c5750605960029054906101000a900467ffffffffffffffff1667ffffffffffffffff168867ffffffffffffffff16115b620001ae576040517f08c379a0000000000000000000000000000000000000000000000000000000008152600401620001a590620008e0565b60405180910390fd5b88605960026101000a81548167ffffffffffffffff021916908367ffffffffffffffff160217905550876059600a6101000a81548167ffffffffffffffff021916908367ffffffffffffffff16021790555086605960126101000a81548167ffffffffffffffff021916908367ffffffffffffffff16021790555085605a60006101000a81548167ffffffffffffffff021916908367ffffffffffffffff1602179055506000620002646200029f60201b60201c565b90506200027b6000801b82620002a760201b60201c565b6200028f60075482620002a760201b60201c565b5050505050505050505062000966565b600033905090565b620002b98282620002bd60201b60201c565b5050565b620002cf8282620003af60201b60201c565b620003ab5760016006600084815260200190815260200160002060000160008373ffffffffffffffffffffffffffffffffffffffff1673ffffffffffffffffffffffffffffffffffffffff16815260200190815260200160002060006101000a81548160ff021916908315150217905550620003506200029f60201b60201c565b73ffffffffffffffffffffffffffffffffffffffff168173ffffffffffffffffffffffffffffffffffffffff16837f2f8788117e7eff1d82e926ec794901d17c78024a50270940304540a733656f0d60405160405180910390a45b5050565b60006006600084815260200190815260200160002060000160008373ffffffffffffffffffffffffffffffffffffffff1673ffffffffffffffffffffffffffffffffffffffff16815260200190815260200160002060009054906101000a900460ff16905092915050565b828054620004289062000931565b90600052602060002090601f0160209004810192826200044c576000855562000498565b82601f106200046757805160ff191683800117855562000498565b8280016001018555821562000498579182015b82811115620004975782518255916020019190600101906200047a565b5b509050620004a79190620004ab565b5090565b5b80821115620004c6576000816000905550600101620004ac565b5090565b6000604051905090565b600080fd5b600080fd5b600067ffffffffffffffff82169050919050565b620004fd81620004de565b81146200050957600080fd5b50565b6000815190506200051d81620004f2565b92915050565b6000819050919050565b620005388162000523565b81146200054457600080fd5b50565b60008151905062000558816200052d565b92915050565b600080fd5b600080fd5b6000601f19601f8301169050919050565b7f4e487b7100000000000000000000000000000000000000000000000000000000600052604160045260246000fd5b620005b38262000568565b810181811067ffffffffffffffff82111715620005d557620005d462000579565b5b80604052505050565b6000620005ea620004ca565b9050620005f88282620005a8565b919050565b600067ffffffffffffffff8211156200061b576200061a62000579565b5b620006268262000568565b9050602081019050919050565b60005b838110156200065357808201518184015260208101905062000636565b8381111562000663576000848401525b50505050565b6000620006806200067a84620005fd565b620005de565b9050828152602081018484840111156200069f576200069e62000563565b5b620006ac84828562000633565b509392505050565b600082601f830112620006cc57620006cb6200055e565b5b8151620006de84826020860162000669565b91505092915050565b600080600080600080600080610100898b0312156200070b576200070a620004d4565b5b60006200071b8b828c016200050c565b98505060206200072e8b828c016200050c565b9750506040620007418b828c016200050c565b9650506060620007548b828c016200050c565b9550506080620007678b828c0162000547565b94505060a089015167ffffffffffffffff8111156200078b576200078a620004d9565b5b620007998b828c01620006b4565b93505060c089015167ffffffffffffffff811115620007bd57620007bc620004d9565b5b620007cb8b828c01620006b4565b92505060e089015167ffffffffffffffff811115620007ef57620007ee620004d9565b5b620007fd8b828c01620006b4565b9150509295985092959890939650565b600082825260208201905092915050565b7f57726f6e672077686974656c6973742073746172740000000000000000000000600082015250565b6000620008566015836200080d565b915062000863826200081e565b602082019050919050565b60006020820190508181036000830152620008898162000847565b9050919050565b7f57726f6e672077686974656c69737420656e6400000000000000000000000000600082015250565b6000620008c86013836200080d565b9150620008d58262000890565b602082019050919050565b60006020820190508181036000830152620008fb81620008b9565b9050919050565b7f4e487b7100000000000000000000000000000000000000000000000000000000600052602260045260246000fd5b600060028204905060018216806200094a57607f821691505b60208210810362000960576200095f62000902565b5b50919050565b6156e780620009766000396000f3fe6080604052600436106103355760003560e01c806375b238fc116101ab578063a7844762116100f7578063c87b56dd11610095578063d547741f1161006f578063d547741f14610beb578063e932406f14610c14578063e985e9c514610c3f578063f4a560a514610c7c57610335565b8063c87b56dd14610b6c578063cf9f8e2114610ba9578063d4dd7b8114610bd457610335565b8063b98451cf116100d1578063b98451cf14610ab0578063bd32fb6614610adb578063bfb6e0e714610b04578063c1c4c8f714610b2f57610335565b8063a784476214610a31578063aa98e0c614610a5c578063b88d4fde14610a8757610335565b8063981d877111610164578063a0712d681161013e578063a0712d6814610996578063a217fddf146109b2578063a22cb465146109dd578063a5f4c6ff14610a0657610335565b8063981d877114610929578063994d39691461094057806399c9c36d1461096b57610335565b806375b238fc146107f157806388cbd0001461081c5780638c2bf5c514610859578063919437081461089657806391d14854146108c157806395d89b41146108fe57610335565b8063372f657c1161028557806359eda1b5116102235780636352211e116101fd5780636352211e1461071157806364334e4c1461074e57806366add1441461078b57806370a08231146107b457610335565b806359eda1b5146106b85780635b8ad429146106cf578063621d388c146106e657610335565b806343b71f611161025f57806343b71f6114610624578063518302271461064d57806355f804b31461067857806356f07a3e146106a157610335565b8063372f657c146105a757806342842e0e146105d0578063431cf4a8146105f957610335565b80631e84c413116102f25780632f2ff15d116102cc5780632f2ff15d14610501578063305ac3671461052a5780633574a2dd1461055557806336568abe1461057e57610335565b80631e84c4131461047057806323b872dd1461049b578063248a9ca3146104c457610335565b806301ffc9a71461033a57806306fdde0314610377578063081812fc146103a2578063095ea7b3146103df5780630acae9a71461040857806318ff357e14610433575b600080fd5b34801561034657600080fd5b50610361600480360381019061035c9190613b30565b610c93565b60405161036e9190613b78565b60405180910390f35b34801561038357600080fd5b5061038c610ca5565b6040516103999190613c2c565b60405180910390f35b3480156103ae57600080fd5b506103c960048036038101906103c49190613c84565b610d37565b6040516103d69190613cf2565b60405180910390f35b3480156103eb57600080fd5b5061040660048036038101906104019190613d39565b610dbc565b005b34801561041457600080fd5b5061041d610ed3565b60405161042a9190613d9c565b60405180910390f35b34801561043f57600080fd5b5061045a60048036038101906104559190613e1c565b610eed565b6040516104679190613b78565b60405180910390f35b34801561047c57600080fd5b50610485610f06565b6040516104929190613b78565b60405180910390f35b3480156104a757600080fd5b506104c260048036038101906104bd9190613e7c565b610f7a565b005b3480156104d057600080fd5b506104eb60048036038101906104e69190613f05565b610fda565b6040516104f89190613f41565b60405180910390f35b34801561050d57600080fd5b5061052860048036038101906105239190613f5c565b610ffa565b005b34801561053657600080fd5b5061053f611023565b60405161054c9190613b78565b60405180910390f35b34801561056157600080fd5b5061057c600480360381019061057791906140cc565b611036565b005b34801561058a57600080fd5b506105a560048036038101906105a09190613f5c565b611112565b005b3480156105b357600080fd5b506105ce60048036038101906105c99190614115565b611195565b005b3480156105dc57600080fd5b506105f760048036038101906105f29190613e7c565b611326565b005b34801561060557600080fd5b5061060e611346565b60405161061b919061417f565b60405180910390f35b34801561063057600080fd5b5061064b600480360381019061064691906141c6565b61135a565b005b34801561065957600080fd5b50610662611472565b60405161066f9190613b78565b60405180910390f35b34801561068457600080fd5b5061069f600480360381019061069a91906140cc565b611485565b005b3480156106ad57600080fd5b506106b6611561565b005b3480156106c457600080fd5b506106cd611640565b005b3480156106db57600080fd5b506106e461172e565b005b3480156106f257600080fd5b506106fb61181c565b6040516107089190613b78565b60405180910390f35b34801561071d57600080fd5b5061073860048036038101906107339190613c84565b61184f565b6040516107459190613cf2565b60405180910390f35b34801561075a57600080fd5b5061077560048036038101906107709190613c84565b611900565b6040516107829190614215565b60405180910390f35b34801561079757600080fd5b506107b260048036038101906107ad91906141c6565b611b80565b005b3480156107c057600080fd5b506107db60048036038101906107d69190614230565b611c98565b6040516107e89190614215565b60405180910390f35b3480156107fd57600080fd5b50610806611d4f565b6040516108139190613f41565b60405180910390f35b34801561082857600080fd5b50610843600480360381019061083e9190613c84565b611d55565b604051610850919061417f565b60405180910390f35b34801561086557600080fd5b50610880600480360381019061087b9190613c84565b611d83565b60405161088d919061417f565b60405180910390f35b3480156108a257600080fd5b506108ab611db2565b6040516108b89190613b78565b60405180910390f35b3480156108cd57600080fd5b506108e860048036038101906108e39190613f5c565b611dc5565b6040516108f59190613b78565b60405180910390f35b34801561090a57600080fd5b50610913611e30565b6040516109209190613c2c565b60405180910390f35b34801561093557600080fd5b5061093e611ec2565b005b34801561094c57600080fd5b50610955611fb0565b6040516109629190613d9c565b60405180910390f35b34801561097757600080fd5b50610980611fca565b60405161098d9190614215565b60405180910390f35b6109b060048036038101906109ab9190613c84565b611fcf565b005b3480156109be57600080fd5b506109c761206e565b6040516109d49190613f41565b60405180910390f35b3480156109e957600080fd5b50610a0460048036038101906109ff9190614289565b612075565b005b348015610a1257600080fd5b50610a1b61208b565b604051610a289190613d9c565b60405180910390f35b348015610a3d57600080fd5b50610a466120a5565b604051610a539190613b78565b60405180910390f35b348015610a6857600080fd5b50610a716120bf565b604051610a7e9190613f41565b60405180910390f35b348015610a9357600080fd5b50610aae6004803603810190610aa9919061436a565b6120c5565b005b348015610abc57600080fd5b50610ac5612127565b604051610ad29190613b78565b60405180910390f35b348015610ae757600080fd5b50610b026004803603810190610afd9190613f05565b61219b565b005b348015610b1057600080fd5b50610b19612267565b604051610b269190613d9c565b60405180910390f35b348015610b3b57600080fd5b50610b566004803603810190610b519190613c84565b612281565b604051610b63919061417f565b60405180910390f35b348015610b7857600080fd5b50610b936004803603810190610b8e9190613c84565b6122b0565b604051610ba09190613c2c565b60405180910390f35b348015610bb557600080fd5b50610bbe6123d7565b604051610bcb9190613b78565b60405180910390f35b348015610be057600080fd5b50610be96123ea565b005b348015610bf757600080fd5b50610c126004803603810190610c0d9190613f5c565b6124c9565b005b348015610c2057600080fd5b50610c296124f2565b604051610c369190613f41565b60405180910390f35b348015610c4b57600080fd5b50610c666004803603810190610c6191906143ed565b6124f8565b604051610c739190613b78565b60405180910390f35b348015610c8857600080fd5b50610c9161258c565b005b6000610c9e8261266b565b9050919050565b606060008054610cb49061445c565b80601f0160208091040260200160405190810160405280929190818152602001828054610ce09061445c565b8015610d2d5780601f10610d0257610100808354040283529160200191610d2d565b820191906000526020600020905b815481529060010190602001808311610d1057829003601f168201915b5050505050905090565b6000610d42826126e5565b610d81576040517f08c379a0000000000000000000000000000000000000000000000000000000008152600401610d78906144ff565b60405180910390fd5b6004600083815260200190815260200160002060009054906101000a900473ffffffffffffffffffffffffffffffffffffffff169050919050565b6000610dc78261184f565b90508073ffffffffffffffffffffffffffffffffffffffff168373ffffffffffffffffffffffffffffffffffffffff1603610e37576040517f08c379a0000000000000000000000000000000000000000000000000000000008152600401610e2e90614591565b60405180910390fd5b8073ffffffffffffffffffffffffffffffffffffffff16610e56612751565b73ffffffffffffffffffffffffffffffffffffffff161480610e855750610e8481610e7f612751565b6124f8565b5b610ec4576040517f08c379a0000000000000000000000000000000000000000000000000000000008152600401610ebb90614623565b60405180910390fd5b610ece8383612759565b505050565b605a60009054906101000a900467ffffffffffffffff1681565b6000610efd848460095485612812565b90509392505050565b6000600d60059054906101000a900460ff1615610f265760019050610f77565b605960129054906101000a900467ffffffffffffffff1667ffffffffffffffff1642118015610f745750605a60009054906101000a900467ffffffffffffffff1667ffffffffffffffff1642105b90505b90565b610f8b610f85612751565b82612897565b610fca576040517f08c379a0000000000000000000000000000000000000000000000000000000008152600401610fc1906146b5565b60405180910390fd5b610fd5838383612975565b505050565b600060066000838152602001908152602001600020600101549050919050565b61100382610fda565b6110148161100f612751565b612bd0565b61101e8383612c6d565b505050565b600d60009054906101000a900460ff1681565b6000611040612751565b905061104f6000801b82611dc5565b80611062575061106160075482611dc5565b5b6110a1576040517f08c379a000000000000000000000000000000000000000000000000000000000815260040161109890614721565b60405180910390fd5b60001515600d60019054906101000a900460ff161515146110f7576040517f08c379a00000000000000000000000000000000000000000000000000000000081526004016110ee9061478d565b60405180910390fd5b81600c908051906020019061110d929190613a21565b505050565b61111a612751565b73ffffffffffffffffffffffffffffffffffffffff168173ffffffffffffffffffffffffffffffffffffffff1614611187576040517f08c379a000000000000000000000000000000000000000000000000000000000815260040161117e9061481f565b60405180910390fd5b6111918282612d4e565b5050565b600061119f612751565b90506111a9612127565b6111e8576040517f08c379a00000000000000000000000000000000000000000000000000000000081526004016111df9061488b565b60405180910390fd5b6111f3838383610eed565b611232576040517f08c379a0000000000000000000000000000000000000000000000000000000008152600401611229906148f7565b60405180910390fd5b600a60008273ffffffffffffffffffffffffffffffffffffffff1673ffffffffffffffffffffffffffffffffffffffff16815260200190815260200160002060009054906101000a900460ff166112be576040517f08c379a00000000000000000000000000000000000000000000000000000000081526004016112b590614963565b60405180910390fd5b6001600a60008373ffffffffffffffffffffffffffffffffffffffff1673ffffffffffffffffffffffffffffffffffffffff16815260200190815260200160002060006101000a81548160ff021916908315150217905550611321816001612e30565b505050565b611341838383604051806020016040528060008152506120c5565b505050565b605960009054906101000a900461ffff1681565b6000611364612751565b90506113736000801b82611dc5565b80611386575061138560075482611dc5565b5b6113c5576040517f08c379a00000000000000000000000000000000000000000000000000000000081526004016113bc90614721565b60405180910390fd5b60001515600d60029054906101000a900460ff1615151461141b576040517f08c379a0000000000000000000000000000000000000000000000000000000008152600401611412906149cf565b60405180910390fd5b82605960126101000a81548167ffffffffffffffff021916908367ffffffffffffffff16021790555081605a60006101000a81548167ffffffffffffffff021916908367ffffffffffffffff160217905550505050565b600d60039054906101000a900460ff1681565b600061148f612751565b905061149e6000801b82611dc5565b806114b157506114b060075482611dc5565b5b6114f0576040517f08c379a00000000000000000000000000000000000000000000000000000000081526004016114e790614721565b60405180910390fd5b60001515600d60019054906101000a900460ff16151514611546576040517f08c379a000000000000000000000000000000000000000000000000000000000815260040161153d9061478d565b60405180910390fd5b81600b908051906020019061155c929190613a21565b505050565b600061156b612751565b905061157a6000801b82611dc5565b8061158d575061158c60075482611dc5565b5b6115cc576040517f08c379a00000000000000000000000000000000000000000000000000000000081526004016115c390614721565b60405180910390fd5b60001515600d60029054906101000a900460ff16151514611622576040517f08c379a0000000000000000000000000000000000000000000000000000000008152600401611619906149cf565b60405180910390fd5b6001600d60026101000a81548160ff02191690831515021790555050565b600061164a612751565b90506116596000801b82611dc5565b8061166c575061166b60075482611dc5565b5b6116ab576040517f08c379a00000000000000000000000000000000000000000000000000000000081526004016116a290614721565b60405180910390fd5b60001515600d60029054906101000a900460ff16151514611701576040517f08c379a00000000000000000000000000000000000000000000000000000000081526004016116f8906149cf565b60405180910390fd5b600d60049054906101000a900460ff1615600d60046101000a81548160ff02191690831515021790555050565b6000611738612751565b90506117476000801b82611dc5565b8061175a575061175960075482611dc5565b5b611799576040517f08c379a000000000000000000000000000000000000000000000000000000000815260040161179090614721565b60405180910390fd5b60001515600d60019054906101000a900460ff161515146117ef576040517f08c379a00000000000000000000000000000000000000000000000000000000081526004016117e69061478d565b60405180910390fd5b600d60039054906101000a900460ff1615600d60036101000a81548160ff02191690831515021790555050565b600080611827612751565b905061183560075482611dc5565b8061184957506118486000801b82611dc5565b5b91505090565b6000806002600084815260200190815260200160002060009054906101000a900473ffffffffffffffffffffffffffffffffffffffff169050600073ffffffffffffffffffffffffffffffffffffffff168173ffffffffffffffffffffffffffffffffffffffff16036118f7576040517f08c379a00000000000000000000000000000000000000000000000000000000081526004016118ee90614a61565b60405180910390fd5b80915050919050565b6000806059600081819054906101000a900461ffff168092919061192390614ab0565b91906101000a81548161ffff021916908361ffff16021790555061ffff1661022b61194e9190614ada565b905060008111611993576040517f08c379a000000000000000000000000000000000000000000000000000000000815260040161198a90614b5a565b60405180910390fd5b600081846119a19190614ba9565b9050600060368261022b81106119ba576119b9614bda565b5b601091828204019190066002029054906101000a900461ffff1661ffff16036119e35780611a17565b60368161022b81106119f8576119f7614bda565b5b601091828204019190066002029054906101000a900461ffff1661ffff165b9250600183611a269190614c09565b925060006036600184611a399190614ada565b61022b8110611a4b57611a4a614bda565b5b601091828204019190066002029054906101000a900461ffff1661ffff1614611ab2576036600183611a7d9190614ada565b61022b8110611a8f57611a8e614bda565b5b601091828204019190066002029054906101000a900461ffff1661ffff16611ac0565b600182611abf9190614ada565b5b60368261022b8110611ad557611ad4614bda565b5b601091828204019190066002026101000a81548161ffff021916908361ffff16021790555060006036600184611b0b9190614ada565b61022b8110611b1d57611b1c614bda565b5b601091828204019190066002026101000a81548161ffff021916908361ffff1602179055507fa4e8e12e12124dbefe84fada6e584fcfaf4862f3b8284a8174f89be901ec4d7d83604051611b719190614215565b60405180910390a15050919050565b6000611b8a612751565b9050611b996000801b82611dc5565b80611bac5750611bab60075482611dc5565b5b611beb576040517f08c379a0000000000000000000000000000000000000000000000000000000008152600401611be290614721565b60405180910390fd5b60001515600d60029054906101000a900460ff16151514611c41576040517f08c379a0000000000000000000000000000000000000000000000000000000008152600401611c38906149cf565b60405180910390fd5b82605960026101000a81548167ffffffffffffffff021916908367ffffffffffffffff160217905550816059600a6101000a81548167ffffffffffffffff021916908367ffffffffffffffff160217905550505050565b60008073ffffffffffffffffffffffffffffffffffffffff168273ffffffffffffffffffffffffffffffffffffffff1603611d08576040517f08c379a0000000000000000000000000000000000000000000000000000000008152600401611cff90614cd1565b60405180910390fd5b600360008373ffffffffffffffffffffffffffffffffffffffff1673ffffffffffffffffffffffffffffffffffffffff168152602001908152602001600020549050919050565b60075481565b60318160378110611d6557600080fd5b60109182820401919006600202915054906101000a900461ffff1681565b600e8161022b8110611d9457600080fd5b60109182820401919006600202915054906101000a900461ffff1681565b600d60019054906101000a900460ff1681565b60006006600084815260200190815260200160002060000160008373ffffffffffffffffffffffffffffffffffffffff1673ffffffffffffffffffffffffffffffffffffffff16815260200190815260200160002060009054906101000a900460ff16905092915050565b606060018054611e3f9061445c565b80601f0160208091040260200160405190810160405280929190818152602001828054611e6b9061445c565b8015611eb85780601f10611e8d57610100808354040283529160200191611eb8565b820191906000526020600020905b815481529060010190602001808311611e9b57829003601f168201915b5050505050905090565b6000611ecc612751565b9050611edb6000801b82611dc5565b80611eee5750611eed60075482611dc5565b5b611f2d576040517f08c379a0000000000000000000000000000000000000000000000000000000008152600401611f2490614721565b60405180910390fd5b60001515600d60029054906101000a900460ff16151514611f83576040517f08c379a0000000000000000000000000000000000000000000000000000000008152600401611f7a906149cf565b60405180910390fd5b600d60059054906101000a900460ff1615600d60056101000a81548160ff02191690831515021790555050565b605960029054906101000a900467ffffffffffffffff1681565b603781565b611fd7610f06565b612016576040517f08c379a000000000000000000000000000000000000000000000000000000000815260040161200d90614d3d565b60405180910390fd5b600281111561205a576040517f08c379a000000000000000000000000000000000000000000000000000000000815260040161205190614da9565b60405180910390fd5b61206b612065612751565b82612e30565b50565b6000801b81565b612087612080612751565b8383612e4e565b5050565b605960129054906101000a900467ffffffffffffffff1681565b60006120ba6008546120b5612751565b611dc5565b905090565b60095481565b6120d66120d0612751565b83612897565b612115576040517f08c379a000000000000000000000000000000000000000000000000000000000815260040161210c906146b5565b60405180910390fd5b61212184848484612fba565b50505050565b6000600d60049054906101000a900460ff16156121475760019050612198565b605960029054906101000a900467ffffffffffffffff1667ffffffffffffffff164211801561219557506059600a9054906101000a900467ffffffffffffffff1667ffffffffffffffff1642105b90505b90565b60006121a5612751565b90506121b46000801b82611dc5565b806121c757506121c660075482611dc5565b5b612206576040517f08c379a00000000000000000000000000000000000000000000000000000000081526004016121fd90614721565b60405180910390fd5b60001515600d60009054906101000a900460ff1615151461225c576040517f08c379a000000000000000000000000000000000000000000000000000000000815260040161225390614e15565b60405180910390fd5b816009819055505050565b6059600a9054906101000a900467ffffffffffffffff1681565b60368161022b811061229257600080fd5b60109182820401919006600202915054906101000a900461ffff1681565b60606122bb826126e5565b6122fa576040517f08c379a00000000000000000000000000000000000000000000000000000000081526004016122f190614e81565b60405180910390fd5b600d60039054906101000a900460ff1661239e57600c805461231b9061445c565b80601f01602080910402602001604051908101604052809291908181526020018280546123479061445c565b80156123945780601f1061236957610100808354040283529160200191612394565b820191906000526020600020905b81548152906001019060200180831161237757829003601f168201915b50505050506123d0565b6123a6613016565b6123af836130a8565b6040516020016123c0929190614f29565b6040516020818303038152906040525b9050919050565b600d60029054906101000a900460ff1681565b60006123f4612751565b90506124036000801b82611dc5565b80612416575061241560075482611dc5565b5b612455576040517f08c379a000000000000000000000000000000000000000000000000000000000815260040161244c90614721565b60405180910390fd5b60001515600d60009054906101000a900460ff161515146124ab576040517f08c379a00000000000000000000000000000000000000000000000000000000081526004016124a290614e15565b60405180910390fd5b6001600d60006101000a81548160ff02191690831515021790555050565b6124d282610fda565b6124e3816124de612751565b612bd0565b6124ed8383612d4e565b505050565b60085481565b6000600560008473ffffffffffffffffffffffffffffffffffffffff1673ffffffffffffffffffffffffffffffffffffffff16815260200190815260200160002060008373ffffffffffffffffffffffffffffffffffffffff1673ffffffffffffffffffffffffffffffffffffffff16815260200190815260200160002060009054906101000a900460ff16905092915050565b6000612596612751565b90506125a56000801b82611dc5565b806125b857506125b760075482611dc5565b5b6125f7576040517f08c379a00000000000000000000000000000000000000000000000000000000081526004016125ee90614721565b60405180910390fd5b60001515600d60019054906101000a900460ff1615151461264d576040517f08c379a00000000000000000000000000000000000000000000000000000000081526004016126449061478d565b60405180910390fd5b6001600d60016101000a81548160ff02191690831515021790555050565b60007f7965db0b000000000000000000000000000000000000000000000000000000007bffffffffffffffffffffffffffffffffffffffffffffffffffffffff1916827bffffffffffffffffffffffffffffffffffffffffffffffffffffffff191614806126de57506126dd82613208565b5b9050919050565b60008073ffffffffffffffffffffffffffffffffffffffff166002600084815260200190815260200160002060009054906101000a900473ffffffffffffffffffffffffffffffffffffffff1673ffffffffffffffffffffffffffffffffffffffff1614159050919050565b600033905090565b816004600083815260200190815260200160002060006101000a81548173ffffffffffffffffffffffffffffffffffffffff021916908373ffffffffffffffffffffffffffffffffffffffff160217905550808273ffffffffffffffffffffffffffffffffffffffff166127cc8361184f565b73ffffffffffffffffffffffffffffffffffffffff167f8c5be1e5ebec7d5bd14f71427d1e84f3dd0314c0f7b2291e5b200ac8c7c3b92560405160405180910390a45050565b60006001151561288a868680806020026020016040519081016040528093929190818152602001838360200280828437600081840152601f19601f82011690508083019250505050505050858560405160200161286f9190614fa0565b604051602081830303815290604052805190602001206132ea565b1515149050949350505050565b60006128a2826126e5565b6128e1576040517f08c379a00000000000000000000000000000000000000000000000000000000081526004016128d89061502d565b60405180910390fd5b60006128ec8361184f565b90508073ffffffffffffffffffffffffffffffffffffffff168473ffffffffffffffffffffffffffffffffffffffff16148061295b57508373ffffffffffffffffffffffffffffffffffffffff1661294384610d37565b73ffffffffffffffffffffffffffffffffffffffff16145b8061296c575061296b81856124f8565b5b91505092915050565b8273ffffffffffffffffffffffffffffffffffffffff166129958261184f565b73ffffffffffffffffffffffffffffffffffffffff16146129eb576040517f08c379a00000000000000000000000000000000000000000000000000000000081526004016129e2906150bf565b60405180910390fd5b600073ffffffffffffffffffffffffffffffffffffffff168273ffffffffffffffffffffffffffffffffffffffff1603612a5a576040517f08c379a0000000000000000000000000000000000000000000000000000000008152600401612a5190615151565b60405180910390fd5b612a65838383613301565b612a70600082612759565b6001600360008573ffffffffffffffffffffffffffffffffffffffff1673ffffffffffffffffffffffffffffffffffffffff1681526020019081526020016000206000828254612ac09190614ada565b925050819055506001600360008473ffffffffffffffffffffffffffffffffffffffff1673ffffffffffffffffffffffffffffffffffffffff1681526020019081526020016000206000828254612b179190614c09565b92505081905550816002600083815260200190815260200160002060006101000a81548173ffffffffffffffffffffffffffffffffffffffff021916908373ffffffffffffffffffffffffffffffffffffffff160217905550808273ffffffffffffffffffffffffffffffffffffffff168473ffffffffffffffffffffffffffffffffffffffff167fddf252ad1be2c89b69c2b068fc378daa952ba7f163c4a11628f55a4df523b3ef60405160405180910390a4505050565b612bda8282611dc5565b612c6957612bff8173ffffffffffffffffffffffffffffffffffffffff166014613306565b612c0d8360001c6020613306565b604051602001612c1e929190615209565b6040516020818303038152906040526040517f08c379a0000000000000000000000000000000000000000000000000000000008152600401612c609190613c2c565b60405180910390fd5b5050565b612c778282611dc5565b612d4a5760016006600084815260200190815260200160002060000160008373ffffffffffffffffffffffffffffffffffffffff1673ffffffffffffffffffffffffffffffffffffffff16815260200190815260200160002060006101000a81548160ff021916908315150217905550612cef612751565b73ffffffffffffffffffffffffffffffffffffffff168173ffffffffffffffffffffffffffffffffffffffff16837f2f8788117e7eff1d82e926ec794901d17c78024a50270940304540a733656f0d60405160405180910390a45b5050565b612d588282611dc5565b15612e2c5760006006600084815260200190815260200160002060000160008373ffffffffffffffffffffffffffffffffffffffff1673ffffffffffffffffffffffffffffffffffffffff16815260200190815260200160002060006101000a81548160ff021916908315150217905550612dd1612751565b73ffffffffffffffffffffffffffffffffffffffff168173ffffffffffffffffffffffffffffffffffffffff16837ff6391f5c32d9c69d2a47ea670b442974b53935d1edc7fd64eb21e047a839171b60405160405180910390a45b5050565b612e4a828260405180602001604052806000815250613542565b5050565b8173ffffffffffffffffffffffffffffffffffffffff168373ffffffffffffffffffffffffffffffffffffffff1603612ebc576040517f08c379a0000000000000000000000000000000000000000000000000000000008152600401612eb39061528f565b60405180910390fd5b80600560008573ffffffffffffffffffffffffffffffffffffffff1673ffffffffffffffffffffffffffffffffffffffff16815260200190815260200160002060008473ffffffffffffffffffffffffffffffffffffffff1673ffffffffffffffffffffffffffffffffffffffff16815260200190815260200160002060006101000a81548160ff0219169083151502179055508173ffffffffffffffffffffffffffffffffffffffff168373ffffffffffffffffffffffffffffffffffffffff167f17307eab39ab6107e8899845ad3d59bd9653f200f220920489ca2b5937696c3183604051612fad9190613b78565b60405180910390a3505050565b612fc5848484612975565b612fd18484848461359d565b613010576040517f08c379a000000000000000000000000000000000000000000000000000000000815260040161300790615321565b60405180910390fd5b50505050565b6060600b80546130259061445c565b80601f01602080910402602001604051908101604052809291908181526020018280546130519061445c565b801561309e5780601f106130735761010080835404028352916020019161309e565b820191906000526020600020905b81548152906001019060200180831161308157829003601f168201915b5050505050905090565b6060600082036130ef576040518060400160405280600181526020017f30000000000000000000000000000000000000000000000000000000000000008152509050613203565b600082905060005b6000821461312157808061310a90615341565b915050600a8261311a9190615389565b91506130f7565b60008167ffffffffffffffff81111561313d5761313c613fa1565b5b6040519080825280601f01601f19166020018201604052801561316f5781602001600182028036833780820191505090505b5090505b600085146131fc576001826131889190614ada565b9150600a856131979190614ba9565b60306131a39190614c09565b60f81b8183815181106131b9576131b8614bda565b5b60200101907effffffffffffffffffffffffffffffffffffffffffffffffffffffffffffff1916908160001a905350600a856131f59190615389565b9450613173565b8093505050505b919050565b60007f80ac58cd000000000000000000000000000000000000000000000000000000007bffffffffffffffffffffffffffffffffffffffffffffffffffffffff1916827bffffffffffffffffffffffffffffffffffffffffffffffffffffffff191614806132d357507f5b5e139f000000000000000000000000000000000000000000000000000000007bffffffffffffffffffffffffffffffffffffffffffffffffffffffff1916827bffffffffffffffffffffffffffffffffffffffffffffffffffffffff1916145b806132e357506132e282613724565b5b9050919050565b6000826132f7858461378e565b1490509392505050565b505050565b60606000600283600261331991906153ba565b6133239190614c09565b67ffffffffffffffff81111561333c5761333b613fa1565b5b6040519080825280601f01601f19166020018201604052801561336e5781602001600182028036833780820191505090505b5090507f3000000000000000000000000000000000000000000000000000000000000000816000815181106133a6576133a5614bda565b5b60200101907effffffffffffffffffffffffffffffffffffffffffffffffffffffffffffff1916908160001a9053507f78000000000000000000000000000000000000000000000000000000000000008160018151811061340a57613409614bda565b5b60200101907effffffffffffffffffffffffffffffffffffffffffffffffffffffffffffff1916908160001a9053506000600184600261344a91906153ba565b6134549190614c09565b90505b60018111156134f4577f3031323334353637383961626364656600000000000000000000000000000000600f86166010811061349657613495614bda565b5b1a60f81b8282815181106134ad576134ac614bda565b5b60200101907effffffffffffffffffffffffffffffffffffffffffffffffffffffffffffff1916908160001a905350600485901c9450806134ed90615414565b9050613457565b5060008414613538576040517f08c379a000000000000000000000000000000000000000000000000000000000815260040161352f90615489565b60405180910390fd5b8091505092915050565b61354c8383613841565b613559600084848461359d565b613598576040517f08c379a000000000000000000000000000000000000000000000000000000000815260040161358f90615321565b60405180910390fd5b505050565b60006135be8473ffffffffffffffffffffffffffffffffffffffff16613a0e565b15613717578373ffffffffffffffffffffffffffffffffffffffff1663150b7a026135e7612751565b8786866040518563ffffffff1660e01b815260040161360994939291906154fe565b6020604051808303816000875af192505050801561364557506040513d601f19601f82011682018060405250810190613642919061555f565b60015b6136c7573d8060008114613675576040519150601f19603f3d011682016040523d82523d6000602084013e61367a565b606091505b5060008151036136bf576040517f08c379a00000000000000000000000000000000000000000000000000000000081526004016136b690615321565b60405180910390fd5b805181602001fd5b63150b7a0260e01b7bffffffffffffffffffffffffffffffffffffffffffffffffffffffff1916817bffffffffffffffffffffffffffffffffffffffffffffffffffffffff19161491505061371c565b600190505b949350505050565b60007f01ffc9a7000000000000000000000000000000000000000000000000000000007bffffffffffffffffffffffffffffffffffffffffffffffffffffffff1916827bffffffffffffffffffffffffffffffffffffffffffffffffffffffff1916149050919050565b60008082905060005b84518110156138365760008582815181106137b5576137b4614bda565b5b602002602001015190508083116137f65782816040516020016137d99291906155ad565b604051602081830303815290604052805190602001209250613822565b80836040516020016138099291906155ad565b6040516020818303038152906040528051906020012092505b50808061382e90615341565b915050613797565b508091505092915050565b600073ffffffffffffffffffffffffffffffffffffffff168273ffffffffffffffffffffffffffffffffffffffff16036138b0576040517f08c379a00000000000000000000000000000000000000000000000000000000081526004016138a790615625565b60405180910390fd5b6138b9816126e5565b156138f9576040517f08c379a00000000000000000000000000000000000000000000000000000000081526004016138f090615691565b60405180910390fd5b61390560008383613301565b6001600360008473ffffffffffffffffffffffffffffffffffffffff1673ffffffffffffffffffffffffffffffffffffffff16815260200190815260200160002060008282546139559190614c09565b92505081905550816002600083815260200190815260200160002060006101000a81548173ffffffffffffffffffffffffffffffffffffffff021916908373ffffffffffffffffffffffffffffffffffffffff160217905550808273ffffffffffffffffffffffffffffffffffffffff16600073ffffffffffffffffffffffffffffffffffffffff167fddf252ad1be2c89b69c2b068fc378daa952ba7f163c4a11628f55a4df523b3ef60405160405180910390a45050565b600080823b905060008111915050919050565b828054613a2d9061445c565b90600052602060002090601f016020900481019282613a4f5760008555613a96565b82601f10613a6857805160ff1916838001178555613a96565b82800160010185558215613a96579182015b82811115613a95578251825591602001919060010190613a7a565b5b509050613aa39190613aa7565b5090565b5b80821115613ac0576000816000905550600101613aa8565b5090565b6000604051905090565b600080fd5b600080fd5b60007fffffffff0000000000000000000000000000000000000000000000000000000082169050919050565b613b0d81613ad8565b8114613b1857600080fd5b50565b600081359050613b2a81613b04565b92915050565b600060208284031215613b4657613b45613ace565b5b6000613b5484828501613b1b565b91505092915050565b60008115159050919050565b613b7281613b5d565b82525050565b6000602082019050613b8d6000830184613b69565b92915050565b600081519050919050565b600082825260208201905092915050565b60005b83811015613bcd578082015181840152602081019050613bb2565b83811115613bdc576000848401525b50505050565b6000601f19601f8301169050919050565b6000613bfe82613b93565b613c088185613b9e565b9350613c18818560208601613baf565b613c2181613be2565b840191505092915050565b60006020820190508181036000830152613c468184613bf3565b905092915050565b6000819050919050565b613c6181613c4e565b8114613c6c57600080fd5b50565b600081359050613c7e81613c58565b92915050565b600060208284031215613c9a57613c99613ace565b5b6000613ca884828501613c6f565b91505092915050565b600073ffffffffffffffffffffffffffffffffffffffff82169050919050565b6000613cdc82613cb1565b9050919050565b613cec81613cd1565b82525050565b6000602082019050613d076000830184613ce3565b92915050565b613d1681613cd1565b8114613d2157600080fd5b50565b600081359050613d3381613d0d565b92915050565b60008060408385031215613d5057613d4f613ace565b5b6000613d5e85828601613d24565b9250506020613d6f85828601613c6f565b9150509250929050565b600067ffffffffffffffff82169050919050565b613d9681613d79565b82525050565b6000602082019050613db16000830184613d8d565b92915050565b600080fd5b600080fd5b600080fd5b60008083601f840112613ddc57613ddb613db7565b5b8235905067ffffffffffffffff811115613df957613df8613dbc565b5b602083019150836020820283011115613e1557613e14613dc1565b5b9250929050565b600080600060408486031215613e3557613e34613ace565b5b600084013567ffffffffffffffff811115613e5357613e52613ad3565b5b613e5f86828701613dc6565b93509350506020613e7286828701613d24565b9150509250925092565b600080600060608486031215613e9557613e94613ace565b5b6000613ea386828701613d24565b9350506020613eb486828701613d24565b9250506040613ec586828701613c6f565b9150509250925092565b6000819050919050565b613ee281613ecf565b8114613eed57600080fd5b50565b600081359050613eff81613ed9565b92915050565b600060208284031215613f1b57613f1a613ace565b5b6000613f2984828501613ef0565b91505092915050565b613f3b81613ecf565b82525050565b6000602082019050613f566000830184613f32565b92915050565b60008060408385031215613f7357613f72613ace565b5b6000613f8185828601613ef0565b9250506020613f9285828601613d24565b9150509250929050565b600080fd5b7f4e487b7100000000000000000000000000000000000000000000000000000000600052604160045260246000fd5b613fd982613be2565b810181811067ffffffffffffffff82111715613ff857613ff7613fa1565b5b80604052505050565b600061400b613ac4565b90506140178282613fd0565b919050565b600067ffffffffffffffff82111561403757614036613fa1565b5b61404082613be2565b9050602081019050919050565b82818337600083830152505050565b600061406f61406a8461401c565b614001565b90508281526020810184848401111561408b5761408a613f9c565b5b61409684828561404d565b509392505050565b600082601f8301126140b3576140b2613db7565b5b81356140c384826020860161405c565b91505092915050565b6000602082840312156140e2576140e1613ace565b5b600082013567ffffffffffffffff811115614100576140ff613ad3565b5b61410c8482850161409e565b91505092915050565b6000806020838503121561412c5761412b613ace565b5b600083013567ffffffffffffffff81111561414a57614149613ad3565b5b61415685828601613dc6565b92509250509250929050565b600061ffff82169050919050565b61417981614162565b82525050565b60006020820190506141946000830184614170565b92915050565b6141a381613d79565b81146141ae57600080fd5b50565b6000813590506141c08161419a565b92915050565b600080604083850312156141dd576141dc613ace565b5b60006141eb858286016141b1565b92505060206141fc858286016141b1565b9150509250929050565b61420f81613c4e565b82525050565b600060208201905061422a6000830184614206565b92915050565b60006020828403121561424657614245613ace565b5b600061425484828501613d24565b91505092915050565b61426681613b5d565b811461427157600080fd5b50565b6000813590506142838161425d565b92915050565b600080604083850312156142a05761429f613ace565b5b60006142ae85828601613d24565b92505060206142bf85828601614274565b9150509250929050565b600067ffffffffffffffff8211156142e4576142e3613fa1565b5b6142ed82613be2565b9050602081019050919050565b600061430d614308846142c9565b614001565b90508281526020810184848401111561432957614328613f9c565b5b61433484828561404d565b509392505050565b600082601f83011261435157614350613db7565b5b81356143618482602086016142fa565b91505092915050565b6000806000806080858703121561438457614383613ace565b5b600061439287828801613d24565b94505060206143a387828801613d24565b93505060406143b487828801613c6f565b925050606085013567ffffffffffffffff8111156143d5576143d4613ad3565b5b6143e18782880161433c565b91505092959194509250565b6000806040838503121561440457614403613ace565b5b600061441285828601613d24565b925050602061442385828601613d24565b9150509250929050565b7f4e487b7100000000000000000000000000000000000000000000000000000000600052602260045260246000fd5b6000600282049050600182168061447457607f821691505b6020821081036144875761448661442d565b5b50919050565b7f4552433732313a20617070726f76656420717565727920666f72206e6f6e657860008201527f697374656e7420746f6b656e0000000000000000000000000000000000000000602082015250565b60006144e9602c83613b9e565b91506144f48261448d565b604082019050919050565b60006020820190508181036000830152614518816144dc565b9050919050565b7f4552433732313a20617070726f76616c20746f2063757272656e74206f776e6560008201527f7200000000000000000000000000000000000000000000000000000000000000602082015250565b600061457b602183613b9e565b91506145868261451f565b604082019050919050565b600060208201905081810360008301526145aa8161456e565b9050919050565b7f4552433732313a20617070726f76652063616c6c6572206973206e6f74206f7760008201527f6e6572206e6f7220617070726f76656420666f7220616c6c0000000000000000602082015250565b600061460d603883613b9e565b9150614618826145b1565b604082019050919050565b6000602082019050818103600083015261463c81614600565b9050919050565b7f4552433732313a207472616e736665722063616c6c6572206973206e6f74206f60008201527f776e6572206e6f7220617070726f766564000000000000000000000000000000602082015250565b600061469f603183613b9e565b91506146aa82614643565b604082019050919050565b600060208201905081810360008301526146ce81614692565b9050919050565b7f4d75737420626520616e2061646d696e00000000000000000000000000000000600082015250565b600061470b601083613b9e565b9150614716826146d5565b602082019050919050565b6000602082019050818103600083015261473a816146fe565b9050919050565b7f4d455441444154415f46494e414c495a45440000000000000000000000000000600082015250565b6000614777601283613b9e565b915061478282614741565b602082019050919050565b600060208201905081810360008301526147a68161476a565b9050919050565b7f416363657373436f6e74726f6c3a2063616e206f6e6c792072656e6f756e636560008201527f20726f6c657320666f722073656c660000000000000000000000000000000000602082015250565b6000614809602f83613b9e565b9150614814826147ad565b604082019050919050565b60006020820190508181036000830152614838816147fc565b9050919050565b7f50524553414c455f494e41435449564500000000000000000000000000000000600082015250565b6000614875601083613b9e565b91506148808261483f565b602082019050919050565b600060208201905081810360008301526148a481614868565b9050919050565b7f50524553414c455f4e4f545f5645524946494544000000000000000000000000600082015250565b60006148e1601483613b9e565b91506148ec826148ab565b602082019050919050565b60006020820190508181036000830152614910816148d4565b9050919050565b7f57484954454c4953545f544f4b454e5f4c494d49540000000000000000000000600082015250565b600061494d601583613b9e565b915061495882614917565b602082019050919050565b6000602082019050818103600083015261497c81614940565b9050919050565b7f54494d45535f46494e414c495a45440000000000000000000000000000000000600082015250565b60006149b9600f83613b9e565b91506149c482614983565b602082019050919050565b600060208201905081810360008301526149e8816149ac565b9050919050565b7f4552433732313a206f776e657220717565727920666f72206e6f6e657869737460008201527f656e7420746f6b656e0000000000000000000000000000000000000000000000602082015250565b6000614a4b602983613b9e565b9150614a56826149ef565b604082019050919050565b60006020820190508181036000830152614a7a81614a3e565b9050919050565b7f4e487b7100000000000000000000000000000000000000000000000000000000600052601160045260246000fd5b6000614abb82614162565b915061ffff8203614acf57614ace614a81565b5b600182019050919050565b6000614ae582613c4e565b9150614af083613c4e565b925082821015614b0357614b02614a81565b5b828203905092915050565b7f6e6f2074657374496473206c6566740000000000000000000000000000000000600082015250565b6000614b44600f83613b9e565b9150614b4f82614b0e565b602082019050919050565b60006020820190508181036000830152614b7381614b37565b9050919050565b7f4e487b7100000000000000000000000000000000000000000000000000000000600052601260045260246000fd5b6000614bb482613c4e565b9150614bbf83613c4e565b925082614bcf57614bce614b7a565b5b828206905092915050565b7f4e487b7100000000000000000000000000000000000000000000000000000000600052603260045260246000fd5b6000614c1482613c4e565b9150614c1f83613c4e565b9250827fffffffffffffffffffffffffffffffffffffffffffffffffffffffffffffffff03821115614c5457614c53614a81565b5b828201905092915050565b7f4552433732313a2062616c616e636520717565727920666f7220746865207a6560008201527f726f206164647265737300000000000000000000000000000000000000000000602082015250565b6000614cbb602a83613b9e565b9150614cc682614c5f565b604082019050919050565b60006020820190508181036000830152614cea81614cae565b9050919050565b7f5055424c49435f53414c455f494e414354495645000000000000000000000000600082015250565b6000614d27601483613b9e565b9150614d3282614cf1565b602082019050919050565b60006020820190508181036000830152614d5681614d1a565b9050919050565b7f5055424c49435f544f4b454e5f4c494d49540000000000000000000000000000600082015250565b6000614d93601283613b9e565b9150614d9e82614d5d565b602082019050919050565b60006020820190508181036000830152614dc281614d86565b9050919050565b7f4c4953545f46494e414c495a4544000000000000000000000000000000000000600082015250565b6000614dff600e83613b9e565b9150614e0a82614dc9565b602082019050919050565b60006020820190508181036000830152614e2e81614df2565b9050919050565b7f494e56414c49445f494400000000000000000000000000000000000000000000600082015250565b6000614e6b600a83613b9e565b9150614e7682614e35565b602082019050919050565b60006020820190508181036000830152614e9a81614e5e565b9050919050565b600081905092915050565b6000614eb782613b93565b614ec18185614ea1565b9350614ed1818560208601613baf565b80840191505092915050565b7f2e6a736f6e000000000000000000000000000000000000000000000000000000600082015250565b6000614f13600583614ea1565b9150614f1e82614edd565b600582019050919050565b6000614f358285614eac565b9150614f418284614eac565b9150614f4c82614f06565b91508190509392505050565b60008160601b9050919050565b6000614f7082614f58565b9050919050565b6000614f8282614f65565b9050919050565b614f9a614f9582613cd1565b614f77565b82525050565b6000614fac8284614f89565b60148201915081905092915050565b7f4552433732313a206f70657261746f7220717565727920666f72206e6f6e657860008201527f697374656e7420746f6b656e0000000000000000000000000000000000000000602082015250565b6000615017602c83613b9e565b915061502282614fbb565b604082019050919050565b600060208201905081810360008301526150468161500a565b9050919050565b7f4552433732313a207472616e73666572206f6620746f6b656e2074686174206960008201527f73206e6f74206f776e0000000000000000000000000000000000000000000000602082015250565b60006150a9602983613b9e565b91506150b48261504d565b604082019050919050565b600060208201905081810360008301526150d88161509c565b9050919050565b7f4552433732313a207472616e7366657220746f20746865207a65726f2061646460008201527f7265737300000000000000000000000000000000000000000000000000000000602082015250565b600061513b602483613b9e565b9150615146826150df565b604082019050919050565b6000602082019050818103600083015261516a8161512e565b9050919050565b7f416363657373436f6e74726f6c3a206163636f756e7420000000000000000000600082015250565b60006151a7601783614ea1565b91506151b282615171565b601782019050919050565b7f206973206d697373696e6720726f6c6520000000000000000000000000000000600082015250565b60006151f3601183614ea1565b91506151fe826151bd565b601182019050919050565b60006152148261519a565b91506152208285614eac565b915061522b826151e6565b91506152378284614eac565b91508190509392505050565b7f4552433732313a20617070726f766520746f2063616c6c657200000000000000600082015250565b6000615279601983613b9e565b915061528482615243565b602082019050919050565b600060208201905081810360008301526152a88161526c565b9050919050565b7f4552433732313a207472616e7366657220746f206e6f6e20455243373231526560008201527f63656976657220696d706c656d656e7465720000000000000000000000000000602082015250565b600061530b603283613b9e565b9150615316826152af565b604082019050919050565b6000602082019050818103600083015261533a816152fe565b9050919050565b600061534c82613c4e565b91507fffffffffffffffffffffffffffffffffffffffffffffffffffffffffffffffff820361537e5761537d614a81565b5b600182019050919050565b600061539482613c4e565b915061539f83613c4e565b9250826153af576153ae614b7a565b5b828204905092915050565b60006153c582613c4e565b91506153d083613c4e565b9250817fffffffffffffffffffffffffffffffffffffffffffffffffffffffffffffffff048311821515161561540957615408614a81565b5b828202905092915050565b600061541f82613c4e565b91506000820361543257615431614a81565b5b600182039050919050565b7f537472696e67733a20686578206c656e67746820696e73756666696369656e74600082015250565b6000615473602083613b9e565b915061547e8261543d565b602082019050919050565b600060208201905081810360008301526154a281615466565b9050919050565b600081519050919050565b600082825260208201905092915050565b60006154d0826154a9565b6154da81856154b4565b93506154ea818560208601613baf565b6154f381613be2565b840191505092915050565b60006080820190506155136000830187613ce3565b6155206020830186613ce3565b61552d6040830185614206565b818103606083015261553f81846154c5565b905095945050505050565b60008151905061555981613b04565b92915050565b60006020828403121561557557615574613ace565b5b60006155838482850161554a565b91505092915050565b6000819050919050565b6155a76155a282613ecf565b61558c565b82525050565b60006155b98285615596565b6020820191506155c98284615596565b6020820191508190509392505050565b7f4552433732313a206d696e7420746f20746865207a65726f2061646472657373600082015250565b600061560f602083613b9e565b915061561a826155d9565b602082019050919050565b6000602082019050818103600083015261563e81615602565b9050919050565b7f4552433732313a20746f6b656e20616c7265616479206d696e74656400000000600082015250565b600061567b601c83613b9e565b915061568682615645565b602082019050919050565b600060208201905081810360008301526156aa8161566e565b905091905056fea2646970667358221220cdaca08fd2e476b509bdd8fbef53eb5b5aaeb4e8e692296a94e4c591e9e25cbe64736f6c634300080d0033",
  "linkReferences": {},
  "deployedLinkReferences": {}
}